:020000022000DC
:1060000000FD0020B5FC0300DDFC0300DFFC030005
:10601000E1FC0300E3FC0300E5FC030000000000DA
:10602000000000000000000000000000E7FC03008A
:10603000E9FC030000000000EBFC0300EDFC0300A2
:10604000EFFC0300EFFC0300EFFC0300EFFC030098
:10605000EFFC0300EFFC030015750200EFFC0300EA
:10606000EFFC0300EFFC03005D4E0300EFFC0300B8
:10607000EFFC0300EFFC0300EFFC0300EFFC030068
:10608000EFFC03000DE3030091FB0200EFFC0300B3
:10609000DDE30300EFFC030029B50200EFFC030081
:1060A000EFFC0300EFFC0300EFFC0300EFFC030038
:1060B000EFFC0300EFFC0300000000000000000004
:1060C000EFFC0300EFFC0300EFFC0300EFFC030018
:1060D000EFFC0300EFFC0300EFFC030000000000F6
:1060E00000000000000000000000000000000000B0
:1060F00000000000000000000000000000000000A0
:10610000000000000000000000000000000000008F
:10611000000000000000000000000000000000007F
:10612000000000000000000000000000000000006F
:10613000000000000000000000000000000000005F
:10614000000000000000000000000000000000004F
:10615000000000000000000000000000000000003F
:10616000000000000000000000000000000000002F
:10617000000000000000000000000000000000001F
:10618000000000000000000000000000000000000F
:1061900000000000000000000000000000000000FF
:1061A00000000000000000000000000000000000EF
:1061B00000000000000000000000000000000000DF
:1061C00000000000000000000000000000000000CF
:1061D00000000000000000000000000000000000BF
:1061E00000000000000000000000000000000000AF
:1061F000000000000000000000000000000000009F
:1062000010B5054C237833B9044B13B10448AFF3F0
:1062100000800123237010BD602F002000000000CB
:106220003C2C040008B5034B1BB103490348AFF3F2
:10623000008008BD00000000642F00203C2C0400FA
:10624000154B002B08BF134B9D46A3F5803A002148
:106250008B460F461348144A121A1BF02FF90F4BA6
:10626000002B00D098470E4B002B00D09847002001
:10627000002104000D000D48002802D00C48AFF3A7
:1062800000801BF0CDF82000290000F04DFD1BF030
:10629000B3F800BF0000080000FD0020000000006F
:1062A00000000000602F0020345A00200000000091
:1062B000000000003FDF704741DF704730B52D4BD5
:1062C00014461B68526887B00D4603F4804352B3EE
:1062D000F3B1294B1B68032B1ADD2F2127481BF034
:1062E000BDF9B8B12F2125481BF0B8F9411C244B4A
:1062F0006268D3F80435049262780392227802929D
:106300006A8801921F4A00920420B1220AF05AFCC6
:1063100007B030BD5C2119481BF0A0F908B15C2121
:10632000E1E71649E3E7002BF2D0134B1B68032B80
:10633000EEDD2F2111481BF091F990B12F210F486C
:106340001BF08CF9411C0E4B2278D3F804350292D5
:106350006A8801920C4A00920420B6220AF032FCAC
:10636000D6E75C2105481BF079F908B15C21E6E726
:106370000249E8E7482E0020442E002013170400AD
:10638000001001403B1704008D17040010B54F4A60
:106390004F4C137886B0591C11708DF80D30322196
:1063A0006423CDE9043123688DF80C0058041AD514
:1063B000484B1B68032B16DD2F2147481BF04EF975
:1063C00000283DD02F2144481BF048F9411C434B85
:1063D0009DF80C20D3F804350192414A0092042024
:1063E000E1220AF0EFFB022304AA03A93D4811F0C1
:1063F00009F8072841D02CD878B304285FD1236846
:106400005A0416D5334B1B68002B12DD2F2132485E
:106410001BF024F940B32F212F481BF01FF9411C1A
:106420002E4B314AD3F804350092F52201200AF0B0
:10643000C9FB062232214FF4F01000F0D5FF11E025
:106440005C2125481BF00AF908B15C21BBE7224911
:10645000BDE70828D3D01128D0E79DF80C101120F3
:1064600000F0ACFF06B010BD5C211B481BF0F6F835
:1064700008B15C21D0E71849D2E723685B04D8D57E
:10648000144B1B68002BD4DD2F2113481BF0E6F8BA
:1064900060B12F2110481BF0E1F8411C0F4B134A4B
:1064A000D3F80435009240F20312BFE75C210A489A
:1064B0001BF0D4F808B15C21ECE70749EEE7064A87
:1064C0004FF4857119F021FCCCE700BFD42F0020D8
:1064D000482E0020442E0020131704000010014015
:1064E0001D1A04007C2F0020381A0400511A0400E1
:1064F0000020FFF74BBF000007B5174B1B685B047C
:1065000016D5164B1B68032B12DD2F2114481BF0E8
:10651000A5F8C0B12F2112481BF0A0F8411C114B67
:10652000114AD3F8043500920420C4220AF04AFB31
:106530000322C8214FF4F01000F056FF03B05DF8BD
:1065400004EB00F09DBD5C2105481BF087F808B105
:106550005C21E0E70249E2E7482E0020442E0020BB
:106560001317040000100140D319040030B58A4C01
:1065700023685A0487B0054618D5884B1B68032B3F
:1065800014DD2F2186481BF069F878B32F21844849
:106590001BF064F8411C834B834AD3F80435009206
:1065A000019540F24D1204200AF00CFB00F015FD9D
:1065B00070BB23685B0417D5784B1B68012B13DD78
:1065C0002F2177481BF04AF8C8B12F2174481BF0DF
:1065D00045F8411C734B754AD3F8043500920220EC
:1065E00040F251120AF0EEFA07B030BD5C216C485F
:1065F0001BF034F808B15C21C9E76949CBE75C219D
:1066000067481BF02BF808B15C21DFE76449E1E73C
:10661000674818F0DDF820B1614A40F2551119F0D1
:1066200074FB032DE0D8DFE815F0040017001D000F
:106630001B010120FFF7AAFE00224FF420315C4825
:1066400018F082F80028CFD0554A4FF4AF7107B048
:10665000BDE8304019F059BB002007B0BDE830401C
:10666000FFF794BE0DF088FA2368002840F0A88058
:106670005D0417D5494B1B68032B13DD2F214848B8
:106680001AF0ECFF80B32F2145481AF0E7FF411CB8
:10669000444B484AD3F804350092042040F21112CA
:1066A0000AF090FA9DF81430042262F3061303F006
:1066B000F303022262F301038DF8143006AA42F2BA
:1066C00010730493642342F80C3D4FF47A7307CAA5
:1066D0000DF058F907283DD008280ED0002883D0A7
:1066E0002F4A40F22F11B2E75C212D481AF0B6FF75
:1066F00008B15C21C8E72A49CAE72368580417D5BE
:10670000264B1B68002B13DD2F2125481AF0A6FF0E
:10671000B8B12F2122481AF0A1FF411C214B264A73
:10672000D3F80435009240F2211201200AF04AFA0F
:10673000062232214FF4F01007B0BDE8304000F0DF
:1067400053BE5C2116481AF089FF08B15C21E1E7CD
:106750001349E3E723685904EAD5104B1B68002B63
:10676000E6DD2F210E481AF079FF60B12F210C4889
:106770001AF074FF411C0B4B104AD3F804350092F9
:106780004FF49472D1E75C2105481AF067FF08B115
:106790005C21ECE70249EEE7482E0020442E002061
:1067A0001317040000100140851804009818040015
:1067B000B42F0020B8180400EC1804000D190400D0
:1067C0005A0417D52B4B1B68032B13DD2F212A48A6
:1067D0001AF044FF70B32F2127481AF03FFF411CE5
:1067E000264B274AD3F80435009204204FF49B72BD
:1067F0000AF0E8F90DF0AEF900283FF4F5AE0828EC
:106800002AD123685B0493D51A4B1B68002B8FDDBC
:106810002F2119481AF022FFA8B12F2116481AF08B
:106820001DFF411C154B174AD3F80435009240F266
:106830003F127AE75C2110481AF010FF08B15C2182
:10684000CAE70D49CCE75C210B481AF007FF08B1F5
:106850005C21E3E70849E5E7074A4FF4A371F6E650
:1068600010F084FC00F0AEFB07B0BDE83040FFF74D
:1068700043BE00BF442E0020131704000010014047
:1068800041190400641904003038032801D8FFF7C7
:106890006DBE704703781C2B01D1FFF72DBE7047EA
:1068A0007FB50378153B0446052B00F29080DFE8A6
:1068B00013F006008E0099007200BF00ED008F4DAE
:1068C0002A68530400F1040619D58D4B1B68032B6D
:1068D00015DD2F218B481AF0C1FE18B32F218948EE
:1068E0001AF0BCFE411C884BA288D3F804350192F3
:1068F000864A009204204FF4CA720AF063F93046C7
:106900000DF092F80828044615D8072815D200285B
:106910005DD07C4A40F2A911204604B0BDE8704029
:1069200019F0F3B95C2177481AF098FE08B15C21A0
:10693000D5E77449D7E70E28EBD12B685D0418D54D
:106940006F4B1B68002B14DD2F216E481AF086FE5A
:10695000C0B12F216B481AF081FE411C6A4B6C4A72
:10696000D3F804350092019440F2A11201200AF0FC
:1069700029F9062232214FF4F01004B0BDE870402E
:1069800000F032BD5C215F481AF068FE08B15C215E
:10699000E0E75C49E2E7594B1B68580417D5584BB0
:1069A0001B68032B13DD2F2156481AF057FE80B1C8
:1069B0002F2154481AF052FE411C534B554AD3F82C
:1069C00004350092042040F2B1120AF0FBF804B042
:1069D00070BD5C214B481AF041FE08B15C21E8E72C
:1069E0004849EAE7454B1B685904C2D5444B1B682C
:1069F000032BBEDD2F2143481AF030FE78B12F2142
:106A000040481AF02BFE411C3F4B434AD3F8043553
:106A10000092042040F2B5120AF0D4F8A9E75C21F4
:106A200038481AF01BFE08B15C21E9E73549EBE76D
:106A3000324B1B685A0419D5314B1B68032B15DDEB
:106A40002F2130481AF00AFEB8B12F212D481AF034
:106A500005FE411C2C4B2289D3F8043501922F4AA4
:106A60000092042040F2C3120AF0ACF80121122077
:106A700004B0BDE8704000F0A1BC5C2121481AF0D0
:106A8000EDFD08B15C21E1E71E49E3E71B4B1B6804
:106A90005B041BD51A4B1B68032B17DD2F211948EC
:106AA0001AF0DCFD00B32F2116481AF0D7FD411C67
:106AB000154BA27AD3F80435029222890192184A22
:106AC000009204204FF4E9720AF07CF812200021B1
:106AD00000F074FC134817F07BFE00283FF477AFFA
:106AE000084A4FF4EC7118E75C2106481AF0B6FD2D
:106AF00008B15C21D8E70349DAE700BF482E00203F
:106B0000442E00201317040000100140B6170400A3
:106B1000D9170400F71704001718040031180400EF
:106B200056180400B42F002007B51E4B1B685B04E9
:106B300017D51D4B1B68032B13DD2F211B481AF0A3
:106B40008DFD18B32F2119481AF088FD411C184BF0
:106B5000184AD3F804350092042040F2E3120AF0F8
:106B600031F81548154B036301210023836280F837
:106B70002C3080F82D3010F019FC80B10B4A4FF406
:106B8000F57103B05DF804EB19F0BFB85C2107485C
:106B90001AF064FD08B15C21D5E70449D7E703B0DA
:106BA0005DF804FB482E0020442E0020131704003B
:106BB00000100140B31904007C2F00208419040048
:106BC00010B5044600214FF4F01004EB840400F0EB
:106BD00001FC620032214FF4C010BDE8104000F00B
:106BE00003BC00F033BC00001FB5304C22685204D7
:106BF00017D52F4B1B68032B13DD2F212D481AF0BF
:106C00002DFD002840D02F212A481AF027FD411CD5
:106C1000294B2A4AD3F80435009204208D2209F02A
:106C2000D1FF03F0E3FF04F009F803A816F01CFA03
:106C300023685B0419D51E4B1B68032B15DD2F2120
:106C40001C481AF00BFD40B32F211A481AF006FD1C
:106C5000411C194BBDF80C20D3F804350192184A99
:106C6000009204209A2209F0ADFF00F0EFFB002112
:106C70004FF4F01000F0AEFB0422C8214FF4F010E6
:106C800000F0B2FB04B010BD5C210A481AF0E6FC2B
:106C900008B15C21B8E70749BAE75C2105481AF05A
:106CA000DDFC08B15C21D0E70249D2E7482E002084
:106CB000442E00201317040000100140EC190400BA
:106CC000061A040007B5134B1B685B0416D5124B5C
:106CD0001B68012B12DD2F2110481AF0BFFC80B178
:106CE0002F210E481AF0BAFC411C0D4B0D4AD3F867
:106CF000043500920220A62209F064FF03B05DF87B
:106D000004FB5C2105481AF0A9FC08B15C21E8E706
:106D10000249EAE7482E0020442E00201317040001
:106D200000100140F416040000B5574A8DB004214C
:106D30004FF4C04009F02AFF544B1B685B0419D57F
:106D4000534B1B68032B15DD2F2152481AF086FC8C
:106D5000002800F08F802F214E481AF07FFC411C44
:106D60004D4B4E4AD3F804350092042040F20922DC
:106D700009F028FF17F07CFC20B1464A40F20B21B5
:106D800018F0C3FF00F072FB454800F09BFB20B1F8
:106D9000404A40F2122118F0B8FF03F00DFF03F053
:106DA00025FF03F04BFF0021202203A81AF086FBE9
:106DB00001238DF80C3007238DF80F3006238DF852
:106DC0001430384B07933849384B0B9303A800F025
:106DD00011F920B12F4A40F2F71118F096FF34480C
:106DE00007F050FE0120FFF765FA20B1294A40F272
:106DF000232118F08AFF0CF0A3FD64212D4800F038
:106E00007DFA2D4A2D48002117F08CFC20B1214A33
:106E100040F22F2118F079FF234B1B7883B9284DBE
:106E20000FCD03AC0FC495E8030084E8030003A86A
:106E300000F016FA20B1174A40F23D2118F065FF24
:106E400004F03EFE00F096FB00F00CF920B1114A70
:106E500040F2422118F059FF00214FF4F01000F0E9
:106E6000B9FA0222C8214FF4F01000F0BDFAFFF782
:106E700023FAFCE75C2107481AF0F0FB08B15C211B
:106E80006AE704496CE700BF610B0300482E00204D
:106E9000442E002013170400001001409419040030
:106EA0006D65020095680200B02F0020296B02007A
:106EB000A02D002089680200F164020090190400EE
:106EC000DC16040010B504460AF0FEFB38B1237846
:106ED0000E2B04D10020BDE8104007F031BE10BDDC
:106EE00070B5837DC27D86B043EA0223ADF81430CD
:106EF0000446022305A80E46ADF8163016F078F8C1
:106F00000546002847D104AA2146208A16F04CFAEB
:106F1000054600283FD10DF112033246BDF810108E
:106F2000E08A16F0CFFC0546002834D1217ED4F843
:106F3000120001F0010107F06DF910B1784604F07C
:106F400087FDBDF8120012F0ADFD054618BB184BC9
:106F50001B681B031DD5174B1B68062B19DD2F2142
:106F600015481AF07BFBC8B12F2113481AF076FBA5
:106F7000411C227E114B02F00102D3F8043502922B
:106F8000D4F8122001920E4A00920720C32209F081
:106F900019FE13F027FD284606B070BD5C21064897
:106FA0001AF05CFB08B15C21DFE70349E1E700BFB1
:106FB000482E0020442E0020921A040000100140A8
:106FC000B11A040008B50BF0D5FE14F05AF915F00B
:106FD00099FFBDE8084006F0CFBE07B501A816F03E
:106FE00043F8BDF80400003018BF012003B05DF87D
:106FF00004FB000073B50E46054678B307F060FC4D
:10700000044640BB15F0D4FF14F0AEFE286912F020
:1070100019FD0446F8B92B7F0193AB690093014633
:107020006B690F48592212F09DFF044698B92B6AEC
:1070300003B198470BF0B6FD15F0D4FE13F06EFEC9
:1070400008B113F0CFFCFFF7C8FF054608B10FF0F9
:1070500061FC06B13570204602B070BD0E24FAE71F
:10706000D82F002008B5FFF7B8FF20B10FF012FDB0
:1070700008B10FF091FCBDE8084007F097BC000094
:1070800008B50AF021FB20B10020BDE8084007F058
:1070900057BD0248BDE8084007F0F4BCAC2D002005
:1070A00030B5274D297885B019B1012803D00328C0
:1070B0003FD005B030BD04AC002344F8083D214664
:1070C00004F0CAF808B118F013FE204604F02EF9B7
:1070D00008B118F00DFE04A9012341F8043D0DF19B
:1070E000060016F0D1FB08B118F002FEBDF806004C
:1070F00016F0E1F80DF1050116F0E4F908B118F009
:10710000F7FD0FF007FC9DF80510002010F062F865
:1071100010B1784604F09CFC07F048FC08B118F068
:10712000E7FD00232B70074B1B68002BC1D098474D
:10713000BFE704F063F90028BBD018F0D9FDB8E729
:10714000323000203430002008B503781C2B0CD1DD
:10715000064B1B784BB104F08DF908B118F0C8FD4F
:107160000348BDE8084007F08FBC08BD323000205E
:10717000B82D002010B50749074817F0F9FE024660
:1071800038B90649064809690223BDE8104017F0DE
:1071900008BF10BD4C300020F031002034300020FA
:1071A000BC30002010B50378023B082B4AD8DFE83A
:1071B00003F01E051249493849493F00224B5B68DC
:1071C000002B3FD0007A00283CD0204A01211170CA
:1071D000BDE8104018471C4B9B68002B32D01B4A5F
:1071E000117879B300211170BDE810401847184B91
:1071F0001A784AB9144BDB6813B114490A709847DE
:10720000BDE81040FFF7B6BF124B134801221A70B9
:1072100007F038FC07F01EFCA0B1BDE8104018F0E4
:1072200067BD094B0D485969102217F0FFFEF3E7BF
:10723000D0E90210FFF754FE08B118F059FD044BD5
:1072400001221A7010BD00BF343000203030002001
:107250003130002032300020B82D0020BC3000201A
:1072600070B5184A184E5168044686B0106803ABD2
:1072700003C31189927A19809A700FCC35460FC5D5
:1072800094E8030085E803007369C3B10F4B0093D2
:107290000F4A1049104803AB17F03CFE68B90F487D
:1072A00018F064FB48B90D4818F092FB01460A48F3
:1072B00017F04AFE08B9FFF75DFF06B070BD072062
:1072C000FBE700BFD11A040034300020A571020092
:1072D0004C300020F0310020BC3000206C30002009
:1072E00010B5054C226832B118F040FE002802DBD0
:1072F00023689847F8E710BD30320020154B164A36
:1073000010B50C4618600121144817F00BFA18B19B
:10731000134A4A2118F0F9FC610C0023E00341F202
:107320006F728B4208BF824210D24FF47A720023F0
:1073300019F0E2FE014600220A4817F005FA38B1BA
:10734000074A4B21BDE8104018F0DFBC0521F2E7E9
:1073500010BD00BF30320020E1720200DC1A0400D0
:10736000E01A04003432002070B5104C206808B9CF
:1073700018F0BEFC4FF0A0450D4ED5F8043532682C
:107380005340C5F804352368013B236063B90948BD
:1073900017F01EFA3268D5F8043523EA0203064ACC
:1073A00012681343C5F8043570BD00BF5432002085
:1073B000583200205C32002084320020012303FA7E
:1073C00000F04FF0A04311B1C3F80C057047C3F8AB
:1073D000080570474FF0A04311B1C3F80C05704782
:1073E000C3F8080570470000F8B52AB3132923D95C
:1073F000124B134D5200013A4FF0A0441A6028601E
:10740000D4F8043518400F4B4FF4FA761860002773
:107410004FF40040E0FB01674FF47A7200233046DE
:10742000394619F069FE00220146074817F08CF929
:1074300010B92B68C4F80C35F8BD00BF54320020D9
:1074400058320020843200205C32002008B5054804
:1074500017F0BEF9044B1A684FF0A043C3F8082593
:1074600008BD00BF5C3200205832002008B54FF044
:10747000A04303224FF40031C3F84427C3F8081592
:107480004FF48021C3F84827C3F808154FF40021B2
:10749000C3F84C27C3F80815C3F850274FF48012DF
:1074A000C3F808250121054A054817F03BF918B132
:1074B000BDE8084018F01CBC08BD00BF697302009D
:1074C000041B0400D8B10F4B0F4A18604FF0A043C3
:1074D0000020C3F83427C3F83827C3F83C27C3F883
:1074E00040270A4B4FF00042C3F80423C3F87C0145
:1074F000074BC02283F8062340221A6070470E20F3
:10750000704700BF7C3200200C0003000060004088
:1075100000E100E0124B70B50024124E124DC3F88A
:107520007C414FF0A043A15DD3F8102501238B408F
:10753000934311D00D49D5F804250B68981A48BF1C
:10754000D01A43F23333984206D9D5F804350B608C
:10755000074B20461B6898470134042CE1D170BDCD
:1075600000600040081B0400001001408032002031
:107570007C32002070B50446CEB0002864D03C4D6B
:107580002A6852042FD53B4B1B68032B2BDD3A4B4B
:107590000DAE19680023E25C100902F00F02085CCE
:1075A00006F81300885C06EB43020133102B507081
:1075B000F1D100232F21314886F820301AF04EF8FF
:1075C000002843D02F212D481AF048F8411C2C4B9D
:1075D0002C4AD3F8043501922B4A0092029641229C
:1075E000042009F0EFFA2B685B042DD5214B1B68B2
:1075F000032B29DD2F2121481AF030F800282ED046
:107600002F211E481AF02AF8411C1D4BE27BD3F8AB
:1076100004350B92A27B0A92627B0992227B08922C
:10762000E27A0792A27A0692627A0592227A04920C
:10763000E2880392A288029222680192134A009281
:107640000420462209F0BEFA4EB070BD5C210B4802
:107650001AF004F808B15C21B5E70849B7E75C21E6
:10766000064819F0FBFF08B15C21CAE70349CCE7E3
:10767000482E0020442E00204C2E00200C1B04001D
:1076800000100140341B0400461B04004E1B040084
:10769000AEDF7047B0DF70473CDF70473DDF7047BB
:1076A0007FB5044638B10388502B5AD005D8102B2B
:1076B00017D0112B19D004B070BD512B1DD0532BF6
:1076C000F9D12E4DC288EB889A42F4D16B7E002B03
:1076D000F1D000F01FF90028EDD06B690220984727
:1076E000E9E78288254B9A80E5E7244B81889A88D0
:1076F0009142E0D14FF6FF72F5E7204D8288AB88CA
:107700009A42D8D18679022ED5D10289EB889A4245
:10771000D1D1837B043B022BCDD9102200216846B6
:1077200019F0CCFE2B7E8DF80060BBB19DF80630C1
:1077300043F001038DF806300023ADF804306946AC
:10774000A888FFF7A7FF1128F9D0BDF80430002B57
:10775000B1D104F1080000F089F8ACE740F2FD1364
:10776000EBE7064DC2886B899A42A4D1038A022BAB
:10777000A1D1123004F066F828769CE78832002008
:1077800030B587B005460C461022002102A819F03A
:1077900095FE0323ADF8023020238DF804300F4B03
:1077A0008DF80550DA88ADF8082002228DF80A20FD
:1077B0000022ADF80C200DF10202049202A901AAE8
:1077C00098888DF806400592FFF762FF20B9BDF852
:1077D0000230032B18BF0C2007B030BD88320020C8
:1077E00010B54FF0FF310020FFF758FF044658B99D
:1077F000B121FFF751FF044630B9044B01205B690A
:107800009847022001F0FCF8204610BD8832002085
:1078100070B514490B6823B34B6813B3083198470C
:1078200008281ED0104C2368254658B998760121A7
:107830000220FFF7A5FFA0B123685B690320BDE824
:107840007040184700229A7606210220FFF798FF21
:1078500018B1236803205B6998472B6802205B6995
:10786000EDE770BDC4320020C032002070B505467F
:10787000007B254C012803D0022825D0022117E0E7
:1078800023689E7E56B10621FFF77AFF002835D087
:1078900023685B690320BDE87040184758760146AD
:1078A000FFF76EFF50B3236811285E7627D00421BE
:1078B000287BFFF765FF18B1236803205B699847B1
:1078C000236802205B69E6E76A7B531E132B18D8F6
:1078D0000E4E05F10E01301D19F0E5FD6B7BB36115
:1078E00023689B7E002BE2D10949304651F8083BC2
:1078F00098470028DBD1236801229A7670BD0621C3
:10790000D6E70521D4E700BFC0320020A432002012
:10791000C432002008B5044B1B6800205B699847FF
:10792000BDE80840FFF75CBFC0320020F7B517463E
:1079300001900E4691B1019C6CB100252C46294660
:1079400001A800F09DF918B13946A8B2B04701343A
:107950000135142DF3D1204603B0F0BD0C46FAE7F3
:1079600073B50191019C06466CB100252C46294651
:1079700001A800F085F918B106EB440301349D809D
:107980000135142DF3D13046346002B070BD0000D3
:107990002DE9F04303888488112B8DB0064640D032
:1079A0001A2B43D0102B16D1294DAB680CA8DB4302
:1079B00040F8303D55F8041F03F014FF009901A86A
:1079C000FFF7CEFF0027019B9F4207D3132C18D946
:1079D000042018F08DF90DB0BDE8F08301AB03EB86
:1079E00047034FF00008B3F8049005EB0800494640
:1079F00008F1040800F03AF9B8F1740FF5D1013735
:107A0000E1E72146134800F01AF92146124800F038
:107A100016F9F37B012BDED01048214600F00FF958
:107A2000D9E70C48214600F021F9D4E7057A0C4843
:107A30002D09012D214606D900F001F9022D21461C
:107A40000848F0D0EAE700F011F921460548EAE7D6
:107A5000D0320020D8320020D4320020DC32002086
:107A6000E0320020E43200201328014602D8024808
:107A700000F006B900207047D432002010B504464B
:107A8000FFF7F2FF38B12146034800F0F9F800286B
:107A900014BF0220012010BDDC32002010B50446C6
:107AA000FFF7E2FF28B121460248BDE8104000F090
:107AB000E7B810BDE032002070B50A4D06462846F2
:107AC0000C4600F0DDF858B13046FFF7CDFF38B175
:107AD000A01D314605EB8000BDE8704000F0D0B835
:107AE000002070BDD0320020F8B50D4C0546204670
:107AF0000E46174600F0C4F880B12846FFF7B4FFE1
:107B000060B1B01D04EB800029461FB1BDE8F8400C
:107B100000F095B8BDE8F84000F0A8B8F8BD00BF87
:107B2000D0320020F8B50A4C05460E4601462046E4
:107B3000174600F0A5F848B1043504EB85043A4631
:107B4000A0683146BDE8F840FFF7F0BEF8BD00BFC1
:107B5000D032002037B550E8013F9DB2C48925449A
:107B60008489A54228BF2D1B0489A54202BFBFF30B
:107B70002F8F002207E0C5EA030540E80154002CDE
:107B8000E9D14FF001028DF803200193019B9DF88C
:107B900003200B6002F0FF0322B10B880068184439
:107BA00003B030BD1846FBE70A884B889A4209D1DA
:107BB00050E8012FC2EA024240E80123002BF7D12E
:107BC000012070470020704737B550E8023F1FFA88
:107BD000A3F5C488A54202BFBFF32F8F00220DE09A
:107BE000C48925448489A54228BF2D1BC3EA0545C5
:107BF00040E80254002CE8D14FF001028DF8032038
:107C00000193019B9DF803200B6002F0FF0322B15A
:107C10004B880068184403B030BD1846FBE70A885B
:107C20004B889A4209D150E8022FC2EA224240E82A
:107C30000223002BF7D1012070470020704701F08C
:107C40001F024B090121914000EB830003F0BFBDEF
:107C50004B0910B501F01F040121A14000EB830086
:107C600003F0AAFDE04000F0010010BD01F01F0389
:107C700001229A404B0900EB8300D14303F0B2BDCF
:107C80004B0901F01F0150F82300C84000F001002B
:107C900070472DE9F0474E1E760980460F460136A3
:107CA000002558F8254008EB850AE44394FAA4F42B
:107CB000B4FA84F44FEA4519202C06D10135AE42BE
:107CC000EFD83C462046BDE8F0874C44A742F5D9A2
:107CD00021464046FFF7BCFF0028F3D0DAF8004009
:107CE000E44394FAA4F4B4FA84F4E5E770B5064EDC
:107CF0000546002456F824300BB128469847013435
:107D0000042CF7D170BD00BF54330020033080B283
:107D100040F2FD33984230B51FD8124B1A783AB969
:107D20001C895D892C440444A4B2B4F5806F0AD345
:107D30001A7DA2B99A8BDC8B2244024492B2B2F52E
:107D4000806F0CD201220A801446142202FB0433F5
:107D50005A8910445881002030BD0920FCE70720D3
:107D6000FAE700BF883300200B4A0C4B51881420DF
:107D700000FB0131CB6833B904204968107001223F
:107D8000074800F027BD05230649137002238B80A6
:107D9000012200230968F3E76C33002088330020B8
:107DA000482F0020C433002007B500230549009365
:107DB000054A09680548082300F0DEFC03B05DF8B9
:107DC00004FB00BFC43300209C1B0400482F00208C
:107DD00007B50023009301460823034A034800F037
:107DE000CBFC03B05DF804FB941B0400482F00207B
:107DF00013B500230C46009301460423074A0848A4
:107E000000F0BAFC38B9074B142202FB04340123FA
:107E1000237402B010BD0E20FBE700BF901B0400CE
:107E2000482F00208833002037B50A480A4B4268A3
:107E30009C88196853880325033305709BB2002082
:107E400000909B0001EB8401044800F095FC03B016
:107E500030BD00BF6C330020C4330020482F002009
:107E600010B501460448FFF775FE1C2204460021A8
:107E700019F024FB204610BDB033002043880333A3
:107E800000EB8303994209D382884FF6FF739A422D
:107E900006D00088B0FA80F0400970470220704791
:107EA0000120704770B5144A142303FB00200B68AF
:107EB00044680D4604F580569BB15C88033403EB9F
:107EC0008404B4420BD22368013308D031462046E3
:107ED000FFF7D4FF012809D005D30228F1D10020F3
:107EE00003E00834EDE72C60012070BD63880333A4
:107EF00004EB8304E5E700BF8833002073B54368D3
:107F000005460C466BB3254AD1688B4229D31269CA
:107F1000934226D813F0030223D12149008909890D
:107F200088421ED12868996888421AD11D4948683C
:107F3000834203D900F5805083420ED38A6993426D
:107F40000DD902F58052934209D2012323800020EB
:107F5000B0FA80F0400902B070BD1346F6E70A207F
:107F6000F6E7002323801E462388012B01D9002039
:107F7000F1E7019601A92088FFF794FF18B923883B
:107F800001332380F0E7019B2A6899689142F1D17F
:107F90006B60034B1B892B81DDE700BF482F00205E
:107FA0006C330020883300202DE9F8431C461F4B1A
:107FB0001B7806460F461546002B32D0002A32D0D9
:107FC000002C30D0DFF86C804FF01409A388012B0F
:107FD00001D90A201BE009FB03F318F80330C3B1F1
:107FE000A3880133A380F1E723681EB19988328802
:107FF00091420ED11FB119883A88914209D19B68EC
:108000002B6023686B600A4B1B892B810020BDE825
:10801000F8832146A088FFF745FF0028E4D12060BF
:10802000DEE70220F3E70520F1E700BF643300201C
:108030006C3300208833002008B5074B191D588881
:10804000FFF730FF18B1BDE80840FFF7EDBEBDE80F
:108050000840FFF789BE00BF6C3300202DE9F04FC8
:10806000A04FDFF8A49289B00646B8463B6823B912
:1080700049469D48FFF7A8FD3860D8F80050297898
:108080004B1E052B00F21381DFE813F0060076008B
:108090007600070107015D0126B1944B00225A606A
:1080A000012424E02B79032B1DD8DFE803F015020F
:1080B000424D8F490B78022B084631D00B7D022BA5
:1080C0004FF001032ED114225343C2180020C8548C
:1080D0005068FFF77DFE03E001232B71FFF764FE7C
:1080E000002800F0D480814B00225A600E24142214
:1080F000002103A819F0E2F941F61D539C4208BF84
:108100000024D8F8003004941A78023A042A00F2C5
:10811000D381DFE812F0B401C001E301EB01F20109
:108120000023D0E7714A13700023536041F61D54B9
:10813000DDE770497048002302222B718A800122FA
:10814000096800F047FBCBE76A4C00262E712068D7
:10815000674DFFF73DFE694BD4F800C05A881423E1
:108160005343EA18EE5451682160A188C2F804C054
:1081700011810222A280B3E7B5F814A0AA7DDFF82E
:1081800070B11423AEB1022A06D903FB0AB3EA8800
:10819000198903320A441A81142303FB0ABAEB88B3
:1081A000BAF80A20C3F57F43FD331344AAF80A3016
:1081B00076E703FB0AB318895C6804EB8004062A9F
:1081C00005D8DFE802F0274D35431D5967000F241D
:1081D000AB7D022B07D9142202FB0AB2EB8811896E
:1081E00003330B441381142303FB0ABAEB88BAF858
:1081F0000A20C3F57F43FD331344AAF80A3076E71B
:108200003F48404900234360AB690360FFF776FEB7
:1082100000285AD00223AB75002300930423EA18E8
:108220002146354800F0A8FA002830D00E24CFE7C8
:108230002B69002B0CBF01230323AB750023009394
:1082400005F10C02042304F10801EAE70123AB75F0
:108250000022EB8800929B002A6904F10C01E0E700
:10826000032914BF06230523AB75002300930423C1
:1082700005F10802E118D4E70623AB75214B1988F4
:108280001F4B5868FFF7B4FD04460028A0D109B081
:10829000BDE8F08F41F61D549AE7002E7FF400AF41
:1082A0002B79012B32D004D3022B3FF43FAF0F24A4
:1082B0001DE702232B71CDE904660DF10A01EB687D
:1082C000039303A8FFF71AFE08B90A240FE70498DE
:1082D000BDF80A108388EB8003882B81FFF788FDA7
:1082E000044626E084330020B033002064330020AD
:1082F00088330020C4330020482F00206C33002036
:1083000048330020CC3300207C330020DFF808A263
:1083100003AA53463146A81DFFF746FE044660B93E
:10832000BAF804100498FFF763FD04460A2C3FF4E2
:10833000FDAE002C7FF4DBAEA9E7082231465046A3
:1083400019F0BCF8F2E7002E7FF4AAAE6D4B1A7B51
:10835000B2B11E731A78013A062AA8D801A151F8C1
:1083600022F000BF0B840200318402004F8402001F
:1083700055840200AF8202005B8402007184020017
:108380001A78072AE6D801A151F822F0AD8302003D
:108390005583020055830200D3830200E783020065
:1083A0000784020007840200CF8302001A8956491D
:1083B00001321A8100225A801A730A78B2FA82F2C4
:1083C00052099A720A7DB2FA82F25209DA720122D5
:1083D00007E04E4958688A884088033202448A8000
:1083E00002221A70B6E7484C5A884849142505FB02
:1083F00002420868546850608888108102228A808E
:108400000C600622EDE70722EBE79A7A32B9DA7AB6
:108410008AB900221A705A805A6087E63A490022C7
:108420009A72CA68002AF2D1097C0029EFD05A80DA
:10843000FFF702FE54E70022DA72334A116A00297C
:10844000E7D192F82420002AE3D00122EFE7FFF7DA
:10845000EBFC45E7FFF788FC42E706221A702A4A40
:108460005B88142101FB03235868FFF7B1FC37E751
:1084700007221A7000225A60FFF796FC30E70122AB
:108480008DF80C201A89ADF818209A88ADF81A20BA
:10849000DB68059310E002228DF80C201A89ADF8F4
:1084A00018209A88ADF81A20DA6805929B7D9A1FE9
:1084B000534253418DF81C3003A8FFF717FC0026E8
:1084C00049461348C8F80060FFF7A9FB012111488D
:1084D00003F0A9F900287FF4C9ADD8E603228DF88E
:1084E0000C20DA88ADF818201A89CFE704228DF81D
:1084F0000C20DB88ADF81830DEE705238DF80C3052
:10850000DAE700BF6C33002088330020C43300203A
:10851000B0330020C0330020D03300204068FFF784
:108520009DBD000008B50121044803F066F918B9A3
:10853000BDE80840FFF792BD08BD00BFC033002072
:108540002DE9F3419846344B1B7806460D46002B27
:1085500059D0002959D009884FF6FF73994256D057
:108560006B88002B53D06B689B0752D14AB92F8977
:108570000DF102013846FFF7C9FB30B102B0BDE88A
:10858000F08113885788ADF8023001A8FFF768FC26
:10859000044658B9BDF80230204A142101FB0323D8
:1085A00058890338C01B58810820E7E780F800800D
:1085B00000238375BDF8023083826B68036101215B
:1085C000174803F025F9E0602B8823816B88A3808E
:1085D000B8F1030F04BF0423A375E78004BF336819
:1085E000A3610025658101A90E48FFF7DDFA36B1C8
:1085F0007560E36833600C4BB5721B893381FFF7FC
:1086000091FF0020BAE70220B8E70520B6E7042072
:10861000B4E70320B2E700BF6433002088330020B2
:1086200080330020B03300206C33002073B50D463A
:108630000446C8B1C1B10DF10601FFF75FFCA8B156
:108640000B4BBDF806006668142202FB00300121C6
:108650000C3003F0DDF82E6063680C336B6001238F
:10866000A372002002B070BD0520FBE70A20F9E7E5
:108670008833002013B50446A8B10DF10601FFF7B9
:108680003DFC90B10B4ABDF80630142101FB0323D9
:10869000DA6862B1A27A52B1DA680020013ADA608F
:1086A000A07202B010BD0520FBE70A20F9E7062002
:1086B000F7E700BF8833002002230022FFF740BF06
:1086C00018B103230022FFF73BBF052070470000CD
:1086D00013B5104B1B780446ABB14FF6FF739842AD
:1086E00013D001A8FFF7BCFB88B105230370012359
:1086F0000371C48001A90848FFF756FAFFF712FF7B
:10870000002002B010BD0220FBE70420F9E708209A
:10871000F7E700BF64330020B033002007B5ADF8A1
:10872000060002A820F8041D01460DF10600FFF71F
:108730003BFC03B05DF804FB13B502AC134624F810
:10874000020D0A4600202146FFF72EFC02B010BDA4
:1087500013B502AC134624F8020D0A462046002148
:10876000FFF722FC02B010BD20B119B103680B6005
:1087700000207047052070472DE9F04108B302B38F
:10878000D0F800E0BEF1000F1ED0FBB14768D7F86B
:108790000480B3FBF8F708FB1737BFB942EA010CB6
:1087A0001CF0030F14D1C768B94211D34C1E0569E0
:1087B0001C44AC420CD8DEF80C40A446BDE8F041A5
:1087C00060470E20BDE8F0810820FBE70920F9E7AB
:1087D0001020F7E7F0B5D8B1D0F800C0BCF1000F19
:1087E00018D0CAB14768D7F800E00EF1FF370F4242
:1087F00014D1C768B94211D34C1E05690EFB02445F
:10880000AC420BD8DCF81040A446BDE8F04060470D
:108810000E20F0BD0820FCE70920FAE71020F8E759
:1088200029DF704728DF704770B50568AB6886B0F0
:1088300004460E4673B114220021684618F03EFE2D
:10884000A36805932379019633B1012B0ED0AB6851
:108850006846984706B070BD01238DF80030236943
:108860000293E368039363690493F0E702238DF8AE
:108870000030E3681B030293F5E70000034B187A0E
:108880000122B0FA80F05A7440097047E8330020A2
:1088900070B5244D244E2B7A2C463BB923492448ED
:1088A000FFF792F9306008B9686070BD0223237247
:1088B00033681A7972B1012A24D018460321FFF7D0
:1088C000B3FF00232372636018491948BDE8704064
:1088D000FFF7A5B9D3E90520121AB2F5805F28BFCA
:1088E0004FF48052D3E903159208012A014438BF9E
:1088F00001222844FFF794FF50B11128DDD1012354
:108900002372D2E7D3E903021044FFF78BFFF3E7AA
:10891000237C002BC9D10146BDE87040022000F045
:1089200009B800BFE833002000340020FC330020E9
:10893000D833002038B5831E012B45D8234C237A29
:10894000002B41D0022B09D1032830D0204B00222C
:108950001B68E2601A793AB1012A22D0637C7BBBA2
:10896000BDE83840FFF794BFD3E905128D1AB5F57D
:10897000805F94BF521902F580529A619142EDD105
:1089800002284FF0000308BF19462372104B18BF8E
:108990000D211868FFF748FF0E490F48FFF73FF910
:1089A000DCE71A6901321A615B699A42E7E7E3681A
:1089B0000133082B01D8E360D0E70023E360DFE751
:1089C000BDE8384002F086BD38BD00BFE833002066
:1089D00000340020FC330020D833002000F0FD03D9
:1089E000012B08D1044B00225A74421E50425041C0
:1089F0001874FFF74DBF7047E833002033DF70472E
:108A000070B5224C05460121204602F0CBFEBFF393
:108A10005F8F264638B9042D0AD01D4B1A781AB13B
:108A2000BFF35F8F206070BD1A4A157001221A7063
:108A3000194C184D636828787BB90238012813D87F
:108A4000BFF34F8F1549164BCA6802F4E062134317
:108A5000CB60BFF34F8F00BFFDE71B68984788B11D
:108A6000204602F09FFBE5E702F044FD08B1FFF766
:108A7000C5FF4FF080430122C3F80025BFF34F8F9D
:108A800020BFFDE7BFF35F8F3060CCE710340020DC
:108A90000D3400200C3400200434002000ED00E0F0
:108AA0000400FA05A0DF7047A1DF7047ADDF704713
:108AB000B3DF704710B50446408800F01FFCA0806B
:108AC0002046BDE8104000F0A9BD30B587B005468E
:108AD0000C4618220021684618F0F0FC072368466F
:108AE0008DF80030ADF802500294FFF7E3FF07B0B5
:108AF00030BD000030B587B0054618220021684619
:108B000018F0DCFC4FF6FF739D42ADF802501AD00E
:108B1000284600F008FB0B2804461DD005D8A0B15C
:108B200021462846FFF7D1FF05E0112805D043F282
:108B300002039842F4D1002200E00122074B2846AC
:108B40001978FEF7D1FF07B030BD0E2368468DF8C7
:108B50000030FFF7AFFFEEE70F23F7E71B340020ED
:108B6000FFF7C8BF024B034918780022FEF7DABFAF
:108B70001D340020798B02002DE9F0433D4F89B070
:108B800039780446FEF798FF064600286BD1204648
:108B900000F018FB0828014622D006D888B1062824
:108BA0004BD02046FFF791FF09E043F202039842C1
:108BB00005D043F20143984258D01128F1D1012346
:108BC00046E03146182202A818F078FC102302A8CB
:108BD0008DF80830ADF80A400126FFF76BFFEEE78D
:108BE00001A8FFF765FF012533464FF002080DF19C
:108BF0000609BDF80420AA421FD902AA2946204628
:108C0000CDE90289FFF752FFB8B9BDF8062001355A
:108C100033B942F60523D21A53425341ADB2E8E7C5
:108C200042F602118A42F9D10DF102020392A9B271
:108C300002AA2046FFF73AFF30B1204600F05EFB63
:108C400000F0DAFA002303E0BDF80220002AF4D095
:108C50001A46094B20461978FEF746FF3246397806
:108C60002046FEF741FF09B0BDE8F0832046FFF73C
:108C700041FFA4E71E3400201D34002013B5044634
:108C800000F03CFB00236A46092100F051FE052854
:108C900005D1044B012219782046FEF725FF02B0CA
:108CA00010BD00BF1934002008B5084B08491878DA
:108CB0000022FEF737FF024630B9064B0649187806
:108CC000BDE80840FEF72EBF08BD00BF1C340020E1
:108CD000258D020019340020DD8C020013B504221A
:108CE00004460021684618F0E9FB0C4A42F6A62328
:108CF0001068ADF800300190012301AA69462046B2
:108D00008DF80230FFF7CEFE28B91A46044B2046F4
:108D10001978FEF7E9FE02B010BD00BFA41B0400E5
:108D20001834002030B5012187B005461C4802F0F8
:108D300039FD0446BFF35F8F00BB284600F0AEF953
:108D4000112801461CD005D860B12846FFF7BDFEAA
:108D5000002405E0862815D043F202039842F4D19E
:108D6000224601E0012402460E4B28461978FEF700
:108D7000BBFE1CB9BFF35F8F094B1C6007B030BD51
:108D80000122F1E718222146684618F097FB0623D6
:108D900068468DF80030ADF80250FFF78BFEDFE734
:108DA000143400201C34002038B503780446A3B9DD
:108DB0004088FFF79FFE6588284600F0F1F928B14A
:108DC000064B012219782846FEF78EFE6088FFF7D1
:108DD00055FFBDE83840FFF767BF38BD1D340020A0
:108DE00037B50378082B044630D1427A72BB057A36
:108DF000072D1BD0082D2DD0012D27D16A462946DD
:108E0000808800F085FF08BB019B1B78F3B1A08828
:108E100000F0A2FA4FF6FF73984217D0114B2A4682
:108E20001978FEF761FEFFF79DFE0FE0808800F0E5
:108E300093FA4FF6FF739842044607D00A4B01227B
:108E40001978FEF751FE2046FFF718FFFFF72CFFB9
:108E500003B030BD054B19680129F7D1BFF35F8F0F
:108E60001A60F3E71D3400201C3400201434002065
:108E700073B501230024ADF800300923CDF802407A
:108E80008DF802300B4BADF8064022460E4619789D
:108E90000546FEF729FE084B08492846A64208BFAA
:108EA0001946019100F02AFA2246694600F0ACFD0D
:108EB00002B070BD19340020A81B0400AC1B0400D4
:108EC00070B503888488502B86B0054637D00DD8FE
:108ED000352B47D0362B62D03E4B3F4918780022C5
:108EE000FEF720FEFFF73EFE06B070BD522B22D0EB
:108EF000542BF1D118220021684618F0DFFA112313
:108F000020468DF80030ADF8024000F0F7F9ADF8DA
:108F1000040000F071F9314B204619780022FEF769
:108F2000E3FD2F4B204600221978FEF7DDFD684651
:108F3000FFF7C0FDD0E72046FFF7DCFDCCE7037B61
:108F4000012BC9D1827A012AC6D1018942F60213C6
:108F50009942C1D1234B20461978FEF7C5FDFFF792
:108F6000A3FEB9E7204E20463178FEF7A5FD002884
:108F7000B2D0002231782046FEF7B6FDEA883ABB2F
:108F8000AB89012B24D1E9892046FFF78DFDF8B983
:108F90001A46164B20461978FEF7A6FD9CE7134E9D
:108FA00020463178FEF788FD002895D031780022E0
:108FB0002046FEF799FDE98851B9EB89012B03D1D1
:108FC000297C003118BF01212046FFF751FF83E7BC
:108FD0000021F9E71B340020618B02001E340020C1
:108FE0001D3400201C340020183400201A340020C6
:108FF000AFDF7047B1DF7047B2DF7047B3DF704754
:1090000010B50446808800F0A7F960802046BDE8CE
:10901000104000F005BB0000F0B5184B184C93E869
:10902000030089B06E4686E803004FF6FF7720887C
:10903000B8421CD00022314600F0E6FC0546C0B123
:109040001822002102A818F039FA2388ADF80C3054
:10905000112D0CD0862D0CBF0623072302A80EBFAE
:109060008DF808308DF808300495FFF7C9FF09B076
:10907000F0BD208800F018FD2080D8E7B01B040068
:1090800020340020044B1A884FF6FF739A4201D017
:10909000FFF7C2BF704700BF203400202DE9F7431F
:1090A000804600F02BF94FF6FF739842064637D002
:1090B00001224FF003096B4608213046571C00F08F
:1090C0002BFEBFB2054630BB01990A46032342F886
:1090D000049B06314046FFF78FFF044648B93246ED
:1090E0000821304600F0A3FE0446204603B0BDE848
:1090F000F0830C280DD0052800D12C4608213046DD
:1091000000F06AFE002818BF03243A46002DD2D191
:10911000EBE70125F2E7072814BF04460C24E4E737
:1091200043F20204E1E72DE9F341804600F0E6F85E
:109130004FF6FF73984217D10024032526460127D6
:109140002B46224631464046FFF754FF042820D0E4
:10915000082823D00B281DD115F002030FD18EB99A
:10916000A4B902B0BDE8F0816A46082100F0D0FD44
:109170000028E1D1019B9E1D9C881D68DFE7012529
:109180000027DDE703251C461E46F9E70325344684
:10919000F6E71120002F08BF0B20E2E70020F9E7D7
:1091A0001FB50DF10703039300F0A8F802AA0121EF
:1091B00000F0AEFD20B9039B187805B05DF804FB04
:1091C0000020FAE738B504460A48FFF717FF70B9E0
:1091D000084B43F203054FF6FF7219882046FFF74C
:1091E00007FFA84204D11A8801321A80F3E703204E
:1091F00038BD00BF2234002013B5074A044692E868
:1092000003006B4683E8030000221946204600F065
:10921000FBFB02B010BD00BFB81B040046DF704767
:10922000421E00F10F0312F8010F10B99A42FAD151
:1092300070470120704708B570B171B103780A78A2
:10924000534013F0FE0F08D106220131013018F00F
:109250001BF9B0FA80F0400908BD0020FCE72DE9B9
:10926000F04700F101084F1C06460D4600F11109B8
:1092700001F1110A10223946404618F005F904465A
:10928000E0B94046FFF7CCFF18B13846FFF7C8FFFA
:10929000044651464846FFF7CEFF737C03F0FC03BB
:1092A000042B04D06B7C03F0FC03042B02D1201CA4
:1092B00018BF012000F00100BDE8F0870024E8E7B6
:1092C00030B585B004460D4600F068FB02AA0DF1EA
:1092D0000601072000F06AFB10B94FF6FF700BE0A3
:1092E000BDF80630AB42F1D003992046FFF7B7FF37
:1092F0000028EBD0BDF8060005B030BD132810B52E
:10930000044602D94FF6FF7010BDFEF7ADFB0028F2
:10931000F8D00A206043014B185AF5E724340020A6
:10932000132838B504460D4602D943F2020038BD71
:10933000FEF79AFB0028F8D006480A2303FB040036
:1093400050F8023F2B608388AB808379AB7100209B
:10935000EDE700BF243400204FF6FF7398422DE95B
:10936000F04106460CD00C4F00244FF00A0808FBD1
:1093700004F3A5B2DB5BB34205D00134142CF6D163
:109380004FF6FF7504E02846FEF76EFB0028F4D088
:109390002846BDE8F08100BF24340020038843B98B
:1093A000821C00F10A0312F8010B10B99A42FAD19B
:1093B00070470120704710B50446FFF7EFFF58B122
:1093C00022880B889A4208D108220231A01C18F08A
:1093D0005BF8B0FA80F0400910BD0020FCE71FB533
:1093E000044600F0DBFA02AA0DF10601072000F0A6
:1093F000DDFA10B94FF6FF7007E0039920464631B9
:10940000FFF7D9FF18B1BDF8060004B010BD0399ED
:1094100020462A31FFF7CFFF0028E4D0F3E7000011
:1094200013289FBF0A235843014B1952704700BFAE
:109430002434002038B50546FFF78EFF0446284641
:1094400000F0D4FC38B9132C05D80A236343024A30
:109450004FF6FF71D15238BD2434002030B58DB0A5
:1094600014460D4600F110030DF1FF3213F8011DF3
:1094700002F8011F9842F9D10D22002104A818F02A
:109480001DF82B788DF81F306B788DF81E306846EC
:10949000AB788DF81D30FFF7C1FE9DF82F3023709B
:1094A0009DF82E3063709DF82D30A3700DB030BD47
:1094B00030B5037803F0FE03042B85B004460D4657
:1094C00018D1411C032201A817F0EDFF0322211D32
:1094D00003A817F0E8FF02AA03A92846FFF7BEFF7A
:1094E000032202A901A817F0CFFFB0FA80F04009CB
:1094F00005B030BD0020FBE730B50388102B93B0DA
:1095000052D1041D0FCC07AD0FC50FCC0FC594E889
:10951000070012AC85E8070014F8283D03F0FE03AD
:10952000062B4BD000F03AFA9DF820305B08012B57
:109530003CD9022B42D101AA0DF10201072000F013
:1095400035FA00283AD0029920460131FFF7B0FFE2
:109550000028F0D005E0029920461131FFF76BFE9C
:1095600020B3BDF80230BDF81C1016480A224A4349
:1095700085188352AA1C0898C5F80200A588A0790E
:10958000958090714FF6FF7293420DD012ACADF8FA
:109590000830002304F8443D2046ADF8061000F0E2
:1095A00041F82046FFF700FC13B030BD01AA0DF1D1
:1095B0000201072000F0FAF90028CCD14FF6FF7322
:1095C000D1E700BF24340020F8B5074D074F064609
:1095D00000242B78A34200DCF8BD57F82430304635
:1095E00098470134F5E700BF03350020F43400202C
:1095F00010B5074B1B7804464BB1FFF77DFF2046A3
:1096000001F0D0F92046BDE81040FFF759BC10BD6D
:109610000235002008B1FFF7D7BF7047FFF7D4BF6E
:10962000FFF7D2BFFFF7D0BF2DE9F04F87B0CDE9EC
:1096300000232F4B1B7882468946002B55D04FF6CE
:10964000FF7000F031FA0423ADF80A300DF1100B71
:1096500003AB002505935A460DF10A030621044683
:109660000395049500F064F907283AD04FF6FF7689
:10967000B0464FF0FF37F0B1052825D04FF6FF7305
:109680009C4230D1A0452AD0A6420CBF0520002024
:10969000BAF1000F01D0AAF80080B9F1000F01D093
:1096A000C9F80050009B03B11E80019B03B11F60ED
:1096B00007B0BDE8F08F039BAB4224BFA0461D4618
:1096C000BB423CBF26461F46204600F0EDF90DF197
:1096D0000A035A460621044600F02AF9CBE7052082
:1096E000D6E70520E4E70320E2E70820E0E700BF33
:1096F0000235002008B500231A4606490648FFF740
:1097000093FF28B1431F58425841044B187008BDBD
:109710000120FAE7EC340020003500200435002059
:10972000F0B5044687B08088FFF716FE2378608086
:10973000083B032B20D8DFE803F002213166637A6F
:109740005BB9404A116851B1E068814207D11360AA
:109750003D4AA1881180E3600EE0012B0CD13B4B08
:109760001B784BB1384BA2881B889A4204D1237ACC
:10977000062B01D1FFF7BEFF204660E0637A002B85
:10978000FAD1304A11680029F6D0E0688142F3D15D
:109790002F4913600A68013A0A60DCE72D4F3B78D5
:1097A00073B90125294B1B7833B1274BA2881B883D
:1097B0009A4201D1FFF79EFF002DDDD107B0F0BD29
:1097C0004FF6FF7000F070F94FF6FF7398420546B0
:1097D000E7D100F06BF9A8420646E2D10025182235
:1097E000294668463D7017F069FE0C2320468DF827
:1097F0000030ADF80460ADF80260FFF7E5FE6846A2
:10980000FFF7E2FECEE7134B1A78002AB4D000210E
:1098100018226846197017F051FE0D238DF800309C
:109820004FF6FF73ADF80430ADF80230A368029331
:109830002046237B8DF80C30FFF7C6FE6846FFF705
:10984000C3FEBBE7083500200035002004350020AA
:10985000EC340020F0340020012804D0043805281E
:109860008CBF0020012070474FF6FF73438000F04B
:10987000D9B973B504460D4616460021082268463C
:1098800017F01CFEA5F58041A4F580406B463246DA
:1098900089B280B2FEF742FF002814BF05200020E5
:1098A00002B070BDF0B5214D8DB00021082201A895
:1098B000297017F003FE4FF6FF7000F063FB4FF6C0
:1098C000FF770446BC4211D0A4F58046B6B201AA87
:1098D00003A93046FEF73CFF0A2809D03046FEF7C0
:1098E000F7FE082806460BD101232B700DB0F0BD02
:1098F000204600F0EBFA204600F044FB0446E1E786
:10990000002EF3D0182200210DEB020017F0D6FD37
:1099100007238DF8183006A80123ADF81C400896DF
:109920008DF82430FFF7A0FFE0E700BF14350020DA
:10993000F0B5FF2887B004460D4617461E462BD8C3
:109940000846FFF789FF38B303AA2046FFF791FFC7
:1099500018B10524204607B0F0BD01A903A8FEF701
:1099600065FE04460028F4D1019BBD705D883D80F2
:10997000029926B9796003A8FEF77CFEEAE73688EB
:109980007868AD00AE4228BF2E46324617F08BFDF8
:10999000B542F0D90C24DDE70724DBE708220021DB
:1099A000014817F08BBD00BF0C350020F0B587B023
:1099B00007460E461546FFF74FFF0446F8B1A7F5D8
:1099C0008040104A03A980B2FEF7B6FE18B1002409
:1099D000204607B0F0BD01A903A8FEF727FE002826
:1099E000F5D1019BAF705A882A80029A6A609B88E1
:1099F00003F58043338003A8FEF73CFEE8E701242B
:109A0000E6E700BF0C35002030B5FF2887B00346DD
:109A10000C46154635D889780846FFF71DFF80B3F8
:109A2000A3F58042ADF80020A1F58042ADF80220F8
:109A30006268019222880292184603AAFFF719FF72
:109A40000528694603A808D1FEF736FE0728044614
:109A50000CD005D870B1032409E0FEF731FEF5E71C
:109A6000082801D00E28F6D1112400E086242046D3
:109A700007B030BD002DFAD0294603A8FEF774FECA
:109A8000F5E70724F3E74FF6FF7000F007BAFF2869
:109A900008B505D800F008FAFFF704FF002008BD5C
:109AA0000720FCE700F026BA00F052BA00F06ABACC
:109AB0000A68084B70B50C25032A01D9002006E07E
:109AC00005FB02F4E65A864202D10A60181970BDFD
:109AD0000132F1E72835002073B502AC002344F8C9
:109AE000043D0E4605462146FFF7E2FF38B1837874
:109AF000B34206D1837A9B0703D143680BB902B006
:109B000070BD019B0133019321462846ECE710B557
:109B10000446FFF705FE204600F020FF2046FFF731
:109B2000B1FA2046BDE81040FFF75AB970B50F4EA4
:109B300004460025237AAB420FD84FF6FF732380EB
:109B4000A370FF236372A37A03F0FD036FF3000396
:109B5000A37200232372636070BD617A2944C9B285
:109B6000304600F02EFA0135E4E700BF183500203A
:109B700013B50023CDE9003304468378417A2748A2
:109B80008DF8023000F004FAF0B1237AA2788DF853
:109B9000022003EB83039B00ADF80030531E0190BD
:109BA000072B08D8DFE803F0120707070712041491
:109BB0001423ADF80030221D69462088FFF724FFEA
:109BC00007281DD008D8A8B1032019E00123F0E729
:109BD000838809339B08ECE7112813D08628F3D13A
:109BE000A37A03F0FD0343F00103A3720C4B01229F
:109BF0001A7005E0A37A60F3410360F30003A372D7
:109C000002B010BDA37A43F002036FF30003A37206
:109C1000034B01221A700020F2E700BF1835002024
:109C2000153500202DE9F047374AC16886B0054652
:109C300000230C24174604FB03204668B14203D0DE
:109C40000133042BF7D100202B78304E092B10D094
:109C5000132B50D0082B01D0002406E06C7A002C86
:109C6000FAD10028F8D0FFF761FF2846FFF74FFF31
:109C70000BE06C7A002CEFD100283ED0837A446050
:109C800043F00203837201233370337883B30025DA
:109C900035704FF00C084FF0010A08FB05739A7AF3
:109CA000C2F340030BB9D20729D586F800A003B947
:109CB0002CB308FB05794846FFF75AFFF8B14FF679
:109CC000FF738628ADF80230B9F80030ADF80430E3
:109CD00017BF072306238DF80030029018BF00231A
:109CE00068460CBF8DF800308DF80C30FFF70FFF81
:109CF00006B0BDE8F0870124B7E70446B5E70135B3
:109D0000042DCAD1F4E700BF283500201535002006
:109D10000023FFF70DBE00002DE9F04180460E46FE
:109D200014461F46002B4ED0CB1F012B4ED8531E7E
:109D3000032B4BD8FFF7D0FE054610BBFF214FF693
:109D4000FF70FFF7C9FE0546C8B1A0F80080867015
:109D50006B7AFF2B1AD121461E4800F04AF9FF28E2
:109D600068722DD14FF6FF732B80AB7AA87003F089
:109D7000FD036FF30003AB7200232B726B601120A5
:109D800022E0037AA342E3D00F201DE04FF0000849
:109D90002C72697A0F4800F0FBF8C8B104EB840418
:109DA0002401A4B2A408BE7078603C80B8F1000F12
:109DB00004D0082E02D1A400063C8480002003E0D9
:109DC0004FF00108E4E70E20BDE8F0810720FBE733
:109DD0000320F9E71835002008B5FFF77DFE18B11C
:109DE000FFF7A4FE002008BD0520FCE737B502AC54
:109DF000002344F8043D05462146FFF759FE30B9DB
:109E00002846FFF744FE50B1072808D006E08178C5
:109E10002846FFF7E1FF20B1052802D0032003B058
:109E200030BD019B0133019321462846E5E7CB1F56
:109E3000012B70B506460C46154601D9072070BDAA
:109E40001046FFF72FFE0028F8D021463046FFF7D6
:109E500043FE28B105808470BDE87040FFF788BEDE
:109E60000520ECE710B54FF6FF7304469C42084608
:109E70000AD14FF48071FDF70CFF84B2B4F5807FF6
:109E800009D14FF6FF7406E0FF2CFAD82146FDF702
:109E9000DFFE0028F5D1204610BD00000149FFF784
:109EA000E1BF00BF583500204FF6FF73984210B550
:109EB000044606D00449FFF7D5FF231A58425841FB
:109EC00010BD0020FCE700BF78350020FF2810B54A
:109ED000044609D801460548FDF7C8FE2146044856
:109EE000BDE81040FDF7C2BE10BD00BF58350020D0
:109EF00078350020FF28014602D80248FDF7C0BE91
:109F00000020704758350020FF28014602D802483B
:109F1000FDF7B6BE00207047783500204FF6FF737E
:109F2000984270B518BF441C0E4614BFA4B200245A
:109F3000A5B2FF2D02D94FF6FF7506E02146304647
:109F4000FDF79EFE01340028F2D0284670BD0000C7
:109F500070B50B490A4EFFF7E1FF4FF6FF75044657
:109F6000AC4201D1204670BD2046FFF7CDFF00284E
:109F7000F8D020463146FFF7D1FF0446F0E700BF96
:109F8000583500200149FFF7C9BF00BF78350020D0
:109F900038B50C46054608B9002038BD0368002BCB
:109FA000FAD040680028F7D0FF29F5D0BFF35F8FC3
:109FB000FDF766FE0028EFD0EB68286803FB04007D
:109FC000EBE738B50D46044690B1036883B14068AD
:109FD00070B1FF290CD0BFF35F8FFDF751FE38B190
:109FE0006068BFF35F8F2946BDE83840FDF73EBE8D
:109FF00038BD2DE9F0418846064618B9FF242046B1
:10A00000BDE8F0810368002BF8D04368002BF5D041
:10A010000027FF24B368FDB2AB42EFD92946706830
:10A02000FDF716FEBFF35F8F40B9FF2C08BF2C462B
:10A030002D1B01354545E2D00137EBE7FF2C07D159
:10A04000FF24F9E721463046FFF7BBFF0134E4B2B5
:10A05000A542F7D8F4E77EDF70477FDF704785DFE2
:10A06000704786DF704710B504464088FFF746F911
:10A07000A0802046BDE8104000F040BC10B586B07E
:10A08000044618220021684617F018FA042368468F
:10A090008DF80030ADF80240FFF7E5FF06B010BDC7
:10A0A00030B587B005460C4618220021684617F0E7
:10A0B00005FA072368468DF80030ADF80250029487
:10A0C000FFF7D1FF07B030BDF0B587B004460F46AB
:10A0D00016460021182268461D4617F0EFF90323A3
:10A0E0008DF80030094BADF80240002219788DF848
:10A0F00008702046ADF80A608DF80C50FDF7F4FCAE
:10A100006846FFF7B0FF07B0F0BD00BFC52D0020C7
:10A110007FB502238DF800300388ADF80230437913
:10A120008DF8091013F0040F14BF012302236846B1
:10A130008DF80830FFF797FF07B05DF804FB0000CB
:10A1400070B5154B0E4686B014460A46197805467A
:10A15000FDF7CAFCF6B1114B221C197818BF012279
:10A160002846FDF7C1FC631E5A425A410C4B284653
:10A170001978FDF7B9FC18220021684617F09EF9FE
:10A18000012368468DF80030ADF802508DF8084084
:10A19000FFF769FF06B070BDC52D0020C72D002058
:10A1A000C62D00202DE9F041154B0D4619780446C7
:10A1B0001646FDF781FC0146F0B1124B2046197896
:10A1C000FDF77AFC002804F580704FF0070180B29B
:10A1D00014BF01270227FFF7FFFD014620B1052824
:10A1E00002D02046FFF75CFF33462A463946204618
:10A1F000BDE8F041FFF768BF33462A46F7E700BFE6
:10A20000C72D0020C62D00202DE9F0418AB00F4651
:10A2100090460446FDF732FC20220646002102A8A3
:10A2200017F04CF9012E1FD1364B00221978204629
:10A23000FDF75AFC002F5DD02046FFF75FF84FF680
:10A24000FF73984215D100253B78DB0725D42E4BB0
:10A25000CDF814800993012E51D102AB3A4629461C
:10A260002046FFF7FAFE26E0002E45D143F2020019
:10A2700021E0012EE7D1234D20462978FDF71CFC73
:10A280000028E0D12046FFF7F9FE29782046FDF7A7
:10A2900013FC0028D7D18525D6E7852DDBD004F522
:10A2A00080706B460122072180B2FFF735FD11282F
:10A2B00001D018B103200AB0BDE8F0810146502258
:10A2C000019817F0FBF8019B1E700199CDF81480DE
:10A2D00001F13403029301F1180306934B1C079319
:10A2E0001131094B09932046FFF71AF80028B2D024
:10A2F0000820E0E78525B0E7002F9DD1852502AB3A
:10A300000022ACE7C42D00209835002073B5054627
:10A310000E461446FDF7B2FB01284AD002284CD164
:10A3200056B931462846FFF796FE0428044600D168
:10A330001124204602B070BD284B224619782846C9
:10A34000FDF7D2FB2846FEF7D9FF4FF6FF73984280
:10A3500020D0FCB96A460721FFF7DAFC044678BB37
:10A36000019890F84430DB072ED500F134042246E2
:10A3700004F112012846FFF772FE044602E0112C98
:10A3800018BF03240022B4FA84F149092846FFF7D4
:10A39000D7FECEE731462846FFF75DFE3378042826
:10A3A00014BF0446112413F0010F14BF012202222E
:10A3B000E9E7002EB5D13446BBE743F20204B8E723
:10A3C0000528DCD11124DDE700F118042A30FEF75E
:10A3D000E5FF0028CBD10B24D4E700BFC42D00201B
:10A3E0002DE9F0470388113B88B004460D2B6AD84D
:10A3F000DFE813F00E0069002300440069006900E3
:10A4000069006900B2003D016900690069009600B9
:10A41000037A85883D2BAD4B2846197841F23D04DF
:10A4200018BF4FF48854FDF747FB00284BD000229B
:10A4300021462846FFF7B6FE45E08088FDF71EFB63
:10A440000128014608D1237AA08813F0010F0CBF20
:10A4500002220122FFF774FE34F8045F1822002163
:10A4600002A817F02BF8043405238DF80830ADF856
:10A470000A50049402A8FFF7F6FD24E000F110064C
:10A480003046FEF7ACFF4FF6FF7398420546A088B2
:10A490001CD1FEF733FF054600220121A088FFF7FB
:10A4A0004FFE4FF6FF739D4214D10025002329462D
:10A4B0001A46A088FFF7D5FD0828014603D010B33F
:10A4C000A088FFF7EDFD08B0BDE8F0872946FEF74C
:10A4D000A7FFE1E702AA07212846FFF719FC002899
:10A4E000E3D1A37ED907E0D5039D95F84430DA0780
:10A4F00001D53435DAE7314605F14600FEF75BFF5A
:10A500000028F6D1D1E7A37EDB07DCD5002DDAD118
:10A51000A0882B4641F206022946FFF7D5FDD2E777
:10A520006A4B80881978FDF7C7FA01460028CAD11E
:10A53000182202A816F0C2FF12238DF80830A38853
:10A54000ADF80A30237AC3F30002C3F340038DF859
:10A5500010208DF811308DE75C4B067A87881978CA
:10A56000002E77D100F1040832463846FDF7BCFAD8
:10A57000617A11F0040103D14046FFF7C9FDA2E75B
:10A5800007F580791FFA89F96B46012207214846B1
:10A59000FFF7C2FB054628B101463846FFF780FDAC
:10A5A0003146E9E73846FEF7A9FE4FF6FF739842B9
:10A5B000044682462ED101460198FEF781FE5045A1
:10A5C0000446064676D0DFF80CA101463846FEF771
:10A5D00027FF9AF800103846FDF76EFA0646C8B90C
:10A5E0003846FFF74BFD9AF800103846FDF764FA3D
:10A5F00001460028C0D0072122464846FFF717FC35
:10A60000014648B90121B7E721463846FEF708FF61
:10A610000126F0E72E46EEE786280DD1182200210C
:10A6200002A816F04BFF062302A88DF80830ADF8FB
:10A630000A70FFF718FDE5E73846FFF731FD002106
:10A640004046FFF765FD002E3FF43DAF2046FEF784
:10A65000F1FE38E7447A384604F00304FDF72CFA9B
:10A6600000283FF430AF224631463846E2E6184B28
:10A6700080881978FDF720FA054600287FF423AF7B
:10A68000A088FDF70BFA0146A08819B9012341F211
:10A69000060242E70D4B2A461978FDF725FA0223F8
:10A6A0008DF80830A388ADF80A308DF810508DF879
:10A6B0001150DFE6FFF7E7F9B0420446A4D10421C8
:10A6C0003846FFF7EDFC294656E700BFC52D0020B0
:10A6D000C72D0020C42D002070B586B006460C465C
:10A6E000154600211822684616F0E8FE3046ADF8FF
:10A6F0000260FEF703FE0D2CADF8040019D1032310
:10A700008DF800309DB12B7813F0010F0CBF0223A0
:10A7100001238DF8083000238DF80C3041F201132D
:10A72000ADF80A306846FEF775FF06B070BD02232B
:10A73000EFE707238DF80030002302948DF80C30EA
:10A74000F0E730B587B005230D4614468DF800308C
:10A75000ADF80200FEF7D2FDADF804006846CDE981
:10A760000254FEF757FF07B030BD00002DE9F0435B
:10A77000054687B0904699460E46D9B92C4BCDE98F
:10A7800004111B68039306AA12E907006B4683E8CD
:10A7900007001A4631462846FFF7D3FF254B009F96
:10A7A0001B7843B99DF809302BB90526304607B010
:10A7B000BDE8F0830027424639462846FFF7A6FD4C
:10A7C000A0F111035A425A411B4B044619782846FE
:10A7D000FDF78AF90B2C03D004D80CB1082C17D143
:10A7E000264616E0112C05D043F202039C42F7D016
:10A7F0000D2CF4E7114B324619782846FDF774F911
:10A800000F4B424619782846FDF76EF90026CDE732
:10A810000326B9F1000FC9D034F00803C6D0112CBB
:10A82000C4D03A4621462846FFF756FFBEE700BF90
:10A83000E4350020E1350020CA2D0020C92D00207C
:10A84000C82D002070B5094B19780446FDF734F97E
:10A85000074B054619782046FDF72EF92A46014692
:10A8600001232046BDE87040FFF780BFC82D0020BF
:10A87000C92D002070B51B4B86B00026CDE90466BB
:10A880001B68039306AA04460D4612E907006B46AF
:10A8900083E807001A4629462046FFF752FF124B6D
:10A8A00000991A682046FFF7AFFCA0F111035A4245
:10A8B0005A410E4B054619782046FDF715F90C4B09
:10A8C000324619782046FDF70FF935F0080306D017
:10A8D000112D04D0009A29462046FFF7FDFE06B050
:10A8E00070BD00BFE4350020D8350020CB2D0020FE
:10A8F000CA2D00200021FFF7BDBF000010B503786E
:10A90000052B044606D0122B0AD02046BDE8104085
:10A91000FEF780BE81684088BDE81040FFF7AABFFF
:10A920000C4B1B689BB10C4B017A1B7803F00102A6
:10A9300091420CD8417AC3F34003994294BF00215D
:10A940000121012300226088FFF710FFDDE70121CC
:10A95000F7E700BFE4350020DC35002008B50378B8
:10A96000083BDBB20B2B14D8012202FA03F340F6AA
:10A970000F0213420DD0074B074918780022FDF74C
:10A98000D1F8064B064918780022BDE80840FDF7CB
:10A99000C9B808BDCB2D0020F5A80200CA2D0020A3
:10A9A00045A8020008B5FFF71BFD074B07491878BB
:10A9B0000022FDF7B7F8064B064918780022BDE8DB
:10A9C0000840FDF7AFB800BFCB2D0020F5A802006E
:10A9D000CA2D002045A8020072DF704773DF704760
:10A9E00074DF7047F0B52F4CA3B005460E461746EE
:10A9F00000211022204616F061FD2B482B4A0378D7
:10AA00002B49C3EB431C62440133614403F001034F
:10AA1000A2601F2203702160A280A28100213C223B
:10AA200004A816F04BFD062301AA8DF813300E92F0
:10AA300001233C22002113A88DF80230ADF820300C
:10AA40008DF83C30ADF80050CDF824D0ADF804506E
:10AA5000ADF80870039616F031FD0223221D21681F
:10AA60008DF84C3004A800F0CBF908B115F040F98E
:10AA7000104AA16813A800F0C3F908B115F038F91D
:10AA80000D4A08490D48FFF7A7FF082804D1002206
:10AA900004490A48FFF7A0FF08B115F029F923B0CF
:10AAA000F0BD00BF28360020E835002038360020F1
:10AAB000E935002034360020D02D0020CC2D002098
:10AAC000B0F5202F0AD20A23B0FBF3F310B1002B0C
:10AAD00008BF0123034A9381916070474FF6FF73CB
:10AAE000F8E700BFD02D002008B5064B01211878EB
:10AAF000FFF774FF08B115F0FBF80020BDE808402F
:10AB000004F078BDCC2D002008B5054B1878FFF770
:10AB100067FF18B1BDE8084015F0EAB808BD00BFEE
:10AB2000CC2D002076DF70477ADF70477CDF7047DE
:10AB300015F0DEB803F0AABF07B503784BB93B2187
:10AB40004088FFF7EFFF08B303B05DF804EB15F0A2
:10AB5000CFB8012B1AD1134B1B685B0416D5124BCF
:10AB60001B68032B12DD2F21104816F077FD80B1F2
:10AB70002F210E4816F072FD411C0D4B0D4AD3F8E3
:10AB8000043500920420682206F01CF803B05DF83A
:10AB900004FB5C21054816F061FD08B15C21E8E783
:10ABA0000249EAE7482E0020442E0020DE1B040064
:10ABB000001001400E1C040013B500F01FFC08B18A
:10ABC00015F096F802AC002344F8043D012021461C
:10ABD00000F042FB08B115F08BF8204600F0A6FB10
:10ABE00008B115F085F802B010BD00001FB504AC27
:10ABF0001123104804F80C3D16F028FD0D4982B2CF
:10AC00002046FFF793FF08B115F072F808220DEB0C
:10AC10000200002116F052FC074A4FF0C87302A848
:10AC2000CDE90223FFF780FF08B115F061F804B009
:10AC300010BD00BFC81B04007800C80010B58AB062
:10AC400001AC08220021204616F038FC124A4FF0D1
:10AC5000C873CDE9012300211C2203A816F02EFCA5
:10AC60004FF4803340F6CD41CDE9041303238DF832
:10AC700018300023ADF81A308DF81C30074B0893BC
:10AC800003A8074B0394099300F052FD08B115F097
:10AC90002FF80AB010BD00BF7800C80039AB020021
:10ACA00031AB020070B5EFF3108672B60C4A9468AF
:10ACB00001239CB993600B4B0B4DD3F880102940B6
:10ACC0001160C3F88050D3F8841051604FF0FF3208
:10ACD000C3F88420047006B962B670BD0370FAE749
:10ACE0008859002000E100E0FC06FFBD10B5084BCC
:10ACF0009A685AB150B9EFF3108172B6054A1C68D0
:10AD000014605C685460986001B962B610BD00BF01
:10AD10008859002000E100E06DDF704779DF70475F
:10AD20007DDF704764DF70472DE9F74F0C9CBDF85D
:10AD300034B02788002580468A4691462E46B8F8CA
:10AD40000020B2420BDC35B12288013AD21B92B20C
:10AD5000FF2A39D8DA55002003B0BDE8F08FD8F8C3
:10AD6000042052F82600019000220DF1030101A8F1
:10AD7000FFF7D8FF0028EFD19DF803204A4521D1E5
:10AD80002288002D14BF0020022002EB090101449B
:10AD9000594519DC3DB9013292B2228003F802A074
:10ADA00022880132228022880DF103011A4401A871
:10ADB000FFF7B8FF0028CFD121889DF803200A446F
:10ADC000228001250136BAE70C20C5E72DE9F341C1
:10ADD000089CBDF824501746CDE9004502220646DE
:10ADE000FFF7A2FF48B9102239463046CDE90845A1
:10ADF00002B0BDE8F041FFF797BF02B0BDE8F081B7
:10AE00002DE9F04F00231688138090F82D3085B07F
:10AE100007460D46144653B3082E01D80C2026E1F0
:10AE200002A8FFF779FF002840F02181138808224B
:10AE3000CA54238801339BB21B222380CA54208822
:10AE4000013080B2208006220DF10901284416F05D
:10AE50002AFB23889DF8082006339BB212F0FE02DD
:10AE600018BF01222380EA54238801332380BB7852
:10AE7000FBB123880433B342D0D802A8FFF74EFFBA
:10AE8000002840F0F48023880322EA542388013309
:10AE90009BB219222380EA542388BDF8082001338D
:10AEA0009BB2E9182380EA54120A4A7023880233BD
:10AEB0002380FA789AB12388D91CB142AED80221F6
:10AEC000E954238801339BB201212380E95423886C
:10AED0000B449BB22380EA5423880B4423807A6876
:10AEE000AAB12388D91CB14298D8022192F9002036
:10AEF000E954238801339BB20A212380E954238833
:10AF000001339BB22380EA542388013323803B8999
:10AF1000002B40F0A0803B8A5BB1CDE900462B4678
:10AF20000722032107F11000FFF750FF002840F02F
:10AF30009E803B8B5BB1CDE900462B461522142148
:10AF400007F11800FFF742FF002840F090803A6AAE
:10AF5000002A40F08F80D7F82480B8F1000F30D05D
:10AF6000B8F804302188981C8A1C0244B2423FF68B
:10AF700055AFFE283FF652AF03336B54238801339D
:10AF80009BB2FF222380EA54238801339BB22380A3
:10AF9000B8F80020EA54E918120A4A7020880230F2
:10AFA00080B22080B8F804205AB1D8F808100029DF
:10AFB0006AD0284416F077FA2388B8F8042013449E
:10AFC000238097F82C30002B40F0998038780028A7
:10AFD0004DD03B88012B57D021888A1CB2423FF6C6
:10AFE0001DAF012805D17B7802330B449E42FFF44C
:10AFF00015AF023E761A04A9B6B221F8086DA8185A
:10B00000FFF78EFE98BB3978BDF80820022900F0C2
:10B01000BB807B78934202D3B24240F2B3800129D5
:10B0200040F0B4809BB29E42C0F0B080ADF80830D2
:10B030000821BDF80830FE2B3FF6F0AE2288013320
:10B04000AB542288013292B22280A9542288134440
:10B05000238000200BE0CDE900462B46062202218A
:10B0600007F10800FFF7B2FE00283FF454AF05B027
:10B07000BDE8F08FB4F800C00CF10603B3423FF610
:10B08000CDAE1188052901D80720F0E76FF4486E8E
:10B0900001EB0E039BB24FF27D3E7345F4D953880A
:10B0A000052BF1D96FF44860181880B27045EBD9C0
:10B0B0004FF6FF70814203D0834201D09942E3D81A
:10B0C000052305F80C30238801339BB2122123801D
:10B0D000E954238801339BB223801188E954E8188E
:10B0E000090A4170238802339BB223805288EA54B4
:10B0F000E918120A4A702388023323802BE7BB6ABF
:10B10000002BC1D04FF000094FF00C0A4FF0160B86
:10B1100097F82C305FFA89F293427FF657AFB96AFD
:10B120000AFB02F201EB0208B8F80430981CFE2872
:10B130003FF674AE208803332B54238801339BB22F
:10B14000238005F803B0238801339BB223808A5AF9
:10B15000EA54E918120A4A702088023080B220802E
:10B16000B8F804205AB1D8F8081000298CD0284427
:10B1700016F099F92388B8F804201344238009F1C4
:10B180000109C5E7092154E7B242FBD9ADF80860CF
:10B190004EE701600B6843604A68934204BF002396
:10B1A00043607047436843B1026891680B44436051
:10B1B0005268934204BF0023436070474BDF7047DF
:10B1C0001FB50D4C01A8FFF7F9FF70B9214602A881
:10B1D000FFF7DFFF039B002BF4D00198D3E9002198
:10B1E000904702A8FFF7DEFFF4E7052801D014F02E
:10B1F0007FFD04B010BD00BF3C1C040060DF704741
:10B2000069DF704761DF704730B5114B1B78A9B01B
:10B21000E3B1104D94240DF1020103A8ADF80240F2
:10B22000FFF7F0FF70B9294601A8FFF7B2FF029BB4
:10B23000002BF0D003A8D3E90021904701A8FFF725
:10B24000B1FFF4E7052801D014F052FD29B030BD5C
:10B2500076360020481C0400F0B5074685B00D4640
:10B2600000295ED0304B0B600C22002101A816F0A3
:10B2700025F9012606232A68ADF8083001A9202007
:10B280008DF804708DF80660FFF7BAFF0C220021DC
:10B2900001A816F013F900242A688DF8056001A9A9
:10B2A00040208DF806408DF80740FFF7A9FF0C22DB
:10B2B000214601A816F002F945232A68ADF80630A8
:10B2C00001A923208DF80470FFF79AFF0C22214674
:10B2D00001A816F0F3F82A688DF8046001A9304639
:10B2E000FFF78EFF0C22214601A816F0E7F84FF475
:10B2F000B0632A68019301A9A120FFF781FF0C2206
:10B30000214601A816F0DAF89DF804302A68334384
:10B3100001A9A0208DF80430FFF772FF204605B088
:10B32000F0BD0E20FBE700BFA02D002008B5FFF701
:10B3300065FF10B9014B01221A7008BD7636002056
:10B3400010DF704711DF704713B50446094968469E
:10B35000FFF71FFF019808B902B010BDD0E9003116
:10B360002046984718B16846FFF71CFFF2E7112006
:10B37000F2E700BF581C040013B5044607496846AD
:10B38000FFF707FF019B0BB902B010BD2046D3E9C0
:10B39000002190476846FFF705FFF3E7701C0400A3
:10B3A000064B9A6822B11A6822F480021A6070472C
:10B3B000034B4FF48002C3F8802070478859002067
:10B3C00000E100E00B4991F816335A09EC231341D0
:10B3D000DB0706D5084B9A683AB94FF480030B6037
:10B3E000704742F2020014F083BC1A6842F48002F3
:10B3F0001A60704700E100E088590020F7B5184F47
:10B400003C785CBB174E012520463570FFF79CFF4A
:10B41000112820D02046FFF7AFFF134B186801908A
:10B4200002A800F8054DFFF73DFC104901A8FFF701
:10B4300087FF0446B0FA80F0400938709DF8030099
:10B44000FFF754FC3CB90A4B34701C70FFF7BAFF8D
:10B450002846FFF791FF204603B0F0BD0824FAE725
:10B460007836002077360020541C040051B80200C2
:10B4700079360020F7B5154F3B7813B3144E0120F1
:10B480003070FFF761FF11284FF000051BD002203C
:10B49000FFF772FF02A800F8015DFFF703FCFFF75A
:10B4A00051FF04469DF807003D70FFF71FFC2CB9C3
:10B4B0003470FFF775FF0320FFF75EFF204603B0EF
:10B4C000F0BD0824FAE72C46F8E700BF78360020E4
:10B4D00077360020054B1B7833B1054B1B780BB139
:10B4E000FFF7C8BFFFF78ABF0820704777360020F4
:10B4F00078360020014B1878704700BF783600205E
:10B5000007B508496846FFF744FE019B13B903B02D
:10B510005DF804FBD3E9002090476846FFF742FE40
:10B52000F3E700BF641C0400FFF7EABF75DF704754
:10B5300076DF70477ADF70477BDF7047034B1A88EE
:10B5400082420CBF18460020704700BF983600208A
:10B55000024B9B6903B11847704700BF7C3600203F
:10B5600037B585B22846FFF7E9FF034670B1164CA0
:10B57000017A227B91420BD200F10A012846FFF7A3
:10B58000D5FFE8B1112801D0FFF7E2FF03B030BDCD
:10B59000237C0022027243B13B212846FFF7C8FFFB
:10B5A00030F0080301D0FFF7D3FF6369002BEDD023
:10B5B00000228DF80420ADF8065001A89847E5E771
:10B5C0001A7A01321A72E1E77C36002013B50B4675
:10B5D000497A0F4C024669B9D4E901101C7A002C53
:10B5E00018BF0146586813F0AFF808B1FFF7B0FF75
:10B5F00002B010BD002119726369002BF8D001213F
:10B60000ADF806008DF8041001A89847F0E700BFD8
:10B610007C36002030B583880588B3F5FA7F24BFD7
:10B620006FF4F9729C184A8838BF002495420CD8F0
:10B630004088904209D38A88A24206D303F2F310CD
:10B64000904234BF0020012030BD0020FCE7000004
:10B6500070B50388112B014648D002D8102B1ED09C
:10B6600070BD122B52D0502BFAD12F4BC288DB89E0
:10B670009A42F5D1038A022BF2D186883046FFF731
:10B680005DFF05460028EBD001F1120000F0D6F86E
:10B6900030BB686813F09CF80028E1D009E0C37B58
:10B6A000012BDDD14FF6FF70FFF748FF054620B9AB
:10B6B0000420BDE87040FFF74BBF8E881B4A068010
:10B6C000002303721368C5F80A300A3053684360D8
:10B6D0001031FFF79FFF144B6872DB89002BBFD13D
:10B6E00029463046BDE87040FFF770BF8088FFF7FD
:10B6F00025FF04460028B3D0406813F069F808B16C
:10B70000FFF726FF4FF6FF732380A9E786883046B0
:10B71000FFF714FF05460028A2D008310A30FFF7D2
:10B7200079FF6872DCE700BF7C360020AC36002071
:10B73000F8B5064650B305460FCD154F3C460FC42D
:10B7400095E8070084E807003068124B3B60B8B109
:10B75000FFF7F0FEC8B931680A681A604A685A6093
:10B760000D480E4A4FF6FF7303800D4B40F8043F1F
:10B77000002112F0D7FF002814BF0320002004E0AE
:10B780001846FFF7D9FE0028EAD0F8BD0E20FCE7E6
:10B790007C360020AC3600209836002061B50200CF
:10B7A000B436002050E8002F0B4640E8003C9CF0E7
:10B7B000000FF7D11046704750E8002F42EA01030E
:10B7C00040E8003C9CF0000FF6D11046704750E86E
:10B7D000003F43EA010240E8002C9CF0000FF6D144
:10B7E0001046704750E8003F03EA010240E8002C91
:10B7F0009CF0000FF6D11046704750E8002F02EB86
:10B80000010340E8003C9CF0000FF6D11046704761
:10B8100050E8003F03EB010240E8002C9CF0000FD1
:10B82000F6D11046704750E8003FA3EB010240E814
:10B83000002C9CF0000FF6D110467047007800F005
:10B84000010070470078C0F3400070470620704741
:10B8500030B5754B14461B6841F20102904287B027
:10B860000D4603F480437ED01ED8012845D0002B1E
:10B870005DD06E4B1B68002B59DD2F216C4815F0F5
:10B88000EDFE002800F0C4802F21694815F0E6FE87
:10B89000411C684B684AD3F80435009201957B221D
:10B8A000012005F08FF942E044F20102904200F0DD
:10B8B000858044F202029042D9D1002B37D05B4BF5
:10B8C0001B68002B33DD2F21594815F0C7FE0028D7
:10B8D0006BD02F21564815F0C1FE411C554B2288D4
:10B8E000D3F8043503926268CDE90152534A0092BD
:10B8F00001206C2205F066F919E0C3B14B4B1B68BF
:10B90000002B14DD2F214A4815F0A8FE10B32F217B
:10B91000474815F0A3FE411C464B494AD3F804356D
:10B920000092CDE901546022012005F04BF94FF05F
:10B93000A0434FF4F012C3F81825C3F80C25EFF319
:10B94000108372B64DF6AD6C3E4A1378002B68D169
:10B9500007B030BD5C21364815F080FE08B15C218F
:10B96000D6E73349D8E7002BE1D0304B1B68002BDA
:10B97000DDDD2F212E4815F071FE68B12F212C48F6
:10B9800015F06CFE411C2B4B2F4AD3F80435009266
:10B99000CDE901546322C7E75C21254815F05EFE1E
:10B9A00008B15C21EBE72249EDE75C21204815F066
:10B9B00055FE08B15C218DE71D498FE7002BB6D0FD
:10B9C0001A4B1B68002BB2DD2F21194815F046FEDB
:10B9D000A8B12F21164815F041FE411C154B2268D5
:10B9E000D3F8043504926268CDE90252A26801924C
:10B9F000164A00920120772205F0E4F897E75C21CF
:10BA00000B4815F02BFE08B15C21E3E70849E5E798
:10BA10005C21074815F022FE08B15C2135E7044996
:10BA200037E730BF91E700BF482E0020442E0020AA
:10BA30007C1C040000100140201D0400E01C0400D8
:10BA4000A41C0400E82D0020BE1C0400FF1C040000
:10BA500007B50023ADF800300146054B01936A4657
:10BA600044F20200FFF7F4FE03B05DF804FB00BFF0
:10BA70000528040001461022014815F014BD00BF3E
:10BA8000D436002010B50B4C0B490822204615F087
:10BA90000AFD0822A018094915F005FDE3790422E2
:10BAA00062F30713E371237A022262F3871323728E
:10BAB00010BD00BFD436002060000010A4000010AC
:10BAC00000487047D4360020064B002203F58071F1
:10BAD0005A805A6003F8082B8B42F9D1024B1A6046
