:020000021000EC
:10B00000007D0020E5B2010025B3010027B3010057
:10B010000000000000000000000000000000000030
:10B0200000000000000000000000000029B3010043
:10B0300000000000000000002BB301002DB3010050
:10B040002FB301002FB301002FB301002FB3010074
:10B050002FB30100000000002FB301002FB3010047
:10B060002FB301002FB301002FB301002FB3010054
:10B070002FB301002FB301002FB301002FB3010044
:10B080002FB301002FB301002FB301002FB3010034
:10B090002FB301002FB301002FB301002FB3010024
:10B0A0002FB301002FB301000000000000000000DA
:10B0B0000000000000000000000000000000000090
:10B0C00010B5064C2378002B07D1054B002B02D07E
:10B0D000044800E000BF0123237010BD6C1900205C
:10B0E00000000000DCB30100084B10B5002B03D0BA
:10B0F0000749084800E000BF07480368002B00D15B
:10B1000010BD064B002BFBD09847F9E7000000006C
:10B1100070190020DCB30100681900200000000055
:10B12000164B002B00D1144B9D46402292029A1AD6
:10B13000924600218B460F461348144A121A00F01B
:10B1400031F90F4B002B00D098470E4B002B00D04D
:10B1500098470020002104000D000D48002802D06F
:10B160000C4800E000BF00F0F9F82000290000F0D2
:10B1700013F800F0DDF8C04600000800007D002054
:10B1800000000000000000006C1900208819002059
:10B190000000000000000000F8B5F020A02400230B
:10B1A000012103254004E4050A009A40024204D02C
:10B1B0001A00C132FF32920015510133202BF3D116
:10B1C000A024F022A123E4055204DB00E250002277
:10B1D0000125094BE250094B1D438023FA276426C1
:10B1E000074A9B03A158BF014B40A3503800013EC2
:10B1F000A847002EFAD1F0E70C050000D0B30100FB
:10B200000405000010B52D4B1A78012A0FD12C4AE5
:10B21000126812070BD12B4AE0241168F0220800B3
:10B220001040214227D128490968114226D01A78B6
:10B23000012A0DD122490968090709D1F0202149C5
:10B2400009680140402903D11F49096801422ED0F5
:10B250001B68DBB2012B0DD1194B1B681B0709D1F1
:10B26000184B1A68F0231A40A02A0FD1164A126808
:10B270001A420ED010BD3028D5D0D8E71349144A51
:10B2800011608021134A09021160D0E7D02AF1D160
:10B29000ECE7114B1A68012A03D1C0220F4B1A6048
:10B2A000E8E70F4A1A601A68012AFCD1F5E7C121C4
:10B2B0008020C900C0054250CAE7C046E00F00F038
:10B2C000E40F00F0E80F00F0EC0F00F0DFFF07C024
:10B2D00004050040186C004000EC064014EC0640E9
:10B2E0007593000003210A4802680A430260094876
:10B2F00002680A4302600849084A094B9B1A03DDA9
:10B30000043BC858D050FBDCFFF77CFFFFF708FF79
:10B310002405004054050040E8B301000019002056
:10B320006C190020FEE7FEE7FEE7FEE7FEE7FEE71A
:10B33000084B10B50400002B02D0002100E000BF34
:10B34000054B1868836A002B00D09847200000F056
:10B3500031F8C04600000000D8B3010070B50026E7
:10B360000C4D0D4C641BA410A64209D1002600F020
:10B3700023F80A4D0A4C641BA410A64205D170BDE7
:10B38000B300EB5898470136EEE7B300EB58984707
:10B390000136F2E7601900206019002060190020D2
:10B3A0006419002003008218934200D1704719707D
:10B3B0000133F9E7FEE7C046F8B5C046F8BC08BC63
:10B3C0009E467047F8B5C046F8BC08BC9E4670471C
:10B3D0000438FDD87047000000190020000000006C
:08B3E00040FDFF7F01000000A9
:10B3E8000000000000000000000000000000000055
:10B3F8000000000000000000000000000000000045
:10B408000000000000000000000000000000000034
:10B418000000000000000000000000000000000024
:10B428000000000000000000000000000000000014
:10B438000000000000000000000000000000000004
:0CB44800E9B00100C1B0010000000000EC
:040000031000B2E552
:00000001FF
