:020000021000EC
:10F0000000FD002035F601005DF601005FF601000D
:10F0100061F6010063F6010065F6010000000000E2
:10F0200000000000000000000000000067F6010082
:10F0300069F60100000000006BF601006DF60100AA
:10F040006FF601006FF601006FF601006FF6010028
:10F050006FF601006FF601006FF601006FF6010018
:10F060006FF601006FF601006FF601006FF6010008
:10F070006FF601006FF601006FF601006FF60100F8
:10F080006FF601006FF601006FF601006FF60100E8
:10F090006FF601006FF601006FF601006FF60100D8
:10F0A0006FF601006FF601006FF601006FF60100C8
:10F0B0006FF601006FF60100000000000000000084
:10F0C0006FF601006FF601006FF601006FF60100A8
:10F0D0006FF601006FF601006FF6010000000000FE
:10F0E0000000000000000000000000000000000020
:10F0F0000000000000000000000000000000000010
:10F1000000000000000000000000000000000000FF
:10F1100000000000000000000000000000000000EF
:10F1200000000000000000000000000000000000DF
:10F1300000000000000000000000000000000000CF
:10F1400000000000000000000000000000000000BF
:10F1500000000000000000000000000000000000AF
:10F16000000000000000000000000000000000009F
:10F17000000000000000000000000000000000008F
:10F18000000000000000000000000000000000007F
:10F19000000000000000000000000000000000006F
:10F1A000000000000000000000000000000000005F
:10F1B000000000000000000000000000000000004F
:10F1C000000000000000000000000000000000003F
:10F1D000000000000000000000000000000000002F
:10F1E000000000000000000000000000000000001F
:10F1F000000000000000000000000000000000000F
:10F2000010B5054C237833B9044B13B10448AFF360
:10F2100000800123237010BD203200200000000078
:10F2200010F701000C4B43B10C480D4910B5AFF37A
:10F2300000800C48036823B910BD0A48036833B93D
:10F240007047094B002BF7D0BDE810401847064B1C
:10F25000002BF5D0184700BF0000000010F7010098
:10F26000243200201C32002000000000154B002B2F
:10F2700008BF134B9D46A3F5803A00218B460F46ED
:10F280001348144A121A00F02BFA0F4B002B00D02F
:10F2900098470E4B002B00D0984700200021040017
:10F2A0000D000D48002802D00C48AFF3008000F09C
:10F2B000F3F92000290000F013F800F0D9F900BF9D
:10F2C0000000080000FD0020000000000000000019
:10F2D000203200203C32002000000000000000002E
:10F2E0004FF0A0434FF40032C3F81825234A2448B6
:10F2F0001168244CD3F8042582F40032C3F80425A5
:10F30000224600BF00BF00BF00BF00BF00BF00BF5C
:10F3100000BF81422FD000BF00BF00BF00BF00BFB1
:10F3200000BF00BF00BF00BF00BF00BF00BF00BFE5
:10F3300000BF00BF00BF00BF00BF00BF00BF00BFD5
:10F3400000BF00BF00BF00BF00BF00BF00BF00BFC5
:10F3500000BF00BF00BF00BF00BF00BF00BF00BFB5
:10F3600000BF00BF00BF00BF00BF00BF00BF00BFA5
:10F3700000BF00BF00BF013AC3D1BBE7B0310020DE
:10F380000024F40020A10700094B1B78062B0CD1A8
:10F39000084B1B681A0708D1074B186800F0F000EB
:10F3A000A0F130035842584170470020704700BF19
:10F3B000E00F00F0E40F00F0E80F00F00C4B1B78BA
:10F3C000062B10D10B4B1B681A070CD10A4B18687F
:10F3D00000F0F003302B08D000F0E000A0F1400373
:10F3E000584258417047002070470120704700BFC5
:10F3F000E00F00F0E40F00F0E80F00F008B5FFF7B1
:10F40000DDFF28B1774B784A1B68C3F304231360F0
:10F41000FFF7BAFF10B1754B754A1A60FFF7CEFFC0
:10F4200028B1744B744A1B68C3F342331360FFF76F
:10F43000ABFF20B1714AD36823F08073D360FFF72C
:10F44000BDFF40B14FF080430022C3F80C21C3F848
:10F450001021C3F83825FFF797FF10B1684B03223E
:10F460001A60FFF791FF40B1664B05221A60012236
:10F470009A6700229A603F225A60634B1B78062BE2
:10F4800009D1624B1B68190705D1614B1B6803F05A
:10F49000F003502B5ED0FFF791FF28B15D4B5E4A21
:10F4A0001B6803F04F031360FFF788FF48B14FF06C
:10F4B0008043D3F80024D20744BF6FF00102C3F8A1
:10F4C0000024564AD2F8883043F47003C2F88830DA
:10F4D000BFF34F8FBFF36F8F4FF01023D3F800228D
:10F4E000002A03DBD3F80432002B2FDA4C4B012225
:10F4F000C3F80425D3F80024002AFBD04FF01022D3
:10F500001521C2F80012D3F80024002AFBD04FF0D6
:10F5100010231522C3F80422414B1A46D3F80014D5
:10F520000029FBD00021C3F80415D2F80034002BC9
:10F53000FBD0BFF34F8F39493A4BCA6802F4E062FF
:10F540001343CB60BFF34F8F00BFFDE7364B374A05
:10F550001A6008BD4FF08052354BD2F80414C3F83E
:10F560002015D2F80814C3F82415D2F80C14C3F8E7
:10F570002815D2F81014C3F82C15D2F81414C3F8B7
:10F580003015D2F81814C3F83415D2F81C14C3F887
:10F590004015D2F82014C3F84415D2F82414C3F847
:10F5A0004815D2F82814C3F84C15D2F82C14C3F817
:10F5B0005015D2F83014C3F85415D2F83414C3F8E7
:10F5C0006015D2F83814C3F86415D2F83C14C3F8A7
:10F5D0006815D2F84014C3F86C15D2F84424C3F867
:10F5E000702558E7240300104035014074C00740DF
:10F5F0000DF0ADBA440200103C050040F0ED00E013
:10F60000A005004010560040E00F00F0E40F00F0AD
:10F61000E80F00F058020010E40E004000ED00E09A
:10F6200000E001400400FA05B03100200090D00352
:10F6300000C000400649074A074B9B1A03DD043B04
:10F64000C858D050FBDCFFF7D9FEFFF70FFE0000D3
:10F650001CF70100B031002020320020FEE7FEE759
:10F66000FEE7FEE7FEE7FEE7FEE7FEE7FEE7FEE772
:10F6700008B5074B044613B10021AFF30080054BDA
:10F680001868836A03B19847204600F031F800BF3C
:10F69000000000000CF7010070B50D4E0D4CA41BCE
:10F6A000A4100025A54209D10B4E0C4C00F022F805
:10F6B000A41BA4100025A54205D170BD56F8253025
:10F6C00098470135EEE756F8253098470135F2E7BF
:10F6D000143200201432002014320020183200208E
:10F6E00002440346934200D1704703F8011BF9E737
:10F6F000FEE700BFF8B500BFF8BC08BC9E467047E7
:10F70000F8B500BFF8BC08BC9E467047B431002075
:04F7100000000000F5
:08F7140058FBFF7F010000001B
:10F71C000090D0030000000000000000000000007A
:10F72C0000000000000000000000000000000000CD
:10F73C0000000000000000000000000000000000BD
:10F74C0000000000000000000000000000000000AD
:10F75C00000000000000000000000000000000009D
:10F76C00000000000000000000000000000000008D
:10F77C000000000025F2010001F201000000000071
:040000031000F635BE
:00000001FF
