:020000022000DC
:1060000000FD0320299203005192030053920300E4
:1060100055920300579203005992030000000000BC
:106020000000000000000000000000005B92030080
:106030005D920300000000005F9203006192030084
:106040006392030063920300639203006392030070
:106050006392030063920300896B02006392030062
:106060006392030063920300917C03006392030038
:106070006392030063920300639203006392030040
:1060800063920300618B03006D3A03006392030087
:10609000318C0300639203004D7002006392030091
:1060A0006392030063920300639203006392030010
:1060B00063920300639203000000000000000000F0
:1060C00063920300639203006392030063920300F0
:1060D00063920300639203006392030063920300E0
:1060E00063920300639203006392030000000000C8
:1060F00000000000639203000000000063920300B0
:10610000000000000000000000000000000000008F
:10611000000000000000000000000000000000007F
:10612000000000000000000000000000000000006F
:10613000000000000000000000000000000000005F
:10614000000000000000000000000000000000004F
:10615000000000000000000000000000000000003F
:10616000000000000000000000000000000000002F
:10617000000000000000000000000000000000001F
:10618000000000000000000000000000000000000F
:1061900000000000000000000000000000000000FF
:1061A00000000000000000000000000000000000EF
:1061B00000000000000000000000000000000000DF
:1061C00000000000000000000000000000000000CF
:1061D00000000000000000000000000000000000BF
:1061E00000000000000000000000000000000000AF
:1061F000000000000000000000000000000000009F
:1062000010B5054C237833B9044B13B10448AFF3F0
:1062100000800123237010BDF02E0020000000003C
:1062200014C6030008B5034B1BB103490348AFF381
:10623000008008BD00000000F42E002014C60300FA
:10624000154B002B08BF134B9D46A3F5803A002148
:106250008B460F461348144A121A14F087FB0F4B53
:10626000002B00D098470E4B002B00D09847002001
:10627000002104000D000D48002802D00C48AFF3A7
:10628000008014F025FB2000290000F051F914F0E3
:106290000BFB00BF0000080000FD03200000000011
:1062A00000000000F02E00204C54002000000000F0
:1062B0000000000041DF7047F0B54FF0A0434FF4FD
:1062C00000520024C3F80825C3F80C458268EBB0DF
:1062D000117D92F90D300691D17C0591917C04914C
:1062E000517C0391117C0291D17B01910178009145
:1062F00009AE054652682849304614F0F7FB274B93
:106300001B685B0425D5264B1B68032B21DD6978B0
:10631000244B8029186828BF8021234629AC8B4252
:1063200022D100222F21204804F8132014F00EFC63
:1063300040B32F211C4814F009FC411C1B4B1C4A84
:10634000D3F804350092CDE90164572204200EF001
:10635000F3FA4FF0A0434FF40052C3F80C2500228B
:10636000C3F808256BB0F0BD6A68D25C170902F06B
:106370000F02C75D04F81370875C04EB430201331E
:106380005770CCE75C21084814F0E0FB08B15C21B1
:10639000D0E70549D2E700BFBAB30300642E00205E
:1063A000602E0020682E002099B3030000100140E9
:1063B00001B4030007B503781C2B2ED1184B1B68C2
:1063C0005B0416D5174B1B68032B12DD2F211648D3
:1063D00014F0BCFBC0B12F21134814F0B7FB411CD3
:1063E000124B134AD3F80435009204208C220EF08D
:1063F000A3FA0322C8214FF4F03000F057FB03B09A
:106400005DF804EB00F068BA5C21074814F09EFBCD
:1064100008B15C21E0E70449E2E703B05DF804FB62
:10642000642E0020602E002099B30300001001406C
:10643000E2B2030010B5044600214FF4F03004EB43
:10644000840400F029FB620032214FF4C030BDE823
:10645000104000F02BBB00F05BBB00001FB52E4CC2
:106460002268520417D52D4B1B68032B13DD2F21F7
:106470002B4814F06BFB00283CD02F21284814F047
:1064800065FB411C274B284AD3F8043500920420B1
:10649000A9220EF051FA03A803F08AFD23685B04D9
:1064A00019D51E4B1B68032B15DD2F211C4814F03A
:1064B0004DFB40B32F211A4814F048FB411C194BE7
:1064C000BDF80C20D3F804350192184A009204203C
:1064D000AD220EF031FA00F01BFB00214FF4F0303A
:1064E00000F0DAFA0422C8214FF4F03000F0DEFAAE
:1064F00004B010BD5C210A4814F028FB08B15C21EF
:10650000BCE70749BEE75C21054814F01FFB08B152
:106510005C21D0E70249D2E7642E0020602E0020E3
:1065200099B303000010014068B3030082B3030075
:1065300000B58DB012F0C6FC18B1704ACB2112F034
:106540009EFE6F4E00F0F4FA04216E4A4FF4804034
:106550000EF0D6F93368590418D56B4B1B68032B22
:1065600014DD2F21654814F0F1FA002800F0AA800C
:106570002F21624814F0EAFA411C644B644AD3F8B4
:10658000043500920420CF220EF0D6F900F0C0FBB3
:106590000021242203A814F0E9F901238DF80C301E
:1065A00007238DF80F3006238DF8143059495A4BC4
:1065B000079303A800F05AF918B1504ABC2112F011
:1065C0005EFE56480CF0ECF94023554A5548002130
:1065D00011F008FA33685A0417D54B4B1B68032B8C
:1065E00013DD2F21454814F0B1FA002873D02F2174
:1065F000424814F0ABFA411C444B4B4AD3F80435E3
:1066000000920420D5220EF097F9424B1B787BB9FB
:10661000464D0FCD03AC0FC495E8030084E803009A
:1066200003A800F0D3F918B1344AE62112F027FE8E
:10663000092010F0CFFF3B4811F0D4F8122139485F
:1066400011F0EAF8044650B139491222113014F021
:1066500082F9FF2323712146324811F018F909F01D
:10666000C3FA00F0C1FA00F075F818B1234AF0211E
:1066700012F005FE33685B0416D5234B1B68032B11
:1066800012DD2F211D4814F061FA68B32F211B4839
:1066900014F05CFA411C1D4B264AD3F804350092D5
:1066A0000420F2220EF048F900214FF4F03000F0FF
:1066B000F3F90222C8214FF4F03000F0F7F9FFF7A8
:1066C000F9FDFCE75C210D4814F040FA08B15C21AB
:1066D0004FE70A4951E75C21084814F037FA08B13E
:1066E0005C2185E7054987E75C21044814F02EFA10
:1066F00008B15C21CBE70149CDE700BF99B30300A6
:10670000642E0020D5480300602E002000100140B8
:10671000FBB20300E82F0020B5630200B96202005B
:106720000C2F00204C2F002026B30300B8B203002A
:10673000D0B2030040B3030010B504460EF07EFE55
:1067400038B123780E2B04D10020BDE810400CF0A6
:106750007DB910BD0CF0C4B870B5837DC27D86B024
:1067600043EA0223ADF814300446012305A80E467F
:10677000ADF8163003F0E0FB0546002847D104AA27
:106780002146208A03F0CEFD054600283FD10DF1B9
:1067900012033246BDF81010E08A03F0C7FF054629
:1067A000002834D1217ED4F8120001F001010BF051
:1067B000E5FC10B1784604F055FDBDF8120006F076
:1067C0008BFF054618BB184B1B681B031DD5174BC9
:1067D0001B68062B19DD2F21154814F0B7F9C8B135
:1067E0002F21134814F0B2F9411C227E114B02F004
:1067F0000102D3F804350292D4F8122001920E4A15
:1068000000920720C3220EF097F801F027F92846DE
:1068100006B070BD5C21064814F098F908B15C21FF
:10682000DFE70349E1E700BF642E0020602E00206F
:1068300031B403000010014050B4030008B510F05B
:106840003FF901F026FD03F0FFFABDE808400BF028
:1068500055BA07B501A803F0ABFBBDF80400003042
:1068600018BF012003B05DF804FB000073B50E46AD
:10687000054660B30BF0C0FF044628BB03F03EFBA7
:1068800002F072FA286906F0F7FE0446E0B92B7FA1
:106890000193AB69009301466B690E484FF6FF7296
:1068A00007F070F9044678B92B6A03B1984710F0E5
:1068B0001FF803F037FA01F043FA08B101F0CEF8FF
:1068C000FFF7C7FF06B13070204602B070BD0E243E
:1068D000FAE700BFEC2F002008B50EF0AFFD20B1A5
:1068E0000020BDE808400CF0B1B80248BDE80840FF
:1068F0000CF04EB8A02D002010B50749074807F04E
:1069000037FD024638B90649064809690123BDE842
:10691000104007F046BD10BD603000207C330020E1
:10692000483000204832002010B50378023B082B85
:106930002CD8DFE803F01B05102B2B2C2B2B380059
:106940001E4B5B6813B3007A00B31D4A012111701E
:10695000BDE810401847194B9B68BBB1184A117825
:10696000A1B100211170BDE810401847154B1A78ED
:10697000124B42B9DB6813B111490A709847BDE860
:106980001040FFF7B9BF1B68002BECD110BD0B4BBB
:106990000D485969102207F049FD0028F6D0BDE8DE
:1069A000104012F05FBCD0E90210FFF7D5FE08B12D
:1069B00012F058FC034B01221A70E7E74830002020
:1069C00044300020453000204832002070B5164A7F
:1069D000164E5168044686B0106803AB03C3118994
:1069E000927A19809A700FCC35460FC594E803004F
:1069F00085E803007369A3B10D4B00930D4A0E495E
:106A00000E4803AB07F086FC48B90D4808F092FC2D
:106A100001460A4807F098FC08B9FFF76DFF06B079
:106A200070BD0720FBE700BF70B4030048300020B2
:106A300029690200603000207C33002048320020A9
:106A40008030002070B5104C206808B912F00AFCA4
:106A50004FF0A0450D4ED5F8043532685340C5F8C7
:106A600004352368013B236063B9094812F0DAFA60
:106A70003268D5F8043523EA0203064A1268134344
:106A8000C5F8043570BD00BFBC330020C033002002
:106A9000C4330020EC3300204FF0A04311B1C3F801
:106AA0000C057047C3F8080570470000F8B52AB315
:106AB000132923D9124B134D5200013A4FF0A04431
:106AC0001A602860D4F8043518400F4B4FF4FA765A
:106AD000186000274FF40040E0FB01674FF47A7222
:106AE00000233046394613F05FFD00220146074877
:106AF00012F054FA10B92B68C4F80C35F8BD00BF79
:106B0000BC330020C0330020EC330020C43300200D
:106B100008B5054812F086FA044B1A684FF0A043F6
:106B2000C3F8082508BD00BFC4330020C0330020CF
:106B300008B54FF0A04303224FF40051C3F83427A7
:106B4000C3F808154FF48041C3F83827C3F8081577
:106B50004FF40041C3F83C27C3F80815C3F8402799
:106B60004FF48032C3F808250121054A054812F088
:106B700003FA18B1BDE8084012F074BB08BD00BFAD
:106B8000456A02007CB40300124B70B50024124E1B
:106B9000124DC3F87C414FF0A043A15DD3F81025FE
:106BA00001238B40934311D00D49D5F804250B6880
:106BB000981A48BFD01A43F23333984206D9D5F811
:106BC00004350B60074B20461B6898470134042CA2
:106BD000E1D170BD0060004080B4030000100140AE
:106BE000E8330020E433002070B50446CEB000281E
:106BF00064D03C4D2A6852042FD53B4B1B68032BB5
:106C00002BDD3A4B0DAE19680023E25C100902F04F
:106C10000F02085C06F81300885C06EB43020133A0
:106C2000102B5070F1D100232F21314886F82030ED
:106C300013F08CFF002843D02F212D4813F086FF3E
:106C4000411C2C4B2C4AD3F8043501922B4A00925C
:106C50000296412204200DF06FFE2B685B042DD5B7
:106C6000214B1B68032B29DD2F21214813F06EFFD8
:106C700000282ED02F211E4813F068FF411C1D4B09
:106C8000E27BD3F804350B92A27B0A92627B0992D5
:106C9000227B0892E27A0792A27A0692627A0592A1
:106CA000227A0492E2880392A288029222680192D8
:106CB000134A0092042046220DF03EFE4EB070BDF5
:106CC0005C210B4813F042FF08B15C21B5E708498D
:106CD000B7E75C21064813F039FF08B15C21CAE729
:106CE0000349CCE7642E0020602E0020682E00208F
:106CF00084B4030000100140ACB4030001B40300ED
:106D0000BEB4030060DF704769DF70470BF042BE1E
:106D100010B588B000F04AF908B112F0A3FA2B4B75
:106D20000393039B04930C22002105A813F01EFE7D
:106D30000023049A8DF8143005A90120FFF7E4FF21
:106D400008B112F08FFA0C22002105A813F00EFEF4
:106D5000F823049A059305A9A120FFF7D5FF08B1F0
:106D600012F080FA04A8FFF7CDFF039B049A9A4221
:106D700004461CD0164B1B685B0418D5154B1B68CA
:106D8000012B14DD2F21144813F0E0FEA8B12F21B0
:106D9000114813F0DBFE411C104B049AD3F8043564
:106DA00001920F4A00920220A2220DF0C5FD14B1FB
:106DB000204612F057FA08B010BD5C21064813F0C7
:106DC000C5FE08B15C21E3E70349E5E7A02D0020FB
:106DD000642E0020602E0020FEB40300001001404D
:106DE0002EB5030070B5EFF3108672B60C4A9468A6
:106DF00001239CB993600B4B0B4DD3F880102940B5
:106E00001160C3F88050D3F8841051604FF0FF3206
:106E1000C3F88420047006B962B670BD0370FAE747
:106E2000A053002000E100E0FC06FFBD10B5084BB8
:106E30009A685AB150B9EFF3108172B6054A1C68CE
:106E400014605C685460986001B962B610BD00BF00
:106E5000A053002000E100E001600B6843604A6835
:106E6000934204BF002343607047436843B1026804
:106E700091680B4443605268934204BF002343600F
:106E800070474BDF704700001FB50D4C01A8FFF79E
:106E9000F8FF70B9214602A8FFF7DEFF039B002B25
:106EA000F4D00198D3E90021904702A8FFF7DDFF55
:106EB000F4E7052801D012F0D5F904B010BD00BFE9
:106EC00068B5030061DF704730B5114B1B7891B096
:106ED000E3B1104D34240DF1020103A8ADF80240D6
:106EE000FFF7F0FF70B9294601A8FFF7B5FF029B35
:106EF000002BF0D003A8D3E90021904701A8FFF7A9
:106F0000B4FFF4E7052801D012F0ACF911B030BDA0
:106F1000F033002074B5030010DF704713B504464A
:106F200009496846FFF798FF019808B902B010BDFB
:106F3000D0E900312046984718B16846FFF795FF21
:106F4000F2E71120F2E700BF84B5030013B5044651
:106F500007496846FFF780FF019B0BB902B010BDDF
:106F60002046D3E9002190476846FFF77EFFF3E70C
:106F70009CB503000B4991F816335A09EC231341D1
:106F8000DB0706D5084B9A683AB94FF480030B60CB
:106F9000704742F2020012F065B91A6842F48002AA
:106FA0001A60704700E100E0A0530020F7B5184FC9
:106FB0003C785CBB174E012520463570FFF7AEFFCD
:106FC000112820D02046FFF7C1FF134B186801900D
:106FD00002A800F8054DFFF705FF104901A8FFF7CB
:106FE0009BFF0446B0FA80F0400938709DF803001A
:106FF000FFF71CFF3CB90A4B34701C70FFF7BAFF57
:107000002846FFF7A3FF204603B0F0BD0824FAE7A7
:10701000F2330020F133002080B5030065B0020098
:10702000F333002007B508496846FFF715FF019BB9
:1070300013B903B05DF804FBD3E90020904768461C
:10704000FFF713FFF3E700BF90B50300FFF7EABFB8
:1070500038B5837803F003020446032A22D8DFE818
:1070600002F00214191D9B08154A164812681344B1
:107070000268A3600021EAB195685D1B002D16DA55
:10708000D1B91146E160046038BD9B0803EB83036E
:107090005B00E9E79B0864225343E5E79B0841F264
:1070A0007072F9E7784604F0DDF80023DCE711465A
:1070B000D268E0E70029E5D0CC60E260E4E700BFF9
:1070C0000C3400201434002008B5032809D8DFE868
:1070D00000F00D020406064808BD0648FCE7064815
:1070E000FAE7784604F0BEF80020F5E70348F3E736
:1070F00040420F00809698000046C323A0860100FE
:107100002DE9F041574D2B78A3B1574B574E5C6892
:107110000BF09EFE241A3078FFF7D6FF3278544BDE
:10712000001B002A40D14CF2503290423CD91A68E0
:1071300001321A60DFF84881D8F80020002A00F0F8
:1071400087804A4E9378307803F0030383423446B5
:1071500064DD474B97681B68FB1A464F5F43FFF798
:10716000B3FFD8F80030B7FBF0F09F78C7F3010702
:10717000FBB2022B1FD031D8012B47D10A22B0FB22
:10718000F2F302FB1300002840D10BF061FE00F582
:10719000742101F5107137702B78002B50D03248D4
:1071A000BDE8F0410BF02BBE1A683249B0FBF1F09C
:1071B00010441860BEE7337863B96422B0FBF2F381
:1071C00002FB130010BB0BF043FE2B4902230144CA
:1071D0002370E1E7012B19D10A22EFE7337863B975
:1071E00041F27072B0FBF2F302FB130070B90BF0C6
:1071F0002FFE224903230144EAE7012B02D14FF479
:107200001672EFE7022B01D13C22EBE70BF020FED8
:1072100006462078FFF758FF3118BDE70BF018FE3F
:10722000D8F800300446987800F00300FFF74CFFD0
:10723000D8F800309B78C3F3010321183370ABE713
:107240000948012341602B70BDE8F0410BF09EBD61
:107250002B7823B10448BDE8F0410BF0B9BDBDE87F
:10726000F08100BF10340020F433002011340020DE
:107270000C340020A0860100809698000046C323AD
:10728000143400202DE9F341244B1B78032B2AD81A
:10729000DFE803F0021B1F23214A13680133136048
:1072A000204B214E1E4D00221A70B04634683CB16E
:1072B000A3682A6893421AD02A689B1A002B16DB0F
:1072C000FFF71EFF02B0BDE8F081154A13680A33CC
:1072D000E5E7134A13686433E1E7114A136803F5DD
:1072E000BB531033DBE7784603F0BCFFD8E72788B1
:1072F000E368C8F8003002A9002341F8043D38468D
:1073000001F09CFC10B1784603F0ACFF384663688E
:10731000019998472046FFF79BFEC7E711340020EC
:107320000C340020103400201434002010B5084C18
:1073300018220021204613F019FB064B064AA360D1
:1073400000231360054A1360054A137010BD00BF87
:10735000F4330020857202000C3400201434002025
:1073600010340020F8B50F461646044610B978468A
:1073700003F078FF124D0CF015FA2B6800220BB1C8
:10738000A34216D1A17867F3010166F38701A170CA
:107390009BB1DB6882B92B602EB12046FFF758FE07
:1073A0002B689C4201D1FFF7ABFEBDE8F8400CF022
:1073B00039BA1A46DB68E2E7D360002EF5D0ECE775
:1073C000143400200A4B93F8390093F85D2080F0C4
:1073D0000100404280B24AB14FF6FF72904204D0A1
:1073E000586D1B6BC01AC00F70470120704700BF5B
:1073F0001834002038B5154C242303FB0043054600
:1074000093F8393013B9784603F02CFFB4F86030A4
:1074100013B9784603F026FF242202FB054300211E
:1074200083F83910B4F86030013B9BB2A4F86030A7
:107430001BB94FF6FF73A4F8623002FB0544A06A43
:1074400010F021F80023A36238BD00BF18340020DB
:107450002DE9F84F2C4DB5F86030064613B9784643
:1074600003F000FF294C06F57A7B00274FF0010955
:1074700048F2111A637C1FFA87F8C3B1A368A3EB23
:107480000B03002B13DAA3882268A4F110014046F5
:1074900000F0E6FE102827D809FA00F313EA0A0FD5
:1074A00025D11B4A13421ED04046FFF7A3FF2434C8
:1074B000BFB1FFF787FFB5F86030A5F862000BB3E6
:1074C000012802D9784603F0CDFEB5F862302422B7
:1074D00002FB03531B6B9A1B48BFF21AEA60BDE81C
:1074E000F88F0127C6E710B1784603F0BBFE237C76
:1074F000013BDBB22374002BD6D0D4E90232134413
:10750000A360D4E7EB60EAE71834002040340020A1
:10751000A002010010B5064C64220021204613F0A1
:1075200025FA044BA3604FF6FF73A4F8623010BD38
:1075300018340020517402002DE9F0470128064656
:10754000884617469A46BDF8209002D9784603F03F
:1075500089FEB8F1000F02D1784603F083FE17B917
:10756000784603F07FFE98F800305B0702D178463A
:1075700003F078FEBAF1000F02D1784603F072FEF4
:10758000B9F1000F02D1784603F06CFE274C24239A
:1075900003FB064393F8393013B13046FFF72AFF57
:1075A0000BF056FC844697E80F00242505FB0645A2
:1075B00005F1180E8EE80F00C5F828A0A5F82C904C
:1075C00098F80030C3F3020385F8383098F80000CB
:1075D000C3084CF2503003FB0000012385F839301A
:1075E000B4F860306863604401332863A4F8603005
:1075F000FFF7E8FEB4F86230834201D19E4213D116
:107600004FF6FF739842A4F8620002D1784603F067
:1076100029FEB4F862300548242202FB0344216BA2
:10762000BDE8F0470BF0EBBBBDE8F0871834002055
:107630004A09012301F01F0103FA01F150F8223039
:10764000194214BF0120002070474FF6FF72B2EBC1
:10765000104F82B083B215D113F47F4007D003F4EA
:107660004043B3F5004F14BF0020012006E023F093
:107670007F022AB97F3B18BF0123184602B070472A
:107680000346FAE723F03F03C02BECE701289FBF36
:10769000054B382202FB003090F8340094BF00F014
:1076A00001000020704700BFB834002000470000F0
:1076B0004388C3F30B03012B02D9002008707047E5
:1076C000064A12F8331041F0010102F8331002EBC0
:1076D000C3034268D2435A60012070472835002016
:1076E0004388C3F30B0313B1002008707047024BAB
:1076F00082881A80012070477E34002007B5134627
:107700004FF47042ADF804200122ADF806001A7063
:1077100003480A4601A90DF04FFC03B05DF804FBD5
:107720009034002070B51C460B89B3F5BE7F05462A
:10773000164606D3092323602068B0FA80F040097A
:1077400070BDFFF7A3FF28B10C48382303FB0500E9
:1077500083890BB10523EEE73EB982884FF6FF73AC
:107760009A4206D0C2889A4203D00868FFF76DFF9C
:1077700008B90723DFE70023DDE700BFB8340020A6
:10778000784603F06FBD000008B5094B0948002298
:107790001A70094B01221A700DF0FCFB20B107484A
:1077A000BDE808400DF032BE054B187008BD00BFA3
:1077B000B534002090340020B4340020BC2D0020CB
:1077C0007C34002010B50E4C70220021204613F0AE
:1077D000CDF8062200210B4813F0C8F81022002132
:1077E000094813F0C3F84FF0FF31084A61600123E4
:1077F000E260A384E1636264A4F85C3010BD00BF62
:10780000B83400207E34002028350020FFFF02001D
:107810002DE9F04FD5B0044607A80D4604929946CD
:10782000BDF8788102F0C4FB704BBDF81E10049ABD
:10783000382000FB04308789B94205D84FF0100A80
:10784000504655B0BDE8F08FBDF81C10049108AE4D
:10785000002A00F0968002F10C0103C9B2F81EB0B4
:10786000B2F824A0127F86E80300002A00F0998075
:10787000382202FB0434647CFF2C01D15C4B1C7861
:10788000B9F1000F02D1784603F0ECFCB8F1000F1B
:1078900002D1784603F0E6FC0AAB18462422002108
:1078A000059313F063F8504610AA594603F064F9A3
:1078B000059B82460028C3D1049A9C7296E8030077
:1078C0001744AA7ADA72EA7A1A7383E80300EA683C
:1078D0001F8151461846C3F81090A3F814801A620D
:1078E0000BF054F882460028AAD1424C2268920438
:1078F0001AD5414B1B68042B16DD2F213F4813F08E
:1079000025F900284FD02F213C4813F01FF9411CC6
:107910003B4B2A88D3F8043501923A4A009205205D
:107920004FF4CE720DF008F823689B0488D5324BD3
:107930001B68042B84DD2989334B8029186828BFF4
:107940008021002313AC8B4236D100222F212B48FB
:1079500004F8132013F0FAF800283BD02F21274811
:1079600013F0F4F8411C264B284AD3F80435019251
:10797000274A0092029440F29D1205200CF0DCFF91
:107980005EE7B0F804B0C0880593314602F08EFB84
:1079900048BB7288002A3FF451AF4FF6FF7A059B2F
:1079A00066E714466CE75C21144813F0CFF808B181
:1079B0005C21A9E71149ABE76A68D25C160902F0BD
:1079C0000F02865D04F81360865C04EB430201330A
:1079D0005670B8E75C21094813F0B8F808B15C218B
:1079E000BDE70649BFE74FF0050A29E7B834002094
:1079F000DC2D0020642E0020602E00205AB60300EB
:107A00000010014076B60300682E00208AB60300FD
:107A100001B4030030B5012A8DB004460D4604D1EF
:107A2000784603F01FFC0DB030BD022AF8D0032ABF
:107A3000F9D12C22002101A812F098FF11238DF812
:107A4000043002238DF80830E368059301A8236908
:107A50000395069309F06AFBE5E700002DE9F04184
:107A60004E4B1B78002B00F096800BF09BFE4C4B8E
:107A70001B78BBB94B4C23786BB9062201214A48CD
:107A80000DF047FB70B102220125C5800281828082
:107A90000DF06EFB25700024444DDFF80C81264666
:107AA000A1B21EB142480DF0B1FC6CE015F83430C3
:107AB00003F00303032B4FEAC40711D1042241F45E
:107AC000405140460DF025FB002860D0EB195B6863
:107AD000DB4343600DF04CFB7B5D23F002037B55E1
:107AE000002C56D0002EDDD1324C63799B070FD588
:107AF00002224FF480512C480DF00BFB0028D1D00E
:107B0000228882800DF034FB637923F002036371D5
:107B1000294C94F8343003F00303032B16D11422BC
:107B20004FF4005120480DF0F4FA05460028B9D072
:107B300014222146043012F00EFF28460DF018FBE7
:107B400094F8343023F0020384F8343094F86C3025
:107B500003F00303032B16D1142242F20101124851
:107B60000DF0D7FA054600289CD0142213490430A2
:107B700012F0F1FE28460DF0FBFA94F86C3023F079
:107B8000020384F86C30BDE8F0410BF04BBE1126C7
:107B9000A6E7012484E7BDE8F08100BF7C34002023
:107BA000B4340020B5340020903400202835002063
:107BB000CC2D00207E340020B8340020F03400208A
:107BC0004A0901F01F034FF0FF31994050F822306D
:107BD000194009D04B420B4004495943C90E044B8C
:107BE000585C00EB421070471820704731B57C0795
:107BF0003AB603002DE9F04F85B08146924698468B
:107C00000E9F0D4611B9784603F02CFB03AB52468C
:107C100029464846FFF786FD18B9039805B0BDE828
:107C2000F08F69882B884FF6FF72914230D1B3F5FF
:107C3000807F34BF4FF0010B4FF0020B2E895E4462
:107C4000B6B230460FF01DFC044680B36A882B881C
:107C50004FF6FF708242D9B21DD06270120A2170B5
:107C6000A2702A89696804EB0B0012F074FE00967A
:107C70002346524629464846FFF7CAFD039018B9E5
:107C8000B8F1000F00D077B920460FF0FCFBC4E735
:107C90004FF0030BD2E713F47F4F1DBF1B0A237075
:107CA00061702170DDE7C8F800403E80B6E704202F
:107CB000B4E7000038B54388C3F30B03012B044637
:107CC00010D8028A72B91B48382202FB0302D589F8
:107CD000628A012D09D8954204D1174D15F832500A
:107CE000ED0704D40020087038BD012A06D8124DD3
:107CF00015F8321041F0040105F83210382514222D
:107D0000211D05FB030012F026FEA188238A4FF6F1
:107D1000FF729142094A4FF0060101FB03234FF025
:107D200001000BBF9A78DA78013201320CBF9A70E9
:107D3000DA70D9E7B8340020283500207E340020DE
:107D40002DE9F04F87B006AB062243F80C2D012138
:107D500004AA54480DF0A6F9044628B1524B01205C
:107D6000187007B0BDE8F08FBDF81230012B09D0B4
:107D70004E4B1B689B0473D402F066F8FFF704FDBA
:107D8000002052E0BDF81420022AF1D1BDF81020E5
:107D9000022AEDD1464A474913704FF440500DF185
:107DA0000B02FFF7ABFC9DF80B30002BE0D0424BF1
:107DB00042495A791C8022F002025A715C800DF10E
:107DC0000B024FF48050FFF799FC9DF80B30002B0D
:107DD000CED00DF10B023A494FF40050FFF78EFC64
:107DE0009DF80B30EBB1E0B1364FDFF8ECA0B946AF
:107DF0004FF6FF78A346BB89434510D0F88840452D
:107E000005D002F0E9F810B1784603F02BFAFE89AC
:107E1000022E10D1382303FB049383F812B03837B5
:107E20003CB19DF80B000028A2D01F4B01221A7014
:107E300097E70124DFE70AEBC60604360021304647
:107E4000FFF7BEFE18280546E4D0A8B202F012F9EA
:107E500010B1784603F006FA691C1729EFD9D9E763
:107E6000194B1B68002B87DD2F21184812F06EFE7E
:107E700078B12F21154812F069FE411C144B154AA8
:107E8000D3F804350092012040F2E2320CF054FDA8
:107E900072E75C210D4812F059FE08B15C21E9E758
:107EA0000A49EBE7903400207C340020642E002047
:107EB000B5340020B17602007E340020E176020065
:107EC000B57C0200B8340020602E00205AB60300B2
:107ED00000100140A8B50300283500202DE9F04F1F
:107EE00000F114048FB00546204603F095F8814652
:107EF000002876D04FF6FF73ADF832302B7D012B82
:107F000072D10DA802F054F8EB8ABDF834209B1A08
:107F10009BB209934E46554C4FF0000A002E7CD080
:107F2000A788099BFA1A5742574194F82C30E98BDD
:107F300003F0010320460A93FFF77AFB29880B9090
:107F4000A28C68884FF00008904576D34FF0000867
:107F5000C346474B1B689B0425D5464B1B68062B25
:107F600021DD2F21444812F0F1FD002875D02F218A
:107F7000414812F0EBFD411C0B9A404BD3F80435FD
:107F8000CDF818B0CDE904720A9A039234F8062CA1
:107F9000029234F8082C0192394A0092072040F2EC
:107FA00059420CF0C9FC0A9BBBB1B7B10B9BA3B102
:107FB000BBF1000F11D02B7D012B1FFA8AF704D1E2
:107FC000A26A2946384601F03BF8236AA26A03EB0D
:107FD000C80329465B68384698473834BAF1000F21
:107FE00018D00FB0BDE8F08FEB8A04339BB2032B9F
:107FF0000AD90DF13201204602F0B8F840B17846B6
:1080000003F030F9002686E700230646099382E74D
:10801000064680E74FF0010A80E7E08801280AD889
:10802000184BBDF8321003EBC0000430FFF700FB23
:1080300000F0010779E73046FAE7236A03EBC80C42
:1080400033F838308B4203D1BCF80230834202D07F
:1080500008F1010878E7CB467BE75C21064812F07F
:1080600075FD08B15C2183E7034985E7C034002032
:10807000642E0020602E00205AB60300001001403C
:10808000CAB50300283500202DE9F04303681D78A8
:1080900005F0C002402AD1B004460FD003D86AB11F
:1080A0000026354610E0802A00F09D80C02AF7D1D6
:1080B0009A785E78ADB246EA022605E0ADB27F2D31
:1080C00000F08E804FF6FF765A4B1A6812F4005F6C
:1080D000984619D0584B1B68042B15DD2F215748A3
:1080E00012F034FD002800F082802F21534812F056
:1080F0002DFD411C524B534AD3F804350092019593
:10810000F62205200CF018FCE06902F09DF881468B
:10811000A06902F085F84FF6FF739E42ADF8145047
:10812000ADF8166027686BD1FF2D8CBF02230123A9
:108130004FF6FF721F4496420697A38862D1FF2D27
:108140008CBF022201229B1A227A8DF8202062899C
:10815000ADF82220E2680992227C8DF82820628AFC
:10816000ADF82A2062690B9294F820208DF8302017
:10817000626A0D92D8F80020ADF832909BB292045A
:10818000ADF81C30ADF8380027D52B4A1268042A08
:1081900023DD2D4A802B106828BF802300220FACDE
:1081A0009A4231D100232F21244804F8123012F0D2
:1081B000CDFC002835D02F21204812F0C7FC411CEF
:1081C0001F4B224AD3F804350192214A00920294AF
:1081D00040F20D1205200CF0AFFB05A8FFF77EFE64
:1081E00051B0BDE8F0835B7843EA05256AE75C217E
:1081F000124812F0ABFC08B15C2177E70F4979E730
:10820000032395E703229EE7B95C0D0901F00F01F6
:10821000455D04F81250455C04EB420101324D709B
:10822000BEE75C21054812F091FC08B15C21C3E770
:108230000249C5E7642E0020602E00205AB60300D4
:10824000001001401FB60300682E002032B6030064
:1082500001B40300037813B90430FFF715BF70476A
:10826000F0B5064685B014461D4681B17AB173B1AA
:1082700003AB0022FFF756FA10B9039805B0F0BD22
:108280000095234600223046FFF7C2FAF6E70E209B
:10829000F4E708B5FFF796FA00F014FFBDE80840D0
:1082A000FFF772BA2DE9F0410446002800F0BC80C7
:1082B000002900F0B980C3681BB18368002B00F06F
:1082C000B3804FF6FF730B80E3681BB9A368002BE4
:1082D00040F0AC80A388002B40F0AA80574B1B785D
:1082E00013B10F20BDE8F081554DAB78E878C3425B
:1082F00070D1D4E902870026B74240F08E800A8808
:108300004FF6FF739A424F4B40D193F8342012F04E
:10831000010205D093F86C20D20700F18D80012274
:1083200038200A8000FB02324FF6FF76D6800A889A
:1083300000FB023296800A88A78800FB02329781F0
:108340000A88678800FB023257800A8827884243E0
:108350009F520A8800FB023046742088A288B042EF
:108360004FF0060000FB02520BBF9078D07801302E
:1083700001300CBF9070D0700A88382000FB0232A8
:1083800092F8340040F0020082F834000888256931
:10839000382202FB003005630888A56802FB003024
:1083A00085620888E56802FB003085850888646975
:1083B00002FB00308461088802FB0034A082098837
:1083C00002FB0133002093F8342042F0010283F8CD
:1083D000342087E71B4B20889A8966882AB95F88F2
:1083E000B74202D11F8887420DD0B3F84420002A3B
:1083F0007FF47FAF5A8FB2427FF47BAF1A8F8242F5
:108400007FF477AF0122382000FB02330A8093F813
:108410003430D8077FF56DAF63E758F83600FFF7C3
:1084200014F938B1013667E70E205BE7092059E7F8
:10843000052057E7072055E7042053E77C34002048
:108440007E340020B83400207FB505460E4619B3AF
:108450000DF10A030022009303ABADF80A20FFF7E9
:10846000C9FB044688B90D48039B38226A4381182A
:10847000C97C49070CD002F11301BDF80A20009213
:10848000014432462846FFF757F8204604B070BD35
:1084900018460EF0F8FFF8E70E24F6E7B83400208F
:1084A00013B514460A4639B134B10023009321466E
:1084B000FFF7A0FB02B010BD0E20FBE710B504468D
:1084C000FFF7E4F888B1172911D80A48382303FBCD
:1084D0000400C3888B4206D090F83430C18043F04A
:1084E000020380F83430002000E0052010BD072092
:1084F000FCE700BFB834002010B5044651B1FFF7C7
:10850000C5F848B1054B382202FB04340020E3884B
:108510000B8010BD0E20FCE70520FAE7B8340020E0
:10852000012870B51DD8104A382404FB002494F8A3
:108530003430DD0715D5E47C01F0070504F00706AB
:10854000AE4204D1C1F3C405B5EBD40F07D0382433
:1085500004FB002043F00203C17480F83430002093
:1085600000E0052070BD00BFB834002069B10128CB
:108570000DD8084B382202FB003090F83430DB076E
:1085800005D5C37C0B70002070470E207047052076
:10859000704700BFB834002038B50446154699B17D
:1085A00092B1FFF773F888B10A48382303FB04003F
:1085B00083696BB1837CC3F301030B70837CC3F3CA
:1085C00085032B70002038BD0E20FCE70520FAE75C
:1085D0000620F8E7B83400202DE9F3410DF1070239
:1085E0000DF106010546FFF7D7FF10B1784602F0FE
:1085F00039FE284E9DF807709DF80610382303FBBE
:1086000005633C46B3F82480032923D8DFE801F052
:1086100005021A1E07EB87046400B4FBF8F3092B6C
:108620001CD8002F33D0012B38BF0123DFB200212B
:10863000382000FB05603A461430FEF793FE02B086
:10864000BDE8F081642417FB04F4E6E741F270749E
:108650007C43E2E7784602F005FEDEE7632B05D8AF
:108660000A220121B3FBF2F3DFB2E1E741F26F72BC
:10867000934295BF642241F27072B3FBF2F3B3FBF5
:10868000F2F399BFDFB20221DFB20321D0E739460E
:10869000CEE700BFB8340020012810B50FD80B4A30
:1086A000382404FB002393F83420D20707D59A69B5
:1086B0003AB141B19984FFF78FFF002010BD05202A
:1086C000FCE70620FAE70720F8E700BFB8340020EF
:1086D000012838B52AD8184C382303FB004393F8F7
:1086E000345015F0010F254620D09C6904B33F2A71
:1086F00020D803291ED89B7CB2EB930F03D103F043
:1087000003038B4210D0382404FB0054A37C62F393
:10871000870361F30103A374FFF75EFF94F834301D
:1087200043F0020384F83430002000E0052038BD17
:108730000620FCE70720FAE7B834002010B5134BF9
:1087400019780446E1B9FEF7A1FFD8B110483822E4
:1087500002FB0402D289022A10D10E490B7813F0D1
:10876000010203D00B7ADA070ED4012243F003038F
:1087700001F83230382303FB0404E281002010BDED
:108780000F20FCE70520FAE70420F8E77C340020FE
:10879000B834002028350020F8B504460F46FEF70F
:1087A00075FFE0B1124B382202FB0434E689022E39
:1087B00017D0172917D80F4CF50004356019FEF7AC
:1087C00037FF90B9012303FA07F163590B43635153
:1087D00014F8363043F0020304F83630F8BD0520B3
:1087E000FCE70620FAE70720F8E70020F6E700BFDD
:1087F000B834002028350020F8B504460F46FEF7AF
:1088000045FFF0B1124B382202FB0434E689022EF8
:1088100019D0172919D80F4CF50004356019FEF747
:1088200007FF68B1012303FA07F1635923EA010343
:10883000635114F8363043F0020304F83630002058
:10884000F8BD0520FCE70620FAE70720F8E700BF9F
:10885000B8340020283500202DE9F8430646154697
:108860000F4641B33AB3FEF711FF30B3164B38222F
:1088700002FB0636F389022B21D00024DFF84C904E
:10888000B5F800802C80F08901280ED809EBC000D3
:1088900021460430FEF7CCFE38B12B88984510D91C
:1088A00027F813402B8801332B800134182CEAD190
:1088B0000020BDE8F8830E20FBE70520F9E706203D
:1088C000F7E70920F5E700BFB8340020283500207D
:1088D000F8B506460F46FEF7D9FEC0B1082918D8EC
:1088E00038250E4C754305F10806A019FEF7A0FEC9
:1088F00088B9012303FA07F1A3590B43A3512C4470
:1089000094F8343043F0020384F83430F8BD052085
:10891000FCE70720FAE70020F8E700BFB8340020A2
:10892000F8B506460F46FEF7B1FED0B108291AD8B1
:1089300038250E4C754305F10806A019FEF778FEA0
:1089400070B1012303FA07F1A35923EA0103A351EC
:108950002C44002094F8343043F0020384F834307F
:10896000F8BD0520FCE70720FAE700BFB834002077
:108970002DE9F041064615460F46F9B1F2B1FEF772
:1089800085FEE8B1104BB5F800803822002402FBC8
:1089900006362C80083621463046FEF749FE38B1AF
:1089A0002B8898450ED927F813402B8801332B804C
:1089B0000134082CEFD10020BDE8F0810E20FBE748
:1089C0000520F9E70920F7E7B834002010B5044680
:1089D000FEF75CFE88B1082911D80A48382303FB4A
:1089E000040083888B4206D090F83430818043F0B5
:1089F000020380F83430002000E0052010BD07207D
:108A0000FCE700BFB834002010B5044651B1FEF7B2
:108A10003DFE48B1054B382202FB04340020A388F8
:108A20000B8010BD0E20FCE70520FAE7B8340020CB
:108A3000030605D4012803D0024B187000207047AC
:108A400007207047DC2D0020014B1878704700BFCD
:108A5000DC2D002010B50446FEF718FE90B10A4A3E
:108A6000382303FB0423187C88421EBF93F834008C
:108A700040F0020083F83400382303FB0424002074
:108A8000217410BD0520FCE7B834002010B5044661
:108A900051B1FEF7FBFD48B1054B382202FB04340F
:108AA0000020237C0B7010BD0E20FCE70520FAE7A8
:108AB000B834002010B50446FEF7E8FD98B181F007
:108AC00080037E2B11D90A48382303FB0400437C22
:108AD0008B4206D090F83430417443F0020380F8A2
:108AE0003430002000E0052010BD0720FCE700BF67
:108AF000B834002010B5044651B1FEF7C7FD48B1A7
:108B0000054B382202FB04340020637C0B7010BD3F
:108B10000E20FCE70520FAE7B834002021B128B97F
:108B2000034B1B880B8070470E2070470520704751
:108B30007E34002021B128B9034B9B780B7070471D
:108B40000E207047052070477E34002021B128B9DF
:108B5000034BDB780B7070470E2070470520704781
:108B60007E34002010B5044661B1FEF78FFD58B188
:108B7000064B382060431A1852884A801B5A0B80D3
:108B8000002010BD0E20FCE70520FAE7B8340020D5
:108B900073B5019112B310B1052002B070BD4FF64C
:108BA000FF730F4913808B89BDF80440BDF8065050
:108BB00008462BB94E88AE4202D10988A1420AD09C
:108BC000B0F84430002BE7D1438FAB42E4D1038FA0
:108BD000A342E1D1012313800020DEE70E20DCE771
:108BE000B8340020F0B509B302B308BB124E1588A3
:108BF000108002236FF037071088A8421AD207FBB3
:108C0000036494F8A4C01CF0010F09D0B4F87C40B0
:108C100034B9C3F1020421F81040108801301080EB
:108C2000012B01D10020F0BD0123E5E70E20FAE77A
:108C30000520F8E70920F6E7B834002010B504460F
:108C400051B1FEF723FD48B1054B382202FB043435
:108C50000020236B0B6010BD0E20FCE70520FAE717
:108C6000B834002070B50646FEF710FD08B338256D
:108C7000114C7543002205F1140011462044FEF703
:108C800071FB30466619103500F062FA2C44F0880A
:108C900001F0C2F900204FF0FF3373606070A070E4
:108CA000E07096F83430B07543F0020386F8343043
:108CB00070BD0520FCE700BFB8340020082837B598
:108CC00005461CD80DF106010020FFF79DFE28B9CE
:108CD000BDF80630AB4201D1FFF7C4FF0DF106012C
:108CE0000120FFF791FE044658B9BDF80630AB42AB
:108CF00002D10120FFF7B6FF204603B030BD0724A4
:108D0000FAE70024F8E708B501F04AF8A0F580502A
:108D100008BD000010B586B00D4B03930D4B0493B6
:108D20000D4B059304230293FFF7EDFF0B4C0090CE
:108D3000012369460A48019323700CF057FA20B1C9
:108D400008480CF063FB06B010BD2070FBE700BFC5
:108D5000157A0200817702009D8D0200B434002054
:108D600090340020AC2D002008B5FEF72BFD0848FC
:108D7000084B036009F00CFE00F096F9FEF7D6FAF6
:108D8000FEF7C8FBFFF7C6FF034B00221A7008BDB1
:108D900084340020558202007C340020134B1A7862
:108DA000D00744BF42F002021A701A7AD10744BFBA
:108DB00042F002021A720E4B1A881AB15A7942F026
:108DC00002025A710B4B93F83420D00744BF42F093
:108DD000020283F8342093F86C20D10744BF42F09C
:108DE000020283F86C20FFF795BF00BF28350020F2
:108DF0007E340020B83400202DE9F04F5A4DB5F8EC
:108E0000703085B0804613B9784602F02BFA574C83
:108E1000DFF86CA14FF6FF7308F57A79A5F8723088
:108E2000002604F1040B94F82830CBB1A369A3EB1E
:108E30000903002B19DA002384F82830B5F87030C4
:108E4000013BA5F8703003A92088FFF7F7FE10B1A9
:108E5000784602F007FAE3690399208801229847CF
:108E60002C34002E50D10126DDE7236AA3EB090242
:108E7000002A66DAA5F872602C2101FB06B1208871
:108E8000FFF7E2FA0746E8B1DAF800309B0417D59D
:108E9000374B1B68042B13DD2F21364811F056FE8B
:108EA000E8B12F21334811F051FE411C324B334AB7
:108EB000D3F8043500920197802205200BF03CFD89
:108EC000082F15D1D4E908231A445B00226263629B
:108ED000A269236AD31A002BC2DA2262C0E75C219E
:108EE000244811F033FE08B15C21DBE72149DDE7BE
:108EF000042F01D00F2F20D12C2303FB0656B36B78
:108F000003F51C434033B363B5F870304BB3B5F889
:108F10007230012B02D9784602F0A4F9B5F872300C
:108F20002C2202FB03539B6BB3EB080248BFA8EB58
:108F30000302EA6005B0BDE8F08F784602F092F9CE
:108F4000C6E7B5F872204FF6FF718A4206D02C2191
:108F500001FB0252926B9B1A002B81DAA5F872601A
:108F60007EE7EB60E6E700BF383500205035002093
:108F7000602E002092B6030000100140B7B6030037
:108F8000642E002038B52C4C2C2303FB00430546EF
:108F900093F8403013B9784602F064F9B4F87030B1
:108FA00013B9784602F05EF92C2202FB0542002339
:108FB00082F84030B4F87030013B9BB2A4F87030B6
:108FC000A3B3B4F87230AB4235D1926B1B4B134450
:108FD00094F84020EAB1A26BD11A0029B8BF134619
:108FE0004FF6FF72B8BF002294F86C10A1B1616E09
:108FF000CB1A002B10DA0123A4F87230B4F87230C7
:109000000D482C2202FB0344A16BBDE8384009F057
:10901000F6BE4FF6FF72E7E74FF6FF739A42A4F8E9
:109020007220EBD1784602F01DF9E7E70248BDE86F
:10903000384009F0CDBE38BD383500200087930395
:109040000128F8B505460E46174602D9784602F0C3
:1090500009F90AF0A7FB134B93F8402012B11A8BC1
:10906000AA421DD093F86C20B2B1B3F84420AA42B2
:1090700012D101202C2404FB00343388A28D9A42A3
:109080000AD1E28D73889A4206D1FFF77BFF636BAA
:109090000022394628469847BDE8F8400AF0C2BB8E
:1090A0000020E7E73835002010B5044C7422002179
:1090B000204611F05BFC024BA36010BD3835002048
:1090C000F98D020073B51F4C0AF06CFBB4F87030D8
:1090D0002BB100232046A4F8703009F079FE94F8F3
:1090E00040307BB1258B1848666B00212C2211F093
:1090F0003DFC01A92846FFF7A1FDF0B90222019924
:109100002846B04794F86C309BB1B4F844500F48EF
:10911000246E00212C2211F029FC01A92846FFF71A
:109120008DFD10B1784602F09DF802220199284683
:10913000A0470AF077FB02B070BD784602F092F8C3
:10914000DCE700BF38350020503500207C3500209A
:10915000012873B505462DD8174C0AF023FB94F867
:10916000403013B1238BAB4220D094F86C30FBB16C
:10917000B4F84430AB421BD101263046FFF702FF62
:1091800001A92846FFF75AFD10B1784602F06AF8A7
:109190002C2303FB06440222636B0199284698475F
:1091A00000240AF03FFB204602B070BD0026E4E731
:1091B0000524F6E70524F6E7383500204A0901239F
:1091C00001F01F0103FA01F150F82230194214BFD7
:1091D0000120002070474A09012301F01F0103FA12
:1091E00001F150F822300B4340F8223070474A0911
:1091F000012301F01F0103FA01F150F8223023EAA4
:10920000010340F82230704701F11F02520970B586
:10921000551EA1EB45140121A140002301399A42BA
:1092200001D1012070BD9D4250F823400CBF0E4675
:109230004FF0FF36264201D10133F0E70020F1E77D
:10924000A0F1100189B2072902D80248FFF7B6BF82
:1092500000207047BC3500202DE9F0474FF6FF7322
:10926000DFF84080DFF840900B8007460D46002471
:109270001E464FF0AC0A21464046FFF79FFF40B123
:109280000AFB04F333F80930BB4206D12C80BDE859
:10929000F0872B88B34208BF2C800134042CEAD11C
:1092A0000020F4E7C4370020CC3700202DE9F04738
:1092B0004FF6FF73DFF84080DFF840900B800746E1
:1092C0000D4600241E464FF02A0A21464046FFF76D
:1092D00075FF40B10AFB04F333F80930BB4206D1F5
:1092E0002C80BDE8F0872B88B34208BF2C80013466
:1092F000082CEAD10020F4E7043600200C360020C8
:10930000024B33F820300B80704700BFC43500207B
:109310002DE9F041A3F1080516240E4E6C430746D3
:10932000A01D884630441146102211F014FB331959
:1093300000225A7101222946A3F8028006481A71B8
:109340003753FFF748FF29460448BDE8F041FFF7CF
:1093500042BF00BF643700205C3700206037002028
:1093600010B40C4600F108030A1D208849885DF8F6
:10937000044B9BB2FFF7CCBF70B516244443074E95
:109380000D46A11D10223144281D11F0E4FA325B74
:109390002A8033195B886B8070BD00BF6437002062
:1093A000044A0B46142101FB002104311022184607
:1093B00011F0D1BA7C3A00200422014811F0CBBA56
:1093C000B237002008460422014911F0C4BA00BF98
:1093D000B23700202DE9F0414488012C05463ED0EB
:1093E00004F47043B3F5005F43D009D8002B39D0A3
:1093F000B3F5805F3BD0784601F034FF00240BE0EA
:10940000B3F5804F07D0B3F5A04F2ED0B3F5405F32
:10941000F1D1032400E00424174F6E881C2202FBC4
:109420000472052C9289A6EB02062A8802F57F5267
:1094300002F13F024FEA820205F1040895B202D917
:10944000784601F00FFF1C2303FB047441463046AD
:10945000A3692A46984731466068FFF7BCFE0120A1
:10946000BDE8F081023CE4B2D6E70524D4E701244C
:10947000D2E70224D0E700BF2CB7030010B50446A2
:1094800010B9784601F0EEFE2346BDE810401847BB
:1094900010B5044610B9784601F0E4FE0A4B0022EC
:1094A00093F8421090B269B1A3420AD003F12101AE
:1094B0008C4206D00132042A03F1AC03F0D14FF6FE
:1094C000FF7010BDA342F4E7EE3700202DE9F8430A
:1094D0002A255D43164C91468046A81D10220F4652
:1094E000204449461E4611F036FA05F119000021C4
:1094F0001022204411F03AFA691D214448460BF02D
:1095000007F910B1784601F0ADFE2A237343E21843
:1095100000211171917557803146064824F8038067
:10952000FFF759FE31460448BDE8F843FFF753BE44
:109530000C3600200436002008360020F8B50D4611
:1095400006462A2474430021104E1746284624223A
:1095500011F00CFAA11D10223144281D11F0FBF965
:10956000325B2A8033195A886A809B7D4BB104F1A3
:109570001901314405F114001022BDE8F84011F042
:10958000EAB93B88043B3B80F8BD00BF0C360020A5
:109590002DE9F0418046AC240D46144E04FB08F43E
:1095A000002117462846242211F0E0F906EB0408B2
:1095B000335B2B8098F86430AB70A11C10223144CF
:1095C000E81C11F0C8F998F864304BB104F11201AD
:1095D000314405F113001022BDE8F04111F0BBB990
:1095E0003B88043B3B80BDE8F08100BFCC370020C6
:1095F00001F11F0252099200002111F0B7B90000D9
:109600002DE9F041204CAC255543164605F1680381
:10961000621923440F469367804610B91B4B012201
:109620001A7005F12201214438460BF07AF810B186
:10963000784601F017FE05F17C01214438460BF015
:1096400081F810B1784601F00DFEA81C39461022B1
:10965000204411F080F905F112001022002120446D
:1096600011F084F9AC237343E21824F8038000233B
:109670003146074882F86430FFF7ADFD31460548B2
:10968000BDE8F041FFF7A7BDCC370020B037002080
:10969000C4370020C8370020F8B5A1F11005142404
:1096A0006C430D4F0646201D31461022384411F000
:1096B00052F9391930460BF06DF810B1784601F0C7
:1096C000D1FD29460548FFF786FD29460448BDE837
:1096D000F840FFF780BD00BF7C3A0020BC35002079
:1096E000C03500200B4600F1100189B21846FFF783
:1096F000D3BF000008B5064B064800221A700BF0D5
:1097000049FC20B10448BDE808400BF07FBE08BD0D
:109710007A3700207C370020E02D00202DE9F84327
:10972000044688460AF03EF8052C02D9784601F036
:1097300099FD154BDFF85C901F78C7B11C2505FB20
:1097400004951248A9892A69414489B20BF0E1FCC9
:10975000064660B10246011D6B6940469847304697
:109760000BF006FD0AF05EF83846BDE8F8831C23CE
:1097700003FB04944146A068FFF72DFD04480BF05D
:1097800045FE0027EEE700BF7A3700207C37002037
:10979000A03700202CB70300F8B505460E460AF0A6
:1097A00001F8052D02D9784601F05CFD0F4B104FF2
:1097B0001C7874B91C2303FB05753146A868FFF7B4
:1097C0000AFD0C480BF022FE00240AF02BF820467C
:1097D000F8BD1C2303FB057307489989314489B2FE
:1097E0000BF0DCFC0028E5D1EFE700BF7A37002062
:1097F0002CB70300A03700207C3700202DE9F84368
:10980000184D0026AF68D5F80080384641465FFA0B
:1098100086F9FFF7F9FCF8B1052E1FD1BDE8F883F2
:1098200021463846FFF7CAFC70B121466868FFF749
:10983000C5FC214660B14846FFF770FF0028EDD017
:1098400021463846FFF7D3FC0134A045E8D1E3E7D1
:109850004846FFF7A1FFF1E70446F6E701361C355D
:10986000D0E700BF2CB703002DE9F74F80469246A2
:109870000E46002953D008F0D3FE0228814627D097
:1098800020F00207FBB2012B22D14FF6FF74354BBB
:10989000354A0025A3465C450ED110462946019362
:1098A0000092FFF78BFCDDE9002328B9ACB201354B
:1098B000102DF0D1002305E033F825104145F6D1F5
:1098C000ACB20123BAF1000F04D1B9F1030F28D0D3
:1098D000102021E0FFB2012FFAD1ABB94FF6FF7291
:1098E000944223D01F4A204822F8248002EB8402AD
:1098F00021465380FFF76FFC21461C48FFF76BFCA5
:1099000021463846FFF70AFF164B348003EB8404E8
:10991000A3780133A370002003B0BDE8F08F0E20C0
:10992000FAE7BBB94FF6FF72944201D10420F3E786
:109930000C4A0D4822F8248002EB84022146538011
:10994000FFF749FC21460948FFF745FC2146012065
:10995000FFF7E4FE034B348003EB8404E378013328
:10996000E370D8E7C4350020AC350020B0350020C6
:109970002DE9F0474FF6FF73DFF84C80DFF84CA07D
:109980000B8007460D4600244FF01409214640463F
:10999000FFF714FC064650B92A884FF6FF739A4227
:1099A00000D12C800134082CF0D1002608E01022D0
:1099B000394609FB04A010F0BFFF0028F2D12C802B
:1099C0003046BDE8F08700BFBC350020803A00205B
:1099D0002DE9F3414FF6FF770E461446ADF80670B9
:1099E000804640B339B30DF10601FFF7C1FFBDF862
:1099F000063003F11005ADB250B9BB421DD0294667
:109A00004046FFF749FEBDF806100220FFF786FE2C
:109A1000BDF806300A4A3580142101FB032334B90E
:109A2000DA780132DA70002002B0BDE8F0819A786D
:109A300001329A70F7E70E20F6E70420F4E700BF42
:109A40007C3A002008B528B9784601F00BFC4FF6A7
:109A5000FF700BE0064B9842F9D303F50172904278
:109A6000F5D8C01AAC23B0FBF3F080B208BD00BF3C
:109A70004038002008B528B9784601F0F3FB4FF6CE
:109A8000FF7008BD0A4B984209D303F593729042C8
:109A900005D8C01A2A23B0FBF3F080B2F1E7054ADB
:109AA0004FF6FF73904214BF18460820E9E700BF45
:109AB0001036002068370020F8B50C46154683B2F2
:109AC0000A1D064649882088FFF700FD242D1DD178
:109AD000124F2A2575437B190122143405F1190010
:109AE0009A7521461022384410F035FF05F118010F
:109AF000394420460AF00CFE10B1784601F0B2FB62
:109B00002A2303FB06763379F375F8BD142DFCD0B8
:109B10007846BDE8F84001F0A5BB00BF0C36002038
:109B20002DE9F0410D46174E07469046033182B2AB
:109B3000AC242888FFF764FDAB7804FB076282F849
:109B40006430D3B1B8F1240F02D0784601F08AFB1B
:109B50007C43133504F1120029461022304410F0E2
:109B6000FAFE04F14301314428460AF0DAFD38B127
:109B70007846BDE8F04101F075BBB8F1140FF7D19C
:109B8000BDE8F081CC37002010B501298CB0044627
:109B900004D1784601F066FB0CB010BD0229F8D064
:109BA0000329F9D12C22002101A810F0DFFE112396
:109BB0008DF8043002238DF80830054B0394DA68E1
:109BC0001B69059201A8069307F0B0FAE4E700BF0D
:109BD0007C37002011460020FFF7D6BF084611460B
:109BE000FFF7D2BF41090B4A00F01F004FF0FF33CF
:109BF000834052F82100034009D05A421A40064BD4
:109C00005343DB0E054AD05C00EB41107047042043
:109C1000704700BFC437002031B57C07D4B70300BC
:109C20004FF6FF730B80084B1B6813F0010307D03E
:109C3000064B1B88834205D108230B800120704707
:109C400008220A80002070475C370020643700201B
:109C50000F2810B5044604D801460648FFF7AEFAAF
:109C600028B92046FFF7ECFA00F0010010BD0120F2
:109C7000FAE700BFAC3500200F28F8B5044617D826
:109C800001461748FFF79AFA90B1164E06EB840387
:109C9000987858B9DD7815BB21461148FFF7A7FA27
:109CA00026F8245021460120FFF776FD002016E01B
:109CB0002046FFF7C5FA88B1103C0B4F14256543C9
:109CC0007B1998780028F1D1DE7846B921460748FB
:109CD000FFF78DFA7E5321460220E5E70520F8BD07
:109CE000AC350020C43500207C3A0020BC35002073
:109CF00010B5094B0A8884B2214623F8242003EBCF
:109D00008403002205485A80FFF765FA214604487B
:109D1000BDE81040FFF75FBAC4350020AC35002025
:109D2000B03500201FB51A4B1B781BB9002005B0B9
:109D30005DF804FB04AB0A2243F8102D012101AAAF
:109D400014480BF0AFF903460028EFD1BDF80A2004
:109D5000102A0FD1BDF80C20082A0BD1BDF806201F
:109D6000082A07D1BDF80820012A03D1BDF8042034
:109D7000042A02D0FFF7BEFCD8E70146064A054890
:109D80000BF01AF9054B186800F00100CFE700BF8F
:109D90007A3700207C370020D5930200B4350020AC
:109DA00008B508F031F8A0F5805008BD70B586B050
:109DB0001E4B03931E4B04931E4B05931E4E002314
:109DC0000293FFF7EDFF3278009001230193A2B9CF
:109DD0001A4C09F0E7FC694620460BF007FA28B157
:109DE00009F020FD16480BF011FB06E02578012D47
:109DF00005D009F017FD0123337006B070BD204671
:109E00000A2229460BF085F9044648B11023438104
:109E10000422082383818280C38005810BF0A8F986
:109E200009F000FD002CDDD0E5E700BFDD9B02005E
:109E3000D59B0200459E02007A3700207C37002027
:109E4000F02D0020FFF7B2BF70B5214C04F1A80639
:109E5000256860682946FFF7CBFB1C3454F8140CC6
:109E60002946FFF7C5FBB442F2D100231948194631
:109E7000C2180433402BD1709170F9D100231649D8
:109E80001C46CA181433A02BD4709470F9D1012148
:109E90001248FFF7ADFB01211148FFF7A9FB012193
:109EA0001048FFF7A5FB01210F48FFF7A1FB012197
:109EB0000E48FFF79DFB01210D48FFF799FB0D4B65
:109EC0001C805C800C4B1C70BDE87040FFF712BC1E
:109ED0002CB70300C43500207C3A0020B4350020A4
:109EE000AC350020BC350020C437002004360020EB
:109EF0005C370020B2370020B0370020084808B592
:109F0000084B036008F044FD074B084A9A60084A72
:109F1000DA60084B00221A70BDE80840FFF746BF20
:109F2000B837002085A60200A03700207D940200EB
:109F3000FD9702007A37002070B5054610B97846C3
:109F400001F090F9174E346814F0010427D12888E5
:109F50006B880344984201DB0B2070BD08F060FB66
:109F60000128F9D128886B881844013880B208F09C
:109F700057FB0128F0D1042229460B4810F0EBFCD6
:109F80003368214643F0010320463360FFF7C6FBE8
:109F9000064A136843F0010313602046DDE70F20F3
:109FA000DBE700BFB4350020B2370020B835002011
:109FB00010B5044610B9784601F054F92046042241
:109FC0000249BDE8104010F0C6BC00BFB237002007
:109FD0000122FFF749BC000010B50446FFF738FE28
:109FE00078B10F2C89BF084B084B103C14228CBF52
:109FF00002FB043403EB84040020A3780133A37034
:10A0000010BD0520FCE700BF7C3A0020C4350020CD
:10A010000122FFF7DDBC00000F2810B504460FD861
:10A0200001460E48FFF7CAF850B10D4B03EB84030D
:10A030009A78013A9A702046BDE81040FFF71CBE9E
:10A040002046FFF7FDF830B1064AA4F110031421B1
:10A0500001FB0323ECE7052010BD00BFAC35002059
:10A06000C43500207C3A00200022FFF7FDBB00220F
:10A07000FFF7AEBC10B50446FFF7EAFD78B10F2C30
:10A0800089BF084B084B103C14228CBF02FB0434E0
:10A0900003EB84040020E3780133E37010BD052056
:10A0A000FCE700BF7C3A0020C435002038B50446E8
:10A0B0000D4619B30F2810D801461248FFF77EF855
:10A0C00058B1114B33F824206A8033F8240008F08B
:10A0D000A7FA28700020686038BD2046FFF7B0F866
:10A0E00070B11423103C094A5C430020135B6B8061
:10A0F0000434144402236C602B70EDE70E20EBE770
:10A100000520E9E7AC350020C43500207C3A00206A
:10A1100013B50446FFF79CFD08B369462046FFF7D8
:10A12000C5FFC0B99DF80030032B0BD10D4B03EBDD
:10A130008403DA789AB1013ADA702046FFF79CFD81
:10A1400002B010BD022B08D1074AA4F1100314215C
:10A1500001FB0323EDE70020F2E70F20F0E70520E5
:10A16000EEE700BFC43500207C3A00202DE9F7431C
:10A170000D46044600283CD000293AD0408808F01B
:10A180004FFA022824D0032801D0012833D14FF6FA
:10A19000FF73DFF86880DFF8689067882B80002401
:10A1A0001E4621464046FFF709F840B139F82430F1
:10A1B000BB4208D12C80002003B0BDE8F0832B887F
:10A1C000B34208BF2C800134102CEAD10520F3E7FC
:10A1D00060684FF6FF73ADF8063050B10DF106011F
:10A1E000FFF7C6FB0028F1D0BDF8063010332B80F6
:10A1F000E1E70E20E0E71020DEE700BFAC350020ED
:10A20000C435002007B50DF10601FFF725F820B190
:10A21000BDF8060003B05DF804FB4FF6FF70F9E7E8
:10A2200008B1FFF735B94FF6FF70704707B50DF16C
:10A230000601FFF73BF820B1BDF8060003B05DF85A
:10A2400004FB4FF6FF70F9E708B1FFF713BC4FF6B8
:10A25000FF70704738B504460D4669B107280DD820
:10A2600001460748FEF7AAFF40B12A206043054B8C
:10A270001B5A2B80002038BD0E20FCE70520FAE792
:10A28000043600200C360020082870B504460E461F
:10A290003CD8002938D0082821D001461C48FEF7B8
:10A2A0008DFF002832D01B4D2A2303FB04535B880B
:10A2B000032B02D9784600F0D5FF2A2303FB045371
:10A2C00015485988FEF77AFF10B9784600F0CAFFA2
:10A2D0002A2303FB045463883380002070BD0F4B96
:10A2E0001B68DB0712D50E4C6388032B02D9784616
:10A2F00000F0B8FF61880848FEF760FF0028EAD147
:10A30000784600F0AFFFE6E70E20E7E70520E5E737
:10A31000043600200C360020C43700205C370020B3
:10A3200064370020F0B50746C7B015460E46002931
:10A330006ED0002A6CD0B0F5805F6BD21146FEF76C
:10A340008BFF2A88044670B13548AC2303FB02001A
:10A3500031461022023010F0EFFA00280CBF032023
:10A360000F2047B0F0BD4FF6FF739A4254D03146EC
:10A370003846FFF745F929880320FFF7CFF9284B26
:10A380002988AC2202FB013138468C3108F00EFBE3
:10A39000244B186810F48020E3D0234B1B68062B55
:10A3A0003CDD224B1A68204605AC335C190903F0EA
:10A3B0000F03515C04F81010D15C04EB4003013032
:10A3C00010285970F1D100232F21194884F820302A
:10A3D00010F0BCFB98B12F21154810F0B7FB411CC1
:10A3E000144B154AD3F804350192144A0092072001
:10A3F000029440F66E120AF09FFA0020B1E75C2149
:10A400000B4810F0A3FB08B15C21E5E70849E7E73A
:10A410000E20A6E70720A4E70420A2E72046A0E735
:10A42000CC370020642E0020602E0020682E0020F3
:10A43000F3B60300001001401DB7030001B4030090
:10A44000032838B504460D460DD801460748FEF7E7
:10A45000B5FE40B1064BAC2202FB0434002094F858
:10A4600064302B7038BD0520FCE700BFC4370020E6
:10A47000CC3700202DE9F0410546884600294ED012
:10A4800003284ED801462848FEF798FE002848D0F9
:10A49000264BAC246C431A191E4692F8642062B114
:10A4A000012A07D104F1120010224146184410F08D
:10A4B00043FA00B10820BDE8F08104F112071F44FF
:10A4C00041461022384610F046FA04F14301314467
:10A4D00040460AF026F910B1784600F0C3FE04F1B8
:10A4E0009401314438460AF02DF910B1784600F055
:10A4F000B9FEAC236B43F118012281F8642004F10A
:10A50000A401F05A314407F007FE29460848FEF737
:10A5100062FE29460320FFF701F90020CBE70E2059
:10A52000C9E70520C7E700BFC4370020CC370020AB
:10A53000C8370020032810B504461FD8014611482B
:10A54000FEF73CFED0B11048AC236343C11891F82C
:10A550006420012A14D1022281F8642003F1A401AD
:10A560000144C05A07F0D8FD21460848FEF733FEE3
:10A5700021460320FFF7D2F8002010BD0520FCE79C
:10A580000820FAE7C4370020CC370020C837002065
:10A5900003282DE9F843074662D801463248FEF702
:10A5A0000DFE00285CD0314EAC257D4306EB05083E
:10A5B00098F86430002B55D005F11201A81C3144E5
:10A5C0001022304410F0C7F905F1430105F12200D3
:10A5D00031442122304410F0BEF905F1940105F117
:10A5E0007C0031441822304410F0B5F9002405F104
:10A5F0008C0188F864403144705B1D4EDFF8808028
:10A60000224607F089FDA6F1130921464046FEF7D0
:10A61000D5FDB8B12A20174D604305446B88BB4275
:10A6200010D1AB7D73B131181222484410F093F968
:10A63000002321461048AB75FEF7CDFD21460420CE
:10A64000FFF76CF80134082CDFD139460B48FEF7D0
:10A65000C2FD39460320FFF761F80020BDE8F8830A
:10A660000520FBE70820F9E7C4370020CC3700209D
:10A67000233600200C36002008360020C837002082
:10A680000436002070B50378042B1ED1D0E90146B2
:10A69000457E2046FFF7D6F94FF6FF72904214D060
:10A6A0002034A64211D1094AAC2101FB002393F8C2
:10A6B00064302DB1012B08D1BDE87040FFF73ABFDF
:10A6C0001BB1BDE87040FFF763BF70BDCC37002001
:10A6D0002DE9F0470D46064600B3F9B10024DFF836
:10A6E0004480DFF844900F680C604FF0AC0A2146BC
:10A6F0004046FEF763FD58B12B689F4210D00AFB1D
:10A7000004F232F8092026F813202B6801332B605D
:10A710000134042CEBD10020BDE8F0870E20FBE7CC
:10A720000920F9E7C4370020CC3700202DE9F0419B
:10A730008046C6B00E461F461546002A6BD0002B39
:10A7400069D007F06DFF012867D1032E67D8314625
:10A750003748FEF733FD002861D00DF11201404665
:10A76000FFF75EFA044600285BD1BDF812304FF6C1
:10A77000FF72934257D02A4631464046FEF7C8FD45
:10A78000BDF8121005200839FEF7C8FFBDF81230D9
:10A790003B80284B186810F4802030D0264B1B6873
:10A7A000062B42DD254B1A68204605AC2B5C1909A7
:10A7B00003F00F03515C04F81010D15C04EB40036C
:10A7C000013010285970F1D100232F211C4884F842
:10A7D000203010F0BBF9A8B12F21194810F0B6F9BC
:10A7E000411C184B184AD3F804350192174A0092BD
:10A7F0000720029440F675220AF09EF8002046B029
:10A80000BDE8F0815C210E4810F0A0F908B15C2190
:10A81000E3E70B49E5E70E20F1E71020EFE705201D
:10A82000EDE70F20EBE70420E9E72046E7E700BF6C
:10A83000C4370020642E0020602E0020682E0020E7
:10A84000F3B6030000100140E6B6030001B40300B4
:10A850002DE9F0410746C6B088461E461546002A37
:10A860006FD0002B6DD003296DD83B48FEF7A6FCB6
:10A87000002868D0B7F5805F67D231463846FEF7CA
:10A8800015FD3388044678B134482A2202FB0300C0
:10A8900029461022063010F04FF800280CBF032084
:10A8A0000F2046B0BDE8F0814FF6FF7293424ED0C4
:10A8B0002A4641463846FEF709FE31880420FEF755
:10A8C0002DFF274B186810F48020EAD0254B1B6819
:10A8D000062B3EDD244B1A68204605AC2B5C19097B
:10A8E00003F00F03515C04F81010D15C04EB40033B
:10A8F000013010285970F1D100232F211B4884F812
:10A90000203010F023F998B12F21184810F01EF9CB
:10A91000411C174B174AD3F804350192164A00928E
:10A920000720029440F6C5220AF006F80020B8E796
:10A930005C210E4810F00AF908B15C21E5E70B49EB
:10A94000E7E70E20ADE70520ABE70720A9E70420E5
:10A95000A7E72046A5E700BFC43700200C3600203B
:10A96000642E0020602E0020682E0020F3B6030025
:10A9700000100140D9B6030001B40300F8B5054644
:10A980000E4600293FD007283FD801462048FEF751
:10A9900015FC002839D01F481F492A246C4303198D
:10A9A000AC275A8807FB0212074692F86420012A56
:10A9B00009D104F119010844997D31B110223146C1
:10A9C0000FF0BAFF00B10820F8BD9A753146102289
:10A9D0000FF0C1FF04F118013944304609F098FE28
:10A9E00010B1784600F03EFC2A2303FB057329468C
:10A9F0001A79DA750948FEF7EEFB29460420FEF7BE
:10AA00008DFE0020E0E70E20DEE70520DCE700BF3A
:10AA1000043600200C360020CC37002008360020F9
:10AA2000072810B504460ED801460848FEF7C6FBB5
:10AA300048B121460548FEF7DAFB21460420FEF71F
:10AA4000ABFE002010BD0520FCE700BF043600204F
:10AA500003282DE9F041044640D801462148FEF77D
:10AA6000ADFB00283AD00020FFF7BCF800250428F1
:10AA70002CD1012D34D01C4E1C4F00254FF02A083C
:10AA800029463046FEF79AFB58B108FB05735B88F0
:10AA9000A34206D1A8B2FFF7C3FF10B1784600F079
:10AAA000E1FB0135082DEBD1AC236343104AD35AA7
:10AAB0000BB9104A137021460A48FEF798FB21464D
:10AAC0000320FEF769FE0020BDE8F0810130032875
:10AAD00005F10105CDD8FFF785F8C8E70520F3E7B4
:10AAE0000F20F1E7C4370020043600200C36002088
:10AAF000CC370020B03700202DE9F84F0646154628
:10AB00000F4669B362B303282CD801461748FEF7F5
:10AB100055FB38B30024DFF858A0DFF85880D5F88B
:10AB200000902C604FF02A0B21465046FEF746FB62
:10AB300080B10BFB04F208EB02035B88B34209D13E
:10AB40002B68994510D032F8082027F813202B687D
:10AB500001332B600134082CE6D10020BDE8F88FCA
:10AB60000E20FBE70520F9E70920F7E7C4370020AE
:10AB7000043600200C36002070B506460C461546FB
:10AB8000002A45D0082945D812BF2448244800216E
:10AB9000FEF714FB00283DD04FF6FF739E4207D10D
:10ABA000082C17BF1F4A204B2A2303FB04235E886F
:10ABB000032E31D831461D48FEF700FB60B3082C48
:10ABC0001B4923D0AC2303FB0613164A93F86430C9
:10ABD000022B08D12A236343D018807D18B1173384
:10ABE00013446B6004E02A2303FB042404346C60E8
:10ABF000AC2303FB06F00B1893F86430022B0CBF58
:10AC00004330223008442860002070BD094BE8E73B
:10AC10000E20FAE70520F8E70820F6E704360020C2
:10AC20005C3700200C36002064370020C437002039
:10AC3000CC3700206837002038B50D46FFF7E2FA20
:10AC4000044675B103280ED801460848FEF7B6FA47
:10AC500048B1074BAC2202FB043422342C600020A4
:10AC600038BD0E20FCE70520FAE700BFC4370020FE
:10AC7000CC3700202DE9F843074690460E4611B91F
:10AC8000784600F0EFFAB8F1000F02D1784600F0F4
:10AC9000E9FA306807F07F0730BB002400233360F7
:10ACA000C8F800301B4BDFF87090AC2505FB04356D
:10ACB000A3B2032B16D821464846FEF77FFA00B30D
:10ACC00095F8643095F8220005F12201ABB1874276
:10ACD00005F1430395F8432016D1BA420FD13160F4
:10ACE000C8F80030BDE8F883FEF7D2FB4FF6FF73DB
:10ACF0009842D2D0441CA4B2D0E7874201D131603F
:10AD000005E0AC350134D3E79742FAD13360002334
:10AD1000E6E700BFCC370020C43700202DE9F0471C
:10AD200004468846164612B9784600F09BFA14B9D4
:10AD3000784600F097FA2046FFF772FA4FF6FF7355
:10AD40009842074603D100233360BDE8F08730689E
:10AD500000B3FEF78FFE441C1148DFF848A02A25F7
:10AD600005FB040505358146072CECD821465046E5
:10AD7000FEF724FA80B135F8033CBB420CD12B78A6
:10AD800088EA03039B0607D12A2000FB04940434BD
:10AD90003460DAE70446DFE701342A35E4E700BF30
:10ADA0000C3600200436002038B504460D4611B993
:10ADB000784600F057FA34B1044B33F8042BA24222
:10ADC0000CBF1C4600242C6038BD00BF6437002037
:10ADD0002DE9F04707469146884611B9784600F0BC
:10ADE00041FAB9F1000F02D1784600F03BFAD8F8E9
:10ADF000000000284CD0FEF725FE441C254EDFF84D
:10AE00009CA0AC2505FB04658C353BE021465046F3
:10AE1000FEF7D4F9A0B315F8283C4BB94FB108227E
:10AE2000294638460FF088FDB0FA80F0400901E06D
:10AE3000CFB9012020B3184B1B78FBB1AC2363437F
:10AE4000F35AB3FA83F35B09AC20444332197434E8
:10AE5000264482F87430C8F8006092F8643089F8AB
:10AE60000030BDE8F0870822294638460FF064FD1F
:10AE70000028DED0082205F11801D2E70123E3E71C
:10AE80000134AC35032CC1D90023C8F80030E8E701
:10AE90000446B3E7CC370020B0370020C437002089
:10AEA0002DE9F74306460C4607F0BAFB02285FD0AF
:10AEB000032818D0012801D0002011E0484B1B685E
:10AEC00013F00103F8D0474B1A889642F4D35B88FD
:10AED00013449E424FF00003EEDA668020706360F8
:10AEE00003B0BDE8F08300236360A6F57F43FC3B1D
:10AEF00066802070032B16D801A252F823F000BF01
:10AF0000B9AE0200B9AE020011AF02006DAF02008F
:10AF100001A901200CF063FA10B1784600F0A2F903
:10AF20009DF80400DCE74FF6FF752F4FDFF8C09067
:10AF30000024A84645450FD121464846FEF73EF974
:10AF400050B9A5B20134102CF4D10BF0DFF84088D1
:10AF5000831B58425841C3E737F82420B2424FEAD6
:10AF60008403EFD13B44DB78002BEBD00120B7E723
:10AF70006068E8B94FF6FF73ADF80430BDF80450CF
:10AF8000DFF87080194F072D4FF6FF7394BF01351E
:10AF90000025ADF804304FF01409082D8CD0294657
:10AFA0004046FEF70BF948B9ADF804500135F4E717
:10AFB00001A9FEF7DDFC0028DCD0DFE709FB05F383
:10AFC000DA5BB242F2D1FA18D278002A3FF474AFB9
:10AFD000043302221F4466802270676080E700BF4E
:10AFE000B4350020B2370020C43500207C3A002060
:10AFF000AC350020BC35002038B50C46054600B104
:10B0000011B9784600F02EF9024B1A882A805B8825
:10B01000238038BDB237002007B50378022B0AD051
:10B02000032B01D0012B17D169464088FFF738FF69
:10B0300003B05DF804FB69464068FEF799FC002800
:10B04000F6D0BDF80030054A142101FB0323D8785F
:10B05000003018BF0120EBE70020E9E77C3A002030
:10B060000620704730B5754B14461B6841F201024B
:10B07000904287B00D4603F480437ED01ED801284D
:10B0800045D0002B5DD06E4B1B68002B59DD2F2166
:10B090006C480FF05BFD002800F0C4802F21694848
:10B0A0000FF054FD411C684B684AD3F804350092F8
:10B0B00001957B22012009F03FFC42E044F20102AD
:10B0C000904200F0858044F202029042D9D1002BD8
:10B0D00037D05B4B1B68002B33DD2F2159480FF015
:10B0E00035FD00286BD02F2156480FF02FFD411C55
:10B0F000554B2288D3F8043503926268CDE901529A
:10B10000534A009201206C2209F016FC19E0C3B1E9
:10B110004B4B1B68002B14DD2F214A480FF016FD06
:10B1200010B32F2147480FF011FD411C464B494AEF
:10B13000D3F804350092CDE901546022012009F0D2
:10B14000FBFB4FF0A0434FF4F032C3F81825C3F8CF
:10B150000C25EFF3108372B64DF6AD6C3E4A1378B2
:10B16000002B68D107B030BD5C2136480FF0EEFCF3
:10B1700008B15C21D6E73349D8E7002BE1D0304B4A
:10B180001B68002BDDDD2F212E480FF0DFFC68B19E
:10B190002F212C480FF0DAFC411C2B4B2F4AD3F8FF
:10B1A00004350092CDE901546322C7E75C212548AC
:10B1B0000FF0CCFC08B15C21EBE72249EDE75C2104
:10B1C00020480FF0C3FC08B15C218DE71D498FE7D3
:10B1D000002BB6D01A4B1B68002BB2DD2F2119486B
:10B1E0000FF0B4FCA8B12F2116480FF0AFFC411CA2
:10B1F000154B2268D3F8043504926268CDE90252F7
:10B20000A2680192164A00920120772209F094FB6D
:10B2100097E75C210B480FF099FC08B15C21E3E74C
:10B220000849E5E75C2107480FF090FC08B15C2174
:10B2300035E7044937E730BF91E700BF642E0020AF
:10B24000602E0020F4B703000010014098B80300FE
:10B2500058B803001CB80300002E002036B80300C5
:10B2600077B8030007B50023ADF800300146054B61
:10B2700001936A4644F20200FFF7F4FE03B05DF862
:10B2800004FB00BF89B603002DE9F04F0C4689B0DE
:10B29000814600B111B97846FFF7E4FF2388152BEA
:10B2A00002D87846FFF7DEFF4FF6FF724FF4201307
:10B2B000CDE905230025012305A90A224846ADF85A
:10B2C0001C30ADF806500FF046FB0A2323800DF129
:10B2D0000E012846FDF72EFC10B17846FFF7C2FF9D
:10B2E0000DF10F010020FDF731FC10B17846FFF79A
:10B2F000B9FF9DF80E309DF80F20D3423DD003A931
:10B300000020FDF70BFC10B17846FFF7ABFF08AA51
:10B3100002230DF1080822F81A3D41460020FDF7EE
:10B3200061FC10B17846FFF79DFF2088042203A935
:10B3300048440FF010FB26889DF80E300436B6B254
:10B34000268053B10027BDF806A03D464FF6FF7B8F
:10B35000574515D323881D4425809DF80F3063B1D0
:10B360002388BDF806700026994435464FF6FF7ACB
:10B37000BE421DD323881D44258009B0BDE8F08F4F
:10B3800004A938F81700FDF7EDFB10B17846FFF778
:10B3900069FFBDF810305B4508D1A81902220DF1F4
:10B3A000120148440FF0D7FA0235ADB20137CFE7AA
:10B3B00004A938F81600FDF7D5FB10B17846FFF761
:10B3C00051FFBDF8103053450FD0022204A909EBFC
:10B3D00005000FF0C0FAA81C02220DF1120119FAA3
:10B3E00080F00FF0B8FA0435ADB20136C0E70000C6
:10B3F000024B1B6803B11847704700BF1C3B00207D
:10B4000013B5044601A8FEF7D3FDBDF80400001BE8
:10B4100018BF4FF0FF3080B202B010BD37B5044600
:10B420000AF078FE0546002301A80093FEF7C0FD50
:10B430006946288AFFF700FC30B9009B6360BDF8BD
:10B440000430238003B030BD0520FBE71FB5019316
:10B45000BDF81830ADF808300023ADF800208DF8A5
:10B460000A304FF6FF720223ADF802208DF80B3040
:10B470006A46079B0393FDF713F805B05DF804FBDC
:10B480007FB505460E46002003A98DF808000BF095
:10B49000A6FF10B17846FFF7E5FE9DF80D309DF848
:10B4A0000820013B0A2104AC63F30202BDF80E3010
:10B4B000B3FBF1F3013B63F3C70204F8082D07F077
:10B4C00077FA01230190009348F225022346314682
:10B4D0002846FFF7BBFF04B070BD7FB50B89012B79
:10B4E00006460D4631D14C688DF804302378C3F3FD
:10B4F000020301338DF805302378DA080A2302FBB2
:10B500000333142BB8BF142301A90020ADF8063073
:10B510000BF054FF10B17846FFF7A4FE30462946E1
:10B52000FFF7AEFF0023CDE9023311238DF8083079
:10B530002378C3F302038DF80C30237802A8C3F3F9
:10B54000C4038DF80D30FFF753FF04B070BD0B89B5
:10B550000BB9FFF795BF704737B504460D4607F0A6
:10B5600027FA084B1860084B01221A70002301903B
:10B57000009348F24A0229462046FFF767FF03B0CE
:10B5800030BD00BF243B0020203B002030B50B899C
:10B59000032B85B005460C4618D14B689A78012AD2
:10B5A00014D800228DF80C201B88ADF80D30022332
:10B5B0008DF80F3007F0FCF904230190009348F256
:10B5C000480203AB21462846FFF740FF05B030BDD7
:10B5D00030B585B004460D468DF80C20ADF80D3021
:10B5E00007F0E6F903230190009348F2440203AB0D
:10B5F00029462046FFF72AFF05B030BD30B585B09B
:10B6000004460D46002303A90120ADF808300BF0D5
:10B61000E6FE10B17846FFF725FE9DF80C308DF858
:10B6200008309DF80D309DF80920013B63F30202BC
:10B63000BDF80E308DF80920142B15D1D2B212F0BE
:10B64000070111D161F3C7028DF8092007F0B0F9A5
:10B6500002230190009348F2280202AB29462046BB
:10B66000FFF7F4FE05B030BD0A22B3FBF2F39DF8FC
:10B670000920013B63F3C702E6E77FB50B89022B84
:10B6800005460E463ED14C682378012B3AD803F08C
:10B6900001038DF804306378C3F3020301338DF89E
:10B6A0000530637883BB1423ADF80630BDF806304F
:10B6B000142B38BF142301A90120ADF806300BF07C
:10B6C0007DFE10B17846FFF7CDFD28463146FFF7E5
:10B6D00095FF0023CDE9023312238DF8083023783B
:10B6E0005A1E534253418DF80C306378C3F3020362
:10B6F0008DF80D30637802A8C3F3C4038DF80E30C3
:10B70000FFF776FE04B070BDDB08013303EB830363
:10B710005B00C9E70B890BB9FFF770BF704770B5C5
:10B7200086B00D46ADF80F309DF82C30ADF80D20E9
:10B7300000218B4204460A988DF80C1014BF07268E
:10B740000926CDF8110007F033F903ABCDE900600D
:10B7500048F21F0229462046FFF778FE06B070BD6A
:10B7600030B587B00446039306AB8DF8142033F848
:10B770000C2DADF815209B788DF817300D4607F08D
:10B7800017F904230190009348F2030205AB294600
:10B790002046FFF75BFE07B030BD2DE9F0430B8973
:10B7A000022B87B081460C4638D14B681F88C7F3FF
:10B7B0000B00FEF727FDA38C8342804631D13B4628
:10B7C0000C2221464846FFF703FF27E036F8150014
:10B7D000FEF72CFD26F815000135019BAB42F5D88C
:10B7E0002EE036F81500FDF769FA10B17846FFF73C
:10B7F00039FD0135019BAB42F3D83B464846002258
:10B800002146FFF7E5FE00230293736030461923BB
:10B810008DF80830ADF80C80FFF7EAFD07B0BDE801
:10B82000F0834FF6FF73984202AEE6D006AA0823D3
:10B8300042F8143D3146FFF75FF905460028CCD0A9
:10B840004046FFF705F905460028D3D00F28B6D0AB
:10B850003B460422B5E70000F0B50B89122B85B0FA
:10B8600007460D4625D14E680A88344648F2400303
:10B8700034F8020B9A42C0F30B001CD121460DF1A3
:10B880000602FEF74FFD182304460F2C8DF80830F2
:10B89000BDF80630ADF80C3096BF0C4B10221A5D87
:10B8A000338829463846FFF793FE14B902A8FFF7FC
:10B8B0009FFD05B0F0BDFEF7A5FC2146ADF80600E2
:10B8C000FEF7D8FD1A230446DFE700BFB1B8030036
:10B8D0002DE9F0431F460B8847F6E57843449BB2B9
:10B8E000102B87B005460C46164656D84FF0010976
:10B8F00009FA03F313F0EF011BD113F4803060D188
:10B900005B044AD50146052203A80FF02FF86368AF
:10B910008DF80C701A88ADF80D205B88ADF80F30EB
:10B9200007F046F805230093019003AB48F22A0282
:10B930002FE00922002103A80FF018F823888DF8C2
:10B940000C7043449BB2072B0AD809FA03F313F097
:10B950000B0F09D113F004022DD113F0E00F1FD10A
:10B960007846FFF77FFC09E063681A88ADF80D2080
:10B970005A88ADF80F205B68CDF81130002E14BF47
:10B980000726092607F014F8CDE9006003AB48F25A
:10B990001F0221462846FFF759FD07B0BDE8F08396
:10B9A000636833F8121BADF80D108DF80F208DF879
:10B9B00010201B68E0E7636833F8022BADF80D2018
:10B9C000F7E7072203A80EF0D1FF63688DF80C702B
:10B9D0001A88ADF80D209A88ADF811205B88ADF873
:10B9E0000F3006F0E5FF07230093019003AB48F208
:10B9F0002C02CEE773B502AA022322F8063D01A964
:10BA00000646FCF729FF062825D010B17846FFF737
:10BA100029FC0025BDF80220ABB29A4202D80020D2
:10BA200002B070BDACB2640002AB2344304633F8C0
:10BA3000041CFCF7E1FE10B17846FFF713FC02ABE3
:10BA40001C4434F8040CFEF763FB10B17846FFF792
:10BA500009FC0135DEE70820E2E72DE9F0438DB06F
:10BA60001C46154606460F46092200210DF1250009
:10BA70000EF07CFF00230DF10B0120468DF82030E5
:10BA8000ADF82150FDF702F810B17846FFF7EAFB58
:10BA90009DF826309DF80B2062F304136FF34713D3
:10BAA00005A920468DF82630FDF75CF810B17846E0
:10BAB000FFF7D8FBBDF81450BDF816304FF6FF72F3
:10BAC00095420DF10E0120460EBFADF82A30ADF8BB
:10BAD0002C30ADF82A50FCF70FFD10B17846FFF777
