:020000021000EC
:10F0000000FD00201D02020045020200D5F60100AD
:10F01000490202004B0202004D0202000000000003
:10F020000000000000000000000000004F0202008D
:10F0300051020200000000005302020055020200CB
:10F040005702020057020200570202005702020054
:10F050005702020057020200570202005702020044
:10F060005702020057020200570202005702020034
:10F070005702020057020200570202005702020024
:10F080005702020057020200091A0200570202004A
:10F09000570202005702020041F701005702020026
:10F0A00057020200570202005702020057020200F4
:10F0B000570202005702020000000000000000009A
:10F0C00057020200570202005702020057020200D4
:10F0D000570202005702020057020200000000001F
:10F0E0000000000000000000000000000000000020
:10F0F0000000000000000000000000000000000010
:10F1000000000000000000000000000000000000FF
:10F1100000000000000000000000000000000000EF
:10F1200000000000000000000000000000000000DF
:10F1300000000000000000000000000000000000CF
:10F1400000000000000000000000000000000000BF
:10F1500000000000000000000000000000000000AF
:10F16000000000000000000000000000000000009F
:10F17000000000000000000000000000000000008F
:10F18000000000000000000000000000000000007F
:10F19000000000000000000000000000000000006F
:10F1A000000000000000000000000000000000005F
:10F1B000000000000000000000000000000000004F
:10F1C000000000000000000000000000000000003F
:10F1D000000000000000000000000000000000002F
:10F1E000000000000000000000000000000000001F
:10F1F000000000000000000000000000000000000F
:10F2000010B5054C237833B9044B13B10448AFF360
:10F2100000800123237010BD801A00200000000030
:10F22000489602000C4B43B10C480D4910B5AFF3A2
:10F2300000800C48036823B910BD0A48036833B93D
:10F240007047094B002BF7D0BDE810401847064B1C
:10F25000002BF5D0184700BF0000000048960200C0
:10F26000841A00207C1A002000000000154B002B9F
:10F2700008BF134B9D46A3F5803A00218B460F46ED
:10F280001348144A121A09F05FFA0F4B002B00D0F2
:10F2900098470E4B002B00D0984700200021040017
:10F2A0000D000D48002802D00C48AFF3008009F093
:10F2B000FDF92000290000F0A5F809F0E3F900BFEE
:10F2C0000000080000FD0020000000000000000019
:10F2D000801A0020CC480020000000000000000040
:10F2E0003EDF70472DE9F0414FF0A043A8B04FF446
:10F2F00000320024C3F80825C3F80C458268117D4C
:10F3000092F90D300691D17C0591917C0491517C4C
:10F310000391117C0291D17B01910178009108AF9A
:10F32000054652683049384609F0D2FA2F4B1B681F
:10F330005B0433D52E4B1B68032B2FDD95F801E0C2
:10F340000FFA8EF04300083323F007036E46ADEB4F
:10F35000030D284B0DF12008D3F800C04246234688
:10F36000734502F1020226D3002308F810302F2142
:10F37000214809F0D9FA68B32F211F4809F0D4FABF
:10F38000411C1E4B1E4AD3F804350092CDF808806C
:10F3900001975022042002F0D5FFB5464FF0A0435C
:10F3A0004FF40032C3F80C2580370022C3F808253B
:10F3B000BD46BDE8F0816968C95C0C0901F00F0128
:10F3C0001CF8044002F8024C1CF8011002F8011C61
:10F3D0000133C5E75C21084809F0A6FA08B15C21B1
:10F3E000CBE70549CDE700BF24910200041A0020B5
:10F3F000001A0020081A00200391020000B000400B
:10F400006B9102004FF0A04337B50322C3F84427A5
:10F41000C3F84827C3F84C27C3F850274FF40032ED
:10F42000C3F808254FF48022C3F808254FF40022C2
:10F43000C3F80825394D4FF48012C3F8082504217C
:10F44000374A4FF4804002F063FF2A68520417D510
:10F45000344B1B68032B13DD2F21334809F064FA6A
:10F46000002849D02F21304809F05EFA411C2F4B6B
:10F470002F4AD3F80435009204208C2202F062FF58
:10F4800000F054FA2B4801F02FFB80232A4A2B4826
:10F49000002104F047FE294804F042FD12212748CC
:10F4A00004F054FD044650B125491222113009F0F0
:10F4B00040F9FF2323712146204804F091FD2B6879
:10F4C0005B0416D5174B1B68032B12DD2F21164842
:10F4D00009F02AFAC8B12F21134809F025FA411C76
:10F4E000124B184AD3F8043500920420962202F0F9
:10F4F00029FFFFF7F5FEFCE75C210B4809F014FA41
:10F5000008B15C21AFE70849B1E75C21064809F082
:10F510000BFA08B15C21DFE70349E1E7041A002098
:10F52000E5220200001A00200391020000B0004012
:10F53000BE900200E5F201009C1A00201C1B002076
:10F54000AC900200E990020048DF704710DF70477E
:10F5500060DF704761DF70474FF0A0434FF4F01257
:10F56000C3F80825C3F80C25EFF3108372B6002802
:10F57000FDD1704713B5164B1B685B04044617D5C5
:10F58000144B1B68002B13DB2F21134809F0CCF917
:10F59000A0B12F21104809F0C7F9411C0F4B104AA8
:10F5A000D3F80435009201944E22002002F0CAFEE6
:10F5B000204602B0BDE81040FFF7CEBF5C210648F0
:10F5C00009F0B2F908B15C21E4E70349E6E700BFBE
:10F5D000041A0020001A00209E91020000B0004092
:10F5E000B99102007FB5184B1B685B0405460C46B9
:10F5F000164619D5154B1B68002B15DD2F21144815
:10F6000009F092F9B0B12F21114809F08DF9411C90
:10F61000104B114AD3F804350092039602940195D9
:10F620007022012002F08EFE204604B0BDE870403A
:10F63000FFF792BF5C21064809F076F908B15C211A
:10F64000E2E70349E4E700BF041A0020001A0020A3
:10F650009E91020000B000407E9202007FB5184BE0
:10F660001B685B0406460D46144619D5154B1B68EE
:10F67000002B15DD2F21144809F056F9B0B12F21C8
:10F68000114809F051F9411C104B114AD3F80435C7
:10F6900000920396029501944822012002F052FE46
:10F6A000012004B0BDE87040FFF756BF5C2106485A
:10F6B00009F03AF908B15C21E2E70349E4E700BF49
:10F6C000041A0020001A00209E91020000B00040A1
:10F6D0008191020007B5154B1B685B0416D5144BCE
:10F6E0001B68002B12DB2F21124809F01DF998B17D
:10F6F0002F21104809F018F9411C0F4B0F4AD3F87D
:10F70000043500920020542202F01CFE012003B0B8
:10F710005DF804EBFFF720BF5C21064809F004F90F
:10F7200008B15C21E5E70349E7E700BF041A0020C0
:10F73000001A00209E91020000B000407391020068
:10F7400073B501A8FFF700FF60B102AD4F2325F8A4
:10F75000063D094E1C4629460748FFF7FBFE28B127
:10F7600002B070BD019801F0B9F9EAE7304601F046
:10F77000B3F9ADF80240EEE7B01B002030B5414CC4
:10F780002368590485B0054617D53F4B1B68032BEA
:10F7900013DD2F213D4809F0C7F8002856D02F214E
:10F7A0003A4809F0C1F8411C394B3A4AD3F80435BC
:10F7B000009204207A2202F0C5FD374B0293029B8F
:10F7C000039323685A0419D52F4B1B68032B15DDAF
:10F7D0002F212E4809F0A8F8002840D02F212B48CF
:10F7E00009F0A2F8411C2A4BD3F80435029A019281
:10F7F0002A4A00920420832202F0A4FD284603A98D
:10F80000FFF7A6FE029B039A9A4205461BD0236887
:10F810005B0418D51C4B1B68012B14DD2F211B48E2
:10F8200009F082F820B32F21184809F07DF8411C17
:10F83000174B039AD3F804350192194A009202201B
:10F840008C2202F07FFD284605B030BD5C210F48B8
:10F8500009F06AF808B15C21A2E70C49A4E75C2131
:10F860000A4809F061F808B15C21B8E70749BAE72E
:10F870005C21064809F058F808B15C21D4E7034937
:10F88000D6E700BF041A0020001A00209E91020053
:10F8900000B0004019920200C01900203592020009
:10F8A0004592020000B58BB00AAB1C4943F8240D09
:10F8B0001846FFF74BFE18B1194A9321FFF7CEFE09
:10F8C000184BE02283F8162393F81623C2F3411253
:10F8D000012A1BD9144A9168A1B1136843F480032B
:10F8E00013601C22002103A808F02EFF03A8FFF7D5
:10F8F00045FF18B10A4AA021FFF7B0FE00200BB067
:10F900005DF804FB4FF480021A60EAE7044A9A218A
:10F9100042F20200FFF7A2FEE3E700BFE5F50100B7
:10F920009E91020000E100E04048002010B54E4CDE
:10F930002368590488B017D54C4B1B68032B13DD83
:10F940002F214B4808F0F0FF002871D02F214848A4
:10F9500008F0EAFF411C474B474AD3F804350092B0
:10F960000420BB2202F0EEFC01238DF80C300023B2
:10F970008DF80D308DF80E3007238DF80F30039879
:10F98000FFF790FF23685A0417D5384B1B68032BE9
:10F9900013DD2F21364808F0C7FF002851D02F2152
:10F9A000334808F0C1FF411C324B344AD3F80435C8
:10F9B00000920420C52202F0C5FC10220DEB0200CB
:10F9C000002108F0C1FE01238DF810302C4A059269
:10F9D000072304A88DF813308DF81C3000F0E6FFE3
:10F9E00018B1234ACB21FFF739FE23685B0416D5F3
:10F9F0001E4B1B68032B12DD2F211D4808F094FFBE
:10FA000040B32F211A4808F08FFF411C194B1D4AA3
:10FA1000D3F8043500920420CD2202F093FC01F0CB
:10FA200037F818B1124ACE21FFF718FE08B010BD02
:10FA30005C210F4808F078FF08B15C2187E70C498A
:10FA400089E75C210A4808F06FFF08B15C21A7E74D
:10FA50000749A9E75C21064808F066FF08B15C2168
:10FA6000D0E70349D2E700BF041A0020001A0020A3
:10FA70009E91020000B00040D2910200EB91020082
:10FA800075F50100049202004A09012301F01F01EB
:10FA900003FA01F150F82230194214BF012000206E
:10FAA0007047000010B5044620B978460E4B1B681D
:10FAB0006BB198470D4B002293F8421090B241B1C0
:10FAC0009C420FD003F121018C4204D110BD00DE15
:10FAD000F0E79C4206D00132042A03F1AC03EBD1DB
:10FAE0004FF6FF7010BD00BF4C480020E21D002003
:10FAF0002DE9F0474FF6FF73DFF84C80DFF84C90AC
:10FB00000B8007460D4600244FF0140A214640465C
:10FB1000FFF7BAFF064650B92A884FF6FF739A429C
:10FB200000D12C800134082CF0D1002609E00AFB1A
:10FB3000049010223946043008F0ECFD0028F1D181
:10FB40002C803046BDE8F087081C00207020002083
:10FB500008B548B978460B4B1B681BB198474FF660
:10FB6000FF7008BD00DEFAE7074B9842F7D303F5B4
:10FB700001729042F3D8C01AAC23B0FBF3F080B20C
:10FB800008BD00BF4C480020301E002008B548B911
:10FB900078460D4B1B681BB198474FF6FF7008BDA8
:10FBA00000DEFAE7094B984209D303F593729042BD
:10FBB00005D8C01A2A23B0FBF3F080B208BD044B6D
:10FBC0009842EAD1082008BD4C480020541C00206F
:10FBD000A41D00202DE9F04780461746894621B92B
:10FBE00078462B4B1B68E3B1984727B97846284BDA
:10FBF0001B68C3B19847D9F80000B0B1FFF752FFB6
:10FC0000441C244EDFF890A00023AC25C9F8003036
:10FC100008F07F083B6005FB0465032C07D9BDE8AD
:10FC2000F08700DEE1E700DEE5E70446E9E721468C
:10FC30005046FFF729FF38B395F8642095F8223035
:10FC4000DAB1434595F843200DD142450BD1AC20A4
:10FC5000444304F12203433433443444C9F80030AC
:10FC60003C60BDE8F087424507D1AC2000FB04644E
:10FC70004334C9F80040BDE8F087434504D1AC20C7
:10FC800000FB04642234F4E70134AC35C5E700BF5F
:10FC90004C480020C01D0020BC1D00202DE9F0476D
:10FCA00004468846164622B97846204B1B6893B115
:10FCB000984724B978461D4B1B6873B19847204676
:10FCC000FFF7F0FE4FF6FF739842074607D1002377
:10FCD0003360BDE8F08700DEEBE700DEEFE7306879
:10FCE000F8B1FFF753FF441C1148DFF848A02A255C
:10FCF00005FB04058146072CE9D821465046FFF74D
:10FD0000C3FE80B16B88BB420DD16B7988EA0303D7
:10FD10009B0608D12A2000FB049404343460BDE81B
:10FD2000F0870446E0E701342A35E4E74C48002038
:10FD3000501C00204C1C002038B504460D4621B94B
:10FD40007846084B1B6853B1984734B1064B33F8DB
:10FD5000042BA2420CBF1C4600242C6038BD00DEE0
:10FD6000F3E700BF4C480020A01D00202DE9F0471C
:10FD7000064690460F4621B97846324B1B68E3B1E0
:10FD80009847B8F1000F04D178462E4B1B68B3B1E9
:10FD900098473868A8B1FFF7DBFE00F1010A2A4D49
:10FDA000DFF8AC90AC2404FB0A548834BAF1030F9A
:10FDB00009D900233B60BDE8F08700DEE1E700DE03
:10FDC000E7E78246EBE751464846FFF75DFEA8B3FA
:10FDD00014F8243C4BB94EB108222146304608F0B5
:10FDE00099FCB0FA80F0400901E0E6B9012028B39F
:10FDF000164B1B7833B1AC2303FB0AF3E85AB0FA75
:10FE000080F04009AC2303FB0AFA05EB0A030AF170
:10FE1000700A554483F870003D6093F8643088F8A8
:10FE20000030BDE8F08708222146304608F072FC19
:10FE30000028DBD0082204F11801CFE70AF1010AFB
:10FE4000AC34B3E74C480020C01D0020B61D002094
:10FE5000BC1D00202DE9F34706460D4600F0BAFC14
:10FE6000022839D0032812D001280ED1394B1B6843
:10FE700013F0010309D0384B1A88964205D35B88EA
:10FE800013449E424FF000035FDB00205AE04FF620
:10FE9000FF77DFF8CC80DFF8CCA00024B9464F45CF
:10FEA00009D121465046FFF7EFFD20B9A7B2013432
:10FEB000102CF4D1E9E738F82420B2424FEA840349
:10FEC000F5D14344DB78002BF1D003232B700023C2
:10FED0006E806B60012035E06868E8B94FF6FF730B
:10FEE000ADF80630BDF80640DFF87C801B4F072CCC
:10FEF0004FF6FF7394BF01340024ADF806304FF085
:10FF00001409082CC1D021464046FFF7BDFD50B969
:10FF1000ADF806400134F4E70DF10601FFF7E8FD06
:10FF20000028DBD0DEE709FB04F3DA5BB242F1D153
:10FF3000FA18D278002AA8D0043302221F446E8017
:10FF40002A706F6002B0BDE8F0876E8028706B6029
:10FF5000F8E700BF041C0020B81D0020702000201E
:10FF60000C1C0020001C0020081C002006207047EC
:10FF7000094B1B78062B0CD1084B1B681A0708D1BC
:10FF8000074B186800F0F000A0F1300358425841C8
:10FF900070470020704700BFE00F00F0E40F00F052
:10FFA000E80F00F00C4B1B78062B10D10B4B1B6895
:10FFB0001A070CD10A4B186800F0F003302B08D058
:10FFC00000F0E000A0F14003584258417047002083
:10FFD00070470120704700BFE00F00F0E40F00F011
:10FFE000E80F00F008B5FFF7DDFF28B1774B784A3E
:10FFF0001B68C3F304231360FFF7BAFF10B1754BFE
:020000022000DC
:10000000754A1A60FFF7CEFF28B1744B744A1B681B
:10001000C3F342331360FFF7ABFF20B1714AD368DB
:1000200023F08073D360FFF7BDFF40B14FF08043F2
:100030000022C3F80C21C3F81021C3F83825FFF7BC
:1000400097FF10B1684B03221A60FFF791FF40B190
:10005000664B05221A6001229A6700229A603F22AD
:100060005A60634B1B78062B09D1624B1B6819073A
:1000700005D1614B1B6803F0F003502B5ED0FFF7F6
:1000800091FF28B15D4B5E4A1B6803F04F0313607C
:10009000FFF788FF48B14FF08043D3F80024D20720
:1000A00044BF6FF00102C3F80024564AD2F88830EA
:1000B00043F47003C2F88830BFF34F8FBFF36F8FE4
:1000C0004FF01023D3F80022002A03DBD3F80432C8
:1000D000002B2FDA4C4B0122C3F80425D3F800245F
:1000E000002AFBD04FF010221521C2F80012D3F8DD
:1000F0000024002AFBD04FF010231522C3F804225D
:10010000414B1A46D3F800140029FBD00021C3F854
:100110000415D2F80034002BFBD0BFF34F8F3949C0
:100120003A4BCA6802F4E0621343CB60BFF34F8FCF
:1001300000BFFDE7364B374A1A6008BD4FF08052CA
:10014000354BD2F80414C3F82015D2F80814C3F8BC
:100150002415D2F80C14C3F82815D2F81014C3F8DB
:100160002C15D2F81414C3F83015D2F81814C3F8AB
:100170003415D2F81C14C3F84015D2F82014C3F873
:100180004415D2F82414C3F84815D2F82814C3F83B
:100190004C15D2F82C14C3F85015D2F83014C3F80B
:1001A0005415D2F83414C3F86015D2F83814C3F8D3
:1001B0006415D2F83C14C3F86815D2F84014C3F89B
:1001C0006C15D2F84424C3F8702558E724030010B6
:1001D0004035014074C007400DF0ADBA4402001034
:1001E0003C050040F0ED00E0A00500401056004046
:1001F000E00F00F0E40F00F0E80F00F058020010EC
:10020000E40E004000ED00E000E001400400FA05CB
:10021000C01900200090D00300C000400649074AE2
:10022000074B9B1A03DD043BC858D050FBDCFFF79B
:10023000D9FEFFF71BF8000054960200C0190020F9
:10024000801A0020FEE7FEE7FEE7FEE7FEE7FEE796
:10025000FEE7FEE7FEE7FEE738B5054620B978463B
:10026000074B1B684BB19847064B1C683CB154F8D0
:10027000043C284698472468F8E700DEF4E738BDD8
:100280004C4800201021002010B5044620B97846C3
:10029000054B1B6833B19847211D0448BDE8104049
:1002A00001F0FCBF00DEF7E74C48002010210020E1
:1002B00010B5044620B97846044B1B6823B1984713
:1002C0002346BDE81040184700DEF9E74C480020FF
:1002D00008B508220221094802F02EFC20B908487E
:1002E000BDE8084002F0C4BD064A91684160127B37
:1002F0000272BDE8084002F05BBC00BF182100207C
:10030000D41900205421002038B50D4D2B78B3B9F5
:100310000C4B5C6804F50054B4F1807F0FD80422C4
:100320000121094802F008FC20B90848BDE838401E
:1003300002F09EBD446002F03BFC01232B7038BDEF
:10034000682100205421002018210020C419002019
:1003500030B50D468DB09AB94B88012B0CD1164C97
:10036000227822B97846154B1B683BB19847144B4D
:100370006A685A60002323700DB030BD00DEF6E7D6
:10038000032A04D078460D4B1B6893B198472C2262
:10039000002101A808F0D8F90E238DF80430094B8C
:1003A0000395DA681B69059201A80693FFF754FFCD
:1003B000E2E700DEEBE700BF682100204C480020A8
:1003C000542100201821002070B502F073FDD8B12F
:1003D00001F09EF9002211461C481C4C02F076FBED
:1003E00000263546B0B91A4C05B10EBB0023236078
:1003F000A3602373FFF76CFF23686360FFF784FF3C
:10040000BDE8704001F0ACB901F07CFA0028DCD006
:1004100020BFDAE74388012B08D0022B00D1051D4D
:1004200002460021204602F051FBDBE7061DF7E7FC
:100430002B68A3602B792373B54203D92B790BB9B1
:100440002060D9E733682360D6E700BF1821002079
:100450005421002008B502F06BFDA0F5805008BDC6
:100460007FB500211822684608F06EF90023029338
:10047000FFF7F0FF0123009001936946054B064802
:10048000039302F0D1FB10B1044802F0F1FC07B075
:100490005DF804FB5103020018210020E41900203C
:1004A00008B5142200210B4808F04EF900F058FD61
:1004B000094B0A4A9A600A490A4A5860DA601846A3
:1004C00000221A615A610A7000F066FCBDE808401B
:1004D000FFF7C6BF542100203C210020D9050200AF
:1004E000692100200087930330B58DB001F010F929
:1004F000144B1A7B1D461ABB9A7B0ABB1A8A41F21F
:1005000082639A4202D8104B1B78CBB101232B7324
:10051000AB6800240133AB602C82FFF7D9FEAB68D7
:100520002A7B8DF80820013B0CA80393022300F8D6
:100530002C3DFFF791FE01F013F920460DB030BDC0
:100540000824F8E7542100206921002010B58CB060
:1005500001F0DEF81D4B5A7B42B1997BA9B9188A8C
:1005600041F28261884201D8194A127802F00104EE
:100570008AB1197B00225A7349B1012910D07846FB
:10058000144B1B68FBB1984705E00022EEE7FFF72C
:10059000ABFF0028F3D101F0E3F820460CB010BD0A
:1005A0001A605A601A731A820CA89B68039302237C
:1005B00000F82C3D8DF80820FFF74EFEFFF788FE6F
:1005C000FFF7A2FEE7E700DEE5E700BF54210020C9
:1005D000692100204C48002038B5194C257B3DB1DD
:1005E000012D14D07846174B1B683BB3984721E088
:1005F000228A41F282639A4202D8134B1B78CBB114
:10060000FFF7A4FF638A0BB1013B638238BD238AE5
:1006100041F28262934202D80B4A157855B142F2F8
:10062000B012934282BF012300256373FFF78EFF50
:10063000002DE7D0238A01332382E3E700DEF9E7C8
:10064000542100204C4800206921002038B5164C68
:1006500094E80C009A4205461FD2207B1349144BA4
:10066000012808BF0B46934207D963682268403BC4
:100670009A4208D3FFF748FE05E001236373FFF7B2
:1006800065FF0028F1D0EFF3108072B623685A1C82
:1006900022602B6028B962B638BDFFF735FE0F2007
:1006A00038BD002038BD00BF5421002000E0FF000D
:1006B000FFFF7F0010B50E4C30B10E4B01229A7334
:1006C00023681344236010BD236823B978460A4B7E
:1006D0001B6853B198472368013B23603BB9054A27
:1006E0009373BDE81040FFF731BF00DEF3E710BDA4
:1006F00014210020542100204C48002070B5234CC8
:100700008CB005460E4601F003F8237B002B37D151
:10071000638A53BBA3682EB9AB4206D301F020F81D
:100720000CB070BD01339D4221D9A3682A339D428C
:10073000F4D8A37B002BF1D142F60652236063600C
:100740002382628263732373A560FFF7C1FDFFF705
:10075000DBFD237B8DF808300CA80223A26800F88B
:100760002C3D0392FFF778FDD8E7002ED6D0A36882
:1007700001339D42D2D101236373FFF7E7FECDE73A
:10078000012BCBD1002EC9D1A368F2E75421002060
:10079000014B9868704700BF54210020034B1A7B1F
:1007A0009868012A08BF00F1FF30704754210020EB
:1007B000044B9B685840C20748BF03F1FF331846FB
:1007C000704700BF54210020014B187B704700BFC9
:1007D0005421002010B1800B014B185C704700BF02
:1007E0009B92020012DF704713B5137863B1042B9C
:1007F0000CBF0723002310F8011C292962D005D85B
:10080000162973D002B010BD537DF4E72A2927D0F2
:100810002B29F7D1022BF5D110F8021C0139C9B2EE
:1008200002F0EEFB04460028ECD0374B1B685B0659
:10083000E8D5364B1B68012BE4DD2F21344808F046
:1008400073F8002849D02F21314808F06DF8411C79
:10085000304B314AD3F80435009201949A2224E0B7
:10086000022B01D0072BCDD110F8021C013901F069
:10087000A1FA04460028C5D0234B1B685A06C1D5EF
:10088000224B1B68012BBDDD2F21214808F04CF8BD
:1008900078B12F211E4808F047F8411C1D4B1F4A14
:1008A000D3F80435009201948722022001F04AFD1A
:1008B000A8E75C21164808F037F808B15C21E9E7A1
:1008C0001349EBE7022B9DD110F8021C0139C9B284
:1008D00002B0BDE81040FFF749BB5C210C4808F0AE
:1008E00023F808B15C21AFE70949B1E701884FF669
:1008F000E463994286D110F8021C0230033902B039
:10090000BDE81040FFF732BB041A0020001A002097
:100910009F92020000B00040E4920200BB920200ED
:1009200070B58AB004F0B4F90446002834D000232E
:100930008DF8103006460FCE05AD0FC533682B601D
:10094000627D052A0CD9207D00F00F03072B07D00C
:1009500004AB063A04F11D0100F00F0003F030F97A
:10096000114B1A68AAB104AB0393237DC3F30303AD
:100970008DF80430637D062B89BF063B00238DF87C
:10098000053004F11D0398BF8DF80530029301A8CE
:100990009047204604F060F904F092F980F00100DD
:1009A000C0B20AB070BD00BF6C210020F7B5334F54
:1009B0003A780546002A57D1002857D0304B067B9D
:1009C00042681A60002E53D00F2E01D0072E4FD848
:1009D00004F06AFA0DF10700FFF704FF044600284F
:1009E0003DD19DF80730012B44D104F071FA00F09D
:1009F000C1F9304600F050FE2B78012B32D1E87857
:100A000000F078F800F09CFD03F04AFC1D4804F06B
:100A10000DFA03F07FFA06F0D7FD02F023F803F099
:100A200047F8284601F0C2F8284605F0B5F902F06B
:100A300077FE42F2107002F07DFA284606F056FC6E
:100A4000FFF794FA08B1062816D100F0AFFB0E4864
:100A500003F088F80D4B00221A6001233B702046FA
:100A600003B0F0BDFA20CDE70824F8E70E24F6E73E
:100A70000724F4E70224F2E70446F0E76B210020A4
:100A80004C48002021090200F41900206C210020AC
:100A900038B50E4B1B78B3B10D4D2A789AB900F0DA
:100AA00073FD20B178460B4B1B6853B1984703F098
:100AB0000DFC044618B904F0B7F801232B7020464A
:100AC00038BD00DEF3E70824F9E700BF6B21002002
:100AD0006A2100204C4800200020704708B500F033
:100AE0000DFD002008BD0000014B1860704700BFDD
:100AF0006C21002007289ABF024B33F81000FA201F
:100B0000704700BF1093020010B5037804463BB154
:100B10000378062B04D078460A4B1B6873B19847BC
:100B2000636923B17846074B1B684BB19847012393
:100B30002370054B5A6862615C6010BD00DEEFE710
:100B400000DEF4E74C480020742100202DE9F84332
:100B5000174EDFF8609035464FF0000834680CB14E
:100B6000AB680BB9BDE8F8832778FFB2FB1E012BF9
:100B70001AD863693360EB68C4F814805A1EEA60BF
:100B800023B97846D9F8003063B19847AB68032F92
:100B900003F1FF33AB6084F80080DFD12046FFF71C
:100BA000B3FFDBE700DEF1E704F11406D6E700BF90
:100BB000742100204C480020014B186800F01EBE34
:100BC0007021002070B54369054623B17846154B66
:100BD0001B68BBB19847144B1A682AB11A686C6835
:100BE0005268A21A002A0FDA1A686A611D60DA6870
:100BF0000132DA60AAB978460A4B1B6883B1BDE8B6
:100C00007040184700DEE6E719684A691AB1506873
:100C1000001B002802DB6A614D61E8E71146F4E73A
:100C200000DE70BD4C48002074210020F8B50F4D47
:100C30000F4F00266B6803B9F8BD6C6863696B6081
:100C400023786661052B01D12670F3E72378012B09
:100C500003D078463B6833B198470223237020467F
:100C6000FFF7B0FFE6E700DEF7E700BF74210020E2
:100C70004C4800202DE9F041FFF768FFFFF7D6FF51
:100C800000F06EF9384FDFF8E88006463D463B68D5
:100C900023B13B685B689B1B642B1FD400F060F999
:100CA0002B68C3B12B685B68C3F16403C34243BFC5
:100CB00029682E4A49682D4A56BF00F16401022373
:100CC0000223012000F002F928B17846284B1B6866
:100CD000002B46D098470120BDE8F0813C6823787E
:100CE000022B04D07846D8F8003043B398476369A4
:100CF0002B6000236361EB685A1EEA6023B97846D3
:100D0000D8F80030EBB19847A36823B97846D8F8F3
:100D10000030C3B198470623216923703046A36889
:100D2000984700F01DF90646FFF710FFFFF77EFF1A
:100D30002378062BABD1E2683AB92270A7E700DE30
:100D4000D5E700DEE0E700DEE5E763681344991BC2
:100D50006429FBD46360022323702046FFF732FF2F
:100D600095E700DEB7E700BF74210020B90B020051
:100D70004C48002008B510220021044807F0E4FC8C
:100D8000034800F013FD034B186008BD74210020D8
:100D9000750C02007021002038B5044620B9784651
:100DA0000F4B1B68BBB19847A36823B978460C4B1F
:100DB0001B6893B19847EFF3108572B60023636107
:100DC0002046FFF7A1FE05B962B6064B1868BDE8DC
:100DD000384000F013BD00DEE6E700DEEBE700BFC1
:100DE0004C4800207021002038B5044620B97846D0
:100DF000134B1B685BB19847EFF3108572B62378ED
:100E0000062B06D10023237005B962B638BD00DE7B
:100E1000F2E72378012B01D10523F4E72378002B97
:100E2000F2D02378033B012B81BF064A936801333C
:100E3000936004232370044B186800F0DFFCE3E7A1
:100E40004C480020742100207021002070B50D4610
:100E5000044620B97846164B1B689BB19847EFF3C0
:100E6000108672B6237813B12378062B0CD1204656
:100E7000FFF74AFE0F4B6560186800F0BFFC06B92B
:100E800062B670BD00DEEAE72378012B02D023783A
:100E9000052B02D101232370ECE72378033B012BC0
:100EA00081BF054A9368013393600323F3E700BFD2
:100EB0004C4800207021002074210020024B1B6848
:100EC00003B962B6704700BFA8210020022838B5D8
:100ED00031D803F003049C422FD1EFF31083184D57
:100EE0002B6072B6174B43F82020174B43F82010A5
:100EF000164B1C54164B002243F82020154B1B7830
:100F0000ABB1154B1B68CC1A48BF5C1A830003F1C8
:100F1000804303F500430022C3F840211030012232
:100F200002FA00F00D4AC2F80403C3F84045FFF787
:100F3000C5FF002038BD072038BD0A2038BD00BFDE
:100F4000A8210020882100209C210020842100204D
:100F5000B021002094210020982100200080004032
:100F600008B5EFF310830B4A136072B60A4B1B7877
:100F70006BB10A4B0022C3F84C210122DA64D3F88A
:100F80004C05074B1B681844FFF798FF08BD054B3D
:100F90001868F9E7A8210020942100200080004073
:100FA00098210020AC2100202DE9F047DFF888903F
:100FB000DFF888A000244FEA840808F1804505F591
:100FC0000045D5F84031FBB1D9F8043304F11002E3
:100FD00001269640334217D058F80A7027B9784650
:100FE000134B1B68ABB1984700234AF80830C9F887
:100FF0000863FFF7B5FF0F4BE35C9B0701460AD57B
:10100000B8470023C5F840310134032CD3D1BDE8E3
:10101000F08700DEE8E7384600F062FB0028F0D0F9
:101020007846034B1B680BB19847EAE700DEE8E718
:101030004C480020842100200080004088210020AE
:101040002DE9F843334FDFF8F09005460026B84607
:10105000B40004F1804303F500430022C3F84025A7
:10106000C3F84021D3F840313A6859F8263005F1E9
:101070007801981A48BFD01AB1EB020E48BFA2EB14
:10108000010E8645244A2ED913593BB10021115136
:10109000224AB25C920719D528469847204BE2585D
:1010A0001AB1012111600022E2500136032ECFD186
:1010B0001C4B1B681BB91C4B4FF480721A601B4BF6
:1010C000C8F8005001221A70BDE8F8832946184676
:1010D00000F006FB0028E1D07846154B1B68002B7A
:1010E000DBD100DEDAE71259002ADED004F18044B9
:1010F0005A1B04F5004448BFEA1A0023C4F84031E3
:1011000006F1100101238B400A49C1F80433C4F8E9
:101110004025CAE798210020882100208421002052
:10112000B0210020A821002000E100E0942100204F
:101130004C480020008000409C21002070B5002316
:101140000F49104C104D1A465E5CF60742BF5A54C8
:1011500044F8232045F823200133032BF4D10B4B13
:1011600018600B4B00221A700A4B4FF0FF32C3F885
:101170000823094B4FF48072C3F8802170BD00BF73
:101180008421002088210020B0210020AC210020F3
:10119000942100200080004000E100E0024A136832
:1011A00001331360704700BFBC2100200A4A10B50C
:1011B00000230A4C13600A4AA2600A4AE2602361D3
:1011C000FFF7CEFE00F5C330A03060602046BDE8DA
:1011D0001040FFF7E1BD00BFBC210020C02100206E
:1011E0009D110200A08601002FDF704730DF70479D
:1011F00010B5034605C89C68D968A0EB721082EA56
:10120000F4320C44014410441A605C609960D86068
:1012100010BD000037B50C46054620B97846104B86
:101220001B682BB198470023A34203D303B030BD02
:1012300000DEF8E70DF10700FFF7D6FF9DF8071075
:101240000029F7D0E21A914288BF8DF80720E818EC
:101250009DF80710FFF7CAFF9DF807201344E3E746
:101260004C48002037B5044602A8002340F8043D4E
:101270000421FFF7CFFF074B2360019B6360A3604E
:10128000E36014252046FFF7B3FF013DFAD103B018
:1012900030BD00BFED5EEAF145DF704746DF7047C5
:1012A00047DF7047064A032313751168054B9361A6
:1012B00040F6D862914288BF43F2B0629A607047AC
:1012C000D8210020F8210020064A13685068064AF9
:1012D00012681844283278385343044AB3FBF2F3B7
:1012E000C01A7047D8210020F421002040420F008E
:1012F00010B52B4B30B11A69996901321A611A681D
:101300000A441A60D96801221A759A690131520893
:101310000129D9609A610CD0022918D099691A68FC
:1013200020480A44824227D840F6D762914223D906
:1013300010BDB2F5FA7F03D130B900229A61EDE712
:1013400040F6D8618A42E9D840F6D862F6E71A69D1
:10135000022A03D11968134A521AEFE7012ADDD194
:101360000028EAD0DAE778460F4B1B6813B1BDE8D6
:101370001040184700DE10BD012258685A72002440
:101380001C75FFF75DFE03F07FF8FFF79DFF032359
:101390000146064A2046FFF799FD0028E3D110BD1B
:1013A000D8210020809698004C480020A512020009
:1013B000F8B5484C484D012323722B781BB1474B9D
:1013C0001B78002B68D00023237504285CD8DFE845
:1013D00000F0035653514D00414AE3602361D2F8B7
:1013E0000405A27A3F4D002162B3A37223686268AC
:1013F000C5E90001134401213B4A6360217523685C
:101400003A4992682260002B08BF0B46991AB1F541
:101410007A7F27D39A4225D8A161237D023B012BF5
:101420000CD8637A3BB103F051F8FFF74DFFFFF79B
:1014300085FE00236372294B00221A700023237259
:101440002B48F8BDD5E90023DFF8ACE0821A22F082
:101450007F420023A2FB0E670EFB0377F30B43EAE8
:101460004743C4E74FF47A73A361D6E70120FFF73F
:101470003FFFD2E70020FAE702F0BCFFCDE7FFF71D
:1014800093FD02F0E9FFC8E778461A4B1B680BB1E1
:101490009847C2E700DEC0E7FFF762FD6368C01A45
:1014A0002B782060012B07D0022B0BD07846114BF4
:1014B0001B6863B1984702E002222275A3720023E1
:1014C0002B70AAE703232375074BA361F7E700DE20
:1014D000F5E700BFD82100200922002008220020C3
:1014E00000B0004010220020F821002080969800D3
:1014F000EC2100204C48002040420F00043810B579
:10150000032817D8DFE800F00C130502FFF7C6FE2A
:1015100080B17846084B1B685BB1BDE810401847A6
:10152000064840F6D8638360FFF7BAFEF0E7034849
:10153000FAE700DE10BD00BF4C480020F821002073
:101540000C4A10B543F2B06400239460012143F6C5
:101550009824137013715171D460074A1060074AC0
:101560001370074A1370074A137253721360917213
:10157000536010BDF8210020F42100200822002033
:1015800009220020D821002008B50548FFF784FE75
:1015900020B90448BDE80840FFF782BE08BD00BF7F
:1015A000B1130200F8210020064B1B7D032B07D04E
:1015B000054B1878013801288CBF002001207047A6
:1015C00001207047D821002009220020014B5868D3
:1015D000704700BFD821002010B5064B587A40B1A3
:1015E000FFF772FE0446FFF7BBFC0346201A48BF14
:1015F000181B10BDD8210020014B187A704700BF7E
:10160000D8210020EFF3108372B6054A527A22B136
:10161000044A4FF48071C2F8001103B962B67047F2
:10162000D821002000E100E0024B01221A70FFF7F0
:10163000E9BF00BF09220020074A13782BB140B947
:10164000064B1B78003318BF012310701BB1FFF746
:10165000D9BF0023F9E770470822002009220020A3
:10166000044B1B780F2B1EBF034B4FF48022C3F893
:10167000002170475823002000E100E008B5014632
:10168000044805F0E1FD10B9FFF7EAFF08BD0420AA
:1016900008BD00BF1822002010B50C4C0C4B207068
:1016A0000C48036010234360836005F0A5FD0A48E1
:1016B00006F078F823780F2B07D0084A5B01DBB2DD
:1016C00082F812334FF48023136010BD582300209A
:1016D0002C220020182200205C23002000E100E0E2
:1016E00030B50D4685B0044620B97846074B1B68D7
:1016F00053B19847002368468DF800300194029555
:10170000FFF7BCFF05B030BD00DEF3E74C4800201A
:1017100010B5EFF3108472B60D490A68531C0B60C4
:101720005AB90C4B1B780F2B04D00B4B4FF4802273
:10173000C3F8802004B962B610BD002BFAD17846F8
:10174000064B1B680BB19847F4E700DEF2E700BFD9
:101750002C2300205823002000E100E04C4800200A
:1017600038B5EFF3108572B60C4C236823B9784670
:101770000B4B1B687BB198472368013B23603BB947
:10178000084B1B780F2B1EBF074B4FF480221A60AB
:1017900005B962B638BD00DEEEE700BF2C2300209D
:1017A0004C4800205823002000E100E038B50546F1
:1017B00020B978460E4B1B68ABB198470D4C236897
:1017C000072B04D978460A4B1B6873B19847EFF38F
:1017D000108372B62068421C2260074A42F82050EB
:1017E00003B962B638BD00DEE8E700DEEFE700BF10
:1017F0004C480020302300203423002010B5104B2B
:101800001B688342044604D878460E4B1B68A3B17C
:101810009847EFF3108172B60B4A6009012304F078
:101820001F0403FA04F452F82030234342F8203016
:10183000FFF716FF01B962B610BD00DEE9E700BF91
:10184000302300204C4800205423002070B50D4662
:101850001646044620B978460C4B1B688BB1984756
:1018600025B97846094B1B686BB19847EFF3108395
:1018700072B60022A560E6602274246003B962B6E5
:1018800070BD00DEECE700DEF0E700BF4C48002052
:1018900070B5044620B97846114B1B68D3B1984700
:1018A000A36823B978460E4B1B68ABB19847EFF39A
:1018B000108672B6237C03F0FF057BB9012309482B
:1018C0002374214605F07EFFFFF7CAFE284606B9BD
:1018D00062B670BD00DEE3E700DEE8E71120F6E760
:1018E0004C4800205C23002010B5044620B97846FF
:1018F000034B1B6813B19847207C10BD00DEFBE74B
:101900004C4800202DE9FF47384E337823B1784604
:10191000374B1B6813B398470125DFF8E480354F38
:10192000DFF8E09035700024D8F800309C4217D3DF
:1019300031482F4FDFF8C09005F068FF4FF00008E6
:1019400068BB2E4C6946204605F0A6FC002838D01E
:1019500000232846337004B0BDE8F08700DEDBE7E3
:10196000600904F01F020123934057F8202013421E
:1019700013D0EFF3108172B657F8202022EA030348
:1019800047F8203001B962B659F8243098478246AA
:1019900018B92046FFF732FF55460134C4E7046802
:1019A000237C1BB978463B684BB19847E068A36835
:1019B000984784F81080484605F028FFC0E700DE0D
:1019C000F4E79DF80030012B09D008D3022BB9D1E0
:1019D000019B002BB6D0039902989847B2E7019B70
:1019E000002BAFD002989847ACE700BF64230020DB
:1019F0004C480020542300205C23002018220020A3
:101A00003023002034230020FFF77CBF70B506464A
:101A100088B00D4614460021052204A806F094FE65
:101A2000336907221BBAA9180DF11900CDF815303A
:101A300006F07FFE70696A46113004A905F021FFA7
:101A4000AB1D0DF10600E21D13F8011910F8014D50
:101A5000AB4281EA040102F8011DF5D108B070BD66
:101A6000F7B50546002755F80C1B8368C97A06466A
:101A7000B94202AA14BF0824042403F1090042F861
:101A8000047D73682946204401F0DEFB002800F045
:101A90008880737B012B16D00120FEF70BFE346883
:101AA000FEF77CFE206130680C30FEF7CFFD044667
:101AB0003846FEF7FFFD34B10199284601F048FC95
:101AC000204603B0F0BD3568019C2889FEF782FEF0
:101AD000012805D07846344B1B68002B57D0984717
:101AE00095F90A30002B05DA78462F4B1B68002B3E
:101AF0004FD09847EB68B3F1807F05D378462A4BE7
:101B00001B68002B47D098472B782BB97846264B7B
:101B10001B68002B41D098476B692BB97846224B44
:101B20001B68002B3BD098472B6903F001022378F8
:101B300003F07F0343EAC21323706A69127823F02B
:101B40007F0302F07F02134323706378EA7A03F085
:101B50007F0343EAC213DBB26370AA7A23F07F03E8
:101B600002F07F0213436370EB6823711A0CA270BA
:101B70001A0AE2702B89A3711A0A62716B882372A8
:101B80001A0A019BE27109333361002498E700DEF1
:101B9000A6E700DEAEE700DEB6E700DEBCE700DE6B
:101BA000C2E704248CE700BF4C48002008B5084B6E
:101BB00058B91860074B01221A70FEF771FCFEF746
:101BC00003FCBDE8084001F077BE82681A60F1E7C7
:101BD000682300206C23002010B50C46E1B1A0F56D
:101BE000C87004281AD8DFE800F0080F03151300A6
:101BF000012001F09DFF606002E0094B1B784B6003
:101C000004232360002010BD012001F07DFFF2E7D6
:101C10000020EEE70020F8E70E2010BD052010BDE3
:101C20006C23002010B5044620B97846104B1B6881
:101C3000C3B19847236823B978460D4B1B689BB105
:101C4000984723685B6923B97846094B1B686BB1D9
:101C5000984701232373002363732046BDE8104097
:101C6000FFF7FEBE00DEE5E700DEEAE700DEF0E7B4
:101C70004C48002070B5044690B028B97846474BD0
:101C80001B68002B79D0984723692BB97846434BC2
:101C90001B68002B73D0984723682BB978463F4BBD
:101CA0001B68002B6DD0984723685B692BB9784679
:101CB0003A4B1B68002B66D0984703AD00222B4699
:101CC0001146206805F0E6FD22682369D17A0029D3
:101CD00014BF082104218DF83C1051690895013189
:101CE0000791A168023189B2A3F10906023B0025E0
:101CF00009930D9307A80B440E93ADF82810ADF887
:101D000030500B9505F0C1FD324620683146FFF793
:101D10007DFE216904F10C00093901F0D9FA05238F
:101D20008DF81C30A3688DF81E3007A823698DF844
:101D30001D50089303F0A4F80446E0B1184B1B684B
:101D40009B0618D5174B1B68012B14DD2F21164855
:101D500006F0EAFDC8B12F21134806F0E5FD411C4D
:101D6000124B134AD3F804350092019440F27F22BB
:101D7000022000F0E7FA10B070BD00DE84E700DE5C
:101D80008AE700DE90E700DE97E75C21064806F070
:101D9000CBFD08B15C21DFE70349E1E74C480020B7
:101DA000041A0020001A00206093020000B00040D6
:101DB0007B9302002DE9F04FA9B004AF8A467A6008
:101DC0000446002800F0C9810146012207F14C00B9
:101DD00006F0AFFC2078E31D00257B6707F124099E
:101DE00007F15303C009C7F88430A7F88050FD6796
:101DF000C7F87090FEF7DCFC2378786403F07F036B
:101E0000BD64BB607D61BD6107F1180207F114017B
:101E1000B868B44DFDF7DEFE4FF0000B5FFA8BF3B0
:101E200007F1900202EB830353F87C3C1BB97B69FA
:101E3000002BE9D1E7E007F1340607F14C02214617
:101E40003046BB64FFF7E2FD97F84D3097F852003B
:101E5000DA0903F07F0387F83E3097F84F3087F8B0
:101E60003F2097F84E201B0243EA024397F8502088
:101E700013433B6497F8513040EA0320B887FEF7DC
:101E8000A9FC01283DD1AAF10903FB6097F83F3076
:101E9000FA68002B0CBF042308239A4231D3396C13
:101EA000B88F03F027F8002837D003233B770623A9
:101EB0007B7707F11C0007F14C0387F81EA03B62FB
:101EC00002F0DEFF0646E0B1874B1B68980618D586
:101ED000864B1B68012B14DD2F21284606F024FDBC
:101EE00090B12F21284606F01FFD411C804B814AEE
:101EF000D3F80435009201964FF49B72022000F053
:101F000021FA0BF1010B89E75C21284606F00CFD54
:101F100008B15C21E6E72946E8E707F11C01B88F24
:101F2000FDF798FF80460028EBD197F83F30002B53
:101F30000CBF04220822AAF1070387F88C209B1A01
:101F40007A6F9BB2A7F87830134401460246C7F86F
:101F5000883030464B4605F09DFCBB6C87F81C80F2
:101F6000013307F11C0107F16C00FB6605F08FFCE3
:101F70003B7F002BC5D097F8533097F854005A4C4C
:101F800040EA0320F886FEF725FC236887F8340032
:101F9000990735D5554B1B68032B31DDB7F8781001
:101FA000D7F884E04B00083323F00703E846ADEB95
:101FB000030D514B04ADD3F800C070462B46A0EB87
:101FC0000E02914203F1020320D8002305F81130DC
:101FD00044482F2106F0A8FC38B32F21414806F0D1
:101FE000A3FC411C424B454AD3F804350192444AB4
:101FF0000092029540F28512042000F0A3F9C54634
:1020000097F83430D3B94FF0000A5BE010F8012B99
:102010004FEA121A02F00F021CF80AA003F802ACF1
:102020001CF8022003F8012CC9E75C212D4806F0BA
:102030007BFC08B15C21D1E72A49D3E73B6CB3F1C3
:10204000807FE0D297F93E30002BDCDBBB6C2BB9F4
:1020500078462C4B1B68002B39D0984797F83F30B7
:10206000FA68002B0CBF04230823A2EB030B5FFAD2
:102070008BF507F155087B6832462946404603F048
:10208000DDFF214B1B788246C3B197F83E30012B10
:1020900014D997F83430012B05D107F16C01F88E73
:1020A000FDF7D8FE50B9194B1B68002B58D097F894
:1020B0003E20F98EB88F9847002851D1396CB88FDF
:1020C00002F036FF50469437BD46BDE8F08F00DE83
:1020D000C4E75C21034806F027FC08B15C217AE0E4
:1020E00000497CE060930200041A0020001A0020DE
:1020F00000B000407B930200081A002020930200E9
:102100006B9102004C4800206C23002068230020C3
:1021100023689B076ED53A4B1B68012B6ADD2F2184
:10212000384806F001FC78B12F21364806F0FCFB58
:10213000411C354B354AD3F804350092022040F259
:10214000AB1200F0FFF855E05C212E4806F0ECFBE6
:1021500008B15C21E9E72B49EBE74FF00E0AB1E744
:1021600097F83E30FE66013B87F83E3000233B6720
:1021700007F16C0001237D6787F8783087F87930A4
:10218000FFF76EFC06460028C2D12A464146F86F8A
:1021900006F0CFFA07F16C00FFF76CFD0423484608
:1021A00087F8243087F8256087F826B0C7F828809C
:1021B00002F066FE0546E8B123689A061AD5104B70
:1021C0001B68012B16DD2F210E4806F0ADFB002801
:1021D0003FF47FAF2F210B4806F0A6FB411C0A4BB2
:1021E0000B4AD3F804350092019540F2A712022061
:1021F00000F0A8F897F83E30013387F83E305DE7ED
:10220000001A00206093020000B0004033930200E7
:102210007B93020038B50D46044600B121B97846DB
:10222000054B1B6833B19847AC421EBF23682B6037
:10223000256038BD00DEF7E74C48002070B50C463D
:10224000054600B121B97846134B1B6893B19847F6
:102250002B689C4204D178460F4B1B6863B19847AA
:10226000286858B10C4E05685DB92146BDE870403C
:10227000FFF7D0BF00DEEBE700DEF1E72C60206067
:1022800070BDAC4203D17846336813B198472846F5
:10229000E9E700DEFBE700BF4C48002038B5054603
:1022A0000C4601B120B978460D4B1B684BB19847DD
:1022B0002B6893B19C4207D123682B6000202060DB
:1022C00038BD00DEF4E713461A6822B19442FAD111
:1022D00022681A60F2E7002CFAD0052038BD00BF52
:1022E0004C48002037B506AC184654F8045B009201
:1022F0000B4602460549002006F0B5F9224629465C
:10230000002006F08DF803B030BD00BFA993020095
:10231000034B1860034B1960034B1A60704700BFF2
:10232000041A0020001A00200C1A002070B4044C7B
:10233000246814B1A44670BC604770BC704700BFED
:102340000C1A002030B585B008AC54F8045B019439
:1023500000950394FFF7EAFF05B030BD0379427999
:102360009B1A00EB03307047431E9BB247F6FE6298
:10237000934208D849B14B8858400B8818420CBF8B
:1023800001200020704700207047012070470000A6
:10239000084B984210B5044603D303F58273984264
:1023A00004D97846044B1B6813B19847201F10BD11
:1023B00000DEFBE77C2300204C480020094B9842BC
:1023C00010B5044603D303F58273984204D97846C6
:1023D000054B1B681BB19847A4F10C0010BD00DE33
:1023E000FAE700BF7C2300204C480020820738B564
:1023F00004460D4604D078460D4B1B6873B19847D0
:10240000AB0704D078460A4B1B684BB1984725F0C0
:1024100003052544AC4205D1012038BD00DEEFE7BD
:1024200000DEF4E754F8043B0133F3D0002038BD5C
:102430004C4800201FB50124019003910292694687
:102440001A4620468DF8004005F018F904B010BD7A
:102450002DE9F041104D114F0146114804F04AFB9F
:102460006E684FF00008284605F0D0F9044640B1E8
:10247000C0F800808368C0689847A642F3D1BDE8E1
:10248000F08136B178463B680BB19847EBE700DE48
:10249000E9E7BDE8F08100BF842400204C4800201B
:1024A0007023002013B502A9002482B241F8044D24
:1024B000044804F0A3F918B90198043002B010BD23
:1024C0002046FBE77023002008B5FFF761FFBDE859
:1024D000084001460288014804F01EBA702300201B
:1024E000014B1868FFF78AB98C24002010B50388C7
:1024F000044623B978460B4B1B688BB1984720885C
:10250000094B04EB800030EA030203D06288B2F585
:10251000FE4F04D11C4004F580542078204410BDA7
:1025200000DEECE74C48002000F0FFFF70B50468C7
:10253000237805461C4400214FF6FF762868FFF7F4
:102540000DFF844202D26388B34201D1084670BDB8
:102550002046FFF7CBFF21460446EFE72DE9F04F79
:102560009D4E9E4D89B034462A783378022A14D184
:10257000032BFDD8DFE813F004003E001100C50175
:1025800008A9002341F8103D954804F047FA014698
:1025900038B1944B1B6803B19847012009B0BDE8DE
:1025A000F08F049F904B97F808903A1D1A60012312
:1025B00099452370D8D8D7F80480D8F80C00FFF7D5
:1025C000CDFED8F81430C01AD8F80830C01AB9F1C6
:1025D000000F01D1398A89008142C5DBD8F8043067
:1025E000002BC1D0032388F8003078682B7004F0EA
:1025F00091FDB9E77C4B1F6809238DF810303B79BA
:102600008DF8113004A800238DF81230059302F0E4
:1026100037FC8046E8B1754B1B689B0619D5744B97
:102620001B68012B15DD2F21724806F07DF9D8B10A
:102630002F21704806F078F9411C6F4B6F4AD3F890
:1026400004350092CDF804804FF424720220FFF785
:1026500079FE3B79042B00F2B680DFE813F00E0020
:102660009500DD0007013B015C21624806F05CF942
:1026700008B15C21DDE75F49DFE73B68D3F80C80F8
:102680004046FFF76BFE98F80030FA89014608EBE8
:10269000030000F065FD3B68D3F8089029F47F68DB
:1026A00028F00F0808F5805BB7F80C80ABEB090148
:1026B0004FEA8808414582463ED9C844394600233E
:1026C00031F80C2F48469200FFF7B4FE28B1784647
:1026D0004B4B1B68002B51D098474A4B4A49042268
:1026E0004046FFF7A7FE28B17846454B1B68002BF4
:1026F00046D09847BAF1000F13D03A68BAF80010E4
:10270000536803EB8103536040493E4B042250461B
:10271000FFF790FE28B17846394B1B68002B31D06B
:102720009847C7F808900023394A1370002B40F0EF
:10273000E6800223237017E7D868FFF70FFE834572
:1027400000F0D980414503D19BF80080D844B5E71B
:10275000002304222F494846FFF76CFE20B178463B
:10276000274B1B6843B198479BF80090B7F80C8043
:10277000D94409EB8808A1E700DEF5E700DEACE705
:1027800000DEB7E700DECCE73B68D3F80C804046BC
:10279000FFF7E4FD98F80030FA89014608EB0300E2
:1027A00000F0DEFC002800F0A8803A68B8600188DC
:1027B000536803EB810353601449124B0422FFF763
:1027C00039FE0028AFD078460D4B1B68002B00F077
:1027D00090809847A7E700BF802400209424002021
:1027E000702300209024002098240020041A002048
:1027F000001A0020DC93020000B000407B9302002E
:102800004C48002096240020D8930200D093020068
:102810009C240020D49302003B6897F80D80DB686D
:1028200003EB083808214046FFF7E0FD20B10822FD
:102830007D4BB9184046C2E77C4A08F1FF3A07F1E0
:10284000070907F10F0B1AF8013F19F8011F994208
:1028500007D0FF2B05D0784613682BB10392984719
:10286000039ACB45EFD1E2E700DEFAE738680C3097
:10287000FFF75CFE804620B978466C4B1B682BB393
:102880009847B8F802305BB1674B6949042240466B
:10289000FFF7D0FD20B17846644B1B68C3B1984761
:1028A0004046D7F80090FFF721FEC9F808003968C4
:1028B000C868FFF753FD8B688342BFF434AF4046CE
:1028C000FFF714FE584B5B49042278E700DED8E797
:1028D00000DEE5E73B68DA681B69059202211B030D
:1028E0008DF81010504A069304A9012004F0C6FE8A
:1028F00067E700DE18E7012316E7022314E7032346
:1029000018E74D4F3B6823B97846484B1B68CBB15D
:1029100098474A4B3F6893F80080B8F1000F24D1E4
:102920003B79D7F80890012B16D00DD3022B1FD07E
:102930003B79D7F800A0042B3BD8DFE803F0214314
:102940004C3A600000DEE4E73946484631F80C2F87
:10295000920005F0DFFE01E0B9F80200B0FA80F065
:1029600040090028E4D14FF0030807F10C09DFE724
:102970003B68787BDB680822B91803EB0030E8E796
:10298000B8F1000F0ED1B868FFF7B0FDCAF8080023
:10299000428847F6FF739A4204D07846234B1B685F
:1029A00073B19847DAF818301BB142464946504691
:1029B00098473846FFF7ECFCFFF74AFD0023B9E6DD
:1029C00000DEEFE7DAF81C30002BF2D04246F9893E
:1029D00050469847EDE79AF80030012B04D078462E
:1029E000124B1B684BB198473B7B7A7B013B9A4269
:1029F000DFD102238AF80030DBE700DEF4E7B8F12C
:102A0000000F04D07846094B1B6853B19847002348
:102A10008AF80030DAF82030002BCAD050469847A8
:102A2000C7E700DEF3E700BF962400204C480020F3
:102A3000D0930200D8930200982400209C24002008
:102A4000064B1B88934207D1054B1A78022A03D103
:102A500003221A70FFF782BD704700BF9624002042
:102A60008024002008B54FF482720F490F4803F00C
:102A700055FE0F49012004F0EBFD0E48FEF796FECF
:102A80000D4B0E4A1860002313700D4A0D48138039
:102A900004F088FE04F0EAFA0B4B10B103221A701E
:102AA00008BD0222FBE700BF7C230020702300202A
:102AB000412A02005D2502008C2400208024002091
:102AC00096240020842400209424002070B50E4613
:102AD0001446054620B97846164B1B6833B1984713
:102AE0002B78022B04D00024204670BD00DEF7E7CF
:102AF000E86894B904780444E868FFF72FFC0546B9
:102B0000AC42F0D231466088FFF72EFC0028EBD1B2
:102B10002046FFF7EBFC0446F2E7037803449C42AF
:102B2000E1D3FFF71BFC8442DDD82046FFF7DEFC33
:102B30000446E1E74C48002070B50E4614460546B1
:102B400020B97846194B1B68D3B19847731E9BB2C6
:102B500047F6FE62934208D947F6FF739E4204D0BF
:102B60007846124B1B686BB19847802C04D9784685
:102B70000E4B1B6843B198472B783BB9002070BDC2
:102B800000DEE3E700DEF0E700DEF5E704F1100029
:102B9000FFF788FC0028F1D00334A4080023013497
:102BA0000371C681848140F80C5B70BD4C480020E5
:102BB00008B5FFF703FCFFF787FCBDE80840FFF707
:102BC0008FBC000038B50C46054620B97846154B39
:102BD0001B6803B39847631E9BB247F6FE6293429D
:102BE00008D947F6FF739C4204D078460D4B1B680A
:102BF0009BB198471020FFF755FC80B1012202716C
:102C00004FF6FF72C48182810560FFF75DFCFFF71C
:102C100067FC002038BD00DEDDE700DEEAE70420C7
:102C200038BD00BF4C4800202DE9F0470023037059
:102C30000B68C3F30B0304460D4623B178468B4B58
:102C40001B6823B398476B68FE2B04D97846874BE3
:102C50001B68F3B1984704F10C0700261822294697
:102C60003846DFF8088205F064FDA66066602369D7
:102C7000E5689E420FD32846FFF770FB2B78DFF8FC
:102C8000ECA181461D44002647F6FF782EE000DEC9
:102C9000D9E700DEDFE74FEA063905EB090115F851
:102CA0000930083BDBB2F62B06D84A79FF2A03D05D
:102CB0000B79FF2B40F0C1800123237000256B4F5F
:102CC0004FF0100885E000DEC0E000DECBE013B975
:102CD0002B8806EB83062846FFF708FC814505464E
:102CE00004D87846DAF8003043B398476B88C3F3CA
:102CF0000E024245EBD166603846FFF717FCA06034
:102D0000F0B9E3681A781344A3600223E5682370DE
:102D10002B781D44A3689D420DD22846FFF7E6FBA1
:102D2000A368984206461DD16A88531E9BB247F697
:102D3000FE618B421BD90020BDE8F08700DED5E79D
:102D400043884345E1D00820FFF7ACFB10B90420CD
:102D5000BDE8F087032202710460FFF7B5FBFFF7BF
:102D6000BFFBD2E73046FFF7C1FB3546D8E7E36843
:102D700018782946184400F0F3F90028DBD0854282
:102D8000D9D041882046BDE8F047FFF71BBFE06877
:102D90002E03304440F6FC710430FFF727FB08B3E4
:102DA0001020FFF77FFB0028D1D0022202710822F9
:102DB00002720422427280F80B8080F80A80457308
:102DC000226902734FF6FF72C2810460FFF77CFB39
:102DD000013523699D42DAD3FFF782FBE3680833AC
:102DE000A360A8E7E3689A199B5D083BDBB2F62B6A
:102DF00005D85379FF2B02D01379FF2B05D17846E4
:102E00003B680BB900DE00E09847E36833445B7928
:102E10009D4203D078463B685BB19847E3681E4407
:102E2000236932799A42D3D078463B681BB19847E0
:102E3000CEE700DEF2E700DECAE7964206D078462B
:102E4000D8F80030002B3FF43EAF9847E3684B447E
:102E50001A7923699A4206D07846D8F80030002BB8
:102E60003FF433AF9847013601E700BF4C480020DC
:102E700010B5044620B978460C4B1B6883B19847BF
:102E8000A36823B97846094B1B685BB19847236850
:102E900053B9246021460648BDE8104004F092BCB6
:102EA00000DEEDE700DEF2E710BD00BF4C48002079
:102EB0008424002008B5074803F0DCFD38B904F08D
:102EC00021F980F00100C0B200F0010008BD00202F
:102ED000FAE700BF7023002038B50446A8B1C568E2
:102EE0002846FFF73BFA2B78014647F6FF72E818B1
:102EF00000F036F9A06020B978460A4B1B687BB118
:102F000098470223237000236360074B074902227E
:102F100001201A7004F09CFBBDE83840FFF7E0BACE
:102F200000DEEEE74C48002094240020412A0200F5
:102F300004F05CB9A0F164024EF6FC139A4210B59D
:102F4000044604D978460A4B1B687BB1984768232E
:102F5000084A0948002101F0E5F82146064801F039
:102F600091F80548BDE8104000F0DABF00DEEEE75A
:102F70004C480020A0240020082500202DE9F04125
:102F8000884616461F460446B0B1C2B1013B1B2B12
:102F900015D8FF2913D0BD1CEDB2691C00F0D6FF77
:102FA000044648B12B234574837480F813803A4655
:102FB0003146143005F0BDFB2046BDE8F081002409
:102FC000FAE7000010B5A1B1541E1B2C11D8FF2840
:102FD0000FD073B113460A4601460848FFF7CEFFEB
:102FE000014640B1FF230371044800F0F9FF0020BF
:102FF00010BD072010BD042010BD00BF0825002013
:103000002DE9F04184B00E4604AF9046054628B93C
:1030100078464A4B1B68002B6DD09847002E00F075
:103020008B802C78711EC9B2002C66D0012C6CD01C
:10303000434C2268D20519D5424B1B68012B15DD84
:103040002F21414805F070FC002863D02F213E4815
:1030500005F06AFC411C3D4B2A78D3F804350192F7
:103060003B4A009202209522FFF76CF92368DB05AA
:103070003FD5344B1B68032B3BDD30B24300083394
:1030800023F007036C46ADEB030D324BD3F800E0A1
:103090000DF110080DF111012A4612F8013F4FEA17
:1030A000131C03F00F031EF80CC001F801CC1EF82E
:1030B000033001F8023B531B9E42EED8002308F870
:1030C00010302F21204805F02FFC60B32F211E481F
:1030D00005F02AFC411C1D4B1F4AD3F80435019210
:1030E0001E4A0092CDF8088096220420FFF72AF9A4
:1030F000A5460B2006E000DE90E74246681CFCF780
:1031000035FF0020BD46BDE8F0814246681C00F056
:1031100003FCF6E75C210C4805F006FC08B15C21D5
:1031200095E7094997E75C21074805F0FDFB08B1E1
:103130005C21CCE70449CEE70920E3E74C480020B6
:10314000041A0020001A0020FD93020000B0004085
:1031500017940200081A00203D9402006B910200AF
:1031600088422DE9F84304460E46174604D97846AE
:103170001B4B1B682BB19847DFF86880DFF8609025
:103180001CE000DEF8E7238804EB83039E4221D98C
:10319000238823B97846D9F80030FBB198472388B3
:1031A00004EB830333EA080203D06288B2F5FE4FD2
:1031B00001D12B782B449E421C460BD96388BB421D
:1031C00009D004EA080505F58055AE42E0D8B3F50C
:1031D000FE4FD8D100242046BDE8F88300DEDEE7AC
:1031E0004C48002000F0FFFF20B1431E03420CBFFB
:1031F000012000207047000038B50446FFF7F4FFB7
:1032000020B978460B4B1B6883B1984700236408AC
:10321000DDB203F10103FAD125B17846054B1B68F5
:1032200033B19847044B53F8250038BD00DEEDE775
:1032300000DEF7E74C4800209C250020014B186079
:10324000704700BFA0250020F8B5064615461F466A
:103250000C4629B978461D4B1B68002B2CD098478B
:103260002DB97846194B1B68002B27D09847237837
:10327000012B04D97846154B1B680BB3984720786F
:10328000FFF7B2FF20B97846104B1B68D3B19847BF
:103290006378012B04D978460C4B1B68A3B198477F
:1032A0002078FFF7A9FF3A46036821463046984741
:1032B000286000B12078F8BD00DED1E700DED6E757
:1032C00000DEDCE700DEE3E700DEE9E74C48002053
:1032D00070B50D46044628B978461C4B1B68002B78
:1032E00029D098472DB97846184B1B68002B24D05D
:1032F00098472378012B04D97846144B1B68F3B107
:1033000098472078FFF770FF20B978460F4B1B686D
:10331000BBB198476378012B04D978460B4B1B68E7
:103320008BB198472078FFF767FF2946436820460E
:10333000BDE87040184700DED4E700DED9E700DEC4
:10334000DFE700DEE6E700DEECE700BF4C480020E8
:1033500070B50D46044628B978461C4B1B68002BF7
:1033600029D098472DB97846184B1B68002B24D0DC
:1033700098472378012B04D97846144B1B68F3B186
:1033800098472078FFF730FF20B978460F4B1B682D
:10339000BBB198476378012B04D978460B4B1B6867
:1033A0008BB198472078FFF727FF2946836820468E
:1033B000BDE87040184700DED4E700DED9E700DE44
:1033C000DFE700DEE6E700DEECE700BF4C48002068
:1033D000024B1B6803B11847704700BFA0250020AF
:1033E00038B505460C46FFF707FF28B178461B4B5A
:1033F0001B68002B26D0984724B97846174B1B68CA
:1034000013B39847236823B97846144B1B68EBB174
:103410009847636823B97846104B1B68C3B1984737
:10342000A36823B978460D4B1B689BB19847284683
:103430000023400803F101020ED1DBB2084A42F832
:10344000234038BD00DED7E700DEDBE700DEE0E743
:1034500000DEE5E700DEEAE71346EAE74C48002035
:103460009C25002038B50C680D4624B90348FDF7AB
:10347000BBFC2C6038BD013CFBE700BFE42500200D
:1034800010B51C4AC4891388A3428CB030D183681C
:10349000032B2DD193685BB35368B3F5803F3CBFDA
:1034A000013353604168007F04238DF804300B78AA
:1034B00003F07F038DF808300B78C0F1010003F0B2
:1034C0007F030344DBB28DF809308978ADF80C40F6
:1034D00001F00F01ADF80A1091899BB29942D18990
:1034E00088BF938101A8994238BFD381FCF7B4FE0D
:1034F0000CB010BDB025002030B503685A688DB0FF
:1035000005463AB9DB892BB978462E4B1B68002B50
:1035100052D098472B68DC8914F001040ED002A920
:103520004FF4C87004F09AF928B17846254B1B680F
:10353000002B43D09847039C04F001040322002190
:10354000684605F001F92B689DF800201B7B8DF87B
:10355000024003F07F0322F07F0213438DF8003016
:1035600000238DF80130AB6823B97846154B1B68F2
:1035700033B398470A238DF8103000238DF81C30A0
:10358000AB88ADF81E302B681A88ADF82220188859
:10359000FDF720F9AB680A93032306932B688DF897
:1035A00020001A7BCDF814D08DF82C20596804A87F
:1035B00002F030FC0DB030BD00DEABE700DEBAE754
:1035C00000DED7E74C4800207FB50378012B31D1CE
:1035D0001B4C22682AB978461A4B1B68002B2BD04B
:1035E00098472368184D194E01A89847E0B92B78E1
:1035F00093B1019B1A887AB15B686BB101A8FFF7A0
:103600007BFF48B9124C226822B978460D4B1B68E3
:10361000A3B198472368984733782BB1019B1B8847
:1036200013B101A8FFF768FF0A48FCF72DFE00233D
:103630002B70337004B070BD00DED2E700DEE9E726
:10364000C42500204C480020AD250020AC250020DA
:10365000C0250020A42500207FB52B4C22680646FB
:103660002AB97846294B1B68002B43D0984723681A
:1036700001A89847002843D1254C23682BB97846E8
:10368000224B1B68002B37D098472368019AB3F56B
:10369000E16F9168184628BF4FF4E160884294BFFB
:1036A0001B1A5B1A2360A3B9138893B1536883B1C3
:1036B00001A8FFF721FF48B9164D2A6822B97846BC
:1036C000124B1B68D3B198472B689847019B9B68A6
:1036D0002360019B5B689BB121680F4B0F48B1F5DC
:1036E000E16F28BF4FF4E16103FB0161FDF7AEFB21
:1036F00004B070BD00DEBAE700DEC6E700DEE3E737
:103700000648FDF771FBF3E7C42500204C48002074
:10371000C8250020C025002040420F00CC250020F5
:1037200038B5164D2A7822B17846154B1B680BB375
:1037300098470121134802F061FF20B17846104BF1
:103740001B68CBB19847104B104C114A00211970DF
:10375000104B2046DA60182204F0F6FF0E4BA360EF
:103760000E4B23610E4BE3600E4B0F4A1A60012390
:103770002B7038BD00DEDCE700DEE4E7AE2500207C
:103780004C48002050940200AD250020E425002084
:1037900059360200C825002065340200B8250020F3
:1037A00040420F00A4250020C935020030B50D4667
:1037B00085B014466B4601460D22284604F063F896
:1037C00008226946204604F0B4FF05B030BD000071
:1037D0002DE9F04389B0002405460194FCF7D8FF99
:1037E0000746FCF7F1FF421ED2F1000848EB020841
:1037F00001A90DF103022046FCF7B8FA2C4EDFF8C0
:10380000B490019C14B909B0BDE8F0836268538894
:10381000526806FB0323AB4202D05B1B002B40DA4D
:103820009DF80330022BA3F102030CBF20340834AF
:103830005A425A419DF8083062F3000368F341038D
:103840006FF38703082204F110010DF109008DF8D0
:10385000083004F06EFF3BBA0DF11502214602A8B4
:10386000CDF81130FFF7A2FF0123152202A9184657
:10387000FFF7A8FBA8B9019B58684188028819B9CD
:10388000D9F80C10B1FBF6F10A235A43B2FBF1F25E
:1038900002FB03334380019B5A6855605B6800223A
:1038A0001A800DF1030201A90020FCF75FFAA8E7D6
:1038B00040420F001026002013B5114B114C01227D
:1038C0001A70114BE3600421104BA3600DEB010053
:1038D00000232361FDF79EFCFDF742FB0199E2689E
:1038E000B1FBF2F302FB1313184460602046FDF7AE
:1038F00053FA074A0748042104F028F802B010BD23
:103900000C26002010260020404B4C00D13702002E
:10391000FC250020589402002DE9F043044687B0AE
:1039200020B978463C4B1B6893B19847661C00232E
:103930000DF10B0203A930460393FCF717FADFF8E9
:10394000D88004F10D07039B23B907B0BDE8F083CD
:1039500000DEEBE75B682BB97846D8F80030002B27
:1039600044D09847039904AA08312046FFF71EFF68
:103970000822394604A804F0CDFE002838D1039D62
:103980001835039B5A681388FE2B01D80133138026
:10399000039B1B789BB1D4F809302178180E1A02CA
:1039A00040EA036002F47F021B0A104303F47F43E2
:1039B00001F001021843C1F34001FCF79FFE039898
:1039C000D0F83890B9F1000F09D02378D4F8092045
:1039D00003F001010091C3F340032946C8470DF1EC
:1039E0000B0203A93046FCF7C1F9ACE700DEB9E7EA
:1039F0009DF80B30002BF2D0039904AA2031204609
:103A0000FFF7D4FE0822394604A804F083FE0028FC
:103A1000E5D1039D3035B4E74C4800204278034B94
:103A20009420133900FB023000F016BB3026002032
:103A30004278034B9420133900FB023000F0D0BAD7
:103A40003026002070B50C4B16464A7804460D46C9
:103A5000811C942000FB023000F078FA50B106601F
:103A60006A78064B53F82230037101342A23837499
:103A70004474133070BD00BF30260020282600207B
:103A800013B501238DF80430074BC01A074B801083
:103A9000584314468DF805000A4601A82146FFF751
:103AA00097FC02B010BD00BF30260020AD1B4C912A
:103AB00070B50F4C0F4E104A104901254FF480731A
:103AC0002046356000F02EFB2046943400F028FAA2
:103AD0000021204680230A4A756000F023FB20461F
:103AE00000F01EFA28460749BDE87040FFF778BC91
:103AF000302600202826002058270020813A020086
:103B00005828002060940200012810B5044604D90A
:103B10007846054B1B6823B19847044B13F82400E3
:103B200010BD00DEF9E700BF4C4800202826002029
:103B3000012810B5044604D97846084B1B6853B1D8
:103B40009847074B942202FB04344FF47A73A06E1B
:103B5000B0FBF3F010BD00DEF3E700BF4C480020DF
:103B60003026002070B5064618B343680BB343787F
:103B7000073BDBB2F72B1ED9104B00781C6810B145
:103B800000F090F807E00546E8B2013500F08AF849
:103B9000B5F5807FF8D106F108010848FEF74EFB25
:103BA0002CB9204600F08EF8012000F06DF80020BE
:103BB00070BD0E2070BD072070BD00BFD82800204A
:103BC0002DE9F047DFF85890074698460C468E18C6
:103BD000B44201D3BDE8F087D9F8005004F1020ADD
:103BE0004DB161782A4612F8083C994207D033B1AA
:103BF0001268002AF7D1227801321444E8E7082A33
:103C0000F9D012F8073C1568BB4201D0FF2BE7D171
:103C1000217852F8043C0139424650469847DFE784
:103C2000D8280020F0B5174A417D137B0639C9B268
:103C300000274FF0010E8F4203DBB3FA83F04009F7
:103C400017E0C419657FA47F660902EB860604F0BD
:103C50001F0436690EFA04F434420FD0C91B8D429A
:103C600004DB136B013313630120F0BD181C18BF74
:103C7000012010B1536B01335363F0BD01352F4464
:103C8000D9E700BFDC28002020B10448044B0360C2
:103C900000F01EBD014800F039BD00BFDC28002047
:103CA000253C02004109064A012300F01F0003FAE7
:103CB00000F052F82130034342F82130704700BF32
:103CC000EC280020012810B5044604D97846044B9E
:103CD0001B681BB19847034B1C7310BD00DEFAE74D
:103CE0004C480020DC28002010B5037813F0FC0FAE
:103CF000044604D07846084B1B6853B19847237894
:103D000003F0FE03022B02BFA37963F03F03A3710C
:103D100010BD00DEF3E700BF4C48002010B504469C
:103D200020B978460B4B1B6883B19847636F23B962
:103D30007846084B1B685BB19847636FD4F89020B6
:103D4000D4F88C102046BDE81040184700DEEDE79F
:103D500000DEF2E74C48002038B550F81C2C1379EF
:103D6000013BDBB2FD2B04460DD9436D5BB11368FB
:103D7000C36601675830FDF78BFD20B178460E4BC6
:103D80001B68B3B1984754F81C1C0B799BB904F11C
:103D90003405284644F81C3C043902F0ABFE2846A2
:103DA00002F068FE38B904F11C00BDE83840FDF7A8
:103DB0001BB800DEE7E738BD4C48002038B50546A3
:103DC00007480C46FDF714FAB0FBF4F101FB1404AC
:103DD000FDF7C6F821182846BDE83840FDF736B88B
:103DE00014290020F7B50B780C46002B00F08C80CE
:103DF00091F83830F3B94B6FB3B9002604F154058C
:103E00006368002B2ED01B79FF2B3ED1284602F091
:103E100045FE63681B7928BB23B394F87030002BF0
:103E200051D00546394F49E001F17800FDF75CFDBE
:103E30000028E2D094F83C30A56E062B05D07846D9
:103E4000334B1B68002B5DD098473048FDF7D0F905
:103E500042F21073B0FBF3F202FB13002844A0649B
:103E600003B0F0BD616821B10439284602F042FE7A
:103E7000666001A9284602F0D1FD0028F0D1019B1F
:103E80001A1D0C3362602362BAE70020C1E738468E
:103E9000FDF7AEF994F86F30B0FBF3F202FB1303B9
:103EA000DAB2B24209D02644234496F86C2093F843
:103EB0006C1086F86C1083F86C20013594F86F3024
:103EC000EEB2B342E3D865682B798BB12B79FF2B27
:103ED0001CBF03F1FF332B7104F1080000F0B8FBA5
:103EE0000028A7D078460A4B1B684BB19847A1E73A
:103EF0007846074B1B680BB19847E7E700DEE5E71C
:103F000000DE97E700DEA0E78B64A9E71429002014
:103F10004C4800200148FDF7A5B900BF1429002036
:103F200010B5037804467BB901230370436833B1AD
:103F3000A16E04F13C00BDE81040FFF73FBF5430D4
:103F400002F098FD0028F3D110BD00002DE9F341E7
:103F50000D46074620B97846204B1B6873B3984737
:103F60001F2D04D978461D4B1B684BB3984705F1AC
:103F7000110292B201A907F1540002F03FFC804601
:103F800000BB019E337B022262F3030306353373C9
:103F9000757397F86030327B5B0863F38612327377
:103FA00007F16101062206F10F0004F0C2FB341D87
:103FB000C6F80480204602B0BDE8F08100DECFE7FD
:103FC00000DED4E7042804D07846044B1C6814B102
:103FD000A0470024EEE700DEECE700BF4C480020DD
:103FE00038B505460C4601B120B97846194B1B6817
:103FF00053B39847237923B97846164B1B682BB3E4
:104000009847237A03F0CF036FF3C7132372214637
:104010000023A37231F8042D05F1540002F07CFC5A
:104020002B78ABB195F83C303BB195F83C30042B84
:1040300003D095F83C30052B0AD1A96E05F13C0060
:10404000BDE83840FFF7BABE00DED3E700DED8E7B0
:1040500038BD00BF4C48002038B504460D4601B1BC
:1040600020B97846064B1B683BB19847291F04F1DD
:104070005400BDE8384002F03DBD00DEF6E700BF69
:104080004C48002038B50D46044620B97846164BFA
:104090001B6843B19847132D07D87846124B1B680D
:1040A000B3B1984704E000DEF5E7B5F5205FF4D83A
:1040B0004FF47A7194F83C306943A1669BB194F84F
:1040C0003C30042B0FD094F83C30052B08D138BD80
:1040D00000DEEDE704F13C00BDE83840FFF76EBEBE
:1040E0002378002BF6D138BD4C48002010B54FF096
:1040F00080530446D3F8A0200378094912F0010246
:1041000014BF62F347036FF34703037006220130C5
:1041100004F00FFB2046BDE81040FFF7E5BD00BFEF
:10412000A4000010F8B50D4616461F46044600B11F
:104130002AB97846254B1B68002B42D098470A2F96
:1041400005D87846214B1B68002B3CD09847BAB263
:10415000314604F1540002F0E1FA04F16000FFF787
:10416000C5FF44F620630322A3662623252184F895
:104170006D3084F86F20272384F8262084F83420BB
:10418000134A84F86C1084F86E30124884F82510B5
:10419000002304F16C01E2620F4A84F87030A062DF
:1041A00084F824302163236265676264E4642370C9
:1041B0005DB1224604F178000849BDE8F840FDF7FA
:1041C00045BB00DEBBE700DEC1E7F8BD4C48002080
:1041D000593D0200D6BE898EE53D02001D3D02001C
:1041E00070B5FDF7E1F900284BD1264803F028FB14
:1041F0000546002835D00468FDF7EEF9002C34D0D0
:10420000A3686433984230D91F4E33781BB100F055
:1042100065FC002333701B4803F0F8FA854204D094
:1042200078461A4B1B68F3B198470023236101209D
:10423000FDF702FA164D174B2C604FF0FF32C3F812
:104240000823154B0222C3F88021FCF789FE2B6856
:1042500012499A6802440A60BDE870401A68D96839
:1042600010470446C8E700DEDFE7B0F5FA7F08D95B
:10427000054B1A782AB901221A70BDE8704000F087
:1042800019BC70BD24290020302900204C48002092
:10429000342900200010004000E100E02C2900201B
:1042A00008B5064803F07EFA054A00231360054A64
:1042B0001370054B01221A7008BD00BF242900208D
:1042C00034290020302900203129002010B5054B69
:1042D0001A782AB100241C70FDF794F9204610BD0D
:1042E000082010BD3129002010B5044628B97846B1
:1042F0001D4B1B68002B2DD0984723682BB978469F
:10430000194B1B68002B27D09847A36823B9784620
:10431000154B1B6813B39847A268144B9A4204D9F3
:104320007846114B1B68DBB1984723699C4219D032
:104330000F48246104F1100103F044FA0D4B1B787F
:1043400003F0FF0023B90C4B1C6814B9FDF75AF9B0
:10435000002010BD00DED0E700DED6E700DEDBE7A0
:1043600000DEE2E7082010BD4C480020A0860100D6
:1043700024290020312900203429002010B5194CAF
:10438000226822B97846184B1B6803B39847FDF79B
:1043900033F920B97846144B1B68D3B19847FCF722
:1043A000DFFD124B1B68C01A002804DB78460E4B59
:1043B0001B6883B198470020FDF73EF90023236076
:1043C0000B4B1B784BB1BDE81040FDF72DB900DE5B
:1043D000DDE700DEE3E700DEEDE7BDE81040FFF7D4
:1043E000FFBE00BF342900204C4800202C290020AB
:1043F0003129002010B5FDF7FFF820B97846134B9E
:104400001B6883B19847124C226882B1536823B964
:1044100078460E4B1B6843B198472368BDE81040AF
:104420005A68D868104700DEEDE700DEF5E7094B73
:104430001B7823B97846054B1B6823B19847BDE824
:10444000104000F053BB00DEF9E700BF4C480020ED
:10445000342900203029002008B5FDF7CDF820B917
:104460007846074B1B683BB19847064B1B682BB936
:10447000BDE80840FFF7B4BE00DEF6E708BD00BFA8
:104480004C4800203429002008B5FDF7B5F820B9C4
:1044900078460B4B1B687BB198470A4B1B6823B1CE
:1044A0007846074B1B684BB19847074B02221A60AE
:1044B000BDE80840FFF794BE00DEEEE700DEF4E75B
:1044C0004C4800203429002000E100E010B5FDF741
:1044D00093F820B978460C4B1B6883B198470B4B77
:1044E0001B6823B17846084B1B6853B19847084CAA
:1044F00023781BB100F0F2FA0023237010BD00DE18
:10450000EDE700DEF3E700BF4C480020342900202F
:104510003029002070B5274CD4F81031054623B956
:104520007846254B1B6853B39847244A0023C4F8A8
:10453000103113780133DBB2137095F82C209342BD
:1045400021D9FDF743F81E4BD3F848650644FCF724
:1045500007FD6B6A0446314605F118009847FCF7E1
:10456000FFFC001B502804D47846134B1B6843B152
:104570009847FFF703FF002385F8303070BD00DE59
:10458000D3E700DEF5E70ED2AA6AD05C00F008F9A6
:10459000084BD3F810315BB17846074B1B6833B139
:1045A000BDE8704018470323C4F80032F0E700DE8E
:1045B00070BD00BF001000404C480020382900208A
:1045C000008000401E4B1F4A10B5C3F8602502F55D
:1045D000DE424432C3F864254FF480620C46C3F8CF
:1045E000042500F0C3F804F11C0000F0F3F80021EA
:1045F000206A00F041F9A36A187800F0D1F8124B54
:10460000124AA06901211170C3F804050020C3F803
:1046100010011020C3F80403196094F82C1001292C
:1046200009D90721C3F800121378A26ABDE8104027
:10463000D05C00F0B5B80322C3F8002210BD00BF63
:1046400000F0014004110040001000403829002013
:1046500010B5436A044623B97846194B1B684BB31F
:10466000984794F83030002B28D1164B2360164B16
:104670006360A369A17F587894F82C20E460042932
:1046800000F10C0308BF00F10D031048415C4B43DF
:10469000923353439833A360012384F8303020468B
:1046A000FFF722FE58B17846054B1B6823B19847A7
:1046B000002010BD00DED4E700DEF9E7112010BDB8
:1046C0004C480020C5450200154502006C940200CC
:1046D00010B5044620B978460A4B1B6873B1984759
:1046E000236823B97846074B1B684BB1984704F100
:1046F00008010548BDE81040FDF7A0BD00DEEFE76A
:1047000000DEF4E74C4800204029002010B50446A4
:1047100020B97846064B1B683BB1984704F1080165
:104720000448BDE81040FDF7B9BD00DEF6E700BF64
:104730004C4800204029002038B50A4B1C6805462B
:104740002CB9094A136801331360204638BD54F868
:10475000083C54F8041C284698470028F6D12468E1
:10476000EEE700BF402900203C2900200A4B002230
:10477000C3F8FC2F0122C3F8FC2F40F25B62C3F8A0
:10478000382540F20312C3F83425044AC3F83C2507
:104790009622C3F844257047001000405555550037
:1047A000272810B5044604D97846074B1B6843B147
:1047B0009847064B1A5D064BC3F80825C3F85445C5
:1047C00010BD00DEF5E700BF4C48002072940200E7
:1047D0000010004010B5044628B97846244B1B68E9
:1047E000002B3ED09847A378052B05D97846204B5F
:1047F0001B68002B37D0984763782BB978461C4B41
:104800001B68002B31D098471A4B2278C3F80C252F
:10481000A278C3F81025627842F0007242F4403268
:10482000C3F818256278252A8CBF08210621C1F11A
:104830000802120402F4702241F480710A43C3F8A2
:104840001425D3F8142542F48012C3F81425A27855
:10485000042A02BFD3F8142542F08072C3F814254D
:1048600010BD00DEBFE700DEC6E700DECCE700BF1C
:104870004C4800200010004070B5174BD3F8183595
:10488000C3F30243032B04460D4604D07846134B72
:104890001B6853B1984755B1012D10D078460F4B86
:1048A0001B68B3B1BDE87040184700DEF3E70A4B60
:1048B000220E2402C3F82425C3F81C4570BD230C26
:1048C000054A03F47F432402C2F82435C2F8204588
:1048D00070BD00DE70BD00BF001000404C480020DD
:1048E000EFF3108372B6054A52781AB1044A0221D6
:1048F000C2F8001103B962B6704700BF4429002016
:1049000000E100E0024B00221A71FFF7E9BF00BF8F
:1049100044290020074B5A7993F827100132D2B26C
:1049200091425A719CBF00225A7102221A71FFF7FC
:10493000D7BF00BF44290020F8B5194D194EFFF725
:1049400015FF00241848FFF745FF0127C5F830453B
:1049500056F8040F48B12146FFF78EFFD5F83025F1
:1049600007FA04F31343C5F830350134082CEFD1AE
:104970000B4B1122C3F80443C3F800220022C3F8F2
:10498000042103F5F033094AC3F8602502F5DE423D
:104990004432C3F864254FF48062C3F80425F8BD9F
:1049A00000100040682900205C290020041100400C
:1049B00010B50F4CA36823B178460E4B1B68ABB102
:1049C00098470D493C2201F1740001F017FF031EC6
:1049D00001BFA26809491832C1F804250CBF0120A3
:1049E0000020003318BF0123A37010BD00DEE8E7EC
:1049F000442900204C4800204C2900200010004091
:104A000010B50F4BD3F8503523B178460D4B1B68CA
:104A1000A3B198470C4C6379234493F82400FFF723
:104A2000BFFEE3781BB1FFF787FF0023E370FFF7BA
:104A3000BFFF10B1024B01225A6010BD00DEE9E752
:104A4000001000404C4800204429002070B5094C5B
:104A5000094D012200262261C4F80C61A96821B128
:104A600005F17C0002F046F8AE60D4F85035002B1A
:104A7000FBD170BD001000404429002010B5FCF7A8
:104A80006FFA04460948C169036A8B4208D1603055
:104A9000FCF7AAF921460648BDE81040FCF7D6B954
:104AA00021446030FCF7D2F9F4E700BF442900202C
:104AB0008C29002010B5084C012363700023E3709B
:104AC000FFF73AFF2378022B05D123791BB1BDE80C
