:020000022000DC
:1060000000FD0320B52A0400DD2A0400DF2A040075
:10601000E12A0400E32A0400E52A0400000000004D
:10602000000000000000000000000000E72A04005B
:10603000E92A040000000000EB2A0400ED2A040015
:10604000EF2A0400EF2A0400F5D80200EF2A04002A
:10605000EF2A0400EF2A0400456E0200EF2A040034
:10606000EF2A0400EF2A0400EF2A0400EF2A0400BC
:10607000EF2A0400EF2A0400EF2A0400EF2A0400AC
:10608000EF2A0400EF2A040015DE0300EF2A0400C3
:10609000EF2A0400EF2A04009D6A0200EF2A0400A0
:1060A000EF2A0400EF2A0400EF2A0400EF2A04007C
:1060B000EF2A0400EF2A04000000000000000000A6
:1060C000EF2A0400EF2A0400EF2A0400EF2A04005C
:1060D000EF2A0400EF2A0400EF2A0400EF2A04004C
:1060E000EF2A0400EF2A0400EF2A04000000000059
:1060F00000000000EF2A040000000000EF2A040066
:10610000000000000000000000000000000000008F
:10611000000000000000000000000000000000007F
:10612000000000000000000000000000000000006F
:10613000000000000000000000000000000000005F
:10614000000000000000000000000000000000004F
:10615000000000000000000000000000000000003F
:10616000000000000000000000000000000000002F
:10617000000000000000000000000000000000001F
:10618000000000000000000000000000000000000F
:1061900000000000000000000000000000000000FF
:1061A00000000000000000000000000000000000EF
:1061B00000000000000000000000000000000000DF
:1061C00000000000000000000000000000000000CF
:1061D00000000000000000000000000000000000BF
:1061E00000000000000000000000000000000000AF
:1061F000000000000000000000000000000000009F
:1062000010B5054C237833B9044B13B10448AFF3F0
:1062100000800123237010BD18340020000000000E
:10622000348604000C4B43B10C480D4910B5AFF354
:1062300000800C48036823B910BD0A48036833B9CD
:106240007047094B002BF7D0BDE810401847064BAC
:10625000002BF5D0184700BF000000003486040072
:106260001C3400201034002000000000154B002BCF
:1062700008BF134B9D46A3F5803A00218B460F467D
:106280001348144A121A20F0AFFE0F4B002B00D017
:1062900098470E4B002B00D09847002000210400A7
:1062A0000D000D48002802D00C48AFF3008020F00C
:1062B0004DFE2000290000F0C9F820F033FE00BF99
:1062C0000000080000FD03200000000000000000A6
:1062D000183400206C720020000000000000000054
:1062E00041DF704703781C2B00D0704700B51A4B74
:1062F0001B685B0483B003D5184B1B68032B0ADCB7
:106300000322C8214FF4F03000F058FD03B05DF8CF
:1063100004EB00F0ADBB2F21114820F039FF70B124
:106320002F210F4820F034FF411C0E4B0E4AD3F8AA
:10633000043500920420A32218F0E2FCE0E75C217F
:10634000074820F025FF28B15C21054820F020FFF8
:10635000411CEAE70249E8E7903300208C33002033
:106360001072040000B000402C72040010B50378D5
:10637000083B0446042B14D8DFE803F03024140350
:1063800003000079022830D0042805D1B4F8132086
:10639000B4F809309A4247D0611D11F061F9002824
:1063A0003CD110BD4FF4F030002100F0FDFC20790D
:1063B00011F09EFA0028F4D0224A9821BDE810403E
:1063C0001CF0A6BB00214FF4F03000F0EDFC0121E1
:1063D0004FF4C040BDE8104000F0E6BC01214FF48E
:1063E0002040BDE8104000F0DFBCE27B63799A42B8
:1063F000D2D1227CA3799A42CED2134B611D1A6866
:1064000011F09CF818B10F4A83211CF081FB002188
:106410004FF4F030BDE8104000F0C6BC094A8921B5
:10642000BDE810401CF074BBD4F80F20D4F8053040
:106430009A42B1D1D4F81520D4F80B309A42ABD29D
:10644000DBE700BF10720400B471002080B5AB4DD3
:106450008CB000F0D9FC0421A94A4CF2870018F056
:106460003FFC2B68590440F19580A64C2368032B10
:1064700000F37081A44EDFF8B8823268D8F80010BB
:106480003368A24FDFF8AC9223F47F6323F00F034D
:10649000521A03F580533A60C9F800302368052B7F
:1064A00000F3B5809A48029000F006FB002840F007
:1064B00089802422002103A820F096FD01260723CD
:1064C000944A95498DF80C6003A88DF80F308DF82B
:1064D0001430079200F03AFA002840F0EA810020D8
:1064E00009F018FC002840F0EE818C4B8C4A1A60B1
:1064F000184600225A6015F00DFF2B68590403D589
:106500002368032B00F3E481EFF3108072B6854E0D
:10651000B768002F5BD1844B84490122B260D3F865
:1065200080200A403260C3F88010D3F88420726063
:106530004FF0FF32C3F8842000B962B600F050FA81
:10654000002840F0A481744B1B78002B00F0908150
:106550002B685A0402D52368032B3ADC09F0F8FBB8
:1065600000284FD12B685B0403D52368032B00F36D
:106570006B81B3685BB157B9EFF3108372B66A4AA7
:106580003168116071685160B76003B962B6FFF796
:10659000A7FEFCE75C4B66491A680E681B686548F5
:1065A0005A49584C23F47F6323F00F0303F58053BB
:1065B000921B036056480A60029000F07DFA0028A2
:1065C0003FF477AF5C4ADB211CF0A2FA71E70127A8
:1065D000B2E72F21584820F0DBFD002800F0E680CC
:1065E0002F21554820F0D4FD411C544B544AD3F878
:1065F000043500920420F02218F082FB09F0A8FB79
:106600000028AFD04C4AF1211CF082FAAAE72F21D2
:10661000494820F0BDFD002800F0E2802F214648C7
:1066200020F0B6FD411C454B464AD3F80435D8F856
:106630000000019000920620D52218F061FB2B6823
:106640005B047FF52FAF2368052B7FF72BAF2F213E
:10665000394820F09DFD002800F0CD802F213648DC
:1066600020F096FD411C354B374AD3F8043530688D
:10667000019000920620D62218F042FB2B685E049F
:106680007FF510AF2368052B7FF70CAF2F212A4829
:1066900020F07EFD002800F0BD802F21264820F04C
:1066A00077FD411C254B3868284AD3F80435019002
:1066B00000920620D72218F023FB2B6858047FF5A0
:1066C000F1AE2368052B7FF7EDAE2F211A4820F09D
:1066D0005FFD002800F0A9802F21174820F058FD09
:1066E000411C164BD9F80000194AD3F80435019023
:1066F00000920620D82218F003FBD3E69033002046
:10670000B5EC03008C330020CC320020B87100209F
:1067100001000007E5620200343400203834002014
:106720006D630200BC71002000E100E0FC06FFBDCB
:10673000C8320020B47100201072040000B0004084
:10674000CC72040070720400807204009072040025
:10675000A07204002F216F4820F01AFD88B32F216A
:106760006C4820F015FD411C6B4B6C4A6C4EDFF8F9
:10677000C481D3F8043500920420CC2218F0C0FA6A
:106780003268D8F80010674F3368DFF8AC91521ABE
:1067900023F47F633A602A6823F00F0303F58053E4
:1067A0005204C9F800307FF57DAE77E65C21594888
:1067B00020F0EEFC80B15C21564820F0E9FC411C41
:1067C00013E75C21534820F0E3FC38B15C215148C9
:1067D00020F0DEFC411CC7E74E4906E74D49C3E700
:1067E0005C214C4820F0D4FC80B15C21494820F069
:1067F000CFFC411C17E75C21464820F0C9FC38B1AA
:106800005C21444820F0C4FC411C2CE741490AE7C4
:10681000404928E75C213F4820F0BAFC80B15C2168
:106820003C4820F0B5FC411C3CE75C21394820F095
:10683000AFFC38B15C21374820F0AAFC411C50E77E
:1068400034492FE733494CE72F21324820F0A0FC90
:1068500010B32F212F4820F09BFC411C2E4B324AB5
:10686000D3F8043500920420F42218F049FA80E6A7
:106870002E4A039303A80493059200F051FA0028CE
:106880003FF466AE234AEC211CF042F960E6214A4F
:10689000E3211CF03DF956E65C211E4820F078FC0F
:1068A00028B15C211B4820F073FC411CD6E7194934
:1068B000D4E7184AB9211CF02BF9002009F02AFA74
:1068C00000283FF412AE134ABC211CF021F90CE65B
:1068D0002F21104820F05CFC70B12F210D4820F0D2
:1068E00057FC411C0C4B124AD3F80435009204208B
:1068F000DE2218F005FA07E65C21064820F048FC85
:1069000028B15C21034820F043FC411CEAE701491F
:10691000E8E700BF1072040000B0004048720400B5
:10692000CC320020B8710020EC7204000473040023
:10693000B0720400C8320020B471002003780D2B1F
:1069400000D07047002015F041BD00BFF0B585B004
:1069500000283CD004460F460FCC1F4E35460FC5CD
:106960000FCC0FC5304623682B6015F0DFFB0446C3
:1069700010B1204605B0F0BD03F0F6FC01F028FA96
:1069800030690CF0A1FA04460028F2D1317FB269D7
:10699000019100920146736910484FF6FF720CF0A6
:1069A0002DFE04460028E4D1336A03B1984703F072
:1069B00041FB01F073F803A803F070FDBDF80C3043
:1069C000003318BF0123002FD3D03B70D1E70E2432
:1069D000204605B0F0BD00BF9C34002040340020AC
:1069E00015F014BC30B5044685B0A37DE27D0120CE
:1069F000ADF80E0043EA022303A80D46ADF80C30B3
:106A000003F010FD08B105B030BD02AA2146208A6E
:106A100005F0DEF80028F6D12A460DF10A03BDF88C
:106A20000810E08A05F09AFD0028ECD1217ED4F808
:106A3000120001F0010114F045FE50B9BDF80A0042
:106A40000CF074FA0028DED1019000F063FD01988B
:106A5000D9E7784611F04AFBF0E700BF08B501F02E
:106A600081F903F0D1FBBDE8084014F03BBA00BF48
:106A700008B519F099F820B90448BDE8084015F0A8
:106A800049BC0020BDE8084015F0A0BCD032002071
:106A90004BDF704710DF704760DF704700B583B091
:106AA00002E0019815F038FC01A8FFF7F1FF00287B
:106AB000F7D003B05DF804FB30B5714D87B02B689B
:106AC0000390580403D56F4B1B68032B48DC6E49B9
:106AD00003A8FFF7DFFF044610B1204607B030BD22
:106AE0006A4AE02382F8163392F816335B09012BC9
:106AF0004BD9042B49D0664B9968002940F092800D
:106B00004FF4800313602B685B0441D4614B049302
:106B1000049B059305A8FFF7BFFF049B059A9A42C3
:106B20000446DAD02B685A04D7D5564B1B68012B84
:106B3000D3DD2F21584820F02BFB002879D02F21BE
:106B4000554820F025FB411C544B0598544AD3F876
:106B50000435019000920220682218F0D1F8BCE7B9
:106B60002F214D4820F014FB002833D02F214A4814
:106B700020F00EFB411C494B4A4AD3F804350092E1
:106B80000420702218F0BCF8A1E742F20204A4E746
:106B90003C4C2368032B28DC3E4B0493049B059359
:106BA0002368032BB6DD2F213B4820F0F1FA0028A3
:106BB0004AD02F21384820F0EBFA411C374B3A4A93
:106BC000D3F804350498019000920420582218F05C
:106BD00097F89FE75C21304820F0DAFA38B35C215F
:106BE0002D4820F0D5FA411CC5E72F212A4820F076
:106BF000CFFA002833D02F21274820F0C9FA411CB2
:106C0000264B2A4AD3F80435009204204D2218F06E
:106C100077F8204B04932B68049A059259047FF56A
:106C200079AFBDE71A6842F480021A606BE71A492F
:106C3000A1E75C21184820F0ABFAD8B15C211648D6
:106C400020F0A6FA411C7FE75C21134820F0A0FA4F
:106C500090B15C21104820F09BFA411CAEE75C210A
:106C60000D4820F095FA48B15C210B4820F090FACD
:106C7000411CC5E7084967E707499FE70649BFE7A1
:106C8000903300208C330020AD7E030000E100E053
:106C9000BC710020C83200201473040000B0004012
:106CA000847304004473040074730400607304006C
:106CB00010B50378052B17D0082B0CD0022B00D071
:106CC00010BD144B1A78144BEAB11B68002BF7D097
:106CD000BDE8104018478168C068FFF783FE78B9A7
:106CE0000C4B01221A7010BD0B4B0C4899681022F6
:106CF0000DF076FD0028E3D0BDE810401BF0F8BE93
:106D00001BF0F6FEECE7596804480123BDE810408B
:106D10000DF0B2BCC0340020C4340020B4360020D2
:106D200070B51A4B1A4C054693E8070086B003ABC2
:106D300003C3160C23F8022B95E807001E7084E8A5
:106D4000070002B3134914480DF094FC08B106B0D3
:106D500070BD124B00930F4A0F49114803AB0DF061
:106D600055FC0028F3D10F480EF0B2FE01460C4846
:106D70000DF06AFC0028EAD1024661680848012348
:106D80000DF07AFCE3E7072006B070BDC073040085
:106D9000C4340020D0340020E8370020B16C020059
:106DA000B4360020F03400204FF0A04311B9C3F8EE
:106DB00008057047C3F80C05704700BF2DE9F04780
:106DC0005FEA420A1BD00F4D88468146002645F0F7
:106DD00001054FF0A047D7F8043583EA0903C7F847
:106DE0000435B8F1000F05D044464FF47A40A84767
:106DF000013CFAD101365645EDD1BDE8F087BDE83A
:106E0000F08700BFD073040030B44FF0A0430322DA
:106E10004FF400554FF480444FF400404FF480315C
:106E2000C3F83427C3F80855C3F83827C3F8084512
:106E3000C3F83C27C3F80805C3F84027C3F8081572
:106E400030BC704710B5404A00214FF0A043C2F853
:106E50007C11D3F8103518050AD43C4B3C491A680C
:106E6000D1F80415501A5DD443F2333290423ED823
:106E70004FF0A043D3F81035D9040AD4334B34492A
:106E80001A68D1F80415501A52D443F233329042A2
:106E900036D84FF0A043D3F81035DA010AD42B4B83
:106EA0002B491A68D1F80415501A47D443F23332EB
:106EB00090422ED84FF0A043D3F810359B010BD44D
:106EC000224B23491A68D1F80415501A48BF881A72
:106ED00043F23332904200D810BD1D491D4AD1F80B
:106EE0000415196012680320BDE8104010471849C6
:106EF000184AD1F804151268196000209047B7E7C6
:106F00001349144AD1F804151268196001209047FA
:106F1000BFE70F490F4AD1F8041512681960022023
:106F20009047C7E7881A43F233329042A0D9DEE790
:106F3000881A43F233329042ABD9E1E7881A43F220
:106F400033329042B6D9E4E7006000402C3800208C
:106F500000B0004028380020F8B59E4C237843BB91
:106F60009D4F3B68002B00F0C8809C4E9A7831788A
:106F700002F003028A420EDD994DDFF86CE22868C8
:106F80009D68281A0EFB00F5032900F2C180DFE896
:106F900001F01E74574E16F013F93B689B7803F00E
:106FA00003030546032B00F2A980DFE803F07032EB
:106FB000733D8C4B894E5D6816F002F933782D1ABB
:106FC000032B00F2AB80DFE803F08381687F864902
:106FD0009A78B5FBF1F302F00302022A00F0B780C1
:106FE00000F2C880012A09D1804AA2FB0312D2080C
:106FF00002EB8202B3EB420F00F0988016F0E0F84B
:1070000033780546032B00F2C580DFE803F09A9839
:107010009E9C7749337029442378002B64D07148B3
:10702000BDE8F84015F0D4BF72493370F3E77248F9
:107030006B0AA0FB0313012A4FEAD313DED1D3E777
:107040006E4B012AA3FB05034FEA9353CCD0032ACE
:10705000D4D1012940F0B080694AA2FB0312920901
:107060004FF4167101FB1233002BC7D116F0A8F8AC
:107070006049032301443370CEE7624B022AA3FB2D
:1070800005034FEA934300F08D80ABD9E1E7564901
:107090003370C0E75C493370BDE75B48401B504A22
:1070A0005A4913684009A1FB001003EBD01010608F
:1070B000494F3B68002B7FF459AF2378EBB1494827
:1070C000BDE8F84015F056BF4A48E7E74848E5E70D
:1070D000C5F5C330A0304CF250339842DFD9404A56
:1070E000136801331360E3E73E4B012259602270BD
:1070F0001846BDE8F84015F00BBFF8BD784610F013
:10710000F5FF3B689B7803F003030021337082E7AF
:10711000784610F0EBFF3B68002159E7784610F005
:10712000E5FF33786842002BD5D0B8E716F048F871
:10713000012300F5742101F5107133706CE72C49BF
:1071400069E7294967E72B4965E72F4963E7327803
:107150002ABB2F4AA2FB03125209642101FB1233FE
:10716000002B7FF44BAF16F02BF827490223014484
:10717000337051E7317800297FF46BAF254AA2FBC9
:107180000312D20941F2707101FB1233002B3FF45C
:107190006DAF33E7784610F0A9FF00213BE7012AE5
:1071A0007FF42CAF114AA2FB0312D20802EB820239
:1071B000B3EB420FD7D021E702297FF41FAF164A65
:1071C000A2FB03125209C2EB0212B3EB820F7FF44F
:1071D00015AF4BE74C380020503800204D380020C8
:1071E0004838002030380020A0860100CDCCCCCC1F
:1071F00040420F000046C323852807006BCA5F6B1F
:10720000B5814E1B83DE1B4380969800C55A7C0ACD
:107210001F85EB51F1197605898888882DE9F0439F
:10722000474B1B7883B0032B00F28680DFE803F026
:10723000716C6702434C236803F5BB531033236022
:10724000414D424B2F6800261E70002F6FD03D4CE1
:1072500041F27078BB682268934203D022689B1A7F
:10726000002B64DAB7F80090FB680196484601A944
:107270002B6001F041FE002850D148467B680199FF
:107280009847B87800F00303032B4BD8DFE803F0EE
:1072900035302002800808FB00F32068D5F800E0B4
:1072A0001844B860BEF1000F1ED0DEF80830C31AD3
:1072B000002B19DB714604E09A68821A002A03DB6E
:1072C0001946CB68002BF7D1CF60FB607746C1E74A
:1072D0008008642303FB00F32068D5F800E018441D
:1072E000B860BEF1000FE0D1C7F80CE02F60B1E745
:1072F000800800EB80004300CFE78308CDE7114C06
:107300002368643323609BE70E4C23680A332360B1
:1073100096E70C4C23680133236091E7784610F020
:10732000E5FEAAE7784610F0E1FE0023B5E7FFF797
:1073300013FE03B0BDE8F083784610F0D7FE7FE778
:107340004D38002048380020503800204C380020AC
:1073500010B5084C1822002120461FF045FE064BB0
:1073600006480749074AA360002303600B601370B7
:1073700010BD00BF303800201D72020048380020C8
:10738000503800204C3800202DE9F0410E46904640
:107390000446002875D0454F16F0A4FB3D684DB15A
:1073A000AC4264D0284602E09C421CD01846C36818
:1073B000002BF9D1A37806F0030666F3010368F306
:1073C0008703A370B8F1000F09D0032E63D8DFE85C
:1073D00006F04B453F1DE5603C60FFF7BDFDBDE895
:1073E000F04116F0A1BBA378E16866F3010368F3EE
:1073F0008703A370C160B8F1000F52D1002CEED00A
:107400000028EAD0BDE8F04116F08EBBA07841F22A
:107410007073800803FB00F3254A10681844A060CD
:10742000002DD8D0AB68C31A002BD4DB294604E06A
:107430009A68821A002A03DB1946CB68002BF7D121
:10744000AC42CC60E360C8D0BDE8F04116F06CBB44
:10745000A0786423800803FB00F3DDE7A3789B0892
:1074600003EB83035B00D7E7A3789B08D4E7A378FB
:10747000E5683D6066F3010368F38703A3700020AD
:10748000B9E77846094F10F031FE16F02BFB3D6846
:10749000002D87D18EE7784610F028FE3D68002346
:1074A000BAE7A67806F003068FE700BF5038002041
:1074B0004838002010B5044682B048B1A378C3F321
:1074C00001030B70A378C3F38503137002B010BDE2
:1074D0008DE80600784610F009FE9DE80600EDE70D
:1074E000004700BF784610F001BE00BF08B5064B4C
:1074F000064801221A7017F07BFF00B908BD044846
:10750000BDE8084018F036BB8838002064380020F9
:10751000E83200202DE9F84316F0E4FA444B1B78DA
:10752000002B49D1434C2378002B71D00124424ECB
:10753000424F01E0631C9CB2621E95B216F83530D2
:1075400003F00303032B4DD0022CF3D13C4C6379A1
:107550009B0717D401243B4FDFF8E080342601E07D
:107560000134A4B2611E89B206FB017595F8303072
:1075700003F00303032B15D0022CF1D1BDE8F8432F
:1075800016F0D2BA02224FF480512C4818F02EF88F
:1075900090B12288828018F06DF8637923F002039D
:1075A0006371D7E741F400511422404618F01EF8E9
:1075B00014228146294630B9234818F0DBFABDE889
:1075C000F84316F0B1BA04301FF003FD484618F036
:1075D00051F895F83030022C23F0020385F8303052
:1075E000BED1CBE7042245F44051384617F0FEFFE8
:1075F00006EBC5030028DFD05B68DB43436018F06F
:1076000039F816F8353023F0020306F835309BE7D9
:1076100006220121094817F0E9FF0028CCD00222F8
:107620000125C5800281828018F024F825707DE74D
:107630008838002089380020F43800206438002081
:10764000543800208C380020F83200202DE9F04713
:10765000047D012C82B0064623D002A94FF6FF73A9
:1076600021F8043D143003F049FF002840D1BDF853
:10767000040003F065FD002836D0584CDFF8608127
:107680000025012794F82830DB0702D5E388012B79
:1076900032D90135022D04F13404F3D102B0BDE832
:1076A000F08701A802F0FAFEF38ABDF80450AB425D
:1076B000F4D3BDF806202A449342EFDA5B1B474F10
:1076C0009DB24FF0000897F82830DA0702D5BB8842
:1076D000AB424DD008F10108B8F1020F07F13407B1
:1076E000F1D102B0BDE8F087784610F0FFFCC4E7A6
:1076F000784610F0FBFCBAE7F28B510902F01F024A
:1077000054F8211007FA02F20A42C2D0BDF8042050
:10771000DB00510903EB8103434402F01F025B6865
:1077200007FA02F21A42B4D0B4F820E0E069B6F8E1
:1077300000C0B6F802A0BEF1000FAAD00246002396
:1077400003E09E4502F10802A3D030F833106145F2
:107750004FEAC30903F10103F3D151885145F0D138
:10776000E369626A4B4431465B68A8B2984790E788
:10777000F38B5A0903F01F0357F8222004FA03F38E
:107780001342A7D0B7F820E0F869B6F800C0B6F801
:1077900002A0BEF1000F9DD00246002303E09E45EB
:1077A00002F1080296D030F8331061454FEAC30960
:1077B00003F10103F3D151885145F0D11FFA88FA42
:1077C00050467A6A314601F089FDFB697A6A4B447A
:1077D00050465B68314698477CE700BF94380020EC
:1077E000F4380020037803B170472DE9F041416877
:1077F0000A7802F0C003402B8CB0044656D054D90E
:10780000802B48D0C02B55D14B788E7895B246EA64
:107810000326484B1B689A0403D5474B1B68042B6F
:1078200065DC206A04F03EF90746E06904F082F85E
:107830004FF6FF729642ADF80850ADF80A606368E3
:1078400049D003330393238903229B1A94F80C80B5
:10785000B4F80EC0256994F814E0ADF81030E68A4B
:10786000A169ADF82C0094F82420A36AADF8267025
:1078700002A88DF81480ADF816C006958DF81CE0AE
:10788000ADF81E6008918DF824200A93FFF7DEFE04
:107890000CB0BDE8F0814D7845EA0225254B1B6808
:1078A0009B040AD54FF6FF76B7E71BB995B27F2D3B
:1078B000EED0F3E700263546ABE7206A04F0F2F895
:1078C0000746E06904F036F84FF6FF73ADF80A306A
:1078D0006368ADF80850FF2D04D9023303930222E8
:1078E0002389B2E70133039301222389ADE72F21D6
:1078F00012481FF04DFC80B12F2110481FF048FCAA
:10790000411C0F4A0F4B0520D3F804358DE82400A5
:1079100040F2231217F0F4F983E75C2107481FF0C7
:1079200037FC28B15C2105481FF032FC411CE8E718
:107930000249E6E7903300208C330020FC730400FA
:107940001874040000B0004010B586B00E4B0F490B
:107950000F4A0393042304910592029302F04EFC14
:107960000C4CA0F58052012369460B48009223700D
:10797000019317F0F7FE10B9207006B010BD07484C
:1079800018F0F8F806B010BDA1790200E574020005
:10799000ED7902008838002064380020D8320020B9
:1079A00070B5012A8CB005D0022A03D0032A06D074
:1079B0000CB070BD784610F099FB0CB070BD044659
:1079C0000D4601A82C2200211FF00EFB10260221DB
:1079D000E2682369039501A88DF804608DF808100A
:1079E0000592069312F036FB0CB070BD10B5224B19
:1079F0001A78D10744BF42F002021A701A7AD407EB
:107A000044BF42F002021A721C4B1A8886B01AB1A7
:107A10005A7942F002025A71194B1A4C93F83020ED
:107A2000D00744BF42F0020283F8302093F864206C
:107A3000D10744BF42F0020283F86420124B13497D
:107A4000134A0393042304910592029302F0D6FB98
:107A50000123A0F5805269460E48009223700193DD
:107A600017F080FE10B9207006B010BD0A4818F05B
:107A700081F806B010BD00BFF43800205438002053
:107A80008C38002088380020A1790200E5740200BB
:107A9000ED79020064380020D83200202DE9F04F43
:107AA00083B018F081F8044648B916F009F90028A7
:107AB000F7D020BF18F078F804460028F5D09C4F86
:107AC0009C48002501213D7017F0C8FC68B1C388AF
:107AD000012B0FD0984B9748012200241A703C705C
:107AE00017F086FC002840F0D2800024204603B026
:107AF000BDE8F08F0289022AECD18288022AE9D1FE
:107B00000DF108088D4A48F8042DDFF828923B70E3
:107B10002E4632464146484617F0C4FCDFF828A2FC
:107B20000646C0B14388C3F30B03012BD2D81AF821
:107B3000332042F001020AF8332042680AEBC30303
:107B4000D2435A6041463246484617F0ABFC0135F5
:107B500006460028E6D1022D00F3A080DFF8F89158
:107B6000DFF8D0A199F80530754A0192002523F07D
:107B70000203324689F8053089F8025089F803502B
:107B8000A9F800504146504617F08CFC064680B1DB
:107B90004388C3F30B03002B9CD18388A9F80030E2
:107BA00032464146504617F07DFC01350646002816
:107BB000EED1012D00F38680624B5E480193324680
:107BC000414617F06FFC0025DFF890A1DFF878B18F
:107BD000064678B34188C1F30B0101293FF67AAF1D
:107BE000028A002A7FF476AF342202FB01A2D289F6
:107BF000012A57D9428A012A5DD9342000FB01A00D
:107C00001422311D1FF0E5F9B088328A4FF6FF715A
:107C100002EB4202884209EB420257D0D17801318F
:107C2000D17032464146434817F03CFC01350646C8
:107C30000028CFD1022D4DDC002D3FF44BAFDFF8F3
:107C40001C91414F414E10E0B9F80E20022A06D097
:107C5000D200043207EB020BB95800293ED13C4B4D
:107C600009F1340999453FF441AFB9F80C104FF6CA
:107C7000FF729142F3D0B9F806009042E4D002F0CE
:107C8000B5FD0028E0D0784610F030FADCE7314846
:107C900017F070FF204603B0BDE8F08F784610F073
:107CA00025FA5BE7408A82427FF414AF1BF832006A
:107CB000C3077FF50FAF1BF8320040F004000BF84C
:107CC00032009AE7784610F011FA75E791780131A1
:107CD0009170A6E7784610F009FAB0E74A420A40E8
:107CE00006FB02F2D20EDFF8788018F80250182D49
:107CF000B5D04FF0010A284603F0F8F910B17846E4
:107D000010F0F4F901350AFA05F2172DC2F100025C
:107D1000A5D8DBF800101140A1D04A420A4006FB6A
:107D200002F2D20E18F80250182DE4D197E700BFE6
:107D300089380020643800208838002000F00030A6
:107D400000F0001000F00020F438002031B57C076E
:107D5000F4380020E8320020543800208C3800200D
:107D60002C74040010B5134C6822002120461FF02B
:107D70003BF90622002110481FF036F9102200219D
:107D80000E481FF031F94FF0FF320D4B6260A263D5
:107D9000E360236401F0E8FA0A4B0B4801221A70F1
:107DA00017F026FB00B910BD0848BDE8104017F0D9
:107DB000E1BE00BF8C38002054380020F438002089
:107DC000FFFF02008838002064380020E8320020DD
:107DD00070B5204C204E214D86B0682200212046EF
:107DE0001FF002F9062200211D481FF0FDF81022A5
:107DF00000211C481FF0F8F81B4B1C4AE2604FF0B2
:107E0000FF3118466160A16322641E6014F082FA9B
:107E100001F09CFAFFF79CFA154B1649164A03939A
:107E2000042304910592029302F0E8F90123A0F5DE
:107E300080526946114800922B70019317F092FC12
:107E400010B9287006B070BD0D4817F093FE06B04B
:107E500070BD00BF8C380020E57702008838002014
:107E600054380020F43800205C380020FFFF020066
:107E7000A1790200E5740200ED7902006438002067
:107E8000D832002068B18268034652B149B12DE969
:107E9000F0434FF6FF720A80C46824B90920BDE898
:107EA000F0830E207047828812B10520BDE8F08370
:107EB000DFF8BC8198F8022098F80300C24209D08C
:107EC000694A1E8890895D88002871D0B2F8400008
:107ED000002858D09F684FF6FF7CDFF898913D4608
:107EE00000204FF6FF7E0CE022F03F02A2F1C0021C
:107EF000B2FA82F25209CAB10130A04205F1080576
:107F000017D26E8837F830207645EDD112F47F4FC6
:107F100002EA090605D0A6F50042B2FA82F2520939
:107F2000E9E722F07F060EB97F2AE5D10720BDE8F8
:107F3000F0834FF6FF7294454B4A41D0342404FB42
:107F40000C2C1D69CCF82C500D889E6804FB05256F
:107F500000206E620D88DE6804FB05252E850D88E5
:107F60005E6904FB05239E610B8804FB0325AB823D
:107F70000B8804FB032292F8303043F0010382F8AF
:107F80003030BDE8F083D08EA842A3D1908EB042AD
:107F9000A0D14FF0010C6046342404FB0020A1F86E
:107FA00000C090F83000C40758D50F20BDE8F0831A
:107FB0005788AF428AD11788B74287D18446EBE70A
:107FC00092F8300010F0010007D092F86400C0076A
:107FD00002D50420BDE8F0830120342404FB0026F0
:107FE0004FF6FF750880F5800888204E04FB0020BE
:107FF0003678858008889F8804FB00208781088860
:108000005F8804FB0020478008881F8804FB00F07D
:108010001752088804FB002426741C889888AC42F8
:1080200015D000EB400008EB400898F80300013041
:1080300088F803000888342404FB002090F83040BE
:1080400044F0020480F83040B1F800C076E706241E
:1080500004FB0080847801348470EBE7DC689F685F
:10806000002C3FF46BAF38E78C3800200833002039
:108070005438002000C0FFFF2DE9F04F9BB004AF43
:1080800089B10B89B3F5BE7F07D2012811D9052527
:1080900028465C37BD46BDE8F08F092528465C3789
:1080A000BD46BDE8F08F0E2528465C37BD46BDE8CD
:1080B000F08FBD4D342303FB005393F83020D407D9
:1080C000E5D59A89002AE2D19C884FF6FF72944246
:1080D00028D0DB88934225D04C880B88944200F04E
:1080E0000A8123F03F03A3F1C003B3FA83F35B09D2
:1080F000C3B1824607F10C000C4602F0CFF93420E0
:1081000000FB0A5AFA89BAF80CB05A450CD8102567
:1081100028465C37BD46BDE8F08F23F07F020AB9E0
:108120007F2BE6D10725B3E7BAF80690BB897B60C1
:1081300007F1100648463146BAF8048003F078F893
:1081400005460028A3D1788A13F0AEFE0028E9D0B6
:108150009AF810A07B68BAF1FF0F04BF934A92F817
:1081600000A03A7C5B449BB2012A7B6000F0D28085
:108170004FF6FF73994505D0484602F0E1FF00280D
:1081800040F0D28007F130092422002148461EF039
:108190002BFF628821884FF6FF739A42EB4600F06E
:1081A000FC80032223891344073323F00703ADEB3C
:1081B000030D414607F148024FF6FF7004F006FD3B
:1081C00004AB0546002834D196E803006588BA88D8
:1081D0003A8789E803004FF6FF70E27AA67A87F8BB
:1081E0003C20854287F83AA03B6487F83B602289AF
:1081F000218800F0ED80D01C2E0A1970E168A7F8E4
:1082000044009D705E7039650320184461681EF05B
:10821000E0FE4846002114F033F8054648B9644EA4
:1082200033689A0405D5DFF8A481D8F80030042B10
:1082300001DCDD462CE72F215E481EF0A9FF002857
:1082400000F0E6802F215B481EF0A2FF411C5A4B34
:1082500020885A4AD3F8043501900092052040F254
:10826000DD1216F04DFD33689B04E2D5D8F80030DE
:10827000042BDEDD22895300083323F007036E460A
:10828000ADEB030D0DF11008AAB14D4963680C6800
:1082900003EB020E0DF1110013F8011B4FEA111C44
:1082A00001F00F0114F80CC000F801CC615C00F87B
:1082B000021B7345F0D1002308F812302F213D48EE
:1082C0001EF066FF002800F098802F2139481EF02C
:1082D0005FFF411C384B3B483B4AD3F804350190C3
:1082E0000092CDF808804FF4EF72052016F008FDDB
:1082F000B546DD46CCE613F47F4F3FF40EAF03F4F2
:108300004043A3F50043B3FA83F35B09002B7FF4EA
:10831000F0AE07E77A8AB9898A42FFF433AFFB8966
:108320000B449A42BFF62EAF002307F13009052215
:108330001946BB613B627B62BB62FB623A76E368D3
:10834000FB61282248461EF04FFE96E8030007F125
:10835000440383E80300236862682189B7F804C0F6
:108360003B634FF0010E4FF6FF7307F1180B4846C1
:10837000A7F85430C7F850B0A7F83EC087F84CA013
:10838000A7F84E807A63398787F83CE0FFF75EF9FB
:108390003B7C012B7FF4F8AE7AE6B1F5807F34BFE9
:1083A00001220222FEE600BF8C38002008330020A4
:1083B00090330020FC73040000B00040D873040028
:1083C00094330020EC730400F47304008C33002019
:1083D000B1F5807F34BF012502251544E068A7F878
:1083E000445011F47F4F386504D0080A1870597052
:1083F00002200AE71970012007E75C210C481EF0F3
:10840000C7FE80B15C210A481EF0C2FE411C61E734
:108410005C2107481EF0BCFE38B15C2104481EF008
:10842000B7FE411C13E7024954E701490FE700BFBB
:10843000FC7304002DE9F04F9BB004AF69B162B149
:108440001389B3F5BE7F40D201280DD94FF0050A3C
:1084500050465C37BD46BDE8F08F4FF00E0A5046DF
:108460005C37BD46BDE8F08FC24E342303FB00638A
:1084700093F83040E407E9D59B89002BE6D1558875
:1084800013884FF6FF74A54200F0658123F03F0387
:10849000A3F1C003B3FA83F35B09002B00F0B180B2
:1084A000054607F114001446894601F0F7FF34230E
:1084B00003FB0563FA8A9B899A420DD84FF0100A94
:1084C00050465C37BD46BDE8F08F4FF0090A504674
:1084D0005C37BD46BDE8F08FBA8AB9F82410F96060
:1084E0001344D9F8101079609BB207F1120109F119
:1084F0000C00B9F81EA099F80C80B9F80EB0BB605A
:1085000002F0FCFF00287FD1342303FB056595F8BA
:108510001090B9F1FF0F04BF974B93F80090B8F19A
:10852000010F00F0D580788A4FF6FF73984204D08F
:1085300002F006FE002840F0D48007F13006242225
:10854000002130461EF050FD628821884FF6FF73EF
:108550009A426D4600F0228103222389F868134471
:10856000073323F007035146ADEB030D07F1480233
:1085700004F02CFB04AB824600283AD161887A686B
:10858000A07A94F80BC07A634FF6FF7E3A893A8757
:10859000714587F83B0087F83080A7F832B087F83C
:1085A0003A903B6487F83CC02289208800F0FC8028
:1085B0004FEA112C02F1030E1870E06838659970CB
:1085C00083F801C0A7F844E00320184461681EF056
:1085D00000FD3046002113F053FE824648B9674E35
:1085E00033689A0405D5DFF8B081D8F80030042B41
:1085F0000EDCAD4633E723F07F0414B97F2B7FF404
:108600004FAF4FF0070A2AE74FF6FF737B827BE7F5
:108610002F215B481EF0BCFD002800F0DC802F21DC
:1086200057481EF0B5FD411C564B2088564AD3F8DA
:10863000043501900092052040F2DD1216F060FB37
:1086400033689B04D5D5D8F80030042BD1DDB4F8BD
:1086500008E04FEA4E03083323F00703E846ADEB8A
:10866000030D04AEBEF1000F13D0484B62681868CA
:1086700002EB0E0C0DF1110112F8013B1C0903F085
:108680000F03045D01F8014CC35C01F8023B624535
:10869000F2D1002306F81E302F2139481EF078FD54
:1086A000002800F0A3802F2135481EF071FD411CE9
:1086B000344B3748374AD3F804350190009202967C
:1086C0004FF4EF72052016F01BFBC546AD46C6E61B
:1086D000BB8A5B453FF631AFFA8A13449B45BFF630
:1086E0002CAF002507F1180307F1300605222946B3
:1086F000BD613B603A76E368FB61282230463D620B
:108700007D62BD62FD621EF06FFC3B683B6594E8D4
:1087100006003B89FB877B68B4F808E0BB644FF038
:10872000010CBB8987F844803046A7F846B087F82B
:108730004C90A7F84EA0A7F8543039637A63A7F895
:1087400038E087F83CC0FEF781FFB8F1010F7FF4F5
:10875000F6AEAA4683E613F47F4F3FF44CAF03F422
:108760004043A3F50043B3FA83F35B09002B7FF486
:1087700097AE46E78C380020083300209033002065
:10878000FC73040000B00040D87304009433002050
:10879000EC730400F47304008C330020B1F5807F87
:1087A00034BF01220222D8E6B0F5807F34BF4FF0FB
:1087B000010E4FF0020E9644E168A7F844E010F471
:1087C0007F4F396504D0010A587019700220FCE609
:1087D00018700120F9E65C210C481EF0D9FC80B12C
:1087E0005C210A481EF0D4FC411C1DE75C210748AF
:1087F0001EF0CEFC38B15C2104481EF0C9FC411CBF
:1088000056E7024910E7014952E700BFFC73040034
:10881000012801D9052070470B4B342202FB0030A0
:1088200090F83030DA07F5D5172901D907207047BD
:10883000C2888A4206D043F0020380F83030C180FB
:1088400000207047002070478C38002019B10128A3
:1088500003D9052070470E207047064B342202FBD7
:10886000003090F83030DB07F3D5C3880B80002050
:10887000704700BF8C380020012801D905207047BF
:1088800070B4114C342303FB004393F83020D50718
:1088900002D4052070BC70479D7C01F0070305F0F1
:1088A00007069E4209D0342303FB004042F0020237
:1088B00080F8302081740020ECE7C1F3C403B3EBEF
:1088C000D50FF0D10020E5E78C38002019B1012840
:1088D00003D9052070470E207047064B342202FB57
:1088E000003090F83030DB07F3D5837C0B7000202C
:1088F000704700BF8C380020012801D9052070473F
:1089000070B51A4C342303FB004393F83050ED0745
:1089100001D4052070BD9D691DB13F2A03D90720F0
:1089200070BD062070BD0329F9D85B7CB2EB930FB4
:1089300003D103F003038B4215D0342303FB00F073
:10894000251814306B7C62F3870361F30103204424
:108950006B74FEF719FD95F8303043F0020385F88B
:108960003030002070BD002070BD00BF8C3800206A
:1089700029B138B5B2B1012803D9052038BD0E2080
:1089800070473423094C03FB00F0231893F8305050
:10899000ED07F2D59B693BB114302044FEF78AFD08
:1089A000002038BD0E2038BD062038BD8C38002090
:1089B000012801D905207047134B342202FB0030F7
:1089C00090F83030DB07F5D5C389022B03D0172987
:1089D00003D9072070470620704770B4DD000435C6
:1089E0000A4E0122745902FA01F114EA010009D178
:1089F0002143715116F8332042F0020206F8332069
:108A000070BC70470020FBE78C380020F438002051
:108A1000012801D905207047134B342202FB003096
:108A200090F83030DB07F5D5C389022B03D0172926
:108A300003D9072070470620704770B4DD00043565
:108A40000A4E0122745902FA01F114EA010009D018
:108A500024EA0101715116F8332042F0020206F8AF
:108A60003320002070BC70478C380020F438002080
:108A700021B11AB1012803D9052070470E20704793
:108A8000F0B5184B342404FB003090F83030DB078D
:108A900001D40520F0BDC389022B1FD00023B2F8FA
:108AA00000E0114F13804FF0010C02E00133182B4E
:108AB00012D0C489012CF9D807EBC4040CFA03F5D1
:108AC00066683542F2D01488A64509D921F81430D9
:108AD000148801341480E9E70020F0BD0620F0BDC1
:108AE0000920F0BD8C380020F4380020012801D97D
:108AF0000520704730B43423114A03FB00F01418EA
:108B000094F83030DB0704D5082905D9072030BC9C
:108B10007047052030BC704700F108030120D5588C
:108B200000FA01F115EA010008D12943D15094F867
:108B3000303043F0020384F83030E8E70020E6E705
:108B40008C380020012801D90520704730B4342327
:108B5000114A03FB00F0141894F83030DB0704D5F9
:108B6000082905D9072030BC7047052030BC704764
:108B700000F108030120D55800FA01F115EA0100BF
:108B8000F1D025EA0101D15094F8303043F00203CE
:108B900084F830300020E6E78C38002021B11AB18B
:108BA000012803D9052070470E20704770B4342384
:108BB000384C03FB00F0231893F83030DB0702D465
:108BC000052070BC70470830002513881580265892
:108BD000F60705D5002B5AD00D8015880135158074
:108BE0002558AE0709D51588AB4250D9012621F882
:108BF000156015883544158025586E0709D51588E8
:108C0000AB4244D9022621F815601588013515803C
:108C100025582E0709D51588AB4238D9032621F8E7
:108C200015601588013515802558EE0609D515887B
:108C3000AB422CD9042621F8156015880135158022
:108C40002558AE0609D51588AB4220D9052621F84E
:108C5000156015880135158025586D0608D51588CD
:108C6000AB4214D9062621F8156015880135158008
:108C70002058000608D51088834208D9072321F818
:108C80001030138801331380002070BC7047092016
:108C900097E700BF8C380020012801D905207047D4
:108CA0000B4B342202FB003090F83030DA07F5D558
:108CB000082901D90720704782888A4206D043F0EC
:108CC000020380F830308180002070470020704718
:108CD0008C38002019B1012803D9052070470E20D7
:108CE0007047064B342202FB003090F83030DB072F
:108CF000F3D583880B800020704700BF8C3800209C
:108D00000206034605D4012803D0034A002013704D
:108D100070470720704700BF08330020014B1878C8
:108D2000704700BF08330020012801D90520704793
:108D30000C4B342202FB003090F83030DA07F5D5C6
:108D400081F080027E2A01D807207047027C8A4287
:108D500006D043F0020380F83030017400207047E1
:108D6000002070478C38002019B1012803D9052054
:108D700070470E207047064B342202FB003090F8FB
:108D80003030DB07F3D5037C0B700020704700BF49
:108D90008C38002008B105207047054B1A888A429C
:108DA000FAD05A79198042F002025A71704700BF16
:108DB0005438002031B108B105207047024B1B88A0
:108DC0000B8070470E2070475438002031B108B135
:108DD00005207047024B9B780B7070470E20704740
:108DE0005438002031B108B105207047024BDB78C0
:108DF0000B7070470E2070475438002019B10128BD
:108E000003D9052070470E20704710B434230A4A56
:108E100003FB00F0131893F83040E40703D4052057
:108E20005DF8044B70475B884B80135A0B80002021
:108E30005DF8044B704700BF8C38002030B482B01E
:108E40000191E2B118B1052002B030BC70474FF675
:108E5000FF71104B11809989BDF80600BDF80440E0
:108E600089B1B3F840100029EDD1D98E8142EAD101
:108E70009B8EA342E7D1012111800020E4E70E2060
:108E800002B030BC70475D888542EAD11D88A5429A
:108E9000E7D1F1E78C38002019B112B118B10520E3
:108EA00070470E20704730B414881080FCB1114B0D
:108EB00093F83050ED0701D59D895DB1844216D9F4
:108EC00093F86440E40702D5B3F8403043B1002082
:108ED00030BC704708801088013080B21080EDE708
:108EE000012321F81030138801331380EFE70920A4
:108EF000EEE700BF8C38002019B1012803D9052006
:108F000070470E207047064B342202FB003090F869
:108F10003030DB07F3D5C36A0B600020704700BF19
:108F20008C380020012801D90520704770B5342302
:108F3000184903FB00F3CD1895F83020D20727D548
:108F4000143300220446C8181146FEF71DFA2046C5
:108F500000F05EFA4FF0FF32AC7C697C6A60AA7D5B
:108F600095F83060002004F0F80401F0030102F0ED
:108F700003026FF3C70460F3010160F3010246F0DE
:108F80000206AC7469742874AA7585F8306070BDE7
:108F9000052070BD8C380020082801D907207047B3
:108FA000F8B5334D95F83030DA07044602D5AB8872
:108FB000834208D095F86430DB0702D52B8FA3429B
:108FC00028D00020F8BD0022114605F11400FEF75C
:108FD000DBF9002000F01CFAA97C6A7CAB7D95F8D7
:108FE0003000002601F0F80102F0030203F0030351
:108FF0006FF3C70166F3010266F3010340F002005C
:109000004FF0FF37A9746A742E74AB7585F8300081
:109010006F60CFE7002211461648FEF7B5F9012030
:1090200000F0F6F995F8461095F8452095F84A3085
:1090300095F86400002401F0F80102F0030203F047
:1090400003036FF3C70164F3010264F3010340F00B
:1090500002004FF0FF3685F8461085F8452085F868
:10906000444085F84A3085F86400AE63A9E700BF44
:109070008C380020D438002038B52F4C2C2303FB2B
:109080000043054693F840309BB3B4F8703053B3B7
:109090002C22013B02FB05429BB20020A4F8703059
:1090A00082F84000D3B1B4F87230AB4200D038BD82
:1090B000916B224B94F840200B441AB1A16BCA1A51
:1090C00082422CDB94F86C20BAB1626ED31A002B6A
:1090D00013DA0123A4F87230616E1BE01648BDE874
:1090E000384013F047BF78460FF000F8B4F87030FE
:1090F000CEE778460EF0FAFFC7E74FF6FF73A4F805
:10910000723078460EF0F2FFB4F872302C2202FB77
:109110000344A16B0848BDE8384013F059BF94F8E8
:109120006C3013B9A4F87230F4E7636E5B1A002B4D
:10913000CFDBA4F87200EDE7043900200087930329
:1091400070B5634CB4F8703082B00646002B44D042
:1091500094F840304FF6FF72A4F8722006F57A7545
:1091600053B1236B5B1B002B3FDBA36B5B1B002B03
:1091700065DB0023A4F8723094F86C30A3B1E36D82
:109180005B1B002B45DB636E5D1B002D6BDBB4F8B6
:1091900072204FF6FF718A4223D02C2101FB02423C
:1091A000926B9B1A002B1CDBB4F8703093B1B4F8AF
:1091B0007230012B04D978460EF098FFB4F8723063
:1091C0002C2202FB03439B6B9A1B48BFF21AE260FE
:1091D00002B070BDE36002B070BD78460EF086FF4D
:1091E000B6E70123A4F87230DEE7B4F87030208BC4
:1091F000013B002201A9A4F8703084F84020FFF759
:109200007BFE002856D1636B0199208B0122984781
:10921000B2E7B4F87030B4F84400013B002201A971
:10922000A4F8703084F86C20FFF766FE00283DD16A
:10923000236E0199B4F8440001229847B4E7254908
:10924000208BFEF719FF0023A4F8723038B30428EE
:1092500034D078460EF04AFFA36B226BD31A002B52
:109260008ADAA26388E71C49B4F84400FEF704FFD9
:109270000123A4F8723058B104281FD078460EF0AC
:1092800035FF636EE26DD31A002B8DDA62668BE7D1
:10929000A26E636E510013446366A166F2E7E26B4F
:1092A000A36B51001344A363E163D6E778460EF045
:1092B0001DFFBDE778460EF019FFA4E72C2202FB44
:1092C00003439A6B02F51C4240329A636CE700BF7D
:1092D00004390020203900204C3900200128F8B53D
:1092E00004460E46174602D978460EF0FFFE14F0EB
:1092F000F9FB154B93F8402012B11A8BA2420AD009
:1093000093F86C201AB1B3F84420A24218D0BDE8FB
:10931000F84014F009BC002005462C2202FB05355C
:109320003388AA8D9A42F2D17388EA8D9A42EED19F
:10933000FFF7A2FE6B6B3946204600229847E6E70E
:1093400001200546E9E700BF0439002010B5044CB0
:109350007422204600211DF047FE024BA36010BD81
:10936000043900204191020070B5264C82B014F0FF
:10937000B9FBB4F870304BB994F8403083B994F825
:109380006C300BBB14F0D0FB02B070BD0023204644
:10939000A4F8703013F0EEFD94F84030002BEED0BE
:1093A000258B1948666B00212C221DF01DFE2846D6
:1093B00001A9FFF7A1FD00BB284602220199B04791
:1093C00094F86C30002BDDD0B4F844500F48246E74
:1093D00000212C221DF008FE284601A9FFF78CFD74
:1093E00038B9284602220199A04714F09DFB02B02B
:1093F00070BD78460EF07AFEF3E778460EF076FE02
:10940000DAE700BF043900201C3900204839002069
:10941000012801D90520704770B5194D84B0044664
:1094200014F060FB95F84030ABB12B8BA34212D106
:1094300000200646FFF720FE03A92046FFF75CFD4B
:10944000D0B92C2303FB065520466B6B03990222EF
:10945000984700200AE095F86C3033B1B5F84430F5
:10946000A34202D101200646E4E70520019014F052
:109470005BFB019804B070BD78460EF037FEE0E764
:1094800004390020F0B40E4B09880E4E0E4D87B201
:109490007A0923F8271000F01F01012056F8224016
:1094A000884055F8221003EB87030443084346F82D
:1094B000224045F822000022DA709A70F0BC704712
:1094C00090390020783900207C390020024B33F895
:1094D00020300B80704700BF9039002070B51624F3
:1094E00004FB00F5064C0E46A91D2144301D102238
:1094F0001DF06FFD635B33802C446388738070BD07
:10950000303B0020044B00EB800003EB8003102273
:109510000846191D1DF05DBD343E0020042201489F
:109520001DF057BD803B00200846042201491DF074
:1095300050BD00BF803B002010B5044618B1234643
:10954000BDE81040184778460EF0D0FD2346BDE830
:1095500010401847F8B506462A240D4604FB06F4C9
:109560000846104E0021174624221DF03DFDA11D86
:1095700010223144281D1DF02CFD335B2B80331944
:109580005A886A809B7D1BB93B88043B3B80F8BDB1
:1095900004F11901314405F114001022BDE8F8402E
:1095A0001DF017BDD83900202DE9F0410646A8244A
:1095B00004FB06F4134E0D46084690460021242273
:1095C0001DF012FD3719335B2B8097F86430AB70B8
:1095D000A11C3144E81C10221DF0FBFC97F86430FC
:1095E00033B9B8F80030043BA8F80030BDE8F0818A
:1095F00004F11201314405F113001022BDE8F041DD
:109600001DF0E7BC943B002008B5064B064800223D
:109610001A7015F0EDFE00B908BD0448BDE8084019
:1096200016F0A8BA463B0020483B00200C3300202F
:109630002DE9F04705460C4614F054FA052D1ED8C6
:10964000234B1E7816BB234F4FEAC508A8EB050530
:1096500007EB85076509B9681F4851F825300122D5
:1096600004F01F0402FA04F4234341F825300026D5
:1096700016F080FA14F058FA3046BDE8F0877846C4
:109680000EF034FD124B1E78002EDCD04FEAC508D8
:10969000104F1248A8EB050907EB8909B9F80C101F
:1096A000D9F81020214489B215F0A0FF8246002885
:1096B000CCD0D9F8143052460AF10401204698471C
:1096C000504615F0D7FF14F02FFA3046BDE8F0876A
:1096D000463B00204C7404006C3B0020483B0020BB
:1096E00030B587B01C4B1D491D4A039300230491DC
:1096F0000592029311F032FE1A4CA0F5805001231E
:109700008DE8090014F0EEF92046694616F02AF8B3
:1097100048B92578012D0DD014F006FA124B01221C
:109720001A7007B030BD14F0FFF9104816F022FA95
:1097300007B030BD20460A22294615F057FF002801
:10974000F1D0082210240421058144818281C28045
:10975000818015F08FFFDFE7C59702007197020047
:10976000F59A0200483B0020463B00201C330020B5
:1097700000B5012A8DB006D0022A04D0032A08D0F1
:109780000DB05DF804FB78460EF0B0FC0DB05DF84E
:1097900004FB01A82C2200211DF026FC084BDA68EE
:1097A000196905920223102201A806918DF8042060
:1097B0008DF8083010F04EFC0DB05DF804FB00BFD2
:1097C000483B002010B5012A8CB005D0022A03D0F6
:1097D000032A06D00CB010BD78460EF087FC0CB002
:1097E00010BD0C4601A82C2200211DF0FDFB084BEA
:1097F0000394DA68196905920223102201A80691E0
:109800008DF804208DF8083010F024FC0CB010BD49
:10981000483B00202DE9F04100F10804A4B2083CC7
:10982000162505FB04F6144D0B46B01D28440431E3
:109830001022B3F800805F881DF0CBFB6309DFF8CE
:1098400040E00E485EF8232050F8231025F80680EB
:109850004FF0010C04F01F040CFA04F435442243C9
:109860000C4340F8234000216F80697185F804C0E3
:109870004EF82320BDE8F081303B00202C3B002037
:10988000283B0020F8B500F11004A4B2103C04EB12
:109890008405AD00104E281D0F46304410221DF0E7
:1098A00098FB7119384615F051F910B178460EF051
:1098B0001DFC6309094E0A4D56F8230055F8231084
:1098C00004F01F04012202FA04F420430C4346F87A
:1098D000230045F82340F8BD343E0020883900209D
:1098E0008C3900202DE9F04F85B22A2404FB05F4C1
:1098F000364E4B88B1F8009083B001F1040B8046DE
:10990000A01D0F46924659461022304401931DF087
:1099100060FB04F119000021304410221DF064FBAB
:10992000611D314458462C4615F0CAF810B17846EE
:109930000EF0DCFB6809DFF89CB025495BF82020BD
:1099400004F01F034FF0010C0CFA03F342EA030E7C
:109950002A2451F820204BF820E004FB05F513439E
:10996000721941F82030BAF1240F4FF00003BDF80E
:10997000041026F8059051801371937508D0BAF140
:10998000140F20D0784603B0BDE8F04F0EF0AEBB08
:1099900004FB08F43319143704F119003946304434
:1099A00083F816C0102218341DF013FB3119384605
:1099B00015F086F810B178460EF098FB2A2303FBC9
:1099C00008663379F37503B0BDE8F08FD83900200D
:1099D000D4390020D03900202DE9F04F86B2414C17
:1099E0008B46A82505FB06F583B080460F46601917
:1099F00005F168013BF803AB019221444167B14690
:109A0000BAF1000F02D1384A0121117005F122018B
:109A10002144584615F060F800285ED105F1780120
:109A20002144584615F06AF810B178460EF05EFBF6
:109A3000A81C5946102220441DF0CBFA05F1120053
:109A40001022002120441DF0CFFA7009DFF8A0E0B9
:109A5000264D5EF8201055F82020012309F01F093B
:109A600003FA09F9A82303FB06F641EA090142EAD1
:109A700009024EF82010A11945F8202024F806A06C
:109A8000002281F8642003FB0843BA7883F864203D
:109A9000019BD2B1242B02D078460EF027FBA821DF
:109AA00001FB08F8133708F1120039462044102250
:109AB00008F143081DF08DFA04EB0801384615F053
:109AC0000BF820B903B0BDE8F08F142BFAD078461C
:109AD00003B0BDE8F04F0EF009BB78460EF006FB70
:109AE0009CE700BF943B00207C3B0020903B002083
:109AF0008C3B002030B587B01C4B1D491D4A039399
:109B0000002304910592029311F028FC1A4CA0F551
:109B1000805001238DE8090013F0E4FF20466946D8
:109B200015F020FE48B92578012D0DD013F0FCFF6B
:109B3000124B01221A7007B030BD13F0F5FF104828
:109B400016F018F807B030BD20460A22294615F055
:109B50004DFD0028F1D00822102404210581448104
:109B60008281C280818015F085FDDFE7C597020004
:109B700071970200F59A0200483B0020463B002006
:109B80001C3300202DE9F04F584E4FF00109B0462C
:109B900083B000274E464FF0010C06F11F056D09FA
:109BA00078D005F1FF3EA8F104003146002301E022
:109BB000AB426FD0734508BF0CFA01F250F8044F66
:109BC0000CBF02F1FF324FF0FF32224203F10103DA
:109BD000A1F12001ECD0002E4DD0FB00A3EB070A31
:109BE0000093434B002503EB8A0A6A0905F01F0026
:109BF00058F82210012484404FEA820B0C4208EBF3
:109C00000B0935D0DAF8041051F82220144218D08C
:109C100013F068FF374B1A78002A4AD1009B364868
:109C2000DF1B334B03EB8707B96851F80B20144354
:109C300041F80B4015F09EFF03B0BDE8F04F13F064
:109C400073BF13F04FFF2B4B1A78002AE6D0BAF8F7
:109C50000C102A48294489B215F038FD0028DDD1BE
:109C600013F062FFD9F8003023EA0404C9F8004079
:109C70000135B542B9D10137FFB2062F32D01C4AA7
:109C80001B49C7EBC70302EB830251F82360D2F8EC
:109C9000088080E70137FFB2062F23D0144A144909
:109CA000C7EBC70302EB830251F82360D2F80880A8
:109CB00073E7BAF80C10DAF810201048294489B27A
:109CC00015F094FC0246011D01900028A6D02846FC
:109CD000DAF814309847019B184615F0CBFC13F0C6
:109CE00023FFBFE703B0BDE8F08F00BF8439002039
:109CF0004C740400463B00206C3B0020483B002095
:109D0000F0B50F2883B005D8344E01243168844063
:109D10000C4207D1A0F11004A3B2072B0CD90520E7
:109D200003B0F0BD2E4D05EB800293780BB9D278CD
:109D300052B3002003B0F0BD2A4E0122316802FA6E
:109D400003F30B42EBD004EB8403274F9B00FD1879
:109D5000A8780028EDD195F803E0BEF1000FDFD11F
:109D600002FA04F521EA050127F803E0316013F057
:109D7000B9FE1E4B1B783BBB1D4B1E481A682A437D
:109D80001A6015F0F7FE12E021EA040125F8202000
:109D90003160019013F0A6FE144B01981B7853B963
:109DA000154A144813681C43146015F0E3FE13F0C1
:109DB000BBFE0020BEE700F5805189B20F4815F0C8
:109DC00085FC0028F3D0EBE704F5005189B20B487D
:109DD00015F07CFC0028EAD0CEE700BF78390020DF
:109DE0009039002088390020343E0020463B002076
:109DF0008C3900206C3B00207C390020483B00203F
:109E00000378042B00D070474368002B00F0D0800B
:109E10002DE9F04F7D4F07F17002934283B002D2DB
:109E200003B0BDE8F08F07F51A718B42F8D89C1A81
:109E3000774AE408A2FB04246408A5B24FF6FF7237
:109E40009542EDD0826820339A42E9D1437E002BBF
:109E500033D0A82303FB05732C4693F86430012B01
:109E6000DED1032DDCD86B4A126803FA05F61642E0
:109E7000D6D0A82303FB05F307EB030E022203F160
:109E8000A0013944F85A8EF86420634F11F0E8FBC2
:109E90003B6833433B6013F025FE604B1B78002B7F
:109EA00040F08B803B685E4833433B6015F062FEB8
:109EB00003B0BDE8F04F13F037BEA4B2A82303FBF4
:109EC000047393F86430002BAAD0032DA8D8514B0B
:109ED00001261B68A6401E42A2D04FF0A80909FB2C
:109EE00004F909F1120109F1020039443844102241
:109EF0001DF06FF809F1430109F12200394438449B
:109F000021221DF066F809F1900109F17800394429
:109F1000384418221DF05DF807EB09034FF00008E4
:109F200009F1880137F8090083F864803944424612
:109F300011F096FBDFF8F090DFF8F0B0DFF8F0A05A
:109F4000474604E00137082F09F12A0933D04FF0C2
:109F50000108DBF8003008FA07F818EA030FF1D01F
:109F600039F8023CAB42EDD199F81230002BE9D020
:109F7000122209F1130148461DF02BF8DAF80030DF
:109F8000002243EA080389F81220CAF8003013F0CF
:109F9000A9FD224B1B7823BBDAF80030204843EAA6
:109FA0000803CAF8003015F0E5FD13F0BDFDC9E760
:109FB00078460EF09BB8184F6AE705F5405189B214
:109FC0002422184815F012FB054600283FF46AAF1A
:109FD00020462A46291DFFF7E7FA284615F04AFBD6
:109FE00066E707F5804189B224220E4815F0FEFA93
:109FF0000246011D01900028CED03846FFF7AAFA8C
:10A00000019B184615F036FBCFE700BF943B0020BC
:10A01000198661188C3B0020903B0020463B0020B5
:10A020006C3B0020483B0020DC390020D039002068
:10A03000D43900202DE9F04F83B015F0B5FD40B9BB
:10A0400013F03EFE0028F8D020BF15F0ADFD00282B
:10A05000F6D0594D2B781BB9002003B0BDE8F08F26
:10A060000121564815F0FAF904460028F4D0438936
:10A07000102B02D18389082B0DD000244F482C705F
:10A0800015F0B6F90028E7D04D4815F073FD2046CD
:10A0900003B0BDE8F08FC388082BEED10389012BF4
:10A0A000EBD18388042BE8D1444FDFF83081DFF80F
:10A0B00030A100252A460021384615F0F3F905465F
:10A0C000002838D08442F5D0418801EA0803B3F56E
:10A0D000005F49D034D9B3F5804F41D0B3F5A04FDC
:10A0E0003AD0B3F5405F33D078460DF0FFFF354EE0
:10A0F0006988DFF8F0B002232A8802F18042013A31
:10A100009200A1EB030992B2291D4846D8474FEAB5
:10A110005910012156F8202009F01F0301FA03F31A
:10A120001A4346F8202000212A46384615F0BAF98D
:10A1300005460028C6D1234B186800F001008CE7C3
:10A14000B3B1B3F5805FCFD11F4EDFF89CB0D3E73A
:10A150001E4EDFF898B0CFE71D4EDFF894B0CBE786
:10A160001C4EDFF890B0C7E75646DFF88CB0C3E767
:10A17000881EC0B2184E2B88C0EBC00206EB8206C8
:10A1800003F18043B6F80CE0013B9A000528A1EBEF
:10A190000E0992B205F104010AD98DE8060078464D
:10A1A0000DF0A4FFD6F818B076689DE80600ACE77D
:10A1B000D6F818B07668A8E7463B0020483B002058
:10A1C0000C33002080390020783900208C3B00209F
:10A1D000283B0020D03900204C74040000F0FFFF21
:10A1E000883900201D95020085940200D99902004B
:10A1F00015980200E59802008598020008B511F054
:10A20000ADF8A0F5805008BD70B5494D05F1A80620
:10A210002C6868681F346409A400224600211CF0E1
:10A22000E3FE1C3555F8140C224600211CF0DCFE20
:10A23000B542EDD13F4B404D404800242146042219
:10A24000DC709C70DC719C71DC729C72DC739C73A2
:10A25000DC749C74DC759C75DC769C76DC779C7772
:10A2600083F8234083F8224083F8274083F8264070
:10A2700083F82B4083F82A4083F82F4083F82E4040
:10A2800083F8334083F8324083F8374083F8364010
:10A2900083F83B4083F83A4083F83F4083F83E40E0
:10A2A000EC70AC70EC75AC7585F82B4085F82A40E5
:10A2B00085F83F4085F83E4085F8534085F8524088
:10A2C00085F8674085F8664085F87B4085F87A40D8
:10A2D00085F88F4085F88E401CF086FE21460422CA
:10A2E00017481CF081FE2146042216481CF07CFE13
:10A2F0002146042214481CF077FE2146042213480C
:10A300001CF072FE2146042211481CF06DFE11491A
:10A31000114A124B12480C6014701C7015F068F84A
:10A3200000B970BD0F48BDE8704015F023BC00BFF8
:10A330004C74040090390020343E00208039002005
:10A3400078390020883900208C3B0020D03900204B
:10A35000283B0020803B00207C3B0020463B002027
:10A36000483B00200C33002070B52348234B03608A
:10A3700086B011F0CFFF224A224B234C2349936031
:10A38000234D2448244E05910023D6602370029368
:10A390000395049010F0E2FF204DA0F580500123BA
:10A3A0008DE8090013F09EFB2846694615F0DAF99E
:10A3B00040B92E78012E0CD013F0B6FB0123237088
:10A3C00006B070BD13F0B0FB154815F0D3FB06B016
:10A3D00070BD28460A22314615F008F90028F1D050
:10A3E000082210250421068145818281C280818056
:10A3F00015F040F9E0E700BF843B0020019E020019
:10A400006C3B002039950200463B0020F59A020083
:10A41000C597020071970200859B0200483B00200F
:10A420001C33002070B5054668B1194E306810F035
:10A43000010401D00F2070BD28886B880344984226
:10A4400005DB0B2070BD78460DF050FEEDE711F0F6
:10A450002BFD0128F5D128886B881844013880B27B
:10A4600011F022FD0128ECD12946042209481CF0F4
:10A47000B0FD336843F00103336021462046FFF707
:10A48000D7F8054A136843F001031360204670BDF6
:10A4900080390020803B00208439002010B504461C
:10A4A00030B1204604220449BDE810401CF091BDA3
:10A4B00078460DF01BFEF4E7803B002091B12DE9BA
:10A4C000F84F04460D4611F0EFFC02280CD000F0C6
:10A4D000FD02012A12D04FF6FF77012855D0102037
:10A4E000BDE8F88F0E207047B14B1A68B14BD60704
:10A4F00000F189809A8AA242F1D0F0E7AE49AF4ECE
:10A500000B6813F0010740F09B80B388A34200F072
:10A5100045813389A34200F03D81B389A34200F015
:10A520004381338AA34200F03781B38AA34200F00B
:10A530003D81338BA34200F03581B38BA34200F001
:10A540004981338CA34200F04381B38CA34200F0D5
:10A550004381338DA34200F09D80B38DA34200F070
:10A560004181338EA34200F03B81B38EA34200F0C1
:10A570003B81338FA34200F03181B38FA34208BFE8
:10A580000F2300F088800328A7D14FF6FF739F4266
:10A5900064D08949894EDFF834A226F827404FEA73
:10A5A000571807F01F0051F828205AF828304FF0AC
:10A5B000010909FA00F942EA090043EA090206EB37
:10A5C000870341F828000021D97099704AF82820A3
:10A5D00013F088FA7A4B1B783C46002B47D15AF887
:10A5E0002830784843EA09034AF8283015F0C2FABF
:10A5F00013F09AFA06EB84032F809A7801329A704E
:10A600000020BDE8F88F1988A1423FF468AF950794
:10A610007FF573AF998AA1423FF461AF50077FF590
:10A620005EAF198DA1423FF45AAF11077FF557AFC6
:10A63000998FA1423FF453AFD2067FF550AF4EE75A
:10A640003788A74200F0AC809F070AD5B788A74299
:10A6500000F0A4805A0728D402275EE70420BDE852
:10A66000F88F3389A34200F09580174655E707F528
:10A67000805189B20222544814F0B8FF8346002862
:10A68000ADD00246011D3846FEF720FF584614F0B3
:10A69000F1FFADE70A2303289FB208BF1C46A9D0EB
:10A6A00001287FF41CAF9CB2A4E73289A24271D08A
:10A6B0001F0704D4338AA3426ED0032735E7B2893B
:10A6C000A24271D0DA0601D404272EE7328AA242D0
:10A6D00062D09F0604D4338BA34263D005272CE7B6
:10A6E000B28AA24262D05A0601D4062725E7328BED
:10A6F000A24257D01F0604D4338CA34268D0072748
:10A7000023E7B28BA24265D0DA0501D408271CE703
:10A71000328CA2425CD09F0504D4338DA342B9D0C1
:10A7200009271AE7B28CA24256D05A0501D40A274B
:10A7300013E7328DA242ADD01F0504D4338EA3425D
:10A740004ED00B2711E7B28DA2424BD0DA0401D4D0
:10A750000C270AE7328EA24242D09F0404D4338FE2
:10A76000A3423BD00D2708E7B28EA2423CD05A0448
:10A7700001D40E2701E7328FA2422FD01B0402D54D
:10A780004FF6FF77F9E6032802D001287FF4A7AE41
:10A790000F2700E702237EE704237CE713467AE7CE
:10A7A000002378E7062376E7032374E7052372E79F
:10A7B00088390020343E002078390020903900206C
:10A7C000463B00206C3B0020483B00207C390020A9
:10A7D000082360E707235EE709235CE70E235AE7B7
:10A7E0000C2358E70B2356E70D2354E70F2805D811
:10A7F0000F4A012312688340134210D1103883B2EC
:10A80000072B01D9052070470A490122096802FA7D
:10A8100003F30B42F6D0084B00EB800000E0074B3F
:10A8200003EB800300209A7801329A70704700BFD2
:10A830007839002088390020343E002090390020EB
:10A84000002861D000295FD02DE9F84F884E346888
:10A8500014F0010205460F4640F0D08014F00204C7
:10A8600054D13368580764D4190774D4D90600F159
:10A8700084809A0600F192805A0600F1A0801B069F
:10A8800000F1AD8004F110081FFA88F8A8F1100A51
:10A890000AEB8A0B4FEA8B0BDFF808920BF10400EE
:10A8A0002946484410221CF094FB09EB0B01284672
:10A8B00014F04CF9002840F0AC806E4D32682968E5
:10A8C000012303FA0AF3194313433360296013F099
:10A8D00009F9694B1B78002B40F09F802B68674873
:10A8E0000122A24013432B6015F044F913F01CF928
:10A8F00004EB840409EB8404A7F80080A3780133F7
:10A90000A3700020BDE8F88F0E2070471446102277
:10A9100029465B481CF04EFB002800F09E803368FF
:10A920005A0706D44FF6FF739C4208BF02243368CF
:10A930009AE71022294653481CF03CFB002800F0FF
:10A940008A8033681B0706D44FF6FF739C4208BF0A
:10A95000032433688AE7102229464B481CF02AFB5F
:10A96000002800F082803368D80606D44FF6FF73C3
:10A970009C4208BF042433687BE7102229464348E1
:10A980001CF018FB00286ED03368990606D44FF6E9
:10A99000FF739C4208BF052433686DE710222946E7
:10A9A0003B481CF007FB00285BD033685A0606D4EE
:10A9B0004FF6FF739C4208BF062433685FE71022FE
:10A9C000294634481CF0F6FA00283AD033681B06B2
:10A9D00005D44FF6FF739C4208BF072452E71022AC
:10A9E00029462D481CF0E6FA002838D04FF6FF73B0
:10A9F0009C427FF447AF0420BDE8F88F0146102247
:10AA000026481CF0D7FAE8B13368980720D401240F
:10AA100027E778460DF06AFB4FE704F5005189B24D
:10AA200010221F4814F0E2FD064600283FF456AFFE
:10AA30000246011D2046FEF765FD304614F01AFE61
:10AA400054E7062084B204F11008DFF858904FE76D
:10AA50004FF6FF745BE70220F4E70120F2E70720DE
:10AA6000F0E70520EEE70420ECE70320EAE700BF6B
:10AA7000883900208C390020463B00206C3B0020A8
:10AA80004C3E0020603E0020743E0020883E0020A6
:10AA90009C3E0020B03E0020C43E0020383E0020F6
:10AAA000483B0020343E00200F28F8B505D8254942
:10AAB00001240A688440144219D1A0F110039AB20B
:10AAC000072A01D90520F8BD1F4C0121246801FA8D
:10AAD00002F22242F6D01D4A03EB830302EB83030A
:10AAE0009A78013A9A70BDE8F840FFF709B9184E14
:10AAF00006EB8005AB78013BDBB2AB700BB9ED78B0
:10AB00000DB10020F8BD22EA04020A6026F82050A8
:10AB1000074612F0E7FF0F4B1B7853B90E4A0F4858
:10AB200013682343136015F025F812F0FDFF002091
:10AB3000F8BD07F5805189B2094814F0C7FD002817
:10AB4000F3D0EBE77839002088390020343E00202C
:10AB500090390020463B00207C3900206C3B0020CF
:10AB6000483B002071B12DE9F84F04460D4611F025
:10AB70009BF9022808D000F0FD02012A0ED0102017
:10AB8000BDE8F88F0E207047B34B1A68B34BD60759
:10AB900000F186809A8AA242F1D0F0E7B049B14E26
:10ABA0000B6813F0010740F09880B388A34200F0CF
:10ABB00040813389A34200F03881B389A34200F079
:10ABC0003E81338AA34200F03281B38AA34200F06F
:10ABD0003881338BA34200F03081B38BA34200F065
:10ABE0003481338CA34200F02E81B38CA34200F059
:10ABF0002E81338DA34200F08480B38DA34200F0F8
:10AC00003D81338EA34200F03781B38EA34200F022
:10AC10003781338FA34200F01C81B38FA34208BF5A
:10AC20000F236FD00328AAD14FF6FF739F426FD036
:10AC30004FEA5718DFF83CA251F8283026F8274091
:10AC400007F01F024FF0010909FA02F943EA09036C
:10AC50005AF8282041F8283006EB8703002142EA01
:10AC60000902D97099704AF8282012F03BFF7E4BF8
:10AC70001B783C46002B7DD15AF828307B4843EAAC
:10AC800009034AF8283014F075FF12F04DFF06EB67
:10AC900084032F80DA780132DA700020BDE8F88F63
:10ACA0001988A1423FF46BAF95077FF576AF998A7B
:10ACB000A1423FF464AF50077FF561AF198DA14207
:10ACC0003FF45DAF11077FF55AAF998FA1423FF472
:10ACD00056AFD2067FF553AF51E73788A74200F051
:10ACE000AA809F0707D5B788A74200F0A2805A071D
:10ACF00011D4022761E73389A34200F096801746FA
:10AD00005BE70A2303289FB208BF1C46BFD036E783
:10AD10000420BDE8F88F3289A24200F086801F0728
:10AD200005D4338AA34200F0828003274DE7B2891D
:10AD3000A24200F08480DA0601D4042745E7328A73
:10AD4000A24274D09F0604D4338BA34275D005274A
:10AD500043E7B28AA24274D05A0601D406273CE7E0
:10AD6000328BA24269D01F0618D4338CA3426AD01A
:10AD700007273AE707F5805189B202223C4814F0D0
:10AD800035FC834600283FF477AF0246011D384664
:10AD9000FEF79CFB584614F06DFC76E7B28BA2429E
:10ADA00053D0DA0501D408271FE7328CA2424AD0DB
:10ADB0009F0504D4338DA342A3D009271DE7B28C8D
:10ADC000A24244D05A0501D40A2716E7328DA24286
:10ADD00097D01F0504D4338EA3424DD00B2714E720
:10ADE000B28DA2424AD0DA0401D40C270DE7328E8C
:10ADF000A24241D09F0404D4338FA34229D00D270F
:10AE00000BE7B28EA2423BD05A0401D40E2704E7CE
:10AE1000328FA2421DD01B0402D54FF6FF77FCE60D
:10AE200003287FF4ACAE0F2702E702236AE704236E
:10AE300068E7134666E7002364E7062362E7032317
:10AE400060E705235EE708235CE707235AE7092349
:10AE500058E70E2356E700BF88390020343E002013
:10AE60007839002090390020463B00206C3B0020C0
:10AE7000483B00207C3900200C2343E70B2341E7AB
:10AE80000D233FE7002861D000295FD02DE9F84F5E
:10AE9000884E346814F0010205460F4640F0D08019
:10AEA00014F0020454D13368580764D4190774D4D9
:10AEB000D90600F184809A0600F192805A0600F1CA
:10AEC000A0801B0600F1AD8004F110081FFA88F87D
:10AED000A8F1100A0AEB8A0B4FEA8B0BDFF80892F5
:10AEE0000BF104002946484410221CF072F809EBCB
:10AEF0000B01284613F02AFE002840F0AC806E4D6E
:10AF000032682968012303FA0AF3194313433360B3
:10AF1000296012F0E7FD694B1B78002B40F09F8001
:10AF20002B6867480122A24013432B6014F022FED5
:10AF300012F0FAFD04EB840409EB8404A7F8008006
:10AF4000E3780133E3700020BDE8F88F0E207047EE
:10AF50001446102229465B481CF02CF8002800F00B
:10AF60009E8033685A0706D44FF6FF739C4208BF91
:10AF7000022433689AE71022294653481CF01AF835
:10AF8000002800F08A8033681B0706D44FF6FF7351
:10AF90009C4208BF032433688AE7102229464B48A5
:10AFA0001CF008F8002800F082803368D80606D428
:10AFB0004FF6FF739C4208BF042433687BE71022DE
:10AFC000294643481BF0F6FF00286ED033689906E7
:10AFD00006D44FF6FF739C4208BF052433686DE723
:10AFE000102229463B481BF0E5FF00285BD0336860
:10AFF0005A0606D44FF6FF739C4208BF06243368F6
:10B000005FE71022294634481BF0D4FF00283AD0CD
:10B0100033681B0605D44FF6FF739C4208BF072414
:10B0200052E7102229462D481BF0C4FF002838D0D3
:10B030004FF6FF739C427FF447AF0420BDE8F88FC2
:10B040000146102226481BF0B5FFE8B13368980787
:10B0500020D4012427E778460DF048F84FE704F59F
:10B06000005189B210221F4814F0C0FA0646002889
:10B070003FF456AF0246011D2046FEF743FA304624
:10B0800014F0F8FA54E7062084B204F11008DFF84F
:10B0900058904FE74FF6FF745BE70220F4E701207A
:10B0A000F2E70720F0E70520EEE70420ECE70320B5
:10B0B000EAE700BF883900208C390020463B002099
:10B0C0006C3B00204C3E0020603E0020743E00207F
:10B0D000883E00209C3E0020B03E0020C43E002060
:10B0E000383E0020483B0020343E00200F2805D881
:10B0F0000F4A012312688340134210D1103883B2E3
:10B10000072B01D9052070470A490122096802FA74
:10B1100003F30B42F6D0084B00EB800000E0074B36
:10B1200003EB80030020DA780132DA70704700BF49
:10B130007839002088390020343E002090390020E2
:10B140000F2805D8114A012312688340134215D1F4
:10B15000103882B2072A01D9002070470C49012318
:10B16000096893400B40F7D00A4B00EB800003EBDB
:10B170008000C078003018BF01207047064B03EBF9
:10B180008000C078003018BF012070477839002057
:10B1900088390020343E0020903900200F2838B52F
:10B1A000044605D81E4A01231268834013421CD16D
:10B1B000A4F1100293B2072B01D9052038BD19481C
:10B1C0000121006801FA03F30342F6D0164B02EBAB
:10B1D000820203EB8202D378002BEED0013BD370C6
:10B1E0002046BDE83840FEF78BBD104D35F82000F5
:10B1F00010F05AFE032803D002280DD00F2038BDCE
:10B2000005EB8405EB78002BD7D0013BEB70204693
:10B21000BDE83840FEF774BDA4F11002D6E700BFC8
:10B220007839002088390020343E002090390020F1
:10B2300071B30F2810B505D9103883B2072B13D975
:10B24000052010BD134A0123126883401342F3D036
:10B25000114B33F8200048800C4610F025FE0023E7
:10B2600020706360184610BD0C4C0122246802FA5D
:10B2700003F32342E4D000EB80008000084A031D62
:10B280001344125A4A8002224B600A70002010BDFB
:10B290000E2070477839002090390020883900202E
:10B2A000343E0020002800F01C81002900F01981A4
:10B2B000904A136813F0010306D00B68002B00F0CE
:10B2C000168100230380012310B4146814F0020FC8
:10B2D00008D00C68A34200F00681012420F8134036
:10B2E0002344146814F0040F08D00C68A34200F043
:10B2F000FA80022420F813401468013314F0080F78
:10B3000040F0E68014F0100F08D00C68A34200F063
:10B31000EA80042420F813401468013314F0200F4D
:10B3200008D00C68A34200F0DE80052420F813400A
:10B330001468013314F0400F08D00C68A34200F0E9
:10B34000D280062420F813401468013314F0800FD3
:10B3500008D00C68A34200F0C680072420F81340F0
:10B360001468013314F4807F08D00C68A34200F005
:10B37000BA80082420F813401468013314F4007FC5
:10B3800008D00C68A34200F0AE80092420F81340D6
:10B390001468013314F4806F08D00C68A34200F0E5
:10B3A000A2800A2420F813401468013314F4006FBB
:10B3B00008D00C68A34200F096800B2420F81340BC
:10B3C0001468013314F4805F08D00C68A34200F0C5
:10B3D0008A800C2420F813401468013314F4005FB1
:10B3E00007D00C68A3427ED00D2420F813401468C7
:10B3F0000133640406D50C68A34274D00E2420F8EF
:10B40000134001331268120406D50A689A426AD0C2
:10B410000F2220F813200133374A146814F0010F6B
:10B4200007D00C68A3425ED0102420F813401468A3
:10B43000013314F0020F07D00C68A34253D011243B
:10B4400020F813401468013314F0040F07D00C687F
:10B45000A34248D0122420F813401468013314F09A
:10B46000080F07D00C68A3423DD0132420F81340E6
:10B470001468013314F0100F07D00C68A34232D0C7
:10B48000142420F813401468013314F0200F07D05F
:10B490000C68A34227D0152420F813401468013308
:10B4A000640606D50C68A3421DD0162420F813406C
:10B4B00001331268120606D50A689A4213D0172281
:10B4C00020F81320013300200B605DF8044B704717
:10B4D0000C68A34207D0032420F8134001331468FA
:10B4E00010E70E20704709205DF8044B70470920D3
:10B4F000704700BF783900208839002078B171B1D9
:10B5000070B5044640880D4610F0CEFC022800F0CD
:10B510009380032805D0012803D0102070BD0E2091
:10B5200070474FF6FF73AA4A61882B80106810F0AD
:10B53000010340F0A1802B801368980700F12E8151
:10B540001068430700F1A68028884FF6FF739842E1
:10B5500000F0298113681E0700F1AC801068C40652
:10B5600000F1AF8028884FF6FF73984200F01E81EB
:10B5700013689C0600F1B5801068430600F1B8809E
:10B5800028884FF6FF73984200F01381136818065D
:10B5900000F1BE801068C40500F1C18028884FF614
:10B5A000FF73984200F0088113689B0500F1C78083
:10B5B0001068430500F1CA8028884FF6FF7398424F
:10B5C00000F0FD8013681E0500F1D0801068C404EF
:10B5D0000ED428884FF6FF73984200F0F38013686A
:10B5E0009C0413D57B4B9B8E8B420FD10D2320E007
:10B5F000784B1C8E8C4200F0E8808004F3D42888BD
:10B600004FF6FF73984201D10D232B80106846043A
:10B6100000F1B38028884FF6FF73984200F025812F
:10B620001368180424D56B4B9B8F8B4208BF0F23E4
:10B630001ED12B80002070BD6668DEB1664C236889
:10B64000D80700F1CB809A0700F1D180590700F1AB
:10B65000D7801A0700F1DD80D80600F1E380990653
:10B6600000F1E8805A0600F1ED801C0600F1F2803E
:10B67000052070BD0E2070BD564B1C888C4200F01A
:10B68000F780800740F18C809B888B427FF458AF15
:10B690000123CEE74F4B1C898C4200F0ED8006075A
:10B6A00009D428884FF6FF7398427FF457AF0323DD
:10B6B0002B8053E7474B9B898B427FF44FAF03238B
:10B6C000B7E7444B1C8A8C4200F0D480800609D432
:10B6D00028884FF6FF7398427FF44EAF05232B80E6
:10B6E0004AE73C4B9B8A8B427FF446AF0523A0E799
:10B6F000384B1C8B8C4200F0C180060609D4288888
:10B700004FF6FF7398427FF445AF07232B8041E744
:10B71000304B9B8B8B427FF43DAF072389E72D4B4A
:10B720001C8C8C4200F0AC80800509D428884FF630
:10B73000FF7398427FF43CAF09232B8038E7254BF9
:10B740009B8C8B427FF434AF092372E7214B1C8D15
:10B750008C4200F09780060509D428884FF6FF73C5
:10B7600098427FF433AF0B232B802FE7194B9B8D2F
:10B770008B427FF42BAF0B235BE7164B1A8F8A4269
:10B7800000F0828004043FF54FAF2A884FF6FF7324
:10B790009A427FF46DAF0F232B8069E70D4B73E75F
:10B7A00001232B80CCE602232B80D3E604232B80BD
:10B7B000DEE606232B80E9E608232B80F4E60A2345
:10B7C0002B80FFE60C232B8009E70C2331E700BF19
:10B7D0007839002090390020883900201022314625
:10B7E00031481BF0E7FB002856D023682BE71022D6
:10B7F00031462E481BF0DEFB00284FD0236825E79A
:10B80000102231462A481BF0D5FB002848D0236877
:10B810001FE71022314627481BF0CCFB002841D0FF
:10B82000236819E71022314623481BF0C3FB78B385
:10B83000236814E71022314620481BF0BBFB48B3B5
:10B8400023680FE7102231461D481BF0B3FBE8B117
:10B8500023680AE7314610221A481BF0ABFB072386
:10B8600000287FF405AF1033E3E60E232B80D7E6E4
:10B870000023DEE60423DCE60223DAE60623D8E62C
:10B880000823D6E60A23D4E60E23D2E60623EAE707
:10B890000423E8E70523E6E70346E4E70123E2E7BC
:10B8A0000223E0E70323DEE7383E00204C3E002081
:10B8B000603E0020743E0020883E00209C3E002018
:10B8C000B03E0020C43E0020184B1B68D90705D4A9
:10B8D0009A0722D45A071CD5154A0BE0144A11883E
:10B8E00081421FD09907F5D5B2F8A81081421BD02C
:10B8F00059070ED5B2F85011814210D01B0705D55B
:10B90000B2F8F831834208BF032009D04FF6FF7028
:10B9100070471907FAD5064AF2E7054AE4E702201C
:10B9200080B270470020FBE70120F9E78C3B002044
:10B93000943B002088B3244B93F864201ABB03F196
:10B940002201884227D093F80C214AB31F4A904223
:10B9500029D02132904226D093F8B4212AB31C4A30
:10B96000904225D02132904222D093F85C320BB322
:10B97000184B984226D021334FF6FF72984214BFDD
:10B9800010460320704703F12202904203D003F1D6
:10B9900043029042D7D1002070474FF6FF707047A6
:10B9A0000A4A9042D8D101207047094A9042DCD11E
:10B9B00002207047074A4FF6FF73904214BF1846A3
:10B9C0000320704703207047943B00205E3C00201A
:10B9D000063D0020AE3D0020304B1B68D90705D442
:10B9E0009A0749D4590733D52D4A0AE02C4A1188C1
:10B9F000814246D09907F5D5518D814243D05907F0
:10BA000026D5B2F85410814241D0190724D5B2F896
:10BA10007E10814239D0D90622D5B2F8A8108142D1
:10BA200037D0990620D5B2F8D210814233D05906CA
:10BA30001ED5B2F8FC10814220D01B0605D5B2F805
:10BA40002631834208BF072019D04FF6FF70704798
:10BA50001A0701D5124ADAE7D90601D5104ADCE700
:10BA60009A0601D50E4ADEE75A0601D50C4AE0E7F0
:10BA70001B06EAD50A4AE2E7094ABDE7062080B27A
:10BA800070470020FBE70120F9E70320F7E70220D9
:10BA9000F5E70420F3E70520F1E700BFD0390020E7
:10BAA000D839002070B10D4B984203D303F593723F
:10BAB00090420AD90A4A4FF6FF73904214BF1846C3
:10BAC000082070474FF6FF707047C01A054B4008BA
:10BAD000A3FB0030C0F38F00704700BFDC390020AB
