:020000022000DC
:1060000000FD0020C10D0400E90D0400EB0D0400AB
:10601000ED0D0400EF0D0400F10D04000000000080
:10602000000000000000000000000000F30D04006C
:10603000F50D040000000000F70D0400F90D040048
:10604000FB0D0400FB0D0400FB0D0400FB0D040020
:10605000FB0D0400FB0D04008D710200FB0D04001C
:10606000FB0D0400FB0D0400DD6F0200FB0D0400BE
:10607000FB0D0400FB0D0400FB0D0400FB0D0400F0
:10608000FB0D0400FB0D04007DDD0200FB0D040090
:10609000FB0D0400FB0D0400097F0200FB0D040052
:1060A000FB0D0400FB0D0400FB0D0400FB0D0400C0
:1060B000FB0D0400FB0D04000000000000000000C8
:1060C000FB0D0400FB0D0400FB0D0400FB0D0400A0
:1060D000FB0D0400FB0D0400FB0D0400000000009C
:1060E00000000000000000000000000000000000B0
:1060F00000000000000000000000000000000000A0
:10610000000000000000000000000000000000008F
:10611000000000000000000000000000000000007F
:10612000000000000000000000000000000000006F
:10613000000000000000000000000000000000005F
:10614000000000000000000000000000000000004F
:10615000000000000000000000000000000000003F
:10616000000000000000000000000000000000002F
:10617000000000000000000000000000000000001F
:10618000000000000000000000000000000000000F
:1061900000000000000000000000000000000000FF
:1061A00000000000000000000000000000000000EF
:1061B00000000000000000000000000000000000DF
:1061C00000000000000000000000000000000000CF
:1061D00000000000000000000000000000000000BF
:1061E00000000000000000000000000000000000AF
:1061F000000000000000000000000000000000009F
:1062000010B5054C237833B9044B13B10448AFF3F0
:1062100000800123237010BD903400200000000096
:10622000BC6B04000C4B43B10C480D4910B5AFF3E7
:1062300000800C48036823B910BD0A48036833B9CD
:106240007047094B002BF7D0BDE810401847064BAC
:10625000002BF5D0184700BF00000000BC6B040005
:10626000943400208834002000000000154B002BDF
:1062700008BF134B9D46A3F5803A00218B460F467D
:106280001348144A121A1FF033FA0F4B002B00D098
:1062900098470E4B002B00D09847002000210400A7
:1062A0000D000D48002802D00C48AFF300801FF00D
:1062B000D1F92000290000F0BBFA1FF0B7F900BFA8
:1062C0000000080000FD00200000000000000000A9
:1062D00090340020CC690020000000000000000085
:1062E00041DF70477ADF70477CDF704705F0E8BF19
:1062F00010B5324C23685A0484B003D5304B1B6868
:10630000032B2DDC03A815F0E1FB23685B0403D508
:106310002B4B1B68032B0CDC00214FF4F01000F01A
:10632000BDFE0422C8214FF4003000F0C1FE04B0CD
:1063300010BD2F2123481FF0AFFA28B32F21214889
:106340001FF0AAFA411CBDF80C401F4A1F4B042045
:10635000D3F804358DE81400592208F017FDDBE767
:106360002F2118481FF098FAC8B12F2115481FF0A7
:1063700093FA411C154B164AD3F8043500920420B9
:10638000572208F003FDBDE75C210E481FF084FA98
:1063900080B15C210B481FF07FFA411CD3E75C21E0
:1063A00008481FF079FA38B15C2106481FF074FAEA
:1063B000411CDFE70349C6E70249DBE7A4330020BD
:1063C000A0330020F8590400485A040000B00040EF
:1063D0002C5A0400112000F049BE00BF10B5194B23
:1063E0001B685B0482B00C4603D5174B1B68032B5C
:1063F00006DC2146112000F045FE204602B010BD0B
:106400002F2112481FF048FA78B12F210F481FF0B2
:1064100043FA411C0E4A0F4B0420D3F804358DE893
:106420001400662208F0B2FCE3E75C2107481FF085
:1064300033FA28B15C2105481FF02EFA411CE9E728
:106440000249E7E7A4330020A0330020F8590400F4
:10645000E059040000B0004000B51A4B1B685B0413
:1064600083B003D5184B1B68032B0ADC0322C82119
:106470004FF4003000F01CFE03B05DF804EB00F0B8
:10648000B3BC2F2111481FF007FA70B12F210F481C
:106490001FF002FA411C0E4B0E4AD3F8043500924D
:1064A00004206D2208F072FCE0E75C2107481FF031
:1064B000F3F928B15C2105481FF0EEF9411CEAE729
:1064C0000249E8E7A4330020A0330020F859040073
:1064D00000B00040C459040030B5394D2B685A044F
:1064E00083B0044603D5374B1B68032B25DC64B10E
:1064F000032C08D10EF05EF800F06CFC03B0BDE890
:106500003040FFF7A9BF03B030BD112000F0AEFD51
:106510002B6880F001005B04C4B203D5294B1B68D3
:10652000032B1FDC2146112000F0ACFD264821463C
:1065300003B0BDE830400EF0FDB92F2123481FF015
:10654000ABF918B32F2121481FF0A6F9411C204AAE
:10655000204B0420D3F804358DE814007D2208F088
:1065600015FCC4E72F2119481FF096F9C8B12F2157
:1065700016481FF091F9411C164B174AD3F8043501
:1065800000920420862208F001FCCBE75C210F4832
:106590001FF082F980B15C210C481FF07DF9411C8D
:1065A000D5E75C2109481FF077F938B15C2107482D
:1065B0001FF072F9411CDFE70449C8E70349DBE734
:1065C000A4330020A0330020B0340020F859040088
:1065D0001C59040000B000403059040010B5274B8E
:1065E0001B685B0482B003D5254B1B68032B24DC9E
:1065F000244C254A254B626020460021A3600EF002
:1066000077F9A8B9208813F0D3FB18B1204AAA2142
:106610001AF004FC00214FF4F01000F03FFD0222BC
:10662000C8214FF4F01002B0BDE8104000F040BDAA
:10663000174AA9211AF0F2FBE4E72F2114481FF0B2
:106640002BF970B12F2112481FF026F9411C114B74
:10665000114AD3F8043500920420A62208F096FBD4
:10666000C6E75C210A481FF017F928B15C210848E9
:106670001FF012F9411CEAE70549E8E7A4330020BE
:10668000A0330020B0340020D5630200DD63020097
:10669000F859040000B00040A459040003781C2BF2
:1066A00000D0704700B51A4B1B685B0483B003D55C
:1066B000184B1B68032B0ADC0322C8214FF400305F
:1066C00000F0F6FC03B05DF804EB00F08DBB2F2169
:1066D00011481FF0E1F870B12F210F481FF0DCF8CE
:1066E000411C0E4B0E4AD3F80435009204206D2253
:1066F00008F04CFBE0E75C2107481FF0CDF828B11B
:106700005C2105481FF0C8F8411CEAE70249E8E7A8
:10671000A4330020A0330020F859040000B000404A
:10672000C459040030B5A0F13004042C83B001D961
:1067300003B030BD374D2B685A0418D5364B1B6853
:10674000032B14DD2F2135481FF0A6F8002846D072
:106750002F2132481FF0A0F8411C314A314B042050
:10676000D3F804358DE814007D2208F00FFB54B1F6
:10677000032CDDD10DF01EFF00F02CFB03B0BDE8B3
:106780003040FFF769BE112000F070FC2B6880F0EC
:1067900001005B04C4B203D51F4B1B68032B0ADC4A
:1067A0002146112000F06EFC1F48214603B0BDE8D1
:1067B00030400EF0BFB82F2118481FF06DF8C8B157
:1067C0002F2116481FF068F8411C164B174AD3F8C2
:1067D000043500920420862208F0D8FAE0E75C2114
:1067E0000E481FF059F880B15C210C481FF054F896
:1067F000411CB2E75C2109481FF04EF838B15C211A
:1068000006481FF049F8411CDFE70449A5E70349A2
:10681000DBE700BFA4330020A0330020F8590400B8
:106820001C59040000B00040B0340020305904006E
:1068300080B5DFF84892804ADFF8448294B007219F
:1068400004AF4FF4C04008F091FAD9F800305A0470
:1068500004D5D8F80030032B00F3C48000F04EFCC0
:10686000764800F069FC002840F0D98001F054FA25
:10687000002840F0DD8007F14004002344F83C3D4F
:106880000120214601F0B0FB002840F0F4812046B1
:1068900001F014FC002840F0EB813B7B68480122AA
:1068A00062F3030307F1400462F3071304F8343D75
:1068B0001EF0EAFF624982B22046FFF715FD00286C
:1068C00040F0D38107F11C00082200211EF010FFC8
:1068D0005C4BFB6107F11C004FF0C8733B62FFF794
:1068E00001FD002840F0BE81574B07F140011B68B5
:1068F00041F8383D0422204600F0D2FC002840F048
:10690000AC812422002107F11C001EF0F1FE0126BB
:1069100007234E4D4E4A4F49BC6207F11C003E779B
:10692000FB7787F82430FD62FA6300F0B9F900289C
:1069300040F08E81EFF3108072B6474DAE68002EA6
:1069400039D1464B46490122AA60D3F880200A403B
:106950002A60C3F88010D3F884206A604FF0FF32B9
:10696000C3F8842000B962B664213E4800F050FBB1
:1069700000F0E4F9002830D1364B1B78EBB101F080
:10698000F9FCD9F800305B04024603D5D8F8003092
:10699000032B77DCAB685BB156B9EFF3108372B6AB
:1069A0002E4A2968116069685160AE6003B962B609
:1069B000FFF796FCFCE70126D4E72B492B4A3B6204
:1069C00007F11C00F9617A6200F0B2FA0028D6D013
:1069D000274AFE211AF022FAD1E7254AF4211AF0BB
:1069E0001DFAC9E72F2122481EF056FF002800F0AB
:1069F00015812F211E481EF04FFF411C1D4B1E4AC2
:106A0000D3F8043500920420DB2208F0BFF900F02F
:106A100075FB0A4800F090FB00283FF427AF144AAA
:106A2000DF211AF0FBF901F077F900283FF423AFDA
:106A30001AF0E4F91FE700BF41ED0200D96402003B
:106A400078590400C8002003185904009D6602000C
:106A5000DD650200AC3400202069002000E100E088
:106A6000FC06FFBD25670200F1620200605A0400C7
:106A7000F859040000B0004040590400A43300203D
:106A8000A033002001787D4B7D481B680C09E84647
:106A90008AB01C5D8DF8104001F00F0104AC595C08
:106AA000617051784FEA111E01F00F0113F80EE0EA
:106AB00084F802E0595CE17091784FEA111E01F010
:106AC0000F0113F80EE084F804E0595C6171D1788D
:106AD0004FEA111E01F00F0113F80EE084F806E0F2
:106AE000595CE17111794FEA111E01F00F0113F8A1
:106AF0000EE084F808E0595C617251794FEA111E8A
:106B000001F00F0113F80EE084F80AE0595CE1721D
:106B100091794FEA111E01F00F0113F80EE084F88D
:106B20000CE0595C6173D1794FEA111E01F00F013D
:106B300013F80EE084F80EE0595CE173117A4FEA25
:106B4000111E01F00F0113F80EE084F810E0595CFB
:106B50006174517A4FEA111E01F00F0113F80EE033
:106B600084F812E0595CE174917A4FEA111E01F049
:106B70000F0113F80EE084F814E0595C6175D17AC6
:106B80004FEA111E01F00F0113F80EE084F816E031
:106B9000595CE175117B4FEA111E01F00F0113F8EA
:106BA0000EE084F818E0595C6176517B4FEA111EC3
:106BB00001F00F0113F80EE084F81AE0595CE17659
:106BC000917B4FEA111E01F00F0113F80EE084F8DB
:106BD0001CE0595C6177D27B110902F00F02595C0D
:106BE000A1779B5CE377002384F820302F211EF0EF
:106BF00053FEF0B12F2122481EF04EFE411C214BC6
:106C00002148224AD3F804350190009202944FF4AF
:106C10008172042008F0BAF8C546BBE65C2118482A
:106C20001EF03AFE80B15C2115481EF035FE411C75
:106C3000E4E65C2112481EF02FFE38B15C211048BA
:106C40001EF02AFE411CDAE70D49D7E60C49D6E7CB
:106C50000B4ABD211AF0E2F86CE6094AB4211AF099
:106C6000DDF84EE61AF0CAF83EE61AF0C7F829E653
:106C70001AF0C4F811E61AF0C1F808E6A8330020AB
:106C8000F859040000B000408C5904009C590400DD
:106C900003780D2B00D07047002005F06DBB00BFBE
:106CA000F0B585B000283DD004460F460FCC214EEC
:106CB00035460FC50FCC0FC5304623682B6005F055
:106CC00009FA044610B1204605B0F0BD14F066FE86
:106CD00012F064FA306910F05DFF04460028F2D12A
:106CE000317FB269019100920146736912485922BD
:106CF00011F0EAFA04460028E5D1336A03B1984757
:106D000014F0D2FC12F0AEF803A814F0DFFEBDF8C8
:106D10000C30002B14BF0125002507D1002FD2D045
:106D20003D70D0E70E24204605B0F0BD0DF020FAEE
:106D3000F4E700BF18350020BC34002000B583B054
:106D400001A814F0C3FEBDF804300BB10DF0E0FA59
:106D500005F030FA03B05DF804FB00BF30B504461F
:106D600085B0A37DE27D0120ADF80E0043EA022349
:106D700003A80D46ADF80C3014F06CFE08B105B058
:106D800030BD02AA2146208A15F012FF0028F6D154
:106D90002A460DF10A03BDF80810E08A16F0A8FB98
:106DA0000028ECD1217ED4F8120001F0010104F09A
:106DB0008BFD50B9BDF80A0010F01EFF0028DED18F
:106DC000019011F099FD0198D9E7784601F0A2FAF7
:106DD000F0E700BF08B512F0A9F914F04FFDBDE8C7
:106DE000084004F081B900BF08B508F023FF20B9BE
:106DF0000448BDE8084005F061BA0020BDE808403D
:106E000005F0BABAC832002030B5254C227885B0DA
:106E100032B1012806D0032802D100F07DFF80BBEB
:106E200005B030BD04AD002345F8083D294601F00A
:106E3000DBF860BB284601F041F970BB05F0BAF9F8
:106E400040BB04A9012341F8043D0DF1060016F0F2
:106E500025FBC8B9BDF8060015F05CFD0DF1050174
:106E600015F0B0FF50B90DF083F99DF80510002022
:106E70000DF0DCFA0023237005B030BD19F0BEFF21
:106E8000F1E719F0BBFFCBE719F0B8FFE2E719F023
:106E9000B5FFCFE719F0B2FFD3E719F0AFFFCDE7A9
:106EA0003D35002010B50378052B23D0082B18D0D2
:106EB000022B00D010BD1A4B1A781A4B32B31B6844
:106EC000002BF7D09847184B01221A7005F096F95D
:106ED00018BB00F0ADFF0028ECD0BDE8104019F061
:106EE0008DBF8168C068FFF739FF60B90C4B012284
:106EF0001A7010BD0B4B0D489968102217F0B2FFA5
:106F00000028EAD110BD19F079FFEFE7596807486A
:106F10000323BDE8104017F029BF19F06FFFD8E731
:106F20003C350020403500203D35002080370020D2
:106F300070B5224B224C054693E8070086B003ABA0
:106F400003C3160C23F8022B95E807001E7084E893
:106F50000700002A2ED01B491B4817F005FF08B177
:106F600006B070BD194B0093164A1749184803AB79
:106F700017F0C6FE0028F3D1164819F073F8014641
:106F8000134817F0DBFE0028EAD1134800F0CAFBD3
:106F90000028E5D1104800F0FBFB01460C4817F033
:106FA000CDFE0028DCD1024661680948032317F0B2
:106FB000DDFED5E7072006B070BD00BF705A0400A3
:106FC000403500204C350020B4380020A56E02006A
:106FD000803700206C350020303700200A4BD3F872
:106FE00040317BB110B5094C236813B905E0236823
:106FF00098471AF013F80028F9DA034B0022C3F877
:10700000402110BD704700BF00A00040F4380020B0
:1070100038B5134B134C18600925002347F612208E
:10702000C4F804354FF47A72C4F80835A1FB0001A6
:107030000023C4F810551EF071F90B4BC4F840053D
:1070400001224FF48035E0204FF48061C4F8002223
:10705000C4F80453226083F80A03196038BD00BFE6
:10706000F438002000A0004000E100E04FF0A04212
:107070000123D2F8042503FA00F010420CBF184691
:107080000020704701234FF0A04203FA00F011B92D
:10709000C2F808057047C2F80C0570474FF0A043CE
:1070A00011B9C3F808057047C3F80C05704700BF55
:1070B0002DE9F0475FEA420A1BD00F4D8846814612
:1070C000002645F001054FF0A047D7F8043583EAC4
:1070D0000903C7F80435B8F1000F05D044464FF452
:1070E0007A40A847013CFAD101365645EDD1BDE8BA
:1070F000F087BDE8F08700BF805A040030B44FF03D
:10710000A04303224FF400354FF480244FF40020B5
:107110004FF48011C3F84427C3F80855C3F8482733
:10712000C3F80845C3F84C27C3F80805C3F850272F
:10713000C3F8081530BC7047E8B1F0B50F4B104CE0
:1071400018601049104A4FF0A04300254FF0004E40
:10715000E0274026C3F83427C3F83827C3F83C2774
:10716000C3F84027C4F804E3C4F87C5181F80673DF
:107170000E602846F0BD0E20704700BFF838002092
:107180000060004000E100E00C00030010B5404A40
:1071900000214FF0A043C2F87C11D3F810359804B9
:1071A0000AD43C4B3C491A68D1F80415501A5DD4F6
:1071B00043F2333290423ED84FF0A043D3F810351B
:1071C00059040AD4334B34491A68D1F80415501ABB
:1071D00052D443F23332904236D84FF0A043D3F822
:1071E00010351A040AD42B4B2B491A68D1F8041510
:1071F000501A47D443F2333290422ED84FF0A04376
:10720000D3F81035DB030BD4224B23491A68D1F88D
:107210000415501A48BF881A43F23332904200D8FE
:1072200010BD1D491D4AD1F80415196012680320CC
:10723000BDE8104010471849184AD1F804151268E3
:10724000196000209047B7E71349144AD1F8041594
:107250001268196001209047BFE70F490F4AD1F823
:1072600004151268196002209047C7E7881A43F294
:1072700033329042A0D9DEE7881A43F2333290428B
:10728000ABD9E1E7881A43F233329042B6D9E4E74A
:1072900000600040FC38002000B00040F8380020BA
:1072A000082A01D90920704738B5054614461EF052
:1072B00014FAC4F10802281900211EF019FA05F188
:1072C0000800082202491EF008FA002038BD00BF5D
:1072D0006000001072DF704773DF704774DF704723
:1072E000F0B5314CA3B005460E46174600211022DA
:1072F00020461EF0FDF92D482D4A03782D49C3EB99
:10730000431E01337244714403F001030370226091
:107310001F233C22A16004A80021A380A3811EF0AA
:10732000E7F906210123ADF80050ADF804503C22E6
:107330008DF8131013A8002101AD8DF80230ADF8BF
:1073400020308DF83C30ADF808700396CDF824D08D
:107350000E951EF0CDF92246022304A852F8041B14
:107360008DF84C3000F0C0FAA0B9A168124A13A8F9
:1073700000F0BAFA58B9114A0B491148FFF7AAFFB1
:1073800008280AD008B119F039FD23B0F0BD19F072
:1073900035FDF0E719F032FDE7E700220249084821
:1073A000FFF798FFEEE700BF4439002000390020C6
:1073B000043900205439002050390020D4320020F4
:1073C000D0320020034B00EB800040009881996090
:1073D000704700BFD432002008B5054B0121187852
:1073E000FFF77AFF00B908BDBDE8084019F006BDF7
:1073F000D032002008B5054B1878FFF76FFF00B9B1
:1074000008BDBDE8084019F0F9BC00BFD03200202B
:10741000024B53F820300846184700BFF45A0400C6
:10742000887BA0F10300B0FA80F04009704700BFEC
:107430000068836C3C309B68184700BF0068836C11
:107440003C305B68184700BF0246017900680AF0CB
:107450008BB800BF30B50A2385B00C46084601251D
:10746000194601AA01948DF808308DF809500AF0E8
:107470007BF805B030BD00BF70B5044684B00E4641
:1074800015463C3C01A80C2200211EF031F9204693
:1074900001AA062102960194ADF80C500AF064F896
:1074A000002004B070BD00BF70B5044684B00D4626
:1074B0006846102200211EF01BF923780095052B49
:1074C00045D8DFE803F00D1F29303A036378ADF8A3
:1074D00004306A46284604210AF046F804B070BD1C
:1074E000A168A6892379029128466A466578ADF895
:1074F0000C600821ADF804508DF80E300AF034F815
:1075000004B070BD6378ADF804306A4628460721A0
:107510000AF02AF804B070BD6A46284602210AF033
:1075200023F804B070BD6378ADF804306A4628468D
:1075300003210AF019F804B070BD6378ADF8043087
:107540006A46284605210AF00FF804B070BD784657
:1075500000F0E0FE04B070BDFFF74CBF10B503684B
:1075600082685A6286B0044600F004FF1022014689
:1075700001A81EF0B2F8E388ADF8143020210020F5
:10758000FFF720FF01A9122241F62700FFF7A8FE0E
:10759000FFF722FF06B010BD38B501680289044626
:1075A0000023088903210BF031FD0546C0B1616855
:1075B000228928461EF091F82368294618890BF085
:1075C0006BFD10B1784600F0A5FE246805F0D4FDEF
:1075D000616A014404F10C00BDE8384005F0D4BCF8
:1075E000784600F097FEE2E710B5044600680C30DC
:1075F00005F09CFC2068836C02213C30DB68BDE810
:107600001040184708B5036818890BF0B3FD00B99E
:1076100008BD7846BDE8084000F07CBEF8B5104CC7
:107620000546174600213C3D20460C221E461EF012
:107630005FF800212846E7802560A660217109F0E7
:10764000F1FF30B920682179224609F08DFF002032
:10765000F8BD2068283006F0ABFA0020F8BD00BF66
:107660009439002010B5046805F086FD616A014474
:1076700004F10C00BDE8104005F086BC70B504684C
:10768000054605F079FD616A014404F10C0005F03E
:107690007BFCA36CAA89A9681B6804F13C00BDE8C7
:1076A0007040184738B50E4C05460C223C3D20462C
:1076B00000211EF01DF8092228462560227109F0DC
:1076C000B1FF30B9224621792068BDE8384009F081
:1076D0004BBF2068BDE83840283006F069BA00BFCB
:1076E0009439002038B50E4C05460C223C3D20460E
:1076F00000211DF0FDFF012228462560227109F0BE
:1077000091FF30B920682179224609F02DFF002031
:1077100038BD2068283006F04BFA002038BD00BF85
:107720009439002040B310B5144982B0044609F0E2
:107730009BFE1822002104F10C001DF0D9FF104B14
:10774000636104F12800E4610E4A0F4906F00EFA65
:1077500041F62700224642F6DC23ADF8000042F64F
:10776000DB2468460949ADF80440ADF802300BF05F
:1077700095FB002002B010BD0E207047885A04000F
:10778000557402009439002049740200A974020063
:10779000034B4364022380F840303C30704700BF05
:1077A000185B040070B4EFF3108472B60D4B9A6846
:1077B000AAB90D490D4E01259D60D1F88050354084
:1077C0001D60C1F88060D1F884505D604FF0FF33D8
:1077D000C1F88430027004B962B670BC70470123EE
:1077E0000370F8E72069002000E100E0FC06FFBD1F
:1077F000094B9A6872B168B910B4EFF3108272B68F
:1078000006491C680C605C684C60986002B962B6FE
:107810005DF8044B704700BF2069002000E100E0E4
:107820006DDF704779DF70477DDF704764DF704739
:107830002DE9F04F83B004880C9FBDF83490B7F861
:1078400000A0002C4CD09846002316468B460546D7
:107850001C4603E02A880134A24224DD6A6852F8FB
:107860002400019000220DF1030101A8FFF7DEFFC3
:1078700010BB9DF80320B242ECD103B33A889319B0
:107880004B4518DC42440DF1030101A80123FFF729
:10789000CDFF88B939889DF803200A443A802A88A8
:1078A0000134A242DADCDBB13B88013BA3EB0A03E3
:1078B0009BB2FF2B12D90C2003B0BDE8F08F3B88A0
:1078C0005A1C334402334B4592B2F4DC3A8008F838
:1078D00002B03A88013292B23A80D3E708F80A300F
:1078E000002003B0BDE8F08F2DE9F0470023178892
:1078F000138090F82D3086B0144605460E46002BB6
:1079000049D1AA78002A70D1EA78002A2ED16A6873
:10791000A2B1D91CB94225D8022192F90020F15414
:10792000238801339BB20A212380F1542388013339
:107930009BB22380F2542388013323802B89002BB0
:1079400040F029812B8A002B40F03E812B8B002BAD
:1079500040F053812B6A002B00F0A7802288911DF4
:10796000B94262D90C2006B0BDE8F087D91CB942F3
:10797000F8D80221F154238801339BB201212380DE
:10798000F15423880B449BB22380F25423880B4488
:107990009BB22380BBE7082FE4D904A8FFF740FF80
:1079A0000028E0D113880822CA54238801339BB2EF
:1079B0001B222380CA542088013080B220800622F6
:1079C00008440DF111011DF088FE23889DF8102058
:1079D00006339BB212F0FE0218BF01222380F2543C
:1079E000238801339BB223808BE70433BB42B9D891
:1079F00004A8FFF717FF0028B5D12388BDF8102091
:107A00000321F154238801339BB219212380F154BF
:107A1000238801339BB2F1182380F254120A4A7072
:107A2000238802339BB223806EE71988052940F230
:107A3000AE806FF4486801EB080080B24FF27D3EE3
:107A4000704540F2A4805888052840F2A0806FF469
:107A5000486C84441FFA8CFCF44540F298804FF641
:107A6000FF7E714504D0704502D0814200F28F80C4
:107A70000521B1542288013292B212212280B154E0
:107A80002288013292B222801988B1543244090A04
:107A900051702288023292B222805B88B354324401
:107AA0001B0A53702388023323806B6A002B30D06B
:107AB0009888B4F800E0811C0EF102020A44BA4230
:107AC0003FF650AFFE293FF64DAF033006F80E00EB
:107AD0002288013292B2FF212280B15422880132E1
:107AE00092B222801988B1543244090A5170208818
:107AF000023080B220809A885AB199680393002995
:107B000045D030441DF0E9FD039B9A882388134437
:107B1000238095F82C30002B40F0888028780028AE
:107B20003FF421AF2B88012B31D023889A1CBA4215
:107B30003FF618AF012805D16978023119448F4208
:107B4000FFF410AF023FFB1A06A99BB221F8083DD3
:107B5000B018FFF769FE00287FF405AF2A78022AE3
:107B600000F0B080012A00F0B5800821FE2B3FF61E
:107B7000F9AE2288581CB0542288013292B2228079
:107B8000B15422880132134423800020EBE6072001
:107B900006B0BDE8F08705F1080802228DE89000E4
:107BA000404611463346FFF743FE00287FF4DBAE24
:107BB0008DE890004046334610220621FFF738FE3C
:107BC00000283FF4BFAECEE605F110088DE8900026
:107BD0004046334602220321FFF72AFE00287FF4A5
:107BE000C2AE8DE890004046334610220721FFF7D1
:107BF0001FFE00283FF4AAAEB5E605F118088DE88F
:107C000090004046334602221421FFF711FE00285F
:107C10007FF4A9AE8DE8900040463346102215212E
:107C2000FFF706FE00283FF495AE9CE6D5F82880C5
:107C3000B8F1000FABD0B8F804200232FE2A3FF6AC
:107C400091AE23884FF000094FF0160A0132F2542A
:107C5000238801339BB2238006F803A023880133D5
:107C60009BB22380B8F80020F2543344120A5A70B1
:107C7000238802339BB22380B8F80410F0180A4618
:107C800061B1D8F808301946002B80D01DF025FDD1
:107C9000B8F80420238813449BB2238009F101091A
:107CA00095F82C205FFA89F94A4509EB49087FF6D7
:107CB00035AFAA6A02EB8808B8F804200232FE2A1F
:107CC000C4D94FE6BDF810209342FFF44EAF1346DF
:107CD00009214BE76A789342FFF447AF1346082126
:107CE00044E700BF01600B6843604A68934204BFE9
:107CF00000234360704700BF436843B10268916846
:107D00000B4443605268934204BF002343607047B2
:107D100010DF704711DF704770B53C4D2B7884B091
:107D20001BB10824204604B070BD394E39490123E7
:107D300002A83370FFF7D6FF039B2BB90CE002A813
:107D4000FFF7DAFF039B3BB11A68596800209047A0
:107D50000028F4D10446E5E72F4902A8FFF7C2FF47
:107D6000039B4BB11A6859680020904702A8FFF79F
:107D7000C3FF039B002BF5D1284A002312688DF81E
:107D8000083002A80192FFF70DFD254901A8FFF771
:107D9000BFFFB0FA80F304465B099DF808002B7022
:107DA000FFF726FD002CBDD11E4A1F493470E02389
:107DB0000C7082F8163382F8153392F816335B098B
:107DC000012B19D9042B17D0184B9968C9B94FF456
:107DD00080031360104902A8FFF784FF039B002B68
:107DE000A0D01A6859680120904702A8FFF784FFC5
:107DF000039B002BF5D195E742F2020018F0FEFF3D
:107E0000E8E71A6842F480021A60E3E7A13900202B
:107E1000A0390020B85C0400D05C0400B45C04000D
:107E2000D580020000E100E0A23900202069002096
:107E3000F0B52F4D2B7883B01BB90824204603B032
:107E4000F0BD2C4E2C49012368463370FFF74AFFE2
:107E5000019B2BB90CE06846FFF74EFF019B3BB13D
:107E60001A685968012090470028F4D10446E5E7D4
:107E700022496846FFF736FF019B4BB11A685968E3
:107E8000022090476846FFF737FF019B002BF5D192
:107E9000002768468DF80070FFF784FCFFF73AFF73
:107EA00004469DF800002F70FFF7A2FC002CC5D1FE
:107EB000134B34709A68B2B9124B4FF48002C3F876
:107EC00080200E496846FFF70DFF019B002BB5D0BF
:107ED0001A685968032090476846FFF70DFF019B19
:107EE000002BF5D1AAE71A6822F480021A60E8E7AD
:107EF000A1390020A0390020B85C0400D05C040047
:107F00002069002000E100E000B583B06846084920
:107F1000FFF7E8FE019B43B158681A68904768462E
:107F2000FFF7EAFE019B002BF6D103B05DF804FBDE
:107F3000C45C04004BDF704710B5114C84B001A83D
:107F4000FFF7F8FFA8B9214602A8FFF7CBFE039B75
:107F5000002BF4D01A6859680198904702A8FFF7DF
:107F6000CBFE039B002BF5D101A8FFF7E3FF002810
:107F7000E9D0052801D018F041FF04B010BD00BFC2
:107F8000DC5C040060DF704769DF704761DF7047C9
:107F9000134B1B781BB330B5124DA9B094240DF1CF
:107FA000020103A8ADF80240FFF7F0FF88B92946A7
:107FB00001A8FFF797FE029B002BF0D01A685968C2
:107FC00003A8904701A8FFF797FE029B002BF5D16D
:107FD000E5E7052801D018F011FF29B030BD704742
:107FE000A3390020E85C0400002962D0F0B5324BD0
:107FF0000B6085B00D4606460C2201A800211DF03D
:1080000077FB0127062301A92A68ADF80830202054
:108010008DF804608DF80670FFF7B6FF01A80C22FA
:1080200000211DF065FB002401A92A688DF8057068
:1080300040208DF806408DF80740FFF7A5FF214648
:1080400001A80C221DF054FB452301A92A68ADF8B4
:10805000063023208DF80460FFF796FF214601A823
:108060000C221DF045FB01A92A688DF80440384612
:10807000FFF78AFF214601A80C221DF039FB4FF4BF
:10808000B06301A92A680193A120FFF77DFF214673
:1080900001A80C221DF02CFB9DF804302A683B43FC
:1080A00001A9A0208DF80430FFF76EFF204605B02F
:1080B000F0BD0E20704700BFC832002008B5FFF7A2
:1080C00061FF10B9014B01221A7008BDA3390020CD
:1080D0000620704730B541F20103984287B00D4643
:1080E000144600F0A28061D944F20103984239D0CD
:1080F00044F2020398427AD17C4B1B6859041DD587
:108100007B4B1B68002B19DD2F217A481DF0C4FB27
:10811000002800F0A9802F2176481DF0BDFB411CEE
:10812000754B2288D3F804350392744A6068029034
:108130008DE8240001205F2206F028FE4FF0A043C6
:108140004FF4F012C3F81825C3F80C25EFF3108391
:1081500072B66B4A13781BB130BF1378002BFBD17A
:1081600007B030BD614B1B685A04E7D5604B1B68F4
:10817000002BE3DD2F215F481DF08EFB00287ED011
:108180002F215C481DF088FB411C5B4B2268D3F813
:1081900004350492626803920295A068594A0190DE
:1081A00000920120692206F0F1FDC7E701281ED1E7
:1081B0004E4B1B685B04C1D54D4B1B68002BBDDDCE
:1081C0002F214C481DF068FB00286ED02F21494814
:1081D0001DF062FB411C4C4A474B0120D3F804358B
:1081E00002948DE82400542206F0D0FDA6E73F4B10
:1081F0001B685B04A2D53E4B1B68002B9EDD2F2124
:108200003C481DF049FB002844D02F2139481DF07F
:1082100043FB411C3D4A384B0120D3F804358DE81F
:1082200024006D2206F0B2FD88E7304B1B6858042D
:1082300084D52F4B1B68002B80DD2F212D481DF08E
:108240002BFB00283CD02F212A481DF025FB411C88
:108250002F4A294B0120D3F8043502948DE82400DD
:10826000572206F093FD69E75C2122481DF014FBBC
:1082700088B35C211F481DF00FFB411C50E75C21B7
:108280001C481DF009FB40B35C211A481DF004FB9B
:10829000411C7AE75C2117481DF0FEFA08B35C2107
:1082A00014481DF0F9FA411CB4E75C2111481DF097
:1082B000F3FAA0B15C210F481DF0EEFA411C8AE7E9
:1082C0005C210C481DF0E8FA68B15C2109481DF0FA
:1082D000E3FA411CBCE7074922E7064955E705498F
:1082E00079E7044996E70349B2E700BFA4330020C9
:1082F000A0330020F45C040000B000405C5D04008A
:10830000503300207C5D04001C5D0400A05D04006F
:10831000385D040000B583B000220146054BADF87E
:10832000002044F202006A460193FFF7D3FE03B037
:108330005DF804FB9C5D04000146102201481DF01D
:10834000CCB900BFA439002010B5074C074920461E
:1083500008221DF0C2F904F1080008220449BDE812
:1083600010401DF0BAB900BFA43900206000001011
:10837000A400001000487047A439002046DF704771
:1083800030B58DB00D4614460146102268461DF0EA
:10839000A4F9102229460DEB02001DF09EF9684653
:1083A000FFF7ECFF2046102208A91DF096F90DB04A
:1083B00030BD00BF064B002203F580715A805A6021
:1083C00003F8082B8B42F9D1024B1A60704700BFAB
:1083D000B4390020B43A0020F0B40D4B0D4D1B68A9
:1083E000074620226BB1013B15F8330005EBC304AF
:1083F00028B16688BE4206D0013AF3D11046F0BCDF
:1084000070471F23F0E764688C42F5D1F0BC7047D9
:10841000B43A0020B4390020F0B4094D094C2B685F
:10842000012704EBC302DE19202E04F833705080BC
:1084300051600ABF00232E602B60F0BC704700BF64
:10844000B43A0020B439002000B58DB048B9084ACC
:10845000934206D0012201A802938DF8042001F076
:108460000DFF044B186805F053FB0DB05DF804FBDD
:108470005EE6655EC83A00202DE9F0430D468FB0F8
:1084800017461C468046002841D0002D3BD0002CCA
:1084900043D06278A178636AA2F1080200290DF145
:1084A0000409B2FA82F20CBF022101219E1C52097A
:1084B0004B4604F10C00059605F06AFC237B6278BC
:1084C000CDF8189015FA87F1022BCDF81C80ADF885
:1084D00020700C910B958DF8342008D0002305A84E
:1084E000ADF8283005F050FC0FB0BDE8F0832369EB
:1084F000BBB1099305A81023ADF8283005F044FC62
:108500000FB0BDE8F0837846FFF704FFBFE7784679
:10851000FFF700FF002DBAD1F5E77846FFF7FAFE26
:10852000B7E77846FFF7F6FE2369E2E72DE9F04F5B
:1085300090F84C50C779BD4289B000F2C680013531
:1085400000F10C030446EDB24FF000094FF00108B2
:10855000019304E06B1CAF42DBB227D31D466B1EB8
:108560005FFA83FBA26C08FA0BF11142F2D1E27DB3
:10857000019B84F806B0002A0CBF0C260826BB45D8
:1085800006FB0BFA227808BFB4F84660039308BFD5
:10859000A6EB0A06002A0CBF01270427F119A26ADC
:1085A000059103A8049205F0E9FD18B1484609B009
:1085B000BDE8F08F079A1744BBF1000F08D194F87B
:1085C0004F1029B9A16984F84F80C1F30C01A18033
:1085D000E17D00296CD194F84E1089B9BBF1000FF0
:1085E0006FD16378A16EB4F846200846D21A2346AC
:1085F000FFF742FFE37D84F84E80079A002B57D1A6
:10860000A1781378890123F0400301F04001194358
:108610001170E37821F03F0103F03F030B43137027
:10862000217803F07F0343EAC1131370237883B3E7
:10863000607853789178A0F10800B0FA80F0400992
:1086400003F07F0343EAC0135370A08801F00301D5
:10865000C0F3861E41EA800123F07F034EEA030344
:10866000C9B291705370D378A07903F01F0321F041
:108670000301C0F3C10E43EA40134EEA0101DBB22D
:10868000D3709170E17923F01F0301F01F010B43B8
:10869000D370A16E3246384651441DF01EF803A82F
:1086A00005F0B8FD09F10109E77984F84C5051E76C
:1086B0001378A17823F07F0301F07F010B4313703F
:1086C000AEE77846FFF726FE8BE74FF000096DE72F
:1086D0002DE9F0438BB0037804AF04468846164674
:1086E000002B72D1C27D4378002A0CBF0F220B22CF
:1086F0003344934205D9092528461C37BD46BDE8B9
:10870000F083013304F10C01A26AFB60381D79602B
:10871000BA6005F033FD05460028EDD17A69E37DA6
:10872000501C002B00F0EB801378A17823F07F031E
:1087300001F07F010B431370217803F07F0343EABC
:10874000C11313702378A3B394F801E053789178A0
:10875000AEF1080EBEFA8EFE4FEA5E1E03F07F03F6
:1087600043EACE135370B4F804C001F00301CCF314
:10877000861E41EA8C0123F07F034EEA0303C9B24F
:1087800091705370D37894F806C003F01F0321F062
:108790000301CCF3C10E43EA4C134EEA0101DBB2F4
:1087A000D3709170E17923F01F0301F01F010B4397
:1087B000D370E37D7BBB0146234632464046FFF73C
:1087C0005BFE381D05F026FD96E7C37D4578002B3E
:1087D0000CBF4FF4C0734FF4807315449D428AD888
:1087E000EFF3108272B6814B93F84410002900F029
:1087F0009B8093F8B010002900F09E8093F81C1124
:10880000002900F0908093F88811002900F09680EC
:1088100032B1042570E7324641461CF05EFFD0E7D6
:10882000914662B6B9F1000FF3D0D9F8683013B1B0
:108830007846FFF76FFD6E4B28461B689847C9F8CE
:1088400068000028E5D021462C2248461CF045FF50
:108850000023A9F84650C9F84830A369A088C3F39B
:108860000C0181425CD2A3F500520244511A614DC1
:10887000C9F818102B7D89F84D30002389F84E3047
:1088800089F84F3089F84C30A16A5B4A5B4BC9F8D4
:108890005010C9F82820C9F834300120C9F83C909C
:1088A00002F018FF012389F8443032464146D9F8D6
:1088B00068001CF012FF524B1B685B0703D5514B3D
:1088C0001B68032B43DC4846FFF730FE99F8443021
:1088D000012B02D07846FFF71DFD99F80C30012BD3
:1088E0002ED0EB68C9F8383004F046FCD9F83810BF
:1088F000014409F12C0004F047FB0025FCE6A178B7
:108900001378890123F0400301F0400119431170ED
:10891000E37821F03F0103F03F030B4313700BE7B3
:108920000344591AA3E702214FF06C0909FB0139EE
:10893000002A3FF476AF78E70121F5E70321F3E75A
:1089400099F816302969EA6801FB0323CAE7B9F8E8
:1089500046804FEA4803083323F007036E46ADEB29
:10896000030D04ACB8F1000F16D0274BD9F86820DE
:10897000186802EB080C0DF1110112F8013B4FEAE7
:10898000131E03F00F0310F80EE001F801ECC35CB6
:1089900001F8023B9445F0D1002304F818302F2150
:1089A0001A481CF079FF98B12F2118481CF074FF69
:1089B000411C174B1748184AD3F804350190009210
:1089C000029440F2F232042006F0E0F9B5467AE76C
:1089D0005C210E481CF060FF28B15C210B481CF0A4
:1089E0005BFF411CE5E70949E3E700BF2C3B0020A2
:1089F000C43A0020143B00205EE6655EA18F0200B1
:108A0000A4330020A0330020A8330020745E0400AB
:108A100000B00040945E04009C59040070B5054607
:108A20008EB00C460622002101A81CF061FEA88829
:108A30009DF804209DF80530A97D8DF80940C0F30C
:108A4000861622F07F0203F0030343EA80033243D9
:108A5000200C260E240A8DF805308DF804208DF8A0
:108A600006608DF807008DF808402B6A09B11E4A90
:108A7000517DFBB1EC89AE8A0B93012200231B4D83
:108A80008DF822102046ADF82040ADF81A608DF820
:108A90000E300C938DF80C308DF80D3007938DF857
:108AA00023208DF818200D9503F0D2F9012804D069
:108AB000102000E00E200EB070BD9DF81830002B85
:108AC000F6D0022B0BD09DF92230002B05DB01A93B
:108AD000062203A8FFF7FCFDEDE70720EBE7079B65
:108AE000002BF0D1E4E700BF143B00205EE6655E9A
:108AF00010B591F84430022B0C4602D07846FFF7AF
:108B000009FC237B0222012B84F8642003D000237C
:108B100084F8643010BDA16C2046FFF77FFF002869
:108B2000F5D010BD2DE9F04F1446F5B01278A769C5
:108B300003930546894652B1A288C7F30C039342BA
:108B40003ABFA7F500515218D219D31AA36162781F
:108B5000A378A2F10802002B05AE04F10C08B2FACA
:108B600082F20CBF0221012152094046334605F032
:108B70000FF96178227BA7611FFA89F302935B1AD0
:108B80009BB2EF180020ADF83030022A14AB0A96E1
:108B90000B958DF844101097ADF838000F9300F046
:108BA000DB80A778002F7CD0A54FDFF89C92DFF800
:108BB0009CA2DFF89CB204F12406022A04BF2369B8
:108BC0000D93002363623246E178206A15F0C4F801
:108BD000636A0DF11305002B58D002330022294699
:108BE00009A809932A7005F0D1F82B78002B45D0FD
:108BF0003B68580703D5D9F80030032B24DC98E8EC
:108C0000030014AA0A920EAA82E803006378029A6B
:108C1000A78AA67D256A616AADF83270D31A039AD5
:108C200013920124002209A8ADF82C308DF82420DD
:108C30000D928DF830408DF848601095119101F03B
:108C40001DFB75B0BDE8F08F2F2150461CF024FEAF
:108C50002F21002800F0888050461CF01DFE00F1F6
:108C6000010E7849DBF80435009140F2E622042039
:108C7000714606F08BF82B78002BC0D13246E17894
:108C8000206A15F069F8636A002BA6D1237B022BBA
:108C900043D14146E08915F031FA00283DD0227BCE
:108CA0008BE7012A676269D0654F04F124060DF154
:108CB00013054FF000093146C4F82490A08A15F03E
:108CC00061F9636A85F800903BB30233294609A82D
:108CD000099305F05BF82B78FBB13B685A078ED5FA
:108CE000594B1B68032B8ADD2F2158481CF0D4FDFB
:108CF00000287BD02F2155481CF0CEFD411C544B41
:108D0000504AD3F804350092042040F2E62206F0DF
:108D10003DF82B78002B7FF472AF3B685B0790D552
:108D2000494B1B68052B8CDD2F2148481CF0B4FDF6
:108D3000002868D02F2145481CF0AEFD411C444B53
:108D4000444AD3F804350092062040F2235206F03C
:108D50001DF875B0BDE8F08FA3781021ADF838107C
:108D6000002B7FF421AF9FE75C2150461CF094FD5F
:108D70005C2100287FF470AFD64672E704F1240628
:108D80003146E08915F0FEF80DF11305636A2F7086
:108D9000002B36D00233294609A8099304F0F6FFC8
:108DA0002B78274F002B84D03B6859077FF527AFDE
:108DB000254B1B68032B7FF722AF2F2123481CF084
:108DC0006BFD68B32F2121481CF066FD411C204B30
:108DD0001C4AD3F804350092042040F2E62205F044
:108DE000D5FF2B78002B3FF464AF08E75C211748D0
:108DF0001CF052FDF8B15C2114481CF04DFD411CE3
:108E00007DE70F4F55E75C2110481CF045FD28B168
:108E10005C210E481CF040FD411C90E70B498EE799
:108E20005C210A481CF038FD38B15C2107481CF071
:108E300033FD411CCBE7054961E70449C7E700BFA3
:108E4000A4330020045E0400A0330020745E0400FC
:108E500000B00040185E04002DE9F0430D4691B0CB
:108E6000044600287BD02378002B6FD04449454E20
:108E70000868B4F814C000F00707FB0006EB030E07
:108E80000130AEF802C0A269B4F804E00860C2F391
:108E90000C00704555D37244101A33444FF000084B
:108EA0005860E269D4F8509006F8378002F0010269
:108EB00041465A7005A82C221CF01AFC0F2305A865
:108EC0008DF81430CDF818908DF81C5001F0D6F9BB
:108ED0002D4BA06E1B689847C4F8688004F12C00E5
:108EE00004F024F894F84430022B33D0002084F8A6
:108EF000440002F0EFFB254B1B685B0703D5244BB6
:108F00001B68032B02DC11B0BDE8F0832F21214840
:108F10001CF0C2FC38B32F211E481CF0BDFC411CC4
:108F20001D4B1E4AD3F80435029594F844400420A2
:108F30008DE814004FF4D37205F028FF11B0BDE89E
:108F4000F083A2F500517144081AA6E77846FFF7AE
:108F5000E1F98BE704F14C0003F0E8FFC6E778463F
:108F6000FFF7D8F97FE75C210A481CF095FC28B18F
:108F70005C2108481CF090FC411CD1E70549CFE773
:108F8000103B0020D03A0020CC3A0020A43300202F
:108F9000A0330020745E040000B00040BC5D0400FB
:108FA00010B591F84430012B8CB00C4602D07846B5
:108FB000FFF7B0F994F84D1031BB237B012B33D070
:108FC00094F84430012B02D07846FFF7A3F9012230
:108FD000236D8DF8042001A8029301F04FF9154B81
:108FE000A06E1B6898470023A36604F12C0003F0D1
:108FF0009DFF94F84430022B11D0002084F84400E7
:1090000002F068FB0CB010BD0139002384F84D104C
:1090100084F84C302046FFF789FA0CB010BD04F1FB
:109020004C0003F083FFE8E72046FFF715FF0CB084
:1090300010BD00BFCC3A00202DE9F843944C94F8C1
:109040004430012B74D094F8B030012B00F08B80A9
:1090500094F81C31012B00F0A48094F88831012B86
:1090600000F0BD808B4C8C4F8C4EDFF8508204F5A5
:10907000D875237E022B05D06C34AC42F9D1012087
:10908000BDE8F88394F83830022BF5D114F8203C71
:10909000D4F81C90012BA4F12C0000F0C28014F82D
:1090A0002C3C002284F83820002B00F0B68014F805
:1090B000252C01231A449340013B4B45DCD114F885
:1090C0002C3C002B00F0DB803A6854F8141C34F878
:1090D00028CC34F8189C02F00700C30001323A6033
:1090E000C1F30C0EF218E645A2F80290C0F0A2807F
:1090F0006144A1EB0E01334454F8102C596002F086
:10910000010201215A7006F83010D8F80030E06BE7
:1091100098470023E363204603F008FF237E022BD9
:1091200000F0B18000231846237602F0D3FAA3E7BB
:109130002046FFF7FBF9002885D094F84430012B36
:1091400002D07846FFF7E6F8237B012B00F09080F1
:10915000534BDB68A36304F00FF8A16B01444D4847
:1091600003F012FF6FE74F48FFF7E0F900283FF4E4
:109170006FAF94F8B030012B02D07846FFF7CAF8F1
:1091800094F87830012B63D0454BDB68C4F8A430E9
:1091900003F0F2FFD4F8A4100144434803F0F4FEB6
:1091A00056E74248FFF7C2F900283FF456AF94F85B
:1091B0001C31012B02D07846FFF7ACF894F8E4306C
:1091C000012B3DD0364BDB68C4F8103103F0D4FFDF
:1091D000D4F810110144364803F0D6FE3DE7354877
:1091E000FFF7A4F900283FF43DAF94F88831012B34
:1091F00002D07846FFF78EF894F85031012B2FD02B
:10920000274BDB68C4F87C3103F0B6FFD4F87C113F
:109210000144294803F0B8FE24E77846FFF77AF8BE
:1092200045E74946FFF7FAFB00287FF425AFD4F85D
:109230001C9034E7A1F500526244A2EB0E015AE7FC
:10924000174A94F8EE301169D26801FB0323BBE79B
:10925000134A94F882301169D26801FB032395E721
:109260000F4A94F85A311169D26801FB0323C9E708
:109270000B4AA37D1169D26801FB03236AE7784694
:10928000FFF748F820E704F1200003F04FFE49E71C
:109290002C3B0020583B0020103B0020D03A0020FF
:1092A000143B0020983B0020C43B0020043C0020DD
:1092B000303C0020703C00209C3C0020CC3A002038
:1092C0002DE9F04FD47D91B024B9FFF72BFC11B0FC
:1092D000BDE8F08F9478164607468E46002C4AD09B
:1092E0009C46A64B1B680393002BF0D0DFF8B0B26E
:1092F0004FF00009DA46DAF8045095B15BF839000E
:109300000378A34215D000F10802002303E010F80F
:109310003310A1420ED00133AB42904602F1080255
:10932000F5D1039B09F1010999450AF1080AE2D137
:10933000CDE78046D8F80430002BC8D006F10C02E7
:1093400092E803008DF81440346A069709AAB78A98
:109350000B94B57D3478CDF81CE082E80300ADF8BD
:1093600022708DF8305061468DF8204005A898474E
:1093700011B0BDE8F08F0629A9D1C3788178804D5E
:10938000027890F805C090F804E040781B0443EAA6
:10939000016395F84410920143EA0C0302F4FE5273
:1093A000012943EA0E2342EA900200F08B8095F8EF
:1093B000B040012C7AD095F81C1101296BD095F89A
:1093C0008811012920D06F4B1B685B077FF57FAFA9
:1093D0006D4B1B68012B7FF77AAF2F216B481CF078
:1093E0005BFA002800F0BC802F2168481CF054FA7A
:1093F000411C674B674AD3F804350092022040F2C3
:10940000B44205F0C3FC62E7F189B5F8580188421F
:10941000D9D1B5F84811914208BF0324D3D16C26A5
:1094200006FB04F605EB0608D8F848701F43C8F899
:109430004870002B54D0AB5D002B4DD098F807201E
:1094400001231A449340013B9F424ED06C2707FBF7
:109450000457002387F84C304046FFF767F897F829
:109460004430012B02D07846FEF754FF6C2303FBF7
:1094700004531A7B012A66D0474BDB686C2202FB3F
:1094800004542C36A36303F077FEA16B0144A819A2
:1094900003F07AFD1BE7F089B5F8EC1088428ED115
:1094A000B5F8DC1091428AD10224B8E7F089B5F80A
:1094B000801088427FF47FAFB5F8701091427FF43E
:1094C0007AAFACE7F089A98A88427FF470AFA988A7
:1094D00091427FF46CAFA2E77846FEF71BFFADE741
:1094E00040460321FFF7B8FCF1E66C2303FB04536D
:1094F00093F84430012B02D07846FEF70BFF6C271F
:1095000007FB045701233A6D069205A88DF8143025
:1095100000F0B4FE214BB86E1B689847002306F19B
:109520002C00BB66284403F001FD97F84430022B61
:1095300010D06C2303FB04540023184684F84430F5
:1095400002F0C8F8C3E6144A9B7D1169D26801FB9A
:10955000032393E706F14C00284403F0E7FCE8E717
:109560005C210A481CF098F928B15C2107481CF0DE
:1095700093F9411C3DE705493BE700BFB83A00209D
:109580002C3B0020A4330020A0330020745E040094
:1095900000B00040445E0400143B0020CC3A0020A0
:1095A000BC3A00202DE9F0410C4690B0002976D05D
:1095B0002378002B6AD04249424E0868B4F814E080
:1095C00000F00707FB00F5180130A5F802E0A269DA
:1095D000A5880860C2F30C00A84252D32A44101A8E
:1095E000334400255860E269D4F8508006F83750BB
:1095F00002F0010229465A7005A82C221CF078F8C6
:109600000F2305A88DF81430CDF8188000F036FE31
:109610002D4BA06E1B689847A56604F12C0003F043
:1096200085FC94F84430022B34D0002084F84400A8
:1096300002F050F8254B1B685B0703D5244B1B68D1
:10964000032B02DC10B0BDE8F0812F2121481CF073
:1096500023F940B32F211F481CF01EF9411C1E4B5B
:109660001E4AD3F804350025029594F8444004209E
:109670008DE814004FF4D37205F088FB10B0BDE8FC
:10968000F081A2F500512944081AA9E77846FEF7AF
:1096900041FE90E704F14C0003F048FCC5E7784632
:1096A000FEF738FE84E75C210A481CF0F5F828B183
:1096B0005C2108481CF0F0F8411CD0E70549CEE7D2
:1096C000103B0020D03A0020CC3A0020A4330020E8
:1096D000A0330020745E040000B00040BC5D0400B4
:1096E000F8B5EFF3108372B619481A4A1A4C1B49A1
:1096F0000460116003B962B64FF4D87200211848B3
:10970000184F194E1BF0F4FF002406F081FE174B92
:1097100017481C60214640221BF0EAFF154B164AF1
:109720001A6004254CF25032082114489C755F6081
:10973000DE601D759A601A61597504F0C9F9104B05
:10974000104A1C601060BDE8F8400F4806F0E0BF0A
:10975000C43A0020CC3A00209D560400AD560400C7
:109760002C3B0020F049020020A10700103B002004
:10977000D03A0020143B00208096980039900200D7
:10978000B83A0020C83A0020498402002DE9F04F81
:109790009DB0B0B1AAB190460DF1100904460E4635
:1097A0004846002108221F461BF0A2FF4946B8F890
:1097B000020014F0A3FC48B9002528461DB0BDE8FE
:1097C000F08F0E2528461DB0BDE8F08FD8F8102088
:1097D000D8F80C10B8F8080002F0010206F056FEA6
:1097E00082460028E8D1D8F81020D8F80C10B8F834
:1097F000080002F0010206F01BFE0546002840F0BA
:10980000DA800DF1240A4146182250461BF065FF0C
:1098100023789DF82F1003F08002101C18BF012040
:109820008DF81800002900F0058103F07F038DF802
:109830001A308DF81950A2B1A0786378E178C2008F
:109840009B0102F0180203F4FE5342EA511243EA6C
:10985000900301F01F01ADF81C308DF81E208DF82B
:109860001F1099E803004FF000088AE80300CDF8C4
:109870003C8004F0EBF89DF81830002B00F0D3800A
:10988000DFF84CA3BDF82C209AF84430022B00F0EE
:10989000E8809AF8B030022B00F005819AF81C316C
:1098A000022B00F008819AF88831022B00F00A811F
:1098B000BDF81C304FF000080C99DFF818930D9894
:1098C000C1F30C0E9E4538BFA1F50051A1EB0E016E
:1098D0000B44D9F804108B4200F0010000F007811E
:1098E000D9F80C108B4200F0F680D9F814108B4296
:1098F00000F03981D9F81C108B4200F02881D9F88A
:1099000024108B4200F01781D9F82C108B4200F004
:109910000681D9F834108B4200F0F580D9F83C105C
:10992000994260D0B8F1000F00F0F481A64B1B689B
:109930005B0704D5A54B1B68032B00F3CA8198F87D
:109940004430022B02D07846FEF7E4FCDFF888B200
:10995000DBF80010029103F00FFC029908F12C0AC9
:109960000144504603F010FB98F80C30012B00F036
:109970000A819DF81EE0D8F84830012202FA0EF262
:10998000134215D198F8071013437145C8F84830B1
:10999000A6F1040200F08C819DF82F30002B00F01E
:1099A0001D81082A00F08D8140460421FFF754FAFA
:1099B00004F06EF806E7514611A82C22B8F80860AA
:1099C00098F810401BF094FE9DF84A30ADF84860BE
:1099D00064F300030E2211A88DF84A308DF844205C
:1099E00000F04CFCEEE6B9F83A3093429AD199F87F
:1099F0003930834208BF072394D119F83330002B44
:109A0000D6D09DF81830002B00F0B9809DF8243096
:109A1000012BCDD19DF81F2001329340591E06A87D
:109A2000FEF7FCFFC4E73B46711E601C06AAFFF769
:109A300047FCBDE703F03F01C3F380108DF81B1016
:109A400019068DF81A0008D594F90130002BACBF27
:109A5000042308238DF81930EDE604238DF819301E
:109A6000FFE6BAF8143093427FF413AF6C2303FB84
:109A700008A8BDF81C30B8F804108B4298D37FF6C4
:109A80001BAF40460521FFF7E7F99DF81880B8F1B4
:109A9000000F40F0B4817846FEF73CFCBDF82C2066
:109AA000BDF81C3008E7BAF8803093427FF4F6AE78
:109AB0004FF00108DAE7BAF8EC1091427FF4F3AE08
:109AC0009846D3E7BAF85831934208BF4FF00308DD
:109AD0007FF4EEAECAE7B9F80A1091427FF405AF01
:109AE00099F8091081427FF400AF012385E7B9F8A6
:109AF000021091427FF4F4AE99F8011081427FF494
:109B0000EFAE002379E7B9F8321091427FF406AF47
:109B100099F8311081427FF401AF06236DE7B9F85F
:109B20002A1091427FF4F5AE99F8291081427FF412
:109B3000F0AE052361E7B9F8221091427FF4E4AE5C
:109B400099F8211081427FF4DFAE042355E7B9F87C
:109B50001A1091427FF4D3AE99F8191081427FF424
:109B6000CEAE032349E7B9F8121091427FF4C2AE9A
:109B700099F8111081427FF4BDAE02233DE778468B
:109B8000FEF7C8FB42E798F86430002B7FF4F1AE93
:109B900098F84430022B02D07846FEF7BBFB9BF8C6
:109BA0001530DBF80810DBF8042001FB032B03F071
:109BB000E3FA0BEB000108F14C0003F0E5F9012397
:109BC00088F86430D5E600BFA4330020A03300201D
:109BD0002C3B0020D03A0020143B00200C2A7FF4BC
:109BE000E3AED8F868000C23211D03FB0E001BF028
:109BF00074FD98F80030D8F84840002B65D098F8EC
:109C0000072001231A449340013B9C427FF4D0AECD
:109C100098F80C300222012B88F8642000F0D480E0
:109C20003B464246B8F84610D8F86800FFF748FBB4
:109C300098F80030002288F86420002B00F0DB80C8
:109C4000A249D8F818300A68B8F80460B8F8147057
:109C500002F00704E00001320A6009EB0002C3F3DE
:109C60000C01B1425780C0F0C18033445B1AD8F870
:109C70001C10974E09EB000201F001015360517076
:109C80000122336809F83420D8F868009847002387
:109C9000C8F86830504603F049F998F84430022B70
:109CA00000F08D80002088F8440001F013FD7FE66D
:109CB0009DF82F101FFA8EF329B302EBC303A8F807
:109CC0004630D8F8680008238EE77846FEF722FB76
:109CD00095E72F217F481BF0DFFD002800F09280E0
:109CE0002F217C481BF0D8FD411C7B4B9DF81E00AA
:109CF0007A4AD3F8043501900092042040F2A2225F
:109D000005F044F81BE603EB430302EB8303A8F8DA
:109D1000463066E79DF81FB09DF82F300BF1010B20
:109D2000002B46D04FEACB0B4FF480735B4534D207
:109D30006B4B1B685A0719D56A4B1B68002B15DD46
:109D40002F2164481BF0A8FD002867D02F2161480F
:109D50001BF0A2FD411C644A5F4B0120D3F804357F
:109D60008DE8040840F25E2205F010F89DF82430DA
:109D7000012B03D1002106A8FEF750FE11A82C22CA
:109D800000211BF0B5FC0F22022311A88DF84420FE
:109D90008DF84C3000F072FA0AE600236C2202FBC8
:109DA00003A898F84410002944D00133042BF6D1BD
:109DB000DCE70C2303FB0BFB4FF4C073B6E708F1A1
:109DC0004C0003F0B3F86DE7D8F848104046FEF7B2
:109DD00025FE3B4604464246B8F84610D8F86800CF
:109DE000FFF76EFA002C7FF4E3AD21E7A3F50052F4
:109DF0003244531A3BE77846FEF78CFA20E7BDF869
:109E00002C2055E55C2133481BF046FD002856D038
:109E10005C2130481BF040FD411C66E75C212D4869
:109E20001BF03AFD00284CD05C212A481BF034FD81
:109E3000411C90E7D8F86820029312B17846FEF7EB
:109E400069FA2A4A584612689047029B6C2202FB24
:109E500003A303939866002888D02C2206A94046C5
:109E60001BF03BFC0C9ABDF81CE0039BC2F30C00FA
:109E700000217045A3F846B0996424D2A2F50051A0
:109E800071440A1A029B1A486C2101FB03AA194B60
:109E90001949CAF818200022CAF82800CAF8343034
:109EA000CAF85C80CAF83C8001208AF86420CAF8AD
:109EB000541001F00FFC02238AF8443036E50549BE
:109EC00013E7044947E77244121ADBE7103B00200E
:109ED000CC3A0020745E040000B00040F45D040041
:109EE000A4330020A0330020E05D0400C43A002029
:109EF0005EE6655EA5950200F18A0200002843D067
:109F0000F0B504698DB0002C3BD0C369002B38D06C
:109F10008569002D35D05A788DF807201A78017B95
:109F20000A93022982F001038DF806302ED0002911
:109F300030D10423C27A868A19460B278DF8051082
:109F4000002A30D1BE422EDC08293CD0034603C88B
:109F50001F898DF8042004AA82E803009A7A1B6AFC
:109F6000099500213846ADF818708DF81B108DF852
:109F70001A200B9301F06CFF012826D010200DB0A1
:109F8000F0BD0E200DB0F0BD0E207047194B9B7D2B
:109F9000002BCED00823C27A868A194607278DF86F
:109FA0000510002ACED03344134A0B3382FB031230
:109FB000DB43DB0FC3EB620300228DF80A208DF830
:109FC0000B300122C2E70720DCE79DF81030002BA0
:109FD000D4D0022B09D09DF91A30002BF3DB324686
:109FE000214601A8FEF774FBCCE7059B002BF2D1BC
:109FF000C4E700BF143B0020ABAAAA2A78B1F0B591
:10A0000044688DB044B1856935B1037C13F0FD0F10
:10A0100007D110200DB0F0BD0E200DB0F0BD0E2008
:10A02000704703781A0601D50720F3E786688DF894
:10A0300006300B2E4FF000030A9301D8077B47B17F
:10A04000F31DDB08013B00228DF80B308DF80A2050
:10A050000127034600F110028C4692E80300DA89DA
:10A0600093F81CE08DF8047004AB83E80300002132
:10A07000012310460995CDF82CC0ADF818208DF8B5
:10A080001AE08DF805108DF81B3001F0E1FE012873
:10A09000BFD19DF81030002BBBD0022B09D09DF909
:10A0A0001A30002BC0DB3246214601A8FEF710FB18
:10A0B000B0E7059B002BF2D1ABE700BF49B1A0F59B
:10A0C0009670072859D8DFE800F00B15212C38448A
:10A0D0004C060E2070474B68012B4AD90720704769
:10A0E0004A68274B274913448B42F7D8264B002058
:10A0F0001A6070474A682549A2F51233A3F5F87330
:10A100008B42EBD8204B00205A6070474A682049A8
:10A11000A2F54343503B8B42E0D81B4B00209A6092
:10A1200070474A681B49A2F54333A3F5A0738B42DD
:10A13000D4D8154B0020DA6070474A681549A2F55B
:10A140004333A3F5A0738B42C8D80F4B00201A618C
:10A1500070474B689A1EFD2AC0D80B4A0020137521
:10A1600070474B685A1E7E2AB8D8074A002053759C
:10A170007047054A0020937570470520704700BF5F
:10A18000806967FF80778E06143B0020904C960014
:10A1900030D397004089950089B138B50D46044603
:10A1A0000822002128461BF0A3FAA4F59670072880
:10A1B0002FD8DFE800F00B10151A1F2429060E20F7
:10A1C0007047154B9B7D6B60002038BD124B1B68A0
:10A1D0006B60002038BD104B5B686B60002038BDA1
:10A1E0000D4B9B686B60002038BD0B4BDB686B60D0
:10A1F000002038BD084B1B696B60002038BD064B42
:10A200001B7D6B60002038BD034B5B7D6B600020C5
:10A2100038BD052038BD00BF143B002010B370B41A
:10A22000144E0546306810B1042070BC704799B1D7
:10A230006B68EBB12B781A0618D4ABB12B460246EB
:10A2400007E0DC68A4B11C7A14F0800F0ED108334B
:10A2500054B101329142F4D1074B01221D60596083
:10A260003260E2E70E2070470F20DEE70B20DCE7CC
:10A270000E20DAE7B83A0020BC3A002038B505468F
:10A2800050B1074B1C6834B154F8043C2846984739
:10A290002468002CF8D138BD7846FEF73BF8F0E78B
:10A2A000DC3C002010B5044628B1211D0648BDE85D
:10A2B000104004F0B9BC7846FEF72CF8211D024886
:10A2C000BDE8104004F0B0BCDC3C002010B50446F2
:10A2D00028B1211D0648BDE8104004F0D3BC7846E3
:10A2E000FEF718F8211D0248BDE8104004F0CABC72
:10A2F000DC3C002070B5054616460C46002949D0C6
:10A3000000284CD0B4F1005F34D94FF08053D3F81B
:10A310000C3103F50023B4EB832F2ED2731E23449C
:10A32000B3F1005F16D94FF08052D2F80C2102F53C
:10A330000022B3EB822F10D2042E02D87846FDF70C
:10A34000E9FF0023321F2E80AC606B80AB8022803F
:10A35000A37070BDB3F5000F08D94FF08052D2F84A
:10A360000C2102F50052B3EB822FE5D37846FDF7BE
:10A37000D1FFE1E7B4F5000F08D94FF08053D3F8CF
:10A380000C3103F50053B4EB832FC7D37846FDF7A8
:10A39000C1FFC3E77846FDF7BDFF002DF6D1784633
:10A3A000FDF7B8FFAEE700BF38B50446002830D04F
:10A3B000A36862881A449278012A25D0A28813449F
:10A3C000EFF3108172B69A78032A07D0A2680023AF
:10A3D0009370C4F8023001B962B638BDA068258810
:10A3E0001B1A9AB2043D825A073222F00302134428
:10A3F0009BB2AB428CBF00221A46104488BF134662
:10A40000002263808270E6E77846FDF783FFA36849
:10A41000D4E77846FDF77EFFCAE700BF70B50E4669
:10A420001546044610B32EB36288A36813449B7884
:10A43000012B17D00DB9092070BD2288131F9BB2C4
:10A440009D42F8D86188A088EB1D23F00303814268
:10A450009BB213D31DD9521A9A4212D2834222D9E7
:10A46000042070BD7846FDF755FFE3E77846FDF719
:10A4700051FFD8E77846FDF74DFFD5E7401A8342F4
:10A48000EEDCA2685318555201249C703360002002
:10A4900070BDA26810448378002BE1D193701946F7
:10A4A000C4F80230EDE7032A03D9A3680B44042261
:10A4B0009A7000216180E4E770B50D4616460446A7
:10A4C00000282FD0002D31D0AB78012B02D0784658
:10A4D000FDF720FF2B88B3421BD3FEB102232E8051
:10A4E000AB706388A1682088CA5A073222F0030241
:10A4F00013449BB2021F934288BF0022A0888CBFE6
:10A5000013461A469842638002D0114400238B7090
:10A5100070BD7846FDF7FEFE002EDFD17846FDF7D0
:10A52000F9FEDBE77846FDF7F5FECBE77846FDF769
:10A53000F1FEC9E710B5044682B0B8B1E1B1A28816
:10A54000A36813449A78022A0AD0032A02D005206D
:10A5500002B010BD7846FDF7DDFE002002B010BD50
:10A56000032200209A700B6002B010BD0191784662
:10A57000FDF7D0FE0199E1E701917846FDF7CAFEAB
:10A580000199DCE710B5044648B1A288A3681344DA
:10A590009878A0F10200B0FA80F0400910BD78462A
:10A5A000FDF7B8FEF1E700BF10B50446E0B1A168C1
:10A5B000A3880B449878032810D12488043C5A1AA5
:10A5C00093B2CB5A073323F0030313449BB2A34245
:10A5D00088BF00230B4498780328F0D0A0F1020034
:10A5E000B0FA80F0400910BD7846FDF793FEDEE733
:10A5F00038B50D460446002834D0002D39D0AB784C
:10A60000012B24D0032B1DD1A288A36813449D42A3
:10A6100002D07846FDF77EFE0020A870A388A168CE
:10A620002588CA5A073222F0030213449BB22A1F1C
:10A63000934294BF184603460144A3808B78042BB1
:10A6400014D038BD7846BDE83840FDF763BE628857
:10A65000A36813449D4202D07846FDF75BFE0023B9
:10A66000AB7038BD7846FDF755FEC6E70023A380E2
:10A6700038BD7846FDF74EFEC1E700BF10B50A4B66
:10A680000A4ADB6884B00224019369464FF4805380
:10A6900001208DF80040029301F00AFBB0FA80F02F
:10A6A000400904B010BD00BFE03C0020FC3C00208D
:10A6B00010B50A4B0A4A1B6884B00224019369460C
:10A6C0004FF4805301208DF80040029301F0F0FA1E
:10A6D000B0FA80F0400904B010BD00BF003D00207A
:10A6E000FC3C002070B50D4B0D4D1B68E9680D4A10
:10A6F00084B001240191043340F6FC76204669467B
:10A7000003938DF80040029601F0D2FA18B9204662
:10A710002C7604B070BD002004B070BD003D002058
:10A72000E03C0020FC3C002030B50A4B0A4D1B6881
:10A730000A4A85B0042401930123184669468DF81E
:10A7400000300395029401F0B3FAB0FA80F04009AA
:10A7500005B030BD003D0020EC3C0020FC3C00205A
:10A76000F0B5124E124FF1683B680D78114A85B072
:10A7700001240433039120466946029501938DF824
:10A78000004001F095FA68B93A68F36805F0FC05F5
:10A790000435154475611A78707613442046336188
:10A7A00005B0F0BD002005B0F0BD00BFE03C0020CA
:10A7B000003D0020FC3C002070B5174DEB68187878
:10A7C00084B003F5805118444FF6FF7205F060FF26
:10A7D000F0B1EB681A781344984219D06E7E0F4995
:10A7E0000F4B01900124002E08BF0B460D4A039326
:10A7F0000426204669468DF80040029601F058FA7A
:10A8000018B920462C7604B070BD002004B070BD8D
:10A81000012004B070BD00BFE03C00205C6004007B
:10A8200060600400FC3C0020F0B5144DEB68187922
:10A830005A79801A00F57F2000F6FF70040385B076
:10A8400005D003F58053EB60032005B0F0BD0C4B41
:10A850000C4F1B680193012604230B4A8DF80060FE
:10A86000304669460397029301F022FA18B9022094
:10A870002E7605B0F0BD2046E7E700BFE03C0020A3
:10A88000003D0020043D0020FC3C002010B50E4C93
:10A89000E368187803F580511844002205F0F8FEAB
:10A8A00008B1012010BDE268137951795B1A03F5F4
:10A8B0007F2303F6FF731B0301D1022010BD02F5B5
:10A8C0008052E260032010BDE03C002070B5254CB2
:10A8D000E368002B42D0237E002B34D16368092B20
:10A8E00037D8214D55F82330984702284FF00006FD
:10A8F00019D0032800F0FD0319D0012802D0012B44
:10A9000008D070BD63680133092B636002D97846B3
:10A91000FDF700FD237E002BF3D1636855F823304B
:10A9200098470228E5D1217E19B1207070BD66607C
:10A93000F0E7A4680B481C221AF0DAFE2046BDE8B6
:10A94000704005F087B97846FDF7E4FC6368092B91
:10A95000C7D97846FDF7DEFC6368C2E77846FDF7A5
:10A96000D9FCB8E7E03C0020A45E04000B78032B80
:10A9700004D0104B1A78012A16D070470D4803787E
:10A980000022012B027612D0022BF6D10B78032B7A
:10A99000F3D110B5846811461C221AF0A9FE204696
:10A9A000BDE8104005F056B91B7E002BE5D1FFF73E
:10A9B0008DBF00BFE03C00202DE9F04F4F4BDB681E
:10A9C0001A7993F805A0511E8A4585B05AD003F52F
:10A9D0008051DFF838810D78D8F800400D44A2EBA3
:10A9E0000A0A6A882179501E0F4680B247F6FE6136
:10A9F000884203EB0A3A51D8231D39461944404C8A
:10AA00000E46D8F80010304601F5805105F040FEA2
:10AA10000646002836D03B4F03970123374F3A4A6A
:10AA200001954FF0040E184669463B768DF80030CC
:10AA3000CDF808E001F03CF9002858D1AB4647F6C4
:10AA4000FE6909E09A459B461CD9AB421AD95A883F
:10AA5000501E80B248451FD9BBF80030B3B10BEB94
:10AA600083030BEA040233EA040102F5805204D0A6
:10AA7000BBF80200B0F5FE4FE4D1137813449A45B9
:10AA80009B46E2D8012005B0BDE8F08F7846FDF77F
:10AA900041FCBBF80030E2E71D46B2E7DFF860B0EA
:10AAA0000E46A94609E09A459946EBD99D42E9D25E
:10AAB0005A88501E80B2B0421DD9B9F8003083B117
:10AAC00009EB830309EA0B0233EA0B0102F580521A
:10AAD00004D0B9F80200B0F5FE4FE4D11378134466
:10AAE000E1E77846FDF716FCB9F80030E8E700200A
:10AAF00005B0BDE8F08F1D467EE700BFE03C0020BA
:10AB000000F0FFFF58600400FC3C0020003D0020E6
:10AB10002DE9F04F6C4F3B6987B0002B00F0CB80E4
:10AB20007B69002B00F0CB807B7E002B3BD1674EF6
:10AB3000D7F810A0F868BAF802307C6990F805B030
:10AB40000179013B04EA06029BB247F6FE65A1EBE0
:10AB50000B01121BAB4200EB013B02F580582BD9D5
:10AB600054460AE09B451C461BD99A4519D2598880
:10AB7000013989B2A94240F291802388BBB104EB2C
:10AB8000830304EA060133EA060201F5805103D08B
:10AB90006088B0F5FE4FE5D10B780B449B451C4611
:10ABA000E3D801237B76012007B0BDE8F08F78461B
:10ABB000FDF7B0FB2388E2E7DA4571D2BAF800204E
:10ABC00093009845EFD955465446994647F6FE619D
:10ABD000EAB1234433EA060224D06088B0F5FE4F80
:10ABE00020D01C465C4524D22288930003EB090C3C
:10ABF000E04530D984EA0A00304225462BD16088EE
:10AC0000013880B2884226D8E146002AE1D101917C
:10AC10007846FDF77FFB228801999300234433EAAD
:10AC20000602DAD1354005F580552C782C445C4578
:10AC3000DAD3B9F1000F19D10123002CB1D061880A
:10AC400047F6FF729142ACD07A7E002AABD1002B3E
:10AC50003FF46EAFA7E7B9F1000F07D1628847F65E
:10AC6000FF739A429FD101237B769CE701257B6984
:10AC7000174ACDF814A0284602A9CDF810908DF8F7
:10AC80000850039301F014F888B97B6929F003098F
:10AC90004B447B613CB13C610023CEE79A468DE793
:10ACA00054460123C9E77846FDF734FBF3E700205B
:10ACB00007B0BDE8F08F7846FDF72CFB30E778460B
:10ACC000FDF728FB30E700BFE03C002000F0FFFF6D
:10ACD000FC3C002038B54FF010235A69013201D0F6
:10ACE0005A6992B94FF080525169136903FB01F31D
:10ACF000A3F580530F491A680B60531E033302D823
:10AD0000C2F30B032BB1002038BD5B69A3F5805360
:10AD1000EEE7094D0949EA600124052220462B7619
:10AD20006B76AB606A602C7000F0B2FFFFF7CEFD6F
:10AD3000204638BD003D0020E03C00206DA9020007
:10AD4000024B1878003018BF01207047E03C00200B
:10AD500070B50F4C23780546B3B92B78032B02D07E
:10AD60007846FDF7D7FA0122EE680A49A56000236C
:10AD70001046E660227063602376637600F088FFF9
:10AD8000BDE87040FFF7A2BD7846FDF7C3FAE4E7DF
:10AD9000E03C00206DA90200014B1868704700BF1D
:10ADA000003D002010B50446A0B163686BB1236874
:10ADB0005BB1A3684BB15A1E1A4202D07846FDF728
:10ADC000A9FA0023E360236110BD7846FDF7A2FADB
:10ADD000A368F0E77846FDF79DFAE6E770B528B17D
:10ADE00021B183682BB90925284670BD0E25284658
:10ADF00070BDEFF3108572B683680269C6681A44A5
:10AE0000B24203D185B962B60425EDE7044605C810
:10AE1000013B334002FB03001AF05FFCE36801339F
:10AE2000E3601DB962B6DFE70425DDE70025DBE757
:10AE300070B5E8B1836813B90925284670BDEFF3F2
:10AE4000108572B60369C268934214D0044608465E
:10AE500041B194E84600013E334002FB03111AF071
:10AE60003CFC2369013323614DB962B6284670BDAD
:10AE70000E25284670BD25B962B60525DDE70025FB
:10AE8000DBE70525D9E700BFC0F30B030BB11020AA
:10AE9000704709B909207047114A01F6FF71022372
:10AEA000090BC2F80435D2F80034002BFBD061B195
:10AEB0000B4A00EB0131C2F80805D2F80034002B30
:10AEC000FBD000F580508842F5D1054A0023C2F836
:10AED0000435D2F80034002BFBD00020704700BFAF
:10AEE00000E0014040EA01039B0701D010207047B9
:10AEF0000AB9092070479307FBD110B4134C012302
:10AF00009208C4F80435D4F80034002BFBD082B189
:10AF10000E4C043900EB820251F8043FB3F1FF3FBD
:10AF200004D00360D4F80034002BFBD004309042EE
:10AF3000F2D1064A0023C2F80435D2F80034002BBF
:10AF4000FBD000205DF8044B704700BF00E00140DB
:10AF500010B5104C4FF48052002120461AF0C8FB67
:10AF60000D4A04F13003146004F57F6028210022AB
:10AF700023F8301C23F82E2C43F82C3C303383422A
:10AF8000F6D13823A4F8C22FC4F8C42FA4F8C03FC8
:10AF900010BD00BF083D0020084D002008B5082264
:10AFA0000221094804F068FB40B1084A91684160F9
:10AFB000127B0272BDE8084004F0A2BB0448BDE861
:10AFC000084004F01DBE00BF144D0020584D002065
:10AFD0006433002010B5044618B12346BDE8104084
:10AFE00018477846FDF796F92346BDE81040184704
:10AFF00010B586B01822002168461AF079FB0023AC
:10B00000029304F053FE0122A0F58054064B07483A
:10B01000009469460192039304F0EAFB10B10448DE
:10B0200004F0EEFD06B010BD35B00200144D002056
:10B030007433002030B50C468DB022B94B88012BFB
:10B0400019D00DB030BD032A02D07846FDF762F961
:10B0500001A82C2200211AF04BFB0D4B0394D96858
:10B060001A690591102301A806928DF80430FFF7A4
:10B0700005F90DB030BD074D2B7813B97846FDF7B3
:10B0800049F9054B62685A6000232B700DB030BD42
:10B09000144D00206C4D0020584D002038B50E4D49
:10B0A0002B7833B90D4B5C6804F50054B4F1807F04
:10B0B00000D938BD04220121094804F0DDFA30B17D
:10B0C000012344602B70BDE8384004F019BB0548EB
:10B0D000BDE8384004F094BD6C4D0020584D002070
:10B0E000144D00205433002038B50121174804F0D6
:10B0F00033FB20B90221154804F02EFBD0B11448CF
:10B1000004F07EFD134C237803B138BD124B5D680B
:10B1100005F50055B5F1807FF7D8042201210B48D1
:10B1200004F0AAFA60B1012345602370BDE83840FD
:10B1300004F0E6BA0146142207481AF0D9FAE1E70A
:10B140000648BDE8384004F05BBD00BF144D002048
:10B15000843300206C4D0020584D002054330020D3
:10B16000F0B5554C8DB002F071FC657B002D2FD0F1
:10B17000A37B002B35D1228A41F282639A422CD9DB
:10B18000227B00236373002A31D0012A3DD10CA811
:10B190000226A26800F82C6D04922360636023737A
:10B1A00023828DF808300393FFF768F831460822B0
:10B1B000424804F061FA002872D0A2684260227B03
:10B1C000027204F09DFA3E4E3378002B56D01D4695
:10B1D00002F05EFC28460DB0F0BD3A4B1B78002B08
:10B1E000CED102F055FC002528460DB0F0BD02F08E
:10B1F0002DFC237B8BB102F04BFC7846FDF78AF8DF
:10B2000002F046FC28460DB0F0BD7846FDF782F806
:10B2100002F03EFC28460DB0F0BDA37B002BEAD126
:10B22000228A41F282639A4203D8264B1B78002B74
:10B23000E1D0A3682148013301270026082202211A
:10B24000A3602773268204F017FA034680B3A2682E
:10B250005A60227B1A7204F053FA0CA8022300F8F9
:10B260002C3DA368227B8DF80820013B002204932B
:10B270000392FFF703F802F00BFCA9E7646804F5FA
:10B280000054B4F1807FA3D8042201210B4804F0BC
:10B29000F3F948B101234460337004F031FA97E7C1
:10B2A000094804F0ADFC8EE7084804F0A9FC8FE7DC
:10B2B000054804F0A5FCD0E7584D0020144D0020AF
:10B2C0006C4D00206D4D002064330020543300206D
:10B2D0000378042B00D0704743681B78002BFAD00A
:10B2E000F0B5374C4569227B017E8DB00346002ABC
:10B2F00036D1628A002A3BD10129A16843D14A1C78
:10B30000954239D92A318D4228D8A67B36BBDFF841
:10B31000C4E02C489F68266008220221A560666070
:10B3200066732673C4F810E004F0A6F900283FD035
:10B33000A2684260227B027204F0E2F9224D2B786F
:10B3400023B30CA8022300F82C3D1037227BA368FE
:10B3500003978DF808200493FEF790FF0DB0F0BD21
:10B36000012AFBD10129F9D0A3689D42F6D105E05D
:10B370000129F3D1A2680132AA42EFD101236373FC
:10B38000FFF7EEFEEAE78D42BCD8E7E7666806F510
:10B390000056B6F1807FD4D804220121094804F078
:10B3A0006BF948B1012346602B7004F0A9F9C8E796
:10B3B000064804F025FCC1E7054804F021FCC0E77D
:10B3C000584D0020144D00206C4D002064330020A7
:10B3D000543300200000062D10B5194C227BD2B149
:10B3E000012A0AD07846FCF795FF238A013323828D
:10B3F000638A7BB1013B638210BD238A41F2826183
:10B400008B4215D942F2B0118B4215D96273FFF706
:10B41000A7FEEDE710BD238A41F28262934202D972
:10B42000FFF79EFEE4E7074A1278002AF8D1DDE72D
:10B43000044A1278002AD9D0FFF792FE238AD5E772
:10B44000584D00206D4D002070B504F0F3FB40B95D
:10B4500002F0EAFB0028F8D020BF04F0EBFB002844
:10B46000F6D002F0F3FA00221146384804F060F8F2
:10B4700000284FD00026354C354608E0022B00D17D
:10B48000051D02460021204604F052F850B14388C1
:10B49000012BF3D1061D02460021204604F048F896
:10B4A0000028F4D1002D35D0002E33D0284C2B6845
:10B4B000A3602B792373B54209D833682360254DE7
:10B4C00063602A78EAB1BDE8704002F0E1BA2B79F6
:10B4D000002BF2D11F4D20602B786060002BF2D141
:10B4E0004FF4005404220121184804F0C5F848B371
:10B4F000446001232B7004F003F9BDE8704002F0B2
:10B50000C7BA03F50054B4F1807FEBD9BDE87040B1
:10B5100002F0BEBA0E4C0D4800230822022123601F
:10B52000A360237304F0A8F838B1A2684260227BBC
:10B53000027204F0E5F82368C1E7074804F060FBF5
:10B540002368BCE7054804F05BFBBCE7144D002012
:10B55000584D00206C4D00206433002054330020EF
:10B5600008B504F0A3FBA0F5805008BD70B5142207
:10B5700086B000211848194C194E1AF0B9F801F09C
:10B58000FBFD184B184960601848194AA060002557
:10B5900018461A600D70E6602561656100F08EFE48
:10B5A000204601F091FC2946182268461AF0A0F8BE
:10B5B000029504F07BFB0122A0F580540D4B0E4850
:10B5C000009469460192039304F012F910B10B48FC
:10B5D00004F016FB06B070BD584D0020384D002019
:10B5E00000879303504D00206D4D0020D9B3020019
:10B5F000D1B2020035B00200144D00207433002097
:10B60000F8B52E4C94E80C009A4216D20646257BDB
:10B610002B492C48012D18BF0146914226D9A3F190
:10B62000400191422BD9EFF3108072B623685A1C67
:10B630002260336030B962B6F8BD234D2A781AB162
:10B640000F20F8BD0020F8BD03F50054B4F1807F51
:10B65000F6D8042201211D4804F00EF820B34460FE
:10B6600001232B7004F04CF80F20F8BD0123637305
:10B67000FFF776FD0028D6D194E80C00CFE7124FF3
:10B680003A78002ACFD103F50055B5F1807FCAD8AA
:10B69000042201210D4803F0EFFF50B10123456062
:10B6A0003B7004F02DF8BEE7094804F0A9FA0F201A
:10B6B000F8BD074804F0A4FAB5E700BF584D0020D4
:10B6C00000E0FF00FFFF7F006C4D0020144D0020C4
:10B6D00054330020002855D170B55B4C23688CB0E2
:10B6E000002B57D0013B23600BB10CB070BD574C01
:10B6F000A37302F0ABF9637B002B3FD0A37B002B3D
:10B700003CD1228A41F282639A4250D9227B0023A3
:10B710006373002A50D0012A45D10CA80225A268E3
:10B7200000F82C5D049223606360237323828DF8FC
:10B7300008300393FEF7A2FD29460822444803F08F
:10B740009BFF002873D0A2684260227B027203F044
:10B75000D7FF404D2B788BB9646804F50054B4F1E1
:10B76000807F0BD804220121394803F085FF00288F
:10B7700061D0012344602B7003F0C2FF02F088F90E
:10B780000CB070BD304A3149136801200344136086
:10B79000887370477846FCF7BDFD2368013B236042
:10B7A000002BA2D1A3E77846FCF7B4FDE6E72A4BCD
:10B7B0001B78002BAAD1E1E702F048F9237B2BB1DB
:10B7C00002F066F97846FCF7A5FDD7E7A37B002BCE
:10B7D000F6D1228A41F282639A4203D81E4B1B782B
:10B7E000002BEDD0A3681A4801330126002508225A
:10B7F0000221A3602673258203F03EFF0346F0B1C9
:10B80000A2685A60227B1A7203F07AFF0CA8022306
:10B8100000F82C3DA368227B8DF80820013B002214
:10B8200004930392FEF72AFD02F032F9A6E70B48D3
:10B8300004F0E6F98DE70A4804F0E2F99EE70748CC
:10B8400004F0DEF9E2E700BF104D0020584D002063
:10B85000144D00206C4D00206D4D002064330020FD
:10B860005433002010B58CB00CAB032403F82C4DDE
:10B87000ADF8080018468DF810200391FEF7FEFC85
:10B880000CB010BD014B9868704700BF584D0020A8
:10B89000034B1A7B9868012A08BF00F1FF307047FC
:10B8A000584D0020044B9B685840C20748BF03F125
:10B8B000FF331846704700BF584D0020014B187BDE
:10B8C000704700BF584D0020F8B51C4B1A780AB1DC
:10B8D0000820F8BD1A4D02460C46AA6001261948F8
:10B8E0002C73082202211E7003F0C6FE08B3AA685A
:10B8F00042602A7B027203F003FF134F3E78002060
:10B9000028606860002EE4D1042201210D4803F074
:10B91000B3FE044640B14FF40053436001233B7033
:10B9200003F0EEFE3046F8BD084804F069F9204601
:10B93000F8BD074804F064F9DFE700BF0C4D0020B4
:10B94000584D0020144D00206C4D00205433002031
:10B95000643300202DE9F843204CDFF884904FF049
:10B9600000080221204602F0F3FF5FFA88F705463F
:10B97000D0B1002654F8043C2946384613B134F8B7
:10B980000C2C984734F80C3C01330221204624F853
:10B990000C3C03F007F80221204602F0D9FF0136E3
:10B9A00005460028E6D14EB908F10108B8F1030FA9
:10B9B00004F1B804D5D10120BDE8F8830146204642
:10B9C00003F016F80828EFD154F8043C002BEBD014
:10B9D0002A46384649469847E6E700BF844D00208E
:10B9E000CC5E04002DE9F04F804B1B7883B00D46F0
:10B9F000002B40F0E18001F10C03064601211846BE
:10BA00000193D5F8A47002F0A3FF8346002800F04C
:10BA1000E880DFF8EC91DFF8EC81DFF8E0A1A7F532
:10BA2000FA7700242EE0A8FB04346A68DBF80810DB
:10BA3000240C2403891A8C4228BF0C46002C00F0E9
:10BA4000B580DBF8041022F0030008442146FFF71C
:10BA50001BFA002877D169680C446C60DBF8082079
:10BA6000A2421ED001F088FB9BF80020841B48BF37
:10BA7000341A012A00F09180022A68D152462244E9
:10BA800097426BD39BF80020012AA7EB040440D017
:10BA9000022AC8D07846FCF73DFC6C680022A2421E
:10BAA000E0D106F0D1FA019E0121304602F07AFF82
:10BAB0004F4B002418686C6085F8B44002F028F8F9
:10BAC0003046012102F044FF00287AD0494BC5F8E6
:10BAD000A040C5F89C3003786968012B4FD0022B39
