:020000022000DC
:1040000000FD03204951020071510200D146020017
:104010007551020077510200795102000000000042
:104020000000000000000000000000007B510200C2
:104030007D510200000000007F510200815102000A
:104040008351020083510200835102008351020018
:104050008351020083510200835102008351020008
:1040600083510200835102008351020083510200F8
:1040700083510200835102008351020083510200E8
:10408000835102008351020029690200835102001A
:1040900083510200835102003D4702008351020018
:1040A00083510200835102008351020083510200B8
:1040B0008351020083510200000000000000000054
:1040C0008351020083510200835102008351020098
:1040D0008351020083510200835102008351020088
:1040E000835102008351020083510200000000004E
:1040F0000000000083510200000000008351020014
:1041000000000000000000000000000000000000AF
:10411000000000000000000000000000000000009F
:10412000000000000000000000000000000000008F
:10413000000000000000000000000000000000007F
:10414000000000000000000000000000000000006F
:10415000000000000000000000000000000000005F
:10416000000000000000000000000000000000004F
:10417000000000000000000000000000000000003F
:10418000000000000000000000000000000000002F
:10419000000000000000000000000000000000001F
:1041A000000000000000000000000000000000000F
:1041B00000000000000000000000000000000000FF
:1041C00000000000000000000000000000000000EF
:1041D00000000000000000000000000000000000DF
:1041E00000000000000000000000000000000000CF
:1041F00000000000000000000000000000000000BF
:1042000010B5054C237833B9044B13B10448AFF310
:1042100000800123237010BD7832002000000000D0
:1042200068E502000C4B43B10C480D4910B5AFF3E3
:1042300000800C48036823B910BD0A48036833B9ED
:104240007047094B002BF7D0BDE810401847064BCC
:10425000002BF5D0184700BF0000000068E5020001
:104260007C3200207432002000000000154B002B2F
:1042700008BF134B9D46A3F5803A00218B460F469D
:104280001348144A121A09F0EFF90F4B002B00D013
:1042900098470E4B002B00D09847002000210400C7
:1042A0000D000D48002802D00C48AFF3008009F043
:1042B0008DF92000290000F0A5F809F073F900BF7E
:1042C0000000080000FD03200000000000000000C6
:1042D00078320020CC6000200000000000000000C8
:1042E0003EDF70472DE9F0414FF0A043A8B04FF4F6
:1042F00000520024C3F80825C3F80C458268117DDC
:1043000092F90D300691D17C0591917C0491517CFC
:104310000391117C0291D17B01910178009108AF4A
:10432000054652683049384609F062FA2F4B1B683F
:104330005B0433D52E4B1B68032B2FDD95F801E072
:104340000FFA8EF04300083323F007036E46ADEBFF
:10435000030D284B0DF12008D3F800C04246234638
:10436000734502F1020226D3002308F810302F21F2
:10437000214809F069FA68B32F211F4809F064FA4F
:10438000411C1E4B1E4AD3F804350092CDF808801C
:1043900001975022042002F065FFB5464FF0A0437C
:1043A0004FF40052C3F80C2580370022C3F80825CB
:1043B000BD46BDE8F0816968C95C0C0901F00F01D8
:1043C0001CF8044002F8024C1CF8011002F8011C11
:1043D0000133C5E75C21084809F036FA08B15C21D1
:1043E000CBE70549CDE700BF44E00200FC310020E7
:1043F000F83100200032002023E0020000B000402D
:104400008BE002004FF0A04337B50322C3F83427F6
:10441000C3F83827C3F83C27C3F840274FF40052AD
:10442000C3F808254FF480404FF40042C3F8080554
:10443000394DC3F808254FF48032C3F8082504210C
:10444000364A02F0F5FE2A68520417D5344B1B6831
:10445000032B13DD2F21334809F0F6F9002849D04A
:104460002F21304809F0F0F9411C2F4B2F4AD3F887
:104470000435009204208C2202F0F4FE00F04AFA87
:104480002B4801F0C1FA80232A4A2B48002104F06E
:10449000D9FD294804F0D4FC1221274804F0E6FC99
:1044A000044650B125491222113009F0D2F8FF23F9
:1044B00023712146204804F023FD2B685B0416D5A8
:1044C000174B1B68032B12DD2F21164809F0BCF98E
:1044D000C8B12F21134809F0B7F9411C124B184AF3
:1044E000D3F8043500920420962202F0BBFEFFF7B9
:1044F000F7FEFCE75C210B4809F0A6F908B15C2146
:10450000AFE70849B1E75C21064809F09DF908B119
:104510005C21DFE70349E1E7FC310020057202007E
:10452000F831002023E0020000B00040DEDF02008E
:10453000E54202009432002014330020CCDF020058
:1045400009E0020048DF704710DF704760DF704706
:1045500061DF70474FF0A0434FF4F032C3F80825F5
:10456000C3F80C25EFF3108372B60028FDD1704715
:1045700013B5164B1B685B04044617D5144B1B6818
:10458000002B13DB2F21134809F05EF9A0B12F2176
:10459000104809F059F9411C0F4B104AD3F8043563
:1045A000009201944E22002002F05CFE204602B0F0
:1045B000BDE81040FFF7CEBF5C21064809F044F982
:1045C00008B15C21E4E70349E6E700BFFC310020C5
:1045D000F8310020BEE0020000B00040D9E0020047
:1045E0007FB5184B1B685B0405460C46164619D56B
:1045F000154B1B68002B15DD2F21144809F024F9F9
:10460000B0B12F21114809F01FF9411C104B114A7C
:10461000D3F804350092039602940195702201208C
:1046200002F020FE204604B0BDE87040FFF792BFC4
:104630005C21064809F008F908B15C21E2E703496A
:10464000E4E700BFFC310020F8310020BEE00200AA
:1046500000B000409EE102007FB5184B1B685B0470
:1046600006460D46144619D5154B1B68002B15DD63
:104670002F21144809F0E8F8B0B12F21114809F0B2
:10468000E3F8411C104B114AD3F80435009203960D
:10469000029501944822012002F0E4FD012004B0BB
:1046A000BDE87040FFF756BF5C21064809F0CCF822
:1046B00008B15C21E2E70349E4E700BFFC310020D8
:1046C000F8310020BEE0020000B00040A1E002008E
:1046D00007B5154B1B685B0416D5144B1B68002BE4
:1046E00012DB2F21124809F0AFF898B12F211048A2
:1046F00009F0AAF8411C0F4B0F4AD3F80435009279
:104700000020542202F0AEFD012003B05DF804EB5E
:10471000FFF720BF5C21064809F096F808B15C213C
:10472000E5E70349E7E700BFFC310020F83100204E
:10473000BEE0020000B0004093E0020073B501A8A3
:10474000FFF700FF60B102AD572325F8063D094E83
:104750001C4629460748FFF7FBFE28B102B070BD92
:10476000019801F04BF9EAE7304601F045F9ADF860
:104770000240EEE7A833002030B5404C23685904CE
:1047800085B017D53E4B1B68032B13DD2F213D4809
:1047900009F05AF8002855D02F213A4809F054F86A
:1047A000411C394B394AD3F80435009204207A224F
:1047B00002F058FD364B0293029B039323685A0480
:1047C00019D52F4B1B68032B15DD2F212D4809F020
:1047D0003BF800283FD02F212A4809F035F8411C2A
:1047E000294BD3F80435029A01922A4A00920420F8
:1047F000832202F037FD03A8FFF7A8FE029B039A6D
:104800009A4205461BD023685B0418D51C4B1B68D5
:10481000012B14DD2F211B4809F016F820B32F219E
:10482000184809F011F8411C174B039AD3F80435C6
:104830000192194A009202208C2202F013FD2846B0
:1048400005B030BD5C210F4808F0FEFF08B15C21C7
:10485000A3E70C49A5E75C210A4808F0F5FF08B179
:104860005C21B9E70749BBE75C21064808F0ECFF8B
:1048700008B15C21D4E70349D6E700BFFC31002032
:10488000F8310020BEE0020000B0004039E1020033
:10489000B831002055E1020065E1020007B502AB26
:1048A000184943F8040D1846FFF74EFE18B1164A92
:1048B0009321FFF7D1FE154BE02283F8162393F8DE
:1048C0001623C2F34112012A15D9114A916871B118
:1048D000136843F480031360FFF74EFF18B10A4AD0
:1048E0009D21FFF7B9FE002003B05DF804FB4FF4F3
:1048F00080021A60F0E7044A9A2142F20200FFF7B0
:10490000ABFEE9E7E1450200BEE0020000E100E0A5
:104910004060002010B54E4C2368590488B017D56C
:104920004C4B1B68032B13DD2F214B4808F08CFFE9
:10493000002871D02F21484808F086FF411C474BC2
:10494000474AD3F8043500920420BB2202F08AFCC7
:1049500001238DF80C3000238DF80D308DF80E30CA
:1049600007238DF80F300398FFF798FF23685A0448
:1049700017D5384B1B68032B13DD2F21364808F061
:1049800063FF002851D02F21334808F05DFF411C00
:10499000324B344AD3F8043500920420C52202F089
:1049A00061FC10220DEB0200002108F05DFE0123E6
:1049B0008DF810302C4A0592072304A88DF8133087
:1049C0008DF81C3000F088FF18B1234ACB21FFF787
:1049D00043FE23685B0416D51E4B1B68032B12DDB8
:1049E0002F211D4808F030FF40B32F211A4808F04E
:1049F0002BFF411C194B1D4AD3F8043500920420AB
:104A0000CD2202F02FFC00F0D3FF18B1124ACE21C4
:104A1000FFF722FE08B010BD5C210F4808F014FF1C
:104A200008B15C2187E70C4989E75C210A4808F056
:104A30000BFF08B15C21A7E70749A9E75C210648FD
:104A400008F002FF08B15C21D0E70349D2E700BFBC
:104A5000FC310020F8310020BEE0020000B0004030
:104A6000F2E002000BE102007145020024E10200C5
:104A70004A09012301F01F0103FA01F150F8223025
:104A8000194214BF012000207047000010B50446F1
:104A900020B978460E4B1B686BB198470D4B00222E
:104AA00093F8421090B241B19C420FD003F1210122
:104AB0008C4204D110BD00DEF0E79C4206D00132EA
:104AC000042A03F1AC03EBD14FF6FF7010BD00BF19
:104AD0004C600020E23500202DE9F0474FF6FF73CF
:104AE000DFF84C80DFF84C900B8007460D46002421
:104AF0004FF0140A21464046FFF7BAFF064650B968
:104B00002A884FF6FF739A4200D12C800134082C7A
:104B1000F0D1002609E00AFB049010223946043047
:104B200008F088FD0028F1D12C803046BDE8F087E0
:104B3000083400207038002008B548B978460B4B7F
:104B40001B681BB198474FF6FF7008BD00DEFAE7FF
:104B5000074B9842F7D303F501729042F3D8C01A7D
:104B6000AC23B0FBF3F080B208BD00BF4C60002066
:104B70003036002008B548B978460D4B1B681BB18C
:104B800098474FF6FF7008BD00DEFAE7094B9842E0
:104B900009D303F59372904205D8C01A2A23B0FBBB
:104BA000F3F080B208BD044B9842EAD1082008BD5A
:104BB0004C60002054340020A43500202DE9F0473B
:104BC00080461746894621B978462B4B1B68E3B1CE
:104BD000984727B97846284B1B68C3B19847D9F83E
:104BE0000000B0B1FFF752FF441C244EDFF890A044
:104BF0000023AC25C9F8003008F07F083B6005FBB6
:104C00000465032C07D9BDE8F08700DEE1E700DE8C
:104C1000E5E70446E9E721465046FFF729FF38B3A8
:104C200095F8642095F82230DAB1434595F8432091
:104C30000DD142450BD1AC20444304F1220343344F
:104C400033443444C9F800303C60BDE8F087424545
:104C500007D1AC2000FB04644334C9F80040BDE830
:104C6000F087434504D1AC2000FB04642234F4E710
:104C70000134AC35C5E700BF4C600020C0350020D2
:104C8000BC3500202DE9F04704468846164622B977
:104C90007846204B1B6893B1984724B978461D4B42
:104CA0001B6873B198472046FFF7F0FE4FF6FF737D
:104CB0009842074607D100233360BDE8F08700DE45
:104CC000EBE700DEEFE73068F8B1FFF753FF441C75
:104CD0001148DFF848A02A2505FB04058146072C6A
:104CE000E9D821465046FFF7C3FE80B16B88BB422E
:104CF0000DD16B7988EA03039B0608D12A2000FBBB
:104D0000049404343460BDE8F0870446E0E70134DD
:104D10002A35E4E74C600020503400204C34002059
:104D200038B504460D4621B97846084B1B6853B187
:104D3000984734B1064B33F8042BA2420CBF1C46F3
:104D400000242C6038BD00DEF3E700BF4C6000207B
:104D5000A03500202DE9F047064690460F4621B9C0
:104D60007846324B1B68E3B19847B8F1000F04D185
:104D700078462E4B1B68B3B198473868A8B1FFF747
:104D8000DBFE00F1010A2A4DDFF8AC90AC2404FBF5
:104D90000A548834BAF1030F09D900233B60BDE8F7
:104DA000F08700DEE1E700DEE7E78246EBE7514609
:104DB0004846FFF75DFEA8B314F8243C4BB94EB14A
:104DC00008222146304608F035FCB0FA80F0400950
:104DD00001E0E6B9012028B3164B1B7833B1AC23B0
:104DE00003FB0AF3E85AB0FA80F04009AC2303FB56
:104DF0000AFA05EB0A030AF1700A554483F87000B9
:104E00003D6093F8643088F80030BDE8F0870822F0
:104E10002146304608F00EFC0028DBD0082204F1C1
:104E20001801CFE70AF1010AAC34B3E74C60002067
:104E3000C0350020B6350020BC3500202DE9F347F1
:104E400006460D4600F05CFC022839D0032812D03B
:104E500001280ED1394B1B6813F0010309D0384BE0
:104E60001A88964205D35B8813449E424FF0000394
:104E70005FDB00205AE04FF6FF77DFF8CC80DFF8E9
:104E8000CCA00024B9464F4509D121465046FFF732
:104E9000EFFD20B9A7B20134102CF4D1E9E738F8BE
:104EA0002420B2424FEA8403F5D14344DB78002B3F
:104EB000F1D003232B7000236E806B60012035E05E
:104EC0006868E8B94FF6FF73ADF80630BDF80640E4
:104ED000DFF87C801B4F072C4FF6FF7394BF013423
:104EE0000024ADF806304FF01409082CC1D021463B
:104EF0004046FFF7BDFD50B9ADF806400134F4E778
:104F00000DF10601FFF7E8FD0028DBD0DEE709FB25
:104F100004F3DA5BB242F1D1FA18D278002AA8D0B1
:104F2000043302221F446E802A706F6002B0BDE815
:104F3000F0876E8028706B60F8E700BF04340020B3
:104F4000B8350020703800200C34002000340020D8
:104F50000834002006207047054B1B68082B01BF52
:104F6000044B1868B0FA80F0400918BF0020704761
:104F7000300100103401001008B5FFF7EDFF40B11B
:104F80004FF080430022C3F80C21C3F81021C3F86E
:104F90003825FFF7E1FF002846D04FF080525E4BE6
:104FA000D2F80414C3F82015D2F80814C3F8241555
:104FB000D2F80C14C3F82815D2F81014C3F82C1525
:104FC000D2F81414C3F83015D2F81814C3F83415F5
:104FD000D2F81C14C3F84015D2F82014C3F84415B5
:104FE000D2F82414C3F84815D2F82814C3F84C1585
:104FF000D2F82C14C3F85015D2F83014C3F8541555
:10500000D2F83414C3F86015D2F83814C3F8641514
:10501000D2F83C14C3F86815D2F84014C3F86C15E4
:10502000D2F84424C3F87025FFF796FF10B13B4B2C
:105030003B4A1A60FFF790FF18B13A4BFB22C3F8C6
:105040001825FFF789FF48B13749384B0A681B68B4
:1050500022F00F0203F00F0313430B60FFF77CFFF6
:1050600018B1334B4FF400721A60FFF775FF48B167
:105070004FF08043D3F80024D20744BF6FF0010201
:10508000C3F800242B4AD2F8883043F47003C2F8E6
:105090008830BFF34F8FBFF36F8F4FF01023D3F8DB
:1050A0000022002A03DBD3F80432002B2FDA224B34
:1050B0000122C3F80425D3F80024002AFBD04FF0C6
:1050C00010221221C2F80012D3F80024002AFBD0CB
:1050D0004FF010231222C3F80422174B1A46D3F8BC
:1050E00000140029FBD00021C3F80415D2F80034C5
:1050F000002BFBD0BFF34F8F0E49104BCA6802F450
:10510000E0621343CB60BFF34F8F00BFFDE70C4B52
:105110000C4A1A6008BD00BF00C000408C56004019
:105120004881030000F00040E40E004058020010E7
:105130004096024000ED00E000E001400400FA0566
:10514000B83100200090D0030649074A074B9B1A4C
:1051500003DD043BC858D050FBDCFFF70DFFFFF721
:1051600085F8000074E50200B83100207832002094
:10517000FEE7FEE7FEE7FEE7FEE7FEE7FEE7FEE707
:10518000FEE7FEE738B5054620B97846074B1B68B1
:105190004BB19847064B1C683CB154F8043C284678
:1051A00098472468F8E700DEF4E738BD4C6000203B
:1051B0001039002010B5044620B97846054B1B680D
:1051C00033B19847211D0448BDE8104001F0F6BFF7
:1051D00000DEF7E74C6000201039002010B50446CF
:1051E00020B97846044B1B6823B198472346BDE895
:1051F0001040184700DEF9E74C60002008B508228F
:105200000221094802F028FC20B90848BDE80840FE
:1052100002F0BEBD064A91684160127B0272BDE891
:10522000084002F055BC00BF18390020CC310020E6
:105230005439002038B50D4D2B78B3B90C4B5C6850
:1052400004F50054B4F1807F0FD8042201210948ED
:1052500002F002FC20B90848BDE8384002F098BDD1
:10526000446002F035FC01232B7038BD6839002002
:105270005439002018390020BC31002030B50D46CB
:105280008DB09AB94B88012B0CD1164C227822B9DB
:105290007846154B1B683BB19847144B6A685A60B7
:1052A000002323700DB030BD00DEF6E7032A04D0E2
:1052B00078460D4B1B6893B198472C22002101A81A
:1052C00008F0D2F90E238DF80430094B0395DA6803
:1052D0001B69059201A80693FFF754FFE2E700DE81
:1052E000EBE700BF683900204C60002054390020F3
:1052F0001839002070B502F06DFDD8B101F098F9B1
:10530000002211461C481C4C02F070FB002635465A
:10531000B0B91A4C05B10EBB00232360A360237300
:10532000FFF76CFF23686360FFF784FFBDE8704000
:1053300001F0A6B901F076FA0028DCD020BFDAE748
:105340004388012B08D0022B00D1051D0246002105
:10535000204602F04BFBDBE7061DF7E72B68A36056
:105360002B792373B54203D92B790BB92060D9E788
:1053700033682360D6E700BF183900205439002075
:1053800008B502F065FDA0F5805008BD7FB500218D
:105390001822684608F068F900230293FFF7F0FF2F
:1053A0000123009001936946054B0648039302F0E0
:1053B000CBFB10B1044802F0EBFC07B05DF804FB36
:1053C0007D52020018390020DC31002008B514227B
:1053D00000210B4808F048F900F052FD094B0A4A39
:1053E0009A600A490A4A5860DA60184600221A612F
:1053F0005A610A7000F060FCBDE80840FFF7C6BFC4
:10540000543900203C39002005550200693900203C
:105410000087930330B58DB001F00AF9144B1A7B65
:105420001D461ABB9A7B0ABB1A8A41F282639A42D2
:1054300002D8104B1B78CBB101232B73AB6800242F
:105440000133AB602C82FFF7D9FEAB682A7B8DF865
:105450000820013B0CA80393022300F82C3DFFF722
:1054600091FE01F00DF920460DB030BD0824F8E79B
:10547000543900206939002010B58CB001F0D8F8FB
:105480001D4B5A7B42B1997BA9B9188A41F28261BE
:10549000884201D8194A127802F001048AB1197BB6
:1054A00000225A7349B1012910D07846144B1B6869
:1054B000FBB1984705E00022EEE7FFF7ABFF0028BD
:1054C000F3D101F0DDF820460CB010BD1A605A602F
:1054D0001A731A820CA89B680393022300F82C3DD0
:1054E0008DF80820FFF74EFEFFF788FEFFF7A2FEBB
:1054F000E7E700DEE5E700BF543900206939002006
:105500004C60002038B5194C257B3DB1012D14D0DD
:105510007846174B1B683BB3984721E0228A41F23B
:1055200082639A4202D8134B1B78CBB1FFF7A4FFDA
:10553000638A0BB1013B638238BD238A41F28262E8
:10554000934202D80B4A157855B142F2B0129342F9
:1055500082BF012300256373FFF78EFF002DE7D084
:10556000238A01332382E3E700DEF9E75439002080
:105570004C6000206939002038B5164C94E80C00C6
:105580009A4205461FD2207B1349144B012808BFBD
:105590000B46934207D963682268403B9A4208D37E
:1055A000FFF748FE05E001236373FFF765FF00285E
:1055B000F1D0EFF3108072B623685A1C22602B6082
:1055C00028B962B638BDFFF735FE0F2038BD002080
:1055D00038BD00BF5439002000E0FF00FFFF7F000E
:1055E00010B50E4C30B10E4B01229A732368134450
:1055F000236010BD236823B978460A4B1B6853B15A
:1056000098472368013B23603BB9054A9373BDE883
:105610001040FFF731BF00DEF3E710BD1439002062
:10562000543900204C60002070B5234C8CB00546E6
:105630000E4600F0FDFF237B002B37D1638A53BB5E
:10564000A3682EB9AB4206D301F01AF80CB070BDB6
:1056500001339D4221D9A3682A339D42F4D8A37B0C
:10566000002BF1D142F606522360636023826282EE
:1056700063732373A560FFF7C1FDFFF7DBFD237B99
:105680008DF808300CA80223A26800F82C3D039284
:10569000FFF778FDD8E7002ED6D0A36801339D42EE
:1056A000D2D101236373FFF7E7FECDE7012BCBD106
:1056B000002EC9D1A368F2E754390020014B986845
:1056C000704700BF54390020034B1A7B9868012AA9
:1056D00008BF00F1FF30704754390020044B9B682D
:1056E0005840C20748BF03F1FF331846704700BF58
:1056F00054390020014B187B704700BF54390020FB
:1057000010B1800B014B185C704700BFBBE1020079
:1057100012DF704713B5137863B1042B0CBF072356
:10572000002310F8011C292962D005D8162973D04E
:1057300002B010BD537DF4E72A2927D02B29F7D1D9
:10574000022BF5D110F8021C0139C9B202F0E8FBB6
:1057500004460028ECD0374B1B685B06E8D5364B77
:105760001B68012BE4DD2F21344808F06DF8002878
:1057700049D02F21314808F067F8411C304B314A9D
:10578000D3F80435009201949A2224E0022B01D030
:10579000072BCDD110F8021C013901F09BFA044609
:1057A0000028C5D0234B1B685A06C1D5224B1B6865
:1057B000012BBDDD2F21214808F046F878B12F21BB
:1057C0001E4808F041F8411C1D4B1F4AD3F8043510
:1057D000009201948722022001F044FDA8E75C2199
:1057E000164808F031F808B15C21E9E71349EBE706
:1057F000022B9DD110F8021C0139C9B202B0BDE8DC
:105800001040FFF7A7BB5C210C4808F01DF808B159
:105810005C21AFE70949B1E701884FF6E46399429B
:1058200086D110F8021C0230033902B0BDE81040E6
:10583000FFF790BBFC310020F8310020BFE10200EF
:1058400000B0004004E20200DBE1020070B58AB063
:1058500004F0AEF90446002834D000238DF810304F
:1058600006460FCE05AD0FC533682B60627D052A55
:105870000CD9207D00F00F03072B07D004AB063AAC
:1058800004F11D0100F00F0003F02AF9114B1A6812
:10589000AAB104AB0393237DC3F303038DF8043053
:1058A000637D062B89BF063B00238DF8053004F18C
:1058B0001D0398BF8DF80530029301A8904720463C
:1058C00004F05AF904F08CF980F00100C0B20AB07B
:1058D00070BD00BF6C390020F7B5304F3A780546EF
:1058E000002A51D1002851D02D4B067B42681A6006
:1058F000002E4DD00F2E01D0072E49D804F064FAA7
:105900000DF10700FFF704FF0446D0BB9DF80730F8
:10591000012B3FD104F06CFA00F0BCF9304600F0E6
:105920004BFEE87800F076F800F09AFD03F048FCB2
:105930001C4804F00BFA03F07DFA06F0D5FD02F0E6
:1059400021F803F045F8284601F0C0F8284605F094
:10595000B3F902F075FE42F2107002F07BFA2846AD
:1059600006F054FCFFF7F6FA08B1062814D100F04F
:10597000ADFB0D4803F086F80C4B00221A600123A2
:105980003B70204603B0F0BD0824FAE70E24F8E788
:105990000724F6E70224F4E70446F2E76B39002017
:1059A0004C6000204D580200EC3100206C39002082
:1059B00038B50E4B1B78B3B10D4D2A789AB900F06B
:1059C00073FD20B178460B4B1B6853B1984703F029
:1059D0000DFC044618B904F0B7F801232B702046DB
:1059E00038BD00DEF3E70824F9E700BF6B3900207B
:1059F0006A3900204C6000200020704708B500F094
:105A00000DFD002008BD0000014B1860704700BF6D
:105A10006C39002007289ABF024B33F81000FA2097
:105A2000704700BF30E2020010B5037804463BB176
:105A30000378062B04D078460A4B1B6873B198474D
:105A4000636923B17846074B1B684BB19847012324
:105A50002370054B5A6862615C6010BD00DEEFE7A1
:105A600000DEF4E74C600020743900202DE9F84393
:105A7000174EDFF8609035464FF0000834680CB1DF
:105A8000AB680BB9BDE8F8832778FFB2FB1E012B8A
:105A90001AD863693360EB68C4F814805A1EEA6050
:105AA00023B97846D9F8003063B19847AB68032F23
:105AB00003F1FF33AB6084F80080DFD12046FFF7AD
:105AC000B3FFDBE700DEF1E704F11406D6E700BF21
:105AD000743900204C600020014B186800F01EBE95
:105AE0007039002070B54369054623B17846154BDF
:105AF0001B68BBB19847144B1A682AB11A686C68C6
:105B00005268A21A002A0FDA1A686A611D60DA6800
:105B10000132DA60AAB978460A4B1B6883B1BDE846
:105B20007040184700DEE6E719684A691AB1506804
:105B3000001B002802DB6A614D61E8E71146F4E7CB
:105B400000DE70BD4C60002074390020F8B50F4DA8
:105B50000F4F00266B6803B9F8BD6C6863696B6012
:105B600023786661052B01D12670F3E72378012B9A
:105B700003D078463B6833B1984702232370204610
:105B8000FFF7B0FFE6E700DEF7E700BF743900205B
:105B90004C6000202DE9F041FFF768FFFFF7D6FFCA
:105BA00000F06EF9384FDFF8E88006463D463B6866
:105BB00023B13B685B689B1B642B1FD400F060F92A
:105BC0002B68C3B12B685B68C3F16403C34243BF56
:105BD00029682E4A49682D4A56BF00F16401022304
:105BE0000223012000F002F928B17846284B1B68F7
:105BF000002B46D098470120BDE8F0813C6823780F
:105C0000022B04D07846D8F8003043B39847636934
:105C10002B6000236361EB685A1EEA6023B9784663
:105C2000D8F80030EBB19847A36823B97846D8F884
:105C30000030C3B198470623216923703046A3681A
:105C4000984700F01DF90646FFF710FFFFF77EFFAB
:105C50002378062BABD1E2683AB92270A7E700DEC1
:105C6000D5E700DEE0E700DEE5E763681344991B53
:105C70006429FBD46360022323702046FFF732FFC0
:105C800095E700DEB7E700BF74390020D95A02005B
:105C90004C60002008B510220021044807F0E4FC05
:105CA000034800F013FD034B186008BD7439002051
:105CB000955B02007039002038B5044620B978465B
:105CC0000F4B1B68BBB19847A36823B978460C4BB0
:105CD0001B6893B19847EFF3108572B60023636198
:105CE0002046FFF7A1FE05B962B6064B1868BDE86D
:105CF000384000F013BD00DEE6E700DEEBE700BF52
:105D00004C6000207039002038B5044620B9784630
:105D1000134B1B685BB19847EFF3108572B623787D
:105D2000062B06D10023237005B962B638BD00DE0C
:105D3000F2E72378012B01D10523F4E72378002B28
:105D4000F2D02378033B012B81BF064A93680133CD
:105D5000936004232370044B186800F0DFFCE3E732
:105D60004C600020743900207039002070B50D4659
:105D7000044620B97846164B1B689BB19847EFF351
:105D8000108672B6237813B12378062B0CD12046E7
:105D9000FFF74AFE0F4B6560186800F0BFFC06B9BC
:105DA00062B670BD00DEEAE72378012B02D02378CB
:105DB000052B02D101232370ECE72378033B012B51
:105DC00081BF054A9368013393600323F3E700BF63
:105DD0004C6000207039002074390020024B1B6891
:105DE00003B962B6704700BFA8390020022838B551
:105DF00031D803F003049C422FD1EFF31083184DE8
:105E00002B6072B6174B43F82020174B43F8201035
:105E1000164B1C54164B002243F82020154B1B78C0
:105E2000ABB1154B1B68CC1A48BF5C1A830003F159
:105E3000804303F500430022C3F8402110300122C3
:105E400002FA00F00D4AC2F80403C3F84045FFF718
:105E5000C5FF002038BD072038BD0A2038BD00BF6F
:105E6000A8390020883900209C390020843900207E
:105E7000B03900209439002098390020008000407B
:105E800008B5EFF310830B4A136072B60A4B1B7808
:105E90006BB10A4B0022C3F84C210122DA64D3F81B
:105EA0004C05074B1B681844FFF798FF08BD054BCE
:105EB0001868F9E7A83900209439002000800040D4
:105EC00098390020AC3900202DE9F047DFF88890A0
:105ED000DFF888A000244FEA840808F1804505F522
:105EE0000045D5F84031FBB1D9F8043304F1100274
:105EF00001269640334217D058F80A7027B97846E1
:105F0000134B1B68ABB1984700234AF80830C9F817
:105F10000863FFF7B5FF0F4BE35C9B0701460AD50B
:105F2000B8470023C5F840310134032CD3D1BDE874
:105F3000F08700DEE8E7384600F062FB0028F0D08A
:105F40007846034B1B680BB19847EAE700DEE8E7A9
:105F50004C600020843900200080004088390020F7
:105F60002DE9F843334FDFF8F09005460026B84698
:105F7000B40004F1804303F500430022C3F8402538
:105F8000C3F84021D3F840313A6859F8263005F17A
:105F90007801981A48BFD01AB1EB020E48BFA2EBA5
:105FA000010E8645244A2ED913593BB100211151C7
:105FB000224AB25C920719D528469847204BE258EE
:105FC0001AB1012111600022E2500136032ECFD117
:105FD0001C4B1B681BB91C4B4FF480721A601B4B87
:105FE000C8F8005001221A70BDE8F8832946184607
:105FF00000F006FB0028E1D07846154B1B68002B0B
:10600000DBD100DEDAE71259002ADED004F1804449
:106010005A1B04F5004448BFEA1A0023C4F8403173
:1060200006F1100101238B400A49C1F80433C4F87A
:106030004025CAE79839002088390020843900209B
:10604000B0390020A839002000E100E09439002098
:106050004C600020008000409C39002070B5002377
:106060000F49104C104D1A465E5CF60742BF5A5459
:1060700044F8232045F823200133032BF4D10B4BA4
:1060800018600B4B00221A700A4B4FF0FF32C3F816
:106090000823094B4FF48072C3F8802170BD00BF04
:1060A0008439002088390020B0390020AC39002024
:1060B000943900200080004000E100E0024A1368AB
:1060C00001331360704700BFBC3900200A4A10B585
:1060D00000230A4C13600A4AA2600A4AE260236164
:1060E000FFF7CEFE00F5C330A03060602046BDE86B
:1060F0001040FFF7E1BD00BFBC390020C0390020CF
:10610000BD600200A08601002FDF704730DF7047BE
:1061100010B5034605C89C68D968A0EB721082EAE6
:10612000F4320C44014410441A605C609960D860F9
:1061300010BD000037B50C46054620B97846104B17
:106140001B682BB198470023A34203D303B030BD93
:1061500000DEF8E70DF10700FFF7D6FF9DF8071006
:106160000029F7D0E21A914288BF8DF80720E8187D
:106170009DF80710FFF7CAFF9DF807201344E3E7D7
:106180004C60002037B5044602A8002340F8043DC7
:106190000421FFF7CFFF074B2360019B6360A360DF
:1061A000E36014252046FFF7B3FF013DFAD103B0A9
:1061B00030BD00BFED5EEAF145DF704746DF704756
:1061C00047DF7047064A032313751168054B936137
:1061D00040F6D862914288BF43F2B0629A6070473D
:1061E000D8390020F8390020064A13685068064A5A
:1061F00012681844283278385343044AB3FBF2F348
:10620000C01A7047D8390020F439002040420F00EE
:1062100010B52B4B30B11A69996901321A611A68AD
:106220000A441A60D96801221A759A690131520824
:106230000129D9609A610CD0022918D099691A688D
:1062400020480A44824227D840F6D762914223D997
:1062500010BDB2F5FA7F03D130B900229A61EDE7A3
:1062600040F6D8618A42E9D840F6D862F6E71A6962
:10627000022A03D11968134A521AEFE7012ADDD125
:106280000028EAD0DAE778460F4B1B6813B1BDE867
:106290001040184700DE10BD012258685A720024D1
:1062A0001C75FFF75DFE03F07FF8FFF79DFF0323EA
:1062B0000146064A2046FFF799FD0028E3D110BDAC
:1062C000D8390020809698004C600020C5610200FB
:1062D000F8B5484C484D012323722B781BB1474B2E
:1062E0001B78002B68D00023237504285CD8DFE8D6
:1062F00000F0035653514D00414AE3602361D2F848
:106300000405A27A3F4D002162B3A372236862683C
:10631000C5E90001134401213B4A636021752368EC
:106320003A4992682260002B08BF0B46991AB1F5D2
:106330007A7F27D39A4225D8A161237D023B012B86
:106340000CD8637A3BB103F051F8FFF74DFFFFF72C
:1063500085FE00236372294B00221A7000232372EA
:106360002B48F8BDD5E90023DFF8ACE0821A22F013
:106370007F420023A2FB0E670EFB0377F30B43EA79
:106380004743C4E74FF47A73A361D6E70120FFF7D0
:106390003FFFD2E70020FAE702F0BCFFCDE7FFF7AE
:1063A00093FD02F0E9FFC8E778461A4B1B680BB172
:1063B0009847C2E700DEC0E7FFF762FD6368C01AD6
:1063C0002B782060012B07D0022B0BD07846114B85
:1063D0001B6863B1984702E002222275A372002372
:1063E0002B70AAE703232375074BA361F7E700DEB1
:1063F000F5E700BFD8390020093A0020083A00200C
:1064000000B00040103A0020F83900208096980033
:10641000EC3900204C60002040420F00043810B5D9
:10642000032817D8DFE800F00C130502FFF7C6FEBB
:1064300080B17846084B1B685BB1BDE81040184737
:10644000064840F6D8638360FFF7BAFEF0E70348DA
:10645000FAE700DE10BD00BF4C600020F8390020D4
:106460000C4A10B543F2B06400239460012143F656
:106470009824137013715171D460074A1060074A51
:106480001370074A1370074A1372537213609172A4
:10649000536010BDF8390020F4390020083A00207C
:1064A000093A0020D839002008B50548FFF784FED6
:1064B00020B90448BDE80840FFF782BE08BD00BF10
:1064C000D1620200F8390020064B1B7D032B07D058
:1064D000054B1878013801288CBF00200120704737
:1064E00001207047D8390020093A0020014B586834
:1064F000704700BFD839002010B5064B587A40B11C
:10650000FFF772FE0446FFF7BBFC0346201A48BFA4
:10651000181B10BDD8390020014B187A704700BFF6
:10652000D8390020EFF3108372B6054A527A22B1AF
:10653000044A4FF48071C2F8001103B962B6704783
:10654000D839002000E100E0024B01221A70FFF769
:10655000E9BF00BF093A0020074A13782BB140B9C0
:10656000064B1B78003318BF012310701BB1FFF7D7
:10657000D9BF0023F9E77047083A0020093A002004
:10658000044B1B780F2B1EBF034B4FF48022C3F824
:1065900000217047583B002000E100E008B50146AB
:1065A000044805F0E1FD10B9FFF7EAFF08BD04203B
:1065B00008BD00BF183A002010B50C4C0C4B2070E1
:1065C0000C48036010234360836005F0A5FD0A4872
:1065D00006F078F823780F2B07D0084A5B01DBB26E
:1065E00082F812334FF48023136010BD583B002013
:1065F0002C3A0020183A00205C3B002000E100E02B
:1066000030B50D4685B0044620B97846074B1B6867
:1066100053B19847002368468DF8003001940295E5
:10662000FFF7BCFF05B030BD00DEF3E74C60002093
:1066300010B5EFF3108472B60D490A68531C0B6055
:106640005AB90C4B1B780F2B04D00B4B4FF4802204
:10665000C3F8802004B962B610BD002BFAD1784689
:10666000064B1B680BB19847F4E700DEF2E700BF6A
:106670002C3B0020583B002000E100E04C60002053
:1066800038B5EFF3108572B60C4C236823B9784601
:106690000B4B1B687BB198472368013B23603BB9D8
:1066A000084B1B780F2B1EBF074B4FF480221A603C
:1066B00005B962B638BD00DEEEE700BF2C3B002016
:1066C0004C600020583B002000E100E038B5054652
:1066D00020B978460E4B1B68ABB198470D4C236828
:1066E000072B04D978460A4B1B6873B19847EFF320
:1066F000108372B62068421C2260074A42F820507C
:1067000003B962B638BD00DEE8E700DEEFE700BFA0
:106710004C600020303B0020343B002010B5104B73
:106720001B688342044604D878460E4B1B68A3B10D
:106730009847EFF3108172B60B4A6009012304F009
:106740001F0403FA04F452F82030234342F82030A7
:10675000FFF716FF01B962B610BD00DEE9E700BF22
:10676000303B00204C600020543B002070B50D46AB
:106770001646044620B978460C4B1B688BB19847E7
:1067800025B97846094B1B686BB19847EFF3108326
:1067900072B60022A560E6602274246003B962B676
:1067A00070BD00DEECE700DEF0E700BF4C600020CB
:1067B00070B5044620B97846114B1B68D3B1984791
:1067C000A36823B978460E4B1B68ABB19847EFF32B
:1067D000108672B6237C03F0FF057BB901230948BC
:1067E0002374214605F07EFFFFF7CAFE284606B94E
:1067F00062B670BD00DEE3E700DEE8E71120F6E7F1
:106800004C6000205C3B002010B5044620B978465F
:10681000034B1B6813B19847207C10BD00DEFBE7DB
:106820004C6000202DE9FF47384E337823B178467D
:10683000374B1B6813B398470125DFF8E480354FC9
:10684000DFF8E09035700024D8F800309C4217D370
:1068500031482F4FDFF8C09005F068FF4FF0000877
:1068600068BB2E4C6946204605F0A6FC002838D0AF
:1068700000232846337004B0BDE8F08700DEDBE774
:10688000600904F01F020123934057F820201342AF
:1068900013D0EFF3108172B657F8202022EA0303D9
:1068A00047F8203001B962B659F82430984782463B
:1068B00018B92046FFF732FF55460134C4E7046893
:1068C000237C1BB978463B684BB19847E068A368C6
:1068D000984784F81080484605F028FFC0E700DE9E
:1068E000F4E79DF80030012B09D008D3022BB9D171
:1068F000019B002BB6D0039902989847B2E7019B01
:10690000002BAFD002989847ACE700BF643B002053
:106910004C600020543B00205C3B0020183A0020D3
:10692000303B0020343B0020FFF77CBF70B50646AB
:1069300088B00D4614460021052204A806F094FEF6
:10694000336907221BBAA9180DF11900CDF81530CB
:1069500006F07FFE70696A46113004A905F021FF38
:10696000AB1D0DF10600E21D13F8011910F8014DE1
:10697000AB4281EA040102F8011DF5D108B070BDF7
:10698000F7B50546002755F80C1B8368C97A0646FB
:10699000B94202AA14BF0824042403F1090042F8F2
:1069A000047D73682946204401F0DEFB002800F0D6
:1069B0008880737B012B16D00120FEF711FE34680E
:1069C000FEF782FE206130680C30FEF7D5FD0446EC
:1069D0003846FEF705FE34B10199284601F048FC1F
:1069E000204603B0F0BD3568019C2889FEF788FE7B
:1069F000012805D07846344B1B68002B57D09847A8
:106A000095F90A30002B05DA78462F4B1B68002BCE
:106A10004FD09847EB68B3F1807F05D378462A4B77
:106A20001B68002B47D098472B782BB97846264B0C
:106A30001B68002B41D098476B692BB97846224BD5
:106A40001B68002B3BD098472B6903F00102237889
:106A500003F07F0343EAC21323706A69127823F0BC
:106A60007F0302F07F02134323706378EA7A03F016
:106A70007F0343EAC213DBB26370AA7A23F07F0379
:106A800002F07F0213436370EB6823711A0CA2704B
:106A90001A0AE2702B89A3711A0A62716B88237239
:106AA0001A0A019BE27109333361002498E700DE82
:106AB000A6E700DEAEE700DEB6E700DEBCE700DEFC
:106AC000C2E704248CE700BF4C60002008B5084BE7
:106AD00058B91860074B01221A70FEF777FCFEF7D1
:106AE00009FCBDE8084001F077BE82681A60F1E752
:106AF000683B00206C3B002010B50C46E1B1A0F5CE
:106B0000C87004281AD8DFE800F0080F0315130036
:106B1000012001F09DFF606002E0094B1B784B6093
:106B200004232360002010BD012001F07DFFF2E767
:106B30000020EEE70020F8E70E2010BD052010BD74
:106B40006C3B002010B5044620B97846104B1B68FA
:106B5000C3B19847236823B978460D4B1B689BB196
:106B6000984723685B6923B97846094B1B686BB16A
:106B7000984701232373002363732046BDE8104028
:106B8000FFF7FEBE00DEE5E700DEEAE700DEF0E745
:106B90004C60002070B5044690B028B97846474B49
:106BA0001B68002B79D0984723692BB97846434B53
:106BB0001B68002B73D0984723682BB978463F4B4E
:106BC0001B68002B6DD0984723685B692BB978460A
:106BD0003A4B1B68002B66D0984703AD00222B462A
:106BE0001146206805F0E6FD22682369D17A002964
:106BF00014BF082104218DF83C105169089501311A
:106C00000791A168023189B2A3F10906023B002570
:106C100009930D9307A80B440E93ADF82810ADF817
:106C200030500B9505F0C1FD324620683146FFF724
:106C30007DFE216904F10C00093901F0D9FA052320
:106C40008DF81C30A3688DF81E3007A823698DF8D5
:106C50001D50089303F0A4F80446E0B1184B1B68DC
:106C60009B0618D5174B1B68012B14DD2F211648E6
:106C700006F0EAFDC8B12F21134806F0E5FD411CDE
:106C8000124B134AD3F804350092019440F27F224C
:106C9000022000F0E7FA10B070BD00DE84E700DEED
:106CA0008AE700DE90E700DE97E75C21064806F001
:106CB000CBFD08B15C21DFE70349E1E74C60002030
:106CC000FC310020F831002080E2020000B00040DA
:106CD0009BE202002DE9F04FA9B004AF8A467A602A
:106CE0000446002800F0C9810146012207F14C004A
:106CF00006F0AFFC2078E31D00257B6707F124092F
:106D000007F15303C009C7F88430A7F88050FD6726
:106D1000C7F87090FEF7E2FC2378786403F07F03F5
:106D2000BD64BB607D61BD6107F1180207F114010C
:106D3000B868B44DFDF742FF4FF0000B5FFA8BF3DC
:106D400007F1900202EB830353F87C3C1BB97B698B
:106D5000002BE9D1E7E007F1340607F14C022146A8
:106D60003046BB64FFF7E2FD97F84D3097F85200CC
:106D7000DA0903F07F0387F83E3097F84F3087F841
:106D80003F2097F84E201B0243EA024397F8502019
:106D900013433B6497F8513040EA0320B887FEF76D
:106DA000AFFC01283DD1AAF10903FB6097F83F3001
:106DB000FA68002B0CBF042308239A4231D3396CA4
:106DC000B88F03F027F8002837D003233B7706233A
:106DD0007B7707F11C0007F14C0387F81EA03B628C
:106DE00002F0DEFF0646E0B1874B1B68980618D517
:106DF000864B1B68012B14DD2F21284606F024FD4D
:106E000090B12F21284606F01FFD411C804B814A7E
:106E1000D3F80435009201964FF49B72022000F0E3
:106E200021FA0BF1010B89E75C21284606F00CFDE5
:106E300008B15C21E6E72946E8E707F11C01B88FB5
:106E4000FDF7FCFF80460028EBD197F83F30002B80
:106E50000CBF04220822AAF1070387F88C209B1A92
:106E60007A6F9BB2A7F87830134401460246C7F800
:106E7000883030464B4605F09DFCBB6C87F81C8083
:106E8000013307F11C0107F16C00FB6605F08FFC74
:106E90003B7F002BC5D097F8533097F854005A4CDD
:106EA00040EA0320F886FEF72BFC236887F83400BD
:106EB000990735D5554B1B68032B31DDB7F8781092
:106EC000D7F884E04B00083323F00703E846ADEB26
:106ED000030D514B04ADD3F800C070462B46A0EB18
:106EE0000E02914203F1020320D8002305F811306D
:106EF00044482F2106F0A8FC38B32F21414806F062
:106F0000A3FC411C424B454AD3F804350192444A44
:106F10000092029540F28512042000F0A3F9C546C4
:106F200097F83430D3B94FF0000A5BE010F8012B2A
:106F30004FEA121A02F00F021CF80AA003F802AC82
:106F40001CF8022003F8012CC9E75C212D4806F04B
:106F50007BFC08B15C21D1E72A49D3E73B6CB3F154
:106F6000807FE0D297F93E30002BDCDBBB6C2BB985
:106F700078462C4B1B68002B39D0984797F83F3048
:106F8000FA68002B0CBF04230823A2EB030B5FFA63
:106F90008BF507F155087B6832462946404603F0D9
:106FA000DDFF214B1B788246C3B197F83E30012BA1
:106FB00014D997F83430012B05D107F16C01F88E04
:106FC000FDF73CFF50B9194B1B68002B58D097F8C0
:106FD0003E20F98EB88F9847002851D1396CB88F70
:106FE00002F036FF50469437BD46BDE8F08F00DE14
:106FF000C4E75C21034806F027FC08B15C217AE075
:1070000000497CE080E20200FC310020F8310020E1
:1070100000B000409BE202000032002040E202008B
:107020008BE002004C6000206C3B0020683B00209D
:1070300023689B076ED53A4B1B68012B6ADD2F2115
:10704000384806F001FC78B12F21364806F0FCFBE9
:10705000411C354B354AD3F804350092022040F2EA
:10706000AB1200F0FFF855E05C212E4806F0ECFB77
:1070700008B15C21E9E72B49EBE74FF00E0AB1E7D5
:1070800097F83E30FE66013B87F83E3000233B67B1
:1070900007F16C0001237D6787F8783087F8793035
:1070A000FFF76EFC06460028C2D12A464146F86F1B
:1070B00006F0CFFA07F16C00FFF76CFD0423484699
:1070C00087F8243087F8256087F826B0C7F828802D
:1070D00002F066FE0546E8B123689A061AD5104B01
:1070E0001B68012B16DD2F210E4806F0ADFB002892
:1070F0003FF47FAF2F210B4806F0A6FB411C0A4B43
:107100000B4AD3F804350092019540F2A7120220F1
:1071100000F0A8F897F83E30013387F83E305DE77D
:10712000F831002080E2020000B0004053E202008B
:107130009BE2020038B50D46044600B121B97846FD
:10714000054B1B6833B19847AC421EBF23682B60C8
:10715000256038BD00DEF7E74C60002070B50C46B6
:10716000054600B121B97846134B1B6893B1984787
:107170002B689C4204D178460F4B1B6863B198473B
:10718000286858B10C4E05685DB92146BDE87040CD
:10719000FFF7D0BF00DEEBE700DEF1E72C602060F8
:1071A00070BDAC4203D17846336813B19847284686
:1071B000E9E700DEFBE700BF4C60002038B505467C
:1071C0000C4601B120B978460D4B1B684BB198476E
:1071D0002B6893B19C4207D123682B60002020606C
:1071E00038BD00DEF4E713461A6822B19442FAD1A2
:1071F00022681A60F2E7002CFAD0052038BD00BFE3
:107200004C60002037B506AC184654F8045B009279
:107210000B4602460549002006F0B5F922462946EC
:10722000002006F08DF803B030BD00BFC9E20200B7
:10723000034B1860034B1960034B1A60704700BF83
:10724000FC310020F83100200432002070B4044CDE
:10725000246814B1A44670BC604770BC704700BF7E
:107260000432002030B585B008AC54F8045B0194BA
:1072700000950394FFF7EAFF05B030BD037942792A
:107280009B1A00EB03307047431E9BB247F6FE6229
:10729000934208D849B14B8858400B8818420CBF1C
:1072A0000120002070470020704701207047000037
:1072B000084B984210B5044603D303F582739842F5
:1072C00004D97846044B1B6813B19847201F10BDA2
:1072D00000DEFBE77C3B00204C600020094B98421D
:1072E00010B5044603D303F58273984204D9784657
:1072F000054B1B681BB19847A4F10C0010BD00DEC4
:10730000FAE700BF7C3B00204C600020820738B5C4
:1073100004460D4604D078460D4B1B6873B1984760
:10732000AB0704D078460A4B1B684BB1984725F051
:1073300003052544AC4205D1012038BD00DEEFE74E
:1073400000DEF4E754F8043B0133F3D0002038BDED
:107350004C6000201FB50124019003910292694600
:107360001A4620468DF8004005F018F904B010BD0B
:107370002DE9F041104D114F0146114804F04AFB30
:107380006E684FF00008284605F0D0F9044640B179
:10739000C0F800808368C0689847A642F3D1BDE872
:1073A000F08136B178463B680BB19847EBE700DED9
:1073B000E9E7BDE8F08100BF843C00204C6000207C
:1073C000703B002013B502A9002482B241F8044D9D
:1073D000044804F0A3F918B90198043002B010BDB4
:1073E0002046FBE7703B002008B5FFF761FFBDE8D2
:1073F000084001460288014804F01EBA703B002094
:10740000014B1868FFF78AB98C3C002010B503883F
:10741000044623B978460B4B1B688BB198472088EC
:10742000094B04EB800030EA030203D06288B2F516
:10743000FE4F04D11C4004F580542078204410BD38
:1074400000DEECE74C60002000F0FFFF70B5046840
:10745000237805461C4400214FF6FF762868FFF785
:107460000DFF844202D26388B34201D1084670BD49
:107470002046FFF7CBFF21460446EFE72DE9F04F0A
:107480009D4E9E4D89B034462A783378022A14D115
:10749000032BFDD8DFE813F004003E001100C50106
:1074A00008A9002341F8103D954804F047FA014629
:1074B00038B1944B1B6803B19847012009B0BDE86F
:1074C000F08F049F904B97F808903A1D1A600123A3
:1074D00099452370D8D8D7F80480D8F80C00FFF766
:1074E000CDFED8F81430C01AD8F80830C01AB9F157
:1074F000000F01D1398A89008142C5DBD8F80430F8
:10750000002BC1D0032388F8003078682B7004F07A
:1075100091FDB9E77C4B1F6809238DF810303B794A
:107520008DF8113004A800238DF81230059302F075
:1075300037FC8046E8B1754B1B689B0619D5744B28
:107540001B68012B15DD2F21724806F07DF9D8B19B
:107550002F21704806F078F9411C6F4B6F4AD3F821
:1075600004350092CDF804804FF424720220FFF716
:1075700079FE3B79042B00F2B680DFE813F00E00B1
:107580009500DD0007013B015C21624806F05CF9D3
:1075900008B15C21DDE75F49DFE73B68D3F80C8089
:1075A0004046FFF76BFE98F80030FA89014608EB79
:1075B000030000F065FD3B68D3F8089029F47F686C
:1075C00028F00F0808F5805BB7F80C80ABEB0901D9
:1075D0004FEA8808414582463ED9C84439460023CF
:1075E00031F80C2F48469200FFF7B4FE28B17846D8
:1075F0004B4B1B68002B51D098474A4B4A490422F9
:107600004046FFF7A7FE28B17846454B1B68002B84
:1076100046D09847BAF1000F13D03A68BAF8001074
:10762000536803EB8103536040493E4B04225046AC
:10763000FFF790FE28B17846394B1B68002B31D0FC
:107640009847C7F808900023394A1370002B40F080
:10765000E6800223237017E7D868FFF70FFE834503
:1076600000F0D980414503D19BF80080D844B5E7AC
:10767000002304222F494846FFF76CFE20B17846CC
:10768000274B1B6843B198479BF80090B7F80C80D4
:10769000D94409EB8808A1E700DEF5E700DEACE796
:1076A00000DEB7E700DECCE73B68D3F80C8040464D
:1076B000FFF7E4FD98F80030FA89014608EB030073
:1076C00000F0DEFC002800F0A8803A68B86001886D
:1076D000536803EB810353601449124B0422FFF7F4
:1076E00039FE0028AFD078460D4B1B68002B00F008
:1076F00090809847A7E700BF803C0020943C002082
:10770000703B0020903C0020983C0020FC31002081
:10771000F8310020FCE2020000B000409BE20200D1
:107720004C600020963C0020F8E20200F0E20200EB
:107730009C3C0020F4E202003B6897F80D80DB6877
:1077400003EB083808214046FFF7E0FD20B108228E
:107750007D4BB9184046C2E77C4A08F1FF3A07F171
:10776000070907F10F0B1AF8013F19F8011F994299
:1077700007D0FF2B05D0784613682BB103929847AA
:10778000039ACB45EFD1E2E700DEFAE738680C3028
:10779000FFF75CFE804620B978466C4B1B682BB324
:1077A0009847B8F802305BB1674B694904224046FC
:1077B000FFF7D0FD20B17846644B1B68C3B19847F2
:1077C0004046D7F80090FFF721FEC9F80800396855
:1077D000C868FFF753FD8B688342BFF434AF40465F
:1077E000FFF714FE584B5B49042278E700DED8E728
:1077F00000DEE5E73B68DA681B69059202211B039E
:107800008DF81010504A069304A9012004F0C6FE1A
:1078100067E700DE18E7012316E7022314E70323D6
:1078200018E74D4F3B6823B97846484B1B68CBB1EE
:1078300098474A4B3F6893F80080B8F1000F24D175
:107840003B79D7F80890012B16D00DD3022B1FD00F
:107850003B79D7F800A0042B3BD8DFE803F02143A5
:107860004C3A600000DEE4E73946484631F80C2F18
:10787000920005F0DFFE01E0B9F80200B0FA80F0F6
:1078800040090028E4D14FF0030807F10C09DFE7B5
:107890003B68787BDB680822B91803EB0030E8E727
:1078A000B8F1000F0ED1B868FFF7B0FDCAF80800B4
:1078B000428847F6FF739A4204D07846234B1B68F0
:1078C00073B19847DAF818301BB142464946504622
:1078D00098473846FFF7ECFCFFF74AFD0023B9E66E
:1078E00000DEEFE7DAF81C30002BF2D04246F989CF
:1078F00050469847EDE79AF80030012B04D07846BF
:10790000124B1B684BB198473B7B7A7B013B9A42F9
:10791000DFD102238AF80030DBE700DEF4E7B8F1BC
:10792000000F04D07846094B1B6853B198470023D9
:107930008AF80030DAF82030002BCAD05046984739
:10794000C7E700DEF3E700BF963C00204C60002054
:10795000F0E20200F8E20200983C00209C3C00208B
:10796000064B1B88934207D1054B1A78022A03D194
:1079700003221A70FFF782BD704700BF963C0020BB
:10798000803C002008B54FF482720F490F4803F085
:1079900055FE0F49012004F0EBFD0E48FEF796FE60
:1079A0000D4B0E4A1860002313700D4A0D481380CA
:1079B00004F088FE04F0EAFA0B4B10B103221A70AF
:1079C00008BD0222FBE700BF7C3B0020703B00208B
:1079D000617902007D7402008C3C0020803C002014
:1079E000963C0020843C0020943C002070B50E465C
:1079F0001446054620B97846164B1B6833B19847A4
:107A00002B78022B04D00024204670BD00DEF7E75F
:107A1000E86894B904780444E868FFF72FFC054649
:107A2000AC42F0D231466088FFF72EFC0028EBD143
:107A30002046FFF7EBFC0446F2E7037803449C4240
:107A4000E1D3FFF71BFC8442DDD82046FFF7DEFCC4
:107A50000446E1E74C60002070B50E46144605462A
:107A600020B97846194B1B68D3B19847731E9BB257
:107A700047F6FE62934208D947F6FF739E4204D050
:107A80007846124B1B686BB19847802C04D9784616
:107A90000E4B1B6843B198472B783BB9002070BD53
:107AA00000DEE3E700DEF0E700DEF5E704F11000BA
:107AB000FFF788FC0028F1D00334A4080023013428
:107AC0000371C681848140F80C5B70BD4C6000205E
:107AD00008B5FFF703FCFFF787FCBDE80840FFF798
:107AE0008FBC000038B50C46054620B97846154BCA
:107AF0001B6803B39847631E9BB247F6FE6293422E
:107B000008D947F6FF739C4204D078460D4B1B689A
:107B10009BB198471020FFF755FC80B101220271FC
:107B20004FF6FF72C48182810560FFF75DFCFFF7AD
:107B300067FC002038BD00DEDDE700DEEAE7042058
:107B400038BD00BF4C6000202DE9F04700230370D2
:107B50000B68C3F30B0304460D4623B178468B4BE9
:107B60001B6823B398476B68FE2B04D97846874B74
:107B70001B68F3B1984704F10C0700261822294628
:107B80003846DFF8088205F064FDA6606660236968
:107B9000E5689E420FD32846FFF770FB2B78DFF88D
:107BA000ECA181461D44002647F6FF782EE000DE5A
:107BB000D9E700DEDFE74FEA063905EB090115F8E2
:107BC0000930083BDBB2F62B06D84A79FF2A03D0EE
:107BD0000B79FF2B40F0C1800123237000256B4FF0
:107BE0004FF0100885E000DEC0E000DECBE013B906
:107BF0002B8806EB83062846FFF708FC81450546DF
:107C000004D87846DAF8003043B398476B88C3F35A
:107C10000E024245EBD166603846FFF717FCA060C4
:107C2000F0B9E3681A781344A3600223E56823706F
:107C30002B781D44A3689D420DD22846FFF7E6FB32
:107C4000A368984206461DD16A88531E9BB247F628
:107C5000FE618B421BD90020BDE8F08700DED5E72E
:107C600043884345E1D00820FFF7ACFB10B904205E
:107C7000BDE8F087032202710460FFF7B5FBFFF750
:107C8000BFFBD2E73046FFF7C1FB3546D8E7E368D4
:107C900018782946184400F0F3F90028DBD0854213
:107CA000D9D041882046BDE8F047FFF71BBFE06808
:107CB0002E03304440F6FC710430FFF727FB08B375
:107CC0001020FFF77FFB0028D1D00222027108228A
:107CD00002720422427280F80B8080F80A80457399
:107CE000226902734FF6FF72C2810460FFF77CFBCA
:107CF000013523699D42DAD3FFF782FBE36808333D
:107D0000A360A8E7E3689A199B5D083BDBB2F62BFA
:107D100005D85379FF2B02D01379FF2B05D1784674
:107D20003B680BB900DE00E09847E36833445B79B9
:107D30009D4203D078463B685BB19847E3681E4498
:107D4000236932799A42D3D078463B681BB1984771
:107D5000CEE700DEF2E700DECAE7964206D07846BC
:107D6000D8F80030002B3FF43EAF9847E3684B440F
:107D70001A7923699A4206D07846D8F80030002B49
:107D80003FF433AF9847013601E700BF4C60002055
:107D900010B5044620B978460C4B1B6883B1984750
:107DA000A36823B97846094B1B685BB198472368E1
:107DB00053B9246021460648BDE8104004F092BC47
:107DC00000DEEDE700DEF2E710BD00BF4C600020F2
:107DD000843C002008B5074803F0DCFD38B904F006
:107DE00021F980F00100C0B200F0010008BD0020C0
:107DF000FAE700BF703B002038B50446A8B1C5685B
:107E00002846FFF73BFA2B78014647F6FF72E81841
:107E100000F036F9A06020B978460A4B1B687BB1A8
:107E200098470223237000236360074B074902220F
:107E300001201A7004F09CFBBDE83840FFF7E0BA5F
:107E400000DEEEE74C600020943C002061790200E7
:107E500004F05CB9A0F164024EF6FC139A4210B52E
:107E6000044604D978460A4B1B687BB198476823BF
:107E7000084A0948002101F0E5F82146064801F0CA
:107E800091F80548BDE8104000F0DABF00DEEEE7EB
:107E90004C600020A03C0020083D00202DE9F0416E
:107EA000884616461F460446B0B1C2B1013B1B2BA3
:107EB00015D8FF2913D0BD1CEDB2691C00F0D6FF08
:107EC000044648B12B234574837480F813803A46E6
:107ED0003146143005F0BDFB2046BDE8F08100249A
:107EE000FAE7000010B5A1B1541E1B2C11D8FF28D1
:107EF0000FD073B113460A4601460848FFF7CEFF7C
:107F0000014640B1FF230371044800F0F9FF00204F
:107F100010BD072010BD042010BD00BF083D00208B
:107F20002DE9F04184B00E4604AF9046054628B9CD
:107F300078464A4B1B68002B6DD09847002E00F006
:107F40008B802C78711EC9B2002C66D0012C6CD0AD
:107F5000434C2268D20519D5424B1B68012B15DD15
:107F60002F21414805F070FC002863D02F213E48A6
:107F700005F06AFC411C3D4B2A78D3F80435019288
:107F80003B4A009202209522FFF76CF92368DB053B
:107F90003FD5344B1B68032B3BDD30B24300083325
:107FA00023F007036C46ADEB030D324BD3F800E032
:107FB0000DF110080DF111012A4612F8013F4FEAA8
:107FC000131C03F00F031EF80CC001F801CC1EF8BF
:107FD000033001F8023B531B9E42EED8002308F801
:107FE00010302F21204805F02FFC60B32F211E48B0
:107FF00005F02AFC411C1D4B1F4AD3F804350192A1
:108000001E4A0092CDF8088096220420FFF72AF934
:10801000A5460B2006E000DE90E74246681CFCF710
:1080200099FF0020BD46BDE8F0814246681C00F083
:1080300003FCF6E75C210C4805F006FC08B15C2166
:1080400095E7094997E75C21074805F0FDFB08B172
:108050005C21CCE70449CEE70920E3E74C6000202F
:10806000FC310020F83100201DE3020000B0004088
:1080700037E30200003200205DE302008BE00200E3
:1080800088422DE9F84304460E46174604D978463F
:108090001B4B1B682BB19847DFF86880DFF86090B6
:1080A0001CE000DEF8E7238804EB83039E4221D91D
:1080B000238823B97846D9F80030FBB19847238844
:1080C00004EB830333EA080203D06288B2F5FE4F63
:1080D00001D12B782B449E421C460BD96388BB42AE
:1080E00009D004EA080505F58055AE42E0D8B3F59D
:1080F000FE4FD8D100242046BDE8F88300DEDEE73D
:108100004C60002000F0FFFF20B1431E03420CBF73
:10811000012000207047000038B50446FFF7F4FF47
:1081200020B978460B4B1B6883B19847002364083D
:10813000DDB203F10103FAD125B17846054B1B6886
:1081400033B19847044B53F8250038BD00DEEDE706
:1081500000DEF7E74C6000209C3D0020014B1860DA
:10816000704700BFA03D0020F8B5064615461F46E3
:108170000C4629B978461D4B1B68002B2CD098471C
:108180002DB97846194B1B68002B27D098472378C8
:10819000012B04D97846154B1B680BB39847207800
:1081A000FFF7B2FF20B97846104B1B68D3B1984750
:1081B0006378012B04D978460C4B1B68A3B1984710
:1081C0002078FFF7A9FF3A460368214630469847D2
:1081D000286000B12078F8BD00DED1E700DED6E7E8
:1081E00000DEDCE700DEE3E700DEE9E74C600020CC
:1081F00070B50D46044628B978461C4B1B68002B09
:1082000029D098472DB97846184B1B68002B24D0ED
:1082100098472378012B04D97846144B1B68F3B197
:1082200098472078FFF770FF20B978460F4B1B68FE
:10823000BBB198476378012B04D978460B4B1B6878
:108240008BB198472078FFF767FF2946436820469F
:10825000BDE87040184700DED4E700DED9E700DE55
:10826000DFE700DEE6E700DEECE700BF4C60002061
:1082700070B50D46044628B978461C4B1B68002B88
:1082800029D098472DB97846184B1B68002B24D06D
:1082900098472378012B04D97846144B1B68F3B117
:1082A00098472078FFF730FF20B978460F4B1B68BE
:1082B000BBB198476378012B04D978460B4B1B68F8
:1082C0008BB198472078FFF727FF2946836820461F
:1082D000BDE87040184700DED4E700DED9E700DED5
:1082E000DFE700DEE6E700DEECE700BF4C600020E1
:1082F000024B1B6803B11847704700BFA03D002028
:1083000038B505460C46FFF707FF28B178461B4BEA
:108310001B68002B26D0984724B97846174B1B685A
:1083200013B39847236823B97846144B1B68EBB105
:108330009847636823B97846104B1B68C3B19847C8
:10834000A36823B978460D4B1B689BB19847284614
:108350000023400803F101020ED1DBB2084A42F8C3
:10836000234038BD00DED7E700DEDBE700DEE0E7D4
:1083700000DEE5E700DEEAE71346EAE74C600020AE
:108380009C3D002038B50C680D4624B90348FDF724
:10839000BBFC2C6038BD013CFBE700BFE43D002086
:1083A00010B51C4AC4891388A3428CB030D18368AD
:1083B000032B2DD193685BB35368B3F5803F3CBF6B
:1083C000013353604168007F04238DF804300B783B
:1083D00003F07F038DF808300B78C0F1010003F043
:1083E0007F030344DBB28DF809308978ADF80C4087
:1083F00001F00F01ADF80A1091899BB29942D18921
:1084000088BF938101A8994238BFD381FCF7BAFE97
:108410000CB010BDB03D002030B503685A688DB077
:1084200005463AB9DB892BB978462E4B1B68002BE1
:1084300052D098472B68DC8914F001040ED002A9B1
:108440004FF4C87004F09AF928B17846254B1B68A0
:10845000002B43D09847039C04F001040322002121
:10846000684605F001F92B689DF800201B7B8DF80C
:10847000024003F07F0322F07F0213438DF80030A7
:1084800000238DF80130AB6823B97846154B1B6883
:1084900033B398470A238DF8103000238DF81C3031
:1084A000AB88ADF81E302B681A88ADF822201888EA
:1084B000FDF726F9AB680A93032306932B688DF822
:1084C00020001A7BCDF814D08DF82C20596804A810
:1084D00002F030FC0DB030BD00DEABE700DEBAE7E5
:1084E00000DED7E74C6000207FB50378012B31D147
:1084F0001B4C22682AB978461A4B1B68002B2BD0DC
:1085000098472368184D194E01A89847E0B92B7871
:1085100093B1019B1A887AB15B686BB101A8FFF730
:108520007BFF48B9124C226822B978460D4B1B6874
:10853000A3B198472368984733782BB1019B1B88D8
:1085400013B101A8FFF768FF0A48FCF733FE0023C8
:108550002B70337004B070BD00DED2E700DEE9E7B7
:10856000C43D00204C600020AD3D0020AC3D00200B
:10857000C03D0020A43D00207FB52B4C226806465C
:108580002AB97846294B1B68002B43D098472368AB
:1085900001A89847002843D1254C23682BB9784679
:1085A000224B1B68002B37D098472368019AB3F5FC
:1085B000E16F9168184628BF4FF4E160884294BF8C
:1085C0001B1A5B1A2360A3B9138893B1536883B154
:1085D00001A8FFF721FF48B9164D2A6822B978464D
:1085E000124B1B68D3B198472B689847019B9B6837
:1085F0002360019B5B689BB121680F4B0F48B1F56D
:10860000E16F28BF4FF4E16103FB0161FDF7AEFBB1
:1086100004B070BD00DEBAE700DEC6E700DEE3E7C7
:108620000648FDF771FBF3E7C43D00204C600020D5
:10863000C83D0020C03D002040420F00CC3D00203E
:1086400038B5164D2A7822B17846154B1B680BB306
:1086500098470121134802F061FF20B17846104B82
:108660001B68CBB19847104B104C114A0021197070
:10867000104B2046DA60182204F0F6FF0E4BA36080
:108680000E4B23610E4BE3600E4B0F4A1A60012321
:108690002B7038BD00DEDCE700DEE4E7AE3D0020F5
:1086A0004C60002070E30200AD3D0020E43D00205E
:1086B00079850200C83D002085830200B83D002076
:1086C00040420F00A43D0020E984020030B50D4671
:1086D00085B014466B4601460D22284604F063F827
:1086E00008226946204604F0B4FF05B030BD000002
:1086F0002DE9F04389B0002405460194FCF7DEFF24
:108700000746FCF7F7FF421ED2F1000848EB0208CB
:1087100001A90DF103022046FCF71CFB2C4EDFF8EB
:10872000B490019C14B909B0BDE8F0836268538825
:10873000526806FB0323AB4202D05B1B002B40DADE
:108740009DF80330022BA3F102030CBF2034083440
:108750005A425A419DF8083062F3000368F341031E
:108760006FF38703082204F110010DF109008DF861
:10877000083004F06EFF3BBA0DF11502214602A845
:10878000CDF81130FFF7A2FF0123152202A91846E8
:10879000FFF7A8FBA8B9019B58684188028819B95E
:1087A000D9F80C10B1FBF6F10A235A43B2FBF1F2EF
:1087B00002FB03334380019B5A6855605B680022CB
:1087C0001A800DF1030201A90020FCF7C3FAA8E703
:1087D00040420F00103E002013B5114B114C0122F6
:1087E0001A70114BE3600421104BA3600DEB0100E4
:1087F00000232361FDF79EFCFDF742FB0199E2682F
:10880000B1FBF2F302FB1313184460602046FDF73E
:1088100053FA074A0748042104F028F802B010BDB3
:108820000C3E0020103E0020404B4C00F186020020
:10883000FC3D002078E302002DE9F043044687B0B8
:1088400020B978463C4B1B6893B19847661C0023BF
:108850000DF10B0203A930460393FCF77BFADFF816
:10886000D88004F10D07039B23B907B0BDE8F0835E
:1088700000DEEBE75B682BB97846D8F80030002BB8
:1088800044D09847039904AA08312046FFF71EFFF9
:108890000822394604A804F0CDFE002838D1039DF3
:1088A0001835039B5A681388FE2B01D801331380B7
:1088B000039B1B789BB1D4F809302178180E1A025B
:1088C00040EA036002F47F021B0A104303F47F4373
:1088D00001F001021843C1F34001FCF7A5FE039823
:1088E000D0F83890B9F1000F09D02378D4F80920D6
:1088F00003F001010091C3F340032946C8470DF17D
:108900000B0203A93046FCF725FAACE700DEB9E715
:108910009DF80B30002BF2D0039904AA2031204699
:10892000FFF7D4FE0822394604A804F083FE00288D
:10893000E5D1039D3035B4E74C6000204278034B0D
:108940009420133900FB023000F016BB303E0020AB
:108950004278034B9420133900FB023000F0D0BA68
:10896000303E002070B50C4B16464A7804460D4642
:10897000811C942000FB023000F078FA50B10660B0
:108980006A78064B53F82230037101342A2383742A
:108990004474133070BD00BF303E0020283E0020DC
:1089A00013B501238DF80430074BC01A074B801014
:1089B000584314468DF805000A4601A82146FFF7E2
:1089C00097FC02B010BD00BF303E0020AD1B4C91A3
:1089D00070B50F4C0F4E104A104901254FF48073AB
:1089E0002046356000F02EFB2046943400F028FA33
:1089F0000021204680230A4A756000F023FB2046B0
:108A000000F01EFA28460749BDE87040FFF778BC21
:108A1000303E0020283E0020583F0020A18902005F
:108A20005840002080E30200012810B5044604D914
:108A30007846054B1B6823B19847044B13F8240074
:108A400010BD00DEF9E700BF4C600020283E00208A
:108A5000012810B5044604D97846084B1B6853B169
:108A60009847074B942202FB04344FF47A73A06EAC
:108A7000B0FBF3F010BD00DEF3E700BF4C60002058
:108A8000303E002070B5064618B343680BB34378F8
:108A9000073BDBB2F72B1ED9104B00781C6810B1D6
:108AA00000F090F807E00546E8B2013500F08AF8DA
:108AB000B5F5807FF8D106F108010848FEF74EFBB6
:108AC0002CB9204600F08EF8012000F06DF800204F
:108AD00070BD0E2070BD072070BD00BFD8400020C3
:108AE0002DE9F047DFF85890074698460C468E1857
:108AF000B44201D3BDE8F087D9F8005004F1020A6E
:108B00004DB161782A4612F8083C994207D033B13A
:108B10001268002AF7D1227801321444E8E7082AC3
:108B2000F9D012F8073C1568BB4201D0FF2BE7D102
:108B3000217852F8043C0139424650469847DFE715
:108B4000D8400020F0B5174A417D137B0639C9B2E1
:108B500000274FF0010E8F4203DBB3FA83F0400988
:108B600017E0C419657FA47F660902EB860604F04E
:108B70001F0436690EFA04F434420FD0C91B8D422B
:108B800004DB136B013313630120F0BD181C18BF05
:108B9000012010B1536B01335363F0BD01352F44F5
:108BA000D9E700BFDC40002020B10448044B03603B
:108BB00000F01EBD014800F039BD00BFDC400020C0
:108BC000458B02004109064A012300F01F0003FA09
:108BD00000F052F82130034342F82130704700BFC3
:108BE000EC400020012810B5044604D97846044B17
:108BF0001B681BB19847034B1C7310BD00DEFAE7DE
:108C00004C600020DC40002010B5037813F0FC0F0E
:108C1000044604D07846084B1B6853B19847237824
:108C200003F0FE03022B02BFA37963F03F03A3719D
:108C300010BD00DEF3E700BF4C60002010B5044615
:108C400020B978460B4B1B6883B19847636F23B9F3
:108C50007846084B1B685BB19847636FD4F8902047
:108C6000D4F88C102046BDE81040184700DEEDE730
:108C700000DEF2E74C60002038B550F81C2C137968
:108C8000013BDBB2FD2B04460DD9436D5BB113688C
:108C9000C36601675830FDF78BFD20B178460E4B57
:108CA0001B68B3B1984754F81C1C0B799BB904F1AD
:108CB0003405284644F81C3C043902F0ABFE284633
:108CC00002F068FE38B904F11C00BDE83840FDF739
:108CD0001BB800DEE7E738BD4C60002038B505461C
:108CE00007480C46FDF714FAB0FBF4F101FB14043D
:108CF000FDF7C6F821182846BDE83840FDF736B81C
:108D000014410020F7B50B780C46002B00F08C8046
:108D100091F83830F3B94B6FB3B9002604F154051C
:108D20006368002B2ED01B79FF2B3ED1284602F022
:108D300045FE63681B7928BB23B394F87030002B81
:108D400051D00546394F49E001F17800FDF75CFD4F
:108D50000028E2D094F83C30A56E062B05D078466A
:108D6000334B1B68002B5DD098473048FDF7D0F996
:108D700042F21073B0FBF3F202FB13002844A0642C
:108D800003B0F0BD616821B10439284602F042FE0B
:108D9000666001A9284602F0D1FD0028F0D1019BB0
:108DA0001A1D0C3362602362BAE70020C1E738461F
:108DB000FDF7AEF994F86F30B0FBF3F202FB13034A
:108DC000DAB2B24209D02644234496F86C2093F8D4
:108DD0006C1086F86C1083F86C20013594F86F30B5
:108DE000EEB2B342E3D865682B798BB12B79FF2BB8
:108DF0001CBF03F1FF332B7104F1080000F0B8FB36
:108E00000028A7D078460A4B1B684BB19847A1E7CA
:108E10007846074B1B680BB19847E7E700DEE5E7AC
:108E200000DE97E700DEA0E78B64A9E7144100208D
:108E30004C6000200148FDF7A5B900BF1441002097
:108E400010B5037804467BB901230370436833B13E
:108E5000A16E04F13C00BDE81040FFF73FBF543065
:108E600002F098FD0028F3D110BD00002DE9F34178
:108E70000D46074620B97846204B1B6873B39847C8
:108E80001F2D04D978461D4B1B684BB3984705F13D
:108E9000110292B201A907F1540002F03FFC804692
:108EA00000BB019E337B022262F30303063533735A
:108EB000757397F86030327B5B0863F38612327308
:108EC00007F16101062206F10F0004F0C2FB341D18
:108ED000C6F80480204602B0BDE8F08100DECFE78E
:108EE00000DED4E7042804D07846044B1C6814B193
:108EF000A0470024EEE700DEECE700BF4C60002056
:108F000038B505460C4601B120B97846194B1B68A7
:108F100053B39847237923B97846164B1B682BB374
:108F20009847237A03F0CF036FF3C71323722146C8
:108F30000023A37231F8042D05F1540002F07CFCEB
:108F40002B78ABB195F83C303BB195F83C30042B15
:108F500003D095F83C30052B0AD1A96E05F13C00F1
:108F6000BDE83840FFF7BABE00DED3E700DED8E741
:108F700038BD00BF4C60002038B504460D4601B135
:108F800020B97846064B1B683BB19847291F04F16E
:108F90005400BDE8384002F03DBD00DEF6E700BFFA
:108FA0004C60002038B50D46044620B97846164B73
:108FB0001B6843B19847132D07D87846124B1B689E
:108FC000B3B1984704E000DEF5E7B5F5205FF4D8CB
:108FD0004FF47A7194F83C306943A1669BB194F8E0
:108FE0003C30042B0FD094F83C30052B08D138BD11
:108FF00000DEEDE704F13C00BDE83840FFF76EBE4F
:109000002378002BF6D138BD4C60002010B54FF00E
:1090100080530446D3F8A0200378094912F00102D6
:1090200014BF62F347036FF3470303700622013056
:1090300004F00FFB2046BDE81040FFF7E5BD00BF80
:10904000A4000010F8B50D4616461F46044600B1B0
:109050002AB97846254B1B68002B42D098470A2F27
:1090600005D87846214B1B68002B3CD09847BAB2F4
:10907000314604F1540002F0E1FA04F16000FFF718
:10908000C5FF44F620630322A3662623252184F826
:109090006D3084F86F20272384F8262084F834204C
:1090A000134A84F86C1084F86E30124884F8251046
:1090B000002304F16C01E2620F4A84F87030A06270
:1090C00084F824302163236265676264E46423705A
:1090D0005DB1224604F178000849BDE8F840FDF78B
:1090E00045BB00DEBBE700DEC1E7F8BD4C600020F9
:1090F000798C0200D6BE898E058D02003D8C02005F
:1091000070B5FDF7E1F900284BD1264803F028FBA4
:109110000546002835D00468FDF7EEF9002C34D060
:10912000A3686433984230D91F4E33781BB100F0E6
:1091300065FC002333701B4803F0F8FA854204D025
:1091400078461A4B1B68F3B198470023236101202E
:10915000FDF702FA164D174B2C604FF0FF32C3F8A3
:109160000823154B0222C3F88021FCF789FE2B68E7
:1091700012499A6802440A60BDE870401A68D968CA
:1091800010470446C8E700DEDFE7B0F5FA7F08D9EC
:10919000054B1A782AB901221A70BDE8704000F018
:1091A00019BC70BD24410020304100204C600020DB
:1091B000344100200010004000E100E02C4100207C
:1091C00008B5064803F07EFA054A00231360054AF5
:1091D0001370054B01221A7008BD00BF2441002006
:1091E00034410020304100203141002010B5054BB2
:1091F0001A782AB100241C70FDF794F9204610BD9E
:10920000082010BD3141002010B5044628B9784629
:109210001D4B1B68002B2DD0984723682BB978462F
:10922000194B1B68002B27D09847A36823B97846B1
:10923000154B1B6813B39847A268144B9A4204D984
:109240007846114B1B68DBB1984723699C4219D0C3
:109250000F48246104F1100103F044FA0D4B1B7810
:1092600003F0FF0023B90C4B1C6814B9FDF75AF941
:10927000002010BD00DED0E700DED6E700DEDBE731
:1092800000DEE2E7082010BD4C600020A08601004F
:1092900024410020314100203441002010B5194CF8
:1092A000226822B97846184B1B6803B39847FDF72C
:1092B00033F920B97846144B1B68D3B19847FCF7B3
:1092C000DFFD124B1B68C01A002804DB78460E4BEA
:1092D0001B6883B198470020FDF73EF90023236007
:1092E0000B4B1B784BB1BDE81040FDF72DB900DEEC
:1092F000DDE700DEE3E700DEEDE7BDE81040FFF765
:10930000FFBE00BF344100204C6000202C410020F3
:109310003141002010B5FDF7FFF820B97846134B16
:109320001B6883B19847124C226882B1536823B9F5
:1093300078460E4B1B6843B198472368BDE8104040
:109340005A68D868104700DEEDE700DEF5E7094B04
:109350001B7823B97846054B1B6823B19847BDE8B5
:10936000104000F053BB00DEF9E700BF4C60002066
:10937000344100203041002008B5FDF7CDF820B978
:109380007846074B1B683BB19847064B1B682BB9C7
:10939000BDE80840FFF7B4BE00DEF6E708BD00BF39
:1093A0004C6000203441002008B5FDF7B5F820B925
:1093B00078460B4B1B687BB198470A4B1B6823B15F
:1093C0007846074B1B684BB19847074B02221A603F
:1093D000BDE80840FFF794BE00DEEEE700DEF4E7EC
:1093E0004C6000203441002000E100E010B5FDF7A2
:1093F00093F820B978460C4B1B6883B198470B4B08
:109400001B6823B17846084B1B6853B19847084C3A
:1094100023781BB100F0F2FA0023237010BD00DEA8
:10942000EDE700DEF3E700BF4C6000203441002090
:109430003041002070B5274CD4F81031054623B9CF
:109440007846254B1B6853B39847244A0023C4F839
:10945000103113780133DBB2137095F82C2093424E
:1094600021D9FDF743F81E4BD3F848650644FCF7B5
:1094700007FD6B6A0446314605F118009847FCF772
:10948000FFFC001B502804D47846134B1B6843B1E3
:109490009847FFF703FF002385F8303070BD00DEEA
:1094A000D3E700DEF5E70ED2AA6AD05C00F008F937
:1094B000084BD3F810315BB17846074B1B6833B1CA
:1094C000BDE8704018470323C4F80032F0E700DE1F
:1094D00070BD00BF001000404C60002038410020EB
:1094E000008000401E4B1F4A10B5C3F8602502F5EE
:1094F000DE424432C3F864254FF480620C46C3F860
:10950000042500F0C3F804F11C0000F0F3F800217A
:10951000206A00F041F9A36A187800F0D1F8124BE4
:10952000124AA06901211170C3F804050020C3F894
:1095300010011020C3F80403196094F82C100129BD
:1095400009D90721C3F800121378A26ABDE81040B8
:10955000D05C00F0B5B80322C3F8002210BD00BFF4
:1095600000F001400411004000100040384100208C
:1095700010B5436A044623B97846194B1B684BB3B0
:10958000984794F83030002B28D1164B2360164BA7
:109590006360A369A17F587894F82C20E4600429C3
:1095A00000F10C0308BF00F10D031048415C4B4370
:1095B000923353439833A360012384F8303020461C
:1095C000FFF722FE58B17846054B1B6823B1984738
:1095D000002010BD00DED4E700DEF9E7112010BD49
:1095E0004C600020E5940200359402008CE30200F8
:1095F00010B5044620B978460A4B1B6873B19847EA
:10960000236823B97846074B1B684BB1984704F190
:1096100008010548BDE81040FDF7A0BD00DEEFE7FA
:1096200000DEF4E74C6000204041002010B5044605
:1096300020B97846064B1B683BB1984704F10801F6
:109640000448BDE81040FDF7B9BD00DEF6E700BFF5
:109650004C6000204041002038B50A4B1C6805468C
:109660002CB9094A136801331360204638BD54F8F9
:10967000083C54F8041C284698470028F6D1246872
:10968000EEE700BF404100203C4100200A4B002291
:10969000C3F8FC2F0122C3F8FC2F40F25B62C3F831
:1096A000382540F20312C3F83425044AC3F83C2598
:1096B0009622C3F8442570470010004055555500C8
:1096C000272810B5044604D97846074B1B6843B1D8
:1096D0009847064B1A5D064BC3F80825C3F8544556
:1096E00010BD00DEF5E700BF4C60002092E30200F1
:1096F0000010004010B5044628B97846244B1B687A
:10970000002B3ED09847A378052B05D97846204BEF
:109710001B68002B37D0984763782BB978461C4BD1
:109720001B68002B31D098471A4B2278C3F80C25C0
:10973000A278C3F81025627842F0007242F44032F9
:10974000C3F818256278252A8CBF08210621C1F1AB
:109750000802120402F4702241F480710A43C3F833
:109760001425D3F8142542F48012C3F81425A278E6
:10977000042A02BFD3F8142542F08072C3F81425DE
:1097800010BD00DEBFE700DEC6E700DECCE700BFAD
:109790004C6000200010004070B5174BD3F818350E
:1097A000C3F30243032B04460D4604D07846134B03
:1097B0001B6853B1984755B1012D10D078460F4B17
:1097C0001B68B3B1BDE87040184700DEF3E70A4BF1
:1097D000220E2402C3F82425C3F81C4570BD230CB7
:1097E000054A03F47F432402C2F82435C2F8204519
:1097F00070BD00DE70BD00BF001000404C60002056
:10980000EFF3108372B6054A52781AB1044A022166
:10981000C2F8001103B962B6704700BF444100208E
:1098200000E100E0024B00221A71FFF7E9BF00BF20
:1098300044410020074B5A7993F827100132D2B2E5
:1098400091425A719CBF00225A7102221A71FFF78D
:10985000D7BF00BF44410020F8B5194D194EFFF79E
:1098600015FF00241848FFF745FF0127C5F83045CC
:1098700056F8040F48B12146FFF78EFFD5F8302582
:1098800007FA04F31343C5F830350134082CEFD13F
:109890000B4B1122C3F80443C3F800220022C3F883
:1098A000042103F5F033094AC3F8602502F5DE42CE
:1098B0004432C3F864254FF48062C3F80425F8BD30
:1098C00000100040684100205C410020041100406D
:1098D00010B50F4CA36823B178460E4B1B68ABB193
:1098E00098470D493C2201F1740001F017FF031E57
:1098F00001BFA26809491832C1F804250CBF012034
:109900000020003318BF0123A37010BD00DEE8E77C
:10991000444100204C6000204C41002000100040D9
:1099200010B50F4BD3F8503523B178460D4B1B685B
:10993000A3B198470C4C6379234493F82400FFF7B4
:10994000BFFEE3781BB1FFF787FF0023E370FFF74B
:10995000BFFF10B1024B01225A6010BD00DEE9E7E3
:10996000001000404C6000204441002070B5094CBC
:10997000094D012200262261C4F80C61A96821B1B9
:1099800005F17C0002F046F8AE60D4F85035002BAB
:10999000FBD170BD001000404441002010B5FCF721
:1099A0006FFA04460948C169036A8B4208D16030E6
:1099B000FCF7AAF921460648BDE81040FCF7D6B9E5
:1099C00021446030FCF7D2F9F4E700BF44410020A5
:1099D0008C41002010B5084C012363700023E37014
:1099E000FFF73AFF2378022B05D123791BB1BDE89D
:1099F0001040FFF795BF10BD44410020024B0022EC
:109A00005A70FFF7B3BF00BF4441002070B5494B07
:109A1000494CD3F80C21002A7ED00022C3F80C2137
:109A2000D3F80C21D3F80024A5683AB9236901338F
:109A300023612946414801F0EDFF6BE0697E627EBB
:109A400091422DD9636901336361F2E7394BD3F851
:109A50005035032B65D8DFE803F00C170217257982
:109A6000012D0AD016D3022D5BD1FFF77FFF012312
:109A70002371BDE87040FFF753BFFFF729FF0028AF
:109A800057D02C4B9D6070BD2379012B51D001D351
:109A9000022BE9E7BDE87040FFF768BF00DE70BD4C
:109AA000D3F8482552426A73D3F808240A322E4666
:109AB00054F82220AA60D3F8543503F03F032B73E7
:109AC000FCF714FD1E4BD3F84835184446F8040F34
:109AD000062205F11B0105F10F0003F0BAFD2B7EF4
