:020000022000DC
:1060000000FD0320D16E0300F96E0300FB6E030058
:10601000FD6E0300FF6E0300016F0300000000002F
:10602000000000000000000000000000036F0300FB
:10603000056F030000000000076F0300096F0300F5
:106040000B6F03000B6F03000B6F03000B6F03005C
:106050000B6F03000B6F03005D6F02000B6F0300FB
:106060000B6F03000B6F0300C56D02000B6F030085
:106070000B6F03000B6F03000B6F03000B6F03002C
:106080000B6F03000B6F0300F9AF02000B6F0300EF
:106090000B6F03000B6F0300ED7A02000B6F030020
:1060A0000B6F03000B6F03000B6F03000B6F0300FC
:1060B0000B6F03000B6F03000000000000000000E6
:1060C0000B6F03000B6F03000B6F03000B6F0300DC
:1060D0000B6F03000B6F03000B6F03000B6F0300CC
:1060E0000B6F03000B6F03000B6F03000000000039
:1060F000000000000B6F0300000000000B6F0300A6
:10610000000000000000000000000000000000008F
:10611000000000000000000000000000000000007F
:10612000000000000000000000000000000000006F
:10613000000000000000000000000000000000005F
:10614000000000000000000000000000000000004F
:10615000000000000000000000000000000000003F
:10616000000000000000000000000000000000002F
:10617000000000000000000000000000000000001F
:10618000000000000000000000000000000000000F
:1061900000000000000000000000000000000000FF
:1061A00000000000000000000000000000000000EF
:1061B00000000000000000000000000000000000DF
:1061C00000000000000000000000000000000000CF
:1061D00000000000000000000000000000000000BF
:1061E00000000000000000000000000000000000AF
:1061F000000000000000000000000000000000009F
:1062000010B5054C237833B9044B13B10448AFF3F0
:1062100000800123237010BDF8330020000000002F
:10622000789A03000C4B43B10C480D4910B5AFF3FD
:1062300000800C48036823B910BD0A48036833B9CD
:106240007047094B002BF7D0BDE810401847064BAC
:10625000002BF5D0184700BF00000000789A03001B
:10626000FC330020F033002000000000154B002B11
:1062700008BF134B9D46A3F5803A00218B460F467D
:106280001348144A121A12F035FA0F4B002B00D0A3
:1062900098470E4B002B00D09847002000210400A7
:1062A0000D000D48002802D00C48AFF3008012F01A
:1062B000D3F92000290000F0AFFA12F0B9F900BFBD
:1062C0000000080000FD03200000000000000000A6
:1062D000F833002094660020000000000000000059
:1062E00041DF70477ADF70477CDF704703F07EBE86
:1062F0001FB52D4C2268520417D52C4B1B68032B5D
:1063000013DD2F212A4812F0C9FA00283AD02F2194
:10631000274812F0C3FA411C264B274AD3F804350C
:1063200000920420752205F05BFD03A80DF03AFFF2
:1063300023685B0419D51D4B1B68032B15DD2F212A
:106340001B4812F0ABFA30B32F21194812F0A6FA0D
:10635000411C184BBDF80C20D3F804350192174AA4
:1063600000920420792205F03BFD00214FF4F0302B
:1063700000F085FD0422C8214FF4F03000F088FDC4
:1063800004B010BD5C210A4812F088FA08B15C2103
:10639000BEE70749C0E75C21054812F07FFA08B163
:1063A0005C21D2E70249D4E75C3300205833002057
:1063B000548A030000B00040858A03009F8A0300CE
:1063C0002DE9FF41624D2B685904044617D5614BF6
:1063D0001B68032B13DD2F215F4812F05FFA48B3CF
:1063E0002F215D4812F05AFA411C5C4B5C4AD3F8ED
:1063F000043500920194B722042005F0F1FCDFF887
:106400006C81002647460DF10E0138F806000CF0AD
:1064100087FE00287FD1BDF80E204FF6FF739A4209
:1064200079D01036402EEED1032C23D8DFE804F0CB
:106430000B0B25255C21484812F030FA08B15C218D
:10644000CFE74549D1E704F10D0000F001FD80F0F0
:106450000101C9B207EB041009F0CEFA0446082C7A
:1064600023D12B685A042CD4062232214FF4F03069
:1064700000F00EFD04B0BDE8F08104F10D063046D9
:1064800000F0E6FC80F001010222C9B207EB041023
:1064900009F0EEFA0446304600F0DAFC80F0010123
:1064A000C9B2304600F0E0FCD9E7042CD9D0112C59
:1064B000D7D0002CDED0284ADB21204610F026FD64
:1064C000D8E7244B1B68032BCEDD2F21224812F086
:1064D000E5F970B12F21204812F0E0F9411C1F4B63
:1064E000204AD3F8043500920420D62205F078FC27
:1064F000BAE75C21184812F0D1F908B15C21EAE74B
:106500001549ECE75C21144812F0C8F908B15C2188
:106510000FE0114911E02B685B04ABD50D4B1B68F4
:10652000032BA7DD2F210C4812F0B8F90028E9D081
:106530002F21094812F0B2F9411C084B0A4AD3F83E
:10654000043500920420E02205F04AFC92E700BFE7
:106550005C33002058330020548A030000B0004010
:106560001C8903002F8903004D8903001434002087
:106570003038032801D8FFF723BF70472DE9F341D6
:10658000224B1B685B0416D5214B1B68032B12DDC5
:106590002F21204812F082F978B32F211D4812F0E4
:1065A0007DF9411C1C4B1D4AD3F804350092042090
:1065B000EF2205F015FC1A4C1A4FDFF86C80154ECF
:1065C0000125A9B220466760C4F8088009F0F4F9F3
:1065D00018B13246F52110F099FC20880CF044FEE9
:1065E00018B13246F62110F091FC0135052D04F169
:1065F0001004E6D102B0BDE8F0815C21054812F03C
:106600004DF908B15C21C9E70249CBE75C330020B2
:1066100058330020548A030000B00040348A03003D
:10662000143400202D660200B5670200F7B53A4C1D
:10663000041B24111D2C0D4602D9784601F01EFCC6
:10664000364F3A6852045BD5354E3268002A5DDD1C
:106650002F21344812F022F9D8B12F21314812F0FD
:106660001DF9411C304B314AD3F80435009201200A
:106670008F2205F0B5FB012D1CD013D3022D1BD1A9
:10668000062232214FF4F03003B0BDE8F04000F0B4
:10669000FFBB5C21234812F001F908B15C21DDE762
:1066A0002049DFE7012104F10D0003B0BDE8F0400F
:1066B00000F0DABB0021F6E73B685B0415D53368D0
:1066C000002B12DD2F21174812F0E8F878B12F21A6
:1066D000144812F0E3F8411C134B154AD3F8043563
:1066E00000920120A02205F07BFB03B0F0BD5C21ED
:1066F0000C4812F0D3F808B15C21E9E70949EBE74F
:10670000012DD7D0CED3022DBAD0EEE7012DD1D0B6
:10671000C8D3022DB4D0D2E7143400205C3300205B
:1067200058330020548A030000B000408B890300D6
:10673000A489030007B503781C2B2ED1184B1B68C6
:106740005B0416D5174B1B68032B12DD2F2116484F
:1067500012F0A4F8C0B12F21134812F09FF8411C89
:10676000124B134AD3F8043500920420A72205F0F7
:1067700037FB0322C8214FF4F03000F089FB03B04F
:106780005DF804EB00F03EBA5C21074812F086F891
:1067900008B15C21E0E70449E2E703B05DF804FBDF
:1067A0005C33002058330020548A030000B00040BE
:1067B000B589030007B5134B1B685B0416D5124B54
:1067C0001B68002B12DD2F21104812F067F880B1F2
:1067D0002F210E4812F062F8411C0D4B0D4AD3F8E0
:1067E000043500920120882205F0FAFA03B05DF822
:1067F00004FB5C21054812F051F808B15C21E8E780
:106800000249EAE75C33002058330020548A030031
:1068100000B000406F89030080B59A4E9A4A90B04C
:10682000042104AF4FF4C04005F0C0FA33685A04A5
:1068300019D5964B1B68032B15DD2F21944812F0B8
:106840002DF8002800F00C812F21914812F026F835
:10685000411C904B904AD3F80435009204204FF429
:10686000917205F0BDFA00F035FB8C4800F04EFB4C
:1068700020B1874A4FF4937110F048FB01F0B6F84D
:1068800008B100F0C5FD07F13004002344F8283DAD
:106890000120214601F07AF908B100F0B9FD204647
:1068A00001F0DEF908B100F0B3FD3B797C4801222C
:1068B00062F3030307F1300462F3071304F82C3D7D
:1068C00011F0E4FF764982B22046FFF70DFD08B1D2
:1068D00000F09EFD0822002107F10C0011F00AFFD4
:1068E000C823BB814FF44873FB8100233B8207F12F
:1068F0000C004FF4C8737B82FFF7F4FC08B100F082
:1069000087FD0021242207F10C0011F0F3FE012382
:106910003B730723FB733B75624BBB61624BFB61AF
:106920006249634BFB6207F10C0000F021F920B1D2
:10693000574A4FF4827110F0E9FAEFF3108E72B6F5
:106940005C4CA168012581B95B4BA560D3F8802020
:106950005A4802402260C3F88000D3F88420626065
:106960004FF0FF32C3F884200D46BEF1000F00D176
:1069700062B66421524800F03DFA00F039F920B1C6
:10698000434A40F23B1110F0C1FA484B1B7873B9EF
:106990003B614C4BFB6007F10C004B4B7B6100F003
:1069A000C7F920B13A4A40F2451110F0AFFA01F0B0
:1069B00093FA33685B0437D5344B1B68032B33DD04
:1069C000424BE8468AB0196804AE0023C25C4FEA25
:1069D000121E02F00F0211F80EE006F813E011F893
:1069E00002E006EB43020133102B82F801E0EDD107
:1069F000002386F820302F21254811F04FFF002872
:106A000037D02F21224811F049FF411C214B304A39
:106A1000D3F8043501922F4A0092029640F24912AF
:106A2000042005F0DDF9C54600214FF4F03000F0F8
:106A300026FA0222C8214FF4F03000F029FAA368A8
:106A40005BB155B9EFF3108372B61B4A2168116030
:106A500061685160A56003B962B6FFF741FCFCE7CD
:106A60005C210B4811F01AFF08B15C21EDE60849E2
:106A7000EFE65C21064811F011FF08B15C21C1E787
:106A80000349C3E75C33002081BD02005833002076
:106A9000548A030000B00040DE890300C163020095
:106AA0000D8A0300CE8903003567020054340020AC
:106AB0007D650200E865002000E100E0FC06FFBD06
:106AC00071650200F1620200B68A030060330020A3
:106AD0001F8A03002C8A030030B5837DC27D85B0F8
:106AE00043EA02230446ADF80C3003A805230D4603
:106AF000ADF80E300DF01EFB10BB02AA2146208A15
:106B00000DF034FDE0B90DF10A032A46BDF8081076
:106B1000E08A0DF0E3FE98B9217ED4F8120001F06E
:106B2000010103F003F810B1784601F0A7F9BDF8B0
:106B30000A000BF04FFA18B901900CF0CBF901984C
:106B400005B030BD08B50CF0C6F90DF0A3FABDE8EC
:106B5000084002F04BBE07B501A80DF023FBBDF8BD
:106B60000400003018BF012003B05DF804FB0000F2
:106B7000F7B50F46002834D004460FCC1A4E3546E0
:106B80000FC50FCC0FC5304623682B6003F056F9B4
:106B9000044618BB0DF0C4FA0CF0A4F930690BF0F0
:106BA000E7F90446D0B9337F0193B36900930146F6
:106BB00073690E4859220BF029FC044670B9336AF8
:106BC00003B198470DF064FA0CF082F9FFF7C3FFA8
:106BD000054608B108F010FD07B13D70204603B02E
:106BE000F0BD0E24FAE700BFB43400205834002072
:106BF00008B5FFF7B0FF08B108F090FDBDE8084008
:106C000003F082B9002003F039BA000003490448B8
:106C10004968032300220EF052BD00BFDC3400207F
:106C20001C37002030B5234C217885B019B10128DC
:106C300003D0032836D005B030BD04AD002345F89D
:106C4000083D294600F0A2FF08B100F0E1FB28460C
:106C500001F006F808B100F0DBFB03F055F908B1CC
:106C600000F0D6FB04A9012341F8043D0DF1060014
:106C70000DF016FE08B100F0CBFBBDF806000DF0DC
:106C800003FC0DF105010DF0FDFC08B100F0C0FBA7
:106C900008F0B2FC9DF80510002008F053FD002319
:106CA0002370C8E700F0A2FE0028C4D000F0B0FBBB
:106CB000C1E700BFD934002008B50378052B1DD0EB
:106CC000082B22D0022B2AD1154B1B781BB9BDE80B
:106CD0000840FFF79BBF134B1B6803B39847124B49
:106CE00001221A7003F02EF908B100F091FB00F0B8
:106CF000B9FEA0B1BDE8084000F08ABB094B0B48C3
:106D0000996810220EF01FFDF3E78168C068FFF755
:106D1000E3FE08B100F07CFB014B01221A7008BDB4
:106D2000D8340020DC340020D93400201C37002067
:106D300010B51C4A04465168106886B003AB03C303
:106D40001189927A19809A7094E80700164B83E8AB
:106D500007002AB3154916480EF098FCF0B9154BF8
:106D60000093124A1249144803AB0EF061FCA8B913
:106D700012480FF0A7FB01460F480EF073FC68B9EC
:106D80000F4800F005FB48B90D4800F037FB0146FD
:106D900009480EF067FC08B9FFF738FF06B010BDD0
:106DA0000720FBE7C68A0300DC340020E83400201B
:106DB00050380020B96C02001C3700200835002034
:106DC000CC36002038B5094CD4F8402162B1084DCA
:106DD0002A6832B110F0CCF9002802DB2B68984702
:106DE000F8E70023C4F8403138BD00BF00A00040E0
:106DF00090380020134B10B5134C18600023C4F8D2
:106E0000043547F61220C4F808350923C4F81035B4
:106E10004FF47A720023A1FB000111F081FA0123E3
:106E20004FF48032C4F84005C4F80032C4F804239B
:106E30002360064BE02283F80A234FF480621A6035
:106E400010BD00BF9038002000A0004000E100E02D
:106E50004FF0A043D3F80425012303FA00F01042B9
:106E60000CBF18460020704701234FF0A04283401A
:106E700011B1C2F80C357047C2F8083570474FF0B1
:106E8000A04311B1C3F80C057047C3F8080570475B
:106E90002DE9F0470E4D81460F464FEA420A002485
:106EA0004FF0A04845F00105544501D1BDE8F087F9
:106EB000D8F8043583EA0903C8F804350FB901345A
:106EC000F2E73E464FF47A40A847013EFAD1F6E792
:106ED000E08A03004FF0A04303224FF40051C3F8AF
:106EE0003427C3F808154FF48041C3F83827C3F896
:106EF00008154FF40041C3F83C27C3F80815C3F840
:106F000040274FF48032C3F808257047D8B10F4BA3
:106F10000F4A18604FF0A0430020C3F82C27C3F895
:106F20003027C3F86027C3F864270A4B4FF00042AC
:106F3000C3F80423C3F87C01074BE02283F806233F
:106F400040221A6070470E20704700BF943800201E
:106F50000C0003000060004000E100E0124B70B53F
:106F60000024124E124DC3F87C414FF0A043A15DA6
:106F7000D3F8102501238B40934311D00D492B6882
:106F8000D1F80425981A48BFD01A43F233339842F7
:106F900006D9D1F804352B60074B20461B6898476B
:106FA0000134042CE1D170BD00600040E68A03008A
:106FB0009838002000B000409438002072DF7047FD
:106FC00073DF704774DF7047F0B52F4CA3B00546F0
:106FD0000E46174600211022204611F08BFB2B484D
:106FE0002B4A03782B49C3EB431E7244013371448F
:106FF00003F00103A2601F2203702160A280A2811E
:1070000000213C2204A811F075FB062301AA8DF88B
:1070100013300E9201233C22002113A88DF8023078
:10702000ADF820308DF83C30ADF80050CDF824D0CC
:10703000ADF80450ADF80870039611F05BFB022325
:10704000221D21688DF84C3004A800F09DFA08B18B
:1070500000F0DEF9104AA16813A800F095FA08B113
:1070600000F0D6F90D4A08490D48FFF7A7FF082898
:1070700004D1002204490A48FFF7A0FF08B100F03C
:10708000C7F923B0F0BD00BFDC3800209C380020D9
:10709000EC3800209D380020E8380020CC32002059
:1070A000C8320020034B00EB8000400098819960BB
:1070B000704700BFCC32002008B5054B012118787D
:1070C000FFF77EFF18B1BDE8084000F0A1B908BD88
:1070D000C832002008B5054B1878FFF773FF18B1C8
:1070E000BDE8084000F094B908BD00BFC8320020D8
:1070F000024B53F820300846184700BF588B030056
:10710000887BC31E5842584170470068836C3C30EE
:107110009B6818470068836C3C305B6818470246E0
:107120000179006805F078BF1FB5084601230A21E0
:1071300001AA8DF8081001908DF8093005F06CFF58
:1071400005B05DF804FB7FB504460E4615460021E8
:107150000C2201A811F0CEFAA4F13C0001AA0621EC
:1071600001900296ADF80C5005F056FF002004B0D7
:1071700070BD30B5044685B00D461022002168462A
:1071800011F0B8FA23780095052B31D8DFE803F029
:107190000A18031E242A6A460221284605F03CFFED
:1071A00005B030BDA3680293A389ADF80C306378B5
:1071B000ADF8043023798DF80E306A460821ECE7EB
:1071C0006378ADF804306A460721E6E76378ADF8E6
:1071D00004306A460321E0E76378ADF804306A467C
:1071E0000521DAE76378ADF804306A460421D4E774
:1071F000784600F043FED3E7FFF76CBF10B5036895
:1072000082685A6286B0044600F066FE102201468B
:1072100001A811F064FAE388ADF8143020210020B1
:10722000FFF740FF122201A941F62700FFF7CCFE2D
:10723000FFF742FF06B010BD10B5044603F0D6F9C3
:10724000616A014404F10C00BDE8104003F04AB942
:107250000068FFF7F1BF70B5046805462046FFF7E8
:10726000EBFFA36CAA89A9681B6804F13C00BDE888
:107270007040184738B50446006822890089002309
:10728000032107F089F9054610B9784600F0F6FDAC
:1072900061682289284611F022FA23682946188954
:1072A00007F094FA10B1784600F0E8FD2068BDE8D8
:1072B0003840FFF7C1BF10B5044600680C3003F03A
:1072C000E5F82068836C0221DB683C30BDE81040A3
:1072D000184708B50368188907F0C0F920B1784647
:1072E000BDE8084000F0CABD08BD000010B5084C5C
:1072F000206805F0E7FE28B12068BDE8104028307E
:1073000003F0DCBD2046BDE81040FFF708BF00BF1A
:107310002C39002038B5074C05460C2220460021A8
:1073200011F0E8F93C3D092323712560BDE83840A0
:10733000FFF7DCBF2C39002038B5074C0C220021A8
:107340000546204611F0D6F93C3D01232371256006
:10735000FFF7CCFF002038BD2C3900202DE9F0418B
:107360000A4C05461F46904600210C220026204666
:107370003C3D11F0BFF926712560A4F80680A76096
:10738000FFF7B4FF3046BDE8F08100BF2C39002084
:1073900013B5044628B3144905F0D8FD182200217E
:1073A00004F10C0011F0A6F9104B6361104A114969
:1073B000E46104F1280003F069FD41F62703ADF80C
:1073C000003042F6DB23ADF80430684642F6DC2399
:1073D00022460949ADF8023007F034F8002002B027
:1073E00010BD0E20FBE700BFEC8A030029710200EC
:1073F0002C3900201F71020073710200034B43649B
:10740000022380F840303C30704700BF7C8B030083
:107410001FB50021039001AA44F2010001910291DD
:1074200000F02AFC05B05DF804FB000070B5EFF336
:10743000108672B60C4A946801239CB993600B4B7A
:107440000B4DD3F8801029401160C3F88050D3F859
:10745000841051604FF0FF32C3F88420047006B9E5
:1074600062B670BD0370FAE7E865002000E100E055
:10747000FC06FFBD10B5084B9A685AB150B9EFF33E
:10748000108272B605491C680C605C684C6098609C
:1074900002B962B610BD00BFE865002000E100E05F
:1074A0006DDF704779DF70477DDF704764DF7047BD
:1074B0002DE9F74F0C9CBDF834B027880025804695
:1074C0008A4691462E46B8F8002096420BDB35B12D
:1074D0002288013AD21B92B2FF2A39D8DA5500200D
:1074E00003B0BDE8F08FD8F8042052F826000190D0
:1074F00000220DF1030101A8FFF7D8FF0028EFD10A
:107500009DF803204A4521D12288002D14BF002078
:10751000022002EB09010144594519DC3DB9013251
:1075200092B2228003F802A02288013222802288AF
:107530000DF103011A4401A8FFF7B8FF0028CFD1CD
:1075400021889DF803200A44228001250136BAE7EC
:107550000C20C5E72DE9F341089CBDF824501746DF
:107560008DE8300002220646FFF7A2FF48B910223C
:10757000394630460995089402B0BDE8F041FFF75E
:1075800097BF02B0BDE8F0812DE9F04F00231688C7
:10759000138090F82D3085B007460D46144643B34E
:1075A000082E4ED902A8FFF77BFF002840F0FF808D
:1075B00013880822CA54238801339BB21B222380DC
:1075C000CA542088013080B2208006220DF10901C2
:1075D000284411F084F823889DF8082006339BB2D4
:1075E00012F0FE0218BF01222380EA5423880133DF
:1075F0002380BB78FBB123880433B34221D802A88F
:10760000FFF750FF002840F0D28023880322EA547D
:10761000238801339BB219222380EA542388BDF8C2
:10762000082001339BB2E9182380EA54120A4A70F9
:10763000238802332380FA78AAB12388D91CB14267
:1076400001D90C20B3E00221E954238801339BB215
:1076500001212380E95423880B449BB22380EA5400
:1076600023880B4423807A68AAB12388D91CB142AD
:10767000E7D8022192F90020E954238801339BB214
:107680000A212380E954238801339BB22380EA54E2
:107690002388013323803B89002B7CD13B8A53B163
:1076A0008DE850002B460722032107F11000FFF759
:1076B00051FF00287BD13B8B53B18DE850002B4606
:1076C0001522142107F11800FFF744FF00286ED19E
:1076D0003A6A002A6ED1D7F82480B8F1000F2ED074
:1076E000B8F804302188981C8A1C0244B242A8D8F9
:1076F000FE28A6D803336B54238801339BB2FF22A4
:107700002380EA54238801339BB22380B8F80020F9
:10771000EA54E918120A4A702088023080B22080A8
:10772000B8F804205AB1D8F8081000294CD02844E1
:1077300010F0D5FF2388B8F804201344238097F86D
:107740002C30002B7BD1387888B33B88012B3BD081
:1077500021888A1CB2423FF674AF012805D17B789C
:1077600002330B449E42FFF46CAF023E761A04A92A
:10777000B6B221F8086DA818FFF796FEB8B93B78A5
:10778000022B40F09F80BDF80830B34240F2B68033
:10779000ADF808609FE08DE850002B4606220221DC
:1077A00007F10800FFF7D6FE00283FF477AF05B0D9
:1077B000BDE8F08FB4F800E00EF10603B3423FF6E7
:1077C00040AF1188052901D80720F0E76FF4486C15
:1077D00001EB0C039BB24FF27D3C6345F4D9538817
:1077E000052BF1D96FF44860181880B26045EBD9C9
:1077F0004FF6FF70814203D0834201D09942E3D813
:10780000052305F80E30238801339BB21221238013
:10781000E954238801339BB223801188E954E81886
:10782000090A4170238802339BB223805288EA54AC
:10783000E918120A4A702388023323804BE7BB6A97
:10784000002BC1D04FF000094FF00C0A4FF0160B7F
:1078500097F82C305FFA89F293427FF674AFB96AD9
:107860000AFB02F201EB0208B8F80430981CFE286B
:107870003FF6E7AE208803332B54238801339BB2B5
:10788000238005F803B0238801339BB223808A5AF2
:10789000EA54E918120A4A702088023080B2208027
:1078A000B8F804205AB1D8F8081000298CD0284420
:1078B00010F015FF2388B8F804201344238009F141
:1078C0000109C5E7012B7FF463AF7B789E42FFF48B
:1078D0005FAFADF808300821BDF80830FE2B3FF649
:1078E000B0AE22880133AB542288013292B222809A
:1078F000A954228813442380002058E70921EBE78C
:1079000001600B6843604A68934204BF00234360F0
:107910007047436843B1026891680B444360526802
:10792000934204BF00234360704710DF704711DFAC
:107930007047000013B5044609496846FFF7E0FFA9
:10794000019808B902B010BD036841682046984705
:1079500018B16846FFF7DDFFF2E71120F2E700BF3C
:10796000F48C030013B5044607496846FFF7C8FFC7
:10797000019B0BB902B010BD20461A6859689047A8
:107980006846FFF7C6FFF3E70C8D0300064B9A68C5
:1079900022B11A6822F480021A607047034B4FF438
:1079A0008002C3F880207047E865002000E100E015
:1079B0000C4A92F816335B09012B01D9042B08D12C
:1079C00042F20200FFF724BD1A6842F480021A60F6
:1079D0007047054B99680029F6D14FF48003136076
:1079E000704700BF00E100E0E8650020F7B5184FE0
:1079F0003C785CBB174E012520463570FFF79AFF97
:107A0000112820D02046FFF7ADFF134B18680190D6
:107A100002A800F8054DFFF709FD104901A8FFF77E
:107A200084FF0446B0FA80F0400938709DF80300E6
:107A3000FFF720FD3CB90A4B34701C70FFF7B8FF0C
:107A40002846FFF78FFF204603B0F0BD0824FAE771
:107A50003939002038390020EF8C0300797C02008E
:107A60003A390020F7B5154F3B7813B3144E012077
:107A70003070FFF75FFF11284FF000051BD0022088
:107A8000FFF770FF02A800F8015DFFF7CFFCFFF7DA
:107A90004EFF04469DF807003D70FFF7EBFC2CB944
:107AA0003470FFF773FF0320FFF75CFF204603B03D
:107AB000F0BD0824FAE72C46F8E700BF393900206A
:107AC0003839002007B508496846FFF719FF019BC0
:107AD00013B903B05DF804FB58681A68904768460C
:107AE000FFF717FFF3E700BF008D0300FFF7EABFC2
:107AF0004BDF70471FB50D4C01A8FFF7F9FF70B9B8
:107B0000214602A8FFF7FCFE039B002BF4D001984E
:107B10001A685968904702A8FFF7FBFEF4E70528AA
:107B200001D0FFF775FC04B010BD00BF188D030035
:107B300060DF704769DF704761DF704730B5114B18
:107B40001B78A9B0E3B1104D94240DF1020103A8F4
:107B5000ADF80240FFF7F0FF70B9294601A8FFF722
:107B6000CFFE029B002BF0D003A81A6859689047FB
:107B700001A8FFF7CEFEF4E7052801D0FFF748FC87
:107B800029B030BD3B390020248D0300F0B50746F5
:107B900085B00D4600295ED0304B0B600C220021D1
:107BA00001A810F0A7FD012606232A68ADF80830C9
:107BB00001A920208DF804708DF80660FFF7BAFF48
:107BC0000C22002101A810F095FD00242A688DF8F0
:107BD000056001A940208DF806408DF80740FFF7A9
:107BE000A9FF0C22214601A810F084FD45232A6834
:107BF000ADF8063001A923208DF80470FFF79AFF35
:107C00000C22214601A810F075FD2A688DF8044069
:107C100001A93046FFF78EFF0C22214601A810F083
:107C200069FD4FF4B0632A68019301A9A120FFF711
:107C300081FF0C22214601A810F05CFD9DF8043064
:107C40002A68334301A9A0208DF80430FFF772FFA2
:107C5000204605B0F0BD0E20FBE700BFC832002073
:107C600008B5FFF765FF10B9014B01221A7008BD76
:107C70003B3900200620704730B541F2010398429D
:107C800087B00D461446734B00F081801FD8012841
:107C900047D01B685B0460D56F4B1B68002B5CDD15
:107CA0002F216E4810F0FAFD002800F0C7802F2128
:107CB0006A4810F0F3FD411C694B6A4AD3F8043559
:107CC000009201956D22012004F08AF845E044F20B
:107CD0000102904200F0878044F202029042D8D123
:107CE0001B68590439D55C4B1B68002B35DD2F21EF
:107CF0005A4810F0D3FD00286CD02F21574810F0BF
:107D0000CDFD411C564B2288D3F80435039262689E
:107D10000292554A009201955F22012004F060F81A
:107D20001BE01B685B0418D54B4B1B68002B14DD54
:107D30002F214A4810F0B2FD00B32F21474810F020
:107D4000ADFD411C464B494AD3F8043500920294DC
:107D500001955422012004F043F84FF0A0434FF462
:107D6000F032C3F81825C3F80C25EFF3108372B670
:107D70003F4A1378002B6AD107B030BD5C213748E9
:107D800010F08CFD08B15C21D8E73449DAE71B68B4
:107D90005804E2D5304B1B68002BDEDD2F212F4825
:107DA00010F07CFD68B12F212C4810F077FD411CAC
:107DB0002B4B304AD3F80435009202940195572298
:107DC000C8E75C21254810F069FD08B15C21EBE7AC
:107DD0002249EDE75C21214810F060FD08B15C21EB
:107DE0008CE71E498EE71B685A04B6D51A4B1B68F0
:107DF000002BB2DD2F21194810F050FDA8B12F2122
:107E0000164810F04BFD411C154B2268D3F8043581
:107E10000492626803920295A2680192164A009247
:107E20000120692203F0DCFF97E75C210B4810F08A
:107E300035FD08B15C21E3E70849E5E75C21074827
:107E400010F02CFD08B15C2132E7044934E730BF63
:107E50008FE700BF5C33002058330020308D0300D3
:107E600000B00040D48D0300948D0300588D0300B2
:107E700048330020728D0300B38D030007B5002343
:107E8000ADF800300146054B01936A4644F202000A
:107E9000FFF7F2FE03B05DF804FB00BFA2940300FD
:107EA00001461022014810F01ABC00BF3C390020E6
:107EB00010B5064C06490822204610F010FC082296
:107EC000A0180449BDE8104010F009BC3C3900205E
:107ED00060000010A4000010004870473C390020EA
:107EE00046DF704730B58DB00D461446014610226E
:107EF000684610F0F4FB102229460DEB020010F04A
:107F0000EEFB6846FFF7ECFF102208A9204610F0B0
:107F1000E6FB0DB030BD0000002306491A46C81824
:107F2000428042605A540833B3F5807FF7D1024B48
:107F30001A6070474C3900204C3A0020F0B50C4BC9
:107F40000C4C1B68064620227BB1013B14F8330021
:107F500050B104EBC3056F88B74202D16D688D4202
:107F600002D0013AF0D11046F0BD1F23EEE700BF6A
:107F70004C3A00204C39002030B5084A084C1368B0
:107F800004EBC3056960012104F833100B44202B76
:107F900008BF00236880136030BD00BF4C3A00204A
:107FA0004C390020C0F30C038B42084438BFA0F5C5
:107FB0000050C01A70470000F0B50E4B0E4C1F6801
:107FC0000022BA4213D0D10063185E6800230AE091
:107FD000655805EBC30E15F83350854202D1DEF823
:107FE0000400F0BD0133B342F2D10132E9E70020D1
:107FF000F0BD00BF503A0020543A002000B58DB0CB
:1080000048B9084A934206D0012201A88DF80420FD
:10801000029301F095F9044B186802F015FF0DB0BA
:108020005DF804FB5EE6655E603A002010B50378FB
:10803000044613B97846FFF721FFE079431C01207D
:108040009840013810BD0000F8B5037804460F468B
:1080500013B97846FFF712FF0B4B0C4E1A68511CF0
:1080600002F0070206EBC2051960A38A6B80A188A3
:10807000A069FFF797FF6860E36906F8327003F0C4
:1080800001036B70F8BD00BFA83A0020683A0020D9
:108090002DE9F0410E468EB015461C46074610B934
:1080A0007846FFF7EBFE16B97846FFF7E7FE14B9FE
:1080B0007846FFF7E3FE636A627802330593A3789C
:1080C000A2F10800002B14BF012102210DF10408C8
:1080D00042424241434604F10C0002F097FF6378AC
:1080E0008DF83430237BADF82050022B16FA85F53D
:1080F000CDF8188007970B960C950FD1236913B90B
:108100007846FFF7BBFE23690993102305A8ADF855
:10811000283002F077FF0EB0BDE8F0810023F5E7CC
:1081200038B50D4B04461B68806E00259847A56640
:1081300004F12C0002F0AAF994F84430022B03D188
:1081400004F14C0002F0A2F984F844500020BDE88C
:10815000384001F09BBC00BF643A002010B590F895
:108160004430012B8CB0044602D07846FFF786FEDF
:1081700001238DF8043001A8236D029301F0E0F88B
:108180002046FFF7CDFF0CB010BD0000F8B51F462C
:10819000531E012B04460D46164602D97846FFF7BA
:1081A0006DFEA36E13B17846FFF768FE1A4B384692
:1081B0001B689847A06630B32C222946204610F051
:1081C0008EFA0022A264A4F84670A988A869FFF775
:1081D000E9FE012EA061114B16D1114984F84E2001
:1081E000097D84F84D1084F84F2084F84C20AA6A49
:1081F000A3620C4B226501206363E46301F046FC3B
:1082000084F844600120F8BDA362074B636584F8DD
:108210006420E465054BEEE75C3A00205EE6655EAF
:10822000AC3A0020CB86020085910200E98502006D
:108230001FB500220B468DF80F2028B302300860CE
:1082400018460DF10F0102F0DFFE9DF80F30DBB193
:10825000144B1B685B0717D5134B1B68032B13DDEF
:108260002F21124810F01AFB98B12F210F4810F05F
:1082700015FB411C0E4B0F4AD3F804350092042025
:1082800040F2E62203F0ACFD9DF80F0005B05DF86A
:1082900004FB5C21054810F001FB08B15C21E5E717
:1082A0000249E7E75C33002058330020108E0300BA
:1082B00000B000402D8E03002DE9F0479946137859
:1082C000D2F81880F2B007468A46144623B1918846
:1082D0004046FFF767FE9061A3786278002BA2F119
:1082E000080003AD14BF0121022104F10C06424233
:1082F00042412B46304602F089FE627808951FFA0B
:108300008AF5AB1A9BB20997ADF828301F440023B9
:10831000ADF83030237B8DF83C20022B04BF1022B7
:10832000ADF83020A2780E9712AFC4F818800D97E0
:1083300004F12408002A5ED04FF0000A237BC4F821
:1083400024A0022B04BF23690B93206AE1784246E4
:108350000CF00EFD606A40BB237B022B05D1314639
:10836000E0890CF0ABFD0028E8D1354B1B685B07BA
:1083700018D5344B1B68052B14DD2F21324810F023
:108380008DFA002852D02F212F4810F087FA411C77
:108390002E4B2F4AD3F804350092062040F2235288
:1083A00003F01EFD72B0BDE8F08707A9FFF740FF9C
:1083B0000028CAD06178A28AADF82A206D1A01215E
:1083C0008DF8281096E8030000230B938DF81C30DD
:1083D0000CAB83E80300A37D8DF84030236A0E9335
:1083E00007A8636A0897ADF824500F93CDF844901E
:1083F00000F0A6FFD6E7012B62620CD000234146B5
:10840000A08A63620CF0ECFC07A9606AFFF710FF1A
:108410000028AAD0CEE74146E0890CF0E1FC07A98C
:10842000606AFFF705FF0028E8D0C3E75C21064833
:1084300010F034FA08B15C21A6E70349A8E700BFB1
:108440005C33002058330020108E030000B0004041
:10845000648E0300C37D0A7830B5002B3DD083784D
:1084600022F07F0203F07F031A430A700B78027830
:1084700003F07F0343EAC2130B70037863B34378BE
:10848000083B5A425A414B7803F07F0343EAC21338
:108490004B708A78858802F00302C5F3861442EA9D
:1084A000850223F07F032343D2B28A704B70CB78CE
:1084B000857903F01F03C5F3C10422F0030243EAE8
:1084C00045132243DBB2CB708A70C27923F01F03BD
:1084D00002F01F021343CB7030BD83789B0122F062
:1084E000400203F0400313430B70C27823F03F03B4
:1084F00002F03F0213430B70B8E7000010B590F88C
:108500004430012B044602D07846FFF7B7FC237BAA
:10851000012B0A4B03BFA27D1969DB68DB6808BF2A
:1085200001FB0233A36302F061F8A16B014404F183
:108530002C00BDE8104001F0D5BF00BFAC3A0020D0
:1085400070B50D4690B0044610B97846FFF796FC1A
:1085500000212046FFF778FD2C22002105A8266D7A
:1085600010F0C8F80F2305A88DF8143006968DF882
:108570001C5000F0E5FE2046FFF7D2FD154B1B68AE
:108580005B071BD5144B1B68032B17DD2F211348EA
:1085900010F084F9A0B12F21104810F07FF9411C90
:1085A0000F4BD3F80435029594F8442001920D4AFC
:1085B000009204204FF4D37203F012FC10B070BD8F
:1085C0005C21064810F06AF908B15C21E4E7034930
:1085D000E6E700BF5C33002058330020108E030014
:1085E00000B00040ED8D030008460021FFF7A8BF52
:1085F0002DE9F04F90F84C5087B0044600274FF01B
:10860000010800F10C0BE279954203D9384607B016
:10861000BDE8F08FA16C08FA05F30B4252D1E37D5F
:10862000A571002B0CBF0C260826954206FB05FA07
:10863000237808BFB4F84660CDF804B008BFA6EBB5
:108640000A06002B14BF4FF004094FF0010906EB96
:108650000903039301A8A36A029302F0CFFE002846
:10866000D4D1059B994445B994F84F302BB9A369EF
:1086700084F84F80C3F30C03A380E37D8BB994F897
:108680004E3073B915B17846FFF7F8FBB4F84610D1
:1086900062788A1AA16E23460846FFF7F9FC84F82F
:1086A0004E8005992046FFF7D5FEA16E3246514413
:1086B000484610F014F801A802F0B8FE6B1C013710
:1086C00084F84C300135EDB29DE710B591F8443097
:1086D000012B0C4602D07846FFF7D0FB94F84D10E2
:1086E00059B9237B012B204603D1BDE81040FFF789
:1086F00027BFBDE81040FFF731BD0139002384F8E2
:108700004D1084F84C302046BDE81040FFF770BF94
:108710002DE9F041D47D8AB006460F4615469846AD
:10872000002C00F08E809478002C6BD106294AD161
:10873000027843788178920102F4FE5242EA930271
:10874000C3781B0443EA016341790B43017943EA8F
:1087500001233D49084691F84460012E12D18F8AC9
:10876000EE89B7420ED18E8896420BD16C2202FB65
:108770000404A56C1D43A5648BBB03212046FFF7B1
:10878000DFFE20E00134042C01F16C01E3D12F4B1A
:108790001B685B0717D52E4B1B68012B13DD2F21A0
:1087A0002C4810F07BF888B12F212A4810F076F879
:1087B000411C294B294AD3F804350092022040F28B
:1087C000B44203F00DFB0AB0BDE8F0815C21214802
:1087D00010F064F808B15C21E7E71E49E9E720469C
:1087E000FFF724FC854203D12046FFF7B7FCEAE7F8
:1087F000002384F84C302046FFF7FAFE2046FFF7AE
:108800007DFEE0E72046FFF7D7FB03460028DAD0DD
:1088100005F10C012A6A089203C9AA8AADF816204C
:1088200006AA82E80300AA7D8DF824202A788DF814
:108830000840039604978DF81420414602A89847F3
:10884000C1E7FFF739FDBEE7C43A00205C330020E2
:1088500058330020108E030000B000408D8E0300BE
:108860002DE9F0438BB0054604AF808A8846164652
:1088700001F0F8F9012840F0CE802B7B002B00F0AE
:10888000CA80022B03D12B69002B00F0C48095F91C
:108890001630002BC0F2C1806B782978EA7D334412
:1088A000002900F08D80002A14BF4FF480724FF42D
:1088B000C072934200F2B380EFF3108472B659484D
:1088C00000224FF06C0E0EFB020191F844C0BCF187
:1088D000000F4DD1002C50D00C46012229462046D5
:1088E000FFF754FC00284CD032464146A06E0FF0F2
:1088F000F6FE4D4B1B685B0732D54C4B1B68032BB8
:108900002EDDB4F846004300083323F007036D461C
:10891000ADEB030D464B04AED3F800E03246002326
:10892000984202F1020232D8002306F810302F21BB
:1089300040480FF0B3FF002839D02F213D480FF0F9
:10894000ADFF411C3C4B3D4AD3F8043501923C4AF3
:108950000092029640F2F232042003F041FAAD4652
:108960002046FFF745FE2046FFF7C8FD002409E03A
:108970000132042AA7D10CB103E00C4662B6002CE8
:10898000ABD1042420461C37BD46BDE8F083A16E60
:10899000C95C4FEA111C01F00F011EF80CC002F86F
:1089A00002CC1EF8011002F8011C0133B8E75C216B
:1089B00020480FF073FF08B15C21BFE71D49C1E7F4
:1089C000002A14BF0B220F22934228D80133FB60E8
:1089D00005F10C037B60381DAB6ABB6002F00EFD35
:1089E00004460028CED17969284601F10109FFF734
:1089F00031FDEB7D43B13246414648460FF06FFEF4
:108A0000381D02F013FDBDE72B463246494640466D
:108A1000FFF73EFBF4E71024B4E70724B2E709248C
:108A2000B0E700BFC43A00205C3300205833002078
:108A300060330020108E030000B00040BB8E0300A6
:108A40002C8A0300EFF3108372B6044A04491160C4
:108A5000044A0549116003B962B670475C3A0020C8
:108A6000A1860300643A0020B186030010B5FFF729
:108A7000E9FF4FF4D872002114480FF03BFE0024A8
:108A800003F0A0FB124B13481C60214640220FF05C
:108A900031FE114B1148124A12499C7583E80500BA
:108AA0004CF250329A601A6104221A750E48D9604D
:108AB00008225A7502F0AAF90C4B18600C4B0D48AD
:108AC0001C60BDE8104003F04DBC00BFC43A00205C
:108AD000A83A0020683A0020AC3A0020809698001E
:108AE000F049020020A10700DD8C0200603A00205E
:108AF000503A0020FD7F020070B504468CB000287B
:108B00004DD00569002D4AD0C369002B47D0866936
:108B1000002E44D05A788DF807201A780A93037BE8
:108B2000C17A022B04BF204B9B7D002B82F00102F7
:108B300014BF082304238DF806208DF80530828A9F
:108B4000C3F10F0019B9824201DC082B29D08242FF
:108B5000C8BF01218DF8041051B113440B330C210F
:108B600093FBF1F3013B8DF80B3000238DF80A30B5
:108B700094E8030000238DF81B3004AB83E8030066
:108B80002389ADF81830A37A8DF81A302946236A64
:108B9000099601A80B93FFF763FE0CB070BD0E2081
:108BA000FBE70720F9E700BFAC3A0020F0B5034629
:108BB0008DB00F4600283AD04468002C37D0856924
:108BC000002D34D0027C12F0FD0F32D00278110655
:108BD00031D48DF8062082680B2A98BF007B4FF0B5
:108BE000000188BF01200A918DF804008DF805105E
:108BF00030B1D01DC00801388DF80B008DF80A1077
:108C000001218DF81B1003F1100103C904AE86E8A1
:108C10000300D989ADF818101B7F0995214601A8DA
:108C20008DF81A300B97FFF71BFE0DB0F0BD0E202C
:108C3000FBE71020F9E70720F7E7000070B5067B97
:108C4000012E8AB004460D4642D106220021684614
:108C50000FF050FDA1889DF800208DF80550C1F35C
:108C6000861322F07F021A439DF801308DF8002010
:108C700003F0030343EA81038DF801302B0E8DF8D6
:108C800002302B0C8DF803302B0A8DF804300623AC
:108C90000493A38AADF81A30002307938DF80830A7
:108CA0008DF81430E389ADF81630A37D226A8DF873
:108CB0001860CDF80CD008923BB906498DF82430E5
:108CC00002A8FFF773FF0AB070BD034B5B7DF4E7AA
:108CD0000020F8E75EE6655EAC3A002070B51B4EFA
:108CE0000024351995F84430012B06D12846FFF7AA
:108CF0007FFC10B12846FFF701FC6C34B4F5D87F37
:108D0000EFD1124C04F5D87594F84430022B17D1EA
:108D100094F86430022B13D1A16C2046FFF78EFF2C
:108D200070B984F864002046A66CFFF77FF986428C
:108D300006D120460121FFF787F92046FFF7F0F919
:108D40006C34AC42E0D1012070BD00BFC43A0020B9
:108D50002DE9F0470D469AB014469846064600287D
:108D600000F0FA81002A00F0F7810DF108090021D6
:108D7000082248460FF0BEFC494660880CF09EF879
:108D800020B9002738461AB0BDE8F0872269E168AB
:108D9000208902F0010203F0E9F982460028F0D1AF
:108DA0002269E168208902F0010203F0B7F9074661
:108DB000A8B12C2251460FA82589247C0FF09AFCDB
:108DC0000E238DF83C309DF84230ADF8405064F3EE
:108DD00000030FA88DF8423000F0B2FAD2E70DF18F
:108DE0001C0A1822214650460FF079FC337803F014
:108DF0008002111C18BF01218DF810109DF827105A
:108E0000E1B103F07F038DF812308DF811705AB381
:108E10007278B378920102F4FE5242EA9302ADF8FE
:108E20001420DB00F27803F0180343EA521302F037
:108E30001F028DF816308DF8172015E0C3F380114E
:108E40008DF8121003F03F018DF81310190608D5A4
:108E500096F90130002BACBF042308238DF81130A4
:108E6000D5E704238DF8113099E8030000240D9410
:108E70008AE8030001F088FF9DF81030002B00F015
:108E80006481B74BBDF82420994693F84410022919
:108E90000DD1998A91420AD16C2303FB0494BDF849
:108EA0001420A3889A4231D201F090FF6AE701347E
:108EB000042C03F16C03E8D100249DF8103013B9A1
:108EC0007846FEF7DBFF0B9ABDF814100A98BDF840
:108ED00024A002F00102FFF765F8A24B4FF0000E4C
:108EE0009C465968884217D15988514514D1597800
:108EF000914211D11CF83E30002BD5D004A8FFF7C9
:108F000095F8014604A8FFF799FECDE7D5D90521CC
:108F10002046FFF715FBCFE70EF1010EBEF1080F5B
:108F200003F10803DDD1002C5DD19DF827209DF8C9
:108F30001730002A0CBF4FF00C0A4FF0080A03FB51
:108F40000AAA0CBF4FF4C0734FF480739A4539D905
:108F5000854B1B685A0719D5844B1B68002B15DD00
:108F60002F2183480FF09AFC18B32F2180480FF06F
:108F700095FC411C7F4B804AD3F804350092CDF814
:108F800004A040F25E22012002F02AFF002104A882
:108F9000FFF754FE2C2200210FA80FF0ABFB0F238C
:108FA0008DF83C300FA802238DF8443000F0C8F94A
:108FB0007AE75C216E480FF071FC08B15C21D5E7BF
:108FC0006B49D7E723466C2202FB039494F84410C4
:108FD000002940F0A1805346022204A92046FFF751
:108FE000D5F80028D2D0604B1B685B071CD55F4BBF
:108FF0001B68032B18DD2F215D480FF04FFC002864
:1090000000F08F802F215A480FF048FC411C594B2B
:109010009DF81620D3F804350192584A0092042096
:1090200040F2A22202F0DCFE94F84430022B02D07F
:109030007846FEF723FFDFF84891D9F800A001F049
:10904000D5FA0AEB000104F12C0001F04BFA237B66
:10905000012B1CD194F86430CBB994F84430022B26
:1090600002D07846FEF70AFFD9F8043099F81510B7
:10907000D9F8082002FB013901F0B8FA00EB090128
:1090800004F14C0001F02EFA012384F864309DF8BD
:109090001630A16C0120984001427FF405AF0143D6
:1090A000A164E1799942A5F104029DF8271041D10C
:1090B000002914BF08210C2103FB0121A56EA4F88F
:1090C00046100CBF0C20082000FB0350311D0FF090
:1090D00006FB2046A56CFEF7A9FF85427FF4E4AEAF
:1090E000022384F86430A16C2046FFF7A7FD4346B5
:1090F00005462246B4F84610A06EFFF709FB002D86
:109100007FF4D2AE204684F864500121FEF79CFF24
:109110002046FFF705F8C7E60133042B7FF454AF70
:1091200034E75C2112480FF0B9FB08B15C216AE713
:109130000F496CE791B90C2A02D1A56E1046C3E71E
:1091400004212046FFF7FCF9AEE6434604AA691E57
:10915000701CFFF7DDFAA7E60E2713E6082AEBE7F7
:10916000C43A0020683A00205C33002058330020C5
:10917000108E030000B00040408E0300548E0300A8
:10918000AC3A002010B591F84430022B0C4602D0C6
:109190007846FEF773FE022384F86430A16C204603
:1091A000FFF74CFD08B984F8640010BD002952D0C7
:1091B000A0F59670072850D8DFE800F0040E1923B8
:1091C0002E3940474A68274B274913448B4246D8DB
:1091D000264B1A60002070474A682549A2F51233D1
:1091E000A3F5F8738B423AD8204B5A60F2E74A68ED
:1091F0002049A2F54343503B8B4230D81B4B9A6029
:10920000E8E74A681C49A2F54333A3F5A0738B42F3
:1092100025D8164BDA60DDE74A681749A2F54333D3
:10922000A3F5A0738B421AD8104B1A61D2E74B6892
:109230009A1EFD2A13D80D4A1375CBE74B685A1EA8
:109240007E2A0CD8094A5375C4E74B68012B06D80F
:10925000064A9375BEE70E20704705207047072029
:10926000704700BF806967FF80778E06AC3A0020A8
:10927000904C960030D397004089950038B505464C
:109280000C46002928D00822002120460FF032FA8F
:10929000A5F59670072821D8DFE800F004090C0F27
:1092A0001215181B0E4B1B686360002038BD0C4B59
:1092B0005B68F9E70A4B9B68F6E7094BDB68F3E765
:1092C000074B1B69F0E7064B1B7DEDE7044B5B7D0D
:1092D000EAE7034B9B7DE7E70E2038BD052038BD4C
:1092E000AC3A00202DE9F04188460746E8B1124E1D
:1092F0003468C4B92546454507D1104B1F605D60F1
:10930000012333602046BDE8F08107EBC5035B68AD
:109310005BB117F83500030609D450B1FEF74CFED7
:1093200038B90135E7E70424ECE70E24EAE70B241B
:10933000E8E70F24E6E700BF503A0020543A002047
:1093400038B5054610B97846FEF798FD044B1C6801
:109350002CB154F8043C284698472468F8E738BDF7
:10936000743C002010B5044610B97846FEF786FD1F
:10937000211D0248BDE8104002F099BC743C002059
:1093800010B5044610B97846FEF778FD211D024855
:10939000BDE8104002F0ACBC743C00200B88826831
:1093A000D25A073222F00302134402889BB2043AD5
:1093B000934288BF00230B80704770B50646154660
:1093C0000C4611BB7846FEF759FDFEB17846FEF714
:1093D00055FD6B1E2344B3F1005F34D94FF080522A
:1093E000D2F80C2102F50022B3EB822F2ED2042DED
:1093F00002D87846FEF742FD35800023043D738095
:10940000B380B4602580A37070BD10B97846FEF7B4
:1094100035FDB4F1005F12D94FF08053D3F80C3111
:1094200003F50023B4EB832FD3D34FF08053D3F84D
:109430000C3103F50053B4EB832FC7D2C9E7B4F561
:10944000000FF2D8C2E7B3F5000F08D94FF08052F1
:10945000D2F80C2102F50052B3EB822FC7D3784625
:10946000FEF70CFDC3E737B5044610B97846FEF7A2
:1094700005FD6288A36813449B78012B02D17846CE
:10948000FEF7FCFCA288A3681344EFF3108572B6C4
:109490009A78A168032A11D15B1A02A9204621F803
:1094A000023DFFF77BFFBDF80620A36862801344EE
:1094B00000229A7005B962B603B030BD00228A70EE
:1094C0006280A280F6E770B50E461546044610B9D4
:1094D0007846FEF7D3FC16B97846FEF7CFFC6288D3
:1094E000A36813449B78012B02D17846FEF7C6FC93
:1094F000002D31D021880B1F9BB29D422CD8608853
:10950000A388EA1D22F00302984292B204D21B1AE9
:109510009A420FDD042070BD15D9091A914209D273
:109520009A42F7D8032981BFA3681B1804229A70B6
:10953000002363806288A1688B188D5201229A7083
:109540003360002070BDA26813449B78002BE1D1EA
:1095500093706380A380EDE7092070BD70B50D4660
:109560001646044610B97846FEF788FC15B97846C9
:10957000FEF784FCAB78012B02D07846FEF77EFC28
:109580002B88B34202D27846FEF778FC16B97846AB
:10959000FEF774FC0223AB70E1182E802046FFF723
:1095A000FDFE6288A38893421FBFA3689B18002218
:1095B0009A7070BD38B50D46044610B97846FEF76E
:1095C0005DFC15B97846FEF759FCA288A3681344E0
:1095D0009A78022A03D0032A06D0052038BD032238
:1095E0009A702B60002038BD7846FEF747FCF9E7FB
:1095F00010B5044610B97846FEF740FCA288A3686F
:1096000013449878831E5842584110BD13B5044640
:1096100010B97846FEF732FCA288A3681344987804
:10962000032804D0831E5842584102B010BDA268DE
:109630000DF106019B1A2046ADF80630FFF7AEFE8D
:10964000BDF80620E9E770B50D46044610B9784626
:10965000FEF714FC15B97846FEF710FCAB78012B29
:1096600017D0032B20D1A288A36813449D4202D0B7
:109670007846FEF703FC0026AE70211D2046FFF75A
:109680008DFEA288A36813449B78042B11D1A68079
:1096900070BD6288A36813449D4202D07846FEF7ED
:1096A000EDFB0023AB7070BD7846BDE87040FEF75F
:1096B000E5BB70BD024B1878003018BF0120704721
:1096C000783C002010B5044610B97846FEF7D6FB6A
:1096D00063681BB123680BB1A36813B97846FEF722
:1096E000CDFBA3685A1E1A4202D07846FEF7C6FB8D
:1096F0000023E360236110BD38B50546F0B1E9B140
:109700008368EBB1EFF3108472B683682A69C0688E
:109710001A44824203D104B962B604240CE0013B2E
:10972000034095E8050002FB03000EF0D8FFEB684C
:109730000133EB6034B962B6204638BD0E24FBE736
:109740000924F9E70024F7E770B50E460446F0B1A6
:109750008368F3B1EFF3108572B60169C36899426B
:1097600003D105B962B605250FE04EB18368013B10
:109770000B4090E80600304602FB03110EF0AFFFED
:1097800023690133236135B962B6284670BD0E25C1
:10979000FBE70925F9E70025F7E7000010B5104CB5
:1097A0004FF48052002120460EF0A4FF0D4B04F52B
:1097B0007F611C60282004F13003002223F8300C64
:1097C00023F82E2C43F82C3C30338B42F6D138232F
:1097D000A4F8C03FA4F8C22FC4F8C42F10BD00BF26
:1097E000943C0020944C00207047000010B5054CBC
:1097F0001422002120460EF07DFF4FF0807363603D
:1098000010BD00BFC04C002038B50F4D0F4C0021DB
:10981000142228460EF06EFF00F0E8FE0C4B0D4AB5
:10982000A3600D4B6060E3600C480023137023615C
:1098300063610B4B036000F0D7FB204600F008FE8D
:109840004FF080736B6038BDC04C0020A04C0020EE
:10985000D5990200D44C002000879303B84C002017
:109860003D99020010B58CB001F08EFA124A117BBE
:109870001346F9B9917BE9B9118A41F282629142AA
:1098800002D80E4A1278AAB1996804910122881868
:10989000002498600CA81A731C82022300F82C3D47
:1098A0008DF808200394FFF74BFD01F08FFA204656
:1098B0000CB010BD0824F8E7C04C0020D44C0020A8
:1098C00010B58CB001F060FA1A4B5A7B42B1997B0B
:1098D00099B9188A41F28261884201D8164A1278F1
:1098E00002F001047AB1197B00225A7339B10129BF
:1098F0000ED07846FEF7C2FA05E00022F0E7FFF747
:10990000B1FF0028F5D101F061FA20460CB010BD7E
:109910004FF080711A6059601A731A820CA89B6804
:109920000493022300F82C3D8DF808200392FFF7E2
:1099300007FDE8E7C04C0020D44C002010B50378A8
:10994000042B8CB00FD143681B7863B1204B446962
:10995000197B027E002935D1598A41BB012A9A68B8
:1099600003D0944204D80CB010BD0132944220D9E7
:109970009A682A329442F6D89A7B002AF3D18168F9
:109980001A604FF08070586042F6065058820CA85A
:109990009C601A825A731A730223103100F82C3D0E
:1099A00004948DF808200391FFF7CAFCDBE7012A35
:1099B000D9D19A6801329442D5D101225A73FFF766
:1099C0007FFFD0E70129CED1012ACCD09A68F2E7F7
:1099D000C04C002038B5174C257B2DB1012D12D07D
:1099E0007846FEF74BFA21E0228A41F282639A42DE
:1099F00002D8114B1B78CBB1FFF762FF638A0BB122
:109A0000013B638238BD238A41F28262934202D8CD
:109A1000094A157855B142F2B012934282BF012330
:109A200000256373FFF74CFF002DE7D0238A013335
:109A30002382E3E7C04C0020D44C002038B5104C02
:109A400094E80C009A42054615D2207B0D490E4B36
:109A5000012808BF0B46934203D801236373FFF725
:109A60002FFFEFF3108072B623685A1C22602B6020
:109A700018B962B638BD0F2038BD002038BD00BF10
:109A8000C04C002000E0FF00FFFF7F0010B50C4C31
:109A900030B10C4B01229A7323681344236010BD2C
:109AA000236813B97846FEF7E9F92368013B236080
:109AB0002BB9044A9373BDE81040FFF701BF10BDF6
:109AC0009C4C0020C04C002000B58DB00323ADF8A5
:109AD00008000CA88DF8102000F82C3D0391FFF72A
:109AE0002FFC0DB05DF804FB014B9868704700BF78
:109AF000C04C0020034B1A7B9868012A08BF00F174
:109B0000FF307047C04C0020044B9B685840C20790
:109B100048BF03F1FF331846704700BFC04C002018
:109B2000014B187B704700BFC04C002010B5084A9D
:109B3000137853B901241470064A11734FF08071E1
:109B4000906013605160184610BD082010BD00BF22
:109B5000984C0020C04C00202DE9F8431D4CDFF844
:109B6000789000260221204601F038FF5FFA86F83F
:109B700005460027ADB967B12946204601F096FF9A
:109B8000082806D154F8043C1BB12A4649464046F1
:109B900098470136032E04F1B804E3D10120BDE853
:109BA000F88354F8043C23B134F80C2C2946404681
:109BB000984734F80C3C013324F80C3C0221204631
:109BC00001F028FF0221204601F008FF0137054679
:109BD000D0E700BFE84C0020CC8E0300F8B51E484B
:109BE0001E4C01F013F91E4B186004F11C030827EA
:109BF00010260325636104F10C0004F118032361AE
:109C0000A7736673257301F02CFF04F1D403C4F825
:109C1000CC3004F1C40004F1D003C4F8C83084F897
:109C2000C67084F8C56084F8C45001F01AFF04F5CA
:109C3000C673C4F8843104F5C47384F87E7184F863
:109C40007D6184F87C51C4F8803104F5BE70BDE8B4
:109C5000F84001F006BF00BF599B0200DC4C002019
:109C6000D84C002010B1800B014B185C704700BF2E
:109C7000DC8E030012DF704713B5137863B1042B39
:109C80000CBF0723002310F8011C292962D005D836
:109C9000162973D002B010BD537DF4E72A2927D0CE
:109CA0002B29F7D1022BF5D110F8021C0139C9B2CA
:109CB00002F0AEFA04460028ECD0374B1B685B0676
:109CC000E8D5364B1B68012BE4DD2F2134480EF01C
:109CD000E5FD002849D02F2131480EF0DFFD411C61
:109CE000304B314AD3F80435009201949A2224E093
:109CF000022B01D0072BCDD110F8021C013901F045
:109D0000B9FB04460028C5D0234B1B685A06C1D5B1
:109D1000224B1B68012BBDDD2F2121480EF0BEFD1B
:109D200078B12F211E480EF0B9FD411C1D4B1F4A72
:109D3000D3F80435009201948722022002F050F8F3
:109D4000A8E75C2116480EF0A9FD08B15C21E9E7FF
:109D50001349EBE7022B9DD110F8021C0139C9B25F
:109D600002B0BDE810400CF0CBBB5C210C480EF0FB
:109D700095FD08B15C21AFE70949B1E701884FF6CD
:109D8000E463994286D110F8021C0230033902B014
:109D9000BDE81040FDF76EBF5C3300205833002053
:109DA000F58E030000B000403A8F0300118F0300CE
:109DB00070B58AB004F040FA0446002834D000237D
:109DC0008DF8103006460FCE05AD0FC533682B60F9
:109DD000627D052A0CD9207D00F00F03072B07D0E8
:109DE00004AB063A04F11D0100F00F0003F0A0FAE5
:109DF000114B1A68AAB104AB0393237DC3F3030389
:109E00008DF80430637D062B89BF063B00238DF857
:109E1000053004F11D0398BF8DF80530029301A8A9
:109E20009047204604F0F2F904F01EFA80F0010099
:109E3000C0B20AB070BD00BF084F0020F7B52E4F6A
:109E40003A780546002A4CD100284CD0067A06F014
:109E5000F703072B49D1C06800283FD0FEF720F850
:109E60000DF10700FFF706FF0446A0BB9DF8073081
:109E7000012B3CD1FEF750F800F0D8FA304600F044
:109E80004DFFE87800F010F900F09CFE03F05AFD59
:109E90001A4804F081FA03F0BDFBFFF79FFE03F0C0
:109EA0009FF9284601F036FA2846FEF7DFFD02F05A
:109EB000A1FC2846FFF772FCFDF7DCFE08B106287E
:109EC00017D100F0ABFC0E4803F004FA0D4B002252
:109ED0001A6001233B70204603B0F0BDFDF7E8FF98
:109EE000BEE70824F7E70E24F5E70724F3E702248A
:109EF000F1E70446EFE700BF054F0020B19D0200E7
:109F00004C330020084F002038B50C4B1B7893B120
:109F10000B4D2A787AB900F079FE10B17846FDF73A
:109F2000ADFF03F025FD044618B904F03FF9012305
:109F30002B70204638BD0824FBE700BF054F0020EA
:109F4000044F002038B5084D2B7853B103F01EFDA7
:109F5000044620B904F03CF900F0A8FE2C7020461D
:109F600038BD0824FBE700BF044F002037B5184B6D
:109F70001B685B0404460D4619D5164B1B68062B5F
:109F800015DD2F2114480EF089FCB8B12F2112489D
:109F90000EF084FC411C114B114AD3F80435019298
:109FA000104A009207204FF4D77201F019FF29469A
:109FB000204603B0BDE83040FEF79EBD5C21064858
:109FC0000EF06CFC08B15C21E1E70349E3E700BF58
:109FD0005C33002058330020F58E030000B00040B1
:109FE000E08E03000A910300FFF7BCB908B500F04A
:109FF000CDFD002008BD05F045BB10B5044610B9E5
:10A000007846FDF73BFF00232360636010BD38B541
:10A010000D46044610B97846FDF730FF15B978466D
:10A02000FDF72CFF00236B60EFF3108372B62268FC
:10A0300022B92560656003B962B638BD62685560B3
:10A04000F8E710B5044610B97846FDF717FFEFF3AF
:10A05000108272B6206808B143682360236803B990
:10A06000636002B962B610BD10B5044610B97846F7
:10A07000FDF704FF206810BD35DF704708B54FF0CD
:10A08000FF30FFF7F9FFBFF34F8F0549054BCA6853
:10A0900002F4E0621343CB60BFF34F8F00BFFDE7D4
:10A0A00000ED00E00400FA0507289ABF024B33F8E0
:10A0B0001000FA20704700BF668F030030B501F131
:10A0C00010031032103013F8014D12F8015D8B426D
:10A0D00084EA050400F8014DF5D130BD10B501F159
:10A0E00010021030002312F8014C43EA440300F838
:10A0F000013D12F8013D8A424FEAD313F3D110BD5E
:10A10000F8B5184D07460C46164600211022284681
:10A110000EF0F0FA294638462A46FDF7E3FE95F997
:10A120000030002B294620460BDBFFF7D7FF94F9C0
:10A130000030002B214630460BDBBDE8F840FFF72E
:10A14000CDBFFFF7CBFF084A21462046FFF7B6FFF9
:10A15000EDE7FFF7C3FF31463046034ABDE8F8405C
:10A16000FFF7ACBF0C4F0020768F03002DE9FF47AF
:10A17000144602F10F0A0E46284A29490746984616
:10A180004FEA2A1AFFF7BCFF1022002125480EF0E3
:10A19000B1FA04F00F040AF1FF396D46BAF1000F6D
:10A1A00018D0BCB91E4A06EB09112846FFF786FFF6
:10A1B000DFF870A000244C4523DB1A4A29461046DC
:10A1C000FFF77CFF424617493846FDF78BFE04B087
:10A1D000BDE8F087224606EB091128460EF07FFA0B
:10A1E00004AB23448022013403F8102C2C440022B9
:10A1F000631B102B02D1094A2946D6E704F8012B2C
:10A20000F6E706EB041251460648FFF757FF5246A1
:10A2100004493846FDF766FE0134CCE72C4F002098
:10A220001C4F00200C4F002010B5037804462BB1C2
:10A230000378062B02D07846FDF720FE636913B140
:10A240007846FDF71BFE01232370024B5A686261BA
:10A250005C6010BD404F00202DE9F041144E4FF0DE
:10A260000008354634680CB1AB680BB9BDE8F08125
:10A270002778FFB2FB1E012B16D863693360EB68A9
:10A28000C4F814805A1EEA6013B97846FDF7F6FD4B
:10A29000AB68032F03F1FF33AB6084F80080E1D19A
:10A2A0002046FFF7C1FFDDE704F11406DAE700BF3F
:10A2B000404F0020014B186800F0C6BD3C4F002005
:10A2C00038B54369054613B17846FDF7D7FD114B04
:10A2D0001A682AB11A686C685268A21A002A0BDA46
:10A2E0001A686A611D60DA680132DA6082B97846FC
:10A2F000BDE83840FDF7C2BD19684A691AB1506817
:10A30000001B002802DB6A614D61ECE71146F4E7AF
:10A3100038BD00BF404F0020F8B50D4D0026022784
:10A320006B6803B9F8BD6C6863696B60237866611C
:10A33000052B01D12670F3E72378012B02D0784654
:10A34000FDF79CFD27702046FFF7BAFFE8E700BF46
:10A35000404F00202DE9F041FFF77EFFFFF7DCFFC3
:10A3600000F044F92F4F06463D464FF000083B6889
:10A3700023B13B685B689B1B642B1CD400F036F94F
:10A380002B68ABB12B685B68C3F16403C34243BF66
:10A390002968254A4968244A56BF00F1640102230E
:10A3A0000223012000F0D8F810B17846FDF766FDD1
:10A3B0000120BDE8F0813C682378022B02D078466A
:10A3C000FDF75CFD63692B60EB68C4F814805A1ECE
:10A3D000EA6013B97846FDF751FDA36813B97846D2
:10A3E000FDF74CFD0623216923703046A36898478A
:10A3F00000F0FCF80646FFF72FFFFFF78DFF2378EC
:10A40000062BB4D1E2680AB92270B0E7636813443E
:10A41000991B6429FBD46360022323702046FFF755
:10A420004FFFA4E7404F0020B5A2020008B510225C
:10A43000002104480EF05EF9034800F0E7FC034BEE
:10A44000186008BD404F002055A302003C4F00207B
:10A4500038B5044610B97846FDF710FDA36813B966
:10A460007846FDF70BFDEFF3108572B600236361AC
:10A470002046FFF7D9FE05B962B6034B1868BDE860
:10A48000384000F0E1BC00BF3C4F002038B5044626
:10A4900010B97846FDF7F2FCEFF3108572B6237819
:10A4A000062B04D10023237005B962B638BD23788A
:10A4B000012B01D10523F6E72378002BF4D0237874
:10A4C000033B012B81BF054A93680133936004234A
:10A4D0002370034B186800F0B7FCE5E7404F0020FD
:10A4E0003C4F002070B50E46044610B97846FDF783
:10A4F000C5FCEFF3108572B6237813B12378062BD1
:10A500000AD12046FFF790FE0D4B6660186800F0F8
:10A510009BFC05B962B670BD2378012B02D023786D
:10A52000052B02D101232370EEE72378033B012B97
:10A5300081BF044A9368013393600323F3E700BFAC
:10A540003C4F0020404F0020024B1B6803B962B60D
:10A55000704700BF744F0020022838B531D803F08F
:10A5600003049C422FD1EFF31083184D2B6072B679
:10A57000174B43F82020174B43F82010164B1C5460
:10A58000164B002243F82020154B1B78ABB1154B1E
:10A590001B68CC1A48BF5C1A830003F1804303F5A3
:10A5A00000430022C3F840211030012202FA00F0DB
:10A5B0000D4AC2F80403C3F84045FFF7C5FF002069
:10A5C00038BD072038BD0A2038BD00BF744F0020B9
:10A5D000544F0020684F0020504F00207C4F002037
:10A5E000604F0020644F00200080004008B5EFF36A
:10A5F00010830B4A136072B60A4B1B786BB10A4B7F
:10A600000022C3F84C210122DA64D3F84C05074B31
:10A610001B681844FFF798FF08BD054B1868F9E759
:10A62000744F0020604F002000800040644F0020E5
:10A63000784F00202DE9F047DFF87490DFF874A020
:10A6400000244FEA840808F1804505F50045D5F857
:10A650004031EBB1D9F8043304F1100201269640E1
:10A66000334215D058F80A7017B97846FDF706FC42
:10A6700000234AF80830C9F80863FFF7B7FF0B4B0F
:10A68000E35C9B07014608D5B8470023C5F8403175
:10A690000134032CD5D1BDE8F087384600F062FBC9
:10A6A0000028F2D07846FDF7E9FBEEE7504F002096
:10A6B00000800040544F00202DE9F843324FDFF86E
:10A6C000E89005460026B846B40004F1804303F53F
:10A6D00000430022C3F84025C3F84021D3F840319D
:10A6E0003A6859F8263005F17801981A48BFD01A0F
:10A6F000B1EB020E48BFA2EB010E8645234A2BD9CF
:10A7000013593BB100211151214AB25C920719D56E
:10A71000284698471F4BE2581AB1012111600022C8
:10A72000E2500136032ECFD11B4B1B681BB91B4BCC
:10A730004FF480721A601A4BC8F8005001221A7048
:10A74000BDE8F8832946184600F00CFB0028E1D04C
:10A750007846FDF793FBDDE71259002AE1D004F1BA
:10A7600080445A1B04F5004448BFEA1A0023C4F889
:10A77000403106F1100101238B400A49C1F804332E
:10A78000C4F84025CDE700BF644F0020544F00209F
:10A79000504F00207C4F0020744F002000E100E06B
:10A7A000604F002000800040684F002070B50023FB
:10A7B0000F49104C104D1A465E5CF60742BF5A54C2
:10A7C00044F8232045F823200133032BF4D10B4B0D
:10A7D00018600B4B00221A700A4B4FF0FF32C3F87F
:10A7E0000823094B4FF48072C3F8802170BD00BF6D
:10A7F000504F0020544F00207C4F0020784F002005
:10A80000604F00200080004000E100E0024A136831
:10A8100001331360704700BF884F00200A4A10B50B
:10A8200000230A4C13600A4AA2600A4AE2602361CC
:10A83000FFF7DCFE00F5C330A03060602046BDE8C5
:10A840001040FFF705BE00BF884F00208C4F00204E
:10A850000DA80200A086010030DF704731DF70478D
:10A8600010B5034605C89C68D968A0EB721082EA4F
:10A87000F4320C44014410441A605C609960D86062
:10A8800010BD37B50C46054610B97846FDF7F6FA07
:10A890000023A34201D303B030BD0DF10700FFF741
:10A8A000DBFF9DF807100029F7D0E21A914288BF1C
:10A8B0008DF80720E8189DF80710FFF7CFFF9DF8E7
:10A8C00007201344E5E7000037B5044602A800233B
:10A8D00040F8043D0421FFF7D4FF074B2360019BA0
:10A8E0006360A360E36014252046FFF7B9FF013DD4
:10A8F000FAD103B030BD00BFED5EEAF1A0F1C802AD
:10A90000632A01D80BF05AB8A0F59672632A01D8D1
:10A91000FEF74CBCB0F5C87F01D300F011BD062096
:10A920007047A0F1C802632A01D80BF057B8A0F510
:10A930009672632A01D8FEF7A1BCB0F5C87F01D397
:10A9400000F036BD0620704748DF704749DF70478A
:10A950004ADF7047064A032313751168054B93615C
:10A9600040F6D862914288BF43F2B0629A60704765
:10A97000A44F0020C44F0020064A13685068064ABE
:10A9800012681844283278385343044AB3FBF2F370
:10A99000C01A7047A44F0020C04F002040420F0053
:10A9A00010B5294B30B11A69996901321A611A68D8
:10A9B0000A441A60D96801221A759A69013152084D
:10A9C0000129D9609A610CD0022918D099691A68B6
:10A9D0001E480A44824223D840F6D76291421FD9CA
:10A9E00010BDB2F5FA7F03D130B900229A61EDE7CC
:10A9F00040F6D8618A42E9D840F6D862F6E71A698B
:10AA0000022A03D11968114A521AEFE7012ADDD14F
:10AA10000028EAD0DAE77846BDE81040FDF72EBA04
:10AA2000012258685A7200241C75FFF745FE03F096
:10AA300057F8FFF7A1FF03230146054A2046FFF719
:10AA40008BFD0028E7D110BDA44F00208096980010
:10AA500055A90200F8B5444C444D012323722B78CC
:10AA60001BB1434B1B78002B64D0002323750428B3
:10AA70005CD8DFE800F0035653514D003D4AE360D7
:10AA80002361D2F80405A27A3B4D002162B3A37280
:10AA900023686268C5E9000113440121374A6360F5
:10AAA00021752368364992682260002B08BF0B4647
:10AAB000991AB1F57A7F27D39A4225D8A161237DCF
:10AAC000023B012B0CD8637A3BB103F021F8FFF76E
:10AAD00053FFFFF76BFE00236372254B00221A70B1
:10AAE000002323722748F8BDD5E90023DFF898E05A
:10AAF000821A22F07F420023A2FB0E670EFB03772F
:10AB0000F30B43EA4743C4E74FF47A73A361D6E7F4
:10AB10000120FFF745FFD2E70020FAE702F0AAFF85
:10AB2000CDE7FFF787FD02F0C9FFC8E77846FDF7DC
:10AB3000A5F9C4E7FFF75AFD6368C01A2B782060B7
:10AB4000012B05D0022B09D07846FDF797F902E0DA
:10AB500002222275A37200232B70B0E70323237512
:10AB6000064BA361F7E700BFA44F0020D54F00209C
:10AB7000D44F002000B00040D84F0020C44F002028
:10AB800080969800B84F002040420F00043808B566
:10AB9000032814D8DFE800F00A110502FFF7D6FEFB
:10ABA00068B17846BDE80840FDF768B9044840F64A
:10ABB000D8638360FFF7CCFEF2E70148FAE708BDEF
:10ABC000C44F00200C4A10B543F2B06400239460D7
:10ABD000012143F69824137013715171D460074A10
:10ABE0001060074A1370074A1370074A13725372B2
:10ABF00013609172536010BDC44F0020C04F0020FD
:10AC0000D44F0020D54F0020A44F002008B50548A0
:10AC1000FFF79AFE20B90448BDE80840FFF798BE48
:10AC200008BD00BF55AA0200C44F0020064B1B7D83
:10AC3000032B07D0054B1878013801288CBF002062
:10AC40000120704701207047A44F0020D54F0020FD
:10AC5000014B5868704700BFA44F002010B5064B49
:10AC6000587A40B1FFF788FE0446FFF7BFFC034661
:10AC7000201A48BF181B10BDA44F0020014B187AA2
:10AC8000704700BFA44F0020EFF3108372B6054A4F
:10AC9000527A22B1044A4FF48071C2F8001103B90C
:10ACA00062B67047A44F002000E100E0024B012291
:10ACB0001A70FFF7E9BF00BFD54F0020074A13788D
:10ACC0002BB140B9064B1B78003318BF012310701D
:10ACD0001BB1FFF7D9BF0023F9E77047D44F00201D
:10ACE000D54F0020044B1B780F2B1EBF034B4FF496
:10ACF0008022C3F8002170472051002000E100E0CD
:10AD000008B501460448FEF7F7FC10B9FFF7EAFF63
:10AD100008BD042008BD00BFE04F002010B50C4C5A
:10AD20000C4B20700C480360102343608360FEF7D7
:10AD3000C9FC0A48FFF761F923780F2B07D0084AAE
:10AD40005B01DBB282F812334FF48023136010BD35
:10AD500020510020F44F0020E04F0020245100201B
:10AD600000E100E030B50D4685B0044610B97846E4
:10AD7000FDF784F8002368468DF8003001940295B1
:10AD8000FFF7BEFF05B030BD10B5EFF3108472B60B
:10AD90000B490A68531C0B605AB90A4B1B780F2BDE
:10ADA00004D0094B4FF48022C3F8802004B962B666
:10ADB00010BD002BFAD17846FDF760F8F6E700BF2A
:10ADC000F45000202051002000E100E038B5EFF3FE
:10ADD000108572B60A4C236813B97846FDF74EF811
:10ADE0002368013B23603BB9064B1B780F2B1EBF2A
:10ADF000054B4FF480221A6005B962B638BD00BF1A
:10AE0000F45000202051002000E100E038B5054654
:10AE100010B97846FDF732F8094C2368072B02D9A0
:10AE20007846FDF72BF8EFF3108372B62068421CCA
:10AE30002260044A42F8205003B962B638BD00BF10
:10AE4000F8500020FC50002010B50E4B1B688342C8
:10AE5000044602D87846FDF711F8EFF3108172B678
:10AE6000094A6009012304F01F0403FA04F452F8AC
:10AE70002030234342F82030FFF734FF01B962B697
:10AE800010BD00BFF85000201C51002070B50D46C9
:10AE90001646044610B97846FCF7F0FF15B9784617
:10AEA000FCF7ECFFEFF3108372B60022A560E660BA
:10AEB0002274246003B962B670BD000070B5044608
:10AEC00010B97846FCF7DAFFA36813B97846FCF7A7
:10AED000D5FFEFF3108672B6237C03F0FF055BB954
:10AEE0000123064823742146FFF791F8FFF7FAFE85
:10AEF000284606B962B670BD1120FAE72451002039
:10AF000010B5044610B97846FCF7B8FF207C10BD98
:10AF10002DE9FF47324E337813B17846FCF7AEFF88
:10AF20000125DFF8CC802F4FDFF8C8903570002462
:10AF3000D8F800309C4212D32B48DFF8AC80FFF7E2
:10AF400080F8002750BB294C69462046FEF7FCFBE1
:10AF500090B300232846337004B0BDE8F087600941
:10AF600004F01F020123934057F82020134213D00E
:10AF7000EFF3108172B657F8202022EA030347F856
:10AF8000203001B962B659F824309847824618B982
:10AF90002046FFF759FF55460134C9E70468237C72
:10AFA00013B97846FCF76AFFE068A36898472774EE
:10AFB0004046FFF746F8C5E79DF80030012B09D061
:10AFC00008D3022BC0D1019B002BBDD0039902985E
:10AFD0009847B9E7019B002BB6D002989847B3E792
:10AFE0002C5100201C51002024510020E04F002053
:10AFF000F8500020FC500020FFF78ABFFCF772BF1A
:10B00000FFF7B4B800F0D3BF01F009B830B403299A
:10B0100056D8DFE801F00227275000241C70817AFF
:10B020005A7861F306025A70C17AD2B261F3C7123C
:10B030005A70C1680D04C1F3074205F47F0501F49D
:10B040007F412A430A43C2F307219A70120C1A71F6
:10B05000D9700189DC710A0A42EA0122A3F80520AD
:10B060001C7222E01970597801F0800162F3C71157
:10B070005970C1680C04C1F3074204F47F0401F461
:10B080007F4122430A439A70C2F30721120C1A71BE
:10B09000D97001890A0A42EA0122A3F805204188F1
:10B0A0000A0A42EA0122A3F80720026912BAC3F889
:10B0B000092030BC7047032200241A705C70B8E786
:10B0C000784630BCFCF7DABE7FB50E46154604461E
:10B0D00000B112B97846FCF7D1FE10220021684673
:10B0E0000DF008FB2B46324621466846FFF73EF836
:10B0F00004B070BD2DE9FF410B9D884616461C46E5
:10B10000074610B10AB103B115B97846FCF7B6FE8F
:10B110006B46424639463046FFF728F82B469DF8E5
:10B12000282021466846FFF721F804B0BDE8F081E9
:10B130002DE9F04786B0894600AF1446984606468A
:10B1400008B101B113B97846FCF798FE04F1180371
:10B1500023F00703ADEB030D264B0421186878603C
:10B160006A467818FFF7B0FF07F1080331466846D2
:10B170001022FEF7FBFF2246494668460DF0AFFA63
:10B180000123E2180DF8043069466B4607F1080008
:10B1900092B2FEF7EBFF9DF80F30464603F07F03B7
:10B1A00006F8013B04F1100A2246494604F1110554
:10B1B00004A80DF094FAADB202230DF80A302A4625
:10B1C0003346694607F10800FEF7D0FF31461022EA
:10B1D00068460DF084FA03230DF80A3007F10800E1
:10B1E00008F111032A466946FEF7C0FF1837BD462D
:10B1F000BDE8F087868F030070B50D4688B006461F
:10B2000000B111B97846FCF739FE114C04212068D1
:10B21000019004AA0DEB0100FFF756FF04AB314685
:10B2200018461022FEF7A2FF234602A953F8040F86
:10B2300002901B798DF80C3004AB18460522FEF7FE
:10B2400095FF082206A928460DF049FA08B070BDFE
:10B250008A8F030070B50D4686B0064600B111B95D
:10B260007846FCF70BFE0F4C54F8040B009002AA32
:10B2700068460421FFF728FF02AB3146184610222A
:10B28000FEF774FF2068019002AB042218460DEB14
:10B290000201FEF76BFF9DF8173003F03F032B70A0
:10B2A00006B070BD938F030030B50268037BD17A7E
:10B2B00087B000298DF808308368049214BF0821F4
:10B2C000042109330B440446039301A94368059301
:10B2D00002A801F04DF8D0B1237B012B0ED02568D8
:10B2E000FEF708FC286120680C30FEF7A7FB054636
:10B2F00020B101F0AFF8284607B030BD21680198B1
:10B3000000F0F7FA019B093323610025F3E70425D8
:10B31000F1E7000008B5084B58B91860074B012247
:10B320001A70FEF771FAFEF75FFABDE8084001F007
:10B3300021BC42681A60F1E73051002034510020EE
:10B3400008B561B3A0F5C87004282AD8DFE800F07A
:10B35000081603211E004968012001F093FF0BE04D
:10B36000124A4B681178994206D0003318BF012366
:10B370000120137001F01CFA002008BD496807295C
:10B3800011D8C9B2012001F05BFFF5E74968002040
:10B39000E3E74968072906D8C9B20020F3E70E2081
:10B3A00008BD052008BD072008BD00BF345100209E
:10B3B00010B50C46E1B1A0F5C87004281AD8DFE832
:10B3C00000F0080F03151300012001F06FFF60600B
:10B3D00002E0094B1B784B6004232360002010BD62
:10B3E000012001F041FFF2E70020EEE70020F8E73E
:10B3F0000E2010BD052010BD3451002010B50446AC
:10B4000010B97846FCF73AFD236813B97846FCF783
:10B4100035FD23685B6913B97846FCF72FFD0023DF
:10B4200023732046BDE81040FFF73EBF10B5044629
:10B4300010B97846FCF722FD236913B97846FCF76A
:10B440001DFD236813B97846FCF718FD23685B6976
:10B4500013B97846FCF712FD206900F0A7FAA1683D
:10B4600002460023206800F005FABDE8104000F015
:10B47000CBBF0000F0B50E4697B017460546002832
:10B4800044D000F097FA2946421B0EA80DF027F988
:10B4900008AC002300932A460EAB3146204600F04C
:10B4A000D7F8054650B99DF820303BB10B9BB3F15E
:10B4B000807F03D29DF92A30002B4ADA284617B044
:10B4C000F0BD414B1B689B073DD5404B1B68012BD2
:10B4D00039DD2F213E480DF0E1F970B12F213C48B4
:10B4E0000DF0DCF9411C3B4B3B4AD3F8043500928C
:10B4F0000220912200F074FC25E05C2134480DF01C
:10B50000CDF908B15C21EAE73149ECE70E25D5E732
:10B510009DF82A300394013B8DF82A304FF0FF3319
:10B52000049303A8012305968DF81830FFF7BCFE9D
:10B530000028C6D132460DF1410107980DF0CFF831
:10B5400003A8FFF773FF9DF82A3001338DF82A30E6
:10B5500033E00D9B13B97846FCF790FC314620464A
:10B5600000F01CFAC6B23B46224631460DF14100BE
:10B57000FDF7EEFB39460546204604F0AFF8174BC1
:10B580001B78D3B19DF82A30012B16D99DF82030B5
:10B59000012B05D103A9BDF8220009F08FFC60B989
:10B5A0000F4B1B68002BB3D09DF82A20BDF822104A
:10B5B000BDF8280098470028AAD10B99BDF82800AB
:10B5C000FCF7DAFC7AE700BF5C3300205833002038
:10B5D0009B8F030000B00040B68F03003451002061
:10B5E0003051002008B538B1012801D1032008BD31
:10B5F0007846FCF743FC002008BD70B5064688B0CD
:10B600000D4614460021052204A80DF073F8336995
:10B6100007221BBAA9180DF11900CDF815300DF04D
:10B620005EF870696A46113004A9FFF7E7FCAB1DAC
:10B630000DF10600E21D13F8011910F8014DAB429F
:10B6400081EA040102F8011DF5D108B070BD0000C7
:10B650002DE9F04F9BB004AF1D4697F880307B601A
:10B660008A461646044618B112B10DB1AA4202D15B
:10B670007846FCF703FC3078C009FEF745FA002352
:10B680002061636132787B6102F07F02FA60BB6106
:10B6900007F1180207F11401F86809F021FB4FF0D7
:10B6A000000807F1140353F82820002A46D000238D
:10B6B000FB74A7F848307B64F31DFB636261EB1DEC
:10B6C0002A463146204607F12409FB64C7F8389022
:10B6D000FFF793FF6B78DB09E3726B7803F07F036E
:10B6E000A372EB78AA781B0243EA02432A79134338
:10B6F000E3606B79A87940EA03202081FEF7B2FA73
:10B70000012814D1E27A002AAAF1090314BF082201
:10B71000042293420BD3E1682089FCF70FFC30B977
:10B7200007F11C01208909F0C9FB834640B3FB7C6B
:10B7300023BB08F10108B8F1020FB2D17B69002BDD
:10B74000A6D105205C37BD46BDE8F08F10F8012B6F
:10B750004FEA121B02F00F021CF80BB003F802BCF8
:10B760001CF8022003F8012C52E05C213A480DF04D
:10B7700095F808B15C215BE037495DE00020E1E726
:10B78000E37A7868002B14BF08220422AAF1070389
:10B7900087F854209B1AFA6B9BB2A7F840301344E9
:10B7A0003B65FFF71FFF4B4601465A462046FFF711
:10B7B0002DFC636907F11301013307F134007B634A
:10B7C000FFF722FCFB7C002BB3D0EB79287A40EA10
:10B7D00003206080FEF746FA204B20701B689B0711
:10B7E000A5D51F4B1B68032BA1DDB7F84010C7F888
:10B7F00008D04B00083323F00703ADEB030DD7F857
:10B800004CE0184B0DF11009D3F800C070464B46C0
:10B81000A0EB0E02914203F1020397D8002309F82E
:10B8200011300D482F210DF039F800289DD02F211F
:10B8300009480DF033F8411C0B4B0C4AD3F8043582
:10B8400001920B4A0092CDF80890E622042000F005
:10B85000C7FAD7F808D06AE7E38F03005C3300200B
:10B86000583300206033002000B0004001900300F6
:10B870002C8A0300F0B50C468FB016461F460546CD
:10B8800010B97846FCF7FAFA16B97846FCF7F6FADA
:10B89000012F02D97846FCF7F1FA3846FFF7A2FEED
:10B8A00001AF3B46014600222846FFF7AFFBEB7A8B
:10B8B0000697002B14BF082304238DF834306B69DE
:10B8C000A11C0133059389B2F31D0022ADF82010AD
:10B8D00005A8194407930B93ADF8282009920C9101
:10B8E000FFF790FB324631462846FFF786FE0FB041
:10B8F000F0BD38B50D46044610B97846FCF7BEFADF
:10B9000015B97846FCF7BAFA2889FEF7ABF9012891
:10B9100002D07846FCF7B2FA95F90A30002B02DA29
:10B920007846FCF7ABFAEB68B3F1807F02D3784638
:10B93000FCF7A4FA6B6913B97846FCF79FFA2B69F8
:10B9400003F00102237803F07F0343EAC21323705C
:10B950006A69127823F07F0302F07F021343237099
:10B960006378EA7A03F07F0343EAC213DBB26370C1
:10B97000AA7A23F07F0302F07F0213436370EB681F
:10B9800023711A0CA2701A0AE2702B89A3711A0A89
:10B9900062716B8823721A0AE27138BDC37A002B78
:10B9A00014BF082004200939081A70470938704765
:10B9B0000930704701307047436849B90278807890
:10B9C0001A441B78C31A12F8010C1844C0B270470D
:10B9D0005A185B5C12F8010CC01AF7E738B50D462F
:10B9E000044610B97846FCF749FA2378AB4202D8EE
:10B9F0007846FCF743FA29462046FFF7DDFF40B1C1
:10BA000063686278585DA378013B1840A36802FB25
:10BA1000003038BD38B50C46054610B97846FCF7FD
:10BA20002DFA2B78A34202D87846FCF727FA214654
:10BA30002846FFF7C1FF18B16A68135D013313553B
:10BA400038BD10B5044610B97846FCF717FA002344
:10BA500019462278934200D310BD6268D154013355
:10BA6000F7E710B54378044613B97846FCF706FAB1
:10BA70002378012B02D87846FCF700FAA36813B9A3
:10BA80007846FCF7FBF9636813B97846FCF7F6F9DA
:10BA9000A3783BB15A1E1A4204D12046BDE810409B
:10BAA000FFF7CFBF7846FCF7E9F9F6E738B50D4662
:10BAB000044610B97846FCF7E1F92378AB4202D886
:10BAC0007846FCF7DBF929462046BDE83840FFF709
:10BAD00073BF08B520B119B1FFF7BCFB002008BD4A
