:020000022000DC
:1060000000FD0020A57A0300CD7A0300CF7A0300BB
:10601000D17A0300D37A0300D57A03000000000090
:10602000000000000000000000000000D77A03001C
:10603000D97A030000000000DB7A0300DD7A030058
:10604000DF7A0300DF7A0300DF7A0300DF7A0300E0
:10605000DF7A0300DF7A030039720200DF7A03007F
:10606000DF7A0300DF7A030055710200DF7A030054
:10607000DF7A0300DF7A0300DF7A0300DF7A0300B0
:10608000DF7A0300DF7A0300593E0300DF7A030062
:10609000DF7A0300DF7A03007D6F0200DF7A0300FE
:1060A000DF7A0300DF7A0300DF7A0300DF7A030080
:1060B000DF7A0300DF7A0300000000000000000028
:1060C000DF7A0300DF7A0300DF7A0300DF7A030060
:1060D000DF7A0300DF7A0300DF7A030000000000AC
:1060E00000000000000000000000000000000000B0
:1060F00000000000000000000000000000000000A0
:10610000000000000000000000000000000000008F
:10611000000000000000000000000000000000007F
:10612000000000000000000000000000000000006F
:10613000000000000000000000000000000000005F
:10614000000000000000000000000000000000004F
:10615000000000000000000000000000000000003F
:10616000000000000000000000000000000000002F
:10617000000000000000000000000000000000001F
:10618000000000000000000000000000000000000F
:1061900000000000000000000000000000000000FF
:1061A00000000000000000000000000000000000EF
:1061B00000000000000000000000000000000000DF
:1061C00000000000000000000000000000000000CF
:1061D00000000000000000000000000000000000BF
:1061E00000000000000000000000000000000000AF
:1061F000000000000000000000000000000000009F
:1062000010B5054C237833B9044B13B10448AFF3F0
:1062100000800123237010BD08340020000000001E
:10622000E8A903000C4B43B10C480D4910B5AFF37E
:1062300000800C48036823B910BD0A48036833B9CD
:106240007047094B002BF7D0BDE810401847064BAC
:10625000002BF5D0184700BF00000000E8A903009C
:106260000C3400200434002000000000154B002BEB
:1062700008BF134B9D46A3F5803A00218B460F467D
:106280001348144A121A13F01FF80F4B002B00D0BA
:1062900098470E4B002B00D09847002000210400A7
:1062A0000D000D48002802D00C48AFF3008012F01A
:1062B000BDFF2000290000F097FC12F0A3FF00BFF3
:1062C0000000080000FD00200000000000000000A9
:1062D00008340020106500200000000000000000CD
:1062E00041DF704710B588B050238DF80430422349
:1062F0008DF8053052238DF8073045238DF808308E
:106300008DF80C308DF80F308DF8123059238DF840
:1063100013301B4B4D221B888DF809204F228DF81E
:106320000A20ADF81A3054229DF81C308DF80B204D
:106330008DF810204B228DF8112003F0FE0300226F
:106340005F2462F341038DF806408DF80D40ADF8EF
:1063500014204E24ADF81620ADF818208DF81C300E
:1063600001AA0B46014607488DF80E4002F01EFBBD
:1063700018B1054A8F2111F0B3FB08B010BD00BF62
:10638000C832002024360020D897030037B5A34C2C
:106390002378012B254600F0F28008D3022B00F071
:1063A0006281784603B0BDE8304009F037BF31283C
:1063B0002FD007DC0A2803D00D2801D0013009D1E5
:1063C00003B030BD332850D027DB34287AD03528AD
:1063D00000F0A580924B1B685904F1D5914B1B68C6
:1063E000032BEDDD2F21904813F042F8002800F038
:1063F000BD802F218C4813F03BF8411C8B4B8C4AFD
:10640000D3F804350092042040F21F120EF09CFBDA
:10641000D6E7884B01221A70D2E7814B1B685A04D9
:1064200017D5804B1B68032B13DD2F217E4813F0FB
:106430001FF888B12F217C4813F01AF8411C7B4BC0
:106440007D4AD3F80435009204204FF480720EF098
:106450007BFB01232B70B3E75C21734813F008F832
:1064600008B15C21E7E77049E9E7744801F088FF6B
:1064700004460028A4D06A4B1B685B04A0D5694B76
:106480001B68002B9CDD2F21674812F0F1FF80B1C3
:106490002F21654812F0ECFF411C644B684AD3F889
:1064A0000435009201944FF4847201200EF04CFBED
:1064B00086E75C215C4812F0DBFF08B15C21E8E76D
:1064C0005949EAE75D4801F07DFF044600283FF4A2
:1064D00077AF534B1B685D047FF572AF514B1B6860
:1064E000002B7FF76DAF2F214F4812F0C1FF68B12D
:1064F0002F214D4812F0BCFF411C4C4B514AD3F8A0
:106500000435009201944FF48872CEE75C2146482E
:1065100012F0AEFF08B15C21EBE74349EDE7404BD9
:106520001B68580417D53F4B1B68032B13DD2F2125
:106530003D4812F09DFF80B12F213B4812F098FF9B
:10654000411C3A4B404AD3F804350092042040F2F3
:1065500015120EF0F9FA02237CE75C21324812F0A2
:1065600087FF08B15C21E8E72F49EAE75C212E4864
:1065700012F07EFF08B15C213CE72B493EE7303842
:1065800009283FF61DAF2D4B81B2188807F040FA5D
:10659000234B04461B6828B35A0418D5214B1B68AB
:1065A000002B14DD2F21204812F062FF88B12F212B
:1065B0001D4812F05DFF411C1C4B244AD3F80435E2
:1065C0000092019440F22B1201200EF0BDFA00233C
:1065D00040E75C21144812F04BFF08B15C21E7E76B
:1065E0001149E9E75B04F2D50E4B1B68032BEEDD86
:1065F0002F210D4812F03CFF60B32F210A4812F002
:1066000037FF411C094B124AD3F80435009204208D
:1066100040F22F120EF098FAD9E700BF0838002098
:106620008433002080330020D897030000B000405E
:106630000B9503002E3400200098030098370020AB
:1066400027980300529803007E980300A498030043
:10665000CD9803005C210A4812F00AFF08B15C21C2
:10666000CCE70749CEE7303802283FF6A9AE054B04
:10667000042103EB0010FFF735FE002323709FE693
:10668000D8970300D8370020F0B5037889B00446C6
:10669000082B13D8DFE813F00900140039001200AA
:1066A00012000A011200B4005B009E4D29780129F6
:1066B00004D10430FFF716FE00232B7009B0F0BDA3
:1066C000994B1B685D04F9D5984B1B68032BF5DDCE
:1066D0002F21974812F0CCFE70B12F21944812F070
:1066E000C7FE411C934B944AD3F8043500929F2275
:1066F00004200EF029FAE1E75C218D4812F0B8FE83
:1067000008B15C21EAE78A49ECE7874B1B685C0427
:10671000D4D5864B1B68032BD0DD2F21844812F083
:10672000A7FE58B12F21824812F0A2FE411C814BD6
:10673000824AD3F804350092A322D9E75C217C4831
:1067400012F096FE08B15C21EDE77949EFE77C4D48
:106750007C4F29787C4E07EB4101308808F0F6FD2C
:1067600018B1734AA82111F0BBF92B78774AE06879
:106770007749C08A0988013302EB4303A26809F014
:106780000BF918B16A4AAC2111F0AAF9664B1B68E3
:1067900058041DD5654B1B68032B19DD2F21644858
:1067A00012F066FE18B32F21614812F061FE411C01
:1067B0002A78604B37F81220D3F804350292E26849
:1067C000D28A0192634A00920420B1220EF0BCF9F1
:1067D0002B78614A01332B7012883388C821134407
:1067E0004FF4F0100422338000F004FD66E75C21D2
:1067F0004F4812F03DFE08B15C21D5E74C49D7E780
:10680000102300220121406802F0F7F8464B0546AC
:1068100030B31B6859047FF551AF444B1B68002B04
:106820007FF74CAF2F21424812F022FE78B12F2182
:106830003F4812F01DFE411C3E4B484AD3F8043538
:1068400000920195C12201200EF07EF936E75C210D
:10685000374812F00DFE08B15C21E9E73449EBE757
:106860003D4A1B68217A11805A047FF527AF2F4BD0
:106870001B68032B7FF722AF2F212D4812F0F8FD64
:1068800058B12F212A4812F0F3FD411C294B344AFC
:10689000D3F804350092C6222AE75C21244812F07E
:1068A000E7FD08B15C21EDE72149EFE72D4B04AA94
:1068B00003F11007164618685968154603C50833D2
:1068C000BB422A46F7D110223146606802F0A1F897
:1068D00018B1174ACF2111F003F9134B1B685B0461
:1068E0007FF5ECAE114B1B68032B7FF7E7AE2F2132
:1068F0000F4812F0BDFD58B12F210D4812F0B8FD20
:10690000411C0C4B184AD3F804350092D022EFE614
:106910005C21074812F0ACFD08B15C21EDE70449A9
:10692000EFE700BF2E3400208433002080330020A6
:10693000D897030000B000407A9603009F960300AA
:106940003C34002026340020C8320020303400209F
:106950003A340020BF9603003E340020EF96030037
:1069600023970300F09403004097030038B5174ABB
:106970001748002101F0BEFC20B1164A4FF4A27165
:1069800011F0AEF8144D124C2988208807F0A2F9B6
:1069900020B1104A40F2451111F0A2F82988208850
:1069A00007F014FA20B10B4A4FF4A37111F098F8D4
:1069B0000621208807F04EFA30B1064A40F247110E
:1069C000BDE8384011F08CB838BD00BFDD69020069
:1069D00098370020D8970300243400202DE9F04197
:1069E00084B00378744D0A2B04AF04461DD00B2BE2
:1069F0004AD0042B40F0B8802B6858042FD56F4B39
:106A00001B68032B2BDD2F216D4812F031FD002870
:106A100031D02F216A4812F02BFD411C694B6A4A84
:106A2000D3F804350092E22216E02B685C0416D5F8
:106A3000624B1B68032B12DD2F21614812F018FDF9
:106A400080B12F215E4812F013FD411C5D4B5F4A5F
:106A5000D3F804350092DE2204200EF075F8BD460E
:106A6000BDE8F0815C21564812F002FD08B15C21BE
:106A7000E8E75349EAE75C21514812F0F9FC08B114
:106A80005C21C7E74E49C9E72B68590435D54B4B04
:106A90001B68032B31DD4E4BD0F804E01968E84643
:106AA0008AB004AE00231EF80320100902F00F0282
:106AB000085C06F81300885C06EB43020133102BD8
:106AC0005070F0D1002386F820302F213C4812F07E
:106AD000CFFC002836D02F21394812F0C9FC411CC8
:106AE000384B3C4AD3F8043501923B4A0092029657
:106AF000E62204200EF028F8C5462B685A0418D563
:106B00002E4B1B68032B14DD2F212D4812F0B0FCF7
:106B100008B32F212A4812F0ABFC411C294B227AE2
:106B2000D3F8043501922D4A00920420E7220EF09A
:106B30000BF8207A2A4B6168102203EB001012F048
:106B4000B8FB8CE75C211E4812F092FC08B15C2176
:106B5000C2E71B49C4E75C21194812F089FC08B15F
:106B60005C21D7E71649D9E72B685B047FF577AF3F
:106B7000124B1B68032B7FF772AF2F21104812F0C6
:106B800077FC80B12F210E4812F072FC411C0D4B96
:106B90002278D3F804350192124A00920420EC22A4
:106BA0000DF0D2FF5BE75C21054812F061FC08B1F3
:106BB0005C21E8E70249EAE78433002080330020C3
:106BC000D897030000B00040879703006597030043
:106BD00088330020A3970300B3970300BB970300FB
:106BE000D8370020CA97030080B5002392B0012255
:106BF0004FF0A041032002FA03F414F4F01F18BF71
:106C000003F5E07403F1010318BF41F82400202BC1
:106C1000F1D1974E974A04214FF4C0400DF07AFF0E
:106C200033685A0419D5944B1B68032B15DD2F21AB
:106C3000924812F01DFC002800F008812F218F4897
:106C400012F016FC411C8E4B8E4AD3F8043500928C
:106C500004204FF4B2720DF077FF01238DF80C3051
:106C600000238DF80D308DF80E3007238DF80F308E
:106C7000039800F08FF920B1804A40F2671110F0BC
:106C80002FFF242200210DEB020012F01DFB012337
:106C90008DF8243007238DF827308DF82C300DF136
:106CA0000B01794B119309A800F026F920B1734A22
:106CB00040F2531110F014FF9DF80B1049BB102245
:106CC00005A812F001FB012304A8ADF81030ADF8BF
:106CD000123008F0EFFA20B1684A40F2591110F072
:106CE000FFFE6A4A6A49002008F0E8FC20B1634AC6
:106CF0004FF4AD7110F0F4FE6449664B098805AAA3
:106D0000002008F085FE20B15C4A40F25B1110F0D3
:106D1000E7FEEFF3108772B65F4CA168012581B9D9
:106D20005E4BA560D3F880205D4802402260C3F826
:106D30008000D3F8842062604FF0FF32C3F88420D3
:106D40000D4607B962B600F0BFF820B14B4A40F2D9
:106D50006D1110F0C5FE6421524800F013FA524A3A
:106D60001068516809AB03C311891980927A4F49A1
:106D70004F489A7001F018FE18B1404A7C2110F07B
:106D8000AFFE4C4B0093494A49494B4809AB01F0CF
:106D9000DEFD18B1394A7D2110F0A2FE474802F00D
:106DA000FFFC0146444801F0EBFD18B1334A7E2157
:106DB00010F096FE424801F027FB01463E4801F0E4
:106DC000DFFD18B12D4A7F2110F08AFE394801F00D
:106DD00027FE18B1294A802110F082FE33685B0437
:106DE00018D5254B1B68032B14DD2F21234812F0E7
:106DF0003FFB002833D02F21204812F039FB411CE3
:106E00001F4B304AD3F804350092042040F271122F
:106E10000DF09AFE00214FF4F01000F0E1F902228B
:106E2000C8214FF4F01000F0E5F9A3685BB155B943
:106E3000EFF3108372B6194A2168116061685160DE
:106E4000A56003B962B6FFF74BFAFCE75C210B487B
:106E500012F00EFB08B15C21F1E60849F3E65C2173
:106E6000064812F005FB08B15C21C5E70349C7E7F6
:106E700084330020E94A030080330020D8970300C0
:106E800000B00040369603006D6902003A340020DD
:106E900026960300243400206464002000E100E012
:106EA000FC06FFBD8D630200009503004034002006
:106EB0005837002089660200243600206034002004
:106EC000983700200B9503000BF07ABF08B506F049
:106ED00095FC08F07DF9BDE808400BF0B9B907B59D
:106EE00001A808F023FABDF80400003018BF012003
:106EF00003B05DF804FB0000F7B50F46002831D061
:106F000004460FCC184E35460FC50FCC0FC5304682
:106F100023682B600BF0E8FE044600BB08F0ACF9D8
:106F200006F076FC306905F053FA0446B8B9337FB1
:106F30000193B3690093014673690C484FF6FF72E1
:106F400005F08CFC044650B9336A03B1984708F049
:106F500061F806F0C7FBFFF7C2FF07B138702046A3
:106F600003B0F0BD0E24FAE7683800200C3800208A
:106F70004BDF704710DF704760DF704707B501A82F
:106F8000FFF7F6FF10B103B05DF804FB01980BF0BA
:106F900075FFF4E730B5634C87B02368039058045D
:106FA00016D5614B1B68032B12DD2F215F4812F0B1
:106FB0005FFA18B32F215D4812F05AFA411C5C4B5E
:106FC0005C4AD3F804350092042070220DF0BCFD19
:106FD000594903A8FFF7CEFF054600287BD1574A41
:106FE000E02382F8163392F816335B09012B02D99D
:106FF000042B40F08E8042F202056CE05C214B488D
:1070000012F036FA08B15C21D5E74849D7E71A688B
:1070100042F480021A6023685B0417D5424B1B6858
:10702000032B13DD2F21414812F022FA002855D0FE
:107030002F213E4812F01CFA411C3D4B404AD3F828
:107040000435009204204D220DF07EFD3D4B04934B
:10705000049B05932368590419D5334B1B68032BF4
:1070600015DD2F21314812F003FA00283FD02F21DF
:107070002E4812F0FDF9411C2D4BD3F80435049A2B
:107080000192314A0092042058220DF05DFD05A8BE
:10709000FFF772FF049B059A9A4205461BD02368AE
:1070A0005A0418D5204B1B68012B14DD2F211F48D3
:1070B00012F0DEF920B32F211C4812F0D9F9411C3F
:1070C0001B4B059AD3F804350192204A0092022006
:1070D00068220DF039FD284607B030BD5C21134809
:1070E00012F0C6F908B15C21A3E71049A5E75C21BD
:1070F0000E4812F0BDF908B15C21B9E70B49BBE7B6
:107100005C210A4812F0B4F908B15C21D4E70749C0
:10711000D6E70F4B996800297FF479AF4FF48003CD
:10712000136078E78433002080330020DA9803006E
:1071300000B00040089903001900030000E100E0DE
:1071400024990300C83200203599030045990300B3
:107150006464002038B5094CD4F8402162B1084D70
:107160002A6832B110F0EEFD002802DB2B68984748
:10717000F8E70023C4F8403138BD00BF00A000404C
:107180008C380020134B10B5134C18600023C4F842
:10719000043547F61220C4F808350923C4F8103521
:1071A0004FF47A720023A1FB000111F0A3FE01232A
:1071B0004FF48032C4F84005C4F80032C4F8042308
:1071C0002360064BE02283F80A234FF480621A60A2
:1071D00010BD00BF8C38002000A0004000E100E09E
:1071E0004FF0A04311B1C3F80C057047C3F8080570
:1071F000704700002DE9F0470E4D81460F464FEADB
:10720000420A00244FF0A04845F00105544501D141
:10721000BDE8F087D8F8043583EA0903C8F80435D7
:107220000FB90134F2E73E464FF47A40A847013ED9
:10723000FAD1F6E780990300124B70B50024124E84
:10724000124DC3F87C414FF0A043A15DD3F8102547
:1072500001238B40934311D00D492B68D1F80425AD
:10726000981A48BFD01A43F23333984206D9D1F85E
:1072700004352B60074B20461B6898470134042CCB
:10728000E1D170BD00600040869903009438002071
:1072900000B000409038002013B5154B1B689B04CC
:1072A000044619D5134B1B68012B15DD2F211248FD
:1072B00012F0DEF898B12F210F4812F0D9F8411CD6
:1072C0000E4B227ED3F8043501920D4A0092022023
:1072D0004FF4B0720DF038FC207E02B010BD5C217E
:1072E000054812F0C5F808B15C21E5E70249E7E777
:1072F0008433002080330020BF9C030000B0004096
:10730000EA9C03001FB50023024601A801930293E3
:1073100003938DF80410904705B05DF804FB00005E
:107320007FB5067E4B68042E04465D680ED12B782F
:10733000002B36D003690221DB6804309847E06BEC
:107340003146FFF7DFFF012004B070BD164B1B680C
:107350009B041BD5154B1B68032B17DD2F211448ED
:1073600012F086F8A0B12F21114812F081F8411CCB
:10737000104B227ED3F8043502922A7801920E4AED
:10738000009204204FF420720DF0DEFB207EDBE73C
:107390005C21074812F06CF808B15C21E4E704496D
:1073A000E6E70220D0E700BF8433002080330020CE
:1073B000BF9C030000B00040599C030037B5044651
:1073C000007E4B6802285D6828D003287DD0012804
:1073D000764B40F0C3802A7812B3012A46D01B684E
:1073E00099041AD5724B1B68042B16DD2F217148A6
:1073F00012F03EF800285FD02F216E4812F038F8C6
:10740000411C6D4B2A78D3F8043501926B4A0092E7
:10741000052040F2BB120DF097FB207E03B030BD7B
:107420001B689C04FAD5624B1B68042BF6DD2F21E8
:10743000604812F01DF880B12F215E4812F018F854
:10744000411C5D4B5E4AD3F804350092052040F2A2
:10745000B3120DF079FB0120E0E75C21554812F0F2
:1074600007F808B15C21E8E75249EAE71B6898048D
:1074700017D54F4B1B68042B13DD2F214D4811F0FE
:10748000F7FF80B12F214B4811F0F2FF411C4A4B0E
:107490004C4AD3F804350092052040F2B7120DF0A3
:1074A00053FB0220BAE75C21424811F0E1FF08B12A
:1074B0005C21E8E73F49EAE75C213E4811F0D8FF4C
:1074C00008B15C2199E73B499BE72B78052B1DD838
:1074D00001A252F823F000BF57740200F1740200B9
:1074E000FB7402000575020009750200A374020016
:1074F0000621E06BFFF706FFD3E70821E06BFFF7FB
:1075000001FFA8E70521F9E70921F7E7274B1B68E9
:107510009A04A0D5264B1B68032B9CDD2F21254800
:1075200011F0A6FF88B12F21224811F0A1FF411CC4
:10753000214B2A78D3F804350192234A0092042083
:1075400040F2DF120DF000FB85E75C21194811F0D5
:107550008FFF08B15C21E7E71649E9E71B689B0448
:107560007FF55BAF124B1B68032B7FF756AF2F21C4
:10757000104811F07DFF78B12F210E4811F078FFEF
:10758000411C0D4B2A78D3F8043501920B4A009226
:1075900004204FF4F2723EE75C21064811F068FFC8
:1075A00008B15C21E9E70349EBE700BF8433002021
:1075B00080330020BF9C030000B00040EF9A03001E
:1075C000C29A0300DB9A0300049B030037B504460C
:1075D000007E052829D14B685D682B78032B5AD88B
:1075E000DFE803F0022E55573F4B1B68990417D56F
:1075F0003E4B1B68042B13DD2F213D4811F038FF53
:10760000A8B12F213A4811F033FF411C394B3A4AB7
:10761000D3F80435009205204FF4C6720DF094FAA9
:107620000021E06BFFF76EFE012003B030BD5C214E
:107630002F4811F01DFF08B15C21E3E72C49E5E775
:10764000294B1B689A0417D5284B1B68042B13DDA4
:107650002F21274811F00CFF80B12F21244811F071
:1076600007FF411C234B254AD3F80435009205201F
:1076700040F291120DF068FA0121D2E75C211C481A
:1076800011F0F6FE08B15C21E8E71949EAE70221AA
:10769000C7E70321C5E7144B1B689B04C4D5134BF4
:1076A0001B68012BC0DD2F21114811F0E1FE88B1CC
:1076B0002F210F4811F0DCFE411C0E4B2A78D3F825
:1076C000043501920E4A0092022040F2A1120DF000
:1076D0003BFAA9E75C21064811F0CAFE08B15C211B
:1076E000E7E70349E9E700BF843300208033002047
:1076F000BF9C030000B00040F79B0300199C0300EF
:107700003D9C030010B5037E032B044603D3042BDA
:1077100005D9052B0CD0784608F080FD0CE00369F4
:1077200002210430DB6898470421E06BFFF7EAFD93
:107730000A21E06BFFF7E6FD012010BD10B50385BF
:107740000123018480F82A304FF6FF71084C4184F0
:107750000223446280F82B30028641861C3006F0FA
:1077600023FE20B17846BDE8104008F057BD10BD9B
:107770009938002037B5037E022B04460D4614D1FC
:107780008B88412B02D9784608F048FDAA881B480F
:10779000A91D11F08EFD2046AB8848F2600212212F
:1077A000FFF7CCFF042003B030BD154B1B689B04D2
:1077B00019D5144B1B68012B15DD2F21124811F030
:1077C00057FE90B12F21104811F052FE411C0F4B73
:1077D000227ED3F8043501920D4A0092022040F235
:1077E000D1220DF0B1F9207EDDE75C21064811F0D1
:1077F0003FFE08B15C21E6E70349E8E7993800203D
:107800008433002080330020BF9C030000B0004080
:10781000739B030010B5037E012B04460ED110228A
:107820000431094811F045FD2046102348F2630257
:1078300048F26201FFF782FF032010BD784608F08E
:10784000EDFC207E10BD00BF9938002013B5037EEB
:10785000022B04460CD11B4B0A791A7048F26101C5
:10786000012348F26302FFF769FF032002B010BD55
:10787000154B1B689B0419D5144B1B68012B15DD98
:107880002F21134811F0F4FD90B12F21104811F071
:10789000EFFD411C0F4B227ED3F8043501920E4AB6
:1078A0000092022040F23D220DF04EF90120DDE76A
:1078B0005C21074811F0DCFD08B15C21E6E70449D2
:1078C000E8E700BF9938002084330020803300208F
:1078D000BF9C030000B00040989A030013B5037EDC
:1078E000012B044609D1002348F2670248F26401E3
:1078F000FFF724FF052002B010BD144B1B689B044A
:1079000019D5134B1B68012B15DD2F21114811F0E0
:10791000AFFD90B12F210F4811F0AAFD411C0E4B75
:10792000227ED3F8043501920C4A0092022040F2E4
:107930007D120DF009F9207EDDE75C21054811F08C
:1079400097FD08B15C21E6E70249E8E784330020AF
:1079500080330020BF9C030000B00040BC9B0300AC
:1079600013B5037E012B044609D1002348F26702B8
:1079700048F26501FFF7E2FE052002B010BD144B8E
:107980001B689B0419D5134B1B68012B15DD2F2198
:10799000114811F06DFD90B12F210F4811F068FDD5
:1079A000411C0E4B227ED3F8043501920C4A009202
:1079B00002204FF4B7720DF0C7F8207EDDE75C219E
:1079C000054811F055FD08B15C21E6E70249E8E7FA
:1079D0008433002080330020BF9C030000B00040AF
:1079E000DA9B03002DE9F041384C237896B0074626
:1079F0005BB90123DFF8F480354E237004A94046BB
:107A00000AF032FB20B10023237016B0BDE8F081EC
:107A100033689A041BD52F4B1B68042B17DD2F21CD
:107A20002D4811F025FD00283DD02F212A4811F0C6
:107A30001FFD411C294B9DF81020D3F804350192FD
:107A4000274A0092052040F2E5220DF07DF89DF8CE
:107A50001020244B04A953F82230384698473B7E27
:107A600083420546CAD033689B041AD5194B1B685C
:107A7000042B16DD2F21184811F0FAFCE0B12F215C
:107A8000154811F0F5FC411C144BD3F80435029550
:107A90003A7E0192144A0092052040F2EF220DF046
:107AA00053F83D76AAE75C210B4811F0E1FC08B1E0
:107AB0005C21BBE70849BDE75C21074811F0D8FC11
:107AC00008B15C21DCE70449DEE700BF98380020FC
:107AD0008433002080330020BF9C030000B00040AE
:107AE000399D0300609A0300459D0300DC380020A7
:107AF00030B5154695B00C4611B9784608F08EFBA6
:107B0000012D2DD005D3022D65D0784608F086FBD7
:107B100056E0434B1B68990452D5424B1B68042B1B
:107B20004EDD2F21404811F0A3FC80B12F213E48AB
:107B300011F09EFC411C3D4B228CD3F80435019280
:107B40003B4A00920520EA220CF0FEFF38E05C215F
:107B5000354811F08DFC08B15C21E8E73249EAE7CD
:107B60002F4B1B689A0418D52E4B1B68012B14DD74
:107B70002F212D4811F07CFC20B32F212A4811F031
:107B800077FC411C294B228CD3F804350192294AF9
:107B900000920220EF220CF0D7FF0021482202A819
:107BA00011F092FB0D2302A923488DF808300AF04A
:107BB00033FA10B1784608F031FB2046FFF712FF88
:107BC00015B030BD5C21184811F052FC08B15C21A1
:107BD000D4E71549D6E7124B1B689B04F0D5114B2F
:107BE0001B68012BECDD2F210F4811F041FC70B117
:107BF0002F210D4811F03CFC411C0C4B228CD3F87A
:107C0000043501920D4A00920220F7229CE75C2184
:107C1000054811F02DFC08B15C21EAE70249ECE7C8
:107C20008433002080330020BF9C030000B000405C
:107C3000B4990300CE990300DC380020F3990300C7
:107C400030B50D4693B0044610B9784608F0E6FA10
:107C500048220021684611F037FB07236946064891
:107C60008DF800308DF804500AF0D6F9201FFFF788
:107C7000B9FE13B030BD00BFDC38002070B50E4631
:107C800092B0054600B111B9784608F0C7FA2B7DCD
:107C9000012B14D112AC0B2304F8483D10223146BD
:107CA00001A811F006FB214606480AF0B5F9044682
:107CB00010B9281FFFF796FE204612B070BD0824A9
:107CC000FAE700BFDC38002010B592B0B0B1A9B11E
:107CD0000C208DF800000DF10600ADF8042011F025
:107CE000E8FA694606480AF097F9044618B9054BC0
:107CF0001868FFF777FE204612B010BD0E24FAE791
:107D0000DC3800208039002008B505F077FE30F01F
:107D1000040304D07846BDE8084008F07FBA08BDE7
:107D200070B5037E022B88B005460C4625D0042B87
:107D3000424B1B685DD19A0418D5414B1B68042B3C
:107D400014DD2F213F4811F093FB00283BD02F2159
:107D50003C4811F08DFB411C3B4B3C4AD3F80435A9
:107D60000092052040F28A220CF0EEFE288806F0F0
:107D7000E7FA10B1784608F051FA61684B681B7851
:107D800053BB48F26002ADF810204FF6FF72ADF819
:107D900012202E4603AA05920122ADF818208DF874
:107DA0001A300224032304AA36F8040B8DF80C3091
:107DB0008DF81B40FFF7A8FF2B6930465B6898479A
:107DC000204608B070BD5C211E4811F051FB08B17F
:107DD0005C21BDE71B49BFE71D4B22791A7028467D
:107DE000012348F2630248F26101FFF7A7FC032078
:107DF000E7E79B0417D5124B1B68032B13DD2F21DC
:107E0000104811F035FB80B12F210E4811F030FBE6
:107E1000411C0D4B0F4AD3F80435009204204FF457
:107E20002A720CF091FE287ECBE75C21054811F008
:107E30001FFB08B15C21E8E70249EAE78433002030
:107E400080330020BF9C030000B000407E9C0300F4
:107E5000993800208C9C03002DE9F04188B048F24D
:107E60006003ADF810304FF6FF73ADF81230057EA9
:107E700003AB022205930123ADF8183095424FF071
:107E8000000304460E468DF81A308DF81B200AD0E8
:107E9000042D1ED1208871688DF80C3004AAFFF7DC
:107EA00033FF207E12E00746496837F8040BD1F80B
:107EB00004808DF80C3004AAFFF726FF726823694E
:107EC00012891B68384641469847284608B0BDE8E5
:107ED000F081144B1B689B0419D5134B1B68032BB3
:107EE00015DD2F21114811F0C3FA90B12F210F4851
:107EF00011F0BEFA411C0E4B227ED3F804350192DC
:107F00000C4A009204204FF419720CF01DFE01235C
:107F1000C0E75C21054811F0ABFA08B15C21E6E747
:107F20000249E8E78433002080330020BF9C03002F
:107F300000B000408F9B0300F0B54B685E68037E85
:107F4000013B8BB004460F46032B7AD8DFE803F0E1
:107F500009090202008806F0F3F910B1784608F02A
:107F60005DF948F26303ADF818304FF6FF73ADF8D2
:107F70001A3005AB079325460223ADF820300022C6
:107F80008DF8233005238DF822208DF8143006AAB1
:107F90000123796835F8040B8DF81530FFF7B4FE2E
:107FA0003378042B1AD8DFE803F012030707070021
:107FB0000721E06BFFF7A6F923697178DB68284693
:107FC00098470421E06BFFF79DF9012004E0236945
:107FD00028469B68984702200BB0F0BD2369022118
:107FE000DB68284698470421E06BFFF78BF92A4BA2
:107FF0001B689A04E9D5294B1B68012BE5DD2F216D
:10800000274811F035FA98B12F21254811F030FAA0
:10801000411C244B227ED3F804350292327801921F
:10802000214A0092022040F223220CF08DFDCCE781
:108030005C211B4811F01CFA08B15C21E5E71849E6
:10804000E7E7154B1B689B041BD5144B1B68012BE2
:1080500017DD2F21124811F00BFAA0B12F21104883
:1080600011F006FA411C0F4B227ED3F80435029220
:10807000327801920D4A0092022040F229220CF03F
:1080800063FD207EA8E75C21054811F0F1F908B1F5
:108090005C21E4E70249E6E78433002080330020D6
:1080A000BF9C030000B00040249B0300479B0300DB
:1080B00070B58AB048F26D030222ADF818304FF661
:1080C000FF73ADF820208DF82320ADF81A30027E22
:1080D00002AB07930E46002349688DF82230012A2F
:1080E00004464D6815D18DF8083000882B7C8DF83A
:1080F000093006AAFFF708FE0B238DF80C302B7C05
:108100008DF814300495E36B03A89847207E0AB0DD
:1081100070BD194B1B689B0419D5184B1B68032BAA
:1081200015DD2F21164811F0A3F9E0B12F211448D5
:1081300011F09EF9411C134B227ED3F804350192B5
:10814000114A009204204FF4A9720CF0FDFC0123A7
:108150008DF8083006AA2B7C716820888DF80930CC
:10816000FFF7D2FDD2E75C21054811F081F908B193
:108170005C21DCE70249DEE7843300208033002005
:10818000BF9C030000B00040159D03002DE9F041A5
:108190000C469EB0154612B9784608F03FF8534B8E
:1081A00001AA03F1280E174618685968164603C637
:1081B000083373453246F7D11B8833802188122952
:1081C0000AD108238DF830302389013B9BB2402B24
:1081D00014D91EB0BDE8F0810022062000FB02F396
:1081E000FE5A8E4230D11EAA1344228933F8721CE3
:1081F0009142EED113F8703C8DF830301EAE4FF640
:10820000FF7826F8788D2888314605F01FFC002875
:108210004AD1BDF80000404546D0394607F01CF968
:10822000002841D1BDF80620E3899A423CD10CA92F
:108230002F480D9409F0F0FE10B1784607F0EEFFDC
:108240002846FFF7CFFBC4E70132072AC6D1C0E7B3
:1082500004238DF800300123ADF80C3000238DF895
:108260000E300223ADF8042002968DF80F303A4606
:1082700021462888FFF748FDABE705238DF800303D
:1082800048F26703ADF8043002960123ADF80C30D4
:10829000EDE706238DF8003000238DF80130ADF8AE
:1082A000042002960223F1E74FF6FF73ADF8063083
:1082B000238848F2630293428BD00BD8112B05D34D
:1082C000122B48F26002C3D9934282D0784607F05D
:1082D000A5FF7EE748F26A018B42CED048F26C01DE
:1082E0008B42D6D048F26702EEE700BF8A990300BE
:1082F000DC38002030B50D4687B0044600282FD06A
:10830000002A2DD0174BC2631860174802238360E0
:10831000164B03604823436009F064FE48F20403EF
:10832000ADF802304FF6FF73ADF80030104B0293FA
:1083300007230393214600236846ADF804500494B4
:10834000059305F079FA48B92388A383094BA36301
:10835000094B636301232376084B187007B030BDC7
:108360000E20FBE780390020DC380020F0380020A8
:10837000289A0300F17A020080C3C90198380020CE
:1083800030B5054693B0B0B1037E012B15D148221C
:108390000021684610F098FF0223694608488DF8CE
:1083A000003009F039FE044610B92846FFF71AFBE1
:1083B000204613B030BD0E24FAE70824F8E700BFCA
:1083C000DC38002030B5054693B0B0B1037E012BF8
:1083D00015D148220021684610F076FF0323694634
:1083E00008488DF8003009F017FE044610B92846F9
:1083F000FFF7F8FA204613B030BD0E24FAE7082440
:10840000F8E700BFDC38002010B5044610B9784604
:1084100007F004FF04232372014BE360201D10BD0D
:10842000149A030000B5036993F80B2189B05AB17F
:10843000002283F80B21022201938DF800208DF891
:108440000810DB686846984709B05DF804FB10B572
:10845000046994F80B31012B88B00FD18DF80030EE
:1084600068460194E368984704F1F5020021A0688A
:1084700000F000FB20B9032384F80B3108B010BDD5
:10848000A068836802211B699847F7E71FB5044677
:1084900000F1D50100F1A5036A4600F021FC694610
:1084A000A06800F01EFB10B90F2384F80B3104B054
:1084B00010BD30B590F80C3189B00446032B3BD881
:1084C000DFE803F0312B1D0200F1C505294600F05D
:1084D000D8FC03238DF8003094F806318DF809306C
:1084E00094F807318DF8083001940395102384F82F
:1084F0000B316846E3689847002009B030BD04237B
:108500008DF8003090F806318DF8093090F8073179
:108510008DF8083001900B23E9E705238DF8003032
:1085200001900C23E3E710220021C53010F0CCFEAF
:108530002046FFF7ABFFE0E70320DEE710B588B089
:10854000044600F0C7FB88B10A2384F80B310923E5
:108550008DF800306369039304F1180302936846B1
:108560000194E3689847002008B010BD04F1580159
:10857000204600F06BFC0028F6D12046FFF799FF5B
:10858000F2E710B5046994F80B31062B88B01CD1C2
:1085900094F8082152B18DF80030092384F80B318A
:1085A0000194E3686846984708B010BD2169A06847
:1085B00000F084FA18B9082384F80B31F4E7A068B6
:1085C000836802211B699847EEE7072BECD1204610
:1085D000FFF7B4FFE8E70000F0B50D46A3B004696B
:1085E0001146284600F038FA20B9A06883680221B5
:1085F0001B6902E12B78013B082BF6D801A252F847
:1086000023F000BF29860200EB8502009986020054
:10861000B9860200C9860200F5860200EB850200D9
:10862000CF870200FF87020094F80B31032B31D172
:108630000B22691C04F1F60010F03BFE042384F8C1
:108640000B3107238DF864306B788DF86C301A94F9
:108650006A88130A43EA0223ADF86D302B798DF84E
:108660006F306B798DF87030AB798DF87130B5F86B
:108670000720130A43EA0223ADF872306B7A8DF8B3
:1086800074306A89130A43EA0223ADF87530E3684F
:1086900019A8984723B0F0BD94F80B31082BF9D1F5
:1086A0004022691C04F1180010F003FE2046FFF779
:1086B00045FF0028EED098E794F80B31102BE9D154
:1086C0002046FFF7E3FEF4E794F80B310F2BE1D1DE
:1086D000691C102204F1E50010F0EBFD04F1A50186
:1086E000A06800F011FA00287FF47FAF112384F80E
:1086F0000B31CFE794F80B31112BCBD11022691C31
:1087000004F1B50010F0D5FD204600F0FFFB002875
:108710003FF46BAF01AD05AE04F178032A46314654
:10872000204609AF00F03CFB0723102204F58C71B2
:1087300038468DF8403010F0BCFDD4F82A311A0EBE
:10874000190242EA036201F47F011B0A0A4303F49F
:108750007F431343B4F82E21CDF83730130A43EA90
:108760000223B4F82821ADF83B30130A43EA022370
:1087700094F83021ADF834309DF836301996C2F3B4
:10878000400161F3000362F341036FF387038DF847
:1087900036301923ADF870300DF141031F930DF100
:1087A0005A03209300231D93ADF8783019A80823AD
:1087B0001A951B978DF884300BF054FB10A9A06814
:1087C00000F0B5F900287FF410AF13238FE794F879
:1087D0000B31132B7FF45EAF08238DF8643004F166
:1087E00078031B9304F58C731A941C93E36819A8FF
:1087F0009847A06883681B69002198474AE70A23C5
:108800008DF864306B781A948DF86C30E36819A891
:108810009847EAE670B590F80B310E4604461146CB
:10882000A3B985680A4AEA6000F58C7000F80F3C2D
:10883000192210F03EFDAB68064ADB683146284637
:10884000984720B9012384F80B3170BD082070BD12
:108850005C9D03000087930337B5044690F80B0135
:10886000042836D1102B32D863BB81BB022594F883
:1088700010018DF8005001294FF0000500F00100B3
:1088800084F8072108BF2A4684F80C1184F80631C1
:1088900084F8080108BF2B468DF802008DF80310FC
:1088A0008DF80420694604F1F502A0688DF80150A6
:1088B0008DF8053000F0F2F810B9062384F80B317A
:1088C00003B030BD19B1102BD0D00129CED1092071
:1088D000F6E70820F4E738B5044694F80B310B3B73
:1088E000012B2AD8102A2AD894F80651954226D16D
:1088F00004F1C50010F0DDFC05F1C500C5F1100262
:108900000021204410F0E0FC94F80B310B2B04D034
:108910002046BDE83840FFF7B9BD04F1C40304F1B7
:10892000D50204F1CC0112F8015C587803F8015F1C
:108930008B4202F8010DF6D1EAE7082038BD092084
:1089400038BD00790B79C31A58425841704738B581
:10895000049D88B181B17AB173B16DB190F80B41CA
:1089600064B9C5600161426119460B2200F20D1025
:1089700010F09FFC204638BD0E2038BD082038BDC1
:1089800038B50D46044650B149B1064A0CF080F89E
:1089900030B92C612A7963681343636038BD0E20B7
:1089A00038BD00BF4389020000F0EAB9F8B50E46B1
:1089B00015461F460446E0B1D9B1D2B1138AB3F5CA
:1089C000805F01D30B20F8BDD08A0AF091F801280E
:1089D000F8D1206840B9A06068B12A4631462046E7
:1089E000BDE8F840FFF716BF0379BB42F3D000683B
:1089F000F0E70E20F8BD0620F8BD10B490F809414C
:108A00001CB95DF8044BFFF727BF08205DF8044B45
:108A1000704790F809310BB9FFF75DBF07F0FABA5C
:108A200008B518B100F0F4F8002008BD0E2008BD0C
:108A300070B5044616460D4611B9784607F0EEFBB0
:108A400014B9784607F0EAFBA36832462946204667
:108A50001B68BDE87040184748B10378092B05D85A
:108A6000034AD05C431A584258417047002070476F
:108A70006C9D030013B5002304468DF805101046C5
:108A80000DF1050101228DF8043010F012FC0222D4
:108A900001A92046FFF7CCFF02B010BD38B505464E
:108AA0000C4602F10C000131052210F002FC2146B7
:108AB00028460622BDE83840FFF7BABF30B593B06C
:108AC00012AC032304F8443D054640220DF1050095
:108AD00010F0EFFB412221462846FFF7A9FF13B013
:108AE00030BD30B587B006AC052304F8143D05460B
:108AF00010220DEB030010F0DCFB1122214628466A
:108B0000FFF796FF07B030BD30B587B006AC06233F
:108B100004F8143D054610220DF1050010F0C9FBC4
:108B2000112221462846FFF783FF07B030BD2222DD
:108B3000FFF77EBF70B506468AB014460D4609B3EE
:108B4000084610F08DFC6A4681B228460BF0ECF91D
:108B5000042269460DF1220010F0ABFB162564BA21
:108B6000ADF8204007F088FB102201460DEB020013
:108B700010F09FFB2B4604AA002130460CF0D0FEDB
:108B80000AB070BD1225EAE7F0B50F4689B0144669
:108B9000064610B9784607F041FB14B9784607F04D
:108BA0003DFB07F0FB03122B25D1184D2A6812B3A9
:108BB00020220021684610F087FB1022314601A8D0
:108BC000079410F076FB23785A1E5342534100213C
:108BD000162F8DF814308DF800100ED101230422C9
:108BE00006F112010DF116008DF8153010F061FB41
:108BF0002B686846984709B0F0BD04220DF11600B5
:108C00008DF8151010F060FBF2E700BF84390020EA
:108C100010B5044610B9784607F000FB014B1C6004
:108C200010BD00BF8439002073B505460A4E684662
:108C30000C460AF056FD00232421A34201D302B0C2
:108C400070BD1DF80300B0FBF1F201FB1202D2B2BD
:108C5000B25CEA540133F0E7769D030037B50D4668
:108C6000042104460DEB01000AF03BFD094B01997C
:108C700053F82520B1FBF2F302FB131304221BBAB5
:108C80000DEB020104F10C00019310F012FB03B094
:108C900030BD00BF9C9D0300C82808D14868054B23
:108CA00018B101221A700020704718707047072011
:108CB000704700BF88390020C82801BF01230B601E
:108CC000034B1B7806BF4B6000200720704700BF96
:108CD00088390020014B1878704700BF8839002080
:108CE0002DE9F0410446ACB00F46904600F1F50185
:108CF000112207A81E4610F0DCFA94F8093104F19D
:108D00001805402293BB21690DF12D0010F0D1FA16
:108D1000402229460DF16D0010F0CBFA3A4607A823
:108D200091210BF001F903AD04233A46009304F1BD
:108D30005800124B019520210BF00CF93046102100
:108D40000AF0CFFC3146102207A810F0B2FA04F165
:108D5000C50110220BA810F0ACFA4346202207A947
:108D600028460BF07DF82CB0BDE8F08129460DF1C6
:108D70002D0010F09EFA40222169CBE7C09D030030
:108D800038B504460D460FF0B7FF29460246204687
:108D90000FF0B6FF012814BF0320002038BD0000EB
:108DA0002DE9F043044697B08946904600F1D5017D
:108DB00010220AA81F4610F07CFA94F8093104F139
:108DC000A50504F1B5061022002B32D129460EA8C4
:108DD00010F06FFA1022314612A810F06AFA5834D7
:108DE000042502AA0AA830210BF09EF802AA204608
:108DF000CDF804900095124B20210BF0ABF806AB98
:108E0000019302AA0F4B0095204620210BF0A2F8F7
:108E10000DF11B010D22404610F04BFA8DE8A00029
:108E2000094B02AA202120460BF094F817B0BDE8A8
:108E3000F08331460EA810F03CFA10222946CBE709
:108E4000C59D0300CA9D0300CF9D030070B50E466B
:108E500000F1180405460FF04FFF0146204610F0C0
:108E600030F808B9032070BD6D690FF045FF324638
:108E70000346294620460FF083FF0028F2D0002049
:108E800070BD37B590F80631013B072B04460D46FF
:108E900002D9784607F0C2F910220021284610F0C6
:108EA00013FA94F80C31022B03D0032B0AD003B031
:108EB00030BD94F80731042BF9D8DFE803F00B0B31
:108EC0000B1B210094F80731032BF0D8DFE803F0E7
:108ED0000202121894F8064101210DF107000AF070
:108EE00000FC9DF80710631C91FBF3F203FB1213C7
:108EF000EB73DCE794F806112846FFF7AFFED6E7E0
:108F000094F806112846FFF78FFED0E730B593B0EE
:108F100002AD04230446009300F1D502114B0195E4
:108F2000202158300BF016F804F1B50110220AA8E0
:108F300010F0BFF904F1C50110220EA810F0B9F924
:108F400006AB0AA9284620220AF08AFF102204F163
:108F5000E50106A810F09EF9B0FA80F0400913B0C0
:108F600030BD00BFC09D0300D1F8B43108461B6975
:108F7000012100F5D6701847F8B5114D2B6806464B
:108F800013B9784607F04AF9EFF3108772B62C68E8
:108F9000B4420BD1D6F8C0312B6007B962B6F8BD28
:108FA00013B9784607F03AF9D4F8C041D4F8C03183
:108FB0009E42F5D1D6F8C031C4F8C031EDE700BF0C
:108FC0008C39002070B590F89D30023B022B04468E
:108FD0000D4602D9784607F021F92046FFF7CCFF6D
:108FE00094F89C30012B02D0784607F017F9204600
:108FF0000DF0EEFD002384F89C3084F8DC3084F81A
:109000009D3004F1BC000AF071F9D4F8B83129465A
:1090100004F5D670DB68BDE87040184710B504460B
:1090200010B9784607F0FAF8A4F5D67494F89D3094
:10903000012B09D12046FFF79FFF20460DF0C8FD08
:10904000002084F89D0010BD082010BD2DE9F041DE
:109050008846911C064615461F460DF014FD044631
:1090600000B36B1C4374292383742A464146133092
:1090700010F01FF92771EFF3108772B6D6F8A451DC
:1090800001356B1CC6F8A45102D1784607F0C6F82A
:1090900007B962B63046256021460DF02FFD00204D
:1090A000BDE8F0810420BDE8F0812DE9F04190F8A1
:1090B000DC30022B88B0044602D0784607F0AEF8C8
:1090C00094F8DF30002B42D194F89D30032B02D06E
:1090D000784607F0A3F894F8DC30022B02D07846EB
:1090E00007F09CF8D4F8982094F8DD3012BA00927A
:1090F00094F89F208DF804209DF8052002F0FC02D2
:10910000142B03F102014FF01700B1FBF0F161F3F2
:1091100087021D468DF8052028BF142594F8DE200F
:109120008DF808201B022A4604F1E0010DF1090028
:10913000ADF8063010F0BDF8012305F109026946CB
:109140002046FFF783FF80B9012384F8DF3094F8CD
:10915000DF501726022794F8DD8008F10203B3FBE5
:10916000F6F30133DBB29D4202D308B0BDE8F081D3
:109170006B1E03EB4301C3EBC101D4F898301431EB
:1091800089B21BBAA8EB0108009394F89F308DF8C0
:1091900004301FFA88F89DF80530B8F1170F28BF82
:1091A0004FF0170867F30103E03165F38703424688
:1091B00021440DF106008DF8053010F07AF80123F6
:1091C00008F1060269462046FFF740FF0028CCD18F
:1091D00094F8DF30013384F8DF300135BBE700B5A8
:1091E000D0F8983089B01BBA009300238DF8043072
:1091F0009DF805308DF80610022243F0030362F358
:1092000087038DF80530072204236946FFF71EFF08
:1092100009B05DF804FB38B50D46044610B9784630
:1092200006F0FCFF022D02D9784606F0F7FFA4F500
:10923000D67494F89D3013F0FB0F16D0023B012B2F
:1092400002D9784606F0EAFF29462046FFF7C7FF15
:1092500028B9042384F89D3084F8A05038BD2946ED
:109260002046BDE83840FFF7ADBE38BD00B5D0F8A8
:10927000983089B01BBA00938DF8041001230622A0
:1092800069468DF80530FFF7E1FE09B05DF804FB93
:1092900000B589B0D0F898309DF805201BBA00932E
:1092A00000238DF8043042F00302012363F38702A8
:1092B0008DF8052069460622FFF7C8FE09B05DF863
:1092C00004FB10B504460AF0C1F8D4F8D8100144E4
:1092D00004F1BC00BDE810400AF034B8D0F8A43165
:1092E0008B4206D1012380F8A831024B18680AF09E
:1092F000DBBC7047CC32002037B591F89D30032B92
:1093000005460C464ED191F8DC30022B4AD1D1F8FB
:10931000D4301B1A002B14DA01212046FFF75FFF1F
:1093200048B9042384F89D30012384F8A030C4F8A0
:10933000B00003B030BD1D4BC4F8B030C4F8D450F9
:10934000F7E71B4B1B681B071AD51A4B1B68042B2E
:1093500016DD2F21184810F08BF8D0B12F211648B8
:1093600010F086F8411C154B94F8E020D3F8043532
:109370000192134A0092052040F29E320BF0E4FB6A
:109380000023204684F8DF3003B0BDE83040FFF70B
:109390008CBE5C21084810F06BF808B15C21DEE758
:1093A0000549E0E70023C4F8B030C2E740420F00AF
:1093B000843300208033002082A1030000B00040ED
:1093C000A5A1030013B50446EFF3108372B6174A44
:1093D0001168C0F8C011106003B962B6144B1B6865
:1093E0001B0718D5134B1B68032B14DD2F211248C4
:1093F00010F03EF888B12F210F4810F039F8411CC9
:109400000E4B0F4AD3F804350092019440F27312C8
:1094100004200BF099FB02B010BD5C21064810F04F
:1094200027F808B15C21E7E70349E9E78C39002018
:10943000843300208033002082A1030000B000406C
:10944000D49D03002DE9F0410F4688B090460646B2
:1094500010B9784606F0E2FEA6F5D67494F89C3072
:10946000012B03D194F89D30002B58D1012384F8AF
:109470009C302C4BC4F8AC3000252B4B84F8DC50CE
:10948000A6F1880284F89F5084F89E5084F89D507D
:10949000C4F8A451C4F8C430C4F8C8508023234988
:1094A000C4F8B4402046A6F58A76C4F8D880C4F83B
:1094B000CC400DF0B9FB042130460AF012F98023AC
:1094C00084F89F5084F89E3033688DF804501BBA9E
:1094D00000939DF8053043F0030365F387031022E2
:1094E00039460DF106008DF805300FF0E2FE042339
:1094F000162269462046FFF7A9FD054658B92046C1
:10950000FFF7DFFE20460DF0A9FA2046FFF75AFFCD
:10951000022384F89D30284608B0BDE8F081082574
:10952000F9E700BFF9920200698F0200DD920200A4
:1095300038B5124B1C6800250CB9012038BD94F8D1
:10954000A83193B194F89D3084F8A851042B94F875
:10955000DC300DD1022B03D104F1A40009F0C6FECA
:1095600094F8A0102046FFF72DFDD4F8C041E3E7A2
:10957000022BFAD12046FFF798FDF6E78C39002040
:109580002DE9F8430F4690469946064610B97846AD
:1095900006F044FEA6F5D67494F89C30012B03D156
:1095A00094F89D30002B4DD1012384F89C30274B3B
:1095B000C4F8AC300025264B84F8DC5084F89F506A
:1095C00084F89E5084F89D50C4F8A451C4F8C43067
:1095D000C4F8C8508023A6F188021E49C4F8B440DC
:1095E0002046C4F8D890C4F8CC400DF01DFB802371
:1095F000C4F8985084F89E5084F89F30424639460B
:109600002046FFF797FA054610B9784606F006FEA1
:10961000FF232B714FF0FF332B6020464FF4FA618C
:109620000DF0ACFA294620460DF068FA20460DF000
:1096300015FA2046FFF7C6FE012384F89D3000206E
:10964000BDE8F8830820BDE8F88300BFF992020066
:10965000698F0200DD92020030B5074D0246FF23FC
:10966000141AA14202DCD843C0B230BD12F8014B3B
:109670006340EB5CF4E700BF009E03002DE9F84374
:10968000A0F5D674804694F89D30032B0F461646FD
:1096900040D1412A41D810F8D05C002D40D120465D
:1096A000FFF70FFE09F0D2FEB11C1723B1FBF3F157
:1096B0000131CBB2E16E594301F5F4111A4B01F5BA
:1096C000906148F8FC1C8146C4F8AC300144A8F510
:1096D000847009F037FE154B4B4448F8D83C022300
:1096E00084F8DC303146C4F8B44084F8DF5084F8A4
:1096F000DD603846FFF7B0FF324684F8DE003946B9
:10970000A8F1CC000FF0D5FD2046FFF7CEFC28468F
:10971000BDE8F8830820BDE8F8830920BDE8F88398
:109720001120BDE8F88300BFF992020080C3C9018F
:109730002DE9F0410B78012B92B005460C461646F8
:1097400002D0784606F06AFD04F1040861784046CC
:10975000FFF782FFA37883421ED195F89E1028461A
:1097600000270136FFF782FDE77085F89E60667876
:109770004146324601A80FF09CFD28462770FFF7AE
:10978000A0FDD5F8B83132461B6801A905F5D670A1
:10979000984712B0BDE8F08100232370F9E700007C
:1097A00038B5044610B9784606F038FD084D2B68E8
:1097B000013303D107480AF059FA2860012384F8DD
:1097C000B031054BC4F8B43104F5D67038BD00BFD4
:1097D000CC32002031950200009F03002DE9FF41AB
:1097E00088461446054610B9784606F017FD14B9A8
:1097F000784606F013FD2B681A0E190242EA03623E
:1098000001F47F011B0A0A4303F47F431343EFF380
:10981000108172B6944E34686CB901B962B6687939
:1098200000F00303032B00F2EE80DFE813F00B00DF
:109830002F01A7013202D4F898209342EDD0D4F83A
:10984000C041E9E7002C00F0DE8094F89D30032B46
:1098500040F0D98094F8DC30002B63D12A7994F859
:109860009E309A4232D3EB881B0A84F8DD301722EF
:109870000233B3FBF2F30133DBB2072B07D902212A
:1098800004F5D67004B0BDE8F041FFF7C4BC2B7AF4
:1098900084F8DE30A8F10908012384F8DC3084F86C
:1098A000DF30424605F1090104F1E0000FF001FD4F
:1098B00094F8DD30984540F0A6802A7904F1DC0167
:1098C000204604B0BDE8F041FFF732BF674B1B688C
:1098D0001A0717D5664B1B68042B13DD2F2165482B
:1098E0000FF0C6FDA8B12F2162480FF0C1FD411C49
:1098F000614B624AD3F8043500924FF42B72052075
:109900000BF022F92979204604B0BDE8F041FFF7B9
:10991000ADBC5C2157480FF0ABFD08B15C21E3E71B
:109920005449E5E7022B514B79D1297994F89E20CF
:109930001B68914220D21B07E4D54D4B1B68042BBA
:10994000E0DD2F214B480FF093FD60B12F214948F6
:109950000FF08EFD411C484B484AD3F80435009265
:109960004FF42E72CBE75C2142480FF081FD08B125
:109970005C21ECE73F49EEE726D91F0743D53C4B76
:109980001B68012B3FDD2F213A480FF071FD90B18C
:109990002F2138480FF06CFD411C374B94F89E2066
:1099A000D3F8043502922A790192354A009240F2A6
:1099B000BD22022025E05C212E480FF059FD08B1A0
:1099C0005C21E6E72B49E8E71E071CD5284B1B68FE
:1099D000042B18DD2F2127480FF04AFDB0B12F21AD
:1099E00024480FF045FD411C234B94F89E20D3F8EA
:1099F000043502922A790192224A0092052040F20F
:109A0000C1220BF0A1F804B0BDE8F0815C21194837
:109A10000FF02EFD08B15C21E2E71649E4E71B6870
:109A20001C07F0D5124B1B68012BECDD2F211148D0
:109A30000FF01EFD78B12F210E480FF019FD411CCB
:109A40000D4B114AD3F80435009240F2C622022091
:109A50000BF07AF8D7E75C2106480FF009FD08B152
:109A60005C21E9E70349EBE78C39002084330020CF
:109A70008033002082A1030000B00040149F030047
:109A8000649F0300AE9F0300E79F0300002CBAD041
:109A900094F89D30032BB6D194F8DC30022BAF4BF9
:109AA00048D1297994F89F20914243D11B68180727
:109AB0001AD5AB4B1B68032B16DD2F21A9480FF0DD
:109AC000D7FC70B32F21A7480FF0D2FC411CA64B46
:109AD00094F8E020D3F804350192A44A00920420BF
:109AE00040F201320BF030F8002504F1A400C4F874
:109AF000B05009F0FBFB20460DF06AF894F89F3057
:109B000084F8DC50013384F89F302046FFF7D9FBFE
:109B1000D4F8B8315B6804F5D67004B0BDE8F04104
:109B200018475C218F480FF0A3FC08B15C21CAE7FD
:109B30008C49CCE71B6819077FF565AF884B1B681C
:109B4000012B7FF760AF2F2186480FF091FC60B1A9
:109B50002F2184480FF08CFC411C834B844AD3F89E
:109B60000435009240F2133271E75C217D480FF01A
:109B70007FFC08B15C21ECE77A49EEE7002C3FF46A
:109B800042AF94F89D30032B7FF43DAF94F8DC6036
:109B9000297994F89E30012E4CD1994225D194F820
:109BA000DF3080080341DA073FF52DAF1727013872
:109BB00007FB0040A8F10602A91DF4300FF079FB65
:109BC0006B7994F8DF209B0806FA03F3134394F8AB
:109BD000DD200232B2FBF7F70137DBB2FFB284F8C7
:109BE000DF30BE400133B34265E65C4B1B681B07A8
:109BF0007FF509AF5A4B1B68012B7FF704AF2F216C
:109C000058480FF035FC60B12F2156480FF030FC5A
:109C1000411C554B574AD3F80435009240F2EB22D1
:109C200015E75C214F480FF023FC08B15C21ECE7FD
:109C30004C49EEE79942FFF466AE7FF6E4AE474B3F
:109C40001B681F077FF5DFAE454B1B68012B7FF7B5
:109C5000DAAE2F2143480FF00BFC88B12F21414889
:109C60000FF006FC411C404B94F89E20D3F80435BD
:109C700002922A790192404A009240F2F72298E635
:109C80005C2138480FF0F4FB08B15C21E7E7354967
:109C9000E9E78008012873D023D3022800F0D1809F
:109CA0002E4B1B681B077FF5AEAE2D4B1B68012B9F
:109CB0007FF7A9AE2F212B480FF0DAFB002800F028
:109CC00025812F2127480FF0D3FB411C6A79264BB1
:109CD0009208D3F804350192284A009240F2753276
:109CE000A2E0B8F1160F7FF48EAE06F0C5FA10228E
:109CF0000146A81D0FF0CEFA00287FF484AE002C98
:109D000040F01281EFF3108372B634681CB9002B57
:109D100000F0068177E694F89D20012A00F0FF808C
:109D2000D4F8C041F2E75C210E480FF0A1FB08B166
:109D30005C2126E10B4928E10023C4F8983062E653
:109D4000032B7FF460AE94F8DC30002B7FF45BAE25
:109D5000204604B0BDE8F041FFF79ABA84330020F2
:109D60008033002082A1030000B0004019A003004E
:109D700034A0030054A0030085A003005BA10300EE
:109D8000002C3FF440AEB8F1060F7FF43CAE94F8DF
:109D90009D30884D022B2AD120460CF019FF14214A
:109DA00020460CF0EBFE2B681D0740F1F880824B3B
:109DB0001B68032B40F3F3802F2180480FF058FBE2
:109DC00060B12F217D480FF053FB411C7C4B7D4A35
:109DD000D3F80435009240F25132DDE05C2177483F
:109DE0000FF046FB08B15C21ECE77449EEE72B6805
:109DF00018077FF508AE704B1B68012B7FF703AE89
:109E00002F216E480FF034FB90B12F216B480FF0DB
:109E10002FFB411C6A4B94F89D20D3F80435019226
:109E2000694A009240F2593202200AF08DFEEAE5BA
:109E30005C2162480FF01CFB08B15C21E6E75F493A
:109E4000E8E7002C3FF4DFADB8F1070F7FF4DBAD9E
:109E500094F89D30574E023B012B30D894F8DC30FB
:109E6000022B03D104F1A40009F040FAA97920469D
:109E7000FFF7A8F8336819077FF5C5AD4E4B1B688F
:109E8000032B7FF7C0AD2F214C480FF0F1FA68B1DA
:109E90002F214A480FF0ECFA411C494B4B4AD3F8AA
:109EA00004350092042040F26B32D1E55C21434836
:109EB0000FF0DEFA08B15C21EBE74049EDE73368CB
:109EC0001A077FF5A0AD3C4B1B68012B7FF79BADBC
:109ED0002F213A480FF0CCFA78B12F2137480FF0F4
:109EE000C7FA411C364B94F89D20D3F804350192F3
:109EF000374A00924FF45C7296E75C212F480FF0CE
:109F0000B7FA08B15C21E9E72C49EBE75C212B4863
:109F10000FF0AEFA08B15C21D4E62849D6E61BB9A9
:109F200062B6002C3FF46FAD94F89D30012B7FF4A6
:109F300007AF2B681A0E190242EA036201F47F018F
:109F40001B0A0A4303F47F4313432046C4F89830A6
:109F500014210CF013FE2046FFF79AF900287FF435
:109F6000EBAE144B1B681E0719D5134B1B68032B54
:109F700015DD2F2111480FF07BFA00283FF4D3AEF6
:109F80002F210E480FF074FA411C0D4B0D4AD3F8E7
:109F9000043500924FF44D7204200AF0D5FD0323DE
:109FA00084F89D302046FFF78CF9D4F8B8319B68CF
:109FB000B1E500BF843300208033002082A103007C
:109FC00000B00040CBA00300E1A0030012A10300F9
:109FD00028A103002DE9F04F0C4689B0064600B1D8
:109FE00011B9784606F01AF92388192B02D8784659
:109FF00006F014F94FF6FF73ADF814302023002556
:10A00000ADF81A3005A901230A223046ADF81C30FC
:10A01000ADF80250ADF81650ADF818500FF049F9F0
:10A020000A2323800DF10601284603F053FF10B1E7
:10A03000784606F0F3F80DF10701002003F056FF13
:10A0400010B1784606F0EAF89DF806309DF8072032
:10A05000D3422FD001A9002003F030FF002879D18E
:10A0600008AA03230DF10C0822F81E3D41460020EA
:10A0700003F084FF002869D1208804220DEB02013F
:10A0800030440FF016F925889DF806300435ADB23E
:10A09000258093BB9DF8073063B12388BDF80290FB
:10A0A00000271E443D464FF6FF7A4F4505D32388CF
:10A0B0001D44258009B0BDE8F08F02A938F81700CB
:10A0C00003F020FFA8B9BDF80830534501D101378E
:10A0D000EBE7022202A970190FF0EBF8A81C02228C
:10A0E0000DF10A0116FA80F004350FF0E2F8ADB276
:10A0F000EDE7784606F092F8E5E70027BDF802A004
:10A10000B9464FF6FF7B574503D323884B44238042
:10A11000C0E702A938F8170003F0F4FE90B9BDF8C3
:10A1200008305B4501D00137EDE709EB050002225D
:10A130000DF10A0130440FF0BCF809F102031FFAD7
:10A1400083F9F0E7784606F069F8E8E7784606F024
:10A1500065F891E7784606F061F881E7024B1B68E5
:10A1600003B11847704700BF90390020054A536873
:10A1700033B14FF6FF718B421CBF03F1FF335360C5
:10A18000704700BF9439002013B5044601A805F0BC
:10A19000CDF8BDF80430A34206D814BF4FF0FF300D
:10A1A000002080B202B010BD4FF6FF70FAE7000049
:10A1B00037B50B4D0023044601A8009305F0B6F80F
:10A1C0006946288A05F08AFD38B9009BA360BDF86E
:10A1D00004302560A38003B030BD0520FBE700BF3D
:10A1E000943900201FB50193BDF81830ADF8083040
:10A1F0000023ADF800208DF80A304FF6FF720223DD
:10A20000ADF802208DF80B306A46079B039303F0EC
:10A21000F5FB05B05DF804FB30B587B004460D468C
:10A22000002304A940F293108DF80C3009F0A9FA2C
:10A2300010B1784605F0F2FF059B9DF80C20013B1C
:10A2400063F3020204A94FF4CA708DF80C2009F0E0
:10A2500098FA10B1784605F0E1FF059B0A22B3FB9E
:10A26000F2F39DF80C20013B63F3C70206AB01211A
:10A2700003F80C2D00228DE80600204648F2250246
:10A280002946FFF7AFFF07B030BD7FB50B89012B23
:10A2900006460D4638D1002304228DE80C004C6898
:10A2A000237803F007030133694640F293100193CA
:10A2B00009F054FA10B1784605F0B0FF2378DA08B7
:10A2C0000A2302FB033369464FF4CA70019309F075
:10A2D00045FA10B1784605F0A1FF30462946FFF750
:10A2E0009BFF00230393029311238DF808302378FA
:10A2F000C3F302038DF80C30237802A8C3F3C40320
:10A300008DF80D30FFF72AFF04B070BD0B890BB933
:10A31000FFF782BF7047000007B5054B019300238C
:10A32000009348F24A02FFF75DFF03B05DF804FBBB
:10A33000ADDEE1FE1FB58DF80C20ADF80D30032227
:10A3400000238DE80C0003AB48F24402FFF74AFFFC
:10A3500005B05DF804FB30B587B004460D46002318
:10A3600004A94FF4C870ADF80C3009F00AFA10B126
:10A37000784605F053FF059B002B34D104A940F229
:10A3800091108DF80C3009F0FCF910B1784605F009
:10A3900045FF059B9DF80D20013B63F3020204A9D4
:10A3A0004FF4C9708DF80D2009F0EBF910B1784623
:10A3B00005F034FF059B142B17D19DF80D2012F0EA
:10A3C000070112D161F3C7028DF80D20002302228C
:10A3D0008DE80C00294603AB48F228022046FFF71F
:10A3E00001FF07B030BD0123C8E70A22B3FBF2F337
:10A3F0009DF80D20013B63F3C702E5E77FB50B89AC
:10A40000022B06460D464DD14C68002304218DE8F1
:10A410000A00237813B1012B44D1019369464FF40C
:10A42000C87009F09BF910B1784605F0F7FE637823
:10A4300003F007030133694640F29110019309F0DC
:10A440008DF910B1784605F0E9FE627862BB1423FD
:10A450000193019B132B08D969464FF4C97009F089
:10A460007DF910B1784605F0D9FE30462946FFF750
:10A4700072FF00230393029312238DF80830237890
:10A480005A1E534253418DF80C306378C3F30203D4
:10A490008DF80D30637802A8C3F3C4038DF80E3035
:10A4A000FFF75CFE04B070BDD2080A2302FB033341
:10A4B000CEE70B890BB9FFF74EBF704730B587B0B9
:10A4C0000024ADF80F309DF82C30ADF80D20A342DC
:10A4D00014BF0723092305460A98CDF811008DE81B
:10A4E000180048F21F0203AB28468DF80C40FFF716
:10A4F00079FE07B030BD7FB5039306AB8DF814200D
:10A5000033F80C2DADF815209B788DF81730042208
:10A5100000238DE80C0005AB48F20302FFF762FE52
:10A5200007B05DF804FBF0B50F8987B006460D460D
:10A53000EFB906A9012341F8043D04A805F00EFA7D
:10A54000059B9AB25B0803EB430302F0010403EBA3
:10A55000440403A904A8A4B201F06CFF8DE89000A4
:10A5600003AB48F2430229463046FFF73BFE07B0F3
:10A57000F0BD2DE9F0430B89022B85B081460C46D6
:10A580004DD14B681E88C6F30B0005F00BF8A38C69
:10A59000834207461BD133460C2221464846FFF72B
:10A5A000C9FE3CE038F8150005F010F828F8150051
:10A5B0000135029B9D42F5D318E038F8150003F0F1
:10A5C0004DFD10B1784605F029FE013513E04FF638
:10A5D000FF73984212D00DF10408012302AA4146EC
:10A5E000029305F0F3FA05460028E2D0384605F05C
:10A5F000ABFA0546B0B9029B9D42DED333464846CE
:10A6000000222146FFF796FE00230293039302A83F
:10A6100019238DF80830ADF80C70FFF79FFD05B0D9
:10A62000BDE8F0830F28B6D033460422B5E700001A
:10A63000F0B50B89122B85B007460D4625D14E6823
:10A640000A88344648F2400334F8020B9A42C0F3B9
:10A650000B001CD121460DF1060205F02FF818233E
:10A6600004460F2C8DF80830BDF80630ADF80C30DC
:10A6700096BF0C4B10221A5D338829463846FFF7E7
:10A6800059FE14B902A8FFF769FD05B0F0BD04F04A
:10A6900089FF2146ADF8060005F062F81A2304464A
:10A6A000DFE700BFC4A103002DE9F0471F460B8878
:10A6B00047F6E57843449BB2102B86B005460C461E
:10A6C000164653D84FF0010909FA03F313F0EF0AC5
:10A6D00019D113F480365DD15B0447D5052231468C
:10A6E00003A80EF0F1FD63688DF80C701A88ADF8C0
:10A6F0000D205B88ADF80F3005230093019603AB66
:10A7000048F22A022EE00922002103A80EF0DCFD07
:10A7100023888DF80C7043449BB2072B0AD809FAA2
:10A7200003F313F00B0F09D113F004022CD113F033
:10A73000E00F1ED1784605F071FD09E063681A88C4
:10A74000ADF80D205A88ADF80F205B68CDF81130B8
:10A75000002E14BF0723092300220192009348F220
:10A760001F0203AB21462846FFF73CFD06B0BDE8BB
:10A77000F087636833F8121BADF80D108DF80F20C9
:10A780008DF810201B68E1E7636833F8022BADF801
:10A790000D20F7E70722514603A80EF095FD6368E8
:10A7A0008DF80C701A88ADF80D209A88ADF811203C
:10A7B0005B88ADF80F3007230093CDF804A003ABFE
:10A7C00048F22C02CEE77FB504AA032322F80A3D03
:10A7D00002A9064603F03EFA062825D010B17846B5
:10A7E00005F01CFD0025BDF80620ABB29A4202D848
:10A7F000002004B070BDACB2640004AB234430460A
:10A8000033F8081C03F0F6F910B1784605F006FDA0
:10A8100004AB1C4434F8080C04F04CFE10B178462C
:10A8200005F0FCFC0135DEE70820E2E72DE9F04306
:10A830008DB01546064609220F460DF12500002170
:10A840001C460EF041FD9DF82630ADF82150002247
:10A8500003F0EF0362F3471305A920468DF820208B
:10A860008DF8263003F04EFB10B1784605F0D6FC8B
:10A87000BDF814504FF6FF739D420DF10E01BDF867
:10A88000163008BFADF82A3020461CBFADF82C307A
:10A89000ADF82A5003F0DAF810B1784605F0BEFCA6
:10A8A000BDF80E004FF6FF73984217D100238DF8C4
:10A8B00023308DF824304FF6FF739D420CBF0C25DA
:10A8C0000E2500230193009508AB48F21902394682
:10A8D0003046FFF787FC0DB0BDE8F08306A904F011
:10A8E000BBFD10B1784605F099FCBDF81A30ADF803
:10A8F000233004A9204603F087FA05288046D5D0E6
:10A90000002846D10DF11201BDF8100004F072FECE
:10A910000528814604D18DF823808DF82480CAE76C
:10A920000028C8D19DF812308DF825309DF81330DD
:10A9300003F00F029DF8263023F00F0313430DF1AF
:10A94000270120468DF8263003F0A4FA012249465B
:10A9500003A80EF0B9FC0DF10D0203A9204603F087
:10A96000FBF89DF80C209DF80D3002A943EA8213F4
:10A9700020468DF8283003F0A3F89DF808209DF8B4
:10A98000293062F30203D20862F3C7038DF829303D
:10A9900091E7784605F042FC8DE7F0B50B89032B73
:10A9A00087B007460C4619D14D6804238DF80C304A
:10A9B0002B88ADF80D3000238DF80F302888C0F3B8
:10A9C0000B0004F0EFFD0DF10B01064604F0B2FEA2
:10A9D000D0B9AB78022B03D0032B31D007B0F0BD38
:10A9E0009DF80B305A1E012AF8D8012B06D13046AB
:10A9F00004F008FF10B1784605F010FC00238DF834
:10AA00000C3002238DF80F30042200238DE80C0057
:10AA1000214603AB48F217023846FFF7E3FB9DF8E7
:10AA20000C30002BDAD10493059308238DF81030F5
:10AA300004A89DF80F308DF81430FFF78FFBCDE799
:10AA40009DF80B30032BC9D033B1304604F002FF20
:10AA500010B1784605F0E2FB00238DF80C30D1E709
:10AA6000F0B50E89012E87B007460D461DD14B6803
:10AA700018788DF80F0003F0DBF90446A8B9052318
:10AA8000049005908DF8103004A89DF80F308DF8D3
:10AA90001430FFF763FB019400960DF10F0348F2A9
:10AAA0000E0229463846FFF79DFB07B0F0BD30B5D2
:10AAB00085B00D4604460BF0A9FC04AB0121002231
:10AAC00003F8040D8DE80600204648F20B022946E3
:10AAD000FFF788FB05B030BD0B890BB9FFF7E7BF67
:10AAE000704700002DE9F04F0B898BB0092B0390C4
:10AAF0000E4655D14D68B5F800B0AC781FFA8BFA08
:10AB00002CB1112C4FD8013C012303FA04F4EF7847
:10AB100047B1112F9DBF07F1FF32012303FA02F75E
:10AB20004FF0FF37B5F805300293B5F8078095F878
:10AB300004901FFA88F004F035FD4FF6FF73984239
:10AB400038D104238DF81C302B88ADF81D30EB78FC
:10AB50008DF82030AB788DF81F302B798DF82130AF
:10AB6000B5F80530039803F00F03ADF82230B5F8BF
:10AB70000730ADF824300A2200238DE80C0031465E
:10AB800007AB0622FFF72EFB9DF81C3043B91D4A88
:10AB900092E8030005AB83E803001846FFF7DEFAEE
:10ABA0000BB0BDE8F08FFF2C4FF6FF7418BF4FF0CD
:10ABB000FF34ACE7504607F09BFF022805D0B7F5FD
:10ABC000803F02D819F0800F01D00F23BAE70E4B57
:10ABD000A3F800B0BAF1000F0FD1C3F804A0C3F876
:10ABE00008A083F80CA0029AA3F8108002F00F07C7
:10ABF000DF810BF08DFA0023A4E75C609F6083F88F
:10AC00000C90F0E7BCA103009439002037B504781C
:10AC1000012C03D00D2C17D003B030BD4268124B6D
:10AC20009A42F9D1FCF752F90AF05CFC48B10023D2
:10AC30000093019368461C238DF80030FFF78EFACD
:10AC4000EAE70A4B1C70E7E7084D2B78002BE3D0AE
:10AC500000241C236846009401948DF80030FFF70F
:10AC60007DFA2C70D8E700BFADDEE1FEA8390020E8
:10AC70001FB50A89032A11D100234A688DF80C30C8
:10AC80001288ADF80D200193022204238DF80F20C5
:10AC9000009348F2480203ABFFF7A4FA05B05DF851
:10ACA00004FB1FB50A89022A10D100234C688DF8D5
:10ACB0000C302488019304238DF80F20009348F270
:10ACC000480203ABADF80D40FFF78CFA04B010BD9D
:10ACD0001FB50A89012A0ED14B681B78012B0AD8AF
:10ACE00004AB022403F8044D00248DE8140048F25C
:10ACF0001402FFF777FA04B010BD1FB50A89012AC4
:10AD00000ED14B681B78012B0AD804AB022403F840
:10AD1000044D00248DE8140048F21102FFF762FA96
:10AD200004B010BDF0B516460A881F4648F2180355
:10AD30009A4287B005460C4605D048F21A039A425B
:10AD400001D0032A31D10E22002102A80EF0BCFA54
:10AD50009DF80E308DF808706FF304138DF80E30E7
:10AD6000238848F21802934209D048F21A0293420B
:10AD70001DD0032B1FD1636833F8092B02E06368F1
:10AD800033F8022BADF809201B68CDF81230002EE5
:10AD900014BF0C230E2300220192009348F21902E3
:10ADA00002AB21462846FFF71DFA07B0F0BD6368E5
:10ADB00033F8172BE6E7784605F030FAE7E77FB57A
:10ADC0000B89022B06460C461DD14D682888C0F31E
:10ADD0000B0004F0E7FB0DF10B0104F0ABFC0023CA
:10ADE00003932A88ADF80D2078B99DF80B208DF8D3
:10ADF0000F2001930423009348F2170203AB21466E
:10AE00003046FFF7EFF904B070BD04228DF80C2036
:10AE1000EFE77FB50D8906460C466DB903F014F8CF
:10AE200004AB012203F8010D21460092019548F27E
:10AE30000E023046FFF7D6F904B070BD37B50B8966
:10AE4000012B05460C4618D14B681A78012A14D8F4
:10AE500000220092019204228DF800201878431EEF
:10AE6000584258418DF804000BF0B6FA28462146A6
:10AE7000FFF71DFE6846FFF771F903B030BD70B5EE
:10AE80000B89012B8AB005460C461CD14B681B78F8
:10AE9000013BDBB2FD2B16D90AA91A2321F81E3D6E
:10AEA00000260DF10D008DF80C60FFF793F8BDF84A
:10AEB0000A30019601339BB20093022203AB214674
:10AEC0002846FFF78FF90AB070BD2DE9F0430A89D3
:10AED000032A85B080460D4635D14B689E78198887
:10AEE0001F785B78ADF80410300140EA13108DF83C
:10AEF000066003F00F048DF8082004F067FB4FF69E
:10AF0000FF794845ADF80C003ED047EA042004F034
:10AF100049FB4845044619D1042400E011248DF86A
:10AF200004708DF80660019B224629464046FFF7D3
:10AF3000E2FA44B9BDF80C204FF6FF739A4202D0F2
:10AF400002A8FFF70BF905B0BDE8F0830DF102018F
:10AF5000BDF80C0004F066FB10B1784605F05EF910
:10AF6000BDF80230A342D9D1BDF80C0003F076F849
:10AF700010B1784605F052F9BDF80C0004F0CEFD92
:10AF800010B1784605F04AF90024C8E773B50D46BC
:10AF9000164602F05FFE0528044608D006281BD09E
:10AFA000C0B9023D33889C4204D3002000E0022057
:10AFB00002B070BD694635F8020F04F04DFA48B989
:10AFC0009DF80030023B012B04D8BDF802302B80E5
:10AFD0000134E7E71020EBE70820E9E72DE9F0412D
:10AFE0000B89022B86B006460D4645D14C6806AF4C
:10AFF0002088012347F80C3DC0F30B0004F0D2FA7F
:10B000003A4602A904F0E2FD8046A8B1052836D0F0
:10B010000322002104A80EF057F910238DF81030F8
:10B02000032200238DE80C00294604AB48F20202FB
:10B030003046FFF7D7F81FE08DF810002388039CF7
:10B04000ADF81130A7B264083A4604EB440407F0A7
:10B05000010704EB470403340DF1130102A8A4B265
:10B0600001F0E8F9CDF80480009404AB48F2020244
:10B0700029463046FFF7B6F806B0BDE8F081042354
:10B080008DF810302388ADF81130032100238DE8AE
:10B090000A00EAE708B578B1B0F5803F08D8002289
:10B0A0004008D3B202F10102FAD1581CC0B208BD67
:10B0B000784605F0B3F8112008BD2DE9FF470B894C
:10B0C000132B80460D4637D14C68A67860782778D8
:10B0D0002388ADF804304FEA061949EA101900F048
:10B0E0000F0047EA00208DF8066004F05BFA0023A9
:10B0F0008DF80830E21C0146824603AB484604F056
:10B1000087FC04460F2831D8DFE800F008303019FA
:10B110002C2E3032303030303030302A00228DF852
:10B1200004708DF80660019B29464046FFF7E3F95D
:10B1300014B902A8FFF712F804B0BDE8F0870DF1CA
:10B140000201BDF80C0004F06DFA10B1784605F06C
:10B1500065F8BDF80220524514BF04220022DEE744
:10B160000622DCE70522DAE70422D8E71022D6E738
:10B170000322D4E72DE9F04F0B89132B85B08046CD
:10B180000D4634D14C68607823882778ADF80430B8
:10B190004FEA101B002300F00F00A67802930393E0
:10B1A00047EA002001238DF806608DF8083004F08E
:10B1B000F9F94FF6FF7A5045814609D04BEA06105F
:10B1C00004F004FA5045ADF80C0013D1032400E05C
:10B1D00004248DF804708DF80660019B22462946F0
:10B1E0004046FFF788F914B902A8FEF7B7FF05B08B
:10B1F000BDE8F08F0DF1020104F014FA10B17846A9
:10B2000005F00CF8BDF802304B450FD1E11CBDF83C
:10B210000C0004F03BFC0528D8D0082804D00028F6
:10B220000CBF00241024D4E70B24D2E71124D0E76C
:10B2300008B578B1B0F5803F08D800224008D3B2F5
:10B2400002F10102FAD1581CC0B208BD784604F0E0
:10B25000E5FF112008BD000070B50D46098986B0D4
:10B26000064619BB1A4C8DF80C102388ADF80D302A
:10B270006368012B1CD8DBB2A0688DF80F30FFF794
:10B28000D7FF237B8DF81130E389ADF81230238A84
:10B29000ADF814300A2200238DE80C008DF8100060
:10B2A00003AB062229463046FEF79CFF06B070BD70
:10B2B000B3F5803F07D8013B5B08CAB201F1010139
:10B2C000FAD1931CD7E7784604F0A8FF1123D3E7FF
:10B2D00094390020F0B50E8987B007460D4626BB8D
:10B2E0000AF0FEFE8DF80C60038804460BB142881C
:10B2F000EAB900238DF80D308DF80E308DF80F303F
:10B300008DF810308DF811308DF812308DF8133023
:10B3100009228DF8143000238DE80C00294603AB78
:10B3200048F23C023846FEF75DFF07B0F0BDADF8CD
:10B330000D304388ADF80F304068FFF7ABFE8DF855
:10B340001200A068FFF774FFA3898DF813308DF801
:10B350001100E389DCE7F0B50B89052B8DB00746BA
:10B360000D4648D14C681022002108A80DF0ACFF12
:10B370002388ADF820306388ADF82230237943B1BB
:10B38000112B9DBF03F1FF33012202FA03F34FF0AB
:10B39000FF3308A80A930AF051FE064658BB0AF08C
:10B3A0009FFE8DF814600388ADF81530044643887D
:10B3B0008068ADF81730FFF73BFF8DF81900606823
:10B3C000FFF768FEA3898DF81B30E3898DF81C30E8
:10B3D00009238DF81A000093384605AB019648F210
:10B3E0003C022946FEF7FEFE152303A88DF80C301B
:10B3F0000494FEF7B3FE0DB0F0BD2DE9F347B1F8AC
:10B40000088028F00203042B06460D461DD1B8F132
:10B41000040F4C680CBF4FF001094FF0000917D121
:10B42000A378E27843EA0223ADF806304FF6FF77BF
:10B430002088FEF7A9FE4FF6FF7A504510D1012370
:10B440004A4629463046FFF76DFC02B0BDE8F0875A
:10B4500023796279678843EA0223ADF80630E7E78B
:10B46000ADF804700DF10202019902F061FD20B9FE
:10B47000B8F1040F03D0574501D10223E0E7BDF82E
:10B480000230228829463046FFF7D0F9DDE72DE962
:10B49000F047B1F8089029F00203042B86B0074664
:10B4A0000D461DD1B9F1040F4C680CBF4FF00108D7
:10B4B0004FF0000817D1A378E27843EA0223ADF8F1
:10B4C0000E304FF6FF762088FEF75EFE4FF6FF7ACD
:10B4D000504510D10123424629463846FFF7E4F88B
:10B4E00006B0BDE8F08723796279668843EA0223D3
:10B4F000ADF80E30E7E7ADF80C600DF10A020399E4
:10B5000002F016FD20B9B9F1040F03D0564501D160
:10B510000223E0E7BDF80A00FFF755F9064608B137
:10B520000346D8E701F042FC34F8022BCDF8048042
:10B5300020680090334638462946FEF7BFFF0C23AB
:10B54000049604A88DF81030BDF80A300596ADF8C1
:10B550001430FEF703FEC3E72DE9F04F89B00B89E5
:10B56000042B02AF05460C466E4614D1D1F804A058
:10B570004FF6FF79BAF80000BAF80280A7F80890F1
:10B58000FEF702FE4845C3460AD1012301222146A7
:10B590002846FFF789F81C37B546BD46BDE8F08F51
:10B5A000A7F80A803A1DB96802F0C2FC08B102236C
:10B5B000ECE707F11802052322F8123D07F10C0110
:10B5C000B888FFF7E3FC814608B10346DEE7FA8856
:10B5D000520002F10C0323F00703ADEB030D07F15A
:10B5E0000C018DF80800BAF80030ADF80930ADF85C
:10B5F0000BB00DF10D000DF05CFECDF80490FA8853
:10B60000520005320DF1080892B20092434648F20A
:10B610002A0221462846FEF7E5FDBCE72DE9F04F5A
:10B620008BB00B89062B02AF06460D46E8461ED1AD
:10B630004C682088FEF7A8FDB5F808B0BBF1040FF0
:10B640000CBF4FF0010A4FF0000A15D1A378E27841
:10B6500043EA02237B824FF6FF794FF6FF7398424D
:10B6600012D10123524629463046FFF71DF82437F0
:10B67000C546BD46BDE8F08F23796279B4F80290E3
:10B6800043EA02237B82E8E7A7F8109007F10C0257
:10B6900039697B6002F04CFC28B9BBF1040F04D07F
:10B6A0007B68994501D10223DCE707F120020523DD
:10B6B00022F8123D07F11401B889FFF767FC8146B3
:10B6C00008B10346CEE7FA89520092B202F10E03A6
:10B6D00023F00703ADEB030D02F1070B8DF8080013
:10B6E0002388ADF80930A388ADF80D306388ADF834
:10B6F0000B3007F114010DF10F000DF0DAFD0DF123
:10B70000080A1FFA8BF30093CDF80490534648F2D1
:10B710002C0229463046FEF765FDA8E72DE9F047E3
:10B72000B1F8089029F00203142B88B006460D46A4
:10B7300032D1B9F1140F4C680CBF0127002710D18A
:10B74000A37CE27C43EA0223ADF80E304FF6FF788B
:10B750002088FEF719FD4FF6FF7A50450AD10123E4
:10B7600015E0237D627DB4F8128043EA0223ADF830
:10B770000E30EDE7ADF80C8002AA039902F0D8FB79
:10B7800020B9B9F1140F0AD0D04508D102233A46A6
:10B7900029463046FEF788FF08B0BDE8F08702234F
:10B7A0008DF81030A01C00230DF11201ADF81230FD
:10B7B000059009F0F9F810B1784604F02FFD0DF16D
:10B7C0000A0104A803F0A2FE0528C8D008B110237E
:10B7D000DDE7BDF80A10BDF8080002F00BFA08B169
:10B7E0000C23D4E7BDF80A0003F064FE10B17846DC
:10B7F00004F014FD01F0DAFA34F8122B01972068F6
:10B80000BDF81230009029463046FEF757FE0B2354
:10B810008DF81830BDF80830ADF81C3006A8BDF81A
:10B820000A30ADF81E30FEF799FCB5E72DE9F04778
:10B83000B1F8089029F00203142B88B006460D4693
:10B840001BD1B9F1140F4C680CBF0127002717D189
:10B85000A37CE27C43EA0223ADF80E304FF6FF787A
:10B860002088FEF791FC4FF6FF7A504511D1012355
:10B870003A4629463046FEF717FF08B0BDE8F08784
:10B88000237D627DB4F8128043EA0223ADF80E30C6
:10B89000E6E7ADF80C8002AA039902F049FB20B953
:10B8A000B9F1140F03D0D04501D10223E0E70DF127
:10B8B0000A01A01C03F096FD20B104280CBF05234B
:10B8C0001023D5E7BDF80A10BDF8080002F062F9B0
:10B8D0008046BDF80A00B8F1000F0BD003F0EAFD76
:10B8E00010B1784604F09AFCB8F1060F0CBF08239B
:10B8F0001023BDE704A903F0AFFD10B1784604F0B2
:10B900008DFC01F053FA34F8122B01972068BDF832
:10B910001230009029463046FEF7D0FD0A238DF8FC
:10B920001830BDF80830ADF81C3006A8BDF80A3054
:10B93000ADF81E30FEF712FC9FE72DE9F04FB1F88D
:10B940000880B8F1080F89B006460D4602D0B8F15C
:10B95000060F1CD1B8F1060F6C680CBF0127002739
:10B9600018D12379627943EA0223ADF80E304FF6FD
:10B97000FF792088FEF708FC4FF6FF7A5045834692
:10B9800011D101233A4629463046FEF78DFE09B013
:10B99000BDE8F08FA379E279B4F8049043EA02237A
:10B9A000ADF80E30E5E7608807F0A2F80328E8D18B
:10B9B000ADF80C9002AA0399584602F0B9FA20B9E2
:10B9C000B8F1060F03D0D14501D10223DAE70323F2
:10B9D0008DF810306388ADF812300DF10A010023A4
:10B9E00004A8059303F092FD78BBBDF80A10BDF8DA
:10B9F000080002F0FFF8062801D10823C2E708B1C9
:10BA00001023BFE7BDF80A0003F054FD10B17846DB
:10BA100004F004FC01F0CAF9638834F8042B0197A0
:10BA20002068009029463046FEF748FD0B238DF82C
:10BA30001830BDF80830ADF81C3006A8BDF80A3043
:10BA4000ADF81E30FEF78AFBA1E70528D8D1E3E761
:10BA50002DE9F04FB1F80880B8F1080F87B006461D
:10BA60000D4602D0B8F1060F1CD1B8F1060F6C6874
:10BA70000CBF0127002718D12379627943EA0223FA
:10BA8000ADF80E304FF6FF792088FEF77DFB4FF6BC
:10BA9000FF7A5045834611D101233A462946304664
:10BAA000FEF702FE07B0BDE8F08FA379E279B4F8A3
:10BAB000049043EA0223ADF80E30E5E7608807F012
:10BAC00017F80328E8D1ADF80C9002AA039958465C
:10BAD00002F02EFA20B9B8F1060F03D0D14501D1FA
