:020000021000EC
:10F0000000FD0020A58C0200CD8C020011F601004D
:10F01000D18C0200D38C0200D58C020000000000CD
:10F02000000000000000000000000000D78C02007B
:10F03000D98C020000000000DB8C0200DD8C020095
:10F04000DF8C0200DF8C0200DF8C0200DF8C02000C
:10F05000DF8C0200DF8C0200B9F70100DF8C0200B8
:10F06000DF8C0200DF8C0200DF8C0200DF8C0200EC
:10F07000DF8C0200DF8C0200DF8C0200DF8C0200DC
:10F08000DF8C0200DF8C0200CDA60200DF8C0200C4
:10F09000DF8C0200DF8C02007DF60100DF8C0200B5
:10F0A000DF8C0200DF8C0200DF8C0200DF8C0200AC
:10F0B000DF8C0200DF8C0200000000000000000076
:10F0C000DF8C0200DF8C0200DF8C0200DF8C02008C
:10F0D000DF8C0200DF8C0200DF8C020000000000E9
:10F0E0000000000000000000000000000000000020
:10F0F0000000000000000000000000000000000010
:10F1000000000000000000000000000000000000FF
:10F1100000000000000000000000000000000000EF
:10F1200000000000000000000000000000000000DF
:10F1300000000000000000000000000000000000CF
:10F1400000000000000000000000000000000000BF
:10F1500000000000000000000000000000000000AF
:10F16000000000000000000000000000000000009F
:10F17000000000000000000000000000000000008F
:10F18000000000000000000000000000000000007F
:10F19000000000000000000000000000000000006F
:10F1A000000000000000000000000000000000005F
:10F1B000000000000000000000000000000000004F
:10F1C000000000000000000000000000000000003F
:10F1D000000000000000000000000000000000002F
:10F1E000000000000000000000000000000000001F
:10F1F000000000000000000000000000000000000F
:10F2000010B5054C237833B9044B13B10448AFF360
:10F2100000800123237010BD301B0020000000007F
:10F22000543C03000C4B43B10C480D4910B5AFF3EF
:10F2300000800C48036823B910BD0A48036833B93D
:10F240007047094B002BF7D0BDE810401847064B1C
:10F25000002BF5D0184700BF00000000543C03000D
:10F26000341B00202C1B002000000000154B002B3D
:10F2700008BF134B9D46A3F5803A00218B460F46ED
:10F280001348144A121A13F06BFB0F4B002B00D0DB
:10F2900098470E4B002B00D0984700200021040017
:10F2A0000D000D48002802D00C48AFF3008013F089
:10F2B00009FB2000290000F005F913F0EFFA00BF68
:10F2C0000000080000FD0020000000000000000019
:10F2D000301B00203C4E0020000000000000000019
:10F2E0003EDF704707B51A4B1B685B0416D5194BF8
:10F2F0001B68032B12DD2F21174813F005FCF0B11A
:10F300002F21154813F000FC411C144B144AD3F86C
:10F310000435009204205F220CF0C8F80021114847
:10F3200003F0A6FB18B10C4A602100F035F9012169
:10F330004FF4F01003B05DF804EB00F0BDB95C21B0
:10F34000054813F0E1FB08B15C21DAE70249DCE78C
:10F35000B01A0020AC1A0020882B030000B0004037
:10F36000B02B0300141D002030B54D4B1B685B040F
:10F3700089B018D54B4B1B68032B14DD2F214A484D
:10F3800013F0C2FB002800F082802F21464813F0C2
:10F39000BBFB411C454B464AD3F804350092042080
:10F3A00066220CF083F800214FF4F01000F084F98D
:10F3B000C8214FF40030042200F088F908A9012385
:10F3C00041F8143D0DF10A0006F0F8FA18B1364A7A
:10F3D0006C2100F0E1F8BDF80A0006F063F9102294
:10F3E000044600210DEB020013F0BAFA314B04AAD7
:10F3F0002146002006F058FB18B12B4A702100F07E
:10F40000CBF82D49012006F043F818B1264A7121A6
:10F4100000F0C2F8274D294C2988208804F052FDBD
:10F4200018B1214A722100F0B7F8234B20881988BF
:10F4300004F022FC18B11C4A732100F0ADF82988B1
:10F44000208804F0BBFD18B1174A742100F0A4F81D
:10F450000621208804F0F2FD18B1134A752100F04E
:10F460009BF8164803F058FB18B10F4A762100F0BC
:10F4700093F8134801F056FC0146104803F060FB76
:10F4800018B1094A772100F087F809B030BD5C2136
:10F49000054813F039FB08B15C2177E7024979E7A9
:10F4A000B01A0020AC1A0020882B030000B00040E6
:10F4B000142C03004C1B0020101D0020141D0020E4
:10F4C000501B002007B5214A04214FF4C0400BF027
:10F4D000D3FF1F4B1B685B0416D51E4B1B68032B09
:10F4E00012DD2F211C4813F00FFB30B32F211A48D7
:10F4F00013F00AFB411C194B194AD3F8043500924A
:10F5000004207D220BF0D2FF00F03AF91548164B8B
:10F510008363164B0360164B43600122072380F878
:10F520003C300274C37406F02FFF18B10A4A9321CD
:10F5300000F032F8FFF7D4FEFCE75C21064813F038
:10F54000E3FA08B15C21D2E70349D4E74DB40200E5
:10F55000B01A0020AC1A0020882B030000B0004035
:10F56000D02B0300C01900202E2C030069F30100EA
:10F57000E5F2010048DF704761DF70474FF0A043BC
:10F580004FF4F012C3F80825C3F80C25EFF31083ED
:10F5900072B60028FDD170477FB5184B1B685B041D
:10F5A00006460D46144619D5154B1B68002B15DD74
:10F5B0002F21144813F0A8FAB0B12F21114813F0ED
:10F5C000A3FA411C104B114AD3F80435009203965C
:10F5D00002950194482201200BF068FF012004B03D
:10F5E000BDE87040FFF7CABF5C21064813F08CFAF3
:10F5F00008B15C21E2E70349E4E700BFB01A00204C
:10F60000AC1A0020692C030000B000404C2C030011
:10F6100007B5154B1B685B0416D5144B1B68002BF4
:10F6200012DB2F21124813F06FFA98B12F211048E6
:10F6300013F06AFA411C0F4B0F4AD3F804350092BD
:10F64000002054220BF032FF012003B05DF804EBE0
:10F65000FFF794BF5C21064813F056FA08B15C210D
:10F66000E5E70349E7E700BFB01A0020AC1A002025
:10F67000692C030000B000403E2C030073B501A8C4
:10F68000FFF778FF60B102AD4F2325F8063D094E24
:10F690001C4629460748FFF76FFF28B102B070BD2E
:10F6A00001980AF03BF8EAE730460AF035F8ADF881
:10F6B0000240EEE7401D00204FF0A04311B1C3F817
:10F6C0000C057047C3F8080570470000F0B54FF40B
:10F6D0007A735943284B294F1E6802F0FE0200231B
:10F6E0004FF0A045934200D1F0BDD5F80445444009
:10F6F000C5F8044500293CD00C4600BF00BF00BF40
:10F7000000BF00BF00BF00BF00BFBE422FD000BF80
:10F7100000BF00BF00BF00BF00BF00BF00BF00BFF1
:10F7200000BF00BF00BF00BF00BF00BF00BF00BFE1
:10F7300000BF00BF00BF00BF00BF00BF00BF00BFD1
:10F7400000BF00BF00BF00BF00BF00BF00BF00BFC1
:10F7500000BF00BF00BF00BF00BF00BF00BF00BFB1
:10F7600000BF00BF00BF00BF00BF00BF00BF013C23
:10F77000C3D10133B6E700BF5C1A00200024F400B7
:10F780004FF0A04303224FF40031C3F84427C3F8DD
:10F7900008154FF48021C3F84827C3F808154FF423
:10F7A0000021C3F84C27C3F80815C3F850274FF4BD
:10F7B0008012C3F808257047124B70B50024124E12
:10F7C000124DC3F87C414FF0A043A15DD3F8102542
:10F7D00001238B40934311D00D492B68D1F80425A8
:10F7E000981A48BFD01A41F69A13984206D9D1F810
:10F7F00004352B60074B20461B6898470134042CC6
:10F80000E1D170BD006000409D2C0300941D0020DC
:10F8100000B00040901D00200620704700B589B060
:10F8200008238DF8003000F17403039300F58A7308
:10F8300001900293D0F826310493B0F82431ADF84A
:10F840001430B0F82A3190F82C21ADF816309DF81C
:10F85000183062F30003C2F3400262F341038DF8F3
:10F86000183083686846984709B05DF804FB00B516
:10F87000036989B0022283F80721012201938DF8E0
:10F8800000209B686846984709B05DF804FB30B5D6
:10F89000046994F80731122B89B00D4603D111B9D0
:10F8A0002046FFF7BBFF002384F807318DF808508E
:10F8B00002238DF800300194A3686846984709B088
:10F8C00030BD30B590F8083189B00446032B3BD8E1
:10F8D000DFE803F0312B170204238DF8003090F895
:10F8E00002318DF8093090F803318DF8083001901D
:10F8F0000B2384F807316846A3689847002009B0B5
:10F9000030BD00F1C105294600F01CFD03238DF830
:10F91000003094F802318DF8093094F803318DF8F5
:10F920000830019403950F23E3E705238DF8003099
:10F9300001900C23DDE710220021C13013F010F8F4
:10F940000F2384F80731D9E70320D8E710B5044620
:10F9500088B084F806110A22019040688DF80020D2
:10F960008DF8081000F022FB38B9A3686846984764
:10F97000152384F8073108B010BD60688368022140
:10F980001B699847F1E710B588B0044600F002FC07
:10F9900080B109238DF800302369039304F1140327
:10F9A00002930A2384F807310194A36868469847B4
:10F9B00008B010BD04F15401204600F0A7FC48B97E
:10F9C0002046FFF77EFF0028F2D005212046FFF7F2
:10F9D000BDFFEDE70221F9E713B5046994F807319B
:10F9E000023B132B21D8DFE803F00A20200D202052
:10F9F0000F2020152017201720191B20200D05236C
:10FA000084F8073102B010BD204602B0BDE81040B6
:10FA1000FFF7B9BF0F23F3E71123F1E71223EFE755
:10FA20002046FFF7FBFE1423EAE7144B1B681B0775
:10FA3000E8D5134B1B68002BE4DD2F21114813F090
:10FA400063F890B12F210F4813F05EF8411C0E4B64
:10FA500094F80721D3F8043501920C4A0092012052
:10FA60004FF4F3720BF022FDCCE75C21054813F054
:10FA70004BF808B15C21E6E70249E8E7B01A00203C
:10FA8000AC1A0020B42C030000B00040D82C0300B6
:10FA900070B50D4694B004691146284600F01AFA74
:10FAA00008B90121C1E02B78092B00F23781DFE88A
:10FAB00013F00A0035014900690035018000AD00EE
:10FAC000D1003501290194F80731022B6FD104F1DF
:10FAD000F1030122A91818461D4612F036FF012332
:10FAE0008DF82C3094F809318DF82D30B4F80A21B6
:10FAF000130A43EA0223ADF82E3094F80C318DF846
:10FB0000303094F80D318DF8313094F80E318DF895
:10FB10003230B4F80F21130A43EA0223ADF8333030
:10FB200094F811318DF83530B4F81221130A43EAF4
:10FB30000223ADF836302A460BA9606800F0D8F9E8
:10FB4000A8B355E094F80721052A30D1691C04F1C7
:10FB5000FD0012F0FAFEAB7893B984F80431EB782B
:10FB600084F80831EB78012B14BF6B79102384F8EB
:10FB700002312B7984F80331082384F8073116E029
:10FB80000123EAE794F80731082B10D14022691CC1
:10FB900004F1140012F0D9FE94F8043123B9E1689D
:10FBA000606800F0B4F9CBE72046FFF7ECFE14B034
:10FBB00070BD94F807310F2B1ED11022691C04F17F
:10FBC000E10012F0C2FE04F1D101204604F1A103CC
:10FBD0000BAA00F0E5FA0BA9606800F0B6F900285E
:10FBE000E5D0042804D07846504B1B6813B19847E1
:10FBF00005211AE000DEFBE70C2BD8D11022691C8E
:10FC000004F1E10012F0A1FE0D23B6E794F80731EC
:10FC1000112BCCD11022691C04F1B10012F095FE19
:10FC2000204600F0DDFB20B904212046FFF78EFEC0
:10FC3000BDE704F1A101606800F09AF90028D7D16E
:10FC400004F1740304F1940204F18401204600F0ED
:10FC500007FBACE794F80731122BA8D104F1840319
:10FC60000B9304F194030C936B1C0D9314A91923AB
:10FC7000ADF838300023082201F8493D0DF109069E
:10FC80001A350BA80F93ADF84030119612958DF8E8
:10FC90004C200AF023FD9DF80730002B44D01022A1
:10FCA000314604F58A7012F050FE079B9DF81B1038
:10FCB0001BBAC4F82631BDF82030180A40EA0320E8
:10FCC00080B2A4F82A01BDF81920130A43EA0223DE
:10FCD00094F82C21C1F340059BB265F3000261F357
:10FCE0004102B3F5805FA4F8243184F82C2101D3BC
:10FCF00002219AE709F08CFB0128F9D1606800F035
:10FD00004AF91DE70A238DF82C306B780C948DF896
:10FD10003430A3680BA8984715232EE794F80731D1
:10FD2000152B7FF4BEAE42E706217EE7BC4D0020D6
:10FD300010B490F8073173B9012380F8073180F8C7
:10FD400005314068064BC36083685C68054BA44678
:10FD50005DF8044B604708205DF8044B704700BF16
:10FD6000A42C0300008793037FB590F807310B3B69
:10FD7000022B04460E4630D8102A30D890F8025193
:10FD800095422CD105F1C100C5F11002002120449B
:10FD900012F0E6FD2A46314604F1C10012F0D5FD0D
:10FDA00094F807310B2B04D1606800F0C3F804B05D
:10FDB00070BD0D2B0CD104F1D101204604F1A1033B
:10FDC0006A4600F0EDF96946606800F0BEF8EEE7BB
:10FDD0000F2384F807310020E9E70820E7E709202E
:10FDE000E5E700790B79C31A58425841704738B596
:10FDF000049D88B181B17AB173B16DB190F80741BA
:10FE000064B98560C160026119460B2200F20910D5
:10FE100012F09BFD204638BD0E2038BD082038BDAD
:10FE200038B50C46054630B129B1044A0BF0CEFA7C
:10FE300010B9256138BD0E2038BD00BFE3FD0100BB
:10FE400000F0FEB930B470B190F8074174B904689D
:10FE500024B9446064B130BCFFF76ABF25799D4284
:10FE6000F7D02468F4E70E2030BC70470820FBE789
:10FE70000620F9E790F805310BB9FFF7CDBCFFF785
:10FE800073BF08B518B100F017F9002008BD0E20A7
:10FE900008BD00F023B9000070B5044616460D46B3
:10FEA00021B978460A4B1B6873B1984724B9784644
:10FEB000074B1B6853B19847A36832462946204632
:10FEC0001B68BDE87040184700DEEFE700DEF3E78F
:10FED000BC4D002048B10378092B05D8034AD05CFB
:10FEE000431A58425841704700207047072D0300BD
:10FEF00038B505460C46501C01310B2212F025FD89
:10FF0000214628460C22BDE83840FFF7C5BF30B572
:10FF100093B012AC032304F8443D054640220DF192
:10FF2000050012F012FD412221462846FFF7B4FFDA
:10FF300013B030BD07B502A9042301F8043D012226
:10FF4000FFF7AAFF03B05DF804FB30B587B006AC3D
:10FF5000052304F8143D054610220DEB030012F0B2
:10FF6000F4FC112221462846FFF796FF07B030BD6A
:10FF700030B587B006AC062304F8143D05461022C0
:10FF80000DF1050012F0E1FC112221462846FFF791
:10FF900083FF07B030BD07B502A9082301F8043D6F
:10FFA0000122FFF779FF03B05DF804FB07B50923D1
:10FFB0008DF80510022201A98DF80430FFF76CFFBF
:10FFC00003B05DF804FB70B506468AB014460D46D2
:10FFD00009B3084612F090FD6A4681B228460AF03D
:10FFE000DBFB042269460DF1220012F0AEFC16255F
:10FFF00064BAADF8204008F087FE102201460DEBF0
:020000022000DC
:10000000020012F0A2FC2B4604AA002130460CF09C
:1000100033FA0AB070BD1225EAE70000F0B50F46CA
:1000200089B01446064628B97846214B1B68002B38
:1000300032D0984724B978461D4B1B6873B3984754
:1000400007F0FB03122B25D11A4D2A6812B3202288
:100050000021684612F084FC1022314601A8079462
:1000600012F073FC23785A1E534253410021162F7D
:100070008DF814308DF8001012D10123042206F1FE
:1000800012010DF116008DF8153012F05EFC2B6890
:100090006846984709B0F0BD00DECBE700DECFE749
:1000A00004220DF116008DF8151012F059FCEEE740
:1000B000BC4D0020981D002010B5044620B978469C
:1000C000044B1B681BB19847034B1C6010BD00DE3E
:1000D000FAE700BFBC4D0020981D0020014B002214
:1000E0001A607047981D002073B505460A4E684691
:1000F0000C4609F0CBFE00232421A34201D302B019
:1001000070BD1DF80300B0FBF1F201FB1202D2B288
:10011000B25CEA540133F0E7112D030037B50D4608
:10012000042104460DEB010009F0B0FE094B0199D2
:1001300053F82520B1FBF2F302FB131304221BBA80
:100140000DEB020104F10C00019312F0FEFB03B071
:1001500030BD00BF382D0300C82808D14868054BC2
:1001600018B101221A7000207047187070470720DC
:10017000704700BF9C1D0020C82801BF01230B60F1
:10018000034B1B7806BF4B6000200720704700BF61
:100190009C1D0020014B1878704700BF9C1D00205B
:1001A0002DE9F0410446ACB00F46904600F1F10154
:1001B000112207A81E4612F0C8FB94F8053104F17D
:1001C0001405402293BBE1680DF12D0012F0BDFB38
:1001D000402229460DF16D0012F0B7FB3A4607A800
:1001E00091210AF0D9FA03AD04233A46009304F1B1
:1001F0005400124B019520210AF0EAFA30461021F2
:1002000009F044FE3146102207A812F09EFB04F1CB
:10021000C10110220BA812F098FB4346202207A927
:1002200028460AF057FA2CB0BDE8F08129460DF1B6
:100230002D0012F08AFB4022E168CBE75C2D030021
:1002400038B504460D4612F02BFA294602462046E0
:1002500012F02AFA012814BF0320002038BD000044
:100260002DE9F043044697B08946904600F1D1014C
:1002700010220AA81F4612F068FB94F8053104F119
:10028000A10504F1B1061022002B32D129460EA897
:1002900012F05BFB1022314612A812F056FB5434C8
:1002A000042502AA0AA830210AF076FA02AA2046FA
:1002B000CDF804900095124B20210AF089FA06AB84
:1002C000019302AA0F4B0095204620210AF080FAE4
:1002D0000DF11B010D22404612F037FB8DE8A00006
:1002E000094B02AA202120460AF072FA17B0BDE895
:1002F000F08331460EA812F028FB10222946CBE7E6
:10030000612D0300662D03006B2D030070B50E46B2
:1003100000F11404054612F0C3F90146204612F01C
:10032000A4FA08B9032070BD2D6912F0B9F932465C
:1003300003462946204612F0F7F90028F2D00020A3
:1003400070BD000037B590F80231013B072B044621
:100350000D4604D97846214B1B686BB19847102293
:100360000021284612F0FCFA94F80831022B05D03F
:10037000032B0DD003B030BD00DEF0E794F803315D
:10038000013B042BF6D8DFE803F00C0C0C1C220018
:1003900094F80331013B032BECD8DFE803F00202B1
:1003A000121894F8024101210DF1070009F06EFDC9
:1003B0009DF80710631C91FBF3F203FB1213EB7320
:1003C000D8E794F802112846FFF7A8FED2E794F880
:1003D00002112846FFF788FECCE700BFBC4D002085
:1003E00030B593B002AD04230446009300F1D1026E
:1003F000114B0195202154300AF0EAF904F1B101C2
:1004000010220AA812F0A1FA04F1C10110220EA8CC
:1004100012F09BFA06AB0AA9284620220AF05AF9E4
:10042000102204F1E10106A812F080FAB0FA80F07F
:10043000400913B030BD00BF5C2D0300D1F8B031CE
:1004400008461B69012100F5D4701847F8B5154D11
:100450002B68064623B97846134B1B6883B198472F
:10046000EFF3108772B62C68B4420BD00E4DD4F85F
:10047000BC319E420CD1D6F8BC31C4F8BC3104E08A
:1004800000DEEDE7D6F8BC312B6007B962B6F8BDE7
:100490001BB978462B681BB19847D4F8BC41E6E7F6
:1004A00000DEFAE7A01D0020BC4D002070B590F8DA
:1004B0009930023B022B04460D4604D97846154B71
:1004C0001B681BB398472046FFF7C0FF94F898308D
:1004D000012B04D078460F4B1B68CBB198472046C0
:1004E0000DF0AAF9002384F8983084F8D83084F805
:1004F000993004F1B80009F0B3FAD4F8B4312946C0
:1005000004F5D470DB68BDE87040184700DEDAE718
:1005100000DEE4E7BC4D002010B5044620B9784663
:100520000B4B1B6883B19847A4F5D47494F89930A9
:10053000012B0BD12046FFF789FF20460DF07CF9F7
:10054000002084F8990010BD00DEEDE7082010BD02
:10055000BC4D00202DE9F0418846911C0646154609
:100560001F460DF099F8044620B36B1C43742923F1
:1005700083742A464146133012F0E7F92771EFF3EE
:10058000108772B6D6F8A05101356B1CC6F8A05181
:1005900004D17846094B1B6853B1984707B962B636
:1005A0003046256021460DF0C1F80020BDE8F081FD
:1005B00000DEF3E70420BDE8F08100BFBC4D002061
:1005C0002DE9F04190F8D830022B88B0044605D0D0
:1005D0007846504B1B68002B5ED0984794F8DB3070
:1005E000002B48D194F89930032B05D07846494B1D
:1005F0001B68002B52D0984794F8D830022B05D0B6
:100600007846444B1B68002B4AD09847D4F8942076
:1006100094F8D93012BA009294F89B208DF80420F7
:100620009DF8052002F0FC02142B03F102014FF0AB
:100630001700B1FBF0F161F387021D468DF805202C
:1006400028BF142594F8DA208DF808201B022A46CA
:1006500004F1DC010DF10900ADF8063012F075F976
:10066000012305F1090269462046FFF773FF80B9AF
:10067000012384F8DB3094F8DB501726022794F826
:10068000D98008F10203B3FBF6F30133DBB29D42DC
:1006900008D308B0BDE8F08100DE9FE700DEABE7DD
:1006A00000DEB3E76B1E03EB4301C3EBC101D4F8DB
:1006B0009430143189B21BBAA8EB0108009394F866
:1006C0009B308DF804301FFA88F89DF80530B8F19A
:1006D000170F28BF4FF0170867F30103DC3165F3EC
:1006E0008703424621440DF106008DF8053012F0D3
:1006F0002CF9012308F1060269462046FFF72AFF7C
:100700000028C6D194F8DB30013384F8DB300135A2
:10071000B5E700BFBC4D002000B5D0F8943089B0DB
:100720001BBA009300238DF804309DF805308DF836
:100730000610022243F0030362F387038DF80530AD
:10074000072204236946FFF705FF09B05DF804FBA3
:1007500038B50D46044620B97846194B1B680BB3D3
:100760009847022D04D97846154B1B68E3B198478A
:10077000A4F5D47494F8993013F0FB0F1ED0023B0B
:10078000012B04D978460E4B1B687BB1984729464C
:100790002046FFF7C1FF58B9042384F8993084F844
:1007A0009C5038BD00DEDCE700DEE1E700DEEEE76E
:1007B00029462046BDE83840FFF778BE38BD00BF67
:1007C000BC4D002000B5D0F8943089B01BBA00931E
:1007D0008DF804100123062269468DF80530FFF7D5
:1007E000B9FE09B05DF804FB00B589B0D0F89430CB
:1007F0009DF805201BBA009300238DF8043042F0C9
:100800000302012363F387028DF80520694606225F
:10081000FFF7A0FE09B05DF804FB10B5044609F02F
:10082000DBF9D4F8D410014404F1B800BDE810405D
:1008300009F048B9D0F8A0318B4206D1012380F8E5
:10084000A431024B186809F03BBE7047001A002023
:1008500037B591F89930032B05460C464ED191F8E7
:10086000D830022B4AD1D1F8D0301B1A002B14DA21
:1008700001212046FFF750FF48B9042384F899303E
:10088000012384F89C30C4F8AC0003B030BD1D4B8C
:10089000C4F8AC30C4F8D050F7E71B4B1B681B07FB
:1008A0001AD51A4B1B68042B16DD2F21184812F09D
:1008B0002BF9D0B12F21164812F026F9411C154B07
:1008C00094F8DC20D3F804350192134A00920520F5
:1008D00040F297320AF0EAFD0023204684F8DB302C
:1008E00003B0BDE83040FFF76BBE5C21084812F052
:1008F0000BF908B15C21DEE70549E0E70023C4F805
:10090000AC30C2E740420F00B01A0020AC1A002001
:100910001E31030000B000404131030013B504460E
:10092000EFF3108372B6174A1168C0F8BC1110605B
:1009300003B962B6144B1B681B0718D5134B1B6811
:10094000032B14DD2F21124812F0DEF888B12F217D
:100950000F4812F0D9F8411C0E4B0F4AD3F804355A
:10096000009201944FF4B67204200AF09FFD02B089
:1009700010BD5C21064812F0C7F808B15C21E7E71A
:100980000349E9E7A01D0020B01A0020AC1A00209E
:100990001E31030000B00040702D03002DE9F0412E
:1009A0000F4688B09046064628B97846354B1B68F6
:1009B000002B63D09847A6F5D47494F89830012B97
:1009C00003D194F89930002B5AD1012384F8983040
:1009D0002D4BC4F8A83000252C4B84F8D850A6F134
:1009E000880284F89B5084F89A5084F89950C4F88F
:1009F000A051C4F8C030C4F8C45080232449C4F8BE
:100A0000B0402046A6F58A76C4F8D480C4F8C84021
:100A10000CF03EFF0421304609F038FA802384F8B8
:100A20009B5084F89A3033688DF804501BBA0093B9
:100A30009DF8053043F0030365F387031022394620
:100A40000DF106008DF8053011F07FFF042316220A
:100A500069462046FFF77EFD054658B92046FFF758
:100A6000DCFE20460CF002FE2046FFF757FF022373
:100A700084F89930284608B0BDE8F08100DE9AE796
:100A80000825F7E7BC4D0020510802003D04020094
:100A90003508020038B5124B1C6800250CB901203E
:100AA00038BD94F8A43193B194F8993084F8A451E6
:100AB000042B94F8D8300DD1022B03D104F1A000FF
:100AC00008F0CEFF94F89C102046FFF7EFFCD4F816
:100AD000BC41E3E7022BFAD12046FFF771FDF6E7B0
:100AE000A01D00202DE9F8430F4690469946064682
:100AF00028B97846324B1A68002A5AD09047A6F592
:100B0000D47494F89830012B03D194F89930002BC9
:100B100053D1012384F898302A4BC4F8A83000251B
:100B2000294B84F8D85084F89B5084F89A5084F864
:100B30009950C4F8A051C4F8C030C4F8C450802300
:100B4000A6F188022149C4F8B0402046C4F8D490E8
:100B5000C4F8C8400CF09CFE8023C4F8945084F87C
:100B60009A5084F89B30424639462046FFF72BFACC
:100B7000054620B97846124B1B68E3B19847FF231E
:100B80002B714FF0FF332B6020464FF4FA610CF0CD
:100B90001FFE294620460CF0C9FD20460CF066FDDC
:100BA0002046FFF7BBFE012384F899300020BDE802
:100BB000F88300DEA3E700DEE1E70820BDE8F88364
:100BC000BC4D0020510802003D040200350802001F
:100BD00030B5074D0246FF23141AA14202DCD84368
:100BE000C0B230BD12F8014B6340EB5CF4E700BFCC
:100BF0009C2D03002DE9F843A0F5D474804694F8A9
:100C00009930032B0F46164640D1412A41D810F89F
:100C1000D05C002D40D12046FFF7FFFD08F0DCFF3F
:100C2000B11C1723B1FBF3F10131CBB2A16E5943D3
:100C300001F5F4111A4B01F5906148F8FC1C81464E
:100C4000C4F8A8300144A8F5847008F03BFF154BA8
:100C50004B4448F8D83C022384F8D8303146C4F8D5
:100C6000B04084F8DB5084F8D9603846FFF7B0FF15
:100C7000324684F8DA003946A8F1CC0011F065FE5E
:100C80002046FFF79DFC2846BDE8F8830820BDE814
:100C9000F8830920BDE8F8831120BDE8F88300BF80
:100CA0005108020080C3C9012DE9F0410B78012BE6
:100CB00092B005460C46164604D07846184B1B6881
:100CC00043B3984704F1040861784046FFF780FF7A
:100CD000A378834220D195F89A1028460027013640
:100CE000FFF770FDE77085F89A60667841463246F6
:100CF00001A811F02AFE28462770FFF78EFDD5F8CF
:100D0000B43132461B6801A905F5D470984712B07A
:100D1000BDE8F08100DED5E700232370F7E700BFD0
:100D2000BC4D002038B5044620B978460B4B1B68F3
:100D30008BB198470A4D2B68013303D1094809F05C
:100D400097FB2860002384F8AC31074BC4F8B0311E
:100D500004F5D47038BD00DEECE700BFBC4D0020C8
:100D6000001A0020950A02009C2E03002DE9FF4185
:100D700088461446054620B97846A34B1B6833B312
:100D8000984724B97846A04B1B6813B398472B6843
:100D90001A0E190242EA036201F47F011B0A0A4398
:100DA00003F47F431343EFF3108172B6974E346818
:100DB0008CB901B962B6687900F00303032B00F225
:100DC000F280DFE813F00F003501AD01380200DEDC
:100DD000D7E700DEDBE7D4F894209342E9D0D4F8DB
:100DE000BC41E5E7002C00F0DE8094F89930032B3D
:100DF00040F0D98094F8D830002B63D12A7994F848
:100E00009A309A4232D3EB881B0A84F8D9301722E1
:100E10000233B3FBF2F30133DBB2072B07D9022114
:100E200004F5D47004B0BDE8F041FFF791BC2B7A13
:100E300084F8DA30A8F10908012384F8D83084F85E
:100E4000DB30424605F1090104F1DC0011F07DFDC3
:100E500094F8D930984540F0A6802A7904F1D80159
:100E6000204604B0BDE8F041FFF71EBF684B1B6889
:100E70001A0717D5674B1B68042B13DD2F21664813
:100E800011F042FEA8B12F21634811F03DFE411C34
:100E9000624B634AD3F80435009240F2A522052044
:100EA0000AF004FB2979204604B0BDE8F041FFF7C1
:100EB00089BC5C21584811F027FE08B15C21E3E7AA
:100EC0005549E5E7022B524B79D1297994F89A20BC
:100ED0001B68914220D21B07E4D54E4B1B68042BA4
:100EE000E0DD2F214C4811F00FFE60B12F214A4860
:100EF00011F00AFE411C494B494AD3F804350092CF
:100F000040F2B122CBE75C21434811F0FDFD08B16E
:100F10005C21ECE74049EEE726D91F0743D53D4B5E
:100F20001B68012B3FDD2F213B4811F0EDFD90B1F7
:100F30002F21394811F0E8FD411C384B94F89A20D4
:100F4000D3F8043502922A790192364A009240F28F
:100F5000B622022025E05C212F4811F0D5FD08B112
:100F60005C21E6E72C49E8E71E071CD5294B1B68E6
:100F7000042B18DD2F21284811F0C6FDB0B12F2118
:100F8000254811F0C1FD411C244B94F89A20D3F858
:100F9000043502922A790192234A0092052040F2F8
:100FA000BA220AF083FA04B0BDE8F0815C211A4845
:100FB00011F0AAFD08B15C21E2E71749E4E71B68DC
:100FC0001C07F0D5134B1B68012BECDD2F211248B9
:100FD00011F09AFD78B12F210F4811F095FD411CB9
:100FE0000E4B124AD3F80435009240F2BF22022081
:100FF0000AF05CFAD7E75C21074811F085FD08B1DB
:101000005C21E9E70449EBE7BC4D0020A01D00206E
:10101000B01A0020AC1A00201E31030000B00040BE
:10102000B02E0300002F03004A2F0300832F03007C
:10103000002CB8D094F89930032BB4D194F8D83060
:10104000022BAF4B48D1297994F89B20914243D190
:101050001B6818071AD5AB4B1B68032B16DD2F2115
:10106000A94811F051FD70B32F21A74811F04CFD94
:10107000411CA64B94F8DC20D3F804350192A44A15
:101080000092042040F2FA220AF010FA002504F13E
:10109000A000C4F8AC5008F0E3FC20460CF0CCFBF8
:1010A00094F89B3084F8D850013384F89B30204664
:1010B000FFF7B3FBD4F8B4315B6804F5D47004B027
:1010C000BDE8F04118475C218F4811F01DFD08B1C3
:1010D0005C21CAE78C49CCE71B6819077FF563AF31
:1010E000884B1B68012B7FF75EAF2F21864811F0DC
:1010F0000BFD60B12F21844811F006FD411C834B8C
:10110000844AD3F8043500924FF443726FE75C21B0
:101110007D4811F0F9FC08B15C21ECE77A49EEE773
:10112000002C3FF440AF94F89930032B7FF43BAF91
:1011300094F8D860297994F89A30012E4CD19942CC
:1011400025D194F8DB3080080341DA073FF52BAF57
:101150001727013807FB0040A8F10602A91DF0304F
:1011600011F0F3FB6B7994F8DB209B0806FA03F38C
:10117000134394F8D9200232B2FBF7F70137DBB200
:10118000FFB284F8DB30BE400133B34263E65C4B10
:101190001B681B077FF507AF5A4B1B68012B7FF7B6
:1011A00002AF2F21584811F0AFFC60B12F215648F3
:1011B00011F0AAFC411C554B574AD3F80435009254
:1011C0004FF4397213E75C214F4811F09DFC08B1D0
:1011D0005C21ECE74C49EEE79942FFF464AE7FF600
:1011E000E2AE474B1B681F077FF5DDAE454B1B6822
:1011F000012B7FF7D8AE2F21434811F085FC88B131
:101200002F21414811F080FC411C404B94F89A205A
:10121000D3F8043502922A790192404A00924FF4A1
:101220003C7296E65C21384811F06EFC08B15C21F6
:10123000E7E73549E9E78008012873D023D302287E
:1012400000F0D1802E4B1B681B077FF5ACAE2D4BF9
:101250001B68012B7FF7A7AE2F212B4811F054FC00
:10126000002800F025812F21274811F04DFC411C5A
:101270006A79264B9208D3F804350192284A0092E5
:1012800040F26E32A2E0B8F1160F7FF48CAE07F098
:101290003BFD10220146A81D11F048FB00287FF4F9
:1012A00082AE002C40F01281EFF3108372B63468E6
:1012B0001CB9002B00F0068175E694F89920012AEC
:1012C00000F0FF80D4F8BC41F2E75C210E4811F039
:1012D0001BFC08B15C2126E10B4928E10023C4F87E
:1012E000943060E6032B7FF45EAE94F8D830002B88
:1012F0007FF459AE204604B0BDE8F041FFF774BA60
:10130000B01A0020AC1A00201E31030000B00040CB
:10131000B52F0300D02F0300F02F0300213003006E
:10132000F7300300002C3FF43EAEB8F1060F7FF417
:101330003AAE94F89930884D022B2AD120460CF011
:101340007BFA142120460CF043FA2B681D0740F16C
:10135000F880824B1B68032B40F3F3802F218048D9
:1013600011F0D2FB60B12F217D4811F0CDFB411C63
:101370007C4B7D4AD3F80435009240F24A32DDE0DE
:101380005C21774811F0C0FB08B15C21ECE774499F
:10139000EEE72B6818077FF506AE704B1B68012B34
:1013A0007FF701AE2F216E4811F0AEFB90B12F21D7
:1013B0006B4811F0A9FB411C6A4B94F89920D3F8B3
:1013C00004350192694A009240F2523202200AF03A
:1013D0006DF8E8E55C21624811F096FB08B15C21EC
:1013E000E6E75F49E8E7002C3FF4DDADB8F1070F11
:1013F0007FF4D9AD94F89930574E023B012B30D889
:1014000094F8D830022B03D104F1A00008F028FB97
:10141000A9792046FFF74AF8336819077FF5C3AD6D
:101420004E4B1B68032B7FF7BEAD2F214C4811F0AC
:101430006BFB68B12F214A4811F066FB411C494BF8
:101440004B4AD3F80435009204204FF45972CFE58B
:101450005C21434811F058FB08B15C21EBE740499F
:10146000EDE733681A077FF59EAD3C4B1B68012BF7
:101470007FF799AD2F213A4811F046FB78B12F2123
:10148000374811F041FB411C364B94F89920D3F8B2
:1014900004350192374A009240F2693296E75C21A6
:1014A0002F4811F031FB08B15C21E9E72C49EBE74B
:1014B0005C212B4811F028FB08B15C21D4E62849B7
:1014C000D6E61BB962B6002C3FF46DAD94F89930A6
:1014D000012B7FF407AF2B681A0E190242EA036250
:1014E00001F47F011B0A0A4303F47F4313432046A0
:1014F000C4F8943014210CF06BF92046FFF774F90E
:1015000000287FF4EBAE144B1B681E0719D5134B54
:101510001B68032B15DD2F21114811F0F5FA002867
:101520003FF4D3AE2F210E4811F0EEFA411C0D4BC3
:101530000D4AD3F80435009240F22D32042009F010
:10154000B5FF032384F899302046FFF766F9D4F8F5
:10155000B4319B68B1E500BFB01A0020AC1A00207E
:101560001E31030000B00040673003007D300300EF
:10157000AE300300C430030030B54B685D6883783B
:10158000092B85B0044637D12B78032B0BD8DFE825
:1015900003F05D02025D4068836802211B69984781
:1015A000022005B030BD2A4B1B689A0419D5294B7F
:1015B0001B68042B15DD2F21274811F0A5FA90B1E7
:1015C0002F21254811F0A0FA411C244B2A78D3F88A
:1015D00004350192224A0092052040F2A63209F019
:1015E00065FFA078DDE75C211B4811F08DFA08B19A
:1015F0005C21E6E71849E8E7154B1B689B04F0D52A
:10160000144B1B68032BECDD2F21134811F07CFADF
:1016100098B12F21104811F077FA411C0F4BA27896
:10162000D3F8043502922A7801920E4A00920420DF
:1016300040F2AA3209F03AFFD3E75C21064811F0E4
:1016400063FA08B15C21E5E70349E7E70720A8E76B
:10165000B01A0020AC1A0020CA33030000B00040CA
:10166000F53303000E34030037B582784B680A2A3D
:101670005D68674B04464CD00B2A40F0A0802A7866
:101680001B68052A24D19C0417D5624B1B68042BC8
:1016900013DD2F21604811F037FA80B12F215E4809
:1016A00011F032FA411C5D4B5D4AD3F804350092CB
:1016B00040F2C722052009F0F9FE022074E05C2107
:1016C000554811F021FA08B15C21E8E75249EAE7F0
:1016D0009804F2D54F4B1B68042BEEDD2F214E48AA
:1016E00011F012FA60B12F214B4811F00DFA411C94
:1016F0004A4B4C4AD3F8043500924FF43372D9E781
:101700005C21454811F000FA08B15C21ECE7424940
:10171000EEE72A781B68052A24D1990417D53D4B9A
:101720001B68042B13DD2F213B4811F0EDF980B12C
:101730002F21394811F0E8F9411C384B3A4AD3F8C7
:1017400004350092052040F2D32209F0AFFE0720B5
:101750002AE05C21304811F0D7F908B15C21E8E7B4
:101760002D49EAE79A0419D52A4B1B68042B15DD8D
:101770002F21294811F0C8F9C0B12F21264811F0B6
:10178000C3F9411C254B2A78D3F804350192274A26
:10179000009205204FF4367209F088FE6068836875
:1017A00002211B699847062003B030BD5C211A480E
:1017B00011F0AAF908B15C21E0E71749E2E71B68DC
:1017C0009B0419D5134B1B68012B15DD2F211248E3
:1017D00011F09AF990B12F210F4811F095F9411CA1
:1017E0000E4BA278D3F804350192114A00920220E0
:1017F00040F2DE2209F05AFEA078D5E75C210648C7
:1018000011F082F908B15C21E6E70349E8E700BF7F
:10181000B01A0020AC1A0020CA33030000B0004008
:101820009C320300B4320300D0320300E7320300DD
:101830000533030030B583780C2B85B004460D4684
:1018400002D1C07805B030BD154B1B689B041BD579
:10185000144B1B68032B17DD2F21134811F054F98B
:10186000A0B12F21104811F04FF9411C0F4BA27865
:10187000D3F8043502922A7801920D4A009204208E
:101880004FF4EB7209F012FEA078DBE75C2106480A
:1018900011F03AF908B15C21E4E70349E6E700BF3B
:1018A000B01A0020AC1A0020CA33030000B0004078
:1018B000963303001FB583788B42044621D0C37052
:1018C000154B81701B689B041BD5144B1B68042BA4
:1018D00017DD2F21124811F017F9A0B12F21104860
:1018E00011F012F9411C0F4BA278D3F80435029283
:1018F000E27801920C4A009205204FF4807209F0C0
:10190000D5FD04B010BD5C21054811F0FDF808B10B
:101910005C21E4E70249E6E7B01A0020AC1A002097
:10192000CA33030000B00040863103002DE9F043C4
:101930007A4D2B7895B00446002B40F09F80012310
:1019400077482B7007F0A0FA764FDFF8E081DFF8D8
:10195000E091064602A9384607F06AFA9DF8083079
:10196000002800F08E80092B43D0002E41D06C4817
:1019700007F08AFA86423CD102A9694807F058FA72
:1019800030B17846684B1B68002B00F0B180984757
:101990009DF80830092B20D0644B1B689A041CD595
:1019A000634B1B68042B18DD2F21624811F0ACF843
:1019B000002800F09F802F215E4811F0A5F8411CFF
:1019C0005D4B9DF80820D3F8043501925B4A0092E4
:1019D000052040F2CB3209F069FD9DF80820584BF4
:1019E00002A953F822302046984701462046FFF7C7
:1019F00061FF94F82830002B3ED09DF80830092B69
:101A00003AD00E2B38D0A378022B35D100238DF895
:101A10000830464B1B689B041BD5454B1B68042BA9
:101A200017DD2F21434811F06FF800286BD02F21CC
:101A3000404811F069F8411C3F4B9DF80820D3F84D
:101A4000043501923D4A009205204FF4767209F068
:101A50002DFD332200213B4810F082FF3A48FEF76B
:101A600010FA28B17846304B1B68002B54D09847A9
:101A700003212046FFF71EFF00232B7015B0BDE8A1
:101A8000F083092B1ED0D8F8003099041AD5D9F864
:101A90000030042B16DD2F21264811F035F8F0B167
:101AA0002F21244811F030F8411C234B9DF80820C9
:101AB000D3F804350192214A0092052040F2BF324A
:101AC00009F0F4FC9DF808201D4B02A953F82230C0
:101AD0002046984701462046FFF7ECFE3AE75C2196
:101AE000144811F011F808B15C21DAE71149DCE77C
:101AF00000DE4DE75C210F4811F006F808B15C21CB
:101B00005AE70C495CE75C210A4810F0FDFF08B178
:101B10005C218DE707498FE700DEA9E7A41D0020BF
:101B2000E81D00208C1E0020BC4D0020B01A0020B3
:101B3000AC1A0020CA33030000B000404C3403004C
:101B400014320300301F0020891D020030B51546F5
:101B500095B00C4621B978463C4B1B6853B1984769
:101B600055B1012D31D07846384B1B68002B6BD016
:101B700098471FE000DEF3E7354B1B689A0419D540
:101B8000344B1B68042B15DD2F21334810F0BCFFAC
:101B900090B12F21304810F0B7FF411C2F4BA28984
:101BA000D3F8043501922E4A009205204FF4987222
:101BB00009F07CFC15B030BD5C21274810F0A4FF73
:101BC00008B15C21E6E72449E8E7214B1B689B0448
:101BD00019D5204B1B68012B15DD2F211E4810F055
:101BE00093FF30B32F211C4810F08EFF411C1B4B7C
:101BF000A289D3F8043501921A4A0092022040F2D9
:101C0000351209F053FC0021482202A810F0A8FE6A
:101C10000E2302A914488DF8083007F0E1F820B12E
:101C200078460A4B1B686BB198472046FFF77EFE4B
:101C3000C0E75C21084810F067FF08B15C21D2E7DB
:101C40000549D4E700DEF0E700DEB3E7BC4D002035
:101C5000B01A0020AC1A0020CA33030000B00040C4
:101C600068340300823403008C1E002030B593B02A
:101C70000D46046900214822684610F071FE0723D2
:101C800069460A488DF800308DF8045007F0A8F82E
:101C900020B17846064B1B682BB198472046FFF7CA
:101CA00045FE13B030BD00DEF8E700BF8C1E0020FB
:101CB000BC4D002010B592B004690021482268464E
:101CC00010F04EFE0523694608488DF8003007F0F5
:101CD00087F820B17846064B1B682BB19847204601
:101CE000FFF724FE12B010BD00DEF8E78C1E0020C6
:101CF000BC4D002010B592B004690021482268460E
:101D000010F02EFE0B23694608488DF8003007F0CE
:101D100067F820B17846064B1B682BB198472046E0
:101D2000FFF704FE12B010BD00DEF8E78C1E0020A5
:101D3000BC4D002070B50569AB78072B92B01646F4
:101D400001D0092B17D112AC0C2304F8483D3246C0
:101D50000DF1060010F0F9FD21460948ADF80460C8
:101D600007F03EF820B17846064B1B682BB1984728
:101D70002846FFF7DBFD12B070BD00DEF8E700BFBC
:101D80008C1E0020BC4D002010B5037892B0B3B972
:101D900012AC092304F8483D011D1C2201A810F0D3
:101DA000D4FD2146084807F01BF820B17846074BC0
:101DB0001B6833B19847064B1868FFF7B7FD12B0A0
:101DC00010BD00DEF7E700BF8C1E0020BC4D0020D8
:101DD000641F002008B58378093B032B09D84068AD
:101DE000836802211B699847064807F04AF80220D9
:101DF00008BD7846044B1B680BB19847F7E700DE37
:101E0000F5E700BFE81D0020BC4D00207846034BDD
:101E10001B6803B1184700DE704700BFBC4D0020AF
:101E200010B58181084C04614FF6FF71C181838236
:101E30008283C183083002F05DFB18B1BDE8104019
:101E4000FFF7E4BF10BD00BFA51D002073B5424ED3
:101E50003268920405460C461AD5404B1B68042B89
:101E600016DD2F213E4810F04FFE00283FD02F21D5
:101E70003B4810F049FE411C3A4BA279D3F8043597
:101E80000192394A0092052040F2723209F00EFBAD
:101E9000AB78072B3FD0092B55D133689B0419D55C
:101EA0002E4B1B68042B15DD2F212D4810F02CFE26
:101EB00030B32F212A4810F027FE411C294B2278ED
:101EC000D3F804350192294A0092052040F2763277
:101ED00009F0ECFA2146264806F082FF20B1784648
:101EE000244B1B68ABB19847A87802B070BD5C2149
:101EF0001B4810F009FE08B15C21B9E71849BBE79F
:101F00005C21174810F000FE08B15C21D2E71449AB
:101F1000D4E700DEE8E7A388412B04D97846154BC7
:101F20001B6873B19847A2881348A11D10F00DFDDE
:101F30002846A38848F260021221FFF771FF0920AA
:101F4000D3E700DEEFE778460A4B1B6813B19847EA
:101F50000220CAE700DEFBE7B01A0020AC1A00201E
:101F6000CA33030000B000403F3303005633030080
:101F7000E81D0020BC4D0020A51D002013B583786E
:101F8000082B04460BD11A4B00221A701121012391
:101F900048F26002FFF744FF092002B010BD154B64
:101FA0001B689B0419D5144B1B68012B15DD2F21D1
:101FB000124810F0A9FD90B12F21104810F0A4FD97
:101FC000411C0F4BA278D3F8043501920D4A0092C0
:101FD000022040F26B3209F069FAA078DDE75C215B
:101FE000064810F091FD08B15C21E6E70349E8E7F7
:101FF000A51D0020B01A0020AC1A0020CA3303002F
:1020000000B000402933030013B58378052B044644
:102010000ED11C4B00221A70FF225A7048F26C013C
:10202000022348F26302FFF7FBFE0A2002B010BD54
:10203000154B1B689B0419D5144B1B68042B15DD2D
:102040002F21134810F060FD90B12F21104810F09F
:102050005BFD411C0F4BA278D3F8043501920E4A68
:102060000092052040F2612209F020FAA078DDE715
:102070005C21074810F048FD08B15C21E6E70449FF
:10208000E8E700BFA51D0020B01A0020AC1A002010
:10209000CA33030000B000406D32030037B58378C7
:1020A000053B04460D46052B5ED8DFE803F00C53D4
:1020B00053531E03008802F0FBF920B178462B4BE6
:1020C0001B6883B198472A4B01221A702A795A70EB
:1020D0002046022348F2630248F26C01FFF7A0FE9B
:1020E0000B2003B030BD00DEEDE7224B1B689B04E4
:1020F00019D5214B1B68042B15DD2F211F4810F02B
:1021000003FDE0B12F211D4810F0FEFC411C1C4BCB
:102110002A78D3F8043501921A4A0092052040F239
:10212000A12209F0C3F92946174806F059FE20B14B
:1021300078460E4B1B685BB198470920D1E75C21BC
:102140000E4810F0E1FC08B15C21DCE70B49DEE74A
:1021500000DEF2E7064B01221A700A7912B9022159
:102160001970B4E70321FBE70220BAE7BC4D002059
:10217000A51D0020B01A0020AC1A0020CA330300AD
:1021800000B0004056330300E81D002008B501F000
:1021900069FD30F0040303D0BDE80840FFF736BE08
:1021A00008BD000070B54B685B6888B01E7848F2C7
:1021B0006303ADF810304FF6FF73ADF8123003AB88
:1021C00005930223ADF818308378063B04460D468C
:1021D000042B22D8DFE803F0140C0C030300008862
:1021E00002F066F920B17846244B1B689BB19847F2
:1021F00060688368022E31461B6928BF0221984718
:102200000523208869688DF80C3004AAFFF7BEFF0B
:10221000062008B070BD00DEEAE7194B1B689B047E
:1022200019D5184B1B68012B15DD2F21164810F00E
:102230006BFCD0B12F21144810F066FC411C134BED
:10224000A278D3F804350192114A0092022040F29C
:10225000862209F02BF90323208869688DF80C3059
:1022600004AAFFF793FFA078D3E75C21064810F09B
:102270004BFC08B15C21DEE70349E0E7BC4D0020E0
:10228000B01A0020AC1A0020CA33030000B000408E
:10229000503203002DE9F0438BB08378023B022BD0
:1022A00004AF0446884665D83C4B4D681B6813F460
:1022B000005F05F1040537D0394B1B68042B33DD73
:1022C000384BE9468AB0196804AE2846002310F856
:1022D000012B4FEA121E02F00F0211F80EE006F871
:1022E00003E011F802E0F2180233202B82F801E03B
:1022F000EDD1002386F820302F212B4810F004FC6C
:1023000078B32F21284810F0FFFB411C274B284AA7
:10231000D3F804350192274A009202964FF4C8720E
:10232000052009F0C3F8CD4610222946224810F0B6
:102330000CFB00233B7148F267033B814FF6FF73B0
:102340007B813B1DFB602088D8F80410012307F136
:1023500008023B82FFF71AFF04201C37BD46BDE888
:10236000F0835C21104810F0CFFB08B15C21C9E775
:102370000D49CBE702233B7148F267033B814FF6DF
:10238000FF737B813B1DFB6000884968012307F1D7
:1023900008023B82FFF7FAFEA078DEE7B01A0020C1
:1023A000AC1A0020B41A0020CA33030000B0004069
:1023B000B4330300C2330300311F002070B588B06E
:1023C00048F26003ADF810304FF6FF730446ADF8E5
:1023D0001230807803AB05930123ADF81830431F0A
:1023E0000D46052B38D8DFE803F01C37032D371CCA
:1023F0004B6894F829205B681B789A4222D0606869
:1024000084F829304B688268596816681A89B04781
:1024100048B98DF80C0004AA20886968FFF7B6FE59
:10242000082008B070BD6068836802211B69984766
:102430000223208869688DF80C3004AAFFF7A6FEF5
:102440000620EEE70023208869688DF80C3004AA86
:10245000FFF79CFEA078E4E7144B1B689B0419D59A
:10246000134B1B68032B15DD2F21124810F04CFB7A
:1024700090B12F210F4810F047FB411C0E4BA27862
:10248000D3F8043501920D4A0092042040F25532EF
:1024900009F00CF80123D6E75C21064810F034FB64
:1024A00008B15C21E6E70349E8E700BFB01A002065
:1024B000AC1A0020CA33030000B0004069330300A7
:1024C00070B58378023B86B0022B04460D4601AE00
:1024D00026D8332200211D4810F042FA00238DF83F
:1024E000043048F26703ADF808304FF6FF73ADF8DB
:1024F0000A30208869680396012302AAADF81030DB
:10250000FFF744FE1248FDF7BCFC20B17846114BA2
:102510001B681BB19847032006B070BD00DEFAE7C8
:1025200002238DF8043048F26703ADF808304FF607
:10253000FF73ADF80A30008849680396012302AAA8
:10254000ADF81030FFF722FEA078E5E7301F00203D
:10255000891D0200BC4D002070B5837815469A1E77
:10256000022A88B004460E4607D90B3B022B04D939
:1025700078462F4B1B682BB3984760682D4A8368B9
:102580002946DB6898470546F0B948F26303ADF881
:10259000103003AA4FF6FF7384F829300592022207
:1025A000ADF818208DF80C008DF80D0004AA2088D5
:1025B0003168ADF81230FFF7E9FDFDF76AFC052040
:1025C00008B070BD00DED8E71B4B1B689B0418D514
:1025D0001A4B1B68012B14DD2F21194810F094FAB7
:1025E000E0B12F21164810F08FFA411C154B164A06
:1025F000D3F804350092019540F2F912022008F058
:1026000055FF124A022313705370204648F26302AA
:1026100048F26C01FFF704FC0B20D1E75C2108486D
:1026200010F072FA08B15C21DCE70549DEE700BF73
:10263000BC4D002000879303B01A0020AC1A002084
:10264000CA33030000B00040A4310300A51D0020E0
:1026500070B586B048F263030D46ADF8083049689E
:102660004FF6FF730446ADF80A3080784E6801AB30
:1026700003930223ADF81030831E0B2B1BD8DFE829
:1026800003F015151E323939391A390C0C0610228F
:1026900031461B4810F04AF9C0B9208801F008FF04
:1026A00020B17846174B1B683BB198473246291D2D
:1026B0002046FFF751FF06B070BD00DEF6E710229E
:1026C00031460F4810F032F90028EFD004238DF87E
:1026D0000430696800238DF8053002AA2088FFF7CE
:1026E00055FDA078E7E700238DF804308DF805301C
:1026F00002AAF3E701238DF804300023F6E700BFB8
:10270000311F0020BC4D002070B582780123033AB0
:1027100086B09A42044648F2670501AA008813D899
:10272000039249688DF8043002AA4FF6FF74ADF8A1
:102730001030ADF80850ADF80A40FFF727FDFDF75F
:10274000A8FB022006B070BDADF808500392032626
:102750004FF6FF7502AA49688DF80460ADF80A507B
:10276000ADF81030FFF712FDA078EBE72DE9F0414E
:102770000646A0B00C46154622B978465C4B1B684D
:102780001BB398472B88B34204D07846584B1B683C
:10279000EBB19847574B02AA03F1300E1746186861
:1027A0005968164603C6083373453246F7D1218867
:1027B00012290ED10A238DF838302389013B9BB2B0
:1027C000402B18D920B0BDE8F08100DEDAE700DE4A
:1027D000E0E70022062000FB02F3FE5A8E4232D1CF
:1027E00020AA1344228933F8761C9142EAD113F8C7
:1027F000743C8DF8383020AE4FF6FF7826F87C8D8B
:102800002888314601F056FA00283BD1BDF8040073
:10281000404537D0394602F09FFE002832D1BDF83E
:102820000A20E3899A422DD10EA933480F9406F06D
:10283000D7FA20B178462E4B1B680BB39847284631
:10284000FFF774F8BEE70132082AC4D1BAE70423BF
:102850008DF80430ADF80820012328880396ADF8E0
:1028600010303A462146FFF791FCABE706238DF87E
:102870000430ADF80810EFE7032227E000DEA1E7FF
:1028800000DEDCE74FF6FF73ADF80A30238848F22C
:1028900063018B4296D00DD848F26002934291D0EA
:1028A000E4D8122BD3D07846114B1B68002BE5D00F
:1028B000984787E748F26602934212D848F26502C9
:1028C0009342288848F26703D6D30222ADF8083035
:1028D00001238DF804200396ADF810303A462146C6
:1028E000C1E748F26D0293423FF46CAFDBE700BFF3
:1028F000BC4D0020563103008C1E00202DE9F04312
:1029000006468078032889B00C4605D0042800F0DC
:10291000828009B0BDE8F083DFF85081002547468A
:1029200001F1040915F8083043B1681C102249462A
:1029300040440FF0FBFF08B9B078EAE71135332DBA
:10294000F0D13D782DB17B7CFBB197F82230F3B903
:10295000022505EB051001233B5418440434384488
:102960003A4F102221460FF0F0FF10222146384640
:102970000FF0EBFF3046112348F26D0248F26A0176
:102980003D74FFF74DFA0C20C3E70125E1E7304B1A
:102990001B689B0417D52F4B1B68042B13DD2F21BD
:1029A0002D4810F0B1F858B32F212B4810F0ACF897
:1029B000411C2A4B2A4AD3F804350092052040F2E4
:1029C0000F3208F073FD48F26702ADF810204FF6A1
:1029D000FF720123ADF8122004A903AA30888DF8F4
:1029E0000C30ADF81830059201F036F930F00403E0
:1029F00004D078461B4B1B685BB19847022088E7E0
:102A00005C21154810F080F808B15C21CDE712492F
:102A1000CFE700DEF2E704341022214612480FF01F
:102A200085FF0746002887D1084D102221462846F9
:102A30000FF08BFF3046112348F26D0248F26A0115
:102A40002F74FFF7EDF90D2063E700BFA51D0020EF
:102A5000B01A0020AC1A0020CA33030000B00040B6
:102A600033340300BC4D0020311F0020301F0020F4
:102A70002DE9F041884686B00446002835D0857897
:102A8000002D34D11B481C4B0360482602274660AA
:102A9000876006F07DF91948194B876080E8480087
:102AA00006F076F9174BADF804801D700423ADF8DD
:102AB00000304FF6FF73ADF80230134B02932146FE
:102AC0000923684603930494059500F0E9FF48B98B
:102AD000238823810D4B63620D4B23620123A37076
:102AE0000C4B186006B0BDE8F0810E20FAE7082014
:102AF000F8E700BF8C1E0020A01E0020E81D00206B
:102B0000FC1D0020A41D0020CC3103004D1B020041
:102B100080C3C901641F002058B18378012B0AD1FA
:102B2000064A13683BB902218170C17010601846D3
:102B300070470E2070470820704700BF641F0020B8
:102B400031B1044B4160CB6043681861002070478D
:102B50000E2070475834030038B5837803F0030221
:102B60000446032A22D8DFE802F00214191D9B084C
:102B7000174A1848126813440268A36000210AB378
:102B800095685D1B002D1ADAF1B91146E160046009
:102B900038BD9B0803EB83035B00E9E79A086423D5
:102BA0005343E5E79A0841F27073F9E778460A4B18
:102BB0001B6813B198470023DAE700DED8E7114617
:102BC000D268DCE70029E1D0CC60E26038BD00BF0C
:102BD000801F0020881F0020BC4D002008B503285E
:102BE00009D8DFE800F011020406084808BD0848CB
:102BF00008BD084808BD7846074B1B6813B19847C5
:102C0000002008BD00DEFBE7044808BD40420F007D
:102C1000809698000046C323BC4D0020A08601008A
:102C20002DE9F041574D2B78A3B1574B574E5C68B7
:102C300006F0D2FF241A3078FFF7D0FF3278544BD9
:102C4000001B002A40D14CF2503290423CD91A6805
:102C500001321A60DFF84881D8F80020002A00F01D
:102C600087804A4E9378307803F0030383423446DA
:102C700064DD474B97681B68FB1A464F5F43FFF7BD
:102C8000ADFFD8F80030B7FBF0F09F78C7F301072D
:102C9000FBB2022B1FD031D8012B47D10A22B0FB47
:102CA000F2F302FB1300002840D106F095FF00F577
:102CB000742101F5107137702B78002B50D03248F9
:102CC000BDE8F04106F0FEBE1A683249B0FBF1F0F3
:102CD00010441860BEE7337863B96422B0FBF2F3A6
:102CE00002FB130010BB06F077FF2B4902230144BF
:102CF0002370E1E7012B19D10A22EFE7337863B99A
:102D000041F27072B0FBF2F302FB130070B906F0EF
:102D100063FF224903230144EAE7012B02D14FF468
:102D20001672EFE7022B01D13C22EBE706F054FFCD
:102D300006462078FFF752FF3118BDE706F04CFF3A
:102D4000D8F800300446987800F00300FFF746FFFB
:102D5000D8F800309B78C3F3010321183370ABE738
:102D6000094801232B704160BDE8F04106F050BED8
:102D70002B7823B10448BDE8F04106F071BEBDE8F0
:102D8000F08100BF841F0020681F0020851F0020E5
:102D9000801F0020A0860100809698000046C32373
:102DA000881F00202DE9F341284B1B78032B2AD8DC
:102DB000DFE803F0021B1F23254A13680133136069
:102DC000244B254E224D00221A70B04634683CB187
:102DD000A3682A6893421ED02A689B1A002B1ADB2C
:102DE000FFF71EFF02B0BDE8F081194A13680A33ED
:102DF000E5E7174A13686433E1E7154A136803F5FA
:102E0000BB531033DBE77846144B1B680BB1984774
:102E1000D6E700DED4E72788E368C8F8003002A9C7
:102E2000002341F8043D384601F0C0F920B178464E
:102E30000A4B1B6843B19847384663680199984725
:102E40002046FFF789FEC1E700DEF5E7851F002079
:102E5000801F0020841F0020881F0020BC4D002000
:102E600010B5084C1822002120460FF079FD064BC2
:102E7000064AA36000231360054A1360054A1370D5
:102E800010BD00BF681F0020A52D0200801F00207C
:102E9000881F0020841F0020F8B50F461646044600
:102EA00020B97846154B1B68FBB19847144D07F0C5
:102EB00091FA2B6800220BB1A34218D1A17867F3D5
:102EC000010166F38701A170ABB1DB6892B92B6099
:102ED0002EB12046FFF740FE2B689C4201D1FFF740
:102EE0009FFEBDE8F84007F09DBA00DEDEE71A4617
:102EF000DB68E0E7D360002EF3D0EAE7BC4D0020AA
:102F0000881F002070B50E461546044620B9784645
:102F1000074B1B684BB19847A378C3F30103337089
:102F2000A378C3F385032B7070BD00DEF4E700BF08
:102F3000BC4D00204A09012301F01F0103FA01F1F1
:102F400050F82230194214BF0120002070474FF67C
:102F5000FF72B2EB104F82B083B215D113F47F40F1
:102F600007D003F44043B3F5004F14BF0020012005
:102F700006E023F07F022AB97F3B18BF01231846E1
:102F800002B070470346FAE723F03F03C02BECE79B
:102F900002289FBF054B342202FB003090F830001E
:102FA00094BF00F001000020704700BFC41F002044
:102FB0007846034B1B6803B1184700DE704700BF1B
:102FC000BC4D0020004700004388C3F30B03022BD5
:102FD0000DD8084A12F8331041F0010102F83310FD
:102FE00002EBC3034268D2435A60012070470020BD
:102FF000704700BF602000204388C3F30B0323B950
:10300000034B82881A80012070470020704700BF60
:103010008C1F00202DE9F3414FF470430024DFF8AA
:103020004C80ADF804300E461746ADF80600254634
:103030002A4601A9404608F033FE054640B1B8478C
:1030400018B10134F4E700DE0AE04FF0FF3407E086
:10305000B44205DD7846044B1B68002BF3D098473B
:10306000204602B0BDE8F081BC4D00209C1F00202E
:1030700008B5064B064801221A7008F0DBFD20B1A6
:103080000448BDE8084008F0DDBF08BDC01F0020AF
:103090009C1F0020141A00202DE9F04107F09AF936
:1030A000444B1B78002B40F08180434C237873B94C
:1030B00006220121414808F029FE002878D0032289
:1030C0000125C5800281828008F05CFE2570002504
:1030D0003B4EDFF8E8802C46A9B26CB3394DDFF8DF
:1030E000DC800026B1B2002C43D195F8303003F0DB
:1030F0000303032B16D1142241F40051404608F07B
:1031000005FE074600284FD01422294604300FF050
:103110001CFC384608F036FE95F8303023F00203E8
:1031200085F830300136032E05F13405DAD104BBC1
:10313000BDE8F04107F076B916F8353003F0030327
:10314000032B4FEAC50710D1042241F440514046F9
:1031500008F0DCFD88B1F3195B68DB43436008F0DD
:1031600011FEBB5D23F00203BB550135032DB3D126
:103170002CB1154808F066FFDAE71124F5E7134D86
:103180006B799B07AAD502224FF480510B4808F0B7
:10319000BDFD0028EDD02A88828008F0F3FD6B7910
:1031A00023F002036B7199E71124BBE7082495E72C
:1031B000112493E7C01F0020C11F00209C1F002086
:1031C00060200020C41F0020241A00208C1F002033
:1031D00008B59C2200210D480FF0C2FB06220021F9
:1031E0000B480FF0BDFB182200210A480FF0B8FB76
:1031F000064B4FF6FF7203F19C010320DA809A80A0
:10320000D8819A8134338B42F8D108BDC41F002085
:103210008C1F00206020002010B586B00E4B039359
:103220000E4B04930E4B05930423029302F042F8D5
:103230000C4CA0F580500123009069460A48019388
:10324000237008F0DBFD20B1084808F0FBFE06B053
:1032500010BD2070FBE700BFC9320200B12F020091
:1032600071320200C01F00209C1F0020041A0020A1
:103270001249002311F83320D00744BF42F0020264
:1032800001F833200133032BF4D10D4B1A881AB106
:103290005A7942F002025A710A480023C1183433A5
:1032A00091F8302012F0010F1CBF42F0020281F8A9
:1032B00030209C2BF2D1FFF7AFBF00BF6020002071
:1032C0008C1F0020C41F002030B5012A8DB0044699
:1032D0000D4606D17846104B1B68D3B198470DB008
:1032E00030BD022AF6D0032AF9D12C22002101A8F0
:1032F0000FF036FB0E238DF8043002238DF80830D2
:10330000E368059301A823690395069305F000FD82
:10331000E5E700DEE3E700BFBC4D00204A0901F00D
:103320001F034FF0FF31994050F82230194009D067
:103330004B420B4004495943C90E044B585C00EB07
:10334000421070470520704731B57C07D634030022
:1033500070B54588C5F30B05022D044639D8008A9F
:10336000002836D11C4E628A342303FB0563DB89B7
:10337000022B07D89A422DD1184B13F8323013F094
:10338000010027D0022A9CBF144911F832304FF0B7
:1033900034009CBF43F0040301F8323000FB0560A9
:1033A000211D14220FF0D1FAE188238A4FF6FF7213
:1033B00091420B4A4FF0060101FB03234FF001003D
:1033C0000BBF9A78DA78013201320CBF9A70DA704A
:1033D00070BD002070BD00BFC41F00206020002011
:1033E0008C1F00202DE9F743037D012B04463CD1BF
:1033F00001A802F037F8E38ABDF80460B34222D393
:10340000BDF80620324493421DDA9B1B484D9EB204
:103410004FF0000895F82830DA070DD5AB88B34295
:103420000AD1618C2846FFF785FD28B1278860887E
:10343000298C00238B4209D308F10108B8F1030F4E
:1034400005F13405E6D103B0BDE8F083EA694FEA3F
:10345000C30902EB090E32F83320BA4203D1BEF899
:10346000022082424ED00133E4E74FF6FF7301A9F8
:103470001430ADF8043002F0C9F820B178462D4B75
:103480001B687BB39847BDF8040002F04BF820B9E5
:103490007846284B1B683BB39847254DDFF898804A
:1034A000002695F82830DB0716D5EF88022F13D8B1
:1034B000618C2846FFF73EFD70B108EBC700BDF8F0
:1034C00004100430FFF736FD30B1B4F800E067882F
:1034D000288C0023834209D30136032E05F13405DD
:1034E000DFD1B0E700DECEE700DED6E7E96901EB29
:1034F000C30231F83310714502D15188B94210D05E
:103500000133E7E71FFA88F76A6A2146384600F078
:103510006DFFEB696A6A4B4421465B683846984701
:103520008AE753686A6A2146B0B29847D4E700BF79
:10353000CC1F0020BC4D00206020002070B5037817
:103540008CB00646002B75D143681C7804F0C0028D
:10355000402A0ED003D862B100252C460EE0802A06
:103560006AD0C02AF8D15A789D78A4B245EA0225DB
:1035700004E0A4B27F2C5DD04FF6FF75374B1B687B
:103580009B0419D5364B1B68042B15DD2F213548BC
:103590000FF0BAFA002853D02F2132480FF0B4FAB6
:1035A000411C314B314AD3F804350092019440F26A
:1035B0002312052007F07AFF306A02F08FF84FF6E9
:1035C000FF729542ADF80C40ADF80E50736840D1D3
:1035D000FF2C8CBF0222012213444FF6FF7295424A
:1035E0000493338937D1FF2C8CBF022201229B1A0E
:1035F000ADF81430337B8DF81830F389ADF81A30FC
:1036000033690793337D8DF82030F38AADF822308B
:10361000B3690993B36A5A680A9293F90D308DF829
:103620002C30ADF82E0096F824308DF82D3003A8FC
:10363000FFF7D8FE0CB070BD5B7843EA04249BE72B
:103640005C2108480FF060FA08B15C21A5E7054944
:10365000A7E70322C0E70322C9E700BFB01A002092
:10366000AC1A0020A734030000B00040C3340300AC
:103670002DE9F04F93B00B89B3F5BE7F02AF8346BF
:103680000C46904680F08480FFF782FC002800F012
:103690008180A04A342303FB0B239146998900299A
:1036A00078D1B8F1000F07D199884FF6FF72914297
:1036B00007D0DB88934204D02068FFF748FC00283D
:1036C0006CD1072539E0D888B3F804A0F8813146D9
:1036D00001F042FF002800F0858078468E4B1B6881
:1036E0000BB198477EE000DE7CE07B8A0B449A4277
:1036F00080F28D802422002140460FF031F92368AA
:10370000FB6163683B6296E803002389BB84012365
:1037100087F8283007F1300383E803007D8506F041
:103720005BFAB863404687F83D90A7F83EA0FFF7E4
:1037300059FE3B7D012B6AD1002528464437BD4602
:10374000BDE8F08FF8894FF6FF7398425FD001F023
:10375000E9FE0028CED15AE003226AE000DE7DE0D7
:10376000032590E011F47F4F1DBF0D0A8BF8005028
:103770008BF801108BF8001095E003209DE05C2190
:1037800066480FF0C1F908B15C21B0E06349B2E0CE
:103790000925D2E70525D0E71025CEE707F110006F
:1037A00001F060FE342303FB0B937A8A9D89AA42C1
:1037B000F2D93A8A1544ADB207F11406B8F1000FF8
:1037C00081D0B8F822A008F10C0898E8030086E838
:1037D000030007F10E01404601F018FF10B14FF64B
:1037E000FF73FB81342303FB0B9907F11C0899F845
:1037F0001090B9F1FF0F04BF494B93F800903B7D47
:10380000012B9FD1FA8A398A8A42BFF46EAF2022F7
:1038100000214046C7F804D00FF0A2F86188238841
:103820004FF6FF72914297D1B3F5807F34BF0122EA
:10383000022223891344073323F00703ADEB030D62
:1038400007F1300150460DF1080B02F02FFA28B1B4
:103850007846314A1268002A80D0904796E80300E3
:1038600088E803006088BD844FF6FF75A84287F89A
:103870002690C7F828B0228921887FF471AFFF29EC
:103880008CBF022501251544BD85E568BD634FF653
:10389000FF75A8423FF466AF050A8BF800108BF85D
:1038A00001508BF802004FF6FF75A8427FF465AF18
:1038B000B1F5807F34BF01200220616858440FF0C9
:1038C00044F80021404605F025FF0546F8B9154BA0
:1038D0001B689B041BD5144B1B68042B17DD2F2181
:1038E0000E480FF011F900283FF449AF2F210B4883
:1038F0000FF00AF9411C0D4B2288D3F804350192D0
:103900000B4A009205204FF4E37207F0CFFDD7F881
:1039100004D012E7C41F0020BC4D0020A7340300D0
:10392000341A0020B01A0020AC1A002000B0004069
:10393000F63403002DE9F04708F0A6FB0446B0B1C9
:10394000DFF814913E480025012189F8005008F065
:1039500083F9C846002871D0C788012F0DD00024F4
:1039600088F80040FFF784FB2046BDE8F08706F0AA
:103970002BFE0028E0D020BFDEE70389032BEED129
:103980008688032EEBD12F4A89F8007031464FF418
:103990004050FFF73FFB0028E1DB2B4B5A799D702D
:1039A00022F002025A71DD701D80284A39464FF418
:1039B0008050FFF72FFB0028D1DB254A31464FF41A
:1039C0000050FFF727FB0028C9DD224DDFF88CA04F
:1039D000DFF88C8005F19C09AA894FF6FF739A42A3
:1039E00003D13435A945F7D1BEE7E888984207D01E
:1039F00001F054FD20B17846D8F80030D3B1984793
:103A0000EF89032FEDD00AEBC707043700213846B2
:103A1000FFF784FC05280646E3D0B0B201F066FD4E
:103A200020B17846D8F8003033B19847711C04298A
:103A3000EDD9D6E700DEE3E700DEF7E7044693E7DB
:103A40009C1F0020C92F02008C1F0020F92F0200AC
:103A500051330200C41F0020C11F0020602000203D
:103A6000BC4D002008B5FFF7B3FB00F007FDBDE833
:103A70000840FFF7FDBA000008B5FFF7A9FB0648AC
:103A8000064B036005F04FFE00F0EAFCFFF7E8F993
:103A9000BDE80840FFF7C0BB941F00203D35020081
:103AA0002DE9F0410446002800F0C1808368002B16
:103AB00000F0BD80002900F0BA804FF6FF730B8044
:103AC000C368002B00F0B6808388002B40F0B580DF
:103AD0005E4AD5789078E842154676D1D4F80880C9
:103AE000E7680026B74240F0968008884FF6FF73DB
:103AF0009842574B44D10022342606FB023797F8F0
:103B00003070FF0700F18E8090B24FF6FF76B04222
:103B1000088000F09880342202FB0030C6800888BC
:103B200002FB003086800888A78802FB003087816E
:103B30000888278850431F520888678802FB003096
:103B40004780088802FB0032424800781074608881
:103B5000A288B0424FF0060000FB02520BBF9078E3
:103B6000D078013001300CBF9070D0700A883420BA
:103B700000FB023292F8300040F0020082F8300080
:103B800008882569342202FB0030C5620888A568D0
:103B900002FB003045620888E56802FB00300585BD
:103BA0000888646902FB00308461088802FB0034E5
:103BB000A082098802FB0133002093F8302042F0F4
:103BC000010283F83020BDE8F081214A2688608810
:103BD0001746B2F80CC01FFA83FEBCF1000F14D1D7
:103BE000B2F800C0B44510D1B2F802C084450CD17F
:103BF000342202FB0373A1F800E093F83030DB07B6
:103C00007FF56CAF0F20BDE8F0810133032B02F18B
:103C10003402DED162E758F83600FFF798F978B140
:103C200001365FE70132032A7FF467AF6DE70E20AC
:103C3000BDE8F0810920BDE8F0810520BDE8F081F4
:103C40000720BDE8F0810420BDE8F0818C1F002032
:103C5000C41F0020341A002011B10022FFF708BD54
:103C60000E20704713460A4619B113B11946FFF7E3
:103C7000FFBC0E207047000010B50446FFF788F91E
:103C800088B1042911D80A48342303FB0400C388EF
:103C90008B4206D090F83030C18043F0020380F8A8
:103CA0003030002010BD052010BD072010BD00BF22
:103CB000C41F002010B5044651B1FFF769F948B19F
:103CC000054B342202FB04340020E3880B8010BD36
:103CD0000E2010BD052010BDC41F0020022870B5A5
:103CE0002AD8184C342505FB004595F83030DB0701
:103CF00022D5AB6913B33F2A22D8032920D86D7C83
:103D0000B2EB950F03D105F003058D4212D0342399
:103D10004343E5181433687C62F3870061F30100C4
:103D20006874E018FFF7B8F895F8303043F00203F4
:103D300085F83030002070BD052070BD062070BDB4
:103D4000072070BDC41F002038B50546144681B158
:103D50007AB1FFF71DF970B1094834236B43C218DB
:103D6000926952B1143318442246FFF7CBF8002071
:103D700038BD0E2038BD052038BD062038BD00BF37
:103D8000C41F0020F8B504460F46FFF701F9E0B163
:103D9000124B342202FB0434E689032E17D0042987
:103DA00017D80F4CF50004356019FFF7C3F890B928
:103DB000012303FA07F163590B43635114F83630BA
:103DC00043F0020304F83630F8BD0520F8BD0620A4
:103DD000F8BD0720F8BD0020F8BD00BFC41F0020BB
:103DE00060200020F8B504460F46FFF7D1F8F0B187
:103DF000124B342202FB0434E689032E19D0042925
:103E000019D80F4CF50004356019FFF793F898B1F5
:103E1000012303FA07F1635923EA0103635114F8FC
:103E2000363043F0020304F836300020F8BD052098
:103E3000F8BD0620F8BD0720F8BD00BFC41F002054
:103E4000602000202DE9F843044615460F4649B38B
:103E500042B3FFF79DF840B31848342303FB040036
:103E6000C389032B24D00024DFF85490B5F80080D8
:103E70002C800646F08902280ED809EBC0002146A6
:103E80000430FFF757F838B12B88984513D927F835
:103E900013402B8801332B800134052CEAD10020FC
:103EA000BDE8F8830E20BDE8F8830520BDE8F8835F
:103EB0000620BDE8F8830920BDE8F883C41F002070
:103EC00060200020F8B506460F46FFF761F8C0B144
:103ED000012918D834250E4C754305F10806A019A0
:103EE000FFF728F888B9012303FA07F1A3590B4318
:103EF000A3512C4494F8303043F0020384F830305E
:103F0000F8BD0520F8BD0720F8BD0020F8BD00BFB2
:103F1000C41F0020F8B506460F46FFF739F8D0B1A8
:103F200001291AD834250E4C754305F10806A0194D
:103F3000FFF700F890B1012303FA07F1A35923EA30
:103F40000103A3512C44002094F8303043F00203C5
:103F500084F83030F8BD0520F8BD0720F8BD00BF5B
:103F6000C41F00202DE9F041064614460F46D1B18A
:103F7000CAB1FFF70DF8C8B10F48B4F80080342378
:103F8000002503FB0600258029460830FEF7D2FFF6
:103F900080B1B8F1000F0CD03D802388013323801D
:103FA0002846BDE8F0810E20BDE8F0810520BDE87F
:103FB000F0810920BDE8F081C41F002010B504463F
:103FC000FEF7E6FF88B1012911D80A48342303FB24
:103FD000040083888B4206D090F83030818043F013
:103FE000020380F83030002010BD052010BD0720EE
:103FF00010BD00BFC41F002010B5044651B1FEF72C
:10400000C7FF48B1054B342202FB04340020A388CB
:104010000B8010BD0E2010BD052010BDC41F002058
:10402000024B00F07F001870704700BF341A002068
:10403000014B1878704700BF341A002010B50446B1
:10404000FEF7A6FF98B181F080037E2B11D90A48B4
:10405000342303FB0400037C8B4206D090F83030FD
:10406000017443F0020380F83030002010BD0520B9
:1040700010BD072010BD00BFC41F002010B50446AE
:1040800051B1FEF785FF48B1054B342202FB0434E1
:104090000020237C0B7010BD0E2010BD052010BD2C
:1040A000C41F002021B128B9034B1B880B80704727
:1040B0000E207047052070478C1F002021B128B9C1
:1040C000034B9B780B7070470E207047052070479C
:1040D0008C1F002021B128B9034BDB780B7070478F
:1040E0000E207047052070478C1F002010B5044635
:1040F00061B1FEF74DFF58B134206043054B1A18EB
:104100001B5A0B8053884B80002010BD0E2010BD21
:10411000052010BDC41F0020F7B50191EAB110B110
:10412000052003B0F0BD4FF6FF73BDF80440BDF8A5
:1041300006500B4913808B8986B243B90F88A7427A
:1041400005D14F88AF4202D116801846E9E7013009
:10415000032801F13401EED1E2E70E20E1E700BFD0
:10416000C41F002070B5C9B1C2B1C8B90E4B1588C3
:1041700010801488A54215D993F83060F60706D54B
:104180009E8926B921F81400148801341480013066
:10419000032803F13403ECD1002070BD0E2070BD64
:1041A000052070BD092070BDC41F002010B5044655
:1041B00051B1FEF7EDFE48B1054B342202FB043449
:1041C0000020E36A0B6010BD0E2010BD052010BD5D
:1041D000C41F0020F8B5304C2C2303FB00430546D8
:1041E00093F840302BB978462C4B1B68002B46D0F7
:1041F0009847B4F89C302BB97846284B1B68002BA5
:104200003FD09847B4F89C202C2101FB0541013A8E
:10421000002392B281F84030A4F89C20002A34D0C8
:10422000B4F89E20AA4235D1896B1D4A1A480A4427
:104230004FF6FF7190F840509EB22DB1856BAF1ACA
:10424000002FBCBF31462A460133032B00F12C005E
:10425000F0D14FF6FF739942A4F89E1004D178462E
:104260000E4B1B687BB19847B4F89E300A482C224D
:1042700002FB0344A16BBDE8F84005F023BC00DE5F
:10428000B7E700DEBEE700DEEEE70348BDE8F84032
:1042900005F0E6BBF8BD00BF78200020BC4D002033
:1042A000008793032DE9F74F4D4BB3F89C2006464A
:1042B0009B4622B978464B4B1B689BB398474FF6F9
:1042C000FF77494CDFF81C91ABF89E7006F57A78C1
:1042D00000254FF02C0A94F82430EBB16369A3EB6E
:1042E0000803002B22DA002384F82430BBF89C302A
:1042F000013BABF89C3001A934F8040CFFF756FFE2
:1043000020B17846D9F8003073B19847A369019974
:1043100034F8040C012298470135032D04F12C04D4
:10432000D9D127E000DECAE700DEEFE7E369A3EBBF
:104330000802002A41DA214634F8040CFFF78CFC0D
:10434000ABF89E5060B9236AE2691A445B00E261EF
:1043500023626269E369D31A002BDDDAE261DBE7ED
:10436000042822D12C2303FB05B5AB6B03F51C43BA
:104370004033AB63BBF89C30002B2DD0BBF89E3094
:10438000022B04D97846174B1B681BB39847BBF820
:104390009E302C2202FB03B39B6B9A1B48BFF21A80
:1043A000CBF80C2003B0BDE8F08F7846D9F8003088
:1043B0000BB19847CDE700DECBE7BBF89E20BA42B1
:1043C00005D00AFB02B2926B9B1A002BA4DAABF861
:1043D0009E50A1E700DEDAE7CBF80C30E2E700BF41
:1043E00078200020BC4D0020942000200228F8B541
:1043F00005460E46174604D97846174B1B68FBB195
:10440000984705F0E7FF154B00201A4693F8401037
:10441000C1B1198BA94215D12C2404FB0024338887
:10442000A28D9A4213D1E28D73889A420FD180B245
:10443000FFF7D0FE636B002239462846984706E016
:1044400000DEDEE70130032803F12C03DED1BDE8F6
:10445000F84005F0E7BF00BFBC4D002078200020E9
:1044600010B5044CA022002120460EF079FA024B30
:10447000A36010BD78200020A542020008B505F019
:10448000A9FF0948B0F89C3023B10023A0F89C3064
:1044900005F0E6FA8422002104480EF061FABDE836
:1044A000084005F0BFBF00BF78200020902000200A
:1044B000022810B5044618D805F08CFF0C4A0020DD
:1044C00092F8401051B1118BA14207D180B2FFF791
:1044D00081FE002405F0A6FF204610BD0130032810
:1044E00002F12C02ECD10524F4E70524F4E700BF27
:1044F000782000202DE9F7430646002800F0BD8013
:10450000C369002B00F0B9800388022B00F2B7804A
:1045100082695E4B13445E4A934200F2B2805D4C66
:1045200005F058FFB4F89C30032B00F29C804FF646
:10453000FF75224604270023284692F840100029E0
:1045400040F08980854201D19DB20F460133032B93
:1045500002F12C02F1D105F065FF002F77D1311D5A
:104560003088FFF779FB30F0040340F08C802C2377
:1045700003FB054393F840302BB17846464B1B684C
:10458000002B74D0984705F027FB80462C2000FBB9
:1045900005403146202218300EF0D7F90DF1070101
:1045A0003088FFF76BFD28B178463B4B1B68002B2A
:1045B0005FD09847F188B3884FF6FF7291425AD185
:1045C000FF2B8CBF02230123B28913449DF80720DF
:1045D00044F620619BB24A434FF02C090B2B09FB98
:1045E000054602F5433288BF0B3302F5A07282BF45
:1045F0000C2093FBF0F301FB0322316BF263414487
:1046000042443163B26305F0E5FEB4F89C3043B137
:10461000B4F89E30B26B09FB03439B6B9B1A002BD3
:1046200008DB2C2303FB05431A48996B05F04AFA73
:10463000A4F89E502C2303FB0545012385F8403048
:10464000B4F89C300133A4F89C3005F0EBFE3846FA
:1046500003B0BDE8F083B2F818E031888E457FF4EE
:1046600075AF082777E74FF6FF75042773E700DE7D
:1046700089E700DE9EE70323A6E70E27E7E7052785
:10468000E5E70727E3E70746E1E700BF803C36FEA2
:1046900080C3C90178200020BC4D00204A090123B5
:1046A00001F01F0103FA01F150F82230194214BF42
:1046B0000120002070474A09012301F01F0103FA7D
:1046C00001F150F822300B4340F8223070474A097C
:1046D000012301F01F0103FA01F150F8223023EA0F
:1046E000010340F822307047F0B501F11F0464095E
:1046F000651E00230126A34201D10120F0BDAB427B
:1047000004BFA1EB431206FA02F250F823700CBF6B
:1047100002F1FF324FF0FF323A4201D10133EAE7B2
:104720000020F0BD042803D100210248FFF7B6BFE6
:10473000002070472821002038B54FF6FF7305464A
:104740000C460B8008480021FFF7A8FF38B1074B43
:104750001B88AB424FF0000303D1238038BD20807B
:1047600038BD184638BD00BFD0210020D821002018
:1047700038B54FF6FF7305460C460B8006480021FE
:10478000FFF78CFF18B1054B1B88AB4202D1012308
:10479000238038BD002038BD742100207C210020FA
:1047A00038B54FF6FF7305460C460B8008480021CC
:1047B000FFF774FF38B1074B1B88AB424FF0000383
:1047C00003D1238038BD208038BD184638BD00BFD6
:1047D000402100204821002010B5044620B9784629
:1047E0000B4B1B6883B198470A4B93F8642003F185
:1047F00022001AB1844209D003F14300241A18BFE1
:104800004FF0FF34A0B210BD00DEEDE7002010BD78
:10481000BC4D0020D8210020024B33F820300B8003
:10482000704700BF3021002010B5044620B97846FB
:10483000044B1B6823B198472346BDE81040184736
:1048400000DEF9E7BC4D00202DE9F0415D1E162485
:104850000D4E6C430746A01D884630441146102279
:104860000EF073F8331900225A7101222946A3F879
:10487000028006481A713753FFF71DFF2946044886
:10488000BDE8F041FFF717BF7C2100207421002014
:104890007821002010B40C46431C0A1D208849884A
:1048A0005DF8044B9BB2FFF7CFBF000070B5162434
:1048B0004443074E0D46A11D10223144281D0EF021
:1048C00044F8325B2A8033195B886B8070BD00BF6F
:1048D0007C210020044A0B46142101FB00210431F5
:1048E000102218460EF031B884220020042201481C
:1048F0000EF02BB8CA2100200846042201490EF010
:1049000024B800BFCA2100202DE9F8432A255D43C1
:10491000184C91468046A81D10220F462044494657
:104920001E460EF012F805F1190000211022204455
:104930000EF016F8691D2144484606F075FC20B1BA
:1049400078460D4B1B689BB198472A237343E218A6
:1049500000211171917557803146084824F8038071
:10496000FFF7A9FE31460648BDE8F843FFF7A3BEAE
:1049700000DEEAE748210020BC4D00204021002055
:1049800044210020F8B50D4606462A247443002130
:10499000104E1746284624220DF0E2FFA11D1022DA
:1049A0003144281D0DF0D1FF325B2A8033195A881B
:1049B0006A809B7D4BB104F11901314405F114006B
:1049C0001022BDE8F8400DF0C0BF3B88043B3B809F
:1049D000F8BD00BF482100202DE9F0418046AC24FD
:1049E0000D46144E04FB08F40021174628462422E5
:1049F0000DF0B6FF06EB0408335B2B8098F86430AB
:104A0000AB70A11C10223144E81C0DF09EFF98F8F9
:104A100064304BB104F11201314405F1130010224E
:104A2000BDE8F0410DF091BF3B88043B3B80BDE801
:104A3000F08100BFD82100202DE9F041254CAC25A4
:104A40005543164605F16803621923445367224B08
:104A5000C2F8A8308846074610B9204B01221A70C8
:104A600005F122012144404606F0E7FB20B17846DB
:104A70001B4B1B6853B3984705F17801214440460E
:104A800006F0ECFB20B17846154B1B6803B3984742
:104A9000A81C4146102220440DF057FF05F11200DA
:104AA0001022002120440DF05BFFAC237343E21879
:104AB000E752002331460B4882F86430FFF7FBFDD4
:104AC00031460948BDE8F041FFF7F5BD00DED3E708
