:020000022000DC
:1060000000FD0020D57C0300FD7C0300FF7C030025
:10601000017D0300037D0300057D030000000000F7
:10602000000000000000000000000000077D0300E9
:10603000097D0300000000000B7D03000D7D0300BF
:106040000F7D03000F7D03000F7D03000F7D030014
:106050000F7D03000F7D0300C17302000F7D03005D
:106060000F7D03000F7D0300F5EA02000F7D0300A2
:106070000F7D03000F7D03000F7D03000F7D0300E4
:106080000F7D0300717E03002DB102000F7D030020
:106090000D7F03000F7D0300296F02000F7D0300B9
:1060A0000F7D03000F7D03000F7D03000F7D0300B4
:1060B0000F7D03000F7D03000000000000000000C2
:1060C0000F7D03000F7D03000F7D03000F7D030094
:1060D0000F7D03000F7D03000F7D03000000000013
:1060E00000000000000000000000000000000000B0
:1060F00000000000000000000000000000000000A0
:10610000000000000000000000000000000000008F
:10611000000000000000000000000000000000007F
:10612000000000000000000000000000000000006F
:10613000000000000000000000000000000000005F
:10614000000000000000000000000000000000004F
:10615000000000000000000000000000000000003F
:10616000000000000000000000000000000000002F
:10617000000000000000000000000000000000001F
:10618000000000000000000000000000000000000F
:1061900000000000000000000000000000000000FF
:1061A00000000000000000000000000000000000EF
:1061B00000000000000000000000000000000000DF
:1061C00000000000000000000000000000000000CF
:1061D00000000000000000000000000000000000BF
:1061E00000000000000000000000000000000000AF
:1061F000000000000000000000000000000000009F
:1062000010B5054C237833B9044B13B10448AFF3F0
:1062100000800123237010BDF02E0020000000003C
:10622000B0AE03000C4B43B10C480D4910B5AFF3B1
:1062300000800C48036823B910BD0A48036833B9CD
:106240007047094B002BF7D0BDE810401847064BAC
:10625000002BF5D0184700BF00000000B0AE0300CF
:10626000F42E0020EC2E002000000000154B002B27
:1062700008BF134B9D46A3F5803A00218B460F467D
:106280001348144A121A13F021FC0F4B002B00D0B4
:1062900098470E4B002B00D09847002000210400A7
:1062A0000D000D48002802D00C48AFF3008013F019
:1062B000BFFB2000290000F053FC13F0A5FB00BF3A
:1062C0000000080000FD00200000000000000000A9
:1062D000F02E00206061002000000000000000009F
:1062E00041DF704730B52E4B144652681B6887B0AB
:1062F0000D466AB35A0420D52A4B1B68032B1CDDBC
:106300002F21294813F0B6FCC8B12F21264813F0DD
:10631000B1FC411C254B6268D3F804350492B4F9F2
:1063200002200392B4F9002002926A880192204A66
:10633000009204209C2205F067FD07B030BD5C216F
:10634000194813F097FC08B15C21DFE71649E1E733
:106350005B04F2D5134B1B68032BEEDD2F21124893
:1063600013F088FC98B12F210F4813F083FC411CD7
:106370000E4BB4F90020D3F8043502926A880192DA
:106380000C4A00920420A12205F03EFDD5E75C21D5
:10639000054813F06FFC08B15C21E5E70249E7E727
:1063A000002E0020FC2D0020819D030000B0004045
:1063B000BC9D03000E9E0300012A07B531D009D30E
:1063C000022A56D03C4A8F21032003B05DF804EB2B
:1063D00011F088BF394B1B68590416D5384B1B6820
:1063E000032B12DD2F21344813F044FC80B12F2100
:1063F000314813F03FFC411C324B334AD3F804358B
:1064000000928222042005F0FFFC03B05DF804FB3B
:106410005C21294813F02EFC08B15C21E8E72649ED
:10642000EAE7062232214FF4F01000F047FF234B39
:106430001B685A04E9D5224B1B68032BE5DD2F218D
:106440001D4813F017FC58B12F211B4813F012FC04
:10645000411C1C4B1D4AD3F8043500928722D1E71A
:106460005C21154813F006FC08B15C21EDE71249E8
:10647000EFE7124B1B685B04C7D5114B1B68032B5E
:10648000C3DD2F210C4813F0F5FB58B12F210A482A
:1064900013F0F0FB411C0B4B0D4AD3F8043500926E
:1064A0008B22AFE75C21044813F0E4FB08B15C21C8
:1064B000EDE70149EFE700BF819D0300002E0020BA
:1064C000FC2D002000B000401F9D03003F9D0300F5
:1064D0005F9D03001FB52D4C2268520417D52C4B2D
:1064E0001B68032B13DD2F212A4813F0C3FB002860
:1064F0003AD02F21274813F0BDFB411C264B274AD9
:10650000D3F8043500920420672205F07DFC03A82F
:106510000EF058FD23685B0419D51D4B1B68032B37
:1065200015DD2F211B4813F0A5FB30B32F2119488F
:1065300013F0A0FB411C184BBDF80C20D3F8043518
:106540000192174A009204206B2205F05DFC0021A5
:106550004FF4F01000F0A8FE0422C8214FF4F01010
:1065600000F0ACFE04B010BD5C210A4813F082FBC1
:1065700008B15C21BEE70749C0E75C21054813F07C
:1065800079FB08B15C21D2E70249D4E7002E002054
:10659000FC2D0020819D030000B0004059A00300A5
:1065A00073A00300F0B5924C23685B0489B00546E4
:1065B00017D5904B1B68032B13DD2F218E4813F04A
:1065C00059FBA8B12F218C4813F054FB411C8B4B75
:1065D0008B4AD3F8043500920195B722042005F0C8
:1065E00013FC052D23D8DFE805F00C441C5242585B
:1065F0005C21814813F03EFB08B15C21E3E77E4952
:10660000E5E7804AB2F900307F498B42A5BFA3F588
:106610001C53103B7D4B1BB2138093780133937056
:1066200005E07B4A1368A3F51C53103B136004F08C
:10663000C1F8784A1368106003F5371303F5D8637F
:10664000984281BF72490B7901330B716423079320
:106650004FF4FA630693062D00F28480DFE815F00C
:106660001F001F008D008D00E800E80028016A4A25
:10667000C8E7644AB2F9003045F6EE018B42DDBF4F
:1066800003F51C5310339BB247F6FF73C4E7604A0F
:10669000136803F51C531033C8E75F4AEAE7236821
:1066A0005F0421D5534B1B68032B1DDD2F2152485E
:1066B00013F0E0FA002857D02F214F4813F0DAFAF0
:1066C000411C4E4B079AD3F804350492069A039264
:1066D0004C4A90780290B2F9002001924F4A009201
:1066E0000420F82205F090FB4D4F4E4E3A783823A7
:1066F0005343F05A0DF038FC38784249C0EBC000E3
:1067000006AA06EBC00009F02BF9072800F00F815C
:1067100000F2FF8030B3042840F02E8123685A0431
:106720001AD5344B1B68032B16DD2F21324813F08A
:10673000A1FA002800F0F2802F212F4813F09AFAD6
:10674000411C2E4B384AD3F80435009201954FF482
:106750009072042005F058FB062232214FF4F0100D
:1067600000F0ACFD09B0F0BD5C21234813F082FAC3
:1067700008B15C21A1E72049A3E723685E0420D586
:106780001C4B1B68032B1CDD2F211B4813F072FAD6
:1067900020B32F21184813F06DFA411C174B079AAC
:1067A000D3F804350492069A0392194A107902909C
:1067B000126801921D4A0092042040F2011205F075
:1067C00023FB174B174E18781149C0EBC00000236C
:1067D00006AA06EBC00009F00EF996E75C21064810
:1067E00013F048FA08B15C21D4E70349D6E700BFAB
:1067F000002E0020FC2D0020819D030000B00040F1
:10680000379E03008E2F002011A7FFFF0080FFFF9F
:10681000102F0020942F00208A2F00204A9E030072
:106820000C2F0020182F00208D9F0300A79E03002F
:106830002368580421D5554B1B68032B1DDD2F21E0
:10684000534813F017FA50B32F21514813F012FA9E
:10685000411C504B079AD3F804350492069A0392D0
:106860004D4A90780290B2F9002001924B4A009272
:10687000042040F20B1205F0C7FA494F494E3A780E
:1068800038235343F05A0DF06FFB38784249C0EB80
:10689000C00006AA06EBC00009F0F4F835E75C2159
:1068A0003B4813F0E7F908B15C21CEE73849D0E75F
:1068B0003B4D2B780133DBB2022B28BF00232B701A
:1068C000236859047FF54EAF304B1B68032B7FF7CD
:1068D00049AF2F212E4813F0CDF988B12F212C4834
:1068E00013F0C8F9411C2B4B2A78D3F804350192D8
:1068F0002D4A00924FF48A72042005F085FA31E7A0
:106900005C21234813F0B6F908B15C21E7E7204980
:10691000E9E708283FF402AF1128FDE65C211C4896
:1069200013F0A8F908B15C2107E7194909E72368C2
:106930005B047FF517AF154B1B68032B7FF712AF76
:106940002F21134813F096F968B12F21104813F046
:1069500091F9411C0F4B154AD3F80435009201956B
:106960004FF49672C8E75C21094813F083F908B127
:106970005C21EBE70649EDE700283FF4F3AE044A5B
:106980004FF4987111F0AEFCECE600BFFC2D002036
:10699000819D030000B000408A2F00200B9F030060
:1069A0000C2F0020182F00206B9F0300A49F0300D2
:1069B0003038062801D8FFF7F5BD704737B5274BAB
:1069C0001B685B0418D5264B1B68032B14DD2F2195
:1069D000244813F04FF9002835D02F21214813F017
:1069E00049F9411C204B214AD3F804350092042078
:1069F0004FF4A07205F008FA1D4C1E4D656300238C
:106A000001212046E36284F8303084F8313008F008
:106A100077FF20B1134A40F2491111F063FC0023C3
:106A200002211548E566636684F8683084F86930A9
:106A300008F066FF80B10B4A40F2491103B0BDE88F
:106A4000304011F04FBC5C21064813F013F908B137
:106A50005C21C3E70349C5E703B030BD002E002029
:106A6000FC2D0020819D030000B0004039A00300F0
:106A7000182F0020D09F0300502F002007B5037867
:106A80001C2B2ED1184B1B685B0416D5174B1B68AB
:106A9000032B12DD2F21164813F0ECF8C0B12F2183
:106AA000134813F0E7F8411C124B134AD3F804358E
:106AB00000920420A72205F0A7F90322C8214FF471
:106AC000F01000F0FBFB03B05DF804EB00F014BA2B
:106AD0005C21074813F0CEF808B15C21E0E70449D7
:106AE000E2E703B05DF804FB002E0020FC2D00203F
:106AF000819D030000B00040DC9F030007B5134BED
:106B00001B685B0416D5124B1B68012B12DD2F216D
:106B1000104813F0AFF880B12F210E4813F0AAF8F7
:106B2000411C0D4B0D4AD3F804350092022074220B
:106B300005F06AF903B05DF804FB5C21054813F029
:106B400099F808B15C21E8E70249EAE7002E002045
:106B5000FC2D0020819D030000B00040009D03003B
:106B600080B594B08F4A04AF04214FF4C04005F0C3
:106B700031F98D4B1A6812F4804F984619D08B4B1F
:106B80001B68032B15DD2F21894813F073F80028AB
:106B900000F0F6802F21864813F06CF8411C854BDD
:106BA000854AD3F804350092042040F2611205F0C2
:106BB0002BF911F0FDFA20B17D4A40F2631111F07A
:106BC00091FB00F0A9FB7D4800F0D2FB20B1784A90
:106BD00040F2671111F086FB01233B71002407236B
:106BE0007C71BC71FB71786800F0AAF920B1704A21
:106BF00040F26B1111F076FB59233C727B7207F166
:106C00000C04CC23BB720422BB2307F108012046ED
:106C1000FB7200F005FC20B1654A4FF4A97111F038
:106C200061FB07F11C0600212422304612F04EFFC2
:106C300001233B770723FB7787F82430604BFB6207
:106C40006049614BBC623046FB6300F023F920B120
:106C5000574A40F25B1111F045FBEFF3108E72B60C
:106C60005A4CA168012581B9594BA560D3F8802001
:106C7000584802402260C3F88000D3F88420626044
:106C80004FF0FF32C3F884200D46BEF1000F00D153
:106C900062B66421504800F0B1FA00F0AEF820B1BD
:106CA000434A4FF4B97111F01DFB464B1B786BB989
:106CB0004A4B93E8070086E80700304600F054FA94
:106CC00020B13B4A40F27D1111F00CFB00F0F2FCC8
:106CD000D8F800305B0437D5344B1B68032B33DD09
:106CE0003F4BE8468AB0196804AE0023C25C4FEA05
:106CF000121E02F00F0211F80EE006F813E011F870
:106D000002E006EB43020133102B82F801E0EDD1E3
:106D1000002386F820302F21254812F0ABFF0028F1
:106D200037D02F21224812F0A5FF411C214B2D4ABC
:106D3000D3F8043501922C4A0092029640F2811257
:106D4000042005F061F8C54600214FF4F01000F072
:106D5000ABFA0222C8214FF4F01000F0AFFAA3689A
:106D60005BB155B9EFF3108372B6194A216811600F
:106D700061685160A56003B962B6FFF7B1FAFCE73C
:106D80005C210B4812F076FF08B15C2103E708494B
:106D900005E75C21064812F06DFF08B15C21C1E7F0
:106DA0000349C3E7A9BD0200002E0020FC2D0020EE
:106DB000819D030000B00040F59F0300A56502001F
:106DC0007D6A0200882F0020BD690200D860002083
:106DD00000E100E0FC06FFBDB1690200F49C030085
:106DE000042E002024A0030031A0030003780D2B03
:106DF00002D1002003F094BA704703F09FB930B578
:106E0000837DC27D85B043EA02230446ADF80C3091
:106E100003A803230D46ADF80E300EF097F810BB13
:106E200002AA2146208A0EF061FAE0B90DF10A03A8
:106E30002A46BDF80810E08A0EF0C6FB98B9217EFC
:106E4000D4F8120001F0010102F022FE10B17846E0
:106E500000F002FCBDF80A000BF0E2F818B901904E
:106E60000BF09CFD019805B030BD08B50CF022FA7E
:106E70000DF0FAFFBDE8084002F092BB07B501A88B
:106E80000EF0A0F8BDF80400003018BF012003B0D8
:106E90005DF804FB73B50E46054640B303F0E6F813
:106EA000044608BB0EF034F80CF0AEFE28690BF077
:106EB00087F80446C0B92B7F0193AB690093014664
:106EC0006B690C4859220BF0BFFA044660B92B6A73
:106ED00003B1984706F0D6FD0DF0E8FE0CF040F83F
:106EE000FFF7CCFF06B13070204602B070BD0E2413
:106EF000FAE700BF982F002008B505F053FC20B139
:106F00000020BDE8084003F00BBA0248BDE8084085
:106F100003F0AEB9A02D00204BDF704710DF7047A3
:106F200060DF704769DF704707B501A8FFF7F4FF1E
:106F300010B103B05DF804FB019803F09BF9F4E78E
:106F400030B55F4D2B688BB05904039016D55D4B5F
:106F50001B68032B12DD2F215B4812F08BFE18B348
:106F60002F21594812F086FE411C584B584AD3F83D
:106F7000043500920420752204F046FF554903A809
:106F8000FFF7CCFF044600287CD1534AE02382F867
:106F9000163392F816335B09012B02D9042B40F00B
:106FA000868042F202046DE05C21474812F062FEE6
:106FB00008B15C21D5E74449D7E71A6842F480025A
:106FC0001A602B685B0417D53E4B1B68032B13DD3F
:106FD0002F213D4812F04EFE002856D02F213A486E
:106FE00012F048FE411C394B3C4AD3F8043500925C
:106FF00004204B2204F008FF394B0593059B0693B0
:107000000C22002107A812F061FD0023069A8DF8DA
:107010001C3007A90120FFF785FF0446002831D165
:1070200001460C2207A812F051FDF823069A079397
:1070300007A9A120FFF776FF044618BB06A8FFF7B3
:107040006FFF059B069A9A4204461BD02B685A0490
:1070500018D51C4B1B68012B14DD2F211A4812F088
:1070600009FED8B12F21184812F004FE411C174B1D
:10707000069AD3F8043501921A4A009202206D2232
:1070800004F0C2FE20460BB030BD5C210E4812F069
:10709000F1FD08B15C21A2E70B49A4E75C210A4895
:1070A00012F0E8FD08B15C21DDE70749DFE70E4B90
:1070B0009968002981D14FF48003136081E700BFF4
:1070C000002E0020FC2D00209AA0030000B00040FC
:1070D000C8A003005574020000E100E0E4A0030032
:1070E000A02D0020F5A00300D8600020034904482B
:1070F0004968012300220FF078B900BFF82F002063
:10710000EC31002010B50378072B10D00A2B19D0D2
:10711000022B21D1114B1B781BB9BDE81040FFF7A2
:10712000E5BF0F4B1B68BBB1BDE8104018470C4BC7
:107130000C48996810220FF09CF968B1BDE8104026
:1071400010F0E6BD8168C068FFF759FE08B110F085
:10715000DFFD024B01221A7010BD00BFF42F00208A
:10716000F82F0020EC31002010B5164A0446516873
:10717000106886B003AB03C31189927A19809A70A4
:1071800094E80700104B83E80700CAB10F49104884
:107190000FF012F990B90F4B00930C4A0C490E48AE
:1071A00003AB0FF0DBF848B90C4810F00DF80146BE
:1071B00009480FF0EDF808B9FFF798FF06B010BDC9
:1071C0000720FBE72EA10300F82F00200430002049
:1071D0002033002005710200EC3100202430002013
:1071E00010B5054C226832B111F0AEF9002802DB6F
:1071F00023689847F8E710BD60330020154B164A06
:1072000010B50C4618600121144811F003F818B1AC
:10721000134A462111F066F8610C0023E00341F2A5
:107220006F728B4208BF824210D24FF47A720023F1
:1072300012F062FA014600220A4810F0FDFF38B150
:10724000074A4721BDE8104011F04CB80521F2E78C
:1072500010BD00BF60330020E17102003CA10300BB
:1072600040A103006433002010B50C4C206808B91D
:1072700010F04EFD4FF0A0420949D2F804350968DC
:107280004B40C2F804352368013B236023B905480D
:10729000BDE8104011F016B810BD00BF84330020C7
:1072A000883300208C3300204FF0A04311B1C3F885
:1072B0000C057047C3F8080570470000D0B522B32D
:1072C000132922D9114C124B206052004FF4004078
:1072D0004FF4FA760027013AE0FB01671A60304666
:1072E0004FF47A720023394612F006FA0022014662
:1072F000084810F0A1FF40B94FF0A0422168D2F831
:10730000043523EA0103C2F80435D0BD88330020D8
:10731000843300208C33002008B54FF0A0430322B3
:107320004FF40031C3F84427C3F808154FF4802107
:10733000C3F84827C3F808154FF40021C3F84C27B9
:10734000C3F80815C3F850274FF48012C3F8082576
:107350000121054A054810F05DFF18B1BDE808405D
:1073600010F0D6BC08BD00BF6972020064A1030022
:10737000D8B10F4B0F4A18604FF0A0430020C3F85C
:107380003427C3F83827C3F83C27C3F840270A4BF3
:107390004FF00042C3F80423C3F87C01074BE022FE
:1073A00083F8062340221A6070470E20704700BF02
:1073B000AC3300200C0003000060004000E100E05E
:1073C000124B70B50024124E124DC3F87C414FF0A1
:1073D000A043A15DD3F8102501238B40934311D026
:1073E0000D492B68D1F80425981A48BFD01A43F2EA
:1073F0003333984206D9D1F804352B60074B204629
:107400001B6898470134042CE1D170BD0060004036
:1074100068A10300B033002000B00040AC3300206E
:10742000082A38B5054614460ED812F044FBC4F1BC
:1074300008020021281912F049FB08220349A81864
:1074400012F039FB002038BD092038BD6000001063
:107450000620704730B541F20103984287B00D46CF
:107460001446734B00F081801FD8012847D01B6859
:107470005B0460D56F4B1B68002B5CDD2F216E48D1
:1074800012F0F8FB002800F0C7802F216A4812F0A4
:10749000F1FB411C694B6A4AD3F80435009201950F
:1074A0006D22012004F0B0FC45E044F2010290425C
:1074B00000F0878044F202029042D8D11B68590440
:1074C00039D55C4B1B68002B35DD2F215A4812F053
:1074D000D1FB00286CD02F21574812F0CBFB411C68
:1074E000564B2288D3F80435039262680292554ABB
:1074F000009201955F22012004F086FC1BE01B68CE
:107500005B0418D54B4B1B68002B14DD2F214A4818
:1075100012F0B0FB00B32F21474812F0ABFB411C27
:10752000464B494AD3F804350092029401955422FF
:10753000012004F069FC4FF0A0434FF4F012C3F8AF
:107540001825C3F80C25EFF3108372B63F4A137861
:10755000002B6AD107B030BD5C21374812F08AFB9E
:1075600008B15C21D8E73449DAE71B685804E2D552
:10757000304B1B68002BDEDD2F212F4812F07AFBE9
:1075800068B12F212C4812F075FB411C2B4B304A5F
:10759000D3F804350092029401955722C8E75C2184
:1075A000254812F067FB08B15C21EBE72249EDE7C3
:1075B0005C21214812F05EFB08B15C218CE71E497A
:1075C0008EE71B685A04B6D51A4B1B68002BB2DD38
:1075D0002F21194812F04EFBA8B12F21164812F0A6
:1075E00049FB411C154B2268D3F8043504926268AC
:1075F00003920295A2680192164A00920120692224
:1076000004F002FC97E75C210B4812F033FB08B151
:107610005C21E3E70849E5E75C21074812F02AFB13
:1076200008B15C2132E7044934E730BF8FE700BF7F
:10763000002E0020FC2D00206CA1030000B00040B3
:1076400010A20300D0A1030094A10300AC2D0020E0
:10765000AEA10300EFA1030007B50023ADF8003091
:107660000146054B01936A4644F20200FFF7F2FE21
:1076700003B05DF804FB00BF1AA803000146102206
:10768000014812F018BA00BFB433002010B5064C00
:1076900006490822204612F00EFA0822A0180449D2
:1076A000BDE8104012F007BAB433002060000010AB
:1076B000A400001000487047B4330020002306499E
:1076C0001A46C818428042605A540833B3F5807F86
:1076D000F7D1024B1A607047C4330020C434002035
:1076E000F0B50C4B0C4C1B68064620227BB1013BCD
:1076F00014F8330050B104EBC3056F88B74202D1D0
:107700006D688D4202D0013AF0D11046F0BD1F23C2
:10771000EEE700BFC4340020C433002030B5084A6F
:10772000084C136804EBC3056960012104F83310A9
:107730000B44202B08BF00236880136030BD00BFBE
:10774000C4340020C4330020C0F30C038B4208442F
:1077500038BFA0F50050C01A70470000F0B50E4BBE
:107760000E4C1F680022BA4213D0D10063185E6825
:1077700000230AE0655805EBC30E15F83350854227
:1077800002D1DEF80400F0BD0133B342F2D1013280
:10779000E9E70020F0BD00BFC8340020CC34002051
:1077A00000B58DB040B99A1C06D0012201A88DF811
:1077B0000420029301F0FCF8034B186803F0DEFB91
:1077C0000DB05DF804FB00BFD834002010B503787D
:1077D000044613B97846FFF73FFFE079431C0120C8
:1077E0009840013810BD0000F8B5037804460F46F4
:1077F00013B97846FFF730FF0B4B0C4E1A68511C3B
:1078000002F0070206EBC2051960A38A6B80A1880B
:10781000A069FFF799FF6860E36906F8327003F02A
:1078200001036B70F8BD00BF20350020E03400205C
:107830002DE9F0410E468EB015461C46074610B99C
:107840007846FFF709FF16B97846FFF705FF14B928
:107850007846FFF701FF636A627802330593A378E5
:10786000A2F10800002B14BF012102210DF1040830
:1078700042424241434604F10C0003F0B4FC6378F9
:107880008DF83430237BADF82050022B16FA85F5A5
:10789000CDF8188007970B960C950FD1236913B973
:1078A0007846FFF7D9FE23690993102305A8ADF8A0
:1078B000283003F094FC0EB0BDE8F0810023F5E71A
:1078C00010B50E4B04461B68806E984704F12C00DF
:1078D00002F0EAFE94F84430022B03D104F14C008C
:1078E00002F0E2FE20466C22002112F0EFF80020A8
:1078F00084F84400BDE8104002F07AB8DC3400207F
:1079000010B590F84430012B8CB0044602D0784674
:10791000FFF7A2FE01238DF8043001A8236D029326
:1079200001F046F82046FFF7CBFF0CB010BD000079
:10793000F8B51F46531E012B04460D46164602D9C4
:107940007846FFF789FEA36E13B17846FFF784FEF1
:107950001C4B38461B689847A06638B32C22294632
:10796000204612F0A8F80022A264A4F84670A98864
:10797000A869FFF7E9FE012EA06118D1124B84F827
:107980004E201B7D84F84D3084F84F2084F84C2025
:10799000AB6A23656FF00103A3620C4B63630120A4
:1079A000E46302F025F884F844600120F8BD6FF02C
:1079B0000103A362064B636584F86420E465054B0C
:1079C000ECE700BFD434002024350020737E020091
:1079D0002D890200917D02001FB500220B468DF813
:1079E0000F2028B30230086018460DF10F0103F094
:1079F000F8FB9DF80F30DBB1144B1B685B0717D504
:107A0000134B1B68032B13DD2F21124812F032F9A0
:107A100098B12F210F4812F02DF9411C0E4B0F4A3F
:107A2000D3F804350092042040F2EB2204F0ECF984
:107A30009DF80F0005B05DF804FB5C21054812F0CD
:107A400019F908B15C21E5E70249E7E7002E0020BB
:107A5000FC2D00204CA2030000B0004069A20300EE
:107A60002DE9F04799461378D2F81880F2B007460E
:107A70008A46144623B191884046FFF765FE90611F
:107A8000A3786278002BA2F1080003AD14BF012196
:107A9000022104F10C06424242412B46304603F0DB
:107AA000A2FB627808951FFA8AF5AB1A9BB2099778
:107AB000ADF828301F440023ADF83030237B8DF81B
:107AC0003C20022B04BF1022ADF83020A2780E9784
:107AD00012AFC4F818800D9704F12408002A5ED074
:107AE0004FF0000A237BC4F824A0022B04BF2369B3
:107AF0000B93206AE17842460DF05EFF606A40BB5E
:107B0000237B022B05D13146E0890DF0FBFF0028D5
:107B1000E8D1354B1B685B0718D5344B1B68052B28
:107B200014DD2F21324812F0A5F8002852D02F2161
:107B30002F4812F09FF8411C2E4B2F4AD3F80435E2
:107B4000009206204FF4A56204F05EF972B0BDE821
:107B5000F08707A9FFF740FF0028CAD06178A28A02
:107B6000ADF82A206D1A01218DF8281096E803003F
:107B700000230B938DF81C300CAB83E80300A37D2E
:107B80008DF84030236A0E9307A8636A0897ADF812
:107B900024500F93CDF8449000F00AFFD6E7012B54
:107BA00062620CD000234146A08A63620DF03CFF64
:107BB00007A9606AFFF710FF0028AAD0CEE7414668
:107BC000E0890DF031FF07A9606AFFF705FF002883
:107BD000E8D0C3E75C21064812F04CF808B15C21FC
:107BE000A6E70349A8E700BF002E0020FC2D0020D7
:107BF0004CA2030000B00040A0A20300C37D0A789D
:107C000030B5002B3DD0837822F07F0203F07F0354
:107C10001A430A700B78027803F07F0343EAC21319
:107C20000B70037863B34378083B5A425A414B7850
:107C300003F07F0343EAC2134B708A78858802F011
:107C40000302C5F3861442EA850223F07F0323432F
:107C5000D2B28A704B70CB78857903F01F03C5F3DD
:107C6000C10422F0030243EA45132243DBB2CB7086
:107C70008A70C27923F01F0302F01F021343CB70F6
:107C800030BD83789B0122F0400203F04003134390
:107C90000B70C27823F03F0302F03F0213430B70D6
:107CA000B8E7000010B590F84430012B044602D02C
:107CB0007846FFF7D1FC237B012B0A4B03BFA27D43
:107CC0001969DB68DB6808BF01FB0233A36302F0BC
:107CD00071FDA16B014404F12C00BDE8104002F0DD
:107CE000FABC00BF2435002070B50D4690B00446A4
:107CF00010B97846FFF7B0FC00212046FFF774FD6D
:107D00002C22002105A8266D11F0E0FE0F2305A806
:107D10008DF8143006968DF81C5000F049FE204670
:107D2000FFF7CEFD154B1B685B071BD5144B1B687B
:107D3000032B17DD2F21134811F09CFFA0B12F2139
:107D4000104811F097FF411C0F4BD3F804350295F2
:107D500094F8442001920D4A009204204FF4D67208
:107D600004F052F810B070BD5C21064811F082FF9B
:107D700008B15C21E4E70349E6E700BF002E0020DC
:107D8000FC2D00204CA2030000B0004029A20300FB
:107D900008460021FFF7A8BF2DE9F04F90F84C509E
:107DA00087B0044600274FF0010800F10C0BE27980
:107DB000954203D9384607B0BDE8F08FA16C08FAA8
:107DC00005F30B4252D1E37DA571002B0CBF0C26AD
:107DD0000826954206FB05FA237808BFB4F84660EA
:107DE000CDF804B008BFA6EB0A06002B14BF4FF075
:107DF00004094FF0010906EB0903039301A8A36AE4
:107E0000029303F08EFB0028D4D1059B994445B919
:107E100094F84F302BB9A36984F84F80C3F30C0357
:107E2000A380E37D8BB994F84E3073B915B17846D1
:107E3000FFF712FCB4F8461062788A1AA16E234646
:107E40000846FFF7F5FC84F84E8005992046FFF7B9
:107E5000D5FEA16E32465144484611F02CFE01A8D1
:107E600003F077FB6B1C013784F84C300135EDB221
:107E70009DE710B591F84430012B0C4602D07846AE
:107E8000FFF7EAFB94F84D305BB9217B01292046CE
:107E900003D1BDE81040FFF727BFBDE81040FFF752
:107EA0002FBD013B84F84D30002384F84C30204630
:107EB000BDE81040FFF770BF2DE9F041D47D8AB0D6
:107EC00006460F4615469846002C00F08E809478A2
:107ED000002C6BD106294AD102784378817892012F
:107EE00002F4FE5242EA9302C3781B0443EA0163A0
:107EF00041790B43017943EA01233D49084691F852
:107F00004460012E12D18F8AEE89B7420ED18E883D
:107F100096420BD16C2202FB0404A56C1D43A564A0
:107F20008BBB03212046FFF7DFFE20E00134042C49
:107F300001F16C01E3D12F4B1B685B0717D52E4B6A
:107F40001B68012B13DD2F212C4811F093FE88B103
:107F50002F212A4811F08EFE411C294B294AD3F8C3
:107F600004350092022040F2B94203F04DFF0AB0FE
:107F7000BDE8F0815C21214811F07CFE08B15C2154
:107F8000E7E71E49E9E72046FFF720FC854203D1D9
:107F90002046FFF7B5FCEAE7002384F84C30204682
:107FA000FFF7FAFE2046FFF77DFEE0E72046FFF7E9
:107FB000D5FB03460028DAD005F10C012A6A0892A5
:107FC00003C9AA8AADF8162006AA82E80300AA7D92
:107FD0008DF824202A788DF80840039604978DF8B0
:107FE0001420414602A89847C1E7FFF739FDBEE7D4
:107FF0003C350020002E0020FC2D00204CA2030068
:1080000000B00040C9A203002DE9F0438BB0054643
:1080100004AF808A8846164601F03CFF012840F0F4
:10802000CE802B7B002B00F0CA80022B03D12B6962
:10803000002B00F0C48095F91630002BC0F2C180EF
:108040006B782978EA7D3344002900F08D80002A7E
:1080500014BF4FF480724FF4C072934200F2B380A9
:10806000EFF3108472B6594800224FF06C0E0EFBED
:10807000020191F844C0BCF1000F4DD1002C50D04A
:108080000C46012229462046FFF752FC00284CD01E
:1080900032464146A06E11F00EFD4D4B1B685B074A
:1080A00032D54C4B1B68032B2EDDB4F84600430041
:1080B000083323F007036D46ADEB030D464B04AECA
:1080C000D3F800E032460023984202F1020232D88F
:1080D000002306F810302F21404811F0CBFD002876
:1080E00039D02F213D4811F0C5FD411C3C4B3D4A84
:1080F000D3F8043501923C4A0092029640F2F732DE
:10810000042003F081FEAD462046FFF745FE2046E1
:10811000FFF7C8FD002409E00132042AA7D10CB101
:1081200003E00C4662B6002CABD1042420461C3779
:10813000BD46BDE8F083A16EC95C4FEA111C01F099
:108140000F011EF80CC002F802CC1EF8011002F854
:10815000011C0133B8E75C21204811F08BFD08B108
:108160005C21BFE71D49C1E7002A14BF0B220F2283
:10817000934228D80133FB6005F10C037B60381D66
:10818000AB6ABB6003F0CDF904460028CED1796913
:10819000284601F10109FFF731FDEB7D43B132467D
:1081A0004146484611F087FC381D03F0D2F9BDE77F
:1081B0002B46324649464046FFF73AFBF4E7102487
:1081C000B4E70724B2E70924B0E700BF3C3500203C
:1081D000002E0020FC2D0020042E00204CA20300C5
:1081E00000B00040F7A2030031A00300EFF31083BA
:1081F00072B6044A04491160044A0549116003B982
:1082000062B67047D4340020799A0300DC34002031
:10821000899A030010B5FFF7E9FF4FF4D8720021E7
:10822000144811F053FC002404F088FC124B13484E
:108230001C602146402211F049FC114B1148124AA2
:1082400012499C7583E805004CF250329A601A611D
:1082500004221A750E48D96008225A7502F070FE81
:108260000C4B18600C4B0D481C60BDE8104004F02E
:1082700071BD00BF3C35002020350020E0340020D7
:108280002435002080969800F049020020A10700C4
:1082900085840200D8340020C8340020A177020071
:1082A00070B504468CB000284DD00569002D4AD029
:1082B000C369002B47D08669002E44D05A788DF8C8
:1082C00007201A780A93037BC17A022B04BF204B44
:1082D0009B7D002B82F0010214BF082304238DF83C
:1082E00006208DF80530828AC3F10F0019B9824249
:1082F00001DC082B29D08242C8BF01218DF804106F
:1083000051B113440B330C2193FBF1F3013B8DF876
:108310000B3000238DF80A3094E8030000238DF819
:108320001B3004AB83E803002389ADF81830A37A2F
:108330008DF81A302946236A099601A80B93FFF796
:1083400063FE0CB070BD0E20FBE70720F9E700BF0D
:1083500024350020F0B503468DB00F4600283AD0F2
:108360004468002C37D08569002D34D0027C12F08F
:10837000FD0F32D00278110631D48DF806208268C4
:108380000B2A98BF007B4FF0000188BF01200A91A3
:108390008DF804008DF8051030B1D01DC0080138EB
:1083A0008DF80B008DF80A1001218DF81B1003F1D8
:1083B000100103C904AE86E80300D989ADF818108E
:1083C0001B7F0995214601A88DF81A300B97FFF7FE
:1083D0001BFE0DB0F0BD0E20FBE71020F9E70720D3
:1083E000F7E7000070B5067B012E8AB004460D4603
:1083F00043D106220021684611F068FBA1889DF850
:1084000000208DF80550C1F3861322F07F021A4335
:108410009DF801308DF8002003F0030343EA810347
:108420008DF801302B0E8DF802302B0C8DF80330B7
:108430002B0A8DF8043006230493A38AADF81A3072
:10844000002307938DF808308DF81430E389ADF8D8
:108450001630A37D226A8DF81860CDF80CD00892F2
:1084600043B96FF0010102A88DF82430FFF772FFC5
:108470000AB070BD024B5B7DF3E70020F8E700BF58
:108480002435002070B51B4E0024351995F8443072
:10849000012B06D12846FFF77FFC10B12846FFF7D5
:1084A00001FC6C34B4F5D87FEFD1124C04F5D875CB
:1084B00094F84430022B17D194F86430022B13D176
:1084C000A16C2046FFF78EFF70B984F86400204647
:1084D000A66CFFF77BF9864206D120460121FFF703
:1084E00083F92046FFF7ECF96C34AC42E0D101206F
:1084F00070BD00BF3C3500202DE9F0470D469AB015
:10850000144698460646002800F0FA81002A00F03A
:10851000F7810DF1080900210822484611F0D6FA2A
:10852000494660880DF0EEFA20B9002738461AB0A7
:10853000BDE8F0872269E168208902F0010204F0B9
:10854000CDFA82460028F0D12269E168208902F044
:10855000010204F097FA0746A8B12C2251460FA851
:108560002589247C11F0B2FA0E238DF83C309DF859
:108570004230ADF8405064F300030FA88DF842304C
:1085800000F016FAD2E70DF11C0A182221465046D7
:1085900011F091FA337803F08002111C18BF012109
:1085A0008DF810109DF82710E1B103F07F038DF8CE
:1085B00012308DF811705AB37278B378920102F4C8
:1085C000FE5242EA9302ADF81420DB00F27803F089
:1085D000180343EA521302F01F028DF816308DF88B
:1085E000172015E0C3F380118DF8121003F03F013E
:1085F0008DF81310190608D596F90130002BACBF81
:10860000042308238DF81130D5E704238DF81130A9
:1086100099E8030000240D948AE8030002F04EFC60
:108620009DF81030002B00F06481B74BBDF824207A
:10863000994693F8441002290DD1998A91420AD1A2
:108640006C2303FB0494BDF81420A3889A4231D212
:1086500002F056FC6AE70134042C03F16C03E8D104
:1086600000249DF8103013B97846FEF7F5FF0B9AF9
:10867000BDF814100A98BDF824A002F00102FFF71B
:1086800063F8A24B4FF0000E9C465968884217D100
:108690005988514514D15978914211D11CF83E3076
:1086A000002BD5D004A8FFF791F8014604A8FFF7E6
:1086B00099FECDE7D5D905212046FFF715FBCFE779
:1086C0000EF1010EBEF1080F03F10803DDD1002CFD
:1086D0005DD19DF827209DF81730002A0CBF4FF080
:1086E0000C0A4FF0080A03FB0AAA0CBF4FF4C07330
:1086F0004FF480739A4539D9854B1B685A0719D5B1
:10870000844B1B68002B15DD2F21834811F0B2FA32
:1087100018B32F21804811F0ADFA411C7F4B804ADD
:10872000D3F804350092CDF804A040F26322012072
:1087300003F06AFB002104A8FFF754FE2C2200215D
:108740000FA811F0C3F90F238DF83C300FA80223B6
:108750008DF8443000F02CF97AE75C216E4811F076
:1087600089FA08B15C21D5E76B49D7E723466C222B
:1087700002FB039494F84410002940F0A180534672
:10878000022204A92046FFF7D3F80028D2D0604B7C
:108790001B685B071CD55F4B1B68032B18DD2F2163
:1087A0005D4811F067FA002800F08F802F215A48A9
:1087B00011F060FA411C594B9DF81620D3F804358E
:1087C0000192584A0092042040F2A72203F01CFBB9
:1087D00094F84430022B02D07846FEF73DFFDFF8D4
:1087E0004891D9F800A001F0E5FF0AEB000104F17F
:1087F0002C0001F070FF237B012B1CD194F8643016
:10880000CBB994F84430022B02D07846FEF724FF0F
:10881000D9F8043099F81510D9F8082002FB01396D
:1088200001F0C8FF00EB090104F14C0001F053FF17
:10883000012384F864309DF81630A16C0120984023
:1088400001427FF405AF0143A164E1799942A5F1AA
:1088500004029DF8271041D1002914BF08210C21E2
:1088600003FB0121A56EA4F846100CBF0C200820C4
:1088700000FB0350311D11F01EF92046A56CFEF7D8
:10888000A5FF85427FF4E4AE022384F86430A16C36
:108890002046FFF7A7FD434605462246B4F846109A
:1088A000A06EFFF709FB002D7FF4D2AE204684F8BE
:1088B00064500121FEF798FF2046FFF701F8C7E654
:1088C0000133042B7FF454AF34E75C21124811F0DC
:1088D000D1F908B15C216AE70F496CE791B90C2A1C
:1088E00002D1A56E1046C3E704212046FFF7FCF92C
:1088F000AEE6434604AA691E701CFFF7DDFAA7E640
:108900000E2713E6082AEBE73C350020E034002070
:10891000002E0020FC2D00204CA2030000B00040DF
:108920007CA2030090A203002435002010B591F82A
:108930004430022B0C4602D07846FEF78DFE02230F
:1089400084F86430A16C2046FFF74CFD08B984F828
:10895000640010BD2DE9F04188460746E8B1124E8B
:108960003468C4B92546454507D1104B1F605D608A
:10897000012333602046BDE8F08107EBC5035B6847
:108980005BB117F83500030609D450B1FEF7E6FED7
:1089900038B90135E7E70424ECE70E24EAE70B24B5
:1089A000E8E70F24E6E700BFC8340020CC340020FD
:1089B000F8B5074610B97846FEF74EFE0F4E3468FC
:1089C00094B10F4D01232B7023791BB954F8043C4B
:1089D000384698472468002CF6D12B78022B03D117
:1089E0003168064C09B92970F8BD0B790E6813B1CE
:1089F000204603F090F93146F4E700BFF03600203E
:108A0000EC36002010B5044610B97846FEF724FE77
:108A100000232372211D0248BDE8104003F05AB91B
:108A2000F036002010B5044610B97846FEF714FE63
:108A3000074A1378013B012B04D80223137001234A
:108A4000237210BD211D0348BDE8104003F063B937
:108A5000EC360020F03600200B888268D25A0732AC
:108A600022F00302134402889BB2043A934288BF67
:108A700000230B80704770B5064615460C4611BBA7
:108A80007846FEF7E9FDFEB17846FEF7E5FD6B1E80
:108A90002344B3F1005F34D94FF08052D2F80C2157
:108AA00002F50022B3EB822F2ED2042D02D8784695
:108AB000FEF7D2FD35800023043D7380B380B4609F
:108AC0002580A37070BD10B97846FEF7C5FDB4F1DE
:108AD000005F12D94FF08053D3F80C3103F5002317
:108AE000B4EB832FD3D34FF08053D3F80C3103F57D
:108AF0000053B4EB832FC7D2C9E7B4F5000FF2D807
:108B0000C2E7B3F5000F08D94FF08052D2F80C211C
:108B100002F50052B3EB822FC7D37846FEF79CFDD7
:108B2000C3E737B5044610B97846FEF795FD62886D
:108B3000A36813449B78012B02D17846FEF78CFD85
:108B4000A288A3681344EFF3108572B69A78A168DF
:108B5000032A11D15B1A02A9204621F8023DFFF732
:108B60007BFFBDF80620A3686280134400229A7040
:108B700005B962B603B030BD00228A706280A2805F
:108B8000F6E770B50E461546044610B97846FEF76E
:108B900063FD16B97846FEF75FFD6288A36813444B
:108BA0009B78012B02D17846FEF756FD002D31D07F
:108BB00021880B1F9BB29D422CD86088A388EA1D98
:108BC00022F00302984292B204D21B1A9A420FDD9D
:108BD000042070BD15D9091A914209D29A42F7D8DA
:108BE000032981BFA3681B1804229A7000236380A5
:108BF0006288A1688B188D5201229A703360002020
:108C000070BDA26813449B78002BE1D19370638000
:108C1000A380EDE7092070BD70B50D4616460446E9
:108C200010B97846FEF718FD15B97846FEF714FD21
:108C3000AB78012B02D07846FEF70EFD2B88B342AD
:108C400002D27846FEF708FD16B97846FEF704FD15
:108C50000223AB70E1182E802046FFF7FDFE6288EC
:108C6000A38893421FBFA3689B1800229A7070BD0F
:108C700038B50D46044610B97846FEF7EDFC15B937
:108C80007846FEF7E9FCA288A36813449A78042A80
:108C900006D1211D2046FFF7DFFEA288A3681344FA
:108CA0009A78022A03D0032A06D0052038BD032271
:108CB0009A702B60002038BD7846FEF7CDFCF9E7AE
:108CC00013B5044610B97846FEF7C6FCA288A3681F
:108CD00013449978042909D102A9204621F8022DCC
:108CE000FFF7BAFEBDF80620A36813449878831EE8
:108CF0005842584102B010BD13B5044610B9784629
:108D0000FEF7AAFCA288A36813449878C21E012A21
:108D100004D9831E5842584102B010BDA2680DF11B
:108D200006019B1A2046ADF80630FFF795FEBDF808
:108D30000620E8E770B50D46044610B97846FEF700
:108D40008BFC15B97846FEF787FCAB78012B17D062
:108D5000032B20D1A288A36813449D4202D07846F9
:108D6000FEF77AFC0026AE70211D2046FFF774FE48
:108D7000A288A36813449B78042B11D1A68070BDF0
:108D80006288A36813449D4202D07846FEF764FCD3
:108D90000023AB7070BD7846BDE87040FEF75CBC48
:108DA00070BD037942799B1A03F57F2303F6FF73A5
:108DB00000EB03307047000010B5054884681C22A2
:108DC000002110F083FE2046BDE8104003F0FCBCFB
:108DD000F436002070B51C4CE36813B97846FEF7F2
:108DE0003BFC237E13B17846FEF736FC6368092B03
:108DF00002D97846FEF730FC144D0026636855F81A
:108E000023309847022811D003280DD0012815D10E
:108E100063680133092B636002D97846FEF71CFCB6
:108E2000237E002BEAD00DE06660F9E7237E0BB1CC
:108E3000207070BDBDE87040FFF7BEBF00F0FD00C0
:108E40000128EDD070BD00BFF436002008A3030058
:108E500010B50388044613B97846FEF7FDFB208859
:108E6000074B04EB800030EA030203D06288B2F5BE
:108E7000FE4F04D11C4004F580542078204410BDDE
:108E800000F0FFFF70B504460E4647F6FE65FFF79B
:108E9000DFFFB04207D2844205D24388013B9BB238
:108EA000AB42F4D870BD002070BD00000B78032BDE
:108EB000094B04BF00221A761A78012A03D11B7EBF
:108EC00043B9FFF787BF022A04D10B78032B01D1E6
:108ED000FFF772BF704700BFF436002010B50C4C8E
:108EE000E3681878002203F58051184403F0F6FE79
:108EF00050B9E1680846FFF754FF814206D001F5FA
:108F00008051E160032010BD012010BD022010BD82
:108F1000F43600201FB50A4B02221B688DF8002092
:108F20000193084A4FF4805369460120029300F0F0
:108F30003FFFB0FA80F0400905B05DF804FB00BFC8
:108F400014370020103700201FB501230190039132
:108F500002926946044A8DF80030184600F028FF56
:108F600005B05DF804FB00BF1037002038B5104C89
:108F7000E36818784FF6FF7203F58051184403F048
:108F8000ADFE88B1E36819780B4498420CD0657E39
:108F9000084B09490422002D08BF1946FFF7D4FFEA
:108FA00020B90120207638BD012038BD002038BD11
:108FB000F4360020C0A40300C4A403002DE9F04748
:108FC000224EF06803794279013B9A4202D1012096
:108FD000BDE8F08700F580531D491C781C440B68E0
:108FE00013F8045F1D44FFF7DCFE6388013B9BB26E
:108FF00047F6FE62934200F58057884604D9204622
:109000003946FFF73FFF0446DFF848A04FF001095B
:10901000002CDCD0D8F800106288284601F5805179
:1090200003F05CFE05460028D1D0042251462046BC
:1090300086F81890FFF788FF28B920463946FFF7D1
:1090400021FF0446E4E70020BDE8F087F436002065
:1090500014370020BCA4030070B50C4D0C4EE96819
:1090600030680C7804302246FFF76EFF60B9336831
:1090700004F0FC0404341C44EB686C611A786876D4
:1090800013442B61012070BD002070BDF436002018
:109090001437002008B5054B054918680422FFF76E
:1090A00053FFB0FA80F0400908BD00BF143700201C
:1090B0000037002010B5074B074C1968E06840F6F0
:1090C000FC720431FFF740FF10B90120207610BD7B
:1090D000002010BD14370020F436002010B50C4CD1
:1090E000E1680846FFF75DFE81420AD1094B0A4953
:1090F00018680422FFF728FF40B9012323760220D5
:1091000010BD01F58051E160032010BD002010BDAD
:10911000F436002014370020183700202DE9F74FCF
:109120003A4C236913B97846FEF796FA636913B986
:109130007846FEF791FADFF8D8904FF0000847F62E
:10914000FE6A637E13B9B8F1000F01D0012053E02D
:109150006369E06803EA0907FF1A07F58053276986
:109160000093FFF71EFE7A88013A92B2524500F54D
:10917000805B06D938465946FFF784FE074600282B
:1091800040D03D4600265D451BD22988009B06EB5A
:1091900081018B4209D987EA050212EA090F04D13D
:1091A0006A88013A92B2524503D95EB94FF001087C
:1091B00019E028460191FFF74BFE019905460E463E
:1091C000E1E7E6B1324639466069FFF7BDFE90B986
:1091D000636926F003063344636115B97846FEF7E8
:1091E0003BFA256125B16A8847F6FF739A42A8D1F8
:1091F00001236376A5E7002003B0BDE8F08F4FF0B0
:109200000108EFE74FF00108F2E700BFF436002055
:1092100000F0FFFF1FB50A4B0222DB688DF800202B
:109220000193084A4FF4805369460120029300F0ED
:10923000BFFDB0FA80F0400905B05DF804FB00BF47
:10924000F43600201037002010B54FF010235A6973
:10925000013225D05A691AB35B69A3F58053A3F58F
:109260008053174A196813604B1E033325D8C1F386
:109270000B0313BB134A1448D16001211170134929
:1092800013765376936051F8234084420ED1536095
:109290000F49012000F07CFDFFF79CFD012010BD6F
:1092A0004FF08052516913694B43D8E701330A2BC1
:1092B000E9D17846FEF7D0F9EAE7002010BD00BFFB
:1092C00014370020F43600201592020008A3030092
:1092D000AD8E0200024B1878003018BF0120704795
:1092E000F436002038B50E4C2378054613B1784685
:1092F000FEF7B2F92B78032B02D07846FEF7ACF9D3
:10930000EB68E360012000230649A56063602376D3
:109310002070637600F03CFDBDE83840FFF75ABD91
:10932000F4360020AD8E0200014B1868704700BF74
:109330001437002010B5044610B97846FEF78CF9B2
:1093400063681BB123680BB1A36813B97846FEF7B5
:1093500083F9A3685A1E1A4202D07846FEF77CF9B8
:109360000023E360236110BD38B50546F0B1E9B1D3
:109370008368EBB1EFF3108472B683682A69C06822
:109380001A44824203D104B962B604240CE0013BC2
:10939000034095E8050002FB030010F08CFBEB682E
:1093A0000133EB6034B962B6204638BD0E24FBE7CA
:1093B0000924F9E70024F7E770B50E460446F0B13A
:1093C0008368F3B1EFF3108572B60169C3689942FF
:1093D00003D105B962B605250FE04EB18368013BA4
:1093E0000B4090E80600304602FB031110F063FBCF
:1093F00023690133236135B962B6284670BD0E2555
:10940000FBE70925F9E70025F7E70000024AD2F853
:109410000034002BFBD0704700E00140C0F30B0389
:1094200010B5E3B9E9B1104C0223C4F80435FFF7D5
:10943000EDFF01F6FF7121F47F6121F00F0101447E
:10944000884205D10020C4F80405FFF7DFFF10BDF6
:10945000C4F80805FFF7DAFF00F58050F0E71020A8
:1094600010BD092010BD00BF00E0014070B540EA0A
:10947000010414F003041BD1E2B195071AD10E4E7A
:109480000123C6F804359508FFF7C0FFAC4205D1AB
:109490000020C6F80405FFF7B9FF70BD51F824306D
:1094A0005A1C03D040F82430FFF7B0FF0134EDE739
:1094B000102070BD092070BD00E0014010B5104CB7
:1094C0004FF480520021204610F000FB0D4B04F5B4
:1094D0007F611C60282004F13003002223F8300C47
:1094E00023F82E2C43F82C3C30338B42F6D1382312
:1094F000A4F8C03FA4F8C22FC4F8C42F10BD00BF09
:109500001C3700201C47002008B50822022109480A
:1095100002F0CAFF20B90848BDE8084003F02AB9A4
:10952000064A91684160127B0272BDE8084002F071
:10953000E9BF00BF28470020C02D0020744700204D
:1095400010B5044610B97846FEF786F82346BDE804
:109550001040184738B50E4D2B78C3B90D4B5C68D9
:1095600004F50054B4F1807F11D8042201210A4887
:1095700002F09AFF20B90948BDE8384003F0FAB874
:10958000012344602B70BDE8384002F0BBBF38BDFA
:10959000884700207447002028470020B02D002075
:1095A00010B501210C4802F0C3FF80B902210A481E
:1095B00002F0BEFF044650B901461422074810F0DD
:1095C00085FA074B1C70BDE81040FFF7C3BF054884
:1095D00003F0D0F8F7E700BF2847002074470020C9
:1095E0004C470020E02D002030B50D468DB07AB9F3
:1095F0004B88012B0AD1124C227812B97846FEF71B
:109600002BF8104B6A685A60002323700DB030BDF0
:10961000032A02D07846FEF71FF82C22002101A869
:1096200010F054FA10238DF80430074B0395DA68D4
:109630001B69059201A80693FFF7BAF9E6E700BF98
:1096400088470020744700202847002070B503F0A9
:10965000A9F8D8B101F032FC002211461C481C4C7C
:1096600002F0F2FE00263546B0B91A4C05B10EBB29
:1096700000232360A3602373FFF746FF2368636022
:10968000FFF768FFBDE8704001F03ABC01F0DAFC7A
:109690000028DCD020BFDAE74388012B08D0022B5A
:1096A00000D1051D02460021204602F0CDFEDBE779
:1096B000061DF7E72B68A3602B792373B54203D906
:1096C0002B790BB92060D9E733682360D6E700BF58
:1096D000284700207447002008B503F09BF8A0F548
:1096E000805008BD7FB500211822684610F0EEF9C1
:1096F00000230293FFF7F0FF0123009001936946D6
:10970000054B0648039302F03AFF10B1044803F0FA
:1097100031F807B05DF804FBE99502002847002006
:10972000D02D002008B5142200210A4810F0CEF9EF
:1097300001F040F8084B094A9A60094ADA600022B1
:1097400058601A615A61074B1A70BDE80840FFF76C
:10975000C9BF00BF74470020504700208198020015
:10976000008793038947002010B5074C23784BB935
:109770000648074B036000F07BFD064800F072FFCF
:109780000123237010BD00BF24470020684700203C
:10979000E99802005047002030B58DB001F08EFBF3
:1097A000154B1A7B1D4622BB9A7B12BB1A8A41F2CB
:1097B00082639A4202D8114B1B78D3B101232B73D9
:1097C000AB6800240133AB602C82FFF79DFEAB68D1
:1097D0002A7B8DF80820013B0CA80493022300F893
:1097E0002C3D0394FFF7E4F801F08AFB20460DB00E
:1097F00030BD0824F8E700BF7447002089470020E7
:1098000010B58CB001F05AFB1B4B5A7B42B1997BCF
:1098100099B9188A41F28261884201D8174A1278B0
:1098200002F001047AB1197B00225A7339B101297F
:109830000ED07846FDF710FF05E00022F0E7FFF7B5
:10984000ABFF0028F5D101F05BFB20460CB010BD4A
:109850001A605A601A731A820CA89B680493022338
:1098600000F82C3D8DF808200392FFF7A1F8FFF7D0
:109870004BFEFFF76FFEE6E77447002089470020A4
:1098800038B5174C257B2DB1012D12D07846FDF748
:10989000E3FE21E0228A41F282639A4202D8114B10
:1098A0001B78CBB1FFF7ACFF638A0BB1013B63823E
:1098B00038BD238A41F28262934202D8094A157860
:1098C00055B142F2B012934282BF01230025637367
:1098D000FFF796FF002DE7D0238A01332382E3E7C9
:1098E000744700208947002030B50378042B8DB0E1
:1098F0000FD143681B7863B1224C4369217B027E00
:10990000002939D1618A61BB012AA26803D0934240
:1099100004D80DB030BD0132934224D9A2682A3256
:109920009342F6D8A27B002AF3D18568A36042F661
:109930000653226062602282638262732273FFF7A1
:10994000E3FDFFF707FE237B8DF808300CA8022308
:10995000A26800F82C3D103504920395FFF728F813
:10996000D7E7012AD5D1A26801329342D1D1012390
:109970006373FFF745FFCCE70129CAD1012AC8D09C
:10998000A268F2E77447002038B5164C94E80C0042
:109990009A4205461FD2207B1349144B012808BF69
:1099A0000B46934207D963682268403B9A4208D32A
:1099B000FFF7D0FD05E001236373FFF721FF0028C7
:1099C000F1D0EFF3108072B623685A1C22602B602E
:1099D00028B962B638BDFFF7BDFD0F2038BD0020A5
:1099E00038BD00BF7447002000E0FF00FFFF7F008C
:1099F00010B50C4C30B10C4B01229A732368134400
:109A0000236010BD236813B97846FDF725FE23684F
:109A1000013B23602BB9044A9373BDE81040FFF764
:109A2000EFBE10BD204700207447002000B58DB068
:109A30000323ADF808000CA88DF8102000F82C3D89
:109A40000391FEF7B5FF0DB05DF804FB014B98687C
:109A5000704700BF74470020034B1A7B9868012AA7
:109A600008BF00F1FF30704774470020044B9B682B
:109A70005840C20748BF03F1FF331846704700BF84
:109A800074470020014B187B704700BF74470020CB
:109A900038B5094B1C7864B9084D0122A8601A70CA
:109AA0002973FFF731FD2C606C60FFF753FD2046F2
:109AB00038BD082038BD00BF4C4700207447002047
:109AC0002DE9F8431D4CDFF878900026022120464E
:109AD00002F00EF85FFA86F805460027ADB967B1C7
:109AE0002946204602F06CF8082806D154F8043CB8
:109AF0001BB12A464946404698470136032E04F1D9
:109B0000BC04E3D10120BDE8F88354F8043C23B140
:109B100034F80C2C29464046984734F80C3C013365
:109B200024F80C3C0221204601F0FEFF02212046D1
:109B300001F0DEFF01370546D0E700BFA047002057
:109B400030A3030010B5012104460C3001F0D0FF12
:109B5000002834D01A4BC4F89C300023C4F8A0303D
:109B600003786268012B07D0022B23D07846FDF7DB
:109B700073FD4FF4FA7307E083689B1A9A084FF459
:109B8000A973534303F5FA730E4A934294BFC4F882
:109B9000A830C4F8A8200123C4F8AC4084F8B83039
:109BA00004F19C0005F002F848B17846BDE8104089
:109BB000FDF752BD83689B1A1A0B034BE1E710BDFA
:109BC000CD9B0200A0860100645E01002DE9F74FE5
:109BD0004A4B1B7880460D463BB105F01DF800232B
:109BE00085F8B83003B0BDE8F08F01F10C09D1F869
:109BF000A8704846012101F07BFF064610B978465F
:109C0000FDF72AFDDFF8FCA0A7F5FA7700244FF452
:109C1000A97B3378012BA7EB040406D0022B3BD0A1
:109C20007846FDF719FD00231FE06B68B268B4FBAE
:109C3000FBF4D21AA400944228BF144624B901931D
:109C40007846FDF709FD019BF168706823F0030376
:109C5000224619441844FFF709FC10B17846FDF775
:109C6000FBFC6B681C446C60B3686A689A422AD13A
:109C700004F0D2FF4846012101F056FF00236B603B
:109C800085F8B8301E4B186801F078F9284603B003
:109C9000BDE8F04FFFF756BF6B68B268B4FBFAF44B
:109CA000D21A2403944228BF144624B9019378465B
:109CB000FDF7D2FC019B706823F003032146184492
:109CC000FFF7ACFBC9E700F075FD3378B0EB080493
:109CD00048BFA8EB0004012B0DD0022B06D1534640
:109CE00023449F4295D204F097FFCFE77846FDF7D3
:109CF000B3FC0023F4E74FF4A973F1E79047002089
:109D00008C470020645E0100F8B51E481E4C01F02F
:109D100017F91E4B186004F11C03082710260325B1
:109D2000636104F10C0004F118032361A7736673E7
:109D3000257301F020FF04F1D803C4F8D03004F1FA
:109D4000C80004F1D403C4F8CC3084F8CA7084F895
:109D5000C96084F8C85001F00EFF04F5CA73C4F856
:109D60008C3104F5C87384F8867184F8856184F8B1
:109D70008451C4F8883104F5C270BDE8F84001F0A0
:109D8000FABE00BFC19A0200944700208C47002011
:109D9000022838B504460D4602D97846FDF75CFC2A
:109DA000024BBC2202FB0434A56038BD944700205E
:109DB00002282DE9F84F05460C46924602D978460E
:109DC000FDF74AFC14B97846FDF746FC2378012BD1
:109DD00012D16368990702D07846FDF73DFCE3682D
:109DE0009A0702D07846FDF737FCA3689B0711D08D
:109DF0007846FDF731FC0DE0022B0DD16368C3F30B
:109E00000B0313B17846FDF727FCA368C3F30B03DC
:109E1000002BEDD1A36813B97846FDF71DFCEFF3D5
:109E2000108872B6BC276F43184E07F10C09B14475
:109E30000021484601F05CFE834600B300214846FD
:109E400001F072FE1022214658460FF034FEBAF19E
:109E5000000F03D0F3195B88AAF80030BC2303FB82
:109E600005656B8895F8B80001336B8028B9084BFD
:109E70001C782CB9F019FFF765FE002000E00420E3
:109E8000B8F1000F00D162B6BDE8F88F944700200A
:109E90009047002010B1800B014B185C704700BF49
:109EA00040A3030012DF704713B5137863B1042B8E
:109EB0000CBF0723002310F8011C292962D005D804
:109EC000162973D002B010BD537DF4E72A2927D09C
:109ED0002B29F7D1022BF5D110F8021C0139C9B298
:109EE00002F052FE04460028ECD0374B1B685B069C
:109EF000E8D5364B1B68012BE4DD2F2134480FF0E9
:109F0000B9FE002849D02F2131480FF0B3FE411C83
:109F1000304B314AD3F80435009201949D2224E05D
:109F2000022B01D0072BCDD110F8021C013901F012
:109F300033FB04460028C5D0234B1B685A06C1D505
:109F4000224B1B68012BBDDD2F2121480FF092FE13
:109F500078B12F211E480FF08DFE411C1D4B1F4A6A
:109F6000D3F80435009201948A22022001F04CFFBC
:109F7000A8E75C2116480FF07DFE08B15C21E9E7F7
:109F80001349EBE7022B9DD110F8021C0139C9B22D
:109F900002B0BDE810400DF035B95C210C480FF05F
:109FA00069FE08B15C21AFE70949B1E701884FF6C6
:109FB000E463994286D110F8021C0230033902B0E2
:109FC000BDE81040FDF744BA002E0020FC2D002013
:109FD0007EA3030000B00040C3A303009AA30300C4
:109FE00070B58AB005F092FA0446002834D00023F8
:109FF0008DF8103006460FCE05AD0FC533682B60C7
:10A00000627D052A0CD9207D00F00F03072B07D0B5
:10A0100004AB063A04F11D0100F00F0004F0C2F990
:10A02000114B1A68AAB104AB0393237DC3F3030356
:10A030008DF80430637D062B89BF063B00238DF825
:10A04000053004F11D0398BF8DF80530029301A877
:10A050009047204605F044FA05F070FA80F00100C0
:10A06000C0B20AB070BD00BFCC490020F7B52F4F79
:10A070003A780546002A4ED100284ED0067A06F0DE
:10A08000F703072B4BD1C068002841D0FDF7F6FA43
:10A090000DF10700FFF706FF0446B0BB9DF807303F
:10A0A000012B3ED1FDF70AFB00F0CAFA304600F062
:10A0B000CFFEE87800F050F900F01EFE04F046FDF7
:10A0C0001B4805F0D3FA04F0DFFAFFF71DFE03F09A
:10A0D00095FC00F0D1FC04F0F3F8284601F008FAF2
:10A0E0002846FEF797F803F0A7F82846FFF7E6F9A9
:10A0F000FDF7AEF908B1062815D10E4804F024F991
:10A100000D4B00221A6001233B70204603B0F0BDC6
:10A11000FDF7BCFABCE70824F7E70E24F5E70724AF
:10A12000F3E70224F1E70446EFE700BFC949002046
:10A13000E19F0200F02D0020CC49002037B5264BCE
:10A140001B78002B44D0254D2A78002A40D100F0FE
:10A15000F7FD10B17846FDF77FFA04F019FD0028ED
:10A1600038D105F0ABF901F0D5F9FDF771F90446E6
:10A1700050B3062828D01A4B1B685B0418D5194B1E
:10A180001B68012B14DD2F2117480FF073FD90B1D0
:10A190002F2115480FF06EFD411C144B144AD3F8C3
:10A1A0000435009201944FF4C472022001F02CFE99
:10A1B000204603B030BD5C210B480FF05BFD08B1B9
:10A1C0005C21E6E70849E8E701232B700024EFE76C
:10A1D0000824EDE70446EBE7C9490020C849002000
:10A1E000002E0020FC2D00207EA3030000B00040C4
:10A1F00059A3030037B5184B1B685B0404460D4692
:10A2000019D5164B1B68062B15DD2F2114480FF0AE
:10A2100031FDB8B12F2112480FF02CFD411C114B1C
:10A22000114AD3F804350192104A009207204FF4E6
:10A23000D77201F0E9FD2946204603B0BDE8304061
:10A24000FEF72EB85C2106480FF014FD08B15C2122
:10A25000E1E70349E3E700BF002E0020FC2D0020CA
:10A260007EA3030000B0004044A3030035A0030018
:10A27000FEF7C8BB08B500F023FD002008BD7047FD
:10A28000044B1A680132B2F1704F08BF01221A6004
:10A2900018687047D049002010B5044610B97846B8
:10A2A000FDF7DAF900232360636010BD38B50D4671
:10A2B000044610B97846FDF7CFF915B97846FDF791
:10A2C000CBF900236B60EFF3108372B6226822B9DA
:10A2D0002560656003B962B638BD62685560F8E70D
:10A2E00010B5044610B97846FDF7B6F9EFF31082C1
:10A2F00072B6206808B143682360236803B96360BD
:10A3000002B962B610BD10B5044610B97846FDF723
:10A31000A3F9206810BD35DF70473CDF70470000AF
:10A3200008B503464FF0FF30FFF7F5FF4FF0FF3160
:10A330001846FFF7F2FFBFF34F8F0549054BCA6878
:10A3400002F4E0621343CB60BFF34F8F00BFFDE721
:10A3500000ED00E00400FA0507289ABF024B33F82D
:10A360001000FA20704700BFEEA30300024B5868AC
:10A37000103840B2704700BF00ED00E0084A2023CB
:10A3800090FBF3F352F82330424202F01F0200F038
:10A390001F0058BF504223FA00F000F00100704740
:10A3A00000E100E046DF704730B501F110031032E4
:10A3B000103013F8014D12F8015D8B4284EA050458
:10A3C00000F8014DF5D130BD2DE9F047144690B0AD
:10A3D00002F10F05102288462D1101460DEB0200F7
:10A3E000994604F00F040FF066FB0DB1002C44D029
:10A3F0004FF0000A02261022002108A80FF066FB89
:10A4000004A8FFF7CFFF01220DF13F0110AB13F9B4
:10A41000100D1F46994234D19DF83F3001325B0048
:10A42000DBB20028D2B2B8BF83F0870396428DF822
:10A430003F30EBD2013D6E46BAF1000F2CD03A46C8
:10A4400008EB05113046FFF7AFFF10220021384618
:10A450000FF03CFB0024AC4234DB3A46314608A8FE
:10A46000FFF7A2FF04A8FFF79DFF102239464846D8
:10A470000FF021FB10B0BDE8F0874FF0010A5646FF
:10A48000B9E793F801E093F800C04FEADE1E4EEA08
:10A490004C0E03F801EBBDE7224608EB05116846B8
:10A4A0000FF009FB10AB23448022013403F8402C49
:10A4B0006C44A31B102B02D13A463146C2E704F884
:10A4C00001ABF6E708EB0412394608A8FFF76CFF6A
:10A4D00004A8FFF767FF0134BDE70000094B1A68C5
:10A4E000824204D142691A600023037070471B68DE
:10A4F000002BF9D05A69904202D142695A61F3E7C0
:10A500001346F5E7D849002038B5124B1A680446BF
:10A510002AB11A6845685268AA1A002A0DDA1A6820
:10A5200062611C609A88013292B29A8012B97846B0
:10A53000FDF792F80123237038BD19684A691AB1F2
:10A540005068401B002802DB62614C61EAE711465B
:10A55000F4E700BFD8490020014B186800F00EBD99
:10A56000D449002008B50E4B1A68BAB11A6852686F
:10A57000821A12F1640F43BF19680A4A4968094AEE
:10A5800056BF00F1640102230223012000F0C8F845
:10A5900020B17846BDE80840FDF75EB808BD00BFB1
:10A5A000D849002059A502002DE9F04100F002F938
:10A5B000224E054637464FF00008336823B1336812
:10A5C0005B685B1B642B06D400F0F4F8FFF7CAFF4E
:10A5D0000120BDE8F08134682378012B02D0784651
:10A5E000FDF73AF863693B60BB88C4F814809BB2FE
:10A5F0005A1E92B2BA8013B97846FDF72DF8A368B7
:10A6000013B97846FDF728F80223284623702169FC
:10A61000A368984700F0CEF82378022B0546CCD1EA
:10A62000E2680AB92270C8E763681344591B6429B9
:10A63000FBD463602046FFF767FFBEE7D8490020E0
:10A6400008B50822002104480FF040FA034800F042
:10A6500077FC034B186008BDD8490020A9A502006B
:10A66000D449002010B5044600F062FD10B97846C8
:10A67000FCF7F2FF14B97846FCF7EEFFA36813B9B4
:10A680007846FCF7E9FF2378012B02D17846FCF7E6
:10A69000E3FF002363612046FFF736FF00F08AF8EE
:10A6A000BDE81040FFF75EBF10B5044600F040FD66
:10A6B00010B97846FCF7D0FF14B97846FCF7CCFF08
:10A6C0002046FFF70BFF0023636100F073F8BDE83D
:10A6D0001040FFF747BF38B504460D4600F028FD8F
:10A6E00010B97846FCF7B8FF14B97846FCF7B4FF08
:10A6F0002046FFF7F3FE0023636120466560FFF705
:10A7000003FF00F057F8BDE83840FFF72BBF00000B
:10A71000024B1B6803B962B6704700BF044A0020B1
:10A72000022838B531D803F003049C422FD1EFF34F
:10A730001083184D2B6072B6174B43F82020174B2F
:10A7400043F82010164B1C54164B002243F82020CF
:10A75000154B1B78ABB1154B1B68CC1A48BF5C1A64
:10A76000830003F1804303F500430022C3F8402136
:10A770001030012202FA00F00D4AC2F80403C3F8B7
:10A780004045FFF7C5FF002038BD072038BD0A202F
:10A7900038BD00BF044A0020E4490020F8490020E9
:10A7A000E04900200C4A0020F0490020F449002034
:10A7B0000080004008B5EFF310830B4A136072B6B7
:10A7C0000A4B1B786BB10A4B0022C3F84C210122C3
:10A7D000DA64D3F84C05074B1B681844FFF798FF61
:10A7E00008BD054B1868F9E7044A0020F04900202D
:10A7F00000800040F4490020084A00202DE9F0477D
:10A80000DFF87490DFF874A000244FEA840808F1A0
:10A81000804505F50045D5F84031EBB1D9F8043352
:10A8200004F1100201269640334215D058F80A7000
:10A8300017B97846FCF710FF00234AF80830C9F82A
:10A840000863FFF7B7FF0B4BE35C9B07014608D596
:10A85000B8470023C5F840310134032CD5D1BDE8F9
:10A86000F087384600F018FB0028F2D07846FCF755
:10A87000F3FEEEE7E049002000800040E4490020BC
:10A880002DE9F843324FDFF8E89005460026B84638
:10A89000B40004F1804303F500430022C3F84025CF
:10A8A000C3F84021D3F840313A6859F8263005F111
:10A8B0007801981A48BFD01AB1EB020E48BFA2EB3C
:10A8C000010E8645234A2BD913593BB10021115162
:10A8D000214AB25C920719D5284698471F4BE25887
:10A8E0001AB1012111600022E2500136032ECFD1AE
:10A8F0001B4B1B681BB91B4B4FF480721A601A4B21
:10A90000C8F8005001221A70BDE8F883294618469D
:10A9100000F0C2FA0028E1D07846FCF79DFEDDE7A2
:10A920001259002AE1D004F180445A1B04F5004476
:10A9300048BFEA1A0023C4F8403106F11001012390
:10A940008B400A49C1F80433C4F84025CDE700BF65
:10A95000F4490020E4490020E04900200C4A00208E
:10A96000044A002000E100E0F0490020008000409F
:10A97000F849002070B500230F49104C104D1A46BD
:10A980005E5CF60742BF5A5444F8232045F8232062
:10A990000133032BF4D10B4B18600B4B00221A70C0
:10A9A0000A4B4FF0FF32C3F80823094B4FF4807273
:10A9B000C3F8802170BD00BFE0490020E4490020B9
:10A9C0000C4A0020084A0020F04900200080004086
:10A9D00000E100E030DF704731DF704710B503461B
:10A9E00005C89C68D968A0EB721082EAF4320C4466
:10A9F000014410441A605C609960D86010BD37B59E
:10AA00000C46054610B97846FCF726FE0023A34203
:10AA100001D303B030BD0DF10700FFF7DBFF9DF858
:10AA200007100029F7D0E21A914288BF8DF807205D
:10AA3000E8189DF80710FFF7CFFF9DF80720134493
:10AA4000E5E7000037B5044602A8002340F8043DBE
:10AA50000421FFF7D4FF074B2360019B6360A360D1
:10AA6000E36014252046FFF7B9FF013DFAD103B09A
:10AA700030BD00BFED5EEAF1704748DF704749DF47
:10AA800070474ADF70470000064A032313751168B8
:10AA9000054B936140F6D862914288BF43F2B062A1
:10AAA0009A607047444A0020644A0020064A1368AE
:10AAB0005068064A12681844283278385343044ACA
:10AAC000B3FBF2F3C01A7047444A0020604A0020EA
:10AAD00040420F0010B5294B30B11A699969013213
:10AAE0001A611A680A441A60D96801221A759A69AB
:10AAF000013152080129D9609A610CD0022918D07D
:10AB000099691A681E480A44824223D840F6D762DF
:10AB100091421FD910BDB2F5FA7F03D130B900229E
:10AB20009A61EDE740F6D8618A42E9D840F6D862EA
:10AB3000F6E71A69022A03D11968114A521AEFE797
:10AB4000012ADDD10028EAD0DAE77846BDE81040D6
:10AB5000FCF782BD012258685A7200241C75FFF769
:10AB60008FFE04F0C1F8FFF7A1FF03230146054A59
:10AB70002046FFF7D5FD0028E7D110BD444A00204C
:10AB80008096980089AA0200F8B5444C444D0123F0
:10AB900023722B781BB1434B1B78002B64D000230E
:10ABA000237504285CD8DFE800F0035653514D00AC
:10ABB0003D4AE3602361D2F80405A27A3B4D0021AF
:10ABC00062B3A37223686268C5E9000113440121DE
:10ABD000374A636021752368364992682260002BEA
:10ABE00008BF0B46991AB1F57A7F27D39A4225D828
:10ABF000A161237D023B012B0CD8637A3BB104F0A9
:10AC00008FF8FFF753FFFFF7B5FE00236372254B64
:10AC100000221A70002323722748F8BDD5E90023CB
:10AC2000DFF898E0821A22F07F420023A2FB0E6731
:10AC30000EFB0377F30B43EA4743C4E74FF47A7301
:10AC4000A361D6E70120FFF745FFD2E70020FAE72E
:10AC500004F006F8CDE7FFF7D1FD04F033F8C8E7BC
:10AC60007846FCF7F9FCC4E7FFF7A4FD6368C01A57
:10AC70002B782060012B05D0022B09D07846FCF7F9
:10AC8000EBFC02E002222275A37200232B70B0E7D6
:10AC900003232375064BA361F7E700BF444A002056
:10ACA000754A0020744A002000B00040784A002015
:10ACB000644A002080969800584A002040420F00C5
:10ACC000043808B5032814D8DFE800F00A1105029B
:10ACD000FFF7D5FE68B17846BDE80840FCF7BCBC7C
:10ACE000044840F6D8638360FFF7CBFEF2E70148E3
:10ACF000FAE708BD644A00200C4A10B543F2B0647C
:10AD000000239460012143F698241370137151714C
:10AD1000D460074A1060074A1370074A1370074A45
:10AD20001372537213609172536010BD644A002015
:10AD3000604A0020744A0020754A0020444A0020DE
:10AD400008B50548FFF799FE20B90448BDE808405A
:10AD5000FFF797BE08BD00BF89AB0200644A002020
:10AD6000064B1B7D032B07D0054B187801380128B3
:10AD70008CBF00200120704701207047444A00200A
:10AD8000754A0020014B5868704700BF444A0020B4
:10AD900010B5064B587A40B1FFF788FE0446FFF71E
:10ADA00009FD0346201A48BF181B10BD444A002065
:10ADB000014B187A704700BF444A0020EFF310831C
:10ADC00072B6054A527A22B1044A4FF48071C2F831
:10ADD000001103B962B67047444A002000E100E068
:10ADE000024B01221A70FFF7E9BF00BF754A00202D
:10ADF000074A13782BB140B9064B1B78003318BFB4
:10AE0000012310701BB1FFF7D9BF0023F9E770478A
:10AE1000744A0020754A0020044B1B780F2B1EBF7C
:10AE2000034B4FF48022C3F800217047C44B00202D
:10AE300000E100E008B501460448FEF795FA10B9B4
:10AE4000FFF7EAFF08BD042008BD00BF804A0020CC
:10AE500010B50C4C0C4B20700C4803601023436061
:10AE60008360FEF767FA0A48FFF716FA23780F2B7C
:10AE700007D0084A5B01DBB282F812334FF480231B
:10AE8000136010BDC44B0020944A0020804A00206B
:10AE9000C84B002000E100E030B50D4685B0044607
:10AEA00010B97846FCF7D8FB002368468DF80030CF
:10AEB00001940295FFF7BEFF05B030BD10B5EFF36A
:10AEC000108472B60B490A68531C0B605AB90A4BBE
:10AED0001B780F2B04D0094B4FF48022C3F880203D
:10AEE00004B962B610BD002BFAD17846FCF7B4FB6A
:10AEF000F6E700BF944B0020C44B002000E100E0C7
:10AF000038B5EFF3108572B60A4C236813B978464A
:10AF1000FCF7A2FB2368013B23603BB9064B1B787F
:10AF20000F2B1EBF054B4FF480221A6005B962B685
:10AF300038BD00BF944B0020C44B002000E100E06E
:10AF400038B5054610B97846FCF786FB094C2368EE
:10AF5000082B02D97846FCF77FFBEFF3108372B61B
:10AF60002068421C2260044A42F8205003B962B6AD
:10AF700038BD00BF984B00209C4B002010B50E4BF5
:10AF80001B688342044602D87846FCF765FBEFF362
:10AF9000108172B6094A6009012304F01F0403FA04
:10AFA00004F452F82030234342F82030FFF734FFF6
:10AFB00001B962B610BD00BF984B0020C04B002005
:10AFC00070B50D461646044610B97846FCF744FBAA
:10AFD00015B97846FCF740FBEFF3108372B60022F8
:10AFE000A560E6602274246003B962B670BD0000FB
:10AFF00070B5044610B97846FCF72EFBA36813B968
:10B000007846FCF729FBEFF3108672B6237C03F039
:10B01000FF055BB90123064823742146FFF746F973
:10B02000FFF7FAFE284606B962B670BD1120FAE7AE
:10B03000C84B002010B5044610B97846FCF70CFB4D
:10B04000207C10BD2DE9FF47324E337813B178468E
:10B05000FCF702FB0125DFF8CC802F4FDFF8C8900A
:10B0600035700024D8F800309C4212D32B48DFF80A
:10B07000AC80FFF735F9002750BB294C69462046C4
:10B08000FEF79AF990B300232846337004B0BDE868
:10B09000F087600904F01F020123934057F8202035
:10B0A000134213D0EFF3108172B657F8202022EA32
:10B0B000030347F8203001B962B659F824309847A5
:10B0C000824618B92046FFF759FF55460134C9E7B3
:10B0D0000468237C13B97846FCF7BEFAE068A368DD
:10B0E000984727744046FFF7FBF8C5E79DF8003006
:10B0F000012B09D008D3022BC0D1019B002BBDD05E
:10B10000039902989847B9E7019B002BB6D00298A3
:10B110009847B3E7D04B0020C04B0020C84B00201D
:10B12000804A0020984B00209C4B0020FFF78ABFEC
:10B1300007B5FFF71BF98DF803009DF80330174999
:10B14000F02B0DD10B780F2B25D01220FFF716F91D
:10B1500080F00100C0B200F0010003B05DF804FB14
:10B160009DF803305BB2002BADBF03F1604303F0E9
:10B170000F030B4A03F56143B4BFD35C93F800336C
:10B180005B090193019A0B78934204D0019A934290
:10B19000DBD30020DFE70120DDE700BFC44B002048
:10B1A00014ED00E046DF704730B58DB00D46144613
:10B1B0000146102268460EF07EFC102229460DEB57
:10B1C00002000EF078FC6846FFF7ECFF102208A999
:10B1D00020460EF070FC0DB030BDFFF7F5B801F061
:10B1E000DBBB01F003BC30B4032956D8DFE801F023
:10B1F0000227275000241C70817A5A7861F30602D6
:10B200005A70C17AD2B261F3C7125A70C1680D0484
:10B21000C1F3074205F47F0501F47F412A430A4345
:10B22000C2F307219A70120C1A71D9700189DC716E
:10B230000A0A42EA0122A3F805201C7222E01970D2
:10B24000597801F0800162F3C7115970C1680C048C
:10B25000C1F3074204F47F0401F47F4122430A430F
:10B260009A70C2F30721120C1A71D97001890A0A67
:10B2700042EA0122A3F8052041880A0A42EA012293
:10B28000A3F80720026912BAC3F8092030BC70473E
:10B29000032200241A705C70B8E7784630BCFCF7D3
:10B2A000DBB97FB50E461546044600B112B97846A3
:10B2B000FCF7D2F91022002168460EF007FC2B465D
:10B2C000324621466846FFF77FF804B070BD2DE98D
:10B2D000FF410B9D884616461C46074610B10AB131
:10B2E00003B115B97846FCF7B7F96B4642463946C3
:10B2F0003046FFF769F82B469DF82820214668461E
:10B30000FFF762F804B0BDE8F08100002DE9F047D6
:10B3100086B0894600AF14469846064608B101B18A
:10B3200013B97846FCF798F904F1180323F00703E2
:10B33000ADEB030D264B0421186878606A46781837
:10B34000FFF7AFFF07F10803314668461022FFF709
:10B350003BF82246494668460EF0ADFB0123E21851
:10B360000DF8043069466B4607F1080092B2FFF70A
:10B370002BF89DF80F30464603F07F0306F8013B9B
:10B3800004F1100A2246494604F1110504A80EF002
:10B3900092FBADB202230DF80A302A4633466946C5
:10B3A00007F10800FFF710F83146102268460EF04A
:10B3B00082FB03230DF80A3007F1080008F111039E
:10B3C0002A466946FFF700F81837BD46BDE8F08702
:10B3D000FEA3030070B50D4688B0064600B111B952
:10B3E0007846FCF739F9114C04212068019004AA31
:10B3F0000DEB0100FFF755FF04AB31461846102254
:10B40000FEF7E2FF234602A953F8040F02901B79CE
:10B410008DF80C3004AB18460522FEF7D5FF082244
:10B4200006A928460EF047FB08B070BD02A4030031
:10B4300070B50D4686B0064600B111B97846FCF7E6
:10B440000BF90F4C54F8040B009002AA6846042133
:10B45000FFF727FF02AB314618461022FEF7B4FF74
:10B460002068019002AB042218460DEB0201FEF7A2
:10B47000ABFF9DF8173003F03F032B7006B070BD93
:10B480000BA4030030B50268037BD17A87B0002992
:10B490008DF808308368049214BF08210421093311
:10B4A0000B440446039301A94368059302A801F0E5
:10B4B00057FCD0B1237B012B0ED02568FEF7CCFAC8
:10B4C000286120680C30FEF75FFA054620B101F0D4
:10B4D000B9FC284607B030BD2168019800F095FA04
:10B4E000019B093323610025F3E70425F1E7000000
:10B4F00008B5074B40B91860FEF714F9FEF7A6F837
:10B50000BDE8084002F09AB842681A60F4E700BF4C
:10B51000D44B002008B5FEF727F9BDE8084002F03B
:10B52000CBB810B5044610B97846FCF795F82368F7
:10B5300013B97846FCF790F823685B6913B978462D
:10B54000FCF78AF8002323732046BDE81040FFF77C
:10B5500099BF10B5044610B97846FCF77DF8236909
:10B5600013B97846FCF778F8236813B97846FCF7E6
:10B5700073F823685B6913B97846FCF76DF82069A6
:10B5800000F0A0FAA16802460023206800F0FEF94E
:10B59000BDE8104001F030BCF0B50E4697B017463C
:10B5A0000446002844D000F08FFA2146021B0EA862
:10B5B0000EF081FA08AD0023009322460EAB31460F
:10B5C000284600F0D1F8044650B99DF820303BB130
:10B5D0000B9BB3F1807F03D29DF92A30002B4ADA0E
:10B5E000204617B0F0BD3F4B1B689B073DD53E4B37
:10B5F0001B68012B39DD2F213C480EF03BFB70B15D
:10B600002F213A480EF036FB411C394B394AD3F80A
:10B61000043500920220912200F0F6FB25E05C2127
:10B6200032480EF027FB08B15C21EAE72F49ECE72E
:10B630000E24D5E79DF82A300395013B8DF82A307A
:10B640004FF0FF33049303A8012305968DF81830BB
:10B65000FFF718FF0028C6D132460DF141010798C7
:10B660000EF029FA03A8FFF774FF9DF82A30013382
:10B670008DF82A3030E00D9B13B97846FBF7ECFFCC
:10B680003146284600F016FAC6B23B462A463146F5
:10B690000DF14100FCF730FF0446012002F044FEAA
:10B6A000D0B19DF82A30012B16D99DF82030012BFE
:10B6B00005D103A9BDF822000AF024FA60B90E4BA7
:10B6C0001B68002BB6D09DF82A20BDF82210BDF8CB
:10B6D000280098470028ADD10B99BDF82800FCF749
:10B6E0001DF87DE7002E0020FC2D002013A4030090
:10B6F00000B000402EA40300D44B002008B538B1A0
:10B70000012801D1032008BD7846FBF7A5FF0020E2
:10B7100008BD70B5064688B00D46144600210522C6
:10B7200004A80EF0D3F9336907221BBAA9180DF14A
:10B730001900CDF815300EF0BEF970696A46113067
:10B7400004A9FFF731FDAB1D0DF10600E21D13F852
:10B75000011910F8014DAB4281EA040102F8011D04
:10B76000F5D108B070BD00002DE9F04F9BB004AFDB
:10B770001D4697F880307B608A461646044618B10D
:10B7800012B10DB1AA4202D17846FBF765FF3078BD
:10B79000C009FEF76BF900232061636132787B6199
:10B7A00002F07F02FA60BB6107F1180207F1140191
:10B7B000F8680AF0B9F84FF0000807F1140353F8DD
:10B7C0002820002A46D00023FB74A7F848307B6469
:10B7D000F31DFB636261EB1D2A463146204607F1EB
:10B7E0002409FB64C7F83890FFF793FF6B78DB09F7
:10B7F000E3726B7803F07F03A372EB78AA781B02E5
:10B8000043EA02432A791343E3606B79A87940EA5B
:10B8100003202081FEF73EFB012814D1E27A002AA2
:10B82000AAF1090314BF0822042293420BD3E16852
:10B830002089FBF755FF30B907F11C0120890AF078
:10B8400061F9834640B3FB7C23BB08F10108B8F1E2
:10B85000020FB2D17B69002BA6D105205C37BD4613
:10B86000BDE8F08F10F8012B4FEA121B02F00F0217
:10B870001CF80BB003F802BC1CF8022003F8012CE2
:10B8800052E05C213A480EF0F5F908B15C215BE02A
:10B8900037495DE00020E1E7E37A7868002B14BFC8
:10B8A00008220422AAF1070387F854209B1AFA6B96
:10B8B0009BB2A7F8403013443B65FFF71FFF4B4690
:10B8C00001465A462046FFF78EFC636907F11301D3
:10B8D000013307F134007B63FFF783FCFB7C002B13
:10B8E000B3D0EB79287A40EA03206080FEF7D2FAE1
:10B8F000204B20701B689B07A5D51F4B1B68032B93
:10B90000A1DDB7F84010C7F808D04B00083323F08A
:10B910000703ADEB030DD7F84CE0184B0DF1100900
:10B92000D3F800C070464B46A0EB0E02914203F1E3
:10B93000020397D8002309F811300D482F210EF08B
:10B9400099F900289DD02F2109480EF093F9411C48
:10B950000B4B0C4AD3F8043501920B4A0092CDF8F8
:10B960000890E622042000F04FFAD7F808D06AE7E2
:10B970005BA40300002E0020FC2D0020042E0020DC
:10B9800000B0004079A4030031A00300F0B50C46DC
:10B990008FB016461F46054610B97846FBF75CFE89
:10B9A00016B97846FBF758FE012F02D97846FBF707
:10B9B00053FE3846FFF7A2FE01AF3B460146002288
:10B9C0002846FFF710FCEB7A0697002B14BF0823DC
:10B9D00004238DF834306B69A11C0133059389B2BF
:10B9E000F31D0022ADF8201005A8194407930B930E
:10B9F000ADF8282009920C91FFF7F1FB3246314651
:10BA00002846FFF786FE0FB0F0BD38B50D46044658
:10BA100010B97846FBF720FE15B97846FBF71CFEF7
:10BA20002889FEF737FA012802D07846FBF714FE82
:10BA300095F90A30002B02DA7846FBF70DFEEB6829
:10BA4000B3F1807F02D37846FBF706FE6B6913B92A
:10BA50007846FBF701FE2B6903F00102237803F01F
:10BA60007F0343EAC21323706A69127823F07F03CD
:10BA700002F07F02134323706378EA7A03F07F03B6
:10BA800043EAC213DBB26370AA7A23F07F0302F0A9
:10BA90007F0213436370EB6823711A0CA2701A0AB9
:10BAA000E2702B89A3711A0A62716B8823721A0AD9
:10BAB000E27138BDC37A002B14BF08200420093975
:10BAC000081A70470938704701307047436849B910
:10BAD000027880781A441B78C31A12F8010C1844B3
