:020000022000DC
:1060000000FD0320B1860300D9860300DB86030070
:10601000DD860300DF860300E18603000000000048
:10602000000000000000000000000000E386030004
:10603000E586030000000000E7860300E986030010
:10604000EB860300EB860300EB860300EB86030080
:10605000EB860300EB860300417C0200EB86030025
:10606000EB860300EB86030095F30200EB8603004A
:10607000EB860300EB860300EB860300EB86030050
:10608000EB8603004D880300ADB90200EB860300E8
:10609000E9880300EB86030093770200EB86030098
:1060A000EB860300EB860300EB860300EB86030020
:1060B000EB860300EB8603000000000000000000F8
:1060C000EB860300EB860300EB860300EB86030000
:1060D000EB860300EB860300EB860300EB860300F0
:1060E000EB860300EB860300EB8603000000000054
:1060F00000000000EB86030000000000EB860300B8
:10610000000000000000000000000000000000008F
:10611000000000000000000000000000000000007F
:10612000000000000000000000000000000000006F
:10613000000000000000000000000000000000005F
:10614000000000000000000000000000000000004F
:10615000000000000000000000000000000000003F
:10616000000000000000000000000000000000002F
:10617000000000000000000000000000000000001F
:10618000000000000000000000000000000000000F
:1061900000000000000000000000000000000000FF
:1061A00000000000000000000000000000000000EF
:1061B00000000000000000000000000000000000DF
:1061C00000000000000000000000000000000000CF
:1061D00000000000000000000000000000000000BF
:1061E00000000000000000000000000000000000AF
:1061F000000000000000000000000000000000009F
:1062000010B5054C237833B9044B13B10448AFF3F0
:1062100000800123237010BD202F0020000000000B
:1062200080B903000C4B43B10C480D4910B5AFF3D6
:1062300000800C48036823B910BD0A48036833B9CD
:106240007047094B002BF7D0BDE810401847064BAC
:10625000002BF5D0184700BF0000000080B90300F4
:10626000242F0020182F002000000000154B002BC9
:1062700008BF134B9D46A3F5803A00218B460F467D
:106280001348144A121A14F00FF90F4B002B00D0C8
:1062900098470E4B002B00D09847002000210400A7
:1062A0000D000D48002802D00C48AFF3008014F018
:1062B000ADF82000290000F07FFD14F093F800BF36
:1062C0000000080000FD03200000000000000000A6
:1062D000202F0020EC6500200000000000000000DE
:1062E00041DF704730B52E4B144652681B6887B0AB
:1062F0000D46002A2CD05A041FD52A4B1B68032BAD
:106300001BDD2F21284814F0A3F9C0B12F21264806
:1063100014F09EF9411C254B6268D3F804350492B1
:1063200062780392227802926A880192204A00924F
:10633000042040F23D1206F0A7F907B030BD5C2101
:10634000194814F085F908B15C21E0E71649E2E745
:106350005B04F2D5134B1B68032BEEDD2F21124893
:1063600014F076F998B12F210F4814F071F9411CFF
:106370000E4B2278D3F8043502926A8801920D4AB6
:10638000009204204FF4A17206F07EF9D5E75C215B
:10639000054814F05DF908B15C21E5E70249E7E73B
:1063A0002C2E0020282E0020A0A8030000B00040C2
:1063B000C6A8030018A90300012A07B533D00AD3E1
:1063C000022A59D03E4A4FF49871032003B05DF879
:1063D00004EB12F075BC3B4B1B68590417D53A4BC4
:1063E0001B68032B13DD2F21354814F031F988B1D8
:1063F0002F21334814F02CF9411C344B344AD3F884
:106400000435009240F22312042006F03DF903B057
:106410005DF804FB5C212A4814F01AF908B15C21EC
:10642000E7E72749E9E7062232214FF4F03001F08F
:1064300085FB244B1B685A04E9D5234B1B68032BAF
:10644000E5DD2F211E4814F003F960B12F211C480F
:1064500014F0FEF8411C1D4B1E4AD3F8043500927F
:106460004FF49472D0E75C21154814F0F1F808B1AC
:106470005C21ECE71249EEE7124B1B685B04C6D5C2
:10648000114B1B68032BC2DD2F210D4814F0E0F8DF
:1064900060B12F210A4814F0DBF8411C0B4B0E4A67
:1064A000D3F8043500924FF49672ADE75C210448AE
:1064B00014F0CEF808B15C21ECE70149EEE700BF2B
:1064C000A0A803002C2E0020282E002000B00040A1
:1064D0003EA803005EA803007EA803001FB52E4C53
:1064E0002268520418D52D4B1B68032B14DD2F2175
:1064F0002B4814F0ADF800283CD02F21284814F088
:10650000A7F8411C274B284AD3F8043500920420F1
:1065100040F29F1206F0B8F803A80FF0BFF9236805
:106520005B041AD51D4B1B68032B16DD2F211C485D
:1065300014F08EF838B32F21194814F089F8411C53
:10654000184BBDF80C20D3F804350192174A00927D
:10655000042040F2A31206F097F800214FF4F03027
:1065600001F0E3FA0422C8214FF4F03001F0E6FA1A
:1065700004B010BD5C210A4814F06AF808B15C212F
:10658000BCE70749BEE75C21054814F061F808B193
:106590005C21D1E70249D3E72C2E0020282E0020D1
:1065A000A0A8030000B000403BAA030055AA0300C6
:1065B00007B538223749012000F0DEFF364B1B6853
:1065C00020BB590416D5354B1B68032B12DD2F2138
:1065D000334814F03DF880B12F21314814F038F8D9
:1065E000411C304B304AD3F80435009283220420FA
:1065F00006F04AF803B05DF804FB5C21284814F06B
:1066000027F808B15C21E8E72549EAE706281FD109
:106610005A04EFD5214B1B68032BEBDD2F212048BB
:1066200014F016F858B12F211D4814F011F8411C30
:106630001C4B1E4AD3F8043500928722D7E75C2111
:10664000174814F005F808B15C21EDE71449EFE7AD
:106650005B04CFD5114B1B68002BCBDD2F211048DD
:1066600013F0F6FF60B12F210D4813F0F1FF411C2C
:106670000C4B0F4AD3F80435009201208B22B7E768
:106680005C21074813F0E4FF08B15C21ECE7044902
:10669000EEE700BF5C2F00202C2E0020282E0020CB
:1066A000A0A8030000B00040DCA6030000A7030080
:1066B0002EA7030007B5184B1B685B0417D5174BB3
:1066C0001B68032B13DD2F21154813F0C1FFC8B140
:1066D0002F21134813F0BCFF411C124B124AD3F870
:1066E0000435009204204FF4A47205F0CDFF03227C
:1066F000C8214FF4F03001F021FA03B05DF804EB4B
:1067000001F014B85C21064813F0A2FF08B15C2127
:10671000DFE70349E1E700BF2C2E0020282E0020F0
:10672000A0A8030000B0004022AA030013B51E4B2E
:106730001B685B04044618D51C4B1B68032B14DD37
:106740002F211B4813F084FFA8B12F21184813F004
:106750007FFF411C174B184AD3F80435009201946F
:106760004FF4AC72042005F08FFF012C0CD0032CE9
:106770000FD002B010BD5C210D4813F069FF08B1C5
:106780005C21E3E70A49E5E702B0BDE81040FFF706
:106790000FBF00F083FF3821084800F037FF02B038
:1067A000BDE81040FFF786BF2C2E0020282E0020C9
:1067B000A0A8030000B0004097A903005C2F0020B0
:1067C0003038032801D8FFF7B1BF704703781C2B7E
:1067D00001D1FFF76FBF704700F040BC37B5274BC2
:1067E0001B685B0418D5264B1B68032B14DD2F2177
:1067F000244813F02DFF002835D02F21214813F015
:1068000027FF411C204B214AD3F804350092042075
:1068100040F28F1205F038FF1D4C1E4D25630023FA
:1068200001212046A36284F82C3084F82D3009F031
:10683000A3FC20B1134A40F2991112F041FA00234F
:10684000022115486566E36584F8603084F861309C
:1068500009F092FC80B10B4A40F2991103B0BDE8F7
:10686000304012F02DBA5C21064813F0F1FE08B159
:106870005C21C3E70349C5E703B030BD2C2E0020DF
:10688000282E0020A0A8030000B0004002AA0300A8
:10689000942F0020ACA90300C82F002007B5144B8B
:1068A0001B685B0417D5134B1B68012B13DD2F21CD
:1068B000114813F0CDFE88B12F210F4813F0C8FE08
:1068C000411C0E4B0E4AD3F804350092022040F2D0
:1068D000151205F0D9FE03B05DF804FB5C210648F3
:1068E00013F0B6FE08B15C21E7E70349E9E700BF12
:1068F0002C2E0020282E0020A0A8030000B000406D
:106900001FA803002DE9F0430378012B8BB0054647
:1069100040F0FF809E4F3B68580422D59D4B1B687A
:10692000032B1EDD2F219C4813F092FE002800F05F
:10693000B3802F21984813F08BFE411C974B2A7B84
:10694000D3F8043505926A7A04922A7A0392EA7A95
:106950000292AA7A0192924A00920420F22205F051
:1069600093FEDFF85C82DFF86092002498F8003034
:10697000E6B2B34209D93301062259F80310686818
:1069800013F078FD01340028F0D104F053FB854A60
:1069900013788DF81D30591C322309936423089312
:1069A0002B7B1170012B044640F0EF80AB7A002B5B
:1069B0007BD07D4B31015A58801A48BF101B7B4A4F
:1069C000904272D95C5001210D208DF81C1001F00D
:1069D000A1F808AA07A9764809F0FEFBE8B93B68C8
:1069E00059041AD56B4B1B68032B16DD2F216A48FF
:1069F00013F02EFE002869D02F21674813F028FEDF
:106A0000411C664B9DF81C20D3F804350192694A5D
:106A100000920420C92205F037FE2B7A002B5ED0AD
:106A2000614B31015A189268A01A48BF101B5F4A87
:106A3000904254D90B4401219C600E208DF81C100B
:106A400001F068F8022308AA07A95B4809F016FCC0
:106A5000002840F09A803B685A0440F196804D4BE4
:106A60001B68032B40F391802F214B4813F0F0FD5E
:106A7000002845D02F21484813F0EAFD411C474B20
:106A80009DF81C20D3F8043501924C4A0092042052
:106A9000DF2205F0F9FD78E05C213F4813F0D8FDD6
:106AA00008B15C2146E73C4948E7EB7A002BB4D0BB
:106AB0003D4B31015A185268A01A48BF101B3B4A7F
:106AC0009042AAD90B4400215C607DE75C213248EA
:106AD00013F0BEFD08B15C218FE72F4991E76B7A77
:106AE000002B52D0304B36019A19D268A11A48BFF8
:106AF000111B2E4A914248D91E440021F4609CE7A4
:106B00005C21254813F0A4FD08B15C21B3E72249BC
:106B1000B5E7002B39D12A4E3078012856D8294CB8
:106B2000AA681C2707FB0043C0EBC0009A61696894
:106B3000062204EB800013F0ACFC3078E96807FB18
:106B400000401022063013F0A4FCFFF731FD32782C
:106B50001D4910B2C0EBC00312019B008F1803F156
:106B6000180525447D60E51806331C448D5001EB63
:106B70000010BC6000F06CFB337804220133C821A4
:106B80004FF4F030337000F0D9FF0BB0BDE8F08364
:106B90002C2E0020282E0020A0A8030000B00040CA
:106BA00067A70300213000200030002020A107004B
:106BB000942F002097A70300C82F0020BDA7030033
:106BC000FD2F00205C2F00203C2F0020124B1B6863
:106BD0005B04DAD5114B1B68002BD6DD2F21104842
:106BE00013F036FD78B12F210D4813F031FD411C13
:106BF0000C4B0222D3F8043501920B4A009201207B
:106C000040F20D1245E75C21054813F021FD08B163
:106C10005C21E9E70249EBE72C2E0020282E00201A
:106C2000A0A8030000B00040E3A703002DE9F74F40
:106C300003780D2B40F08680534E3368590418D5E5
:106C4000524B1B68042B14DD2F21514813F000FD1B
:106C500000287AD02F214E4813F0FAFC411C4D4BEE
:106C60004D4AD3F80435009205204FF4BE7205F06A
:106C70000BFD4A4B1A789846002A63D133685A04B0
:106C800018D5424B1B68032B14DD2F21404813F00D
:106C9000DFFC002862D02F213D4813F0D9FC411CB5
:106CA0003C4B3F4AD3F804350092042040F2DD12F9
:106CB00005F0EAFC38223B49DFF8F890012000F0AB
:106CC00041FC00285CD1384DDFF8D8A0DFF8BCB01B
:106CD0002F4F04460AEB04032B60A31D5344AB6003
:106CE00004F1180353446B6099F8003028460133CF
:106CF00089F8003000F0ACFA33685B0417D5DBF894
:106D00000030032B13DD2F21384613F0A1FC70B3A4
:106D10002F21384613F09CFC411C1E4B234AD3F80C
:106D200004350092042040F2E91205F0ADFC1C3459
:106D3000382C05F11005CDD11D4803F0E1FE0123EB
:106D400088F8003003B0BDE8F08F5C21104813F0E4
:106D50007FFC08B15C217EE70D4980E75C210C488F
:106D600013F076FC08B15C2196E7094998E75C21AD
:106D7000384613F06DFC08B15C21CAE73946CCE710
:106D8000002389F80030D7E72C2E0020282E002081
:106D9000A0A8030000B0004041A90300203000205B
:106DA0005AA903005C2F00203C2F002071A903008A
:106DB000D9670200FD2F002080B594B0934A04AF3C
:106DC00004214FF4C04005F045FC914B1A6812F4C1
:106DD000804F984619D08F4B1B68032B15DD2F2150
:106DE0008D4813F035FC002800F0FE802F218A48E2
:106DF00013F02EFC411C894B894AD3F804350092CC
:106E000004204FF4E57205F03FFC11F0BFFE20B105
:106E1000814A4FF4E67111F053FF00F0BDFE814846
:106E200000F0E6FE20B17C4A4FF4E87111F048FF13
:106E300001233B71002407237C71BC71FB717868CE
:106E400000F0B4FC20B1744A4FF4EA7111F038FF3D
:106E500059233C727B7207F10C04CC23BB720422D1
:106E6000AA2307F108012046FB7200F019FF20B1A8
:106E7000694A40F2B71111F023FF07F11C06002107
:106E80002422304613F010FB01233B770723FB77C6
:106E900087F82430644BFB626449654BBC62304622
:106EA000FB6300F011FC20B15B4A4FF4E07111F07C
:106EB00007FF604803F01CFE00F0B6FA5E4800F0E1
:106EC000D7F9EFF3108E72B65C4CA168012581B939
:106ED0005B4BA560D3F880205A4802402260C3F87B
:106EE0008000D3F8842062604FF0FF32C3F8842022
:106EF0000D46BEF1000F00D162B66421524800F089
:106F0000B3FD00F093FB20B1434A40F2F91111F0B8
:106F1000D7FE464B1B786BB94C4B93E8070086E8CD
:106F20000700304600F056FD20B13B4A4FF4017196
:106F300011F0C6FE00F0FEFFD8F800305B0437D534
:106F4000344B1B68032B33DD414BE8468AB019688C
:106F500004AE0023C25C4FEA121E02F00F0211F8C9
:106F60000EE006F813E011F802E006EB43020133ED
:106F7000102B82F801E0EDD1002386F820302F217C
:106F8000254813F065FB002837D02F21224813F045
:106F90005FFB411C214B2F4AD3F8043501922E4A46
:106FA000009202964FF40272042005F06DFBC54674
:106FB00000214FF4F03000F0B8FD0222C8214FF458
:106FC000F03000F0BBFDA3685BB155B9EFF310835F
:106FD00072B61B4A2168116061685160A56003B9EF
:106FE00062B6FFF77DF9FCE75C210B4813F030FB3C
:106FF00008B15C21FBE60849FDE65C21064813F078
:1070000027FB08B15C21C1E70349C3E729C6020099
:107010002C2E0020282E0020A0A8030000B0004045
:10702000B8A903002D670200CD670200FC2F0020E5
:10703000DD670200A02D00200569020064650020C4
:1070400000E100E0FC06FFBDC1670200D0A603001E
:10705000302E0020EDA90300FAA903002DE9F04F1E
:1070600044686378FF2B99B040F0B4802378102BEC
:1070700000F2A280628840F2DA339A4240F0CE8079
:10708000457863680293A5F104098368DFF8BCB111
:107090005FFA89F903F10F0804EB09030393012355
:1070A0008DF82430634BCDF828800D3D1E68EDB27D
:1070B000002E00F0B380B9F10D0F7BD8062256F8F0
:1070C0000C1C404613F0D6F90746002872D10DF18A
:1070D000140A06224146504613F0DBF90422A11897
:1070E0000DF11A0013F0D5F9032239460DF11E00F7
:1070F00013F0DAF956F8043C0F93039B16930DF145
:10710000130104230FA88DF85C30CDF840A011972F
:10711000ADF848701394ADF85090159704F0A1FCA9
:107120009DF81330002B45D056F8083C02991A6898
:107130008A423FD21960DBF8003094F808A05B0463
:107140000AF01F0718D53C4B1B68032B14DD2F21B9
:107150003A4813F07DFA002863D02F21374813F006
:1071600077FA411C364B374AD3F804350092042095
:1071700040F22B1205F088FAC7F340038DF82E3049
:10718000C7F380038DF82F30C7F3C0038DF82C3080
:107190003F090AF0010A04F10903042D8DF82D704E
:1071A0008DF830A00D938DF8385037D8264B09A8AC
:1071B0001B68984736687BE71D2B2FD1628840F209
:1071C000DA339A422AD1676804F118060834194B59
:1071D0001D6818E0082B21D1237AFF2B1ED1B4F8AB
:1071E000092040F2DA339A4218D18668D4F80B703D
:1071F0000F360F34EBE70622314655F80C0C13F02E
:1072000039F958B12D68002DF5D10F4B8DF8245068
:107210000A960B970C941B6809A8984719B0BDE80B
:10722000F08F5C21054813F013FA08B15C2195E753
:10723000024997E728300020282E00207CAA03006E
:1072400000B00040A5AA0300243000202C2E00200E
:1072500010B5044610B9784600F03EFE04F10C016A
:107260000248BDE8104005F075B900BF2830002085
:1072700010B5044610B9784600F02EFE014B1C6094
:1072800010BD00BF24300020024A4821032011F025
:1072900017BD00BFF9AA030013B5154B1B685B04AB
:1072A000044616D5134B1B68032B12DD2F21124801
:1072B00013F0CEF990B12F210F4813F0C9F9411CFA
:1072C0000E4B0F4AD3F80435009204204D2205F0EE
:1072D000DBF9234602B0BDE8104018475C210648A0
:1072E00013F0B6F908B15C21E6E70349E8E700BF0F
:1072F0002C2E0020282E0020F9AA030000B0004008
:1073000027AB030013B51D4B1B685B04144616D551
:107310001B4B1B68032B12DD2F211A4813F098F921
:10732000A8B12F21174813F093F9411C164B174AA7
:10733000D3F8043500920420382205F0A5F9012C79
:107340000ED1784602B0BDE8104000F0C5BD5C210A
:107350000C4813F07DF908B15C21E3E70949E5E742
:10736000022CEED0032C07D1064A4121042002B0A2
:10737000BDE8104011F0A4BC02B010BD2C2E0020BE
:10738000282E0020F9AA030000B0004062AB0300E1
:1073900008B505F047FE00B108BD04F093FA0028D7
:1073A000F7D020BFF5E7000007B5184B1B685B045A
:1073B00016D5174B1B68032B12DD2F21154813F030
:1073C00047F9B8B12F21134813F042F9411C124B71
:1073D000124AD3F80435009204205E2205F054F9D5
:1073E0000F4805F041FC70B10E4803B05DF804EBA6
:1073F00005F000BE5C21074813F02AF908B15C21B2
:10740000E1E70449E3E703B05DF804FB2C2E00201C
:10741000282E0020F9AA030000B0004053AB03005F
:107420002C300020BC2D002000B58BB003A902A891
:1074300000F08CF918B1204A702111F041FC1F4B6B
:1074400007931F4B08931F4B099304230693029B3A
:107450001D48A3F58053049304A90123059305F067
:10746000CEFCE8B1194805F0C5FD194B1B685B045B
:1074700016D5184B1B68002B12DD2F210E4813F078
:10748000E7F880B12F210C4813F0E2F8411C124BB1
:10749000124AD3F80435009201207E2205F0F4F858
:1074A0000BB05DF804FB5C21034813F0D1F808B180
:1074B0005C21E8E70049EAE7F9AA03000573020046
:1074C00089720200E17402002C300020AC2D0020F3
:1074D0002C2E0020282E002000B00040CFAA030050
:1074E00007B5134B1B685B0416D5124B1B68032BA7
:1074F00012DD2F21104813F0ABF880B12F210E4878
:1075000013F0A6F8411C0D4B0D4AD3F80435009238
:107510000420542205F0B8F803B05DF804FB5C21A8
:10752000054813F095F808B15C21E8E70249EAE75D
:107530002C2E0020282E0020F9AA030000B00040C5
:107540003CAB030070B5064615460C46FFF720FF1E
:107550003146084805F09AFB2A46014620B92046E4
:1075600012F0A2FF052070BD0431204612F091FFF9
:10757000002070BD2C30002073B5044615460E4621
:10758000FFF706FF21462A461A4805F0CDFB1A4BA5
:107590001B685B04044616D5184B1B68032B12DDD1
:1075A0002F21174813F054F8C8B12F21144813F0B5
:1075B0004FF8411C134B144AD3F8043500920420B1
:1075C000952205F061F89CB12A463146201D12F043
:1075D00060FF204605F0D6FB002002B070BD5C21A4
:1075E000074813F035F808B15C21DFE70449E1E70B
:1075F0001120F2E72C3000202C2E0020282E002015
:10760000F9AA030000B00040C1AA030008B50A4669
:10761000002112F049FFBDE80840FFF7C5BE03781E
:107620000D2B02D1002003F0C1BA704703F0C6B998
:1076300030B5837DC27D85B043EA02230446ADF8B0
:107640000C3003A803230D46ADF80E300EF0EAF817
:1076500010BB02AA2146208A0EF0D8FAE0B90DF13B
:107660000A032A46BDF80810E08A0EF087FC98B994
:10767000217ED4F8120001F0010102F049FE10B1A0
:10768000784600F029FCBDF80A000BF0C7F818B9DD
:1076900001900BF081FD019805B030BD08B50CF0EC
:1076A00007FA0EF047F8BDE8084002F0B9BB07B58D
:1076B00001A80EF0F3F8BDF80400003018BF012057
:1076C00003B05DF804FB000073B50E46054640B3F9
:1076D00003F00CF9044608BB0EF086F80CF098FE97
:1076E00028690BF06BF80446C0B92B7F0193AB6996
:1076F000009301466B690C4859220BF0A3FA04462B
:1077000060B92B6A03B1984706F0FCFD0DF034FF19
:107710000CF024F8FFF7CBFF06B13070204602B022
:1077200070BD0E24FAE700BF5030002008B505F008
:1077300079FC20B10020BDE8084003F037BA0248C8
:10774000BDE8084003F0D4B9CC2D002037B50D4674
:107750000446A0B199B1684607F094F8009B53B174
:10776000236005F097FC2368C01A00F5805028605C
:10777000002003B030BD0CF01AFE2060F1E70E20AF
:10778000F7E74BDF704710DF704760DF704769DF56
:10779000704707B501A8FFF7F4FF10B103B05DF81B
:1077A00004FB019803F0A6F9F4E7000030B55F4D43
:1077B0002B688BB05904039016D55D4B1B68032BC7
:1077C00012DD2F215B4812F043FF18B32F215948D7
:1077D00012F03EFF411C584B584AD3F80435009232
:1077E0000420752204F050FF554903A8FFF7CBFF92
:1077F000044600287CD1534AE02382F8163392F8DD
:1078000016335B09012B02D9042B40F0868042F22B
:1078100002046DE05C21474812F01AFF08B15C21B8
:10782000D5E74449D7E71A6842F480021A602B680A
:107830005B0417D53E4B1B68032B13DD2F213D48FE
:1078400012F006FF002856D02F213A4812F000FF10
:10785000411C394B3C4AD3F80435009204204B229A
:1078600004F012FF394B0593059B06930C2200216F
:1078700007A812F019FE0023069A8DF81C3007A9FC
:107880000120FFF784FF0446002831D101460C2275
:1078900007A812F009FEF823069A079307A9A1206A
:1078A000FFF775FF044618BB06A8FFF76EFF059BA0
:1078B000069A9A4204461BD02B685A0418D51C4BD2
:1078C0001B68012B14DD2F211A4812F0C1FED8B11C
:1078D0002F21184812F0BCFE411C174B069AD3F812
:1078E000043501921A4A009202206D2204F0CCFE67
:1078F00020460BB030BD5C210E4812F0A9FE08B145
:107900005C21A2E70B49A4E75C210A4812F0A0FE23
:1079100008B15C21DDE70749DFE70E4B99680029D4
:1079200081D14FF48003136081E700BF2C2E00202B
:10793000282E002078AB030000B00040A6AB030067
:10794000D57C020000E100E0C2AB0300A02D0020C6
:10795000D3AB030064650020034904484968012350
:1079600000220FF0B0BA00BFB0300020A4320020D7
:1079700010B50378072B10D00A2B19D0022B21D178
:10798000114B1B781BB9BDE81040FFF7E5BF0F4B4B
:107990001B68BBB1BDE8104018470C4B0C489968F8
:1079A00010220FF0D4FA68B1BDE8104010F09EBE6E
:1079B0008168C068FFF73CFE08B110F097FE024BEB
:1079C00001221A7010BD00BFAC300020B030002082
:1079D000A432002010B5164A04465168106886B0DB
:1079E00003AB03C31189927A19809A7094E8070057
:1079F000104B83E80700CAB10F4910480FF04AFA4C
:107A000090B90F4B00930C4A0C490E4803AB0FF092
:107A100013FA48B90C4810F045F9014609480FF02F
:107A200025FA08B9FFF798FF06B010BD0720FBE75D
:107A30000CAC0300B0300020BC300020D833002054
:107A400071790200A4320020DC30002010B5054C12
:107A5000226832B111F066FA002802DB23689847E9
:107A6000F8E710BD18340020154B164A10B50C4627
:107A700018600121144811F0BBF818B1134A4621CF
:107A800011F01EF9610C0023E00341F26F728B428A
:107A900008BF824210D24FF47A72002312F01AFB10
:107AA000014600220A4811F0B5F838B1074A4721CB
:107AB000BDE8104011F004B90521F2E710BD00BF88
:107AC000183400204D7A020018AC03001CAC0300EF
:107AD0001C34002010B50C4C206808B910F006FECC
:107AE0004FF0A0420949D2F8043509684B40C2F86A
:107AF00004352368013B236023B90548BDE81040E5
:107B000011F0CEB810BD00BF3C340020403400203E
:107B10004434002001234FF0A042834011B1C2F849
:107B20000C357047C2F8083570474FF0A04311B1CB
:107B3000C3F80C057047C3F808057047D0B522B3E9
:107B4000132922D9114C124B206052004FF40040EF
:107B50004FF4FA760027013AE0FB01671A603046DD
:107B60004FF47A720023394612F0B4FA002201462B
:107B7000084811F04FF840B94FF0A0422168D2F800
:107B8000043523EA0103C2F80435D0BD4034002097
:107B90003C3400204434002008B54FF0A0430322B9
:107BA0004FF40051C3F83427C3F808154FF480414F
:107BB000C3F83827C3F808154FF40041C3F83C2731
:107BC000C3F80815C3F840274FF48032C3F80825DE
:107BD0000121054A054811F00BF818B1BDE808402D
:107BE00010F084BD08BD00BFD57A020040AC030090
:107BF000D8B10F4B0F4A18604FF0A0430020C3F8D4
:107C00002C27C3F83027C3F86027C3F864270A4B32
:107C10004FF00042C3F80423C3F87C01074BE02275
:107C200083F8062340221A6070470E20704700BF79
:107C3000643400200C0003000060004000E100E01C
:107C4000124B70B50024124E124DC3F87C414FF018
:107C5000A043A15DD3F8102501238B40934311D09D
:107C60000D492B68D1F80425981A48BFD01A43F261
:107C70003333984206D9D1F804352B60074B2046A0
:107C80001B6898470134042CE1D170BD00600040AE
:107C900044AC03006834002000B00040643400208D
:107CA000082A38B5054614460ED812F0F2FBC4F186
:107CB00008020021281912F0F7FB08220349A8182E
:107CC00012F0E7FB002038BD092038BD600000102D
:107CD0000620704730B541F20103984287B00D4647
:107CE0001446734B00F081801FD8012847D01B68D1
:107CF0005B0460D56F4B1B68002B5CDD2F216E4849
:107D000012F0A6FC002800F0C7802F216A4812F06C
:107D10009FFC411C694B6A4AD3F8043500920195D7
:107D20006D22012004F0B0FC45E044F201029042D3
:107D300000F0878044F202029042D8D11B685904B7
:107D400039D55C4B1B68002B35DD2F215A4812F0CA
:107D50007FFC00286CD02F21574812F079FC411C81
:107D6000564B2288D3F80435039262680292554A32
:107D7000009201955F22012004F086FC1BE01B6845
:107D80005B0418D54B4B1B68002B14DD2F214A4890
:107D900012F05EFC00B32F21474812F059FC411C41
:107DA000464B494AD3F80435009202940195542277
:107DB000012004F069FC4FF0A0434FF4F032C3F807
:107DC0001825C3F80C25EFF3108372B63F4A1378D9
:107DD000002B6AD107B030BD5C21374812F038FC67
:107DE00008B15C21D8E73449DAE71B685804E2D5CA
:107DF000304B1B68002BDEDD2F212F4812F028FCB2
:107E000068B12F212C4812F023FC411C2B4B304A27
:107E1000D3F804350092029401955722C8E75C21FB
:107E2000254812F015FC08B15C21EBE72249EDE78B
:107E30005C21214812F00CFC08B15C218CE71E4942
:107E40008EE71B685A04B6D51A4B1B68002BB2DDAF
:107E50002F21194812F0FCFBA8B12F21164812F06F
:107E6000F7FB411C154B2268D3F804350492626875
:107E700003920295A2680192164A0092012069229B
:107E800004F002FC97E75C210B4812F0E1FB08B11B
:107E90005C21E3E70849E5E75C21074812F0D8FBDD
:107EA00008B15C2132E7044934E730BF8FE700BFF7
:107EB0002C2E0020282E002048AC030000B00040EB
:107EC000ECAC0300ACAC030070AC0300D82D002078
:107ED0008AAC0300CBAC030007B50023ADF800303B
:107EE0000146054B01936A4644F20200FFF7F2FE99
:107EF00003B05DF804FB00BF66A703000146102233
:107F0000014812F0C6BA00BF6C34002010B5064C10
:107F100006490822204612F0BCFA0822A01804499B
:107F2000BDE8104012F0B5BA6C34002060000010BB
:107F3000A4000010004870476C340020002306495C
:107F40001A46C818428042605A540833B3F5807FFD
:107F5000F7D1024B1A6070477C3400207C3500203A
:107F6000F0B50C4B0C4C1B68064620227BB1013B44
:107F700014F8330050B104EBC3056F88B74202D147
:107F80006D688D4202D0013AF0D11046F0BD1F233A
:107F9000EEE700BF7C3500207C34002030B5084A75
:107FA000084C136804EBC3056960012104F8331021
:107FB0000B44202B08BF00236880136030BD00BF36
:107FC0007C3500207C340020C0F30C038B42084435
:107FD00038BFA0F50050C01A70470000F0B50E4B36
:107FE0000E4C1F680022BA4213D0D10063185E689D
:107FF00000230AE0655805EBC30E15F8335085429F
:1080000002D1DEF80400F0BD0133B342F2D10132F7
:10801000E9E70020F0BD00BF803500208435002056
:1080200000B58DB040B99A1C06D0012201A88DF888
:108030000420029301F0FCF8034B186803F0DEFB08
:108040000DB05DF804FB00BF9035002010B503783B
:10805000044613B97846FFF73FFFE079431C01203F
:108060009840013810BD0000F8B5037804460F466B
:1080700013B97846FFF730FF0B4B0C4E1A68511CB2
:1080800002F0070206EBC2051960A38A6B80A18883
:10809000A069FFF799FF6860E36906F8327003F0A2
:1080A00001036B70F8BD00BFD83500209835002063
:1080B0002DE9F0410E468EB015461C46074610B914
:1080C0007846FFF709FF16B97846FFF705FF14B9A0
:1080D0007846FFF701FF636A627802330593A3785D
:1080E000A2F10800002B14BF012102210DF10408A8
:1080F00042424241434604F10C0003F0B4FC637871
:108100008DF83430237BADF82050022B16FA85F51C
:10811000CDF8188007970B960C950FD1236913B9EA
:108120007846FFF7D9FE23690993102305A8ADF817
:10813000283003F094FC0EB0BDE8F0810023F5E791
:1081400010B50E4B04461B68806E984704F12C0056
:1081500002F0EAFE94F84430022B03D104F14C0003
:1081600002F0E2FE20466C22002112F09DF9002070
:1081700084F84400BDE8104002F07AB8943500203D
:1081800010B590F84430012B8CB0044602D07846EC
:10819000FFF7A2FE01238DF8043001A8236D02939E
:1081A00001F046F82046FFF7CBFF0CB010BD0000F1
:1081B000F8B51F46531E012B04460D46164602D93C
:1081C0007846FFF789FEA36E13B17846FFF784FE69
:1081D0001C4B38461B689847A06638B32C222946AA
:1081E000204612F056F90022A264A4F84670A9882D
:1081F000A869FFF7E9FE012EA06118D1124B84F89F
:108200004E201B7D84F84D3084F84F2084F84C209C
:10821000AB6A23656FF00103A3620C4B636301201B
:10822000E46302F025F884F844600120F8BD6FF0A3
:108230000103A362064B636584F86420E465054B83
:10824000ECE700BF8C350020DC350020F38602000F
:10825000AD910200118602001FB500220B468DF879
:108260000F2028B30230086018460DF10F0103F00B
:10827000F8FB9DF80F30DBB1144B1B685B0717D57B
:10828000134B1B68032B13DD2F21124812F0E0F96A
:1082900098B12F210F4812F0DBF9411C0E4B0F4A09
:1082A000D3F804350092042040F2EB2204F0ECF9FC
:1082B0009DF80F0005B05DF804FB5C21054812F045
:1082C000C7F908B15C21E5E70249E7E72C2E002059
:1082D000282E002028AD030000B0004045AD03006B
:1082E0002DE9F04799461378D2F81880F2B0074686
:1082F0008A46144623B191884046FFF765FE906197
:10830000A3786278002BA2F1080003AD14BF01210D
:10831000022104F10C06424242412B46304603F052
:10832000A2FB627808951FFA8AF5AB1A9BB20997EF
:10833000ADF828301F440023ADF83030237B8DF892
:108340003C20022B04BF1022ADF83020A2780E97FB
:1083500012AFC4F818800D9704F12408002A5ED0EB
:108360004FF0000A237BC4F824A0022B04BF23692A
:108370000B93206AE17842460EF064F8606A40BBD5
:10838000237B022B05D13146E0890EF01DF9002830
:10839000E8D1354B1B685B0718D5344B1B68052BA0
:1083A00014DD2F21324812F053F9002852D02F212A
:1083B0002F4812F04DF9411C2E4B2F4AD3F80435AB
:1083C000009206204FF4A56204F05EF972B0BDE899
:1083D000F08707A9FFF740FF0028CAD06178A28A7A
:1083E000ADF82A206D1A01218DF8281096E80300B7
:1083F00000230B938DF81C300CAB83E80300A37DA6
:108400008DF84030236A0E9307A8636A0897ADF889
:1084100024500F93CDF8449000F00AFFD6E7012BCB
:1084200062620CD000234146A08A63620EF04EF8CF
:1084300007A9606AFFF710FF0028AAD0CEE74146DF
:10844000E0890EF043F807A9606AFFF705FF0028EE
:10845000E8D0C3E75C21064812F0FAF808B15C21C5
:10846000A6E70349A8E700BF2C2E0020282E0020F5
:1084700028AD030000B000407CAD0300C37D0A7846
:1084800030B5002B3DD0837822F07F0203F07F03CC
:108490001A430A700B78027803F07F0343EAC21391
:1084A0000B70037863B34378083B5A425A414B78C8
:1084B00003F07F0343EAC2134B708A78858802F089
:1084C0000302C5F3861442EA850223F07F032343A7
:1084D000D2B28A704B70CB78857903F01F03C5F355
:1084E000C10422F0030243EA45132243DBB2CB70FE
:1084F0008A70C27923F01F0302F01F021343CB706E
:1085000030BD83789B0122F0400203F04003134307
:108510000B70C27823F03F0302F03F0213430B704D
:10852000B8E7000010B590F84430012B044602D0A3
:108530007846FFF7D1FC237B012B0A4B03BFA27DBA
:108540001969DB68DB6808BF01FB0233A36302F033
:1085500071FDA16B014404F12C00BDE8104002F054
:10856000FABC00BFDC35002070B50D4690B0044663
:1085700010B97846FFF7B0FC00212046FFF774FDE4
:108580002C22002105A8266D11F08EFF0F2305A8CF
:108590008DF8143006968DF81C5000F049FE2046E8
:1085A000FFF7CEFD154B1B685B071BD5144B1B68F3
:1085B000032B17DD2F21134812F04AF8A0B12F2109
:1085C000104812F045F8411C0F4BD3F804350295C2
:1085D00094F8442001920D4A009204204FF4D67280
:1085E00004F052F810B070BD5C21064812F030F86B
:1085F00008B15C21E4E70349E6E700BF2C2E002028
:10860000282E002028AD030000B0004005AD030077
:1086100008460021FFF7A8BF2DE9F04F90F84C5015
:1086200087B0044600274FF0010800F10C0BE279F7
:10863000954203D9384607B0BDE8F08FA16C08FA1F
:1086400005F30B4252D1E37DA571002B0CBF0C2624
:108650000826954206FB05FA237808BFB4F8466061
:10866000CDF804B008BFA6EB0A06002B14BF4FF0EC
:1086700004094FF0010906EB0903039301A8A36A5B
:10868000029303F08EFB0028D4D1059B994445B991
:1086900094F84F302BB9A36984F84F80C3F30C03CF
:1086A000A380E37D8BB994F84E3073B915B1784649
:1086B000FFF712FCB4F8461062788A1AA16E2346BE
:1086C0000846FFF7F5FC84F84E8005992046FFF731
:1086D000D5FEA16E32465144484611F0DAFE01A89B
:1086E00003F077FB6B1C013784F84C300135EDB299
:1086F0009DE710B591F84430012B0C4602D0784626
:10870000FFF7EAFB94F84D305BB9217B0129204645
:1087100003D1BDE81040FFF727BFBDE81040FFF7C9
:108720002FBD013B84F84D30002384F84C302046A7
:10873000BDE81040FFF770BF2DE9F041D47D8AB04D
:1087400006460F4615469846002C00F08E80947819
:10875000002C6BD106294AD10278437881789201A6
:1087600002F4FE5242EA9302C3781B0443EA016317
:1087700041790B43017943EA01233D49084691F8C9
:108780004460012E12D18F8AEE89B7420ED18E88B5
:1087900096420BD16C2202FB0404A56C1D43A56418
:1087A0008BBB03212046FFF7DFFE20E00134042CC1
:1087B00001F16C01E3D12F4B1B685B0717D52E4BE2
:1087C0001B68012B13DD2F212C4811F041FF88B1CC
:1087D0002F212A4811F03CFF411C294B294AD3F88C
:1087E00004350092022040F2B94203F04DFF0AB076
:1087F000BDE8F0815C21214811F02AFF08B15C211D
:10880000E7E71E49E9E72046FFF720FC854203D150
:108810002046FFF7B5FCEAE7002384F84C302046F9
:10882000FFF7FAFE2046FFF77DFEE0E72046FFF760
:10883000D5FB03460028DAD005F10C012A6A08921C
:1088400003C9AA8AADF8162006AA82E80300AA7D09
:108850008DF824202A788DF80840039604978DF827
:108860001420414602A89847C1E7FFF739FDBEE74B
:10887000F43500202C2E0020282E002028AD0300E7
:1088800000B00040A5AD03002DE9F0438BB00546D4
:1088900004AF808A8846164601F03CFF012840F06C
:1088A000CE802B7B002B00F0CA80022B03D12B69DA
:1088B000002B00F0C48095F91630002BC0F2C18067
:1088C0006B782978EA7D3344002900F08D80002AF6
:1088D00014BF4FF480724FF4C072934200F2B38021
:1088E000EFF3108472B6594800224FF06C0E0EFB65
:1088F000020191F844C0BCF1000F4DD1002C50D0C2
:108900000C46012229462046FFF752FC00284CD095
:1089100032464146A06E11F0BCFD4D4B1B685B0713
:1089200032D54C4B1B68032B2EDDB4F846004300B8
:10893000083323F007036D46ADEB030D464B04AE41
:10894000D3F800E032460023984202F1020232D806
:10895000002306F810302F21404811F079FE00283E
:1089600039D02F213D4811F073FE411C3C4B3D4A4C
:10897000D3F8043501923C4A0092029640F2F73255
:10898000042003F081FEAD462046FFF745FE204659
:10899000FFF7C8FD002409E00132042AA7D10CB179
:1089A00003E00C4662B6002CABD1042420461C37F1
:1089B000BD46BDE8F083A16EC95C4FEA111C01F011
:1089C0000F011EF80CC002F802CC1EF8011002F8CC
:1089D000011C0133B8E75C21204811F039FE08B1D1
:1089E0005C21BFE71D49C1E7002A14BF0B220F22FB
:1089F000934228D80133FB6005F10C037B60381DDE
:108A0000AB6ABB6003F0CDF904460028CED179698A
:108A1000284601F10109FFF731FDEB7D43B13246F4
:108A20004146484611F035FD381D03F0D2F9BDE747
:108A30002B46324649464046FFF73AFBF4E71024FE
:108A4000B4E70724B2E70924B0E700BFF4350020FB
:108A50002C2E0020282E0020302E002028AD0300D0
:108A600000B00040D3AD0300FAA90300EFF3108378
:108A700072B6044A04491160044A0549116003B9F9
:108A800062B670478C35002055A403009435002051
:108A900065A4030010B5FFF7E9FF4FF4D872002179
:108AA000144811F001FD002404F088FC124B134817
:108AB0001C602146402211F0F7FC114B1148124A6C
:108AC00012499C7583E805004CF250329A601A6195
:108AD00004221A750E48D96008225A7502F070FEF9
:108AE0000C4B18600C4B0D481C60BDE8104004F0A6
:108AF00071BD00BFF4350020D83500209835002026
:108B0000DC35002080969800F049020020A1070083
:108B1000058D020090350020803500202180020064
:108B200070B504468CB000284DD00569002D4AD0A0
:108B3000C369002B47D08669002E44D05A788DF83F
:108B400007201A780A93037BC17A022B04BF204BBB
:108B50009B7D002B82F0010214BF082304238DF8B3
:108B600006208DF80530828AC3F10F0019B98242C0
:108B700001DC082B29D08242C8BF01218DF80410E6
:108B800051B113440B330C2193FBF1F3013B8DF8EE
:108B90000B3000238DF80A3094E8030000238DF891
:108BA0001B3004AB83E803002389ADF81830A37AA7
:108BB0008DF81A302946236A099601A80B93FFF70E
:108BC00063FE0CB070BD0E20FBE70720F9E700BF85
:108BD000DC350020F0B503468DB00F4600283AD0B2
:108BE0004468002C37D08569002D34D0027C12F007
:108BF000FD0F32D00278110631D48DF8062082683C
:108C00000B2A98BF007B4FF0000188BF01200A911A
:108C10008DF804008DF8051030B1D01DC008013862
:108C20008DF80B008DF80A1001218DF81B1003F14F
:108C3000100103C904AE86E80300D989ADF8181005
:108C40001B7F0995214601A88DF81A300B97FFF775
:108C50001BFE0DB0F0BD0E20FBE71020F9E707204A
:108C6000F7E7000070B5067B012E8AB004460D467A
:108C700043D106220021684611F016FCA1889DF818
:108C800000208DF80550C1F3861322F07F021A43AD
:108C90009DF801308DF8002003F0030343EA8103BF
:108CA0008DF801302B0E8DF802302B0C8DF803302F
:108CB0002B0A8DF8043006230493A38AADF81A30EA
:108CC000002307938DF808308DF81430E389ADF850
:108CD0001630A37D226A8DF81860CDF80CD008926A
:108CE00043B96FF0010102A88DF82430FFF772FF3D
:108CF0000AB070BD024B5B7DF3E70020F8E700BFD0
:108D0000DC35002070B51B4E0024351995F8443031
:108D1000012B06D12846FFF77FFC10B12846FFF74C
:108D200001FC6C34B4F5D87FEFD1124C04F5D87542
:108D300094F84430022B17D194F86430022B13D1ED
:108D4000A16C2046FFF78EFF70B984F864002046BE
:108D5000A66CFFF77BF9864206D120460121FFF77A
:108D600083F92046FFF7ECF96C34AC42E0D10120E6
:108D700070BD00BFF43500202DE9F0470D469AB0D4
:108D8000144698460646002800F0FA81002A00F0B2
:108D9000F7810DF1080900210822484611F084FBF3
:108DA000494660880DF010FC20B9002738461AB0FB
:108DB000BDE8F0872269E168208902F0010204F031
:108DC000CDFA82460028F0D12269E168208902F0BC
:108DD000010204F097FA0746A8B12C2251460FA8C9
:108DE0002589247C11F060FB0E238DF83C309DF822
:108DF0004230ADF8405064F300030FA88DF84230C4
:108E000000F016FAD2E70DF11C0A1822214650464E
:108E100011F03FFB337803F08002111C18BF0121D1
:108E20008DF810109DF82710E1B103F07F038DF845
:108E300012308DF811705AB37278B378920102F43F
:108E4000FE5242EA9302ADF81420DB00F27803F000
:108E5000180343EA521302F01F028DF816308DF802
:108E6000172015E0C3F380118DF8121003F03F01B5
:108E70008DF81310190608D596F90130002BACBFF8
:108E8000042308238DF81130D5E704238DF8113021
:108E900099E8030000240D948AE8030002F04EFCD8
:108EA0009DF81030002B00F06481B74BBDF82420F2
:108EB000994693F8441002290DD1998A91420AD11A
:108EC0006C2303FB0494BDF81420A3889A4231D28A
:108ED00002F056FC6AE70134042C03F16C03E8D17C
:108EE00000249DF8103013B97846FEF7F5FF0B9A71
:108EF000BDF814100A98BDF824A002F00102FFF793
:108F000063F8A24B4FF0000E9C465968884217D177
:108F10005988514514D15978914211D11CF83E30ED
:108F2000002BD5D004A8FFF791F8014604A8FFF75D
:108F300099FECDE7D5D905212046FFF715FBCFE7F0
:108F40000EF1010EBEF1080F03F10803DDD1002C74
:108F50005DD19DF827209DF81730002A0CBF4FF0F7
:108F60000C0A4FF0080A03FB0AAA0CBF4FF4C073A7
:108F70004FF480739A4539D9854B1B685A0719D528
:108F8000844B1B68002B15DD2F21834811F060FBFB
:108F900018B32F21804811F05BFB411C7F4B804AA6
:108FA000D3F804350092CDF804A040F263220120EA
:108FB00003F06AFB002104A8FFF754FE2C220021D5
:108FC0000FA811F071FA0F238DF83C300FA802237F
:108FD0008DF8443000F02CF97AE75C216E4811F0EE
:108FE00037FB08B15C21D5E76B49D7E723466C22F4
:108FF00002FB039494F84410002940F0A1805346EA
:10900000022204A92046FFF7D3F80028D2D0604BF3
:109010001B685B071CD55F4B1B68032B18DD2F21DA
:109020005D4811F015FB002800F08F802F215A4871
:1090300011F00EFB411C594B9DF81620D3F8043556
:109040000192584A0092042040F2A72203F01CFB30
:1090500094F84430022B02D07846FEF73DFFDFF84B
:109060004891D9F800A001F0E5FF0AEB000104F1F6
:109070002C0001F070FF237B012B1CD194F864308D
:10908000CBB994F84430022B02D07846FEF724FF87
:10909000D9F8043099F81510D9F8082002FB0139E5
:1090A00001F0C8FF00EB090104F14C0001F053FF8F
:1090B000012384F864309DF81630A16C012098409B
:1090C00001427FF405AF0143A164E1799942A5F122
:1090D00004029DF8271041D1002914BF08210C215A
:1090E00003FB0121A56EA4F846100CBF0C2008203C
:1090F00000FB0350311D11F0CCF92046A56CFEF7A2
:10910000A5FF85427FF4E4AE022384F86430A16CAD
:109110002046FFF7A7FD434605462246B4F8461011
:10912000A06EFFF709FB002D7FF4D2AE204684F835
:1091300064500121FEF798FF2046FFF701F8C7E6CB
:109140000133042B7FF454AF34E75C21124811F053
:109150007FFA08B15C216AE70F496CE791B90C2AE4
:1091600002D1A56E1046C3E704212046FFF7FCF9A3
:10917000AEE6434604AA691E701CFFF7DDFAA7E6B7
:109180000E2713E6082AEBE7F43500209835002077
:109190002C2E0020282E002028AD030000B0004017
:1091A00058AD03006CAD0300DC35002010B591F81C
:1091B0004430022B0C4602D07846FEF78DFE022387
:1091C00084F86430A16C2046FFF74CFD08B984F8A0
:1091D000640010BD2DE9F04188460746E8B1124E03
:1091E0003468C4B92546454507D1104B1F605D6002
:1091F000012333602046BDE8F08107EBC5035B68BF
:109200005BB117F83500030609D450B1FEF7E6FE4E
:1092100038B90135E7E70424ECE70E24EAE70B242C
:10922000E8E70F24E6E700BF803500208435002002
:10923000F8B5074610B97846FEF74EFE0F4E346873
:1092400094B10F4D01232B7023791BB954F8043CC2
:10925000384698472468002CF6D12B78022B03D18E
:109260003168064C09B92970F8BD0B790E6813B145
:10927000204603F090F93146F4E700BFA8370020FC
:10928000A437002010B5044610B97846FEF724FE36
:1092900000232372211D0248BDE8104003F05AB993
:1092A000A837002010B5044610B97846FEF714FE22
:1092B000074A1378013B012B04D8022313700123C2
:1092C000237210BD211D0348BDE8104003F063B9AF
:1092D000A4370020A83700200B888268D25A0732B2
:1092E00022F00302134402889BB2043A934288BFDF
:1092F00000230B80704770B5064615460C4611BB1F
:109300007846FEF7E9FDFEB17846FEF7E5FD6B1EF7
:109310002344B3F1005F34D94FF08052D2F80C21CE
:1093200002F50022B3EB822F2ED2042D02D878460C
:10933000FEF7D2FD35800023043D7380B380B46016
:109340002580A37070BD10B97846FEF7C5FDB4F155
:10935000005F12D94FF08053D3F80C3103F500238E
:10936000B4EB832FD3D34FF08053D3F80C3103F5F4
:109370000053B4EB832FC7D2C9E7B4F5000FF2D87E
:10938000C2E7B3F5000F08D94FF08052D2F80C2194
:1093900002F50052B3EB822FC7D37846FEF79CFD4F
:1093A000C3E737B5044610B97846FEF795FD6288E5
:1093B000A36813449B78012B02D17846FEF78CFDFD
:1093C000A288A3681344EFF3108572B69A78A16857
:1093D000032A11D15B1A02A9204621F8023DFFF7AA
:1093E0007BFFBDF80620A3686280134400229A70B8
:1093F00005B962B603B030BD00228A706280A280D7
:10940000F6E770B50E461546044610B97846FEF7E5
:1094100063FD16B97846FEF75FFD6288A3681344C2
:109420009B78012B02D17846FEF756FD002D31D0F6
:1094300021880B1F9BB29D422CD86088A388EA1D0F
:1094400022F00302984292B204D21B1A9A420FDD14
:10945000042070BD15D9091A914209D29A42F7D851
:10946000032981BFA3681B1804229A70002363801C
:109470006288A1688B188D5201229A703360002097
:1094800070BDA26813449B78002BE1D19370638078
:10949000A380EDE7092070BD70B50D461646044661
:1094A00010B97846FEF718FD15B97846FEF714FD99
:1094B000AB78012B02D07846FEF70EFD2B88B34225
:1094C00002D27846FEF708FD16B97846FEF704FD8D
:1094D0000223AB70E1182E802046FFF7FDFE628864
:1094E000A38893421FBFA3689B1800229A7070BD87
:1094F00038B50D46044610B97846FEF7EDFC15B9AF
:109500007846FEF7E9FCA288A36813449A78042AF7
:1095100006D1211D2046FFF7DFFEA288A368134471
:109520009A78022A03D0032A06D0052038BD0322E8
:109530009A702B60002038BD7846FEF7CDFCF9E725
:1095400013B5044610B97846FEF7C6FCA288A36896
:1095500013449978042909D102A9204621F8022D43
:10956000FFF7BAFEBDF80620A36813449878831E5F
:109570005842584102B010BD13B5044610B97846A0
:10958000FEF7AAFCA288A36813449878C21E012A99
:1095900004D9831E5842584102B010BDA2680DF193
:1095A00006019B1A2046ADF80630FFF795FEBDF880
:1095B0000620E8E770B50D46044610B97846FEF778
:1095C0008BFC15B97846FEF787FCAB78012B17D0DA
:1095D000032B20D1A288A36813449D4202D0784671
:1095E000FEF77AFC0026AE70211D2046FFF774FEC0
:1095F000A288A36813449B78042B11D1A68070BD68
:109600006288A36813449D4202D07846FEF764FC4A
:109610000023AB7070BD7846BDE87040FEF75CBCBF
:1096200070BD037942799B1A03F57F2303F6FF731C
:1096300000EB03307047000010B5054884681C2219
:10964000002110F031FF2046BDE8104003F0FCBCC3
:10965000AC37002070B51C4CE36813B97846FEF7B0
:109660003BFC237E13B17846FEF736FC6368092B7A
:1096700002D97846FEF730FC144D0026636855F891
:1096800023309847022811D003280DD0012815D186
:1096900063680133092B636002D97846FEF71CFC2E
:1096A000237E002BEAD00DE06660F9E7237E0BB144
:1096B000207070BDBDE87040FFF7BEBF00F0FD0038
:1096C0000128EDD070BD00BFAC370020E4AD030031
:1096D00010B50388044613B97846FEF7FDFB2088D1
:1096E000074B04EB800030EA030203D06288B2F536
:1096F000FE4F04D11C4004F580542078204410BD56
:1097000000F0FFFF70B504460E4647F6FE65FFF712
:10971000DFFFB04207D2844205D24388013B9BB2AF
:10972000AB42F4D870BD002070BD00000B78032B55
:10973000094B04BF00221A761A78012A03D11B7E36
:1097400043B9FFF787BF022A04D10B78032B01D15D
:10975000FFF772BF704700BFAC37002010B50C4C4C
:10976000E3681878002203F58051184403F0F6FEF0
:1097700050B9E1680846FFF754FF814206D001F571
:109780008051E160032010BD012010BD022010BDFA
:10979000AC3700201FB50A4B02221B688DF8002051
:1097A0000193084A4FF4805369460120029300F068
:1097B0003FFFB0FA80F0400905B05DF804FB00BF40
:1097C000CC370020C83700201FB50123019003913A
:1097D00002926946044A8DF80030184600F028FFCE
:1097E00005B05DF804FB00BFC837002038B5104C49
:1097F000E36818784FF6FF7203F58051184403F0C0
:10980000ADFE88B1E36819780B4498420CD0657EB0
:10981000084B09490422002D08BF1946FFF7D4FF61
:1098200020B90120207638BD012038BD002038BD88
:10983000AC3700209CAF0300A0AF03002DE9F04738
:10984000224EF06803794279013B9A4202D101200D
:10985000BDE8F08700F580531D491C781C440B6857
:1098600013F8045F1D44FFF7DCFE6388013B9BB2E5
:1098700047F6FE62934200F58057884604D9204699
:109880003946FFF73FFF0446DFF848A04FF00109D3
:10989000002CDCD0D8F800106288284601F58051F1
:1098A00003F05CFE05460028D1D004225146204634
:1098B00086F81890FFF788FF28B920463946FFF749
:1098C00021FF0446E4E70020BDE8F087AC37002024
:1098D000CC37002098AF030070B50C4D0C4EE968F2
:1098E00030680C7804302246FFF76EFF60B93368A9
:1098F00004F0FC0404341C44EB686C611A7868764C
:1099000013442B61012070BD002070BDAC370020D6
:10991000CC37002008B5054B054918680422FFF72D
:1099200053FFB0FA80F0400908BD00BFCC370020DB
:10993000B837002010B5074B074C1968E06840F6AF
:10994000FC720431FFF740FF10B90120207610BDF2
:10995000002010BDCC370020AC37002010B50C4CD7
:10996000E1680846FFF75DFE81420AD1094B0A49CA
:1099700018680422FFF728FF40B90123237602204C
:1099800010BD01F58051E160032010BD002010BD25
:10999000AC370020CC370020D03700202DE9F74F1E
:1099A0003A4C236913B97846FEF796FA636913B9FE
:1099B0007846FEF791FADFF8D8904FF0000847F6A6
:1099C000FE6A637E13B9B8F1000F01D0012053E0A5
:1099D0006369E06803EA0907FF1A07F580532769FE
:1099E0000093FFF71EFE7A88013A92B2524500F5C5
:1099F000805B06D938465946FFF784FE07460028A3
:109A000040D03D4600265D451BD22988009B06EBD1
:109A100081018B4209D987EA050212EA090F04D1B4
:109A20006A88013A92B2524503D95EB94FF00108F3
:109A300019E028460191FFF74BFE019905460E46B5
:109A4000E1E7E6B1324639466069FFF7BDFE90B9FD
:109A5000636926F003063344636115B97846FEF75F
:109A60003BFA256125B16A8847F6FF739A42A8D16F
:109A700001236376A5E7002003B0BDE8F08F4FF027
:109A80000108EFE74FF00108F2E700BFAC37002014
:109A900000F0FFFF1FB50A4B0222DB688DF80020A3
:109AA0000193084A4FF4805369460120029300F065
:109AB000BFFDB0FA80F0400905B05DF804FB00BFBF
:109AC000AC370020C837002010B54FF010235A697A
:109AD000013225D05A691AB35B69A3F58053A3F507
:109AE0008053174A196813604B1E033325D8C1F3FE
:109AF0000B0313BB134A1448D160012111701349A1
:109B000013765376936051F8234084420ED153600C
:109B10000F49012000F07CFDFFF79CFD012010BDE6
:109B20004FF08052516913694B43D8E701330A2B38
:109B3000E9D17846FEF7D0F9EAE7002010BD00BF72
:109B4000CC370020AC370020959A0200E4AD03002A
:109B50002D970200024B1878003018BF0120704783
:109B6000AC37002038B50E4C2378054613B1784643
:109B7000FEF7B2F92B78032B02D07846FEF7ACF94A
:109B8000EB68E360012000230649A560636023764B
:109B90002070637600F03CFDBDE83840FFF75ABD09
:109BA000AC3700202D970200014B1868704700BFAA
:109BB000CC37002010B5044610B97846FEF78CF972
:109BC00063681BB123680BB1A36813B97846FEF72D
:109BD00083F9A3685A1E1A4202D07846FEF77CF930
:109BE0000023E360236110BD38B50546F0B1E9B14B
:109BF0008368EBB1EFF3108472B683682A69C0689A
:109C00001A44824203D104B962B604240CE0013B39
:109C1000034095E8050002FB030010F03AFCEB68F6
:109C20000133EB6034B962B6204638BD0E24FBE741
:109C30000924F9E70024F7E770B50E460446F0B1B1
:109C40008368F3B1EFF3108572B60169C368994276
:109C500003D105B962B605250FE04EB18368013B1B
:109C60000B4090E80600304602FB031110F011FC97
:109C700023690133236135B962B6284670BD0E25CC
:109C8000FBE70925F9E70025F7E70000024AD2F8CB
:109C90000034002BFBD0704700E00140C0F30B0301
:109CA00010B5E3B9E9B1104C0223C4F80435FFF74D
:109CB000EDFF01F6FF7121F47F6121F00F010144F6
:109CC000884205D10020C4F80405FFF7DFFF10BD6E
:109CD000C4F80805FFF7DAFF00F58050F0E7102020
:109CE00010BD092010BD00BF00E0014070B540EA82
:109CF000010414F003041BD1E2B195071AD10E4EF2
:109D00000123C6F804359508FFF7C0FFAC4205D122
:109D10000020C6F80405FFF7B9FF70BD51F82430E4
:109D20005A1C03D040F82430FFF7B0FF0134EDE7B0
:109D3000102070BD092070BD00E0014010B5104C2E
:109D40004FF480520021204610F0AEFB0D4B04F57D
:109D50007F611C60282004F13003002223F8300CBE
:109D600023F82E2C43F82C3C30338B42F6D1382389
:109D7000A4F8C03FA4F8C22FC4F8C42F10BD00BF80
:109D8000D4370020D447002008B508220221094812
:109D900002F0CAFF20B90848BDE8084003F02AB91C
:109DA000064A91684160127B0272BDE8084002F0E9
:109DB000E9BF00BFE0470020EC2D00202C48002028
:109DC00010B5044610B97846FEF786F82346BDE87C
:109DD0001040184738B50E4D2B78C3B90D4B5C6851
:109DE00004F50054B4F1807F11D8042201210A48FF
:109DF00002F09AFF20B90948BDE8384003F0FAB8EC
:109E0000012344602B70BDE8384002F0BBBF38BD71
:109E1000404800202C480020E0470020DC2D002096
:109E200010B501210C4802F0C3FF80B902210A4895
:109E300002F0BEFF044650B901461422074810F054
:109E400033FB074B1C70BDE81040FFF7C3BF05484C
:109E500003F0D0F8F7E700BFE04700202C480020CF
:109E6000044800200C2E002030B50D468DB07AB984
:109E70004B88012B0AD1124C227812B97846FEF792
:109E80002BF8104B6A685A60002323700DB030BD68
:109E9000032A02D07846FEF71FF82C22002101A8E1
:109EA00010F002FB10238DF80430074B0395DA689D
:109EB0001B69059201A80693FFF7BAF9E6E700BF10
:109EC000404800202C480020E047002070B503F0F7
:109ED000A9F8D8B101F032FC002211461C481C4CF4
:109EE00002F0F2FE00263546B0B91A4C05B10EBBA1
:109EF00000232360A3602373FFF746FF236863609A
:109F0000FFF768FFBDE8704001F03ABC01F0DAFCF1
:109F10000028DCD020BFDAE74388012B08D0022BD1
:109F200000D1051D02460021204602F0CDFEDBE7F0
:109F3000061DF7E72B68A3602B792373B54203D97D
:109F40002B790BB92060D9E733682360D6E700BFCF
:109F5000E04700202C48002008B503F09BF8A0F54E
:109F6000805008BD7FB500211822684610F09CFA89
:109F700000230293FFF7F0FF01230090019369464D
:109F8000054B0648039302F03AFF10B1044803F072
:109F900031F807B05DF804FB699E0200E04700203D
:109FA000FC2D002008B5142200210A4810F07CFA8C
:109FB00001F040F8084B094A9A60094ADA60002229
:109FC00058601A615A61074B1A70BDE80840FFF7E4
:109FD000C9BF00BF2C4800200848002001A1020092
:109FE000008793034148002010B5074C23784BB9F4
:109FF0000648074B036000F07BFD064800F072FF47
:10A000000123237010BD00BFDC4700202048002042
:10A0100069A102000848002030B58DB001F08EFB28
:10A02000154B1A7B1D4622BB9A7B12BB1A8A41F242
:10A0300082639A4202D8114B1B78D3B101232B7350
:10A04000AB6800240133AB602C82FFF79DFEAB6848
:10A050002A7B8DF80820013B0CA80493022300F80A
:10A060002C3D0394FFF7E4F801F08AFB20460DB085
:10A0700030BD0824F8E700BF2C48002041480020EC
:10A0800010B58CB001F05AFB1B4B5A7B42B1997B47
:10A0900099B9188A41F28261884201D8174A127828
:10A0A00002F001047AB1197B00225A7339B10129F7
:10A0B0000ED07846FDF710FF05E00022F0E7FFF72D
:10A0C000ABFF0028F5D101F05BFB20460CB010BDC2
:10A0D0001A605A601A731A820CA89B6804930223B0
:10A0E00000F82C3D8DF808200392FFF7A1F8FFF748
:10A0F0004BFEFFF76FFEE6E72C48002041480020AA
:10A1000038B5174C257B2DB1012D12D07846FDF7BF
:10A11000E3FE21E0228A41F282639A4202D8114B87
:10A120001B78CBB1FFF7ACFF638A0BB1013B6382B5
:10A1300038BD238A41F28262934202D8094A1578D7
:10A1400055B142F2B012934282BF012300256373DE
:10A15000FFF796FF002DE7D0238A01332382E3E740
:10A160002C4800204148002030B50378042B8DB0E6
:10A170000FD143681B7863B1224C4369217B027E77
:10A18000002939D1618A61BB012AA26803D09342B8
:10A1900004D80DB030BD0132934224D9A2682A32CE
:10A1A0009342F6D8A27B002AF3D18568A36042F6D9
:10A1B0000653226062602282638262732273FFF719
:10A1C000E3FDFFF707FE237B8DF808300CA8022380
:10A1D000A26800F82C3D103504920395FFF728F88B
:10A1E000D7E7012AD5D1A26801329342D1D1012308
:10A1F0006373FFF745FFCCE70129CAD1012AC8D014
:10A20000A268F2E72C48002038B5164C94E80C0000
:10A210009A4205461FD2207B1349144B012808BFE0
:10A220000B46934207D963682268403B9A4208D3A1
:10A23000FFF7D0FD05E001236373FFF721FF00283E
:10A24000F1D0EFF3108072B623685A1C22602B60A5
:10A2500028B962B638BDFFF7BDFD0F2038BD00201C
:10A2600038BD00BF2C48002000E0FF00FFFF7F004A
:10A2700010B50C4C30B10C4B01229A732368134477
:10A28000236010BD236813B97846FDF725FE2368C7
:10A29000013B23602BB9044A9373BDE81040FFF7DC
:10A2A000EFBE10BDD84700202C48002000B58DB06F
:10A2B0000323ADF808000CA88DF8102000F82C3D01
:10A2C0000391FEF7B5FF0DB05DF804FB014B9868F4
:10A2D000704700BF2C480020034B1A7B9868012A66
:10A2E00008BF00F1FF3070472C480020044B9B68EA
:10A2F0005840C20748BF03F1FF331846704700BFFC
:10A300002C480020014B187B704700BF2C480020D0
:10A3100038B5094B1C7864B9084D0122A8601A7041
:10A320002973FFF731FD2C606C60FFF753FD204669
:10A3300038BD082038BD00BF044800202C4800204C
:10A340002DE9F8431D4CDFF87890002602212046C5
:10A3500002F00EF85FFA86F805460027ADB967B13E
:10A360002946204602F06CF8082806D154F8043C2F
:10A370001BB12A464946404698470136032E04F150
:10A38000BC04E3D10120BDE8F88354F8043C23B1B8
:10A3900034F80C2C29464046984734F80C3C0133DD
:10A3A00024F80C3C0221204601F0FEFF0221204649
:10A3B00001F0DEFF01370546D0E700BF5848002016
:10A3C0000CAE030010B5012104460C3001F0D0FFA3
:10A3D000002833D01A4BC4F89C300023C4F8A030B6
:10A3E00003786268012B07D0022B22D07846FDF754
:10A3F00073FD4FF4FA7306E083689B1A9A082923C9
:10A40000534303F5FA730F4A934294BFC4F8A8303C
:10A41000C4F8A8200123C4F8AC4084F8B83004F193
:10A420009C0005F013F848B17846BDE81040FDF7F0
:10A4300053BD83689B1A1A0B034BE1E710BD00BFA5
:10A440004DA40200A0860100084C01002DE9F74F41
:10A450004A4B1B7880460D463BB105F02DF8002392
:10A4600085F8B83003B0BDE8F08F01F10C09D1F8E0
:10A47000A8704846012101F07BFF064610B97846D6
:10A48000FDF72AFDDFF8FCA0A7F5FA7700244FF0CE
:10A49000290B3378012BA7EB040406D0022B3BD009
:10A4A0007846FDF719FD00231FE06B68B268B4FB26
:10A4B000FBF4D21AA400944228BF144624B9019395
:10A4C0007846FDF709FD019BF168706823F00303EE
:10A4D000224619441844FFF709FC10B17846FDF7ED
:10A4E000FBFC6B681C446C60B3686A689A422AD1B2
:10A4F00004F0E2FF4846012101F056FF00236B60A3
:10A5000085F8B8301E4B186801F078F9284603B07A
:10A51000BDE8F04FFFF756BF6B68B268B4FBFAF4C2
:10A52000D21A2403944228BF144624B901937846D2
:10A53000FDF7D2FC019B706823F003032146184409
:10A54000FFF7ACFBC9E700F075FD3378B0EB08040A
:10A5500048BFA8EB0004012B0DD0022B06D15346B7
:10A5600023449F4295D204F0A7FFCFE77846FDF73A
:10A57000B3FC0023F4E72923F2E700BF484800209A
:10A5800044480020084C0100F8B51E481E4C01F05C
:10A5900017F91E4B186004F11C0308271026032529
:10A5A000636104F10C0004F118032361A77366735F
:10A5B000257301F020FF04F1D803C4F8D03004F172
:10A5C000C80004F1D403C4F8CC3084F8CA7084F80D
:10A5D000C96084F8C85001F00EFF04F5CA73C4F8CE
:10A5E0008C3104F5C87384F8867184F8856184F829
:10A5F0008451C4F8883104F5C270BDE8F84001F018
:10A60000FABE00BF41A302004C480020444800208D
:10A61000022838B504460D4602D97846FDF75CFCA1
:10A62000024BBC2202FB0434A56038BD4C4800201C
:10A6300002282DE9F84F05460C46924602D9784685
:10A64000FDF74AFC14B97846FDF746FC2378012B48
:10A6500012D16368990702D07846FDF73DFCE368A4
:10A660009A0702D07846FDF737FCA3689B0711D004
:10A670007846FDF731FC0DE0022B0DD16368C3F382
:10A680000B0313B17846FDF727FCA368C3F30B0354
:10A69000002BEDD1A36813B97846FDF71DFCEFF34D
:10A6A000108872B6BC276F43184E07F10C09B144ED
:10A6B0000021484601F05CFE834600B30021484675
:10A6C00001F072FE1022214658460FF0E2FEBAF168
:10A6D000000F03D0F3195B88AAF80030BC2303FBFA
:10A6E00005656B8895F8B80001336B8028B9084B75
:10A6F0001C782CB9F019FFF765FE002000E004205B
:10A70000B8F1000F00D162B6BDE8F88F4C480020C8
:10A710004848002010B1800B014B185C704700BF07
:10A720001CAE030012DF704713B5137863B1042B1E
:10A730000CBF0723002310F8011C292962D005D87B
:10A74000162973D002B010BD537DF4E72A2927D013
:10A750002B29F7D1022BF5D110F8021C0139C9B20F
:10A7600002F052FE04460028ECD0374B1B685B0613
:10A77000E8D5364B1B68012BE4DD2F2134480FF060
:10A7800067FF002849D02F2131480FF061FF411C9D
:10A79000304B314AD3F80435009201949D2224E0D5
:10A7A000022B01D0072BCDD110F8021C013901F08A
:10A7B00033FB04460028C5D0234B1B685A06C1D57D
:10A7C000224B1B68012BBDDD2F2121480FF040FFDC
:10A7D00078B12F211E480FF03BFF411C1D4B1F4A33
:10A7E000D3F80435009201948A22022001F04CFF34
:10A7F000A8E75C2116480FF02BFF08B15C21E9E7C0
:10A800001349EBE7022B9DD110F8021C0139C9B2A4
:10A8100002B0BDE810400DF063BA5C210C480FF0A7
:10A8200017FF08B15C21AFE70949B1E701884FF68E
:10A83000E463994286D110F8021C0230033902B059
:10A84000BDE81040FDF744BA2C2E0020282E002031
:10A850005AAE030000B000409FAE030076AE030086
:10A8600070B58AB005F0A2FA0446002834D000235F
:10A870008DF8103006460FCE05AD0FC533682B603E
:10A88000627D052A0CD9207D00F00F03072B07D02D
:10A8900004AB063A04F11D0100F00F0004F0D2F9F8
:10A8A000114B1A68AAB104AB0393237DC3F30303CE
:10A8B0008DF80430637D062B89BF063B00238DF89D
:10A8C000053004F11D0398BF8DF80530029301A8EF
:10A8D0009047204605F054FA05F080FA80F0010018
:10A8E000C0B20AB070BD00BF844A0020F7B52F4F38
:10A8F0003A780546002A4ED100284ED0067A06F056
:10A90000F703072B4BD1C068002841D0FDF7F6FABA
:10A910000DF10700FFF706FF0446B0BB9DF80730B6
:10A92000012B3ED1FDF70AFB00F0CAFA304600F0D9
:10A93000CFFEE87800F050F900F01EFE04F056FD5E
:10A940001B4805F0E3FA04F0EFFAFFF71DFE03F0F1
:10A9500095FC00F0D1FC04F003F9284601F008FA58
:10A960002846FEF797F803F0A7F82846FFF7E6F920
:10A97000FDF7AEF908B1062815D10E4804F034F9F8
:10A980000D4B00221A6001233B70204603B0F0BD3E
:10A99000FDF7BCFABCE70824F7E70E24F5E7072427
:10A9A000F3E70224F1E70446EFE700BF814A002005
:10A9B00061A802001C2E0020844A002037B5264BD7
:10A9C0001B78002B44D0254D2A78002A40D100F076
:10A9D000F7FD10B17846FDF77FFA04F029FD002855
:10A9E00038D105F0BBF901F0D5F9FDF771F904464E
:10A9F00050B3062828D01A4B1B685B0418D5194B96
:10AA00001B68012B14DD2F2117480FF021FE90B198
:10AA10002F2115480FF01CFE411C144B144AD3F88B
:10AA20000435009201944FF4C472022001F02CFE10
:10AA3000204603B030BD5C210B480FF009FE08B181
:10AA40005C21E6E70849E8E701232B700024EFE7E3
:10AA50000824EDE70446EBE7814A0020804A002005
:10AA60002C2E0020282E00205AAE030000B00040FB
:10AA700035AE030037B5184B1B685B0404460D4622
:10AA800019D5164B1B68062B15DD2F2114480FF026
:10AA9000DFFDB8B12F2112480FF0DAFD411C114B38
:10AAA000114AD3F804350192104A009207204FF45E
:10AAB000D77201F0E9FD2946204603B0BDE83040D9
:10AAC000FEF72EB85C2106480FF0C2FD08B15C21EC
:10AAD000E1E70349E3E700BF2C2E0020282E0020E9
:10AAE0005AAE030000B0004020AE0300FEA90300F0
:10AAF000FEF7C8BB08B500F023FD002008BD00002C
:10AB0000014B1860704700BF844A00207047000066
:10AB1000044B1A680132B2F1704F08BF01221A606B
:10AB200018687047884A002010B5044610B9784666
:10AB3000FDF7D2F900232360636010BD38B50D46E0
:10AB4000044610B97846FDF7C7F915B97846FDF700
:10AB5000C3F900236B60EFF3108372B6226822B949
:10AB60002560656003B962B638BD62685560F8E774
:10AB700010B5044610B97846FDF7AEF9EFF3108230
:10AB800072B6206808B143682360236803B9636024
:10AB900002B962B610BD10B5044610B97846FDF78B
:10ABA0009BF9206810BD35DF7047000008B54FF0F5
:10ABB000FF30FFF7F8FFBFF34F8F0549054BCA6819
:10ABC00002F4E0621343CB60BFF34F8F00BFFDE799
:10ABD00000ED00E00400FA0507289ABF024B33F8A5
:10ABE0001000FA20704700BFCAAE0300024B58683D
:10ABF000103840B2704700BF00ED00E0084A202343
:10AC000090FBF3F352F82330424202F01F0200F0AF
:10AC10001F0058BF504223FA00F000F001007047B7
:10AC200000E100E046DF704730B501F1100310325B
:10AC3000103013F8014D12F8015D8B4284EA0504CF
:10AC400000F8014DF5D130BD2DE9F047144690B024
:10AC500002F10F05102288462D1101460DEB02006E
:10AC6000994604F00F040FF014FC0DB1002C44D0F1
:10AC70004FF0000A02261022002108A80FF014FC51
:10AC800004A8FFF7CFFF01220DF13F0110AB13F92C
:10AC9000100D1F46994234D19DF83F3001325B00C0
:10ACA000DBB20028D2B2B8BF83F0870396428DF89A
:10ACB0003F30EBD2013D6E46BAF1000F2CD03A4640
:10ACC00008EB05113046FFF7AFFF10220021384690
:10ACD0000FF0EAFB0024AC4234DB3A46314608A8C8
:10ACE000FFF7A2FF04A8FFF79DFF10223946484650
:10ACF0000FF0CFFB10B0BDE8F0874FF0010A5646C9
:10AD0000B9E793F801E093F800C04FEADE1E4EEA7F
:10AD10004C0E03F801EBBDE7224608EB051168462F
:10AD20000FF0B7FB10AB23448022013403F8402C12
:10AD30006C44A31B102B02D13A463146C2E704F8FB
:10AD400001ABF6E708EB0412394608A8FFF76CFFE1
:10AD500004A8FFF767FF0134BDE70000094B1A683C
:10AD6000824204D142691A600023037070471B6855
:10AD7000002BF9D05A69904202D142695A61F3E737
:10AD80001346F5E7904A002038B5124B1A6804467E
:10AD90002AB11A6845685268AA1A002A0DDA1A6898
:10ADA00062611C609A88013292B29A8012B9784628
:10ADB000FDF792F80123237038BD19684A691AB16A
:10ADC0005068401B002802DB62614C61EAE71146D3
:10ADD000F4E700BF904A0020014B186800F00EBD58
:10ADE0008C4A002008B50E4B1A68BAB11A6852682E
:10ADF000821A12F1640F43BF19680A4A4968094A66
:10AE000056BF00F1640102230223012000F0C8F8BC
:10AE100020B17846BDE80840FDF75EB808BD00BF28
:10AE2000904A0020D9AD02002DE9F04100F002F96E
:10AE3000224E054637464FF00008336823B1336889
:10AE40005B685B1B642B06D400F0F4F8FFF7CAFFC5
:10AE50000120BDE8F08134682378012B02D07846C8
:10AE6000FDF73AF863693B60BB88C4F814809BB275
:10AE70005A1E92B2BA8013B97846FDF72DF8A3682E
:10AE800013B97846FDF728F8022328462370216974
:10AE9000A368984700F0CEF82378022B0546CCD162
:10AEA000E2680AB92270C8E763681344591B642931
:10AEB000FBD463602046FFF767FFBEE7904A00209F
:10AEC00008B50822002104480FF0EEFA034800F00C
:10AED00077FC034B186008BD904A002029AE0200A1
:10AEE0008C4A002010B5044600F062FD10B9784687
:10AEF000FCF7F2FF14B97846FCF7EEFFA36813B92C
:10AF00007846FCF7E9FF2378012B02D17846FCF75D
:10AF1000E3FF002363612046FFF736FF00F08AF865
:10AF2000BDE81040FFF75EBF10B5044600F040FDDD
:10AF300010B97846FCF7D0FF14B97846FCF7CCFF7F
:10AF40002046FFF70BFF0023636100F073F8BDE8B4
:10AF50001040FFF747BF38B504460D4600F028FD06
:10AF600010B97846FCF7B8FF14B97846FCF7B4FF7F
:10AF70002046FFF7F3FE0023636120466560FFF77C
:10AF800003FF00F057F8BDE83840FFF72BBF000083
:10AF9000024B1B6803B962B6704700BFBC4A002071
:10AFA000022838B531D803F003049C422FD1EFF3C7
:10AFB0001083184D2B6072B6174B43F82020174BA7
:10AFC00043F82010164B1C54164B002243F8202047
:10AFD000154B1B78ABB1154B1B68CC1A48BF5C1ADC
:10AFE000830003F1804303F500430022C3F84021AE
:10AFF0001030012202FA00F00D4AC2F80403C3F82F
:10B000004045FFF7C5FF002038BD072038BD0A20A6
:10B0100038BD00BFBC4A00209C4A0020B04A002036
:10B02000984A0020C44A0020A84A0020AC4A0020C8
:10B030000080004008B5EFF310830B4A136072B62E
:10B040000A4B1B786BB10A4B0022C3F84C2101223A
:10B05000DA64D3F84C05074B1B681844FFF798FFD8
:10B0600008BD054B1868F9E7BC4A0020A84A002033
:10B0700000800040AC4A0020C04A00202DE9F04783
:10B08000DFF87490DFF874A000244FEA840808F118
:10B09000804505F50045D5F84031EBB1D9F80433CA
:10B0A00004F1100201269640334215D058F80A7078
:10B0B00017B97846FCF710FF00234AF80830C9F8A2
:10B0C0000863FFF7B7FF0B4BE35C9B07014608D50E
:10B0D000B8470023C5F840310134032CD5D1BDE871
:10B0E000F087384600F018FB0028F2D07846FCF7CD
:10B0F000F3FEEEE7984A0020008000409C4A0020C2
:10B100002DE9F843324FDFF8E89005460026B846AF
:10B11000B40004F1804303F500430022C3F8402546
:10B12000C3F84021D3F840313A6859F8263005F188
:10B130007801981A48BFD01AB1EB020E48BFA2EBB3
:10B14000010E8645234A2BD913593BB100211151D9
:10B15000214AB25C920719D5284698471F4BE258FE
:10B160001AB1012111600022E2500136032ECFD125
:10B170001B4B1B681BB91B4B4FF480721A601A4B98
:10B18000C8F8005001221A70BDE8F8832946184615
:10B1900000F0C2FA0028E1D07846FCF79DFEDDE71A
:10B1A0001259002AE1D004F180445A1B04F50044EE
:10B1B00048BFEA1A0023C4F8403106F11001012308
:10B1C0008B400A49C1F80433C4F84025CDE700BFDD
:10B1D000AC4A00209C4A0020984A0020C44A002023
:10B1E000BC4A002000E100E0A84A002000800040A6
:10B1F000B04A002070B500230F49104C104D1A467C
:10B200005E5CF60742BF5A5444F8232045F82320D9
:10B210000133032BF4D10B4B18600B4B00221A7037
:10B220000A4B4FF0FF32C3F80823094B4FF48072EA
:10B23000C3F8802170BD00BF984A00209C4A0020BE
:10B24000C44A0020C04A0020A84A002000800040D4
:10B2500000E100E030DF704731DF704710B5034692
:10B2600005C89C68D968A0EB721082EAF4320C44DD
:10B27000014410441A605C609960D86010BD37B515
:10B280000C46054610B97846FCF726FE0023A3427B
:10B2900001D303B030BD0DF10700FFF7DBFF9DF8D0
:10B2A00007100029F7D0E21A914288BF8DF80720D5
:10B2B000E8189DF80710FFF7CFFF9DF8072013440B
:10B2C000E5E7000037B5044602A8002340F8043D36
:10B2D0000421FFF7D4FF074B2360019B6360A36049
:10B2E000E36014252046FFF7B9FF013DFAD103B012
:10B2F00030BD00BFED5EEAF1704748DF704749DFBF
:10B3000070474ADF70470000064A0323137511682F
:10B31000054B936140F6D862914288BF43F2B06218
:10B320009A607047FC4A00201C4B0020064A1368B4
:10B330005068064A12681844283278385343044A41
:10B34000B3FBF2F3C01A7047FC4A0020184B0020F0
:10B3500040420F0010B5294B30B11A69996901328A
:10B360001A611A680A441A60D96801221A759A6922
:10B37000013152080129D9609A610CD0022918D0F4
:10B3800099691A681E480A44824223D840F6D76257
:10B3900091421FD910BDB2F5FA7F03D130B9002216
:10B3A0009A61EDE740F6D8618A42E9D840F6D86262
:10B3B000F6E71A69022A03D11968114A521AEFE70F
:10B3C000012ADDD10028EAD0DAE77846BDE810404E
:10B3D000FCF782BD012258685A7200241C75FFF7E1
:10B3E0008FFE04F0D1F8FFF7A1FF03230146054AC1
:10B3F0002046FFF7D5FD0028E7D110BDFC4A00200C
:10B400008096980009B30200F8B5444C444D0123DE
:10B4100023722B781BB1434B1B78002B64D0002385
:10B42000237504285CD8DFE800F0035653514D0023
:10B430003D4AE3602361D2F80405A27A3B4D002126
:10B4400062B3A37223686268C5E900011344012155
:10B45000374A636021752368364992682260002B61
:10B4600008BF0B46991AB1F57A7F27D39A4225D89F
:10B47000A161237D023B012B0CD8637A3BB104F020
:10B480009FF8FFF753FFFFF7B5FE00236372254BCC
:10B4900000221A70002323722748F8BDD5E9002343
:10B4A000DFF898E0821A22F07F420023A2FB0E67A9
:10B4B0000EFB0377F30B43EA4743C4E74FF47A7379
:10B4C000A361D6E70120FFF745FFD2E70020FAE7A6
:10B4D00004F016F8CDE7FFF7D1FD04F043F8C8E714
:10B4E0007846FCF7F9FCC4E7FFF7A4FD6368C01ACF
:10B4F0002B782060012B05D0022B09D07846FCF771
:10B50000EBFC02E002222275A37200232B70B0E74D
:10B5100003232375064BA361F7E700BFFC4A002015
:10B520002D4B00202C4B002000B00040304B002061
:10B530001C4B002080969800104B002040420F00CA
:10B54000043808B5032814D8DFE800F00A11050212
:10B55000FFF7D5FE68B17846BDE80840FCF7BCBCF3
:10B56000044840F6D8638360FFF7CBFEF2E701485A
:10B57000FAE708BD1C4B00200C4A10B543F2B0643A
:10B5800000239460012143F69824137013715171C4
:10B59000D460074A1060074A1370074A1370074ABD
:10B5A0001372537213609172536010BD1C4B0020D4
:10B5B000184B00202C4B00202D4B0020FC4A002073
:10B5C00008B50548FFF799FE20B90448BDE80840D2
:10B5D000FFF797BE08BD00BF09B402001C4B002056
:10B5E000064B1B7D032B07D0054B1878013801282B
:10B5F0008CBF00200120704701207047FC4A0020CA
:10B600002D4B0020014B5868704700BFFC4A0020BA
:10B6100010B5064B587A40B1FFF788FE0446FFF795
:10B6200009FD0346201A48BF181B10BDFC4A002024
:10B63000014B187A704700BFFC4A0020EFF31083DB
:10B6400072B6054A527A22B1044A4FF48071C2F8A8
:10B65000001103B962B67047FC4A002000E100E027
:10B66000024B01221A70FFF7E9BF00BF2D4B0020EB
:10B67000074A13782BB140B9064B1B78003318BF2B
:10B68000012310701BB1FFF7D9BF0023F9E7704702
:10B690002C4B00202D4B0020044B1B780F2B1EBF82
:10B6A000034B4FF48022C3F8002170477C4C0020EC
:10B6B00000E100E008B501460448FEF795FA10B92C
:10B6C000FFF7EAFF08BD042008BD00BF384B00208B
:10B6D00010B50C4C0C4B20700C48036010234360D9
:10B6E0008360FEF767FA0A48FFF71EFA23780F2BEC
:10B6F00007D0084A5B01DBB282F812334FF4802393
:10B70000136010BD7C4C00204C4B0020384B0020B7
:10B71000804C002000E100E030B50D4685B00446C5
:10B7200010B97846FCF7D8FB002368468DF8003046
:10B7300001940295FFF7BEFF05B030BD10B5EFF3E1
:10B74000108472B60B490A68531C0B605AB90A4B35
:10B750001B780F2B04D0094B4FF48022C3F88020B4
:10B7600004B962B610BD002BFAD17846FCF7B4FBE1
:10B77000F6E700BF4C4C00207C4C002000E100E0CC
:10B7800038B5EFF3108572B60A4C236813B97846C2
:10B79000FCF7A2FB2368013B23603BB9064B1B78F7
:10B7A0000F2B1EBF054B4FF480221A6005B962B6FD
:10B7B00038BD00BF4C4C00207C4C002000E100E074
:10B7C00038B5054610B97846FCF786FB094C236866
:10B7D000082B02D97846FCF77FFBEFF3108372B693
:10B7E0002068421C2260044A42F8205003B962B625
:10B7F00038BD00BF504C0020544C002010B50E4BFB
:10B800001B688342044602D87846FCF765FBEFF3D9
:10B81000108172B6094A6009012304F01F0403FA7B
:10B8200004F452F82030234342F82030FFF734FF6D
:10B8300001B962B610BD00BF504C0020784C00200A
:10B8400070B50D461646044610B97846FCF744FB21
:10B8500015B97846FCF740FBEFF3108372B600226F
:10B86000A560E6602274246003B962B670BD000072
:10B8700070B5044610B97846FCF72EFBA36813B9DF
:10B880007846FCF729FBEFF3108672B6237C03F0B1
:10B89000FF055BB90123064823742146FFF74EF9E3
:10B8A000FFF7FAFE284606B962B670BD1120FAE726
:10B8B000804C002010B5044610B97846FCF70CFB0C
:10B8C000207C10BD2DE9FF47324E337813B1784606
:10B8D000FCF702FB0125DFF8CC802F4FDFF8C89082
:10B8E00035700024D8F800309C4212D32B48DFF882
:10B8F000AC80FFF73DF9002750BB294C6946204634
:10B90000FEF79AF990B300232846337004B0BDE8DF
:10B91000F087600904F01F020123934057F82020AC
:10B92000134213D0EFF3108172B657F8202022EAA9
:10B93000030347F8203001B962B659F8243098471C
:10B94000824618B92046FFF759FF55460134C9E72A
:10B950000468237C13B97846FCF7BEFAE068A36854
:10B96000984727744046FFF703F9C5E79DF8003074
:10B97000012B09D008D3022BC0D1019B002BBDD0D5
:10B98000039902989847B9E7019B002BB6D002981B
:10B990009847B3E7884C0020784C0020804C00206A
:10B9A000384B0020504C0020544C0020FFF78ABF39
:10B9B00007B5FFF71BF98DF803009DF80330174911
:10B9C000F02B0DD10B780F2B25D01220FFF716F995
:10B9D00080F00100C0B200F0010003B05DF804FB8C
:10B9E0009DF803305BB2002BADBF03F1604303F061
:10B9F0000F030B4A03F56143B4BFD35C93F80033E4
:10BA00005B090193019A0B78934204D0019A934207
:10BA1000DBD30020DFE70120DDE700BF7C4C002006
:10BA200014ED00E046DF704730B58DB00D4614468A
:10BA30000146102268460EF02CFD102229460DEB1F
:10BA400002000EF026FD6846FFF7ECFF102208A961
:10BA500020460EF01EFD0DB030BDFFF7F5B801F029
:10BA6000DBBB01F003BC30B4032956D8DFE801F09A
:10BA70000227275000241C70817A5A7861F306024D
:10BA80005A70C17AD2B261F3C7125A70C1680D04FC
:10BA9000C1F3074205F47F0501F47F412A430A43BD
:10BAA000C2F307219A70120C1A71D9700189DC71E6
:10BAB0000A0A42EA0122A3F805201C7222E019704A
:10BAC000597801F0800162F3C7115970C1680C0404
:10BAD000C1F3074204F47F0401F47F4122430A4387
