:020000022000DC
:1060000000FD0020C1780300E9780300EB7803006D
:10601000ED780300EF780300F17803000000000042
:10602000000000000000000000000000F378030002
:10603000F578030000000000F7780300F97803000A
:10604000FB780300FB780300FB780300FB78030078
:10605000FB780300FB78030065720200FB78030005
:10606000FB780300FB78030099E90200FB7803004A
:10607000FB780300FB780300FB780300FB78030048
:10608000FB7803005D7A0300D1AF0200FB780300C8
:10609000F97A0300FB780300A16D0200FB7803008E
:1060A000FB780300FB780300FB780300FB78030018
:1060B000FB780300FB7803000000000000000000F4
:1060C000FB780300FB780300FB780300FB780300F8
:1060D000FB780300FB780300FB780300000000005E
:1060E00000000000000000000000000000000000B0
:1060F00000000000000000000000000000000000A0
:10610000000000000000000000000000000000008F
:10611000000000000000000000000000000000007F
:10612000000000000000000000000000000000006F
:10613000000000000000000000000000000000005F
:10614000000000000000000000000000000000004F
:10615000000000000000000000000000000000003F
:10616000000000000000000000000000000000002F
:10617000000000000000000000000000000000001F
:10618000000000000000000000000000000000000F
:1061900000000000000000000000000000000000FF
:1061A00000000000000000000000000000000000EF
:1061B00000000000000000000000000000000000DF
:1061C00000000000000000000000000000000000CF
:1061D00000000000000000000000000000000000BF
:1061E00000000000000000000000000000000000AF
:1061F000000000000000000000000000000000009F
:1062000010B5054C237833B9044B13B10448AFF3F0
:1062100000800123237010BD402F002000000000EB
:10622000F0A803000C4B43B10C480D4910B5AFF377
:1062300000800C48036823B910BD0A48036833B9CD
:106240007047094B002BF7D0BDE810401847064BAC
:10625000002BF5D0184700BF00000000F0A8030095
:10626000442F00203C2F002000000000154B002B85
:1062700008BF134B9D46A3F5803A00218B460F467D
:106280001348144A121A13F021FA0F4B002B00D0B6
:1062900098470E4B002B00D09847002000210400A7
:1062A0000D000D48002802D00C48AFF3008013F019
:1062B000BFF92000290000F0BBF913F0A5F900BFD9
:1062C0000000080000FD00200000000000000000A9
:1062D000402F0020BC6000200000000000000000F3
:1062E00041DF70471FB52D4C2268520417D52C4B47
:1062F0001B68032B13DD2F212A4813F0BBFA00285B
:106300003AD02F21274813F0B5FA411C264B274AD3
:10631000D3F8043500920420AA2205F0C7FC03A894
:106320000EF046FC23685B0419D51D4B1B68032B3C
:1063300015DD2F211B4813F09DFA30B32F2119488A
:1063400013F098FA411C184BBDF80C20D3F8043513
:106350000192174A00920420AE2205F0A7FC00210A
:106360004FF4F01000F0F3FE0422C8214FF4F010B7
:1063700000F0F6FE04B010BD5C210A4813F07AFA72
:1063800008B15C21BEE70749C0E75C21054813F06E
:1063900071FA08B15C21D2E70249D4E7502E0020FF
:1063A0004C2E0020BD99030000B00040E899030086
:1063B000029A030010B511200C4600F0B1FE2070C7
:1063C00010BD000013B5164B1B685B040C4617D5B7
:1063D000144B1B68032B13DD2F21134813F04AFACB
:1063E000A8B12F21104813F045FA411C0F4B104A59
:1063F000D3F80435009201945C22042005F056FC89
:106400002146112002B0BDE8104000F095BE5C218D
:10641000054813F02FFA08B15C21E3E70249E5E7EC
:10642000502E00204C2E0020BD99030000B00040EB
:106430000099030007B5174B1B685B0416D5164B74
:106440001B68032B12DD2F21144813F013FAC0B17F
:106450002F21124813F00EFA411C114B114AD3F8A8
:10646000043500920420732205F020FC0322C82189
:106470004FF4F01000F074FE03B05DF804EB00F090
:1064800077BC5C21054813F0F5F908B15C21E0E721
:106490000249E2E7502E00204C2E0020BD99030057
:1064A00000B00040A499030073B5344E3268520422
:1064B00004465DD5324D2A68032A5CDD2F21314820
:1064C00013F0D8F998B12F212E4813F0D3F9411CBD
:1064D0002D4B2E4AD3F804350092019483220420D8
:1064E00005F0E4FB64B1032C3BD002B070BD5C212D
:1064F000244813F0BFF908B15C21E5E72149E7E73B
:1065000033685B0415D52B68032B12DD2F211D4842
:1065100013F0B0F9E0B12F211A4813F0ABF9411C88
:10652000194B1B4AD3F80435009204208B2205F046
:10653000BDFB112000F0F4FD80F00101C9B2112073
:1065400000F0FAFD134802B0BDE8704000F04CBB0B
:106550005C210C4813F08EF908B15C21DCE7094995
:10656000DEE700F0BEFB02B0BDE87040FFF762BF9F
:106570000028B8D1DDE70028B5D1C4E7502E0020AF
:106580004C2E0020BD99030000B000401899030074
:106590002B990300A02D00203038042801D8FFF7E4
:1065A00083BF704703781C2B01D1FFF743BF7047AF
:1065B00007B5194B1B685B0416D5184B1B68032BDA
:1065C00012DD2F21164813F055F9C8B12F211448B8
:1065D00013F050F9411C134B134AD3F804350092C1
:1065E0000420B62205F062FB0021104800F01EFBDB
:1065F00078B10B4A6C2103B05DF804EB11F072BC6A
:106600005C21074813F036F908B15C21DFE7044943
:10661000E1E703B05DF804FB502E00204C2E002073
:10662000BD99030000B0004084990300A02D002014
:1066300080B594B08B4A04AF04214FF4C04005F0FC
:106640001BFB894B1A6812F4804F984618D0874B71
:106650001B68032B14DD2F21854813F00BF900284C
:1066600000F0ED802F21824813F004F9411C814B8A
:10667000814AD3F8043500920420CE2205F016FB9F
:1066800011F08CFB18B17A4AD02111F02BFC00F0EC
:1066900095FD7A4800F0BEFD18B1754AD42111F07D
:1066A00021FC01233B71002407237C71BC71FB7129
:1066B000786800F081FB18B16D4AD82111F012FC06
:1066C00059233C727B7207F10C045523BB720422E0
:1066D000AA2307F108012046FB7200F0F3FD18B170
:1066E000634ABF2111F0FEFB07F11C0600212422A2
:1066F000304612F0EBFF01233B770723FB7787F847
:1067000024305F4BFB625F495F4BBC623046FB63EA
:1067100000F0FCFA18B1564AC82111F0E3FBEFF380
:10672000108E72B6594CA168012581B9584BA560ED
:10673000D3F88020574802402260C3F88000D3F885
:10674000842062604FF0FF32C3F884200D46BEF112
:10675000000F00D162B664214F4800F08BFC00F0BE
:1067600088FA18B1424ADF2111F0BCFB454B1B7877
:1067700063B94A4B93E8070086E80700304600F00B
:106780002FFC18B13A4AEA2111F0ACFB00F0E4FE0C
:10679000D8F800305B0436D5344B1B68032B32DD50
:1067A0003F4BE8468AB0196804AE0023C25C4FEA4A
:1067B000121E02F00F0211F80EE006F813E011F8B5
:1067C00002E006EB43020133102B82F801E0EDD129
:1067D000002386F820302F21254813F04BF800289D
:1067E00036D02F21224813F045F8411C214B2D4A69
:1067F000D3F8043501922C4A00920296EE2204202E
:1068000005F054FAC54600214FF4F01000F09FFC4B
:106810000222C8214FF4F01000F0A2FCA3685BB183
:1068200055B9EFF3108372B6194A21681160616897
:106830005160A56003B962B6FFF752FDFCE75C2129
:106840000B4813F017F808B15C210CE708490EE774
:106850005C21074813F00EF808B15C21C2E7044937
:10686000C4E700BF4DBC0200502E00204C2E00207B
:10687000BD99030000B0004040990300A9640200E4
:10688000A56502005C2F0020B16502003460002085
:1068900000E100E0FC06FFBD99650200F4980300EA
:1068A000542E00206F9903007C99030037B5244BC8
:1068B0001B685B040446154616D5224B1B68032B48
:1068C00012DD2F21204812F0D5FF68B32F211E487A
:1068D00012F0D0FF411C1D4B1D4AD3F80435009225
:1068E0000420AA2205F0E2F9A36B04F13C01204642
:1068F000984794F83C302B7094F83D306B70236CC3
:10690000E3B1626CD2B911F0E3FAA16C11F0E6FACE
:106910004FF47A735843236CC00B98420DD860B182
:10692000181A686003B030BD5C21074812F0A2FF5E
:1069300008B15C21CBE70449CDE700236B60F1E7A8
:10694000502E00204C2E0020299A030000B0004059
:106950004C9A0300F7B5036B0446186811F0A8FAC7
:10696000616C002933D04FF400404FF4FA760027D1
:10697000E0FB01674FF47A7200233046394612F08B
:10698000BBFC236B01462246186811F04BFA054602
:10699000DDB1264B1B685B0417D5254B1B68002B0C
:1069A00013DD2F21234812F065FF002834D02F215A
:1069B000204812F05FFF411C1F4B204AD3F80435DA
:1069C00000920120682205F071F903B0F0BD216C3E
:1069D0000029FAD04FF400404FF4FA760027E0FB8C
:1069E00001674FF47A7200233046394612F084FC76
:1069F000B0F1807F01462246236B09D36FF07F41BF
:106A0000186811F00FFA054611F062FAA064BFE7AA
:106A1000042898BF0521F3E75C21064812F02AFFFD
:106A200008B15C21C4E70349C6E700BF502E00202F
:106A30004C2E0020299A030000B00040709A0300F9
:106A400010B5436C88B00446D3B9026C90F83D3061
:106A500002B1ABB184F83C3006A920468DF818305D
:106A60008DF8193007920BF0CBFB94F84C303BB902
:106A7000636B94F83C1020469847012384F84C300F
:106A8000174B1B685B0420D5164B1B68042B1CDDC1
:106A90002F21154812F0EEFEC8B12F21124812F036
:106AA000E9FE411C114B226CD3F804350492626C50
:106AB000039294F83D20029294F83C2001920C4AF3
:106AC00000920520852205F0F1F808B010BD5C2188
:106AD000054812F0CFFE08B15C21DFE70249E1E78B
:106AE000502E00204C2E0020299A030000B00040B8
:106AF0008E9A0300F7B51D46234B089E1B685B0466
:106B00000446174618D5214B1B68032B14DD2F2193
:106B10001F4812F0AFFE48B32F211D4812F0AAFE05
:106B2000411C1C4B3A78D3F8043501921A4A009262
:106B30000420CC2205F0BAF8002384F84C303B78CE
:106B400084F83D30DDB9656425642046FFF778FFA1
:106B50002046FFF7FFFE3EB194F83C30337094F8C6
:106B60003D307370236C736003B0F0BD5C21084846
:106B700012F080FE08B15C21CFE70549D1E76B68D0
:106B800063642B682364E0E7502E00204C2E002025
:106B9000299A030000B00040579A0300F8B5466CEC
:106BA000044626B100234364FFF74AFF14E0056C56
:106BB00095B14FF4FA7000214FF400474FF47A7208
:106BC0000023E7FB050112F097FBB0F1807F08D3AB
:106BD0006FF4FF731D4425642046BDE8F840FFF7BD
:106BE000B9BE26642046DFE713B5044600F13C0138
:106BF000836B984794F83C3084F83D3000236364FD
:106C00002364236B186811F053F994F83C308DF825
:106C1000003094F83D308DF801306946236C0193C3
:106C200020460BF0EDFA02B010BD000010B504468E
:106C300008B90E2010BD094BC362436B002BF8D07E
:106C4000836B002BF5D00BF0AFFA30B90146044A44
:106C5000206BBDE8104011F0D3B810BD689A030056
:106C60009D6B020003780D2B02D1002003F0AABA1D
:106C7000704703F0B5B930B5837DC27D85B043EA76
:106C800002230446ADF80C3003A801230D46ADF8ED
:106C90000E300DF051FF10BB02AA2146208A0EF0E3
:106CA0001BF9E0B90DF10A032A46BDF80810E08A85
:106CB0000EF080FA98B9217ED4F8120001F001019B
:106CC00002F038FE10B1784600F018FCBDF80A005A
:106CD0000AF05CFF18B901900BF090FD019805B027
:106CE00030BD08B50CF0ECF90DF0B6FEBDE808407B
:106CF00002F0A8BB07B501A80DF05AFFBDF80400CB
:106D0000003018BF012003B05DF804FB73B50E46D8
:106D1000054640B303F0FCF8044608BB0DF0EEFE58
:106D20000CF054FE28690AF001FF0446C0B92B7F1D
:106D30000193AB69009301466B690C4859220BF033
:106D400039F9044660B92B6A03B1984706F0ECFDA7
:106D50000DF0A4FD0CF00EF8FFF7CCFF06B130707B
:106D6000204602B070BD0E24FAE700BF802F00203D
:106D700008B505F069FC20B10020BDE8084003F02B
:106D800021BA0248BDE8084003F0C4B9F02D002044
:106D90004BDF704710DF704760DF704769DF704777
:106DA00007B501A8FFF7F4FF10B103B05DF804FBCD
:106DB000019803F0B1F9F4E730B55F4D2B688BB063
:106DC0005904039016D55D4B1B68032B12DD2F2150
:106DD0005B4812F04FFD18B32F21594812F04AFDBD
:106DE000411C584B584AD3F80435009204207522B0
:106DF00004F05CFF554903A8FFF7CCFF04460028C8
:106E00007CD1534AE02382F8163392F816335B099B
:106E1000012B02D9042B40F0868042F202046DE07F
:106E20005C21474812F026FD08B15C21D5E74449B2
:106E3000D7E71A6842F480021A602B685B0417D502
:106E40003E4B1B68032B13DD2F213D4812F012FD32
:106E5000002856D02F213A4812F00CFD411C394B26
:106E60003C4AD3F80435009204204B2204F01EFF64
:106E7000394B0593059B06930C22002107A812F0BD
:106E800025FC0023069A8DF81C3007A90120FFF786
:106E900085FF0446002831D101460C2207A812F0D4
:106EA00015FCF823069A079307A9A120FFF776FFA0
:106EB000044618BB06A8FFF76FFF059B069A9A4287
:106EC00004461BD02B685A0418D51C4B1B68012B99
:106ED00014DD2F211A4812F0CDFCD8B12F2118480B
:106EE00012F0C8FC411C174B069AD3F804350192E6
:106EF0001A4A009202206D2204F0D8FE20460BB000
:106F000030BD5C210E4812F0B5FC08B15C21A2E74F
:106F10000B49A4E75C210A4812F0ACFC08B15C21E3
:106F2000DDE70749DFE70E4B9968002981D14FF46F
:106F30008003136081E700BF502E00204C2E0020FC
:106F4000CE9A030000B00040FC9A0300F9720200E0
:106F500000E100E0189B0300A02D0020299B030006
:106F600034600020034904484968012300220FF0DF
:106F700032B800BFE02F0020D431002010B50378D4
:106F8000072B10D00A2B19D0022B21D1114B1B78C3
:106F90001BB9BDE81040FFF7E5BF0F4B1B68BBB145
:106FA000BDE8104018470C4B0C48996810220FF0B0
:106FB00056F868B1BDE8104010F0A0BC8168C06808
:106FC000FFF759FE08B110F099FC024B01221A702C
:106FD00010BD00BFDC2F0020E02F0020D4310020A6
:106FE00010B5164A04465168106886B003AB03C357
:106FF0001189927A19809A7094E80700104B83E8FF
:107000000700CAB10F4910480EF0CCFF90B90F4BE2
:1070100000930C4A0C490E4803AB0EF095FF48B99B
:107020000C480FF0C7FE014609480EF0A7FF08B94B
:10703000FFF798FF06B010BD0720FBE7629B030037
:10704000E02F0020EC2F0020083300207D6F02008D
:10705000D43100200C30002010B5054C226832B12C
:1070600011F072F8002802DB23689847F8E710BD9A
:1070700048330020154B164A10B50C461860012104
:10708000144810F0BDFE18B1134A462110F02AFF33
:10709000610C0023E00341F26F728B4208BF824211
:1070A00010D24FF47A72002312F026F90146002222
:1070B0000A4810F0B7FE38B1074A4721BDE8104032
:1070C00010F010BF0521F2E710BD00BF48330020CB
:1070D00059700200709B0300749B03004C33002026
:1070E00010B50C4C206808B910F008FC4FF0A04215
:1070F0000949D2F8043509684B40C2F804352368C1
:10710000013B236023B90548BDE8104010F0D0BE14
:1071100010BD00BF6C33002070330020743300209A
:107120004FF0A043D3F80425012303FA00F01042E6
:107130000CBF18460020704701234FF0A042834047
:1071400011B1C2F80C357047C2F8083570474FF0DE
:10715000A04311B1C3F80C057047C3F80805704788
:10716000D0B522B3132922D9114C124B2060520002
:107170004FF400404FF4FA760027013AE0FB016734
:107180001A6030464FF47A720023394612F0B4F890
:1071900000220146084810F045FE40B94FF0A042D9
:1071A0002168D2F8043523EA0103C2F80435D0BDC2
:1071B000703300206C3300207433002008B54FF08A
:1071C000A04303224FF40031C3F84427C3F8081545
:1071D0004FF48021C3F84827C3F808154FF4002165
:1071E000C3F84C27C3F80815C3F850274FF4801292
:1071F000C3F808250121054A054810F001FE18B121
:10720000BDE8084010F07ABB08BD00BFE170020085
:10721000989B0300D8B10F4B0F4A18604FF0A04362
:107220000020C3F83427C3F83827C3F83C27C3F835
:1072300040270A4B4FF00042C3F80423C3F87C01F7
:10724000074BE02283F8062340221A6070470E2085
:10725000704700BF943300200C0003000060004022
:1072600000E100E0124B70B50024124E124DC3F83D
:107270007C414FF0A043A15DD3F8102501238B4042
:10728000934311D00D492B68D1F80425981A48BFB3
:10729000D01A43F23333984206D9D1F804352B6023
:1072A000074B20461B6898470134042CE1D170BD80
:1072B000006000409C9B03009833002000B0004019
:1072C00094330020082A38B5054614460ED812F02B
:1072D000F2F9C4F108020021281912F0F7F9082286
:1072E0000349A81812F0E7F9002038BD092038BD7D
:1072F000600000100620704730B541F2010398424B
:1073000087B00D461446734B00F081801FD80128CA
:1073100047D01B685B0460D56F4B1B68002B5CDD9E
:107320002F216E4812F0A6FA002800F0C7802F2106
:107330006A4812F09FFA411C694B6A4AD3F8043537
:10734000009201956D22012004F0B0FC45E044F26A
:107350000102904200F0878044F202029042D8D1AC
:107360001B68590439D55C4B1B68002B35DD2F2178
:107370005A4812F07FFA00286CD02F21574812F09B
:1073800079FA411C564B2288D3F80435039262687F
:107390000292554A009201955F22012004F086FC7A
:1073A0001BE01B685B0418D54B4B1B68002B14DDDE
:1073B0002F214A4812F05EFA00B32F21474812F0FD
:1073C00059FA411C464B494AD3F8043500920294BD
:1073D00001955422012004F069FC4FF0A0434FF4C2
:1073E000F012C3F81825C3F80C25EFF3108372B61A
:1073F0003F4A1378002B6AD107B030BD5C21374873
:1074000012F038FA08B15C21D8E73449DAE71B6892
:107410005804E2D5304B1B68002BDEDD2F212F48AE
:1074200012F028FA68B12F212C4812F023FA411CDF
:107430002B4B304AD3F80435009202940195572221
:10744000C8E75C21254812F015FA08B15C21EBE78A
:107450002249EDE75C21214812F00CFA08B15C21C9
:107460008CE71E498EE71B685A04B6D51A4B1B6879
:10747000002BB2DD2F21194812F0FCF9A8B12F2101
:10748000164812F0F7F9411C154B2268D3F8043561
:107490000492626803920295A2680192164A0092D1
:1074A0000120692204F002FC97E75C210B4812F0EE
:1074B000E1F908B15C21E3E70849E5E75C21074809
:1074C00012F0D8F908B15C2132E7044934E730BF43
:1074D0008FE700BF502E00204C2E0020A09B030001
:1074E00000B00040449C0300049C0300C89B0300C0
:1074F000FC2D0020E29B0300239C030007B5002322
:10750000ADF800300146054B01936A4644F2020093
:10751000FFF7F2FE03B05DF804FB00BF569A0300CC
:1075200001461022014812F0C6B800BF9C3300206B
:1075300010B5064C06490822204612F0BCF8082275
:10754000A0180449BDE8104012F0B5B89C330020E3
:1075500060000010A4000010004870479C33002019
:10756000002306491A46C818428042605A5408331C
:10757000B3F5807FF7D1024B1A607047AC3300201F
:10758000AC340020F0B50C4B0C4C1B680646202296
:107590007BB1013B14F8330050B104EBC3056F8895
:1075A000B74202D16D688D4202D0013AF0D1104647
:1075B000F0BD1F23EEE700BFAC340020AC33002049
:1075C00030B5084A084C136804EBC3056960012113
:1075D00004F833100B44202B08BF0023688013608D
:1075E00030BD00BFAC340020AC330020C0F30C032E
:1075F0008B42084438BFA0F50050C01A7047000005
:10760000F0B50E4B0E4C1F680022BA4213D0D100C9
:1076100063185E6800230AE0655805EBC30E15F891
:107620003350854202D1DEF80400F0BD0133B3428D
:10763000F2D10132E9E70020F0BD00BFB0340020F4
:10764000B434002000B58DB040B99A1C06D0012298
:1076500001A88DF80420029301F0FCF8034B186890
:1076600003F0DEFB0DB05DF804FB00BFC03400206A
:1076700010B50378044613B97846FFF73FFFE07969
:10768000431C01209840013810BD0000F8B5037874
:1076900004460F4613B97846FFF730FF0B4B0C4EEC
:1076A0001A68511C02F0070206EBC2051960A38A92
:1076B0006B80A188A069FFF799FF6860E36906F80D
:1076C000327003F001036B70F8BD00BF0835002075
:1076D000C83400202DE9F0410E468EB015461C46F8
:1076E000074610B97846FFF709FF16B97846FFF745
:1076F00005FF14B97846FFF701FF636A6278023329
:107700000593A378A2F10800002B14BF01210221E8
:107710000DF1040842424241434604F10C0003F0DB
:10772000B4FC63788DF83430237BADF82050022B05
:1077300016FA85F5CDF8188007970B960C950FD1A2
:10774000236913B97846FFF7D9FE236909931023FB
:1077500005A8ADF8283003F094FC0EB0BDE8F08128
:107760000023F5E710B50E4B04461B68806E984762
:1077700004F12C0002F0EAFE94F84430022B03D10D
:1077800004F14C0002F0E2FE20466C22002111F0D0
:107790009DFF002084F84400BDE8104002F07AB854
:1077A000C434002010B590F84430012B8CB004464E
:1077B00002D07846FFF7A2FE01238DF8043001A81D
:1077C000236D029301F046F82046FFF7CBFF0CB083
:1077D00010BD0000F8B51F46531E012B04460D4690
:1077E000164602D97846FFF789FEA36E13B1784694
:1077F000FFF784FE1C4B38461B689847A06638B3D9
:107800002C222946204611F056FF0022A264A4F83B
:107810004670A988A869FFF7E9FE012EA06118D17A
:10782000124B84F84E201B7D84F84D3084F84F2095
:1078300084F84C20AB6A23656FF00103A3620C4B04
:1078400063630120E46302F025F884F844600120BA
:10785000F8BD6FF00103A362064B636584F86420F2
:10786000E465054BECE700BFBC3400200C3500207C
:10787000177D0200D1870200357C02001FB500226F
:107880000B468DF80F2028B30230086018460DF122
:107890000F0103F0F8FB9DF80F30DBB1144B1B68B0
:1078A0005B0717D5134B1B68032B13DD2F211248E1
:1078B00011F0E0FF98B12F210F4811F0DBFF411CC0
:1078C0000E4B0F4AD3F804350092042040F2EB220D
:1078D00004F0ECF99DF80F0005B05DF804FB5C21A5
:1078E000054811F0C7FF08B15C21E5E70249E7E769
:1078F000502E00204C2E0020809C030000B0004041
:107900009D9C03002DE9F04799461378D2F8188022
:10791000F2B007468A46144623B191884046FFF7E5
:1079200065FE9061A3786278002BA2F1080003AD98
:1079300014BF0121022104F10C06424242412B46B0
:10794000304603F0A2FB627808951FFA8AF5AB1A5D
:107950009BB20997ADF828301F440023ADF83030B2
:10796000237B8DF83C20022B04BF1022ADF8302081
:10797000A2780E9712AFC4F818800D9704F124086E
:10798000002A5ED04FF0000A237BC4F824A0022B0B
:1079900004BF23690B93206AE17842460DF002FE92
:1079A000606A40BB237B022B05D13146E0890DF094
:1079B0009FFE0028E8D1354B1B685B0718D5344B78
:1079C0001B68052B14DD2F21324811F053FF0028CE
:1079D00052D02F212F4811F04DFF411C2E4B2F4A22
:1079E000D3F80435009206204FF4A56204F05EF946
:1079F00072B0BDE8F08707A9FFF740FF0028CAD0A2
:107A00006178A28AADF82A206D1A01218DF828101C
:107A100096E8030000230B938DF81C300CAB83E831
:107A20000300A37D8DF84030236A0E9307A8636A94
:107A30000897ADF824500F93CDF8449000F00AFF5A
:107A4000D6E7012B62620CD000234146A08A636214
:107A50000DF0E0FD07A9606AFFF710FF0028AAD02B
:107A6000CEE74146E0890DF0D5FD07A9606AFFF732
:107A700005FF0028E8D0C3E75C21064811F0FAFEB4
:107A800008B15C21A6E70349A8E700BF502E0020FB
:107A90004C2E0020809C030000B00040D49C0300CA
:107AA000C37D0A7830B5002B3DD0837822F07F0269
:107AB00003F07F031A430A700B78027803F07F0308
:107AC00043EAC2130B70037863B34378083B5A420E
:107AD0005A414B7803F07F0343EAC2134B708A7814
:107AE000858802F00302C5F3861442EA850223F07A
:107AF0007F032343D2B28A704B70CB78857903F031
:107B00001F03C5F3C10422F0030243EA45132243D5
:107B1000DBB2CB708A70C27923F01F0302F01F0220
:107B20001343CB7030BD83789B0122F0400203F0F9
:107B3000400313430B70C27823F03F0302F03F026F
:107B400013430B70B8E7000010B590F84430012BD8
:107B5000044602D07846FFF7D1FC237B012B0A4B69
:107B600003BFA27D1969DB68DB6808BF01FB023334
:107B7000A36302F071FDA16B014404F12C00BDE888
:107B8000104002F0FABC00BF0C35002070B50D4665
:107B900090B0044610B97846FFF7B0FC00212046AB
:107BA000FFF774FD2C22002105A8266D11F08EFD33
:107BB0000F2305A88DF8143006968DF81C5000F0A0
:107BC00049FE2046FFF7CEFD154B1B685B071BD512
:107BD000144B1B68032B17DD2F21134811F04AFEAD
:107BE000A0B12F21104811F045FE411C0F4BD3F8D6
:107BF0000435029594F8442001920D4A0092042025
:107C00004FF4D67204F052F810B070BD5C210648F3
:107C100011F030FE08B15C21E4E70349E6E700BF5C
:107C2000502E00204C2E0020809C030000B000400D
:107C30005D9C030008460021FFF7A8BF2DE9F04F27
:107C400090F84C5087B0044600274FF0010800F12F
:107C50000C0BE279954203D9384607B0BDE8F08FA6
:107C6000A16C08FA05F30B4252D1E37DA571002BFC
:107C70000CBF0C260826954206FB05FA237808BFA0
:107C8000B4F84660CDF804B008BFA6EB0A06002B96
:107C900014BF4FF004094FF0010906EB09030393E9
:107CA00001A8A36A029303F08EFB0028D4D1059BA0
:107CB000994445B994F84F302BB9A36984F84F80A3
:107CC000C3F30C03A380E37D8BB994F84E3073B9F2
:107CD00015B17846FFF712FCB4F8461062788A1A9C
:107CE000A16E23460846FFF7F5FC84F84E800599FF
:107CF0002046FFF7D5FEA16E32465144484611F0AA
:107D0000DAFC01A803F077FB6B1C013784F84C30D8
:107D10000135EDB29DE710B591F84430012B0C46CA
:107D200002D07846FFF7EAFB94F84D305BB9217B2F
:107D30000129204603D1BDE81040FFF727BFBDE869
:107D40001040FFF72FBD013B84F84D30002384F82D
:107D50004C302046BDE81040FFF770BF2DE9F041E0
:107D6000D47D8AB006460F4615469846002C00F092
:107D70008E809478002C6BD106294AD10278437802
:107D80008178920102F4FE5242EA9302C3781B0406
:107D900043EA016341790B43017943EA01233D49F9
:107DA000084691F84460012E12D18F8AEE89B742BD
:107DB0000ED18E8896420BD16C2202FB0404A56C76
:107DC0001D43A5648BBB03212046FFF7DFFE20E0A7
:107DD0000134042C01F16C01E3D12F4B1B685B07CC
:107DE00017D52E4B1B68012B13DD2F212C4811F0CA
:107DF00041FD88B12F212A4811F03CFD411C294B3F
:107E0000294AD3F804350092022040F2B94203F027
:107E10004DFF0AB0BDE8F0815C21214811F02AFD38
:107E200008B15C21E7E71E49E9E72046FFF720FC9F
:107E3000854203D12046FFF7B5FCEAE7002384F82A
:107E40004C302046FFF7FAFE2046FFF77DFEE0E7C4
:107E50002046FFF7D5FB03460028DAD005F10C01D8
:107E60002A6A089203C9AA8AADF8162006AA82E8EF
:107E70000300AA7D8DF824202A788DF80840039607
:107E800004978DF81420414602A89847C1E7FFF7F0
:107E900039FDBEE724350020502E00204C2E002056
:107EA000809C030000B00040FD9C03002DE9F043DE
:107EB0008BB0054604AF808A8846164601F03CFF29
:107EC000012840F0CE802B7B002B00F0CA80022BD3
:107ED00003D12B69002B00F0C48095F91630002BDC
:107EE000C0F2C1806B782978EA7D3344002900F024
:107EF0008D80002A14BF4FF480724FF4C0729342F9
:107F000000F2B380EFF3108472B6594800224FF0AC
:107F10006C0E0EFB020191F844C0BCF1000F4DD174
:107F2000002C50D00C46012229462046FFF752FC77
:107F300000284CD032464146A06E11F0BCFB4D4BA0
:107F40001B685B0732D54C4B1B68032B2EDDB4F846
:107F500046004300083323F007036D46ADEB030DE5
:107F6000464B04AED3F800E032460023984202F1BB
:107F7000020232D8002306F810302F21404811F0B9
:107F800079FC002839D02F213D4811F073FC411CA9
:107F90003C4B3D4AD3F8043501923C4A009202968C
:107FA00040F2F732042003F081FEAD462046FFF791
:107FB00045FE2046FFF7C8FD002409E00132042AEF
:107FC000A7D10CB103E00C4662B6002CABD104245F
:107FD00020461C37BD46BDE8F083A16EC95C4FEA60
:107FE000111C01F00F011EF80CC002F802CC1EF8A3
:107FF000011002F8011C0133B8E75C21204811F0A0
:1080000039FC08B15C21BFE71D49C1E7002A14BF54
:108010000B220F22934228D80133FB6005F10C0399
:108020007B60381DAB6ABB6003F0CDF904460028C5
:10803000CED17969284601F10109FFF731FDEB7DC9
:1080400043B132464146484611F035FB381D03F036
:10805000D2F9BDE72B46324649464046FFF73AFB88
:10806000F4E71024B4E70724B2E70924B0E700BF1F
:1080700024350020502E00204C2E0020542E0020AD
:10808000809C030000B000402B9D03007C990300FE
:10809000EFF3108372B6044A04491160044A05499B
:1080A000116003B962B67047BC34002079960300B2
:1080B000C43400208996030010B5FFF7E9FF4FF4A0
:1080C000D8720021144811F001FB002404F088FC50
:1080D000124B13481C602146402211F0F7FA114B55
:1080E0001148124A12499C7583E805004CF250323F
:1080F0009A601A6104221A750E48D96008225A75CE
:1081000002F070FE0C4B18600C4B0D481C60BDE873
:10811000104004F071BD00BF243500200835002058
:10812000C83400200C35002080969800F0490200E9
:1081300020A1070029830200C0340020B0340020B1
:108140004576020070B504468CB000284DD0056914
:10815000002D4AD0C369002B47D08669002E44D039
:108160005A788DF807201A780A93037BC17A022B7C
:1081700004BF204B9B7D002B82F0010214BF08231B
:1081800004238DF806208DF80530828AC3F10F0094
:1081900019B9824201DC082B29D08242C8BF0121D3
:1081A0008DF8041051B113440B330C2193FBF1F300
:1081B000013B8DF80B3000238DF80A3094E8030062
:1081C00000238DF81B3004AB83E803002389ADF84E
:1081D0001830A37A8DF81A302946236A099601A827
:1081E0000B93FFF763FE0CB070BD0E20FBE707207A
:1081F000F9E700BF0C350020F0B503468DB00F46FF
:1082000000283AD04468002C37D08569002D34D03E
:10821000027C12F0FD0F32D00278110631D48DF8B5
:10822000062082680B2A98BF007B4FF0000188BFB0
:1082300001200A918DF804008DF8051030B1D01D91
:10824000C00801388DF80B008DF80A1001218DF857
:108250001B1003F1100103C904AE86E80300D9899D
:10826000ADF818101B7F0995214601A88DF81A302A
:108270000B97FFF71BFE0DB0F0BD0E20FBE71020A3
:10828000F9E70720F7E7000070B5067B012E8AB0FA
:1082900004460D4643D106220021684611F016FA25
:1082A000A1889DF800208DF80550C1F3861322F0B7
:1082B0007F021A439DF801308DF8002003F003037C
:1082C00043EA81038DF801302B0E8DF802302B0C20
:1082D0008DF803302B0A8DF8043006230493A38A0B
:1082E000ADF81A30002307938DF808308DF814305C
:1082F000E389ADF81630A37D226A8DF81860CDF8B9
:108300000CD0089243B96FF0010102A88DF8243017
:10831000FFF772FF0AB070BD024B5B7DF3E70020F0
:10832000F8E700BF0C35002070B51B4E002435194E
:1083300095F84430012B06D12846FFF77FFC10B199
:108340002846FFF701FC6C34B4F5D87FEFD1124C0E
:1083500004F5D87594F84430022B17D194F86430A2
:10836000022B13D1A16C2046FFF78EFF70B984F861
:1083700064002046A66CFFF77BF9864206D12046B2
:108380000121FFF783F92046FFF7ECF96C34AC428A
:10839000E0D1012070BD00BF243500202DE9F04759
:1083A0000D469AB0144698460646002800F0FA8119
:1083B000002A00F0F7810DF1080900210822484643
:1083C00011F084F9494660880DF092F920B9002730
:1083D00038461AB0BDE8F0872269E168208902F0CA
:1083E000010204F0CDFA82460028F0D12269E1684A
:1083F000208902F0010204F097FA0746A8B12C2266
:1084000051460FA82589247C11F060F90E238DF8C0
:108410003C309DF84230ADF8405064F300030FA8A3
:108420008DF8423000F016FAD2E70DF11C0A18223E
:108430002146504611F03FF9337803F08002111CB9
:1084400018BF01218DF810109DF82710E1B103F03D
:108450007F038DF812308DF811705AB37278B378AB
:10846000920102F4FE5242EA9302ADF81420DB00BE
:10847000F27803F0180343EA521302F01F028DF85A
:1084800016308DF8172015E0C3F380118DF8121007
:1084900003F03F018DF81310190608D596F9013045
:1084A000002BACBF042308238DF81130D5E704233B
:1084B0008DF8113099E8030000240D948AE8030038
:1084C00002F04EFC9DF81030002B00F06481B74B99
:1084D000BDF82420994693F8441002290DD1998AB9
:1084E00091420AD16C2303FB0494BDF81420A388A5
:1084F0009A4231D202F056FC6AE70134042C03F1AF
:108500006C03E8D100249DF8103013B97846FEF7CB
:10851000F5FF0B9ABDF814100A98BDF824A002F0DC
:108520000102FFF763F8A24B4FF0000E9C4659681A
:10853000884217D15988514514D15978914211D1A7
:108540001CF83E30002BD5D004A8FFF791F8014667
:1085500004A8FFF799FECDE7D5D905212046FFF7FE
:1085600015FBCFE70EF1010EBEF1080F03F1080372
:10857000DDD1002C5DD19DF827209DF81730002A11
:108580000CBF4FF00C0A4FF0080A03FB0AAA0CBFFD
:108590004FF4C0734FF480739A4539D9854B1B68EB
:1085A0005A0719D5844B1B68002B15DD2F218348F2
:1085B00011F060F918B32F21804811F05BF9411CCC
:1085C0007F4B804AD3F804350092CDF804A040F2E6
:1085D0006322012003F06AFB002104A8FFF754FE88
:1085E0002C2200210FA811F071F80F238DF83C30D8
:1085F0000FA802238DF8443000F02CF97AE75C21B3
:108600006E4811F037F908B15C21D5E76B49D7E71F
:1086100023466C2202FB039494F84410002940F096
:10862000A1805346022204A92046FFF7D3F8002870
:10863000D2D0604B1B685B071CD55F4B1B68032BBC
:1086400018DD2F215D4811F015F9002800F08F800A
:108650002F215A4811F00EF9411C594B9DF8162054
:10866000D3F804350192584A0092042040F2A72220
:1086700003F01CFB94F84430022B02D07846FEF73E
:108680003DFFDFF84891D9F800A001F0E5FF0AEBC3
:10869000000104F12C0001F070FF237B012B1CD1A1
:1086A00094F86430CBB994F84430022B02D0784669
:1086B000FEF724FFD9F8043099F81510D9F80820EE
:1086C00002FB013901F0C8FF00EB090104F14C0085
:1086D00001F053FF012384F864309DF81630A16C3B
:1086E0000120984001427FF405AF0143A164E17984
:1086F0009942A5F104029DF8271041D1002914BF29
:1087000008210C2103FB0121A56EA4F846100CBF23
:108710000C20082000FB0350311D10F0CCFF204638
:10872000A56CFEF7A5FF85427FF4E4AE022384F832
:108730006430A16C2046FFF7A7FD4346054622465C
:10874000B4F84610A06EFFF709FB002D7FF4D2AEFF
:10875000204684F864500121FEF798FF2046FFF779
:1087600001F8C7E60133042B7FF454AF34E75C21F2
:10877000124811F07FF808B15C216AE70F496CE7F5
:1087800091B90C2A02D1A56E1046C3E704212046F8
:10879000FFF7FCF9AEE6434604AA691E701CFFF71A
:1087A000DDFAA7E60E2713E6082AEBE724350020BA
:1087B000C8340020502E00204C2E0020809C030046
:1087C00000B00040B09C0300C49C03000C350020A6
:1087D00010B591F84430022B0C4602D07846FEF7D3
:1087E0008DFE022384F86430A16C2046FFF74CFD17
:1087F00008B984F8640010BD2DE9F04188460746A9
:10880000E8B1124E3468C4B92546454507D1104B2E
:108810001F605D60012333602046BDE8F08107EBF7
:10882000C5035B685BB117F83500030609D450B186
:10883000FEF7E6FE38B90135E7E70424ECE70E243D
:10884000EAE70B24E8E70F24E6E700BFB034002096
:10885000B4340020F8B5074610B97846FEF74EFE4E
:108860000F4E346894B10F4D01232B7023791BB93F
:1088700054F8043C384698472468002CF6D12B78ED
:10888000022B03D13168064C09B92970F8BD0B7968
:108890000E6813B1204603F090F93146F4E700BFAB
:1088A000D8360020D436002010B5044610B97846DA
:1088B000FEF724FE00232372211D0248BDE810406C
:1088C00003F05AB9D836002010B5044610B97846DE
:1088D000FEF714FE074A1378013B012B04D802234C
:1088E00013700123237210BD211D0348BDE8104001
:1088F00003F063B9D4360020D83600200B88826894
:10890000D25A073222F00302134402889BB2043A7F
:10891000934288BF00230B80704770B5064615460A
:108920000C4611BB7846FEF7E9FDFEB17846FEF72E
:10893000E5FD6B1E2344B3F1005F34D94FF0805244
:10894000D2F80C2102F50022B3EB822F2ED2042D97
:1089500002D87846FEF7D2FD35800023043D7380AF
:10896000B380B4602580A37070BD10B97846FEF75F
:10897000C5FDB4F1005F12D94FF08053D3F80C312C
:1089800003F50023B4EB832FD3D34FF08053D3F8F8
:108990000C3103F50053B4EB832FC7D2C9E7B4F50C
:1089A000000FF2D8C2E7B3F5000F08D94FF080529C
:1089B000D2F80C2102F50052B3EB822FC7D37846D0
:1089C000FEF79CFDC3E737B5044610B97846FEF7BD
:1089D00095FD6288A36813449B78012B02D17846E9
:1089E000FEF78CFDA288A3681344EFF3108572B6DE
:1089F0009A78A168032A11D15B1A02A9204621F8AE
:108A0000023DFFF77BFFBDF80620A3686280134498
:108A100000229A7005B962B603B030BD00228A7098
:108A20006280A280F6E770B50E461546044610B97E
:108A30007846FEF763FD16B97846FEF75FFD62885B
:108A4000A36813449B78012B02D17846FEF756FDAC
:108A5000002D31D021880B1F9BB29D422CD86088FD
:108A6000A388EA1D22F00302984292B204D21B1A94
:108A70009A420FDD042070BD15D9091A914209D21E
:108A80009A42F7D8032981BFA3681B1804229A7061
:108A9000002363806288A1688B188D5201229A702E
:108AA0003360002070BDA26813449B78002BE1D195
:108AB00093706380A380EDE7092070BD70B50D460B
:108AC0001646044610B97846FEF718FD15B97846E3
:108AD000FEF714FDAB78012B02D07846FEF70EFDB1
:108AE0002B88B34202D27846FEF708FD16B97846C5
:108AF000FEF704FD0223AB70E1182E802046FFF73D
:108B0000FDFE6288A38893421FBFA3689B180022C2
:108B10009A7070BD38B50D46044610B97846FEF718
:108B2000EDFC15B97846FEF7E9FCA288A36813446A
:108B30009A78042A06D1211D2046FFF7DFFEA2887D
:108B4000A36813449A78022A03D0032A06D005208A
:108B500038BD03229A702B60002038BD7846FEF79E
:108B6000CDFCF9E713B5044610B97846FEF7C6FC0C
:108B7000A288A36813449978042909D102A9204640
:108B800021F8022DFFF7BAFEBDF80620A3681344B2
:108B90009878831E5842584102B010BD13B5044660
:108BA00010B97846FEF7AAFCA288A3681344987807
:108BB000C21E012A04D9831E5842584102B010BD7A
:108BC000A2680DF106019B1A2046ADF80630FFF7AA
:108BD00095FEBDF80620E8E770B50D46044610B9CD
:108BE0007846FEF78BFC15B97846FEF787FCAB7824
:108BF000012B17D0032B20D1A288A36813449D42D8
:108C000002D07846FEF77AFC0026AE70211D204681
:108C1000FFF774FEA288A36813449B78042B11D13C
:108C2000A68070BD6288A36813449D4202D0784636
:108C3000FEF764FC0023AB7070BD7846BDE8704061
:108C4000FEF75CBC70BD037942799B1A03F57F2364
:108C500003F6FF7300EB03307047000010B50548C2
:108C600084681C22002110F031FD2046BDE8104030
:108C700003F0FCBCDC36002070B51C4CE36813B973
:108C80007846FEF73BFC237E13B17846FEF736FCB0
:108C90006368092B02D97846FEF730FC144D002694
:108CA000636855F823309847022811D003280DD067
:108CB000012815D163680133092B636002D9784616
:108CC000FEF71CFC237E002BEAD00DE06660F9E77E
:108CD000237E0BB1207070BDBDE87040FFF7BEBFB2
:108CE00000F0FD000128EDD070BD00BFDC36002093
:108CF0003C9D030010B50388044613B97846FEF77F
:108D0000FDFB2088074B04EB800030EA030203D010
:108D10006288B2F5FE4F04D11C4004F580542078DF
:108D2000204410BD00F0FFFF70B504460E4647F624
:108D3000FE65FFF7DFFFB04207D2844205D24388C9
:108D4000013B9BB2AB42F4D870BD002070BD000067
:108D50000B78032B094B04BF00221A761A78012ADC
:108D600003D11B7E43B9FFF787BF022A04D10B78DA
:108D7000032B01D1FFF772BF704700BFDC36002024
:108D800010B50C4CE3681878002203F580511844A4
:108D900003F0F6FE50B9E1680846FFF754FF814240
:108DA00006D001F58051E160032010BD012010BD07
:108DB000022010BDDC3600201FB50A4B02221B68C2
:108DC0008DF800200193084A4FF480536946012032
:108DD000029300F03FFFB0FA80F0400905B05DF863
:108DE00004FB00BFFC360020F83600201FB501232D
:108DF0000190039102926946044A8DF800301846AA
:108E000000F028FF05B05DF804FB00BFF836002035
:108E100038B5104CE36818784FF6FF7203F58051AF
:108E2000184403F0ADFE88B1E36819780B4498420A
:108E30000CD0657E084B09490422002D08BF194655
:108E4000FFF7D4FF20B90120207638BD012038BDBE
:108E5000002038BDDC360020F49E0300F89E03009D
:108E60002DE9F047224EF06803794279013B9A429E
:108E700002D10120BDE8F08700F580531D491C7820
:108E80001C440B6813F8045F1D44FFF7DCFE638885
:108E9000013B9BB247F6FE62934200F5805788463D
:108EA00004D920463946FFF73FFF0446DFF848A0C3
:108EB0004FF00109002CDCD0D8F800106288284659
:108EC00001F5805103F05CFE05460028D1D0042254
:108ED0005146204686F81890FFF788FF28B92046AB
:108EE0003946FFF721FF0446E4E70020BDE8F0879C
:108EF000DC360020FC360020F09E030070B50C4DDF
:108F00000C4EE96830680C7804302246FFF76EFF9B
:108F100060B9336804F0FC0404341C44EB686C61F1
:108F20001A78687613442B61012070BD002070BD53
:108F3000DC360020FC36002008B5054B05491868D2
:108F40000422FFF753FFB0FA80F0400908BD00BFCC
:108F5000FC360020E836002010B5074B074C196896
:108F6000E06840F6FC720431FFF740FF10B90120C1
:108F7000207610BD002010BDFC360020DC3600201D
:108F800010B50C4CE1680846FFF75DFE81420AD13E
:108F9000094B0A4918680422FFF728FF40B901234A
:108FA0002376022010BD01F58051E160032010BD41
:108FB000002010BDDC360020FC36002000370020E9
:108FC0002DE9F74F3A4C236913B97846FEF796FA24
:108FD000636913B97846FEF791FADFF8D8904FF03D
:108FE000000847F6FE6A637E13B9B8F1000F01D09E
:108FF000012053E06369E06803EA0907FF1A07F5F7
:10900000805327690093FFF71EFE7A88013A92B2D7
:10901000524500F5805B06D938465946FFF784FE75
:109020000746002840D03D4600265D451BD22988D2
:10903000009B06EB81018B4209D987EA050212EAFF
:10904000090F04D16A88013A92B2524503D95EB938
:109050004FF0010819E028460191FFF74BFE0199F6
:1090600005460E46E1E7E6B1324639466069FFF74C
:10907000BDFE90B9636926F003063344636115B9F8
:109080007846FEF73BFA256125B16A8847F6FF73FB
:109090009A42A8D101236376A5E7002003B0BDE87A
:1090A000F08F4FF00108EFE74FF00108F2E700BF43
:1090B000DC36002000F0FFFF1FB50A4B0222DB6800
:1090C0008DF800200193084A4FF48053694601202F
:1090D000029300F0BFFDB0FA80F0400905B05DF8E2
:1090E00004FB00BFDC360020F836002010B54FF03E
:1090F00010235A69013225D05A691AB35B69A3F566
:109100008053A3F58053174A196813604B1E03332D
:1091100025D8C1F30B0313BB134A1448D1600121B6
:109120001170134913765376936051F823408442AB
:109130000ED153600F49012000F07CFDFFF79CFD2C
:10914000012010BD4FF08052516913694B43D8E79D
:1091500001330A2BE9D17846FEF7D0F9EAE700207F
:1091600010BD00BFFC360020DC360020B9900200A4
:109170003C9D0300518D0200024B1878003018BF4F
:1091800001207047DC36002038B50E4C23780546A8
:1091900013B17846FEF7B2F92B78032B02D078464C
:1091A000FEF7ACF9EB68E360012000230649A560F7
:1091B000636023762070637600F03CFDBDE83840A4
:1091C000FFF75ABDDC360020518D0200014B1868B4
:1091D000704700BFFC36002010B5044610B9784631
:1091E000FEF78CF963681BB123680BB1A36813B950
:1091F0007846FEF783F9A3685A1E1A4202D07846D1
:10920000FEF77CF90023E360236110BD38B5054605
:10921000F0B1E9B18368EBB1EFF3108472B6836803
:109220002A69C0681A44824203D104B962B6042490
:109230000CE0013B034095E8050002FB030010F041
:109240003AFAEB680133EB6034B962B6204638BDB8
:109250000E24FBE70924F9E70024F7E770B50E4672
:109260000446F0B18368F3B1EFF3108572B601697B
:10927000C368994203D105B962B605250FE04EB126
:109280008368013B0B4090E80600304602FB031167
:1092900010F011FA23690133236135B962B628460B
:1092A00070BD0E25FBE70925F9E70025F7E700006B
:1092B000024AD2F80034002BFBD0704700E0014096
:1092C000C0F30B0310B5E3B9E9B1104C0223C4F8A5
:1092D0000435FFF7EDFF01F6FF7121F47F6121F006
:1092E0000F010144884205D10020C4F80405FFF7AE
:1092F000DFFF10BDC4F80805FFF7DAFF00F5805066
:10930000F0E7102010BD092010BD00BF00E00140B3
:1093100070B540EA010414F003041BD1E2B19507D3
:109320001AD10E4E0123C6F804359508FFF7C0FF89
:10933000AC4205D10020C6F80405FFF7B9FF70BDA7
:1093400051F824305A1C03D040F82430FFF7B0FF06
:109350000134EDE7102070BD092070BD00E0014030
:1093600010B5104C4FF480520021204610F0AEF999
:109370000D4B04F57F611C60282004F130030022AE
:1093800023F8300C23F82E2C43F82C3C30338B423E
:10939000F6D13823A4F8C03FA4F8C22FC4F8C42FD4
:1093A00010BD00BF043700200447002008B5082284
:1093B0000221094802F0CAFF20B90848BDE8084068
:1093C00003F02AB9064A91684160127B0272BDE837
:1093D000084002F0E9BF00BF10470020102E002017
:1093E0005C47002010B5044610B97846FEF786F8B1
:1093F0002346BDE81040184738B50E4D2B78C3B949
:109400000D4B5C6804F50054B4F1807F11D8042240
:1094100001210A4802F09AFF20B90948BDE8384006
:1094200003F0FAB8012344602B70BDE8384002F025
:10943000BBBF38BD704700205C47002010470020AC
:10944000002E002010B501210C4802F0C3FF80B9A6
:1094500002210A4802F0BEFF044650B90146142218
:10946000074810F033F9074B1C70BDE81040FFF7B8
:10947000C3BF054803F0D0F8F7E700BF104700204E
:109480005C47002034470020302E002030B50D46C8
:109490008DB07AB94B88012B0AD1124C227812B9BF
:1094A0007846FEF72BF8104B6A685A600023237049
:1094B0000DB030BD032A02D07846FEF71FF82C22EB
:1094C000002101A810F002F910238DF80430074B99
:1094D0000395DA681B69059201A80693FFF7BAF9AC
:1094E000E6E700BF704700205C47002010470020DF
:1094F00070B503F0A9F8D8B101F032FC0022114692
:109500001C481C4C02F0F2FE00263546B0B91A4C3D
:1095100005B10EBB00232360A3602373FFF746FF52
:1095200023686360FFF768FFBDE8704001F03ABC54
:1095300001F0DAFC0028DCD020BFDAE74388012BF9
:1095400008D0022B00D1051D02460021204602F062
:10955000CDFEDBE7061DF7E72B68A3602B792373AD
:10956000B54203D92B790BB92060D9E73368236062
:10957000D6E700BF104700205C47002008B503F085
:109580009BF8A0F5805008BD7FB5002118226846E1
:1095900010F09CF800230293FFF7F0FF01230090E6
:1095A00001936946054B0648039302F03AFF10B158
:1095B000044803F031F807B05DF804FB8D94020015
:1095C00010470020202E002008B5142200210A4850
:1095D00010F07CF801F040F8084B094A9A60094AFB
:1095E000DA60002258601A615A61074B1A70BDE8B0
:1095F0000840FFF7C9BF00BF5C4700203847002084
:1096000025970200008793037147002010B5074C8F
:1096100023784BB90648074B036000F07BFD0648F2
:1096200000F072FF0123237010BD00BF0C47002023
:10963000504700208D9702003847002030B58DB08C
:1096400001F08EFB154B1A7B1D4622BB9A7B12BB89
:109650001A8A41F282639A4202D8114B1B78D3B125
:1096600001232B73AB6800240133AB602C82FFF71E
:109670009DFEAB682A7B8DF80820013B0CA8049363
:10968000022300F82C3D0394FFF7E4F801F08AFB75
:1096900020460DB030BD0824F8E700BF5C4700202D
:1096A0007147002010B58CB001F05AFB1B4B5A7B60
:1096B00042B1997B99B9188A41F28261884201D8F6
:1096C000174A127802F001047AB1197B00225A730A
:1096D00039B101290ED07846FDF710FF05E00022D0
:1096E000F0E7FFF7ABFF0028F5D101F05BFB204668
:1096F0000CB010BD1A605A601A731A820CA89B68CD
:109700000493022300F82C3D8DF808200392FFF704
:10971000A1F8FFF74BFEFFF76FFEE6E75C4700207E
:109720007147002038B5174C257B2DB1012D12D083
:109730007846FDF7E3FE21E0228A41F282639A42F5
:1097400002D8114B1B78CBB1FFF7ACFF638A0BB18A
:10975000013B638238BD238A41F28262934202D880
:10976000094A157855B142F2B012934282BF0123E3
:1097700000256373FFF796FF002DE7D0238A01339E
:109780002382E3E75C4700207147002030B503786F
:10979000042B8DB00FD143681B7863B1224C436911
:1097A000217B027E002939D1618A61BB012AA2682E
:1097B00003D0934204D80DB030BD0132934224D976
:1097C000A2682A329342F6D8A27B002AF3D1856898
:1097D000A36042F606532260626022826382627353
:1097E0002273FFF7E3FDFFF707FE237B8DF80830B8
:1097F0000CA80223A26800F82C3D103504920395B2
:10980000FFF728F8D7E7012AD5D1A26801329342A1
:10981000D1D101236373FFF745FFCCE70129CAD1FA
:10982000012AC8D0A268F2E75C47002038B5164C80
:1098300094E80C009A4205461FD2207B1349144B32
:10984000012808BF0B46934207D963682268403B52
:109850009A4208D3FFF7D0FD05E001236373FFF7B9
:1098600021FF0028F1D0EFF3108072B623685A1C54
:1098700022602B6028B962B638BDFFF7BDFD0F200E
:1098800038BD002038BD00BF5C47002000E0FF006D
:10989000FFFF7F0010B50C4C30B10C4B01229A73C6
:1098A00023681344236010BD236813B97846FDF77D
:1098B00025FE2368013B23602BB9044A9373BDE85E
:1098C0001040FFF7EFBE10BD084700205C470020A6
:1098D00000B58DB00323ADF808000CA88DF810205A
:1098E00000F82C3D0391FEF7B5FF0DB05DF804FBC9
:1098F000014B9868704700BF5C470020034B1A7B00
:109900009868012A08BF00F1FF3070475C470020CB
:10991000044B9B685840C20748BF03F1FF33184609
:10992000704700BF5C470020014B187B704700BFA9
:109930005C47002038B5094B1C7864B9084D0122FA
:10994000A8601A702973FFF731FD2C606C60FFF777
:1099500053FD204638BD082038BD00BF34470020E5
:109960005C4700202DE9F8431D4CDFF87890002675
:109970000221204602F00EF85FFA86F8054600271D
:10998000ADB967B12946204602F06CF8082806D127
:1099900054F8043C1BB12A464946404698470136D4
:1099A000032E04F1BC04E3D10120BDE8F88354F890
:1099B000043C23B134F80C2C29464046984734F82F
:1099C0000C3C013324F80C3C0221204601F0FEFF40
:1099D0000221204601F0DEFF01370546D0E700BF37
:1099E00088470020649D030010B5012104460C3017
:1099F00001F0D0FF002834D01A4BC4F89C3000236B
:109A0000C4F8A03003786268012B07D0022B23D062
:109A10007846FDF773FD4FF4FA7307E083689B1AED
:109A20009A084FF4A973534303F5FA730E4A93420D
:109A300094BFC4F8A830C4F8A8200123C4F8AC40EF
:109A400084F8B83004F19C0005F002F848B178467B
:109A5000BDE81040FDF752BD83689B1A1A0B034BFB
:109A6000E1E710BD719A0200A0860100645E01006A
:109A70002DE9F74F4A4B1B7880460D463BB105F068
:109A80001DF8002385F8B83003B0BDE8F08F01F170
:109A90000C09D1F8A8704846012101F07BFF064669
:109AA00010B97846FDF72AFDDFF8FCA0A7F5FA7794
:109AB00000244FF4A97B3378012BA7EB040406D0D4
:109AC000022B3BD07846FDF719FD00231FE06B68A1
:109AD000B268B4FBFBF4D21AA400944228BF144627
:109AE00024B901937846FDF709FD019BF168706880
:109AF00023F00303224619441844FFF709FC10B170
:109B00007846FDF7FBFC6B681C446C60B3686A68C0
:109B10009A422AD104F0D2FF4846012101F056FFB3
:109B200000236B6085F8B8301E4B186801F078F997
:109B3000284603B0BDE8F04FFFF756BF6B68B26828
:109B4000B4FBFAF4D21A2403944228BF144624B971
:109B500001937846FDF7D2FC019B706823F0030364
:109B600021461844FFF7ACFBC9E700F075FD3378D8
:109B7000B0EB080448BFA8EB0004012B0DD0022B6A
:109B800006D1534623449F4295D204F097FFCFE776
:109B90007846FDF7B3FC0023F4E74FF4A973F1E72F
:109BA0007847002074470020645E0100F8B51E4825
:109BB0001E4C01F017F91E4B186004F11C03082716
:109BC00010260325636104F10C0004F118032361DE
:109BD000A7736673257301F020FF04F1D803C4F85E
:109BE000D03004F1C80004F1D403C4F8CC3084F8B8
:109BF000CA7084F8C96084F8C85001F00EFF04F5FB
:109C0000CA73C4F88C3104F5C87384F8867184F87B
:109C1000856184F88451C4F8883104F5C270BDE8C8
:109C2000F84001F0FABE00BF659902007C470020B1
:109C300074470020022838B504460D4602D97846FC
:109C4000FDF75CFC024BBC2202FB0434A56038BD6E
:109C50007C47002002282DE9F84F05460C46924625
:109C600002D97846FDF74AFC14B97846FDF746FC60
:109C70002378012B12D16368990702D07846FDF74B
:109C80003DFCE3689A0702D07846FDF737FCA368ED
:109C90009B0711D07846FDF731FC0DE0022B0DD16A
:109CA0006368C3F30B0313B17846FDF727FCA36881
:109CB000C3F30B03002BEDD1A36813B97846FDF76E
:109CC0001DFCEFF3108872B6BC276F43184E07F1E6
:109CD0000C09B1440021484601F05CFE834600B304
:109CE0000021484601F072FE1022214658460FF02E
:109CF000E2FCBAF1000F03D0F3195B88AAF8003038
:109D0000BC2303FB05656B8895F8B80001336B80B5
:109D100028B9084B1C782CB9F019FFF765FE002014
:109D200000E00420B8F1000F00D162B6BDE8F88F62
:109D30007C4700207847002010B1800B014B185C55
:109D4000704700BF749D030012DF704713B513788E
:109D500063B1042B0CBF0723002310F8011C292931
:109D600062D005D8162973D002B010BD537DF4E738
:109D70002A2927D02B29F7D1022BF5D110F8021C64
:109D80000139C9B202F052FE04460028ECD0374B2C
:109D90001B685B06E8D5364B1B68012BE4DD2F21E1
:109DA00034480FF067FD002849D02F2131480FF0CB
:109DB00061FD411C304B314AD3F8043500920194C7
:109DC0009D2224E0022B01D0072BCDD110F8021CDC
:109DD000013901F033FB04460028C5D0234B1B6832
:109DE0005A06C1D5224B1B68012BBDDD2F2121480E
:109DF0000FF040FD78B12F211E480FF03BFD411CB4
:109E00001D4B1F4AD3F80435009201948A22022088
:109E100001F04CFFA8E75C2116480FF02BFD08B1BC
:109E20005C21E9E71349EBE7022B9DD110F8021CF6
:109E30000139C9B202B0BDE810400CF0D9BF5C21B5
:109E40000C480FF017FD08B15C21AFE70949B1E7F5
:109E500001884FF6E463994286D110F8021C023063
:109E6000033902B0BDE81040FDF744BA502E00207F
:109E70004C2E0020B29D030000B00040F79D03006F
:109E8000CE9D030070B58AB005F092FA0446002812
:109E900034D000238DF8103006460FCE05AD0FC527
:109EA00033682B60627D052A0CD9207D00F00F03FA
:109EB000072B07D004AB063A04F11D0100F00F0098
:109EC00004F0C2F9114B1A68AAB104AB0393237DC5
:109ED000C3F303038DF80430637D062B89BF063B73
:109EE00000238DF8053004F11D0398BF8DF805306F
:109EF000029301A89047204605F044FA05F070FA55
:109F000080F00100C0B20AB070BD00BFB4490020AB
:109F1000F7B52F4F3A780546002A4ED100284ED08B
:109F2000067A06F0F703072B4BD1C068002841D012
:109F3000FDF7F6FA0DF10700FFF706FF0446B0BB88
:109F40009DF80730012B3ED1FDF70AFB00F0CAFA5D
:109F5000304600F0CFFEE87800F050F900F01EFE29
:109F600004F046FD1B4805F0D3FA04F0DFFAFFF7D2
:109F70001DFE03F095FC00F0D1FC04F0F3F8284638
:109F800001F008FA2846FEF797F803F0A7F82846EC
:109F9000FFF7E6F9FDF7AEF908B1062815D10E482E
:109FA00004F024F90D4B00221A6001233B70204677
:109FB00003B0F0BDFDF7BCFABCE70824F7E70E24B8
:109FC000F5E70724F3E70224F1E70446EFE700BFD3
:109FD000B1490020859E0200402E0020B449002097
:109FE00037B5264B1B78002B44D0254D2A78002A04
:109FF00040D100F0F7FD10B17846FDF77FFA04F08C
:10A0000019FD002838D105F0ABF901F0D5F9FDF7BD
:10A0100071F9044650B3062828D01A4B1B685B041C
:10A0200018D5194B1B68012B14DD2F2117480FF091
:10A0300021FC90B12F2115480FF01CFC411C144B42
:10A04000144AD3F80435009201944FF4C4720220EC
:10A0500001F02CFE204603B030BD5C210B480FF010
:10A0600009FC08B15C21E6E70849E8E701232B7009
:10A070000024EFE70824EDE70446EBE7B1490020B0
:10A08000B0490020502E00204C2E0020B29D03002D
:10A0900000B000408D9D030037B5184B1B685B0472
:10A0A00004460D4619D5164B1B68062B15DD2F21CE
:10A0B00014480FF0DFFBB8B12F2112480FF0DAFB84
:10A0C000411C114B114AD3F804350192104A0092F9
:10A0D00007204FF4D77201F0E9FD2946204603B06E
:10A0E000BDE83040FEF72EB85C2106480FF0C2FBF9
:10A0F00008B15C21E1E70349E3E700BF502E0020EF
:10A100004C2E0020B29D030000B00040789D03005B
:10A1100080990300FEF7C8BB08B500F023FD0020BE
:10A1200008BD7047044B1A680132B2F1704F08BF86
:10A1300001221A6018687047B849002010B504461B
:10A1400010B97846FDF7DAF900232360636010BD8B
:10A1500038B50D46044610B97846FDF7CFF915B964
:10A160007846FDF7CBF900236B60EFF3108372B6EE
:10A17000226822B92560656003B962B638BD62689D
:10A180005560F8E710B5044610B97846FDF7B6F902
:10A19000EFF3108272B6206808B143682360236829
:10A1A00003B9636002B962B610BD10B5044610B9B8
:10A1B0007846FDF7A3F9206810BD35DF70473CDF16
:10A1C0007047000008B503464FF0FF30FFF7F5FF7A
:10A1D0004FF0FF311846FFF7F2FFBFF34F8F0549ED
:10A1E000054BCA6802F4E0621343CB60BFF34F8FA4
:10A1F00000BFFDE700ED00E00400FA0507289ABF64
:10A20000024B33F81000FA20704700BF229E030073
:10A21000024B5868103840B2704700BF00ED00E0B4
:10A22000084A202390FBF3F352F82330424202F015
:10A230001F0200F01F0058BF504223FA00F000F048
:10A240000100704700E100E046DF704730B501F1E2
:10A2500010031032103013F8014D12F8015D8B42DB
:10A2600084EA050400F8014DF5D130BD2DE9F04731
:10A27000144690B002F10F05102288462D110146B8
:10A280000DEB0200994604F00F040FF014FA0DB123
:10A29000002C44D04FF0000A02261022002108A80A
:10A2A0000FF014FA04A8FFF7CFFF01220DF13F01D0
:10A2B00010AB13F9100D1F46994234D19DF83F3071
:10A2C00001325B00DBB20028D2B2B8BF83F0870353
:10A2D00096428DF83F30EBD2013D6E46BAF1000F49
:10A2E0002CD03A4608EB05113046FFF7AFFF10229D
:10A2F000002138460FF0EAF90024AC4234DB3A463C
:10A30000314608A8FFF7A2FF04A8FFF79DFF10221F
:10A31000394648460FF0CFF910B0BDE8F0874FF04E
:10A32000010A5646B9E793F801E093F800C04FEAF6
:10A33000DE1E4EEA4C0E03F801EBBDE7224608EBA9
:10A34000051168460FF0B7F910AB234480220134A1
:10A3500003F8402C6C44A31B102B02D13A46314623
:10A36000C2E704F801ABF6E708EB0412394608A887
:10A37000FFF76CFF04A8FFF767FF0134BDE700009B
:10A38000094B1A68824204D142691A6000230370A3
:10A3900070471B68002BF9D05A69904202D142697C
:10A3A0005A61F3E71346F5E7C049002038B5124B70
:10A3B0001A6804462AB11A6845685268AA1A002A1F
:10A3C0000DDA1A6862611C609A88013292B29A8032
:10A3D00012B97846FDF792F80123237038BD196849
:10A3E0004A691AB15068401B002802DB62614C6167
:10A3F000EAE71146F4E700BFC0490020014B1868A6
:10A4000000F00EBDBC49002008B50E4B1A68BAB169
:10A410001A685268821A12F1640F43BF19680A4A17
:10A420004968094A56BF00F1640102230223012052
:10A4300000F0C8F820B17846BDE80840FDF75EB8E6
:10A4400008BD00BFC0490020FDA302002DE9F04176
:10A4500000F002F9224E054637464FF000083368F7
:10A4600023B133685B685B1B642B06D400F0F4F8FF
:10A47000FFF7CAFF0120BDE8F08134682378012B83
:10A4800002D07846FDF73AF863693B60BB88C4F8B0
:10A4900014809BB25A1E92B2BA8013B97846FDF767
:10A4A0002DF8A36813B97846FDF728F8022328464B
:10A4B00023702169A368984700F0CEF82378022B17
:10A4C0000546CCD1E2680AB92270C8E76368134434
:10A4D000591B6429FBD463602046FFF767FFBEE782
:10A4E000C049002008B50822002104480FF0EEF80A
:10A4F000034800F077FC034B186008BDC0490020FA
:10A500004DA40200BC49002010B5044600F062FDD5
:10A5100010B97846FCF7F2FF14B97846FCF7EEFF65
:10A52000A36813B97846FCF7E9FF2378012B02D121
:10A530007846FCF7E3FF002363612046FFF736FF10
:10A5400000F08AF8BDE81040FFF75EBF10B5044682
:10A5500000F040FD10B97846FCF7D0FF14B97846FA
:10A56000FCF7CCFF2046FFF70BFF0023636100F0F0
:10A5700073F8BDE81040FFF747BF38B504460D46F5
:10A5800000F028FD10B97846FCF7B8FF14B97846FA
:10A59000FCF7B4FF2046FFF7F3FE0023636120467B
:10A5A0006560FFF703FF00F057F8BDE83840FFF79C
:10A5B0002BBF0000024B1B6803B962B6704700BF97
:10A5C000EC490020022838B531D803F003049C423E
:10A5D0002FD1EFF31083184D2B6072B6174B43F851
:10A5E0002020174B43F82010164B1C54164B00220A
:10A5F00043F82020154B1B78ABB1154B1B68CC1AC8
:10A6000048BF5C1A830003F1804303F50043002236
:10A61000C3F840211030012202FA00F00D4AC2F8BE
:10A620000403C3F84045FFF7C5FF002038BD0720ED
:10A6300038BD0A2038BD00BFEC490020CC490020BD
:10A64000E0490020C8490020F4490020D8490020F2
:10A65000DC4900200080004008B5EFF310830B4A6E
:10A66000136072B60A4B1B786BB10A4B0022C3F819
:10A670004C210122DA64D3F84C05074B1B681844BF
:10A68000FFF798FF08BD054B1868F9E7EC49002073
:10A69000D849002000800040DC490020F04900201B
:10A6A0002DE9F047DFF87490DFF874A000244FEA3A
:10A6B000840808F1804505F50045D5F84031EBB137
:10A6C000D9F8043304F1100201269640334215D024
:10A6D00058F80A7017B97846FCF710FF00234AF8BB
:10A6E0000830C9F80863FFF7B7FF0B4BE35C9B0723
:10A6F000014608D5B8470023C5F840310134032C82
:10A70000D5D1BDE8F087384600F018FB0028F2D01C
:10A710007846FCF7F3FEEEE7C849002000800040D1
:10A72000CC4900202DE9F843324FDFF8E890054688
:10A730000026B846B40004F1804303F5004300222C
:10A74000C3F84025C3F84021D3F840313A6859F89E
:10A75000263005F17801981A48BFD01AB1EB020EE5
:10A7600048BFA2EB010E8645234A2BD913593BB1B2
:10A7700000211151214AB25C920719D52846984709
:10A780001F4BE2581AB1012111600022E25001363C
:10A79000032ECFD11B4B1B681BB91B4B4FF4807290
:10A7A0001A601A4BC8F8005001221A70BDE8F883ED
:10A7B0002946184600F0C2FA0028E1D07846FCF796
:10A7C0009DFEDDE71259002AE1D004F180445A1BB6
:10A7D00004F5004448BFEA1A0023C4F8403106F1EA
:10A7E000100101238B400A49C1F80433C4F8402505
:10A7F000CDE700BFDC490020CC490020C84900203B
:10A80000F4490020EC49002000E100E0D849002094
:10A8100000800040E049002070B500230F49104C33
:10A82000104D1A465E5CF60742BF5A5444F8232086
:10A8300045F823200133032BF4D10B4B18600B4B4D
:10A8400000221A700A4B4FF0FF32C3F80823094B5D
:10A850004FF48072C3F8802170BD00BFC84900204A
:10A86000CC490020F4490020F0490020D8490020BC
:10A870000080004000E100E030DF704731DF7047CA
:10A8800010B5034605C89C68D968A0EB721082EA2F
:10A89000F4320C44014410441A605C609960D86042
:10A8A00010BD37B50C46054610B97846FCF726FEB4
:10A8B0000023A34201D303B030BD0DF10700FFF721
:10A8C000DBFF9DF807100029F7D0E21A914288BFFC
:10A8D0008DF80720E8189DF80710FFF7CFFF9DF8C7
:10A8E00007201344E5E7000037B5044602A800231B
:10A8F00040F8043D0421FFF7D4FF074B2360019B80
:10A900006360A360E36014252046FFF7B9FF013DB3
:10A91000FAD103B030BD00BFED5EEAF1704748DF09
:10A92000704749DF70474ADF70470000064A03233B
:10A9300013751168054B936140F6D862914288BF48
:10A9400043F2B0629A6070472C4A00204C4A0020C3
:10A95000064A13685068064A126818442832783844
:10A960005343044AB3FBF2F3C01A70472C4A002049
:10A97000484A002040420F0010B5294B30B11A69F7
:10A98000996901321A611A680A441A60D968012269
:10A990001A759A69013152080129D9609A610CD05F
:10A9A000022918D099691A681E480A44824223D89D
:10A9B00040F6D76291421FD910BDB2F5FA7F03D19C
:10A9C00030B900229A61EDE740F6D8618A42E9D8B1
:10A9D00040F6D862F6E71A69022A03D11968114ACB
:10A9E000521AEFE7012ADDD10028EAD0DAE77846EB
:10A9F000BDE81040FCF782BD012258685A7200245D
:10AA00001C75FFF78FFE04F0C1F8FFF7A1FF0323C9
:10AA10000146054A2046FFF7D5FD0028E7D110BDC5
:10AA20002C4A0020809698002DA90200F8B5444CCD
:10AA3000444D012323722B781BB1434B1B78002B11
:10AA400064D00023237504285CD8DFE800F00356A7
:10AA500053514D003D4AE3602361D2F80405A27AC8
:10AA60003B4D002162B3A37223686268C5E900010F
:10AA700013440121374A636021752368364992687F
:10AA80002260002B08BF0B46991AB1F57A7F27D3B5
:10AA90009A4225D8A161237D023B012B0CD8637A11
:10AAA0003BB104F08FF8FFF753FFFFF7B5FE00232B
:10AAB0006372254B00221A70002323722748F8BDC9
:10AAC000D5E90023DFF898E0821A22F07F420023C4
:10AAD000A2FB0E670EFB0377F30B43EA4743C4E781
:10AAE0004FF47A73A361D6E70120FFF745FFD2E761
:10AAF0000020FAE704F006F8CDE7FFF7D1FD04F0F7
:10AB000033F8C8E77846FCF7F9FCC4E7FFF7A4FD83
:10AB10006368C01A2B782060012B05D0022B09D066
:10AB20007846FCF7EBFC02E002222275A3720023B8
:10AB30002B70B0E703232375064BA361F7E700BF33
:10AB40002C4A00205D4A00205C4A002000B00040F2
:10AB5000604A00204C4A002080969800404A00201D
:10AB600040420F00043808B5032814D8DFE800F08D
:10AB70000A110502FFF7D5FE68B17846BDE8084026
:10AB8000FCF7BCBC044840F6D8638360FFF7CBFEFB
:10AB9000F2E70148FAE708BD4C4A00200C4A10B51C
:10ABA00043F2B06400239460012143F698241370AB
:10ABB00013715171D460074A1060074A1370074A35
:10ABC0001370074A1372537213609172536010BD71
:10ABD0004C4A0020484A00205C4A00205D4A002080
:10ABE0002C4A002008B50548FFF799FE20B9044813
:10ABF000BDE80840FFF797BE08BD00BF2DAA0200C0
:10AC00004C4A0020064B1B7D032B07D0054B1878C0
:10AC1000013801288CBF00200120704701207047B7
:10AC20002C4A00205D4A0020014B5868704700BF45
:10AC30002C4A002010B5064B587A40B1FFF788FE29
:10AC40000446FFF709FD0346201A48BF181B10BD34
:10AC50002C4A0020014B187A704700BF2C4A002074
:10AC6000EFF3108372B6054A527A22B1044A4FF4C8
:10AC70008071C2F8001103B962B670472C4A0020F7
:10AC800000E100E0024B01221A70FFF7E9BF00BFAC
:10AC90005D4A0020074A13782BB140B9064B1B7858
:10ACA000003318BF012310701BB1FFF7D9BF002379
:10ACB000F9E770475C4A00205D4A0020044B1B788E
:10ACC0000F2B1EBF034B4FF48022C3F800217047A7
:10ACD000AC4B002000E100E008B501460448FEF757
:10ACE00095FA10B9FFF7EAFF08BD042008BD00BFC0
:10ACF000684A002010B50C4C0C4B20700C480360C7
:10AD0000102343608360FEF767FA0A48FFF716FADC
:10AD100023780F2B07D0084A5B01DBB282F812338D
:10AD20004FF48023136010BDAC4B00207C4A002000
:10AD3000684A0020B04B002000E100E030B50D462D
:10AD400085B0044610B97846FCF7D8FB0023684666
:10AD50008DF8003001940295FFF7BEFF05B030BDBD
:10AD600010B5EFF3108472B60B490A68531C0B60E0
:10AD70005AB90A4B1B780F2B04D0094B4FF4802291
:10AD8000C3F8802004B962B610BD002BFAD1784612
:10AD9000FCF7B4FBF6E700BF7C4B0020AC4B002077
:10ADA00000E100E038B5EFF3108572B60A4C236875
:10ADB00013B97846FCF7A2FB2368013B23603BB93B
:10ADC000064B1B780F2B1EBF054B4FF480221A60D9
:10ADD00005B962B638BD00BF7C4B0020AC4B0020EB
:10ADE00000E100E038B5054610B97846FCF786FB6F
:10ADF000094C2368082B02D97846FCF77FFBEFF358
:10AE0000108372B62068421C2260044A42F8205027
:10AE100003B962B638BD00BF804B0020844B0020D0
:10AE200010B50E4B1B688342044602D87846FCF7E7
:10AE300065FBEFF3108172B6094A6009012304F043
:10AE40001F0403FA04F452F82030234342F8203060
:10AE5000FFF734FF01B962B610BD00BF804B002080
:10AE6000A84B002070B50D461646044610B978462A
:10AE7000FCF744FB15B97846FCF740FBEFF3108371
:10AE800072B60022A560E6602274246003B962B63F
:10AE900070BD000070B5044610B97846FCF72EFB73
:10AEA000A36813B97846FCF729FBEFF3108672B656
:10AEB000237C03F0FF055BB9012306482374214678
:10AEC000FFF746F9FFF7FAFE284606B962B670BDED
:10AED0001120FAE7B04B002010B5044610B97846AF
:10AEE000FCF70CFB207C10BD2DE9FF47324E337878
:10AEF00013B17846FCF702FB0125DFF8CC802F4F19
:10AF0000DFF8C89035700024D8F800309C4212D386
:10AF10002B48DFF8AC80FFF735F9002750BB294CF0
:10AF200069462046FEF79AF990B30023284633700D
:10AF300004B0BDE8F087600904F01F0201239340CC
:10AF400057F82020134213D0EFF3108172B657F850
:10AF5000202022EA030347F8203001B962B659F8ED
:10AF600024309847824618B92046FFF759FF5546C6
:10AF70000134C9E70468237C13B97846FCF7BEFAAC
:10AF8000E068A368984727744046FFF7FBF8C5E7D9
:10AF90009DF80030012B09D008D3022BC0D1019BB2
:10AFA000002BBDD0039902989847B9E7019B002B6D
:10AFB000B6D002989847B3E7B84B0020A84B0020C2
:10AFC000B04B0020684A0020804B0020844B0020BA
:10AFD000FFF78ABF07B5FFF71BF98DF803009DF84F
:10AFE00003301749F02B0DD10B780F2B25D01220F1
:10AFF000FFF716F980F00100C0B200F0010003B0C5
:10B000005DF804FB9DF803305BB2002BADBF03F18C
:10B01000604303F00F030B4A03F56143B4BFD35CF5
:10B0200093F800335B090193019A0B78934204D0A3
:10B03000019A9342DBD30020DFE70120DDE700BF68
:10B04000AC4B002014ED00E046DF704730B58DB00A
:10B050000D4614460146102268460EF02CFB1022C5
:10B0600029460DEB02000EF026FB6846FFF7ECFFC9
:10B07000102208A920460EF01EFB0DB030BDFFF7D0
:10B08000F5B801F0DBBB01F003BC30B4032956D89E
:10B09000DFE801F00227275000241C70817A5A78DB
:10B0A00061F306025A70C17AD2B261F3C7125A70C4
:10B0B000C1680D04C1F3074205F47F0501F47F4127
:10B0C0002A430A43C2F307219A70120C1A71D970ED
:10B0D0000189DC710A0A42EA0122A3F805201C72E8
:10B0E00022E01970597801F0800162F3C71159709C
:10B0F000C1680C04C1F3074204F47F0401F47F41EA
:10B1000022430A439A70C2F30721120C1A71D970B4
:10B1100001890A0A42EA0122A3F8052041880A0AA5
:10B1200042EA0122A3F80720026912BAC3F80920F3
:10B1300030BC7047032200241A705C70B8E7784670
:10B1400030BCFCF7DBB97FB50E461546044600B1AE
:10B1500012B97846FCF7D2F91022002168460EF0A9
:10B16000B5FA2B46324621466846FFF77FF804B011
:10B1700070BD2DE9FF410B9D884616461C460746CB
:10B1800010B10AB103B115B97846FCF7B7F96B46AF
:10B19000424639463046FFF769F82B469DF828208D
:10B1A00021466846FFF762F804B0BDE8F081000070
:10B1B0002DE9F04786B0894600AF1446984606460A
:10B1C00008B101B113B97846FCF798F904F11803F6
:10B1D00023F00703ADEB030D264B042118687860BC
:10B1E0006A467818FFF7AFFF07F108033146684653
:10B1F0001022FFF73BF82246494668460EF05BFAFC
:10B200000123E2180DF8043069466B4607F1080087
:10B2100092B2FFF72BF89DF80F30464603F07F03FC
:10B2200006F8013B04F1100A2246494604F11105D3
:10B2300004A80EF040FAADB202230DF80A302A46F7
:10B240003346694607F10800FFF710F8314610222F
:10B2500068460EF030FA03230DF80A3007F10800B3
:10B2600008F111032A466946FFF700F81837BD4672
:10B27000BDE8F087329E030070B50D4688B00646E3
:10B2800000B111B97846FCF739F9114C0421206856
:10B29000019004AA0DEB0100FFF755FF04AB314606
:10B2A00018461022FEF7E2FF234602A953F8040FC6
:10B2B00002901B798DF80C3004AB18460522FEF77E
:10B2C000D5FF082206A928460EF0F5F908B070BD92
:10B2D000369E030070B50D4686B0064600B111B922
:10B2E0007846FCF70BF90F4C54F8040B009002AAB7
:10B2F00068460421FFF727FF02AB314618461022AB
:10B30000FEF7B4FF2068019002AB042218460DEB53
:10B310000201FEF7ABFF9DF8173003F03F032B70DF
:10B3200006B070BD3F9E030030B50268037BD17A42
:10B3300087B000298DF808308368049214BF082173
:10B34000042109330B440446039301A94368059380
:10B3500002A801F057FCD0B1237B012B0ED0256849
:10B36000FEF7CCFA286120680C30FEF75FFA05463C
:10B3700020B101F0B9FC284607B030BD2168019822
:10B3800000F095FA019B093323610025F3E70425BA
:10B39000F1E7000008B5074B40B91860FEF714F953
:10B3A000FEF7A6F8BDE8084002F09AB842681A60B5
:10B3B000F4E700BFBC4B002008B5FEF727F9BDE855
:10B3C000084002F0CBB810B5044610B97846FCF737
:10B3D00095F8236813B97846FCF790F823685B6901
:10B3E00013B97846FCF78AF8002323732046BDE89A
:10B3F0001040FFF799BF10B5044610B97846FCF726
:10B400007DF8236913B97846FCF778F8236813B9F7
:10B410007846FCF773F823685B6913B97846FCF744
:10B420006DF8206900F0A0FAA168024600232068A8
:10B4300000F0FEF9BDE8104001F030BCF0B50E465A
:10B4400097B017460446002844D000F08FFA2146F2
:10B45000021B0EA80EF02FF908AD00230093224620
:10B460000EAB3146284600F0D1F8044650B99DF89D
:10B4700020303BB10B9BB3F1807F03D29DF92A3082
:10B48000002B4ADA204617B0F0BD3F4B1B689B07E4
:10B490003DD53E4B1B68012B39DD2F213C480EF07A
:10B4A000E9F970B12F213A480EF0E4F9411C394B0B
:10B4B000394AD3F8043500920220912200F0F6FBBD
:10B4C00025E05C2132480EF0D5F908B15C21EAE7AD
:10B4D0002F49ECE70E24D5E79DF82A300395013B70
:10B4E0008DF82A304FF0FF33049303A8012305960B
:10B4F0008DF81830FFF718FF0028C6D132460DF13D
:10B50000410107980EF0D7F803A8FFF774FF9DF8E4
:10B510002A3001338DF82A3030E00D9B13B978467C
:10B52000FBF7ECFF3146284600F016FAC6B23B4660
:10B530002A4631460DF14100FCF730FF0446012058
:10B5400002F044FED0B19DF82A30012B16D99DF8A7
:10B550002030012B05D103A9BDF822000AF0C8F85C
:10B5600060B90E4B1B68002BB6D09DF82A20BDF8A1
:10B570002210BDF8280098470028ADD10B99BDF8DE
:10B580002800FCF71DF87DE7502E00204C2E0020EF
:10B59000479E030000B00040629E0300BC4B0020A9
:10B5A00008B538B1012801D1032008BD7846FBF762
:10B5B000A5FF002008BD70B5064688B00D461446AC
:10B5C0000021052204A80EF081F8336907221BBA76
:10B5D000A9180DF11900CDF815300EF06CF870694E
:10B5E0006A46113004A9FFF731FDAB1D0DF10600CD
:10B5F000E21D13F8011910F8014DAB4281EA040174
:10B6000002F8011DF5D108B070BD00002DE9F04F22
:10B610009BB004AF1D4697F880307B608A46164683
:10B62000044618B112B10DB1AA4202D17846FBF717
:10B6300065FF3078C009FEF76BF900232061636174
:10B6400032787B6102F07F02FA60BB6107F1180279
:10B6500007F11401F86809F05DFF4FF0000807F1E9
:10B66000140353F82820002A46D00023FB74A7F8BF
:10B6700048307B64F31DFB636261EB1D2A46314653
:10B68000204607F12409FB64C7F83890FFF793FFC1
:10B690006B78DB09E3726B7803F07F03A372EB78BE
:10B6A000AA781B0243EA02432A791343E3606B79C9
:10B6B000A87940EA03202081FEF73EFB012814D13F
:10B6C000E27A002AAAF1090314BF08220422934255
:10B6D0000BD3E1682089FBF755FF30B907F11C0156
:10B6E00020890AF005F8834640B3FB7C23BB08F1B0
:10B6F0000108B8F1020FB2D17B69002BA6D1052059
:10B700005C37BD46BDE8F08F10F8012B4FEA121BE5
:10B7100002F00F021CF80BB003F802BC1CF8022068
:10B7200003F8012C52E05C213A480EF0A3F808B16E
:10B730005C215BE037495DE00020E1E7E37A78686F
:10B74000002B14BF08220422AAF1070387F8542013
:10B750009B1AFA6B9BB2A7F8403013443B65FFF786
:10B760001FFF4B4601465A462046FFF78EFC636991
:10B7700007F11301013307F134007B63FFF783FC0A
:10B78000FB7C002BB3D0EB79287A40EA0320608061
:10B79000FEF7D2FA204B20701B689B07A5D51F4BE4
:10B7A0001B68032BA1DDB7F84010C7F808D04B0089
:10B7B000083323F00703ADEB030DD7F84CE0184B2B
:10B7C0000DF11009D3F800C070464B46A0EB0E02F5
:10B7D000914203F1020397D8002309F811300D4874
:10B7E0002F210EF047F800289DD02F2109480EF098
:10B7F00041F8411C0B4B0C4AD3F8043501920B4A1B
:10B800000092CDF80890E622042000F04FFAD7F815
:10B8100008D06AE78F9E0300502E00204C2E002097
:10B82000542E002000B00040AD9E03007C99030020
:10B83000F0B50C468FB016461F46054610B978463F
:10B84000FBF75CFE16B97846FBF758FE012F02D9CC
:10B850007846FBF753FE3846FFF7A2FE01AF3B46A2
:10B86000014600222846FFF710FCEB7A0697002BD2
:10B8700014BF082304238DF834306B69A11C0133F5
:10B88000059389B2F31D0022ADF8201005A81944D4
:10B8900007930B93ADF8282009920C91FFF7F1FB69
:10B8A000324631462846FFF786FE0FB0F0BD38B568
:10B8B0000D46044610B97846FBF720FE15B97846C8
:10B8C000FBF71CFE2889FEF737FA012802D07846DC
:10B8D000FBF714FE95F90A30002B02DA7846FBF7E5
:10B8E0000DFEEB68B3F1807F02D37846FBF706FECE
:10B8F0006B6913B97846FBF701FE2B6903F001026F
:10B90000237803F07F0343EAC21323706A69127835
:10B9100023F07F0302F07F02134323706378EA7AF7
:10B9200003F07F0343EAC213DBB26370AA7A23F009
:10B930007F0302F07F0213436370EB6823711A0CDC
:10B94000A2701A0AE2702B89A3711A0A62716B88BD
:10B9500023721A0AE27138BDC37A002B14BF082083
:10B9600004200939081A70470938704701307047B8
:10B97000436849B9027880781A441B78C31A12F8D0
:10B98000010C1844C0B270475A185B5C12F8010CE5
:10B99000C01AF7E738B50D46044610B97846FBF7EC
:10B9A000ADFD2378AB4202D87846FBF7A7FD2946C8
:10B9B0002046FFF7DDFF40B163686278585DA378E9
:10B9C000013B1840A36802FB003038BD38B50C4677
:10B9D000054610B97846FBF791FD2B78A34202D8B3
:10B9E0007846FBF78BFD21462846FFF7C1FF18B1CB
:10B9F0006A68135D0133135538BD10B5044610B99C
:10BA00007846FBF77BFD002319462278934200D34A
:10BA100010BD6268D1540133F7E710B5437804468E
:10BA200013B97846FBF76AFD2378012B02D87846D4
:10BA3000FBF764FDA36813B97846FBF75FFD636805
:10BA400013B97846FBF75AFDA3783BB15A1E1A4248
:10BA500004D12046BDE81040FFF7CFBF7846FBF782
:10BA60004DFDF6E738B50D46044610B97846FBF7AC
:10BA700045FD2378AB4202D87846FBF73FFD2946C7
:10BA80002046BDE83840FFF773BF08B520B119B1B3
:10BA9000FFF720FC002008BD0E2008BD13B50B46A3
:10BAA00050B149B102A9002401F8014D0122FFF76C
:10BAB0007FFB204602B010BD0E20FBE730B50C46E0
:10BAC0008BB00546E0B1D9B11031FFF7D5FB0D4B76
:10BAD00003930D4B186804909B88ADF8143006AAA8
